{
  "contractName": "Exceptions",
  "sourceName": "contracts/Exceptions.sol",
  "abi": [
    {
      "inputs": [],
      "name": "getMcauseBreakpoint",
      "outputs": [
        {
          "internalType": "uint64",
          "name": "",
          "type": "uint64"
        }
      ],
      "stateMutability": "pure",
      "type": "function"
    },
    {
      "inputs": [],
      "name": "getMcauseEcallBase",
      "outputs": [
        {
          "internalType": "uint64",
          "name": "",
          "type": "uint64"
        }
      ],
      "stateMutability": "pure",
      "type": "function"
    },
    {
      "inputs": [],
      "name": "getMcauseFetchPageFault",
      "outputs": [
        {
          "internalType": "uint64",
          "name": "",
          "type": "uint64"
        }
      ],
      "stateMutability": "pure",
      "type": "function"
    },
    {
      "inputs": [],
      "name": "getMcauseIllegalInsn",
      "outputs": [
        {
          "internalType": "uint64",
          "name": "",
          "type": "uint64"
        }
      ],
      "stateMutability": "pure",
      "type": "function"
    },
    {
      "inputs": [],
      "name": "getMcauseInsnAccessFault",
      "outputs": [
        {
          "internalType": "uint64",
          "name": "",
          "type": "uint64"
        }
      ],
      "stateMutability": "pure",
      "type": "function"
    },
    {
      "inputs": [],
      "name": "getMcauseInsnAddressMisaligned",
      "outputs": [
        {
          "internalType": "uint64",
          "name": "",
          "type": "uint64"
        }
      ],
      "stateMutability": "pure",
      "type": "function"
    },
    {
      "inputs": [],
      "name": "getMcauseInterruptFlag",
      "outputs": [
        {
          "internalType": "uint64",
          "name": "",
          "type": "uint64"
        }
      ],
      "stateMutability": "pure",
      "type": "function"
    },
    {
      "inputs": [],
      "name": "getMcauseLoadAccessFault",
      "outputs": [
        {
          "internalType": "uint64",
          "name": "",
          "type": "uint64"
        }
      ],
      "stateMutability": "pure",
      "type": "function"
    },
    {
      "inputs": [],
      "name": "getMcauseLoadAddressMisaligned",
      "outputs": [
        {
          "internalType": "uint64",
          "name": "",
          "type": "uint64"
        }
      ],
      "stateMutability": "pure",
      "type": "function"
    },
    {
      "inputs": [],
      "name": "getMcauseLoadPageFault",
      "outputs": [
        {
          "internalType": "uint64",
          "name": "",
          "type": "uint64"
        }
      ],
      "stateMutability": "pure",
      "type": "function"
    },
    {
      "inputs": [],
      "name": "getMcauseStoreAmoAccessFault",
      "outputs": [
        {
          "internalType": "uint64",
          "name": "",
          "type": "uint64"
        }
      ],
      "stateMutability": "pure",
      "type": "function"
    },
    {
      "inputs": [],
      "name": "getMcauseStoreAmoAddressMisaligned",
      "outputs": [
        {
          "internalType": "uint64",
          "name": "",
          "type": "uint64"
        }
      ],
      "stateMutability": "pure",
      "type": "function"
    },
    {
      "inputs": [],
      "name": "getMcauseStoreAmoPageFault",
      "outputs": [
        {
          "internalType": "uint64",
          "name": "",
          "type": "uint64"
        }
      ],
      "stateMutability": "pure",
      "type": "function"
    }
  ],
  "bytecode": "0x611512610026600b82828239805160001a60731461001957fe5b30600052607381538281f3fe73000000000000000000000000000000000000000030146080604052600436106100f45760003560e01c806348b36c3a11610096578063883d4fb011610070578063883d4fb0146101a9578063a4652fa5146101b1578063d8685e08146101b9578063f4a40761146101c1576100f4565b806348b36c3a146101915780634d89d393146101995780637273ba70146101a1576100f4565b80633afcb7a1116100d25780633afcb7a11461017157806340391774146101795780634074af28146101815780634431216014610189576100f4565b806301298404146100f95780630ab3e6661461011d5780630b2c700914610125575b600080fd5b6101016101c9565b604080516001600160401b039092168252519081900360200190f35b6101016101ce565b81801561013157600080fd5b5061016f6004803603606081101561014857600080fd5b506001600160a01b03813516906001600160401b03602082013581169160400135166101d3565b005b610101611422565b610101611427565b61010161142c565b610101611431565b610101611436565b61010161143b565b610101611440565b610101611445565b6101016114cd565b6101016114d2565b6101016114d7565b600590565b600090565b600080846001600160a01b031663f7ac913d6040518163ffffffff1660e01b8152600401602060405180830381600087803b15801561021157600080fd5b505af1158015610225573d6000803e3d6000fd5b505050506040513d602081101561023b57600080fd5b50516040805163026797d960e01b8152905191925073__$6af7953b03ecb3cadd1ca9bb3675b9b8d6$__9163026797d991600480820192602092909190829003018186803b15801561028c57600080fd5b505af41580156102a0573d6000803e3d6000fd5b505050506040513d60208110156102b657600080fd5b50516001600160401b0390811690821611610470576102d3611445565b84166001600160401b03166000146103ee57600173__$6af7953b03ecb3cadd1ca9bb3675b9b8d6$__63b4e549ba6040518163ffffffff1660e01b815260040160206040518083038186803b15801561032b57600080fd5b505af415801561033f573d6000803e3d6000fd5b505050506040513d602081101561035557600080fd5b81019080805190602001909291905050500384166001600160401b0316856001600160a01b031663a740dbc16040518163ffffffff1660e01b8152600401602060405180830381600087803b1580156103ad57600080fd5b505af11580156103c1573d6000803e3d6000fd5b505050506040513d60208110156103d757600080fd5b50516001600160401b0316901c6001169150610470565b836001600160401b0316856001600160a01b0316636a72b27d6040518163ffffffff1660e01b8152600401602060405180830381600087803b15801561043357600080fd5b505af1158015610447573d6000803e3d6000fd5b505050506040513d602081101561045d57600080fd5b50516001600160401b0316901c60011691505b6001600160401b03821615610c4f57846001600160a01b03166378c49574856040518263ffffffff1660e01b815260040180826001600160401b03168152602001915050600060405180830381600087803b1580156104ce57600080fd5b505af11580156104e2573d6000803e3d6000fd5b50505050846001600160a01b03166357907837866001600160a01b031663650ca32b6040518163ffffffff1660e01b8152600401602060405180830381600087803b15801561053057600080fd5b505af1158015610544573d6000803e3d6000fd5b505050506040513d602081101561055a57600080fd5b5051604080516001600160e01b031960e085901b1681526001600160401b03909216600483015251602480830192600092919082900301818387803b1580156105a257600080fd5b505af11580156105b6573d6000803e3d6000fd5b50505050846001600160a01b0316639c7b005d846040518263ffffffff1660e01b815260040180826001600160401b03168152602001915050600060405180830381600087803b15801561060957600080fd5b505af115801561061d573d6000803e3d6000fd5b505050506000856001600160a01b031663b5b98ed46040518163ffffffff1660e01b8152600401602060405180830381600087803b15801561065e57600080fd5b505af1158015610672573d6000803e3d6000fd5b505050506040513d602081101561068857600080fd5b505160408051633a75c9d960e21b8152905191925073__$6af7953b03ecb3cadd1ca9bb3675b9b8d6$__9163e9d7276491600480820192602092909190829003018186803b1580156106d957600080fd5b505af41580156106ed573d6000803e3d6000fd5b505050506040513d602081101561070357600080fd5b50516040805163026797d960e01b815290516001600160401b039092169173__$6af7953b03ecb3cadd1ca9bb3675b9b8d6$__9163026797d9916004808301926020929190829003018186803b15801561075c57600080fd5b505af4158015610770573d6000803e3d6000fd5b505050506040513d602081101561078657600080fd5b505160408051631bd5453960e21b815290516001600160401b0385811693169290921c60011690921b9173__$6af7953b03ecb3cadd1ca9bb3675b9b8d6$__91636f5514e491600480820192602092909190829003018186803b1580156107ec57600080fd5b505af4158015610800573d6000803e3d6000fd5b505050506040513d602081101561081657600080fd5b50516040805163c3b85a8f60e01b81529051911993909316919091179173__$6af7953b03ecb3cadd1ca9bb3675b9b8d6$__9163c3b85a8f91600480820192602092909190829003018186803b15801561086f57600080fd5b505af4158015610883573d6000803e3d6000fd5b505050506040513d602081101561089957600080fd5b505160408051636367286b60e11b815290516001600160401b0385811693169290921b9173__$6af7953b03ecb3cadd1ca9bb3675b9b8d6$__9163c6ce50d6916004808301926020929190829003018186803b1580156108f857600080fd5b505af415801561090c573d6000803e3d6000fd5b505050506040513d602081101561092257600080fd5b50516040805163594dc37360e01b81529051911993909316919091179173__$6af7953b03ecb3cadd1ca9bb3675b9b8d6$__9163594dc37391600480820192602092909190829003018186803b15801561097b57600080fd5b505af415801561098f573d6000803e3d6000fd5b505050506040513d60208110156109a557600080fd5b505160408051631eab89a760e31b81529119929092166001600160401b038116600483015291516001600160a01b0388169163f55c4d3891602480830192600092919082900301818387803b1580156109fd57600080fd5b505af1158015610a11573d6000803e3d6000fd5b5050505073__$6af7953b03ecb3cadd1ca9bb3675b9b8d6$__63026797d96040518163ffffffff1660e01b815260040160206040518083038186803b158015610a5957600080fd5b505af4158015610a6d573d6000803e3d6000fd5b505050506040513d6020811015610a8357600080fd5b50516001600160401b03838116911614610b7557856001600160a01b03166354749af373__$6af7953b03ecb3cadd1ca9bb3675b9b8d6$__63026797d96040518163ffffffff1660e01b815260040160206040518083038186803b158015610aea57600080fd5b505af4158015610afe573d6000803e3d6000fd5b505050506040513d6020811015610b1457600080fd5b5051604080516001600160e01b031960e085901b1681526001600160401b03909216600483015251602480830192600092919082900301818387803b158015610b5c57600080fd5b505af1158015610b70573d6000803e3d6000fd5b505050505b856001600160a01b031663f9911587876001600160a01b0316630f84c0466040518163ffffffff1660e01b8152600401602060405180830381600087803b158015610bbf57600080fd5b505af1158015610bd3573d6000803e3d6000fd5b505050506040513d6020811015610be957600080fd5b5051604080516001600160e01b031960e085901b1681526001600160401b03909216600483015251602480830192600092919082900301818387803b158015610c3157600080fd5b505af1158015610c45573d6000803e3d6000fd5b505050505061141b565b846001600160a01b03166389365909856040518263ffffffff1660e01b815260040180826001600160401b03168152602001915050600060405180830381600087803b158015610c9e57600080fd5b505af1158015610cb2573d6000803e3d6000fd5b50505050846001600160a01b03166328751b36866001600160a01b031663650ca32b6040518163ffffffff1660e01b8152600401602060405180830381600087803b158015610d0057600080fd5b505af1158015610d14573d6000803e3d6000fd5b505050506040513d6020811015610d2a57600080fd5b5051604080516001600160e01b031960e085901b1681526001600160401b03909216600483015251602480830192600092919082900301818387803b158015610d7257600080fd5b505af1158015610d86573d6000803e3d6000fd5b50505050846001600160a01b031663f604edb8846040518263ffffffff1660e01b815260040180826001600160401b03168152602001915050600060405180830381600087803b158015610dd957600080fd5b505af1158015610ded573d6000803e3d6000fd5b505050506000856001600160a01b031663b5b98ed46040518163ffffffff1660e01b8152600401602060405180830381600087803b158015610e2e57600080fd5b505af1158015610e42573d6000803e3d6000fd5b505050506040513d6020811015610e5857600080fd5b505160408051633f35106560e11b8152905191925073__$6af7953b03ecb3cadd1ca9bb3675b9b8d6$__91637e6a20ca91600480820192602092909190829003018186803b158015610ea957600080fd5b505af4158015610ebd573d6000803e3d6000fd5b505050506040513d6020811015610ed357600080fd5b50516040805163cf7ecf7960e01b815290516001600160401b039092169173__$6af7953b03ecb3cadd1ca9bb3675b9b8d6$__9163cf7ecf79916004808301926020929190829003018186803b158015610f2c57600080fd5b505af4158015610f40573d6000803e3d6000fd5b505050506040513d6020811015610f5657600080fd5b50516040805163a8f81e2360e01b815290516001600160401b0385811693169290921c60011690921b9173__$6af7953b03ecb3cadd1ca9bb3675b9b8d6$__9163a8f81e2391600480820192602092909190829003018186803b158015610fbc57600080fd5b505af4158015610fd0573d6000803e3d6000fd5b505050506040513d6020811015610fe657600080fd5b50516040805163285b784760e21b81529051911993909316919091179173__$6af7953b03ecb3cadd1ca9bb3675b9b8d6$__9163a16de11c91600480820192602092909190829003018186803b15801561103f57600080fd5b505af4158015611053573d6000803e3d6000fd5b505050506040513d602081101561106957600080fd5b5051604080516373a3563960e11b815290516001600160401b0385811693169290921b9173__$6af7953b03ecb3cadd1ca9bb3675b9b8d6$__9163e746ac72916004808301926020929190829003018186803b1580156110c857600080fd5b505af41580156110dc573d6000803e3d6000fd5b505050506040513d60208110156110f257600080fd5b505160408051633cbc879360e21b81529051911993909316919091179173__$6af7953b03ecb3cadd1ca9bb3675b9b8d6$__9163f2f21e4c91600480820192602092909190829003018186803b15801561114b57600080fd5b505af415801561115f573d6000803e3d6000fd5b505050506040513d602081101561117557600080fd5b505160408051631eab89a760e31b81529119929092166001600160401b038116600483015291516001600160a01b0388169163f55c4d3891602480830192600092919082900301818387803b1580156111cd57600080fd5b505af11580156111e1573d6000803e3d6000fd5b5050505073__$6af7953b03ecb3cadd1ca9bb3675b9b8d6$__63cf7ecf796040518163ffffffff1660e01b815260040160206040518083038186803b15801561122957600080fd5b505af415801561123d573d6000803e3d6000fd5b505050506040513d602081101561125357600080fd5b50516001600160401b0383811691161461134557856001600160a01b03166354749af373__$6af7953b03ecb3cadd1ca9bb3675b9b8d6$__63cf7ecf796040518163ffffffff1660e01b815260040160206040518083038186803b1580156112ba57600080fd5b505af41580156112ce573d6000803e3d6000fd5b505050506040513d60208110156112e457600080fd5b5051604080516001600160e01b031960e085901b1681526001600160401b03909216600483015251602480830192600092919082900301818387803b15801561132c57600080fd5b505af1158015611340573d6000803e3d6000fd5b505050505b856001600160a01b031663f9911587876001600160a01b03166311cf3a226040518163ffffffff1660e01b8152600401602060405180830381600087803b15801561138f57600080fd5b505af11580156113a3573d6000803e3d6000fd5b505050506040513d60208110156113b957600080fd5b5051604080516001600160e01b031960e085901b1681526001600160401b03909216600483015251602480830192600092919082900301818387803b15801561140157600080fd5b505af1158015611415573d6000803e3d6000fd5b50505050505b5050505050565b600190565b600d90565b600390565b600890565b600790565b600c90565b600290565b6000600173__$6af7953b03ecb3cadd1ca9bb3675b9b8d6$__63b4e549ba6040518163ffffffff1660e01b815260040160206040518083038186803b15801561148d57600080fd5b505af41580156114a1573d6000803e3d6000fd5b505050506040513d60208110156114b757600080fd5b505160019190036001600160401b03161b919050565b600f90565b600690565b60049056fea264697066735822122023b83beaf665020c3c9a808769f6aea5f2694e9569e3b9a340e33c85b18737b264736f6c63430007040033",
  "linkReferences": {
    "contracts/RiscVConstants.sol": {
      "RiscVConstants": [
        {
          "length": 20,
          "start": 632
        },
        {
          "length": 20,
          "start": 783
        },
        {
          "length": 20,
          "start": 1733
        },
        {
          "length": 20,
          "start": 1865
        },
        {
          "length": 20,
          "start": 2008
        },
        {
          "length": 20,
          "start": 2139
        },
        {
          "length": 20,
          "start": 2277
        },
        {
          "length": 20,
          "start": 2407
        },
        {
          "length": 20,
          "start": 2621
        },
        {
          "length": 20,
          "start": 2766
        },
        {
          "length": 20,
          "start": 3733
        },
        {
          "length": 20,
          "start": 3865
        },
        {
          "length": 20,
          "start": 4008
        },
        {
          "length": 20,
          "start": 4139
        },
        {
          "length": 20,
          "start": 4277
        },
        {
          "length": 20,
          "start": 4407
        },
        {
          "length": 20,
          "start": 4621
        },
        {
          "length": 20,
          "start": 4766
        },
        {
          "length": 20,
          "start": 5233
        }
      ]
    }
  },
  "deployedLinkReferences": {
    "contracts/RiscVConstants.sol": {
      "RiscVConstants": [
        {
          "length": 20,
          "start": 594
        },
        {
          "length": 20,
          "start": 745
        },
        {
          "length": 20,
          "start": 1695
        },
        {
          "length": 20,
          "start": 1827
        },
        {
          "length": 20,
          "start": 1970
        },
        {
          "length": 20,
          "start": 2101
        },
        {
          "length": 20,
          "start": 2239
        },
        {
          "length": 20,
          "start": 2369
        },
        {
          "length": 20,
          "start": 2583
        },
        {
          "length": 20,
          "start": 2728
        },
        {
          "length": 20,
          "start": 3695
        },
        {
          "length": 20,
          "start": 3827
        },
        {
          "length": 20,
          "start": 3970
        },
        {
          "length": 20,
          "start": 4101
        },
        {
          "length": 20,
          "start": 4239
        },
        {
          "length": 20,
          "start": 4369
        },
        {
          "length": 20,
          "start": 4583
        },
        {
          "length": 20,
          "start": 4728
        },
        {
          "length": 20,
          "start": 5195
        }
      ]
    }
  },
  "devdoc": {
    "author": "Felipe Argento",
    "kind": "dev",
    "methods": {
      "raiseException(MemoryInteractor,uint64,uint64)": {
        "params": {
          "cause": "Exception (or interrupt) mcause (or scause).",
          "mi": "Memory Interactor with which Step function is interacting.",
          "tval": "Associated tval."
        }
      }
    },
    "title": "Exceptions",
    "version": 1
  },
  "evm": {
    "bytecode": {
      "linkReferences": {
        "contracts/RiscVConstants.sol": {
          "RiscVConstants": [
            {
              "length": 20,
              "start": 632
            },
            {
              "length": 20,
              "start": 783
            },
            {
              "length": 20,
              "start": 1733
            },
            {
              "length": 20,
              "start": 1865
            },
            {
              "length": 20,
              "start": 2008
            },
            {
              "length": 20,
              "start": 2139
            },
            {
              "length": 20,
              "start": 2277
            },
            {
              "length": 20,
              "start": 2407
            },
            {
              "length": 20,
              "start": 2621
            },
            {
              "length": 20,
              "start": 2766
            },
            {
              "length": 20,
              "start": 3733
            },
            {
              "length": 20,
              "start": 3865
            },
            {
              "length": 20,
              "start": 4008
            },
            {
              "length": 20,
              "start": 4139
            },
            {
              "length": 20,
              "start": 4277
            },
            {
              "length": 20,
              "start": 4407
            },
            {
              "length": 20,
              "start": 4621
            },
            {
              "length": 20,
              "start": 4766
            },
            {
              "length": 20,
              "start": 5233
            }
          ]
        }
      },
      "opcodes": "PUSH2 0x1512 PUSH2 0x26 PUSH1 0xB DUP3 DUP3 DUP3 CODECOPY DUP1 MLOAD PUSH1 0x0 BYTE PUSH1 0x73 EQ PUSH2 0x19 JUMPI INVALID JUMPDEST ADDRESS PUSH1 0x0 MSTORE PUSH1 0x73 DUP2 MSTORE8 DUP3 DUP2 RETURN INVALID PUSH20 0x0 ADDRESS EQ PUSH1 0x80 PUSH1 0x40 MSTORE PUSH1 0x4 CALLDATASIZE LT PUSH2 0xF4 JUMPI PUSH1 0x0 CALLDATALOAD PUSH1 0xE0 SHR DUP1 PUSH4 0x48B36C3A GT PUSH2 0x96 JUMPI DUP1 PUSH4 0x883D4FB0 GT PUSH2 0x70 JUMPI DUP1 PUSH4 0x883D4FB0 EQ PUSH2 0x1A9 JUMPI DUP1 PUSH4 0xA4652FA5 EQ PUSH2 0x1B1 JUMPI DUP1 PUSH4 0xD8685E08 EQ PUSH2 0x1B9 JUMPI DUP1 PUSH4 0xF4A40761 EQ PUSH2 0x1C1 JUMPI PUSH2 0xF4 JUMP JUMPDEST DUP1 PUSH4 0x48B36C3A EQ PUSH2 0x191 JUMPI DUP1 PUSH4 0x4D89D393 EQ PUSH2 0x199 JUMPI DUP1 PUSH4 0x7273BA70 EQ PUSH2 0x1A1 JUMPI PUSH2 0xF4 JUMP JUMPDEST DUP1 PUSH4 0x3AFCB7A1 GT PUSH2 0xD2 JUMPI DUP1 PUSH4 0x3AFCB7A1 EQ PUSH2 0x171 JUMPI DUP1 PUSH4 0x40391774 EQ PUSH2 0x179 JUMPI DUP1 PUSH4 0x4074AF28 EQ PUSH2 0x181 JUMPI DUP1 PUSH4 0x44312160 EQ PUSH2 0x189 JUMPI PUSH2 0xF4 JUMP JUMPDEST DUP1 PUSH4 0x1298404 EQ PUSH2 0xF9 JUMPI DUP1 PUSH4 0xAB3E666 EQ PUSH2 0x11D JUMPI DUP1 PUSH4 0xB2C7009 EQ PUSH2 0x125 JUMPI JUMPDEST PUSH1 0x0 DUP1 REVERT JUMPDEST PUSH2 0x101 PUSH2 0x1C9 JUMP JUMPDEST PUSH1 0x40 DUP1 MLOAD PUSH1 0x1 PUSH1 0x1 PUSH1 0x40 SHL SUB SWAP1 SWAP3 AND DUP3 MSTORE MLOAD SWAP1 DUP2 SWAP1 SUB PUSH1 0x20 ADD SWAP1 RETURN JUMPDEST PUSH2 0x101 PUSH2 0x1CE JUMP JUMPDEST DUP2 DUP1 ISZERO PUSH2 0x131 JUMPI PUSH1 0x0 DUP1 REVERT JUMPDEST POP PUSH2 0x16F PUSH1 0x4 DUP1 CALLDATASIZE SUB PUSH1 0x60 DUP2 LT ISZERO PUSH2 0x148 JUMPI PUSH1 0x0 DUP1 REVERT JUMPDEST POP PUSH1 0x1 PUSH1 0x1 PUSH1 0xA0 SHL SUB DUP2 CALLDATALOAD AND SWAP1 PUSH1 0x1 PUSH1 0x1 PUSH1 0x40 SHL SUB PUSH1 0x20 DUP3 ADD CALLDATALOAD DUP2 AND SWAP2 PUSH1 0x40 ADD CALLDATALOAD AND PUSH2 0x1D3 JUMP JUMPDEST STOP JUMPDEST PUSH2 0x101 PUSH2 0x1422 JUMP JUMPDEST PUSH2 0x101 PUSH2 0x1427 JUMP JUMPDEST PUSH2 0x101 PUSH2 0x142C JUMP JUMPDEST PUSH2 0x101 PUSH2 0x1431 JUMP JUMPDEST PUSH2 0x101 PUSH2 0x1436 JUMP JUMPDEST PUSH2 0x101 PUSH2 0x143B JUMP JUMPDEST PUSH2 0x101 PUSH2 0x1440 JUMP JUMPDEST PUSH2 0x101 PUSH2 0x1445 JUMP JUMPDEST PUSH2 0x101 PUSH2 0x14CD JUMP JUMPDEST PUSH2 0x101 PUSH2 0x14D2 JUMP JUMPDEST PUSH2 0x101 PUSH2 0x14D7 JUMP JUMPDEST PUSH1 0x5 SWAP1 JUMP JUMPDEST PUSH1 0x0 SWAP1 JUMP JUMPDEST PUSH1 0x0 DUP1 DUP5 PUSH1 0x1 PUSH1 0x1 PUSH1 0xA0 SHL SUB AND PUSH4 0xF7AC913D PUSH1 0x40 MLOAD DUP2 PUSH4 0xFFFFFFFF AND PUSH1 0xE0 SHL DUP2 MSTORE PUSH1 0x4 ADD PUSH1 0x20 PUSH1 0x40 MLOAD DUP1 DUP4 SUB DUP2 PUSH1 0x0 DUP8 DUP1 EXTCODESIZE ISZERO DUP1 ISZERO PUSH2 0x211 JUMPI PUSH1 0x0 DUP1 REVERT JUMPDEST POP GAS CALL ISZERO DUP1 ISZERO PUSH2 0x225 JUMPI RETURNDATASIZE PUSH1 0x0 DUP1 RETURNDATACOPY RETURNDATASIZE PUSH1 0x0 REVERT JUMPDEST POP POP POP POP PUSH1 0x40 MLOAD RETURNDATASIZE PUSH1 0x20 DUP2 LT ISZERO PUSH2 0x23B JUMPI PUSH1 0x0 DUP1 REVERT JUMPDEST POP MLOAD PUSH1 0x40 DUP1 MLOAD PUSH4 0x26797D9 PUSH1 0xE0 SHL DUP2 MSTORE SWAP1 MLOAD SWAP2 SWAP3 POP PUSH20 0x0 SWAP2 PUSH4 0x26797D9 SWAP2 PUSH1 0x4 DUP1 DUP3 ADD SWAP3 PUSH1 0x20 SWAP3 SWAP1 SWAP2 SWAP1 DUP3 SWAP1 SUB ADD DUP2 DUP7 DUP1 EXTCODESIZE ISZERO DUP1 ISZERO PUSH2 0x28C JUMPI PUSH1 0x0 DUP1 REVERT JUMPDEST POP GAS DELEGATECALL ISZERO DUP1 ISZERO PUSH2 0x2A0 JUMPI RETURNDATASIZE PUSH1 0x0 DUP1 RETURNDATACOPY RETURNDATASIZE PUSH1 0x0 REVERT JUMPDEST POP POP POP POP PUSH1 0x40 MLOAD RETURNDATASIZE PUSH1 0x20 DUP2 LT ISZERO PUSH2 0x2B6 JUMPI PUSH1 0x0 DUP1 REVERT JUMPDEST POP MLOAD PUSH1 0x1 PUSH1 0x1 PUSH1 0x40 SHL SUB SWAP1 DUP2 AND SWAP1 DUP3 AND GT PUSH2 0x470 JUMPI PUSH2 0x2D3 PUSH2 0x1445 JUMP JUMPDEST DUP5 AND PUSH1 0x1 PUSH1 0x1 PUSH1 0x40 SHL SUB AND PUSH1 0x0 EQ PUSH2 0x3EE JUMPI PUSH1 0x1 PUSH20 0x0 PUSH4 0xB4E549BA PUSH1 0x40 MLOAD DUP2 PUSH4 0xFFFFFFFF AND PUSH1 0xE0 SHL DUP2 MSTORE PUSH1 0x4 ADD PUSH1 0x20 PUSH1 0x40 MLOAD DUP1 DUP4 SUB DUP2 DUP7 DUP1 EXTCODESIZE ISZERO DUP1 ISZERO PUSH2 0x32B JUMPI PUSH1 0x0 DUP1 REVERT JUMPDEST POP GAS DELEGATECALL ISZERO DUP1 ISZERO PUSH2 0x33F JUMPI RETURNDATASIZE PUSH1 0x0 DUP1 RETURNDATACOPY RETURNDATASIZE PUSH1 0x0 REVERT JUMPDEST POP POP POP POP PUSH1 0x40 MLOAD RETURNDATASIZE PUSH1 0x20 DUP2 LT ISZERO PUSH2 0x355 JUMPI PUSH1 0x0 DUP1 REVERT JUMPDEST DUP2 ADD SWAP1 DUP1 DUP1 MLOAD SWAP1 PUSH1 0x20 ADD SWAP1 SWAP3 SWAP2 SWAP1 POP POP POP SUB DUP5 AND PUSH1 0x1 PUSH1 0x1 PUSH1 0x40 SHL SUB AND DUP6 PUSH1 0x1 PUSH1 0x1 PUSH1 0xA0 SHL SUB AND PUSH4 0xA740DBC1 PUSH1 0x40 MLOAD DUP2 PUSH4 0xFFFFFFFF AND PUSH1 0xE0 SHL DUP2 MSTORE PUSH1 0x4 ADD PUSH1 0x20 PUSH1 0x40 MLOAD DUP1 DUP4 SUB DUP2 PUSH1 0x0 DUP8 DUP1 EXTCODESIZE ISZERO DUP1 ISZERO PUSH2 0x3AD JUMPI PUSH1 0x0 DUP1 REVERT JUMPDEST POP GAS CALL ISZERO DUP1 ISZERO PUSH2 0x3C1 JUMPI RETURNDATASIZE PUSH1 0x0 DUP1 RETURNDATACOPY RETURNDATASIZE PUSH1 0x0 REVERT JUMPDEST POP POP POP POP PUSH1 0x40 MLOAD RETURNDATASIZE PUSH1 0x20 DUP2 LT ISZERO PUSH2 0x3D7 JUMPI PUSH1 0x0 DUP1 REVERT JUMPDEST POP MLOAD PUSH1 0x1 PUSH1 0x1 PUSH1 0x40 SHL SUB AND SWAP1 SHR PUSH1 0x1 AND SWAP2 POP PUSH2 0x470 JUMP JUMPDEST DUP4 PUSH1 0x1 PUSH1 0x1 PUSH1 0x40 SHL SUB AND DUP6 PUSH1 0x1 PUSH1 0x1 PUSH1 0xA0 SHL SUB AND PUSH4 0x6A72B27D PUSH1 0x40 MLOAD DUP2 PUSH4 0xFFFFFFFF AND PUSH1 0xE0 SHL DUP2 MSTORE PUSH1 0x4 ADD PUSH1 0x20 PUSH1 0x40 MLOAD DUP1 DUP4 SUB DUP2 PUSH1 0x0 DUP8 DUP1 EXTCODESIZE ISZERO DUP1 ISZERO PUSH2 0x433 JUMPI PUSH1 0x0 DUP1 REVERT JUMPDEST POP GAS CALL ISZERO DUP1 ISZERO PUSH2 0x447 JUMPI RETURNDATASIZE PUSH1 0x0 DUP1 RETURNDATACOPY RETURNDATASIZE PUSH1 0x0 REVERT JUMPDEST POP POP POP POP PUSH1 0x40 MLOAD RETURNDATASIZE PUSH1 0x20 DUP2 LT ISZERO PUSH2 0x45D JUMPI PUSH1 0x0 DUP1 REVERT JUMPDEST POP MLOAD PUSH1 0x1 PUSH1 0x1 PUSH1 0x40 SHL SUB AND SWAP1 SHR PUSH1 0x1 AND SWAP2 POP JUMPDEST PUSH1 0x1 PUSH1 0x1 PUSH1 0x40 SHL SUB DUP3 AND ISZERO PUSH2 0xC4F JUMPI DUP5 PUSH1 0x1 PUSH1 0x1 PUSH1 0xA0 SHL SUB AND PUSH4 0x78C49574 DUP6 PUSH1 0x40 MLOAD DUP3 PUSH4 0xFFFFFFFF AND PUSH1 0xE0 SHL DUP2 MSTORE PUSH1 0x4 ADD DUP1 DUP3 PUSH1 0x1 PUSH1 0x1 PUSH1 0x40 SHL SUB AND DUP2 MSTORE PUSH1 0x20 ADD SWAP2 POP POP PUSH1 0x0 PUSH1 0x40 MLOAD DUP1 DUP4 SUB DUP2 PUSH1 0x0 DUP8 DUP1 EXTCODESIZE ISZERO DUP1 ISZERO PUSH2 0x4CE JUMPI PUSH1 0x0 DUP1 REVERT JUMPDEST POP GAS CALL ISZERO DUP1 ISZERO PUSH2 0x4E2 JUMPI RETURNDATASIZE PUSH1 0x0 DUP1 RETURNDATACOPY RETURNDATASIZE PUSH1 0x0 REVERT JUMPDEST POP POP POP POP DUP5 PUSH1 0x1 PUSH1 0x1 PUSH1 0xA0 SHL SUB AND PUSH4 0x57907837 DUP7 PUSH1 0x1 PUSH1 0x1 PUSH1 0xA0 SHL SUB AND PUSH4 0x650CA32B PUSH1 0x40 MLOAD DUP2 PUSH4 0xFFFFFFFF AND PUSH1 0xE0 SHL DUP2 MSTORE PUSH1 0x4 ADD PUSH1 0x20 PUSH1 0x40 MLOAD DUP1 DUP4 SUB DUP2 PUSH1 0x0 DUP8 DUP1 EXTCODESIZE ISZERO DUP1 ISZERO PUSH2 0x530 JUMPI PUSH1 0x0 DUP1 REVERT JUMPDEST POP GAS CALL ISZERO DUP1 ISZERO PUSH2 0x544 JUMPI RETURNDATASIZE PUSH1 0x0 DUP1 RETURNDATACOPY RETURNDATASIZE PUSH1 0x0 REVERT JUMPDEST POP POP POP POP PUSH1 0x40 MLOAD RETURNDATASIZE PUSH1 0x20 DUP2 LT ISZERO PUSH2 0x55A JUMPI PUSH1 0x0 DUP1 REVERT JUMPDEST POP MLOAD PUSH1 0x40 DUP1 MLOAD PUSH1 0x1 PUSH1 0x1 PUSH1 0xE0 SHL SUB NOT PUSH1 0xE0 DUP6 SWAP1 SHL AND DUP2 MSTORE PUSH1 0x1 PUSH1 0x1 PUSH1 0x40 SHL SUB SWAP1 SWAP3 AND PUSH1 0x4 DUP4 ADD MSTORE MLOAD PUSH1 0x24 DUP1 DUP4 ADD SWAP3 PUSH1 0x0 SWAP3 SWAP2 SWAP1 DUP3 SWAP1 SUB ADD DUP2 DUP4 DUP8 DUP1 EXTCODESIZE ISZERO DUP1 ISZERO PUSH2 0x5A2 JUMPI PUSH1 0x0 DUP1 REVERT JUMPDEST POP GAS CALL ISZERO DUP1 ISZERO PUSH2 0x5B6 JUMPI RETURNDATASIZE PUSH1 0x0 DUP1 RETURNDATACOPY RETURNDATASIZE PUSH1 0x0 REVERT JUMPDEST POP POP POP POP DUP5 PUSH1 0x1 PUSH1 0x1 PUSH1 0xA0 SHL SUB AND PUSH4 0x9C7B005D DUP5 PUSH1 0x40 MLOAD DUP3 PUSH4 0xFFFFFFFF AND PUSH1 0xE0 SHL DUP2 MSTORE PUSH1 0x4 ADD DUP1 DUP3 PUSH1 0x1 PUSH1 0x1 PUSH1 0x40 SHL SUB AND DUP2 MSTORE PUSH1 0x20 ADD SWAP2 POP POP PUSH1 0x0 PUSH1 0x40 MLOAD DUP1 DUP4 SUB DUP2 PUSH1 0x0 DUP8 DUP1 EXTCODESIZE ISZERO DUP1 ISZERO PUSH2 0x609 JUMPI PUSH1 0x0 DUP1 REVERT JUMPDEST POP GAS CALL ISZERO DUP1 ISZERO PUSH2 0x61D JUMPI RETURNDATASIZE PUSH1 0x0 DUP1 RETURNDATACOPY RETURNDATASIZE PUSH1 0x0 REVERT JUMPDEST POP POP POP POP PUSH1 0x0 DUP6 PUSH1 0x1 PUSH1 0x1 PUSH1 0xA0 SHL SUB AND PUSH4 0xB5B98ED4 PUSH1 0x40 MLOAD DUP2 PUSH4 0xFFFFFFFF AND PUSH1 0xE0 SHL DUP2 MSTORE PUSH1 0x4 ADD PUSH1 0x20 PUSH1 0x40 MLOAD DUP1 DUP4 SUB DUP2 PUSH1 0x0 DUP8 DUP1 EXTCODESIZE ISZERO DUP1 ISZERO PUSH2 0x65E JUMPI PUSH1 0x0 DUP1 REVERT JUMPDEST POP GAS CALL ISZERO DUP1 ISZERO PUSH2 0x672 JUMPI RETURNDATASIZE PUSH1 0x0 DUP1 RETURNDATACOPY RETURNDATASIZE PUSH1 0x0 REVERT JUMPDEST POP POP POP POP PUSH1 0x40 MLOAD RETURNDATASIZE PUSH1 0x20 DUP2 LT ISZERO PUSH2 0x688 JUMPI PUSH1 0x0 DUP1 REVERT JUMPDEST POP MLOAD PUSH1 0x40 DUP1 MLOAD PUSH4 0x3A75C9D9 PUSH1 0xE2 SHL DUP2 MSTORE SWAP1 MLOAD SWAP2 SWAP3 POP PUSH20 0x0 SWAP2 PUSH4 0xE9D72764 SWAP2 PUSH1 0x4 DUP1 DUP3 ADD SWAP3 PUSH1 0x20 SWAP3 SWAP1 SWAP2 SWAP1 DUP3 SWAP1 SUB ADD DUP2 DUP7 DUP1 EXTCODESIZE ISZERO DUP1 ISZERO PUSH2 0x6D9 JUMPI PUSH1 0x0 DUP1 REVERT JUMPDEST POP GAS DELEGATECALL ISZERO DUP1 ISZERO PUSH2 0x6ED JUMPI RETURNDATASIZE PUSH1 0x0 DUP1 RETURNDATACOPY RETURNDATASIZE PUSH1 0x0 REVERT JUMPDEST POP POP POP POP PUSH1 0x40 MLOAD RETURNDATASIZE PUSH1 0x20 DUP2 LT ISZERO PUSH2 0x703 JUMPI PUSH1 0x0 DUP1 REVERT JUMPDEST POP MLOAD PUSH1 0x40 DUP1 MLOAD PUSH4 0x26797D9 PUSH1 0xE0 SHL DUP2 MSTORE SWAP1 MLOAD PUSH1 0x1 PUSH1 0x1 PUSH1 0x40 SHL SUB SWAP1 SWAP3 AND SWAP2 PUSH20 0x0 SWAP2 PUSH4 0x26797D9 SWAP2 PUSH1 0x4 DUP1 DUP4 ADD SWAP3 PUSH1 0x20 SWAP3 SWAP2 SWAP1 DUP3 SWAP1 SUB ADD DUP2 DUP7 DUP1 EXTCODESIZE ISZERO DUP1 ISZERO PUSH2 0x75C JUMPI PUSH1 0x0 DUP1 REVERT JUMPDEST POP GAS DELEGATECALL ISZERO DUP1 ISZERO PUSH2 0x770 JUMPI RETURNDATASIZE PUSH1 0x0 DUP1 RETURNDATACOPY RETURNDATASIZE PUSH1 0x0 REVERT JUMPDEST POP POP POP POP PUSH1 0x40 MLOAD RETURNDATASIZE PUSH1 0x20 DUP2 LT ISZERO PUSH2 0x786 JUMPI PUSH1 0x0 DUP1 REVERT JUMPDEST POP MLOAD PUSH1 0x40 DUP1 MLOAD PUSH4 0x1BD54539 PUSH1 0xE2 SHL DUP2 MSTORE SWAP1 MLOAD PUSH1 0x1 PUSH1 0x1 PUSH1 0x40 SHL SUB DUP6 DUP2 AND SWAP4 AND SWAP3 SWAP1 SWAP3 SHR PUSH1 0x1 AND SWAP1 SWAP3 SHL SWAP2 PUSH20 0x0 SWAP2 PUSH4 0x6F5514E4 SWAP2 PUSH1 0x4 DUP1 DUP3 ADD SWAP3 PUSH1 0x20 SWAP3 SWAP1 SWAP2 SWAP1 DUP3 SWAP1 SUB ADD DUP2 DUP7 DUP1 EXTCODESIZE ISZERO DUP1 ISZERO PUSH2 0x7EC JUMPI PUSH1 0x0 DUP1 REVERT JUMPDEST POP GAS DELEGATECALL ISZERO DUP1 ISZERO PUSH2 0x800 JUMPI RETURNDATASIZE PUSH1 0x0 DUP1 RETURNDATACOPY RETURNDATASIZE PUSH1 0x0 REVERT JUMPDEST POP POP POP POP PUSH1 0x40 MLOAD RETURNDATASIZE PUSH1 0x20 DUP2 LT ISZERO PUSH2 0x816 JUMPI PUSH1 0x0 DUP1 REVERT JUMPDEST POP MLOAD PUSH1 0x40 DUP1 MLOAD PUSH4 0xC3B85A8F PUSH1 0xE0 SHL DUP2 MSTORE SWAP1 MLOAD SWAP2 NOT SWAP4 SWAP1 SWAP4 AND SWAP2 SWAP1 SWAP2 OR SWAP2 PUSH20 0x0 SWAP2 PUSH4 0xC3B85A8F SWAP2 PUSH1 0x4 DUP1 DUP3 ADD SWAP3 PUSH1 0x20 SWAP3 SWAP1 SWAP2 SWAP1 DUP3 SWAP1 SUB ADD DUP2 DUP7 DUP1 EXTCODESIZE ISZERO DUP1 ISZERO PUSH2 0x86F JUMPI PUSH1 0x0 DUP1 REVERT JUMPDEST POP GAS DELEGATECALL ISZERO DUP1 ISZERO PUSH2 0x883 JUMPI RETURNDATASIZE PUSH1 0x0 DUP1 RETURNDATACOPY RETURNDATASIZE PUSH1 0x0 REVERT JUMPDEST POP POP POP POP PUSH1 0x40 MLOAD RETURNDATASIZE PUSH1 0x20 DUP2 LT ISZERO PUSH2 0x899 JUMPI PUSH1 0x0 DUP1 REVERT JUMPDEST POP MLOAD PUSH1 0x40 DUP1 MLOAD PUSH4 0x6367286B PUSH1 0xE1 SHL DUP2 MSTORE SWAP1 MLOAD PUSH1 0x1 PUSH1 0x1 PUSH1 0x40 SHL SUB DUP6 DUP2 AND SWAP4 AND SWAP3 SWAP1 SWAP3 SHL SWAP2 PUSH20 0x0 SWAP2 PUSH4 0xC6CE50D6 SWAP2 PUSH1 0x4 DUP1 DUP4 ADD SWAP3 PUSH1 0x20 SWAP3 SWAP2 SWAP1 DUP3 SWAP1 SUB ADD DUP2 DUP7 DUP1 EXTCODESIZE ISZERO DUP1 ISZERO PUSH2 0x8F8 JUMPI PUSH1 0x0 DUP1 REVERT JUMPDEST POP GAS DELEGATECALL ISZERO DUP1 ISZERO PUSH2 0x90C JUMPI RETURNDATASIZE PUSH1 0x0 DUP1 RETURNDATACOPY RETURNDATASIZE PUSH1 0x0 REVERT JUMPDEST POP POP POP POP PUSH1 0x40 MLOAD RETURNDATASIZE PUSH1 0x20 DUP2 LT ISZERO PUSH2 0x922 JUMPI PUSH1 0x0 DUP1 REVERT JUMPDEST POP MLOAD PUSH1 0x40 DUP1 MLOAD PUSH4 0x594DC373 PUSH1 0xE0 SHL DUP2 MSTORE SWAP1 MLOAD SWAP2 NOT SWAP4 SWAP1 SWAP4 AND SWAP2 SWAP1 SWAP2 OR SWAP2 PUSH20 0x0 SWAP2 PUSH4 0x594DC373 SWAP2 PUSH1 0x4 DUP1 DUP3 ADD SWAP3 PUSH1 0x20 SWAP3 SWAP1 SWAP2 SWAP1 DUP3 SWAP1 SUB ADD DUP2 DUP7 DUP1 EXTCODESIZE ISZERO DUP1 ISZERO PUSH2 0x97B JUMPI PUSH1 0x0 DUP1 REVERT JUMPDEST POP GAS DELEGATECALL ISZERO DUP1 ISZERO PUSH2 0x98F JUMPI RETURNDATASIZE PUSH1 0x0 DUP1 RETURNDATACOPY RETURNDATASIZE PUSH1 0x0 REVERT JUMPDEST POP POP POP POP PUSH1 0x40 MLOAD RETURNDATASIZE PUSH1 0x20 DUP2 LT ISZERO PUSH2 0x9A5 JUMPI PUSH1 0x0 DUP1 REVERT JUMPDEST POP MLOAD PUSH1 0x40 DUP1 MLOAD PUSH4 0x1EAB89A7 PUSH1 0xE3 SHL DUP2 MSTORE SWAP2 NOT SWAP3 SWAP1 SWAP3 AND PUSH1 0x1 PUSH1 0x1 PUSH1 0x40 SHL SUB DUP2 AND PUSH1 0x4 DUP4 ADD MSTORE SWAP2 MLOAD PUSH1 0x1 PUSH1 0x1 PUSH1 0xA0 SHL SUB DUP9 AND SWAP2 PUSH4 0xF55C4D38 SWAP2 PUSH1 0x24 DUP1 DUP4 ADD SWAP3 PUSH1 0x0 SWAP3 SWAP2 SWAP1 DUP3 SWAP1 SUB ADD DUP2 DUP4 DUP8 DUP1 EXTCODESIZE ISZERO DUP1 ISZERO PUSH2 0x9FD JUMPI PUSH1 0x0 DUP1 REVERT JUMPDEST POP GAS CALL ISZERO DUP1 ISZERO PUSH2 0xA11 JUMPI RETURNDATASIZE PUSH1 0x0 DUP1 RETURNDATACOPY RETURNDATASIZE PUSH1 0x0 REVERT JUMPDEST POP POP POP POP PUSH20 0x0 PUSH4 0x26797D9 PUSH1 0x40 MLOAD DUP2 PUSH4 0xFFFFFFFF AND PUSH1 0xE0 SHL DUP2 MSTORE PUSH1 0x4 ADD PUSH1 0x20 PUSH1 0x40 MLOAD DUP1 DUP4 SUB DUP2 DUP7 DUP1 EXTCODESIZE ISZERO DUP1 ISZERO PUSH2 0xA59 JUMPI PUSH1 0x0 DUP1 REVERT JUMPDEST POP GAS DELEGATECALL ISZERO DUP1 ISZERO PUSH2 0xA6D JUMPI RETURNDATASIZE PUSH1 0x0 DUP1 RETURNDATACOPY RETURNDATASIZE PUSH1 0x0 REVERT JUMPDEST POP POP POP POP PUSH1 0x40 MLOAD RETURNDATASIZE PUSH1 0x20 DUP2 LT ISZERO PUSH2 0xA83 JUMPI PUSH1 0x0 DUP1 REVERT JUMPDEST POP MLOAD PUSH1 0x1 PUSH1 0x1 PUSH1 0x40 SHL SUB DUP4 DUP2 AND SWAP2 AND EQ PUSH2 0xB75 JUMPI DUP6 PUSH1 0x1 PUSH1 0x1 PUSH1 0xA0 SHL SUB AND PUSH4 0x54749AF3 PUSH20 0x0 PUSH4 0x26797D9 PUSH1 0x40 MLOAD DUP2 PUSH4 0xFFFFFFFF AND PUSH1 0xE0 SHL DUP2 MSTORE PUSH1 0x4 ADD PUSH1 0x20 PUSH1 0x40 MLOAD DUP1 DUP4 SUB DUP2 DUP7 DUP1 EXTCODESIZE ISZERO DUP1 ISZERO PUSH2 0xAEA JUMPI PUSH1 0x0 DUP1 REVERT JUMPDEST POP GAS DELEGATECALL ISZERO DUP1 ISZERO PUSH2 0xAFE JUMPI RETURNDATASIZE PUSH1 0x0 DUP1 RETURNDATACOPY RETURNDATASIZE PUSH1 0x0 REVERT JUMPDEST POP POP POP POP PUSH1 0x40 MLOAD RETURNDATASIZE PUSH1 0x20 DUP2 LT ISZERO PUSH2 0xB14 JUMPI PUSH1 0x0 DUP1 REVERT JUMPDEST POP MLOAD PUSH1 0x40 DUP1 MLOAD PUSH1 0x1 PUSH1 0x1 PUSH1 0xE0 SHL SUB NOT PUSH1 0xE0 DUP6 SWAP1 SHL AND DUP2 MSTORE PUSH1 0x1 PUSH1 0x1 PUSH1 0x40 SHL SUB SWAP1 SWAP3 AND PUSH1 0x4 DUP4 ADD MSTORE MLOAD PUSH1 0x24 DUP1 DUP4 ADD SWAP3 PUSH1 0x0 SWAP3 SWAP2 SWAP1 DUP3 SWAP1 SUB ADD DUP2 DUP4 DUP8 DUP1 EXTCODESIZE ISZERO DUP1 ISZERO PUSH2 0xB5C JUMPI PUSH1 0x0 DUP1 REVERT JUMPDEST POP GAS CALL ISZERO DUP1 ISZERO PUSH2 0xB70 JUMPI RETURNDATASIZE PUSH1 0x0 DUP1 RETURNDATACOPY RETURNDATASIZE PUSH1 0x0 REVERT JUMPDEST POP POP POP POP JUMPDEST DUP6 PUSH1 0x1 PUSH1 0x1 PUSH1 0xA0 SHL SUB AND PUSH4 0xF9911587 DUP8 PUSH1 0x1 PUSH1 0x1 PUSH1 0xA0 SHL SUB AND PUSH4 0xF84C046 PUSH1 0x40 MLOAD DUP2 PUSH4 0xFFFFFFFF AND PUSH1 0xE0 SHL DUP2 MSTORE PUSH1 0x4 ADD PUSH1 0x20 PUSH1 0x40 MLOAD DUP1 DUP4 SUB DUP2 PUSH1 0x0 DUP8 DUP1 EXTCODESIZE ISZERO DUP1 ISZERO PUSH2 0xBBF JUMPI PUSH1 0x0 DUP1 REVERT JUMPDEST POP GAS CALL ISZERO DUP1 ISZERO PUSH2 0xBD3 JUMPI RETURNDATASIZE PUSH1 0x0 DUP1 RETURNDATACOPY RETURNDATASIZE PUSH1 0x0 REVERT JUMPDEST POP POP POP POP PUSH1 0x40 MLOAD RETURNDATASIZE PUSH1 0x20 DUP2 LT ISZERO PUSH2 0xBE9 JUMPI PUSH1 0x0 DUP1 REVERT JUMPDEST POP MLOAD PUSH1 0x40 DUP1 MLOAD PUSH1 0x1 PUSH1 0x1 PUSH1 0xE0 SHL SUB NOT PUSH1 0xE0 DUP6 SWAP1 SHL AND DUP2 MSTORE PUSH1 0x1 PUSH1 0x1 PUSH1 0x40 SHL SUB SWAP1 SWAP3 AND PUSH1 0x4 DUP4 ADD MSTORE MLOAD PUSH1 0x24 DUP1 DUP4 ADD SWAP3 PUSH1 0x0 SWAP3 SWAP2 SWAP1 DUP3 SWAP1 SUB ADD DUP2 DUP4 DUP8 DUP1 EXTCODESIZE ISZERO DUP1 ISZERO PUSH2 0xC31 JUMPI PUSH1 0x0 DUP1 REVERT JUMPDEST POP GAS CALL ISZERO DUP1 ISZERO PUSH2 0xC45 JUMPI RETURNDATASIZE PUSH1 0x0 DUP1 RETURNDATACOPY RETURNDATASIZE PUSH1 0x0 REVERT JUMPDEST POP POP POP POP POP PUSH2 0x141B JUMP JUMPDEST DUP5 PUSH1 0x1 PUSH1 0x1 PUSH1 0xA0 SHL SUB AND PUSH4 0x89365909 DUP6 PUSH1 0x40 MLOAD DUP3 PUSH4 0xFFFFFFFF AND PUSH1 0xE0 SHL DUP2 MSTORE PUSH1 0x4 ADD DUP1 DUP3 PUSH1 0x1 PUSH1 0x1 PUSH1 0x40 SHL SUB AND DUP2 MSTORE PUSH1 0x20 ADD SWAP2 POP POP PUSH1 0x0 PUSH1 0x40 MLOAD DUP1 DUP4 SUB DUP2 PUSH1 0x0 DUP8 DUP1 EXTCODESIZE ISZERO DUP1 ISZERO PUSH2 0xC9E JUMPI PUSH1 0x0 DUP1 REVERT JUMPDEST POP GAS CALL ISZERO DUP1 ISZERO PUSH2 0xCB2 JUMPI RETURNDATASIZE PUSH1 0x0 DUP1 RETURNDATACOPY RETURNDATASIZE PUSH1 0x0 REVERT JUMPDEST POP POP POP POP DUP5 PUSH1 0x1 PUSH1 0x1 PUSH1 0xA0 SHL SUB AND PUSH4 0x28751B36 DUP7 PUSH1 0x1 PUSH1 0x1 PUSH1 0xA0 SHL SUB AND PUSH4 0x650CA32B PUSH1 0x40 MLOAD DUP2 PUSH4 0xFFFFFFFF AND PUSH1 0xE0 SHL DUP2 MSTORE PUSH1 0x4 ADD PUSH1 0x20 PUSH1 0x40 MLOAD DUP1 DUP4 SUB DUP2 PUSH1 0x0 DUP8 DUP1 EXTCODESIZE ISZERO DUP1 ISZERO PUSH2 0xD00 JUMPI PUSH1 0x0 DUP1 REVERT JUMPDEST POP GAS CALL ISZERO DUP1 ISZERO PUSH2 0xD14 JUMPI RETURNDATASIZE PUSH1 0x0 DUP1 RETURNDATACOPY RETURNDATASIZE PUSH1 0x0 REVERT JUMPDEST POP POP POP POP PUSH1 0x40 MLOAD RETURNDATASIZE PUSH1 0x20 DUP2 LT ISZERO PUSH2 0xD2A JUMPI PUSH1 0x0 DUP1 REVERT JUMPDEST POP MLOAD PUSH1 0x40 DUP1 MLOAD PUSH1 0x1 PUSH1 0x1 PUSH1 0xE0 SHL SUB NOT PUSH1 0xE0 DUP6 SWAP1 SHL AND DUP2 MSTORE PUSH1 0x1 PUSH1 0x1 PUSH1 0x40 SHL SUB SWAP1 SWAP3 AND PUSH1 0x4 DUP4 ADD MSTORE MLOAD PUSH1 0x24 DUP1 DUP4 ADD SWAP3 PUSH1 0x0 SWAP3 SWAP2 SWAP1 DUP3 SWAP1 SUB ADD DUP2 DUP4 DUP8 DUP1 EXTCODESIZE ISZERO DUP1 ISZERO PUSH2 0xD72 JUMPI PUSH1 0x0 DUP1 REVERT JUMPDEST POP GAS CALL ISZERO DUP1 ISZERO PUSH2 0xD86 JUMPI RETURNDATASIZE PUSH1 0x0 DUP1 RETURNDATACOPY RETURNDATASIZE PUSH1 0x0 REVERT JUMPDEST POP POP POP POP DUP5 PUSH1 0x1 PUSH1 0x1 PUSH1 0xA0 SHL SUB AND PUSH4 0xF604EDB8 DUP5 PUSH1 0x40 MLOAD DUP3 PUSH4 0xFFFFFFFF AND PUSH1 0xE0 SHL DUP2 MSTORE PUSH1 0x4 ADD DUP1 DUP3 PUSH1 0x1 PUSH1 0x1 PUSH1 0x40 SHL SUB AND DUP2 MSTORE PUSH1 0x20 ADD SWAP2 POP POP PUSH1 0x0 PUSH1 0x40 MLOAD DUP1 DUP4 SUB DUP2 PUSH1 0x0 DUP8 DUP1 EXTCODESIZE ISZERO DUP1 ISZERO PUSH2 0xDD9 JUMPI PUSH1 0x0 DUP1 REVERT JUMPDEST POP GAS CALL ISZERO DUP1 ISZERO PUSH2 0xDED JUMPI RETURNDATASIZE PUSH1 0x0 DUP1 RETURNDATACOPY RETURNDATASIZE PUSH1 0x0 REVERT JUMPDEST POP POP POP POP PUSH1 0x0 DUP6 PUSH1 0x1 PUSH1 0x1 PUSH1 0xA0 SHL SUB AND PUSH4 0xB5B98ED4 PUSH1 0x40 MLOAD DUP2 PUSH4 0xFFFFFFFF AND PUSH1 0xE0 SHL DUP2 MSTORE PUSH1 0x4 ADD PUSH1 0x20 PUSH1 0x40 MLOAD DUP1 DUP4 SUB DUP2 PUSH1 0x0 DUP8 DUP1 EXTCODESIZE ISZERO DUP1 ISZERO PUSH2 0xE2E JUMPI PUSH1 0x0 DUP1 REVERT JUMPDEST POP GAS CALL ISZERO DUP1 ISZERO PUSH2 0xE42 JUMPI RETURNDATASIZE PUSH1 0x0 DUP1 RETURNDATACOPY RETURNDATASIZE PUSH1 0x0 REVERT JUMPDEST POP POP POP POP PUSH1 0x40 MLOAD RETURNDATASIZE PUSH1 0x20 DUP2 LT ISZERO PUSH2 0xE58 JUMPI PUSH1 0x0 DUP1 REVERT JUMPDEST POP MLOAD PUSH1 0x40 DUP1 MLOAD PUSH4 0x3F351065 PUSH1 0xE1 SHL DUP2 MSTORE SWAP1 MLOAD SWAP2 SWAP3 POP PUSH20 0x0 SWAP2 PUSH4 0x7E6A20CA SWAP2 PUSH1 0x4 DUP1 DUP3 ADD SWAP3 PUSH1 0x20 SWAP3 SWAP1 SWAP2 SWAP1 DUP3 SWAP1 SUB ADD DUP2 DUP7 DUP1 EXTCODESIZE ISZERO DUP1 ISZERO PUSH2 0xEA9 JUMPI PUSH1 0x0 DUP1 REVERT JUMPDEST POP GAS DELEGATECALL ISZERO DUP1 ISZERO PUSH2 0xEBD JUMPI RETURNDATASIZE PUSH1 0x0 DUP1 RETURNDATACOPY RETURNDATASIZE PUSH1 0x0 REVERT JUMPDEST POP POP POP POP PUSH1 0x40 MLOAD RETURNDATASIZE PUSH1 0x20 DUP2 LT ISZERO PUSH2 0xED3 JUMPI PUSH1 0x0 DUP1 REVERT JUMPDEST POP MLOAD PUSH1 0x40 DUP1 MLOAD PUSH4 0xCF7ECF79 PUSH1 0xE0 SHL DUP2 MSTORE SWAP1 MLOAD PUSH1 0x1 PUSH1 0x1 PUSH1 0x40 SHL SUB SWAP1 SWAP3 AND SWAP2 PUSH20 0x0 SWAP2 PUSH4 0xCF7ECF79 SWAP2 PUSH1 0x4 DUP1 DUP4 ADD SWAP3 PUSH1 0x20 SWAP3 SWAP2 SWAP1 DUP3 SWAP1 SUB ADD DUP2 DUP7 DUP1 EXTCODESIZE ISZERO DUP1 ISZERO PUSH2 0xF2C JUMPI PUSH1 0x0 DUP1 REVERT JUMPDEST POP GAS DELEGATECALL ISZERO DUP1 ISZERO PUSH2 0xF40 JUMPI RETURNDATASIZE PUSH1 0x0 DUP1 RETURNDATACOPY RETURNDATASIZE PUSH1 0x0 REVERT JUMPDEST POP POP POP POP PUSH1 0x40 MLOAD RETURNDATASIZE PUSH1 0x20 DUP2 LT ISZERO PUSH2 0xF56 JUMPI PUSH1 0x0 DUP1 REVERT JUMPDEST POP MLOAD PUSH1 0x40 DUP1 MLOAD PUSH4 0xA8F81E23 PUSH1 0xE0 SHL DUP2 MSTORE SWAP1 MLOAD PUSH1 0x1 PUSH1 0x1 PUSH1 0x40 SHL SUB DUP6 DUP2 AND SWAP4 AND SWAP3 SWAP1 SWAP3 SHR PUSH1 0x1 AND SWAP1 SWAP3 SHL SWAP2 PUSH20 0x0 SWAP2 PUSH4 0xA8F81E23 SWAP2 PUSH1 0x4 DUP1 DUP3 ADD SWAP3 PUSH1 0x20 SWAP3 SWAP1 SWAP2 SWAP1 DUP3 SWAP1 SUB ADD DUP2 DUP7 DUP1 EXTCODESIZE ISZERO DUP1 ISZERO PUSH2 0xFBC JUMPI PUSH1 0x0 DUP1 REVERT JUMPDEST POP GAS DELEGATECALL ISZERO DUP1 ISZERO PUSH2 0xFD0 JUMPI RETURNDATASIZE PUSH1 0x0 DUP1 RETURNDATACOPY RETURNDATASIZE PUSH1 0x0 REVERT JUMPDEST POP POP POP POP PUSH1 0x40 MLOAD RETURNDATASIZE PUSH1 0x20 DUP2 LT ISZERO PUSH2 0xFE6 JUMPI PUSH1 0x0 DUP1 REVERT JUMPDEST POP MLOAD PUSH1 0x40 DUP1 MLOAD PUSH4 0x285B7847 PUSH1 0xE2 SHL DUP2 MSTORE SWAP1 MLOAD SWAP2 NOT SWAP4 SWAP1 SWAP4 AND SWAP2 SWAP1 SWAP2 OR SWAP2 PUSH20 0x0 SWAP2 PUSH4 0xA16DE11C SWAP2 PUSH1 0x4 DUP1 DUP3 ADD SWAP3 PUSH1 0x20 SWAP3 SWAP1 SWAP2 SWAP1 DUP3 SWAP1 SUB ADD DUP2 DUP7 DUP1 EXTCODESIZE ISZERO DUP1 ISZERO PUSH2 0x103F JUMPI PUSH1 0x0 DUP1 REVERT JUMPDEST POP GAS DELEGATECALL ISZERO DUP1 ISZERO PUSH2 0x1053 JUMPI RETURNDATASIZE PUSH1 0x0 DUP1 RETURNDATACOPY RETURNDATASIZE PUSH1 0x0 REVERT JUMPDEST POP POP POP POP PUSH1 0x40 MLOAD RETURNDATASIZE PUSH1 0x20 DUP2 LT ISZERO PUSH2 0x1069 JUMPI PUSH1 0x0 DUP1 REVERT JUMPDEST POP MLOAD PUSH1 0x40 DUP1 MLOAD PUSH4 0x73A35639 PUSH1 0xE1 SHL DUP2 MSTORE SWAP1 MLOAD PUSH1 0x1 PUSH1 0x1 PUSH1 0x40 SHL SUB DUP6 DUP2 AND SWAP4 AND SWAP3 SWAP1 SWAP3 SHL SWAP2 PUSH20 0x0 SWAP2 PUSH4 0xE746AC72 SWAP2 PUSH1 0x4 DUP1 DUP4 ADD SWAP3 PUSH1 0x20 SWAP3 SWAP2 SWAP1 DUP3 SWAP1 SUB ADD DUP2 DUP7 DUP1 EXTCODESIZE ISZERO DUP1 ISZERO PUSH2 0x10C8 JUMPI PUSH1 0x0 DUP1 REVERT JUMPDEST POP GAS DELEGATECALL ISZERO DUP1 ISZERO PUSH2 0x10DC JUMPI RETURNDATASIZE PUSH1 0x0 DUP1 RETURNDATACOPY RETURNDATASIZE PUSH1 0x0 REVERT JUMPDEST POP POP POP POP PUSH1 0x40 MLOAD RETURNDATASIZE PUSH1 0x20 DUP2 LT ISZERO PUSH2 0x10F2 JUMPI PUSH1 0x0 DUP1 REVERT JUMPDEST POP MLOAD PUSH1 0x40 DUP1 MLOAD PUSH4 0x3CBC8793 PUSH1 0xE2 SHL DUP2 MSTORE SWAP1 MLOAD SWAP2 NOT SWAP4 SWAP1 SWAP4 AND SWAP2 SWAP1 SWAP2 OR SWAP2 PUSH20 0x0 SWAP2 PUSH4 0xF2F21E4C SWAP2 PUSH1 0x4 DUP1 DUP3 ADD SWAP3 PUSH1 0x20 SWAP3 SWAP1 SWAP2 SWAP1 DUP3 SWAP1 SUB ADD DUP2 DUP7 DUP1 EXTCODESIZE ISZERO DUP1 ISZERO PUSH2 0x114B JUMPI PUSH1 0x0 DUP1 REVERT JUMPDEST POP GAS DELEGATECALL ISZERO DUP1 ISZERO PUSH2 0x115F JUMPI RETURNDATASIZE PUSH1 0x0 DUP1 RETURNDATACOPY RETURNDATASIZE PUSH1 0x0 REVERT JUMPDEST POP POP POP POP PUSH1 0x40 MLOAD RETURNDATASIZE PUSH1 0x20 DUP2 LT ISZERO PUSH2 0x1175 JUMPI PUSH1 0x0 DUP1 REVERT JUMPDEST POP MLOAD PUSH1 0x40 DUP1 MLOAD PUSH4 0x1EAB89A7 PUSH1 0xE3 SHL DUP2 MSTORE SWAP2 NOT SWAP3 SWAP1 SWAP3 AND PUSH1 0x1 PUSH1 0x1 PUSH1 0x40 SHL SUB DUP2 AND PUSH1 0x4 DUP4 ADD MSTORE SWAP2 MLOAD PUSH1 0x1 PUSH1 0x1 PUSH1 0xA0 SHL SUB DUP9 AND SWAP2 PUSH4 0xF55C4D38 SWAP2 PUSH1 0x24 DUP1 DUP4 ADD SWAP3 PUSH1 0x0 SWAP3 SWAP2 SWAP1 DUP3 SWAP1 SUB ADD DUP2 DUP4 DUP8 DUP1 EXTCODESIZE ISZERO DUP1 ISZERO PUSH2 0x11CD JUMPI PUSH1 0x0 DUP1 REVERT JUMPDEST POP GAS CALL ISZERO DUP1 ISZERO PUSH2 0x11E1 JUMPI RETURNDATASIZE PUSH1 0x0 DUP1 RETURNDATACOPY RETURNDATASIZE PUSH1 0x0 REVERT JUMPDEST POP POP POP POP PUSH20 0x0 PUSH4 0xCF7ECF79 PUSH1 0x40 MLOAD DUP2 PUSH4 0xFFFFFFFF AND PUSH1 0xE0 SHL DUP2 MSTORE PUSH1 0x4 ADD PUSH1 0x20 PUSH1 0x40 MLOAD DUP1 DUP4 SUB DUP2 DUP7 DUP1 EXTCODESIZE ISZERO DUP1 ISZERO PUSH2 0x1229 JUMPI PUSH1 0x0 DUP1 REVERT JUMPDEST POP GAS DELEGATECALL ISZERO DUP1 ISZERO PUSH2 0x123D JUMPI RETURNDATASIZE PUSH1 0x0 DUP1 RETURNDATACOPY RETURNDATASIZE PUSH1 0x0 REVERT JUMPDEST POP POP POP POP PUSH1 0x40 MLOAD RETURNDATASIZE PUSH1 0x20 DUP2 LT ISZERO PUSH2 0x1253 JUMPI PUSH1 0x0 DUP1 REVERT JUMPDEST POP MLOAD PUSH1 0x1 PUSH1 0x1 PUSH1 0x40 SHL SUB DUP4 DUP2 AND SWAP2 AND EQ PUSH2 0x1345 JUMPI DUP6 PUSH1 0x1 PUSH1 0x1 PUSH1 0xA0 SHL SUB AND PUSH4 0x54749AF3 PUSH20 0x0 PUSH4 0xCF7ECF79 PUSH1 0x40 MLOAD DUP2 PUSH4 0xFFFFFFFF AND PUSH1 0xE0 SHL DUP2 MSTORE PUSH1 0x4 ADD PUSH1 0x20 PUSH1 0x40 MLOAD DUP1 DUP4 SUB DUP2 DUP7 DUP1 EXTCODESIZE ISZERO DUP1 ISZERO PUSH2 0x12BA JUMPI PUSH1 0x0 DUP1 REVERT JUMPDEST POP GAS DELEGATECALL ISZERO DUP1 ISZERO PUSH2 0x12CE JUMPI RETURNDATASIZE PUSH1 0x0 DUP1 RETURNDATACOPY RETURNDATASIZE PUSH1 0x0 REVERT JUMPDEST POP POP POP POP PUSH1 0x40 MLOAD RETURNDATASIZE PUSH1 0x20 DUP2 LT ISZERO PUSH2 0x12E4 JUMPI PUSH1 0x0 DUP1 REVERT JUMPDEST POP MLOAD PUSH1 0x40 DUP1 MLOAD PUSH1 0x1 PUSH1 0x1 PUSH1 0xE0 SHL SUB NOT PUSH1 0xE0 DUP6 SWAP1 SHL AND DUP2 MSTORE PUSH1 0x1 PUSH1 0x1 PUSH1 0x40 SHL SUB SWAP1 SWAP3 AND PUSH1 0x4 DUP4 ADD MSTORE MLOAD PUSH1 0x24 DUP1 DUP4 ADD SWAP3 PUSH1 0x0 SWAP3 SWAP2 SWAP1 DUP3 SWAP1 SUB ADD DUP2 DUP4 DUP8 DUP1 EXTCODESIZE ISZERO DUP1 ISZERO PUSH2 0x132C JUMPI PUSH1 0x0 DUP1 REVERT JUMPDEST POP GAS CALL ISZERO DUP1 ISZERO PUSH2 0x1340 JUMPI RETURNDATASIZE PUSH1 0x0 DUP1 RETURNDATACOPY RETURNDATASIZE PUSH1 0x0 REVERT JUMPDEST POP POP POP POP JUMPDEST DUP6 PUSH1 0x1 PUSH1 0x1 PUSH1 0xA0 SHL SUB AND PUSH4 0xF9911587 DUP8 PUSH1 0x1 PUSH1 0x1 PUSH1 0xA0 SHL SUB AND PUSH4 0x11CF3A22 PUSH1 0x40 MLOAD DUP2 PUSH4 0xFFFFFFFF AND PUSH1 0xE0 SHL DUP2 MSTORE PUSH1 0x4 ADD PUSH1 0x20 PUSH1 0x40 MLOAD DUP1 DUP4 SUB DUP2 PUSH1 0x0 DUP8 DUP1 EXTCODESIZE ISZERO DUP1 ISZERO PUSH2 0x138F JUMPI PUSH1 0x0 DUP1 REVERT JUMPDEST POP GAS CALL ISZERO DUP1 ISZERO PUSH2 0x13A3 JUMPI RETURNDATASIZE PUSH1 0x0 DUP1 RETURNDATACOPY RETURNDATASIZE PUSH1 0x0 REVERT JUMPDEST POP POP POP POP PUSH1 0x40 MLOAD RETURNDATASIZE PUSH1 0x20 DUP2 LT ISZERO PUSH2 0x13B9 JUMPI PUSH1 0x0 DUP1 REVERT JUMPDEST POP MLOAD PUSH1 0x40 DUP1 MLOAD PUSH1 0x1 PUSH1 0x1 PUSH1 0xE0 SHL SUB NOT PUSH1 0xE0 DUP6 SWAP1 SHL AND DUP2 MSTORE PUSH1 0x1 PUSH1 0x1 PUSH1 0x40 SHL SUB SWAP1 SWAP3 AND PUSH1 0x4 DUP4 ADD MSTORE MLOAD PUSH1 0x24 DUP1 DUP4 ADD SWAP3 PUSH1 0x0 SWAP3 SWAP2 SWAP1 DUP3 SWAP1 SUB ADD DUP2 DUP4 DUP8 DUP1 EXTCODESIZE ISZERO DUP1 ISZERO PUSH2 0x1401 JUMPI PUSH1 0x0 DUP1 REVERT JUMPDEST POP GAS CALL ISZERO DUP1 ISZERO PUSH2 0x1415 JUMPI RETURNDATASIZE PUSH1 0x0 DUP1 RETURNDATACOPY RETURNDATASIZE PUSH1 0x0 REVERT JUMPDEST POP POP POP POP POP JUMPDEST POP POP POP POP POP JUMP JUMPDEST PUSH1 0x1 SWAP1 JUMP JUMPDEST PUSH1 0xD SWAP1 JUMP JUMPDEST PUSH1 0x3 SWAP1 JUMP JUMPDEST PUSH1 0x8 SWAP1 JUMP JUMPDEST PUSH1 0x7 SWAP1 JUMP JUMPDEST PUSH1 0xC SWAP1 JUMP JUMPDEST PUSH1 0x2 SWAP1 JUMP JUMPDEST PUSH1 0x0 PUSH1 0x1 PUSH20 0x0 PUSH4 0xB4E549BA PUSH1 0x40 MLOAD DUP2 PUSH4 0xFFFFFFFF AND PUSH1 0xE0 SHL DUP2 MSTORE PUSH1 0x4 ADD PUSH1 0x20 PUSH1 0x40 MLOAD DUP1 DUP4 SUB DUP2 DUP7 DUP1 EXTCODESIZE ISZERO DUP1 ISZERO PUSH2 0x148D JUMPI PUSH1 0x0 DUP1 REVERT JUMPDEST POP GAS DELEGATECALL ISZERO DUP1 ISZERO PUSH2 0x14A1 JUMPI RETURNDATASIZE PUSH1 0x0 DUP1 RETURNDATACOPY RETURNDATASIZE PUSH1 0x0 REVERT JUMPDEST POP POP POP POP PUSH1 0x40 MLOAD RETURNDATASIZE PUSH1 0x20 DUP2 LT ISZERO PUSH2 0x14B7 JUMPI PUSH1 0x0 DUP1 REVERT JUMPDEST POP MLOAD PUSH1 0x1 SWAP2 SWAP1 SUB PUSH1 0x1 PUSH1 0x1 PUSH1 0x40 SHL SUB AND SHL SWAP2 SWAP1 POP JUMP JUMPDEST PUSH1 0xF SWAP1 JUMP JUMPDEST PUSH1 0x6 SWAP1 JUMP JUMPDEST PUSH1 0x4 SWAP1 JUMP INVALID LOG2 PUSH5 0x6970667358 0x22 SLT KECCAK256 0x23 0xB8 EXTCODESIZE 0xEA 0xF6 PUSH6 0x20C3C9A8087 PUSH10 0xF6AEA5F2694E9569E3B9 LOG3 BLOCKHASH 0xE3 EXTCODECOPY DUP6 0xB1 DUP8 CALLDATACOPY 0xB2 PUSH5 0x736F6C6343 STOP SMOD DIV STOP CALLER "
    },
    "gasEstimates": {
      "creation": {
        "codeDepositCost": "1078800",
        "executionCost": "1145",
        "totalCost": "1079945"
      },
      "external": {
        "getMcauseBreakpoint()": "270",
        "getMcauseEcallBase()": "292",
        "getMcauseFetchPageFault()": "248",
        "getMcauseIllegalInsn()": "270",
        "getMcauseInsnAccessFault()": "226",
        "getMcauseInsnAddressMisaligned()": "249",
        "getMcauseInterruptFlag()": "infinite",
        "getMcauseLoadAccessFault()": "227",
        "getMcauseLoadAddressMisaligned()": "291",
        "getMcauseLoadPageFault()": "248",
        "getMcauseStoreAmoAccessFault()": "226",
        "getMcauseStoreAmoAddressMisaligned()": "269",
        "getMcauseStoreAmoPageFault()": "247",
        "raiseException(MemoryInteractor,uint64,uint64)": "infinite"
      }
    },
    "methodIdentifiers": {
      "getMcauseBreakpoint()": "4074af28",
      "getMcauseEcallBase()": "44312160",
      "getMcauseFetchPageFault()": "4d89d393",
      "getMcauseIllegalInsn()": "7273ba70",
      "getMcauseInsnAccessFault()": "3afcb7a1",
      "getMcauseInsnAddressMisaligned()": "0ab3e666",
      "getMcauseInterruptFlag()": "883d4fb0",
      "getMcauseLoadAccessFault()": "01298404",
      "getMcauseLoadAddressMisaligned()": "f4a40761",
      "getMcauseLoadPageFault()": "40391774",
      "getMcauseStoreAmoAccessFault()": "48b36c3a",
      "getMcauseStoreAmoAddressMisaligned()": "d8685e08",
      "getMcauseStoreAmoPageFault()": "a4652fa5",
      "raiseException(MemoryInteractor,uint64,uint64)": "0b2c7009"
    }
  },
  "storageLayout": {
    "storage": [],
    "types": null
  },
  "userdoc": {
    "kind": "user",
    "methods": {
      "raiseException(MemoryInteractor,uint64,uint64)": {
        "notice": "Raise an exception (or interrupt)."
      }
    },
    "notice": "Implements raise exception behavior and mcause getters",
    "version": 1
  }
}