{
  "contractName": "HTIF",
  "sourceName": "contracts/HTIF.sol",
  "abi": [
    {
      "inputs": [],
      "name": "getHtifFromHostAddr",
      "outputs": [
        {
          "internalType": "uint64",
          "name": "",
          "type": "uint64"
        }
      ],
      "stateMutability": "pure",
      "type": "function"
    },
    {
      "inputs": [],
      "name": "getHtifIYieldAddr",
      "outputs": [
        {
          "internalType": "uint64",
          "name": "",
          "type": "uint64"
        }
      ],
      "stateMutability": "pure",
      "type": "function"
    },
    {
      "inputs": [],
      "name": "getHtifToHostAddr",
      "outputs": [
        {
          "internalType": "uint64",
          "name": "",
          "type": "uint64"
        }
      ],
      "stateMutability": "pure",
      "type": "function"
    }
  ],
  "bytecode": "0x610797610026600b82828239805160001a60731461001957fe5b30600052607381538281f3fe73000000000000000000000000000000000000000030146080604052600436106100615760003560e01c8063035173f2146100665780630a279d71146100d3578063521819f5146100f75780636299ea3f146100ff57806391b7852314610107575b600080fd5b81801561007257600080fd5b506100b06004803603606081101561008957600080fd5b506001600160a01b03813516906001600160401b036020820135811691604001351661016f565b6040805192151583526001600160401b0390911660208301528051918290030190f35b6100db610286565b604080516001600160401b039092168252519081900360200190f35b6100db61028e565b6100db610296565b81801561011357600080fd5b5061015b6004803603608081101561012a57600080fd5b506001600160a01b03813516906001600160401b03602082013581169160408101358216916060909101351661029e565b604080519115158252519081900360200190f35b600080826001600160401b0316604014158061018d57506007841615155b1561019d5750600090508061027e565b6001600160401b03841663400080001415610225576001856001600160a01b03166334970f186040518163ffffffff1660e01b8152600401602060405180830381600087803b1580156101ef57600080fd5b505af1158015610203573d6000803e3d6000fd5b505050506040513d602081101561021957600080fd5b5051909250905061027e565b6001600160401b03841663400080081415610277576001856001600160a01b031663f2cf6ceb6040518163ffffffff1660e01b8152600401602060405180830381600087803b1580156101ef57600080fd5b5060009050805b935093915050565b634000800890565b634000800090565b634000802090565b6000816001600160401b031660401415806102bb57506007841615155b156102c857506000610377565b6001600160401b038416634000800014156102ee576102e7858461037f565b9050610377565b6001600160401b0384166340008008141561037357846001600160a01b031663b2325aef846040518263ffffffff1660e01b815260040180826001600160401b03168152602001915050600060405180830381600087803b15801561035257600080fd5b505af1158015610366573d6000803e3d6000fd5b5050505060019050610377565b5060005b949350505050565b60408051633757128560e21b81526001600160401b0383166004820152905160009160ff603885901c811692603086901c9091169163ffffffff8616916001600160a01b0388169163dd5c4a14916024808301928992919082900301818387803b1580156103ec57600080fd5b505af1158015610400573d6000803e3d6000fd5b5050505063ffffffff831661042a57610420868363ffffffff1683610478565b9350505050610472565b63ffffffff83166001141561044a57610420868363ffffffff1683610504565b63ffffffff83166002141561046a57610420868363ffffffff1683610546565b600193505050505b92915050565b60006001600160401b03831615801561049357506001808316145b156104f9576040805163a7458b9560e01b81526001600482015290516001600160a01b0386169163a7458b9591602480830192600092919082900301818387803b1580156104e057600080fd5b505af11580156104f4573d6000803e3d6000fd5b505050505b5060015b9392505050565b60006001600160401b03831660011415610527576105218461069d565b506104fd565b6001600160401b03831661053e576105218461070f565b5060016104fd565b6000826001600160401b0316846001600160a01b0316636f6c0e7d6040518163ffffffff1660e01b8152600401602060405180830381600087803b15801561058d57600080fd5b505af11580156105a1573d6000803e3d6000fd5b505050506040513d60208110156105b757600080fd5b50516001600160401b0316901c600190811614156104f95760408051631d245dab60e11b81526001600482015290516001600160a01b03861691633a48bb5691602480830192600092919082900301818387803b15801561061757600080fd5b505af115801561062b573d6000803e3d6000fd5b50506040805163b2325aef60e01b81526702000000000000006dffffffffffffffff000000000000603089901b16176001600160401b0316600482015290516001600160a01b038816935063b2325aef9250602480830192600092919082900301818387803b1580156104e057600080fd5b6040805163b2325aef60e01b8152670101000000000000600482015290516000916001600160a01b0384169163b2325aef91602480820192869290919082900301818387803b1580156106ef57600080fd5b505af1158015610703573d6000803e3d6000fd5b50600195945050505050565b6040805163b2325aef60e01b8152670100000000000000600482015290516000916001600160a01b0384169163b2325aef91602480820192869290919082900301818387803b1580156106ef57600080fdfea2646970667358221220bf370389543bd37e27b94ca25be459aaa5864fb83e5ddee2e1fb9525a4f1eb0864736f6c63430007040033",
  "linkReferences": {},
  "deployedLinkReferences": {},
  "devdoc": {
    "author": "Felipe Argento",
    "details": "Its active addresses are 0x40000000(tohost) and 0x40000008(from host) Reference: The Core of Cartesi, v1.02 - Section 3.2 - The Board",
    "kind": "dev",
    "methods": {
      "htifRead(MemoryInteractor,uint64,uint64)": {
        "params": {
          "addr": "address to read from",
          "mi": "Memory Interactor with which Step function is interacting.",
          "wordSize": "can be uint8, uint16, uint32 or uint64"
        },
        "returns": {
          "_0": "bool if read was successfull",
          "_1": "uint64 pval"
        }
      },
      "htifWrite(MemoryInteractor,uint64,uint64,uint64)": {
        "params": {
          "addr": "address to read from",
          "mi": "Memory Interactor with which Step function is interacting.",
          "val": "value to be written",
          "wordSize": "can be uint8, uint16, uint32 or uint64"
        },
        "returns": {
          "_0": "bool if write was successfull"
        }
      }
    },
    "title": "HTIF",
    "version": 1
  },
  "evm": {
    "bytecode": {
      "linkReferences": {},
      "opcodes": "PUSH2 0x797 PUSH2 0x26 PUSH1 0xB DUP3 DUP3 DUP3 CODECOPY DUP1 MLOAD PUSH1 0x0 BYTE PUSH1 0x73 EQ PUSH2 0x19 JUMPI INVALID JUMPDEST ADDRESS PUSH1 0x0 MSTORE PUSH1 0x73 DUP2 MSTORE8 DUP3 DUP2 RETURN INVALID PUSH20 0x0 ADDRESS EQ PUSH1 0x80 PUSH1 0x40 MSTORE PUSH1 0x4 CALLDATASIZE LT PUSH2 0x61 JUMPI PUSH1 0x0 CALLDATALOAD PUSH1 0xE0 SHR DUP1 PUSH4 0x35173F2 EQ PUSH2 0x66 JUMPI DUP1 PUSH4 0xA279D71 EQ PUSH2 0xD3 JUMPI DUP1 PUSH4 0x521819F5 EQ PUSH2 0xF7 JUMPI DUP1 PUSH4 0x6299EA3F EQ PUSH2 0xFF JUMPI DUP1 PUSH4 0x91B78523 EQ PUSH2 0x107 JUMPI JUMPDEST PUSH1 0x0 DUP1 REVERT JUMPDEST DUP2 DUP1 ISZERO PUSH2 0x72 JUMPI PUSH1 0x0 DUP1 REVERT JUMPDEST POP PUSH2 0xB0 PUSH1 0x4 DUP1 CALLDATASIZE SUB PUSH1 0x60 DUP2 LT ISZERO PUSH2 0x89 JUMPI PUSH1 0x0 DUP1 REVERT JUMPDEST POP PUSH1 0x1 PUSH1 0x1 PUSH1 0xA0 SHL SUB DUP2 CALLDATALOAD AND SWAP1 PUSH1 0x1 PUSH1 0x1 PUSH1 0x40 SHL SUB PUSH1 0x20 DUP3 ADD CALLDATALOAD DUP2 AND SWAP2 PUSH1 0x40 ADD CALLDATALOAD AND PUSH2 0x16F JUMP JUMPDEST PUSH1 0x40 DUP1 MLOAD SWAP3 ISZERO ISZERO DUP4 MSTORE PUSH1 0x1 PUSH1 0x1 PUSH1 0x40 SHL SUB SWAP1 SWAP2 AND PUSH1 0x20 DUP4 ADD MSTORE DUP1 MLOAD SWAP2 DUP3 SWAP1 SUB ADD SWAP1 RETURN JUMPDEST PUSH2 0xDB PUSH2 0x286 JUMP JUMPDEST PUSH1 0x40 DUP1 MLOAD PUSH1 0x1 PUSH1 0x1 PUSH1 0x40 SHL SUB SWAP1 SWAP3 AND DUP3 MSTORE MLOAD SWAP1 DUP2 SWAP1 SUB PUSH1 0x20 ADD SWAP1 RETURN JUMPDEST PUSH2 0xDB PUSH2 0x28E JUMP JUMPDEST PUSH2 0xDB PUSH2 0x296 JUMP JUMPDEST DUP2 DUP1 ISZERO PUSH2 0x113 JUMPI PUSH1 0x0 DUP1 REVERT JUMPDEST POP PUSH2 0x15B PUSH1 0x4 DUP1 CALLDATASIZE SUB PUSH1 0x80 DUP2 LT ISZERO PUSH2 0x12A JUMPI PUSH1 0x0 DUP1 REVERT JUMPDEST POP PUSH1 0x1 PUSH1 0x1 PUSH1 0xA0 SHL SUB DUP2 CALLDATALOAD AND SWAP1 PUSH1 0x1 PUSH1 0x1 PUSH1 0x40 SHL SUB PUSH1 0x20 DUP3 ADD CALLDATALOAD DUP2 AND SWAP2 PUSH1 0x40 DUP2 ADD CALLDATALOAD DUP3 AND SWAP2 PUSH1 0x60 SWAP1 SWAP2 ADD CALLDATALOAD AND PUSH2 0x29E JUMP JUMPDEST PUSH1 0x40 DUP1 MLOAD SWAP2 ISZERO ISZERO DUP3 MSTORE MLOAD SWAP1 DUP2 SWAP1 SUB PUSH1 0x20 ADD SWAP1 RETURN JUMPDEST PUSH1 0x0 DUP1 DUP3 PUSH1 0x1 PUSH1 0x1 PUSH1 0x40 SHL SUB AND PUSH1 0x40 EQ ISZERO DUP1 PUSH2 0x18D JUMPI POP PUSH1 0x7 DUP5 AND ISZERO ISZERO JUMPDEST ISZERO PUSH2 0x19D JUMPI POP PUSH1 0x0 SWAP1 POP DUP1 PUSH2 0x27E JUMP JUMPDEST PUSH1 0x1 PUSH1 0x1 PUSH1 0x40 SHL SUB DUP5 AND PUSH4 0x40008000 EQ ISZERO PUSH2 0x225 JUMPI PUSH1 0x1 DUP6 PUSH1 0x1 PUSH1 0x1 PUSH1 0xA0 SHL SUB AND PUSH4 0x34970F18 PUSH1 0x40 MLOAD DUP2 PUSH4 0xFFFFFFFF AND PUSH1 0xE0 SHL DUP2 MSTORE PUSH1 0x4 ADD PUSH1 0x20 PUSH1 0x40 MLOAD DUP1 DUP4 SUB DUP2 PUSH1 0x0 DUP8 DUP1 EXTCODESIZE ISZERO DUP1 ISZERO PUSH2 0x1EF JUMPI PUSH1 0x0 DUP1 REVERT JUMPDEST POP GAS CALL ISZERO DUP1 ISZERO PUSH2 0x203 JUMPI RETURNDATASIZE PUSH1 0x0 DUP1 RETURNDATACOPY RETURNDATASIZE PUSH1 0x0 REVERT JUMPDEST POP POP POP POP PUSH1 0x40 MLOAD RETURNDATASIZE PUSH1 0x20 DUP2 LT ISZERO PUSH2 0x219 JUMPI PUSH1 0x0 DUP1 REVERT JUMPDEST POP MLOAD SWAP1 SWAP3 POP SWAP1 POP PUSH2 0x27E JUMP JUMPDEST PUSH1 0x1 PUSH1 0x1 PUSH1 0x40 SHL SUB DUP5 AND PUSH4 0x40008008 EQ ISZERO PUSH2 0x277 JUMPI PUSH1 0x1 DUP6 PUSH1 0x1 PUSH1 0x1 PUSH1 0xA0 SHL SUB AND PUSH4 0xF2CF6CEB PUSH1 0x40 MLOAD DUP2 PUSH4 0xFFFFFFFF AND PUSH1 0xE0 SHL DUP2 MSTORE PUSH1 0x4 ADD PUSH1 0x20 PUSH1 0x40 MLOAD DUP1 DUP4 SUB DUP2 PUSH1 0x0 DUP8 DUP1 EXTCODESIZE ISZERO DUP1 ISZERO PUSH2 0x1EF JUMPI PUSH1 0x0 DUP1 REVERT JUMPDEST POP PUSH1 0x0 SWAP1 POP DUP1 JUMPDEST SWAP4 POP SWAP4 SWAP2 POP POP JUMP JUMPDEST PUSH4 0x40008008 SWAP1 JUMP JUMPDEST PUSH4 0x40008000 SWAP1 JUMP JUMPDEST PUSH4 0x40008020 SWAP1 JUMP JUMPDEST PUSH1 0x0 DUP2 PUSH1 0x1 PUSH1 0x1 PUSH1 0x40 SHL SUB AND PUSH1 0x40 EQ ISZERO DUP1 PUSH2 0x2BB JUMPI POP PUSH1 0x7 DUP5 AND ISZERO ISZERO JUMPDEST ISZERO PUSH2 0x2C8 JUMPI POP PUSH1 0x0 PUSH2 0x377 JUMP JUMPDEST PUSH1 0x1 PUSH1 0x1 PUSH1 0x40 SHL SUB DUP5 AND PUSH4 0x40008000 EQ ISZERO PUSH2 0x2EE JUMPI PUSH2 0x2E7 DUP6 DUP5 PUSH2 0x37F JUMP JUMPDEST SWAP1 POP PUSH2 0x377 JUMP JUMPDEST PUSH1 0x1 PUSH1 0x1 PUSH1 0x40 SHL SUB DUP5 AND PUSH4 0x40008008 EQ ISZERO PUSH2 0x373 JUMPI DUP5 PUSH1 0x1 PUSH1 0x1 PUSH1 0xA0 SHL SUB AND PUSH4 0xB2325AEF DUP5 PUSH1 0x40 MLOAD DUP3 PUSH4 0xFFFFFFFF AND PUSH1 0xE0 SHL DUP2 MSTORE PUSH1 0x4 ADD DUP1 DUP3 PUSH1 0x1 PUSH1 0x1 PUSH1 0x40 SHL SUB AND DUP2 MSTORE PUSH1 0x20 ADD SWAP2 POP POP PUSH1 0x0 PUSH1 0x40 MLOAD DUP1 DUP4 SUB DUP2 PUSH1 0x0 DUP8 DUP1 EXTCODESIZE ISZERO DUP1 ISZERO PUSH2 0x352 JUMPI PUSH1 0x0 DUP1 REVERT JUMPDEST POP GAS CALL ISZERO DUP1 ISZERO PUSH2 0x366 JUMPI RETURNDATASIZE PUSH1 0x0 DUP1 RETURNDATACOPY RETURNDATASIZE PUSH1 0x0 REVERT JUMPDEST POP POP POP POP PUSH1 0x1 SWAP1 POP PUSH2 0x377 JUMP JUMPDEST POP PUSH1 0x0 JUMPDEST SWAP5 SWAP4 POP POP POP POP JUMP JUMPDEST PUSH1 0x40 DUP1 MLOAD PUSH4 0x37571285 PUSH1 0xE2 SHL DUP2 MSTORE PUSH1 0x1 PUSH1 0x1 PUSH1 0x40 SHL SUB DUP4 AND PUSH1 0x4 DUP3 ADD MSTORE SWAP1 MLOAD PUSH1 0x0 SWAP2 PUSH1 0xFF PUSH1 0x38 DUP6 SWAP1 SHR DUP2 AND SWAP3 PUSH1 0x30 DUP7 SWAP1 SHR SWAP1 SWAP2 AND SWAP2 PUSH4 0xFFFFFFFF DUP7 AND SWAP2 PUSH1 0x1 PUSH1 0x1 PUSH1 0xA0 SHL SUB DUP9 AND SWAP2 PUSH4 0xDD5C4A14 SWAP2 PUSH1 0x24 DUP1 DUP4 ADD SWAP3 DUP10 SWAP3 SWAP2 SWAP1 DUP3 SWAP1 SUB ADD DUP2 DUP4 DUP8 DUP1 EXTCODESIZE ISZERO DUP1 ISZERO PUSH2 0x3EC JUMPI PUSH1 0x0 DUP1 REVERT JUMPDEST POP GAS CALL ISZERO DUP1 ISZERO PUSH2 0x400 JUMPI RETURNDATASIZE PUSH1 0x0 DUP1 RETURNDATACOPY RETURNDATASIZE PUSH1 0x0 REVERT JUMPDEST POP POP POP POP PUSH4 0xFFFFFFFF DUP4 AND PUSH2 0x42A JUMPI PUSH2 0x420 DUP7 DUP4 PUSH4 0xFFFFFFFF AND DUP4 PUSH2 0x478 JUMP JUMPDEST SWAP4 POP POP POP POP PUSH2 0x472 JUMP JUMPDEST PUSH4 0xFFFFFFFF DUP4 AND PUSH1 0x1 EQ ISZERO PUSH2 0x44A JUMPI PUSH2 0x420 DUP7 DUP4 PUSH4 0xFFFFFFFF AND DUP4 PUSH2 0x504 JUMP JUMPDEST PUSH4 0xFFFFFFFF DUP4 AND PUSH1 0x2 EQ ISZERO PUSH2 0x46A JUMPI PUSH2 0x420 DUP7 DUP4 PUSH4 0xFFFFFFFF AND DUP4 PUSH2 0x546 JUMP JUMPDEST PUSH1 0x1 SWAP4 POP POP POP POP JUMPDEST SWAP3 SWAP2 POP POP JUMP JUMPDEST PUSH1 0x0 PUSH1 0x1 PUSH1 0x1 PUSH1 0x40 SHL SUB DUP4 AND ISZERO DUP1 ISZERO PUSH2 0x493 JUMPI POP PUSH1 0x1 DUP1 DUP4 AND EQ JUMPDEST ISZERO PUSH2 0x4F9 JUMPI PUSH1 0x40 DUP1 MLOAD PUSH4 0xA7458B95 PUSH1 0xE0 SHL DUP2 MSTORE PUSH1 0x1 PUSH1 0x4 DUP3 ADD MSTORE SWAP1 MLOAD PUSH1 0x1 PUSH1 0x1 PUSH1 0xA0 SHL SUB DUP7 AND SWAP2 PUSH4 0xA7458B95 SWAP2 PUSH1 0x24 DUP1 DUP4 ADD SWAP3 PUSH1 0x0 SWAP3 SWAP2 SWAP1 DUP3 SWAP1 SUB ADD DUP2 DUP4 DUP8 DUP1 EXTCODESIZE ISZERO DUP1 ISZERO PUSH2 0x4E0 JUMPI PUSH1 0x0 DUP1 REVERT JUMPDEST POP GAS CALL ISZERO DUP1 ISZERO PUSH2 0x4F4 JUMPI RETURNDATASIZE PUSH1 0x0 DUP1 RETURNDATACOPY RETURNDATASIZE PUSH1 0x0 REVERT JUMPDEST POP POP POP POP JUMPDEST POP PUSH1 0x1 JUMPDEST SWAP4 SWAP3 POP POP POP JUMP JUMPDEST PUSH1 0x0 PUSH1 0x1 PUSH1 0x1 PUSH1 0x40 SHL SUB DUP4 AND PUSH1 0x1 EQ ISZERO PUSH2 0x527 JUMPI PUSH2 0x521 DUP5 PUSH2 0x69D JUMP JUMPDEST POP PUSH2 0x4FD JUMP JUMPDEST PUSH1 0x1 PUSH1 0x1 PUSH1 0x40 SHL SUB DUP4 AND PUSH2 0x53E JUMPI PUSH2 0x521 DUP5 PUSH2 0x70F JUMP JUMPDEST POP PUSH1 0x1 PUSH2 0x4FD JUMP JUMPDEST PUSH1 0x0 DUP3 PUSH1 0x1 PUSH1 0x1 PUSH1 0x40 SHL SUB AND DUP5 PUSH1 0x1 PUSH1 0x1 PUSH1 0xA0 SHL SUB AND PUSH4 0x6F6C0E7D PUSH1 0x40 MLOAD DUP2 PUSH4 0xFFFFFFFF AND PUSH1 0xE0 SHL DUP2 MSTORE PUSH1 0x4 ADD PUSH1 0x20 PUSH1 0x40 MLOAD DUP1 DUP4 SUB DUP2 PUSH1 0x0 DUP8 DUP1 EXTCODESIZE ISZERO DUP1 ISZERO PUSH2 0x58D JUMPI PUSH1 0x0 DUP1 REVERT JUMPDEST POP GAS CALL ISZERO DUP1 ISZERO PUSH2 0x5A1 JUMPI RETURNDATASIZE PUSH1 0x0 DUP1 RETURNDATACOPY RETURNDATASIZE PUSH1 0x0 REVERT JUMPDEST POP POP POP POP PUSH1 0x40 MLOAD RETURNDATASIZE PUSH1 0x20 DUP2 LT ISZERO PUSH2 0x5B7 JUMPI PUSH1 0x0 DUP1 REVERT JUMPDEST POP MLOAD PUSH1 0x1 PUSH1 0x1 PUSH1 0x40 SHL SUB AND SWAP1 SHR PUSH1 0x1 SWAP1 DUP2 AND EQ ISZERO PUSH2 0x4F9 JUMPI PUSH1 0x40 DUP1 MLOAD PUSH4 0x1D245DAB PUSH1 0xE1 SHL DUP2 MSTORE PUSH1 0x1 PUSH1 0x4 DUP3 ADD MSTORE SWAP1 MLOAD PUSH1 0x1 PUSH1 0x1 PUSH1 0xA0 SHL SUB DUP7 AND SWAP2 PUSH4 0x3A48BB56 SWAP2 PUSH1 0x24 DUP1 DUP4 ADD SWAP3 PUSH1 0x0 SWAP3 SWAP2 SWAP1 DUP3 SWAP1 SUB ADD DUP2 DUP4 DUP8 DUP1 EXTCODESIZE ISZERO DUP1 ISZERO PUSH2 0x617 JUMPI PUSH1 0x0 DUP1 REVERT JUMPDEST POP GAS CALL ISZERO DUP1 ISZERO PUSH2 0x62B JUMPI RETURNDATASIZE PUSH1 0x0 DUP1 RETURNDATACOPY RETURNDATASIZE PUSH1 0x0 REVERT JUMPDEST POP POP PUSH1 0x40 DUP1 MLOAD PUSH4 0xB2325AEF PUSH1 0xE0 SHL DUP2 MSTORE PUSH8 0x200000000000000 PUSH14 0xFFFFFFFFFFFFFFFF000000000000 PUSH1 0x30 DUP10 SWAP1 SHL AND OR PUSH1 0x1 PUSH1 0x1 PUSH1 0x40 SHL SUB AND PUSH1 0x4 DUP3 ADD MSTORE SWAP1 MLOAD PUSH1 0x1 PUSH1 0x1 PUSH1 0xA0 SHL SUB DUP9 AND SWAP4 POP PUSH4 0xB2325AEF SWAP3 POP PUSH1 0x24 DUP1 DUP4 ADD SWAP3 PUSH1 0x0 SWAP3 SWAP2 SWAP1 DUP3 SWAP1 SUB ADD DUP2 DUP4 DUP8 DUP1 EXTCODESIZE ISZERO DUP1 ISZERO PUSH2 0x4E0 JUMPI PUSH1 0x0 DUP1 REVERT JUMPDEST PUSH1 0x40 DUP1 MLOAD PUSH4 0xB2325AEF PUSH1 0xE0 SHL DUP2 MSTORE PUSH8 0x101000000000000 PUSH1 0x4 DUP3 ADD MSTORE SWAP1 MLOAD PUSH1 0x0 SWAP2 PUSH1 0x1 PUSH1 0x1 PUSH1 0xA0 SHL SUB DUP5 AND SWAP2 PUSH4 0xB2325AEF SWAP2 PUSH1 0x24 DUP1 DUP3 ADD SWAP3 DUP7 SWAP3 SWAP1 SWAP2 SWAP1 DUP3 SWAP1 SUB ADD DUP2 DUP4 DUP8 DUP1 EXTCODESIZE ISZERO DUP1 ISZERO PUSH2 0x6EF JUMPI PUSH1 0x0 DUP1 REVERT JUMPDEST POP GAS CALL ISZERO DUP1 ISZERO PUSH2 0x703 JUMPI RETURNDATASIZE PUSH1 0x0 DUP1 RETURNDATACOPY RETURNDATASIZE PUSH1 0x0 REVERT JUMPDEST POP PUSH1 0x1 SWAP6 SWAP5 POP POP POP POP POP JUMP JUMPDEST PUSH1 0x40 DUP1 MLOAD PUSH4 0xB2325AEF PUSH1 0xE0 SHL DUP2 MSTORE PUSH8 0x100000000000000 PUSH1 0x4 DUP3 ADD MSTORE SWAP1 MLOAD PUSH1 0x0 SWAP2 PUSH1 0x1 PUSH1 0x1 PUSH1 0xA0 SHL SUB DUP5 AND SWAP2 PUSH4 0xB2325AEF SWAP2 PUSH1 0x24 DUP1 DUP3 ADD SWAP3 DUP7 SWAP3 SWAP1 SWAP2 SWAP1 DUP3 SWAP1 SUB ADD DUP2 DUP4 DUP8 DUP1 EXTCODESIZE ISZERO DUP1 ISZERO PUSH2 0x6EF JUMPI PUSH1 0x0 DUP1 REVERT INVALID LOG2 PUSH5 0x6970667358 0x22 SLT KECCAK256 0xBF CALLDATACOPY SUB DUP10 SLOAD EXTCODESIZE 0xD3 PUSH31 0x27B94CA25BE459AAA5864FB83E5DDEE2E1FB9525A4F1EB0864736F6C634300 SMOD DIV STOP CALLER "
    },
    "gasEstimates": {
      "creation": {
        "codeDepositCost": "388600",
        "executionCost": "452",
        "totalCost": "389052"
      },
      "external": {
        "getHtifFromHostAddr()": "203",
        "getHtifIYieldAddr()": "247",
        "getHtifToHostAddr()": "225",
        "htifRead(MemoryInteractor,uint64,uint64)": "infinite",
        "htifWrite(MemoryInteractor,uint64,uint64,uint64)": "infinite"
      },
      "internal": {
        "htifConsole(contract MemoryInteractor,uint64,uint64)": "infinite",
        "htifGetchar(contract MemoryInteractor)": "infinite",
        "htifHalt(contract MemoryInteractor,uint64,uint64)": "infinite",
        "htifPutchar(contract MemoryInteractor)": "infinite",
        "htifWriteFromhost(contract MemoryInteractor,uint64)": "infinite",
        "htifWriteTohost(contract MemoryInteractor,uint64)": "infinite",
        "htifYield(contract MemoryInteractor,uint64,uint64)": "infinite"
      }
    },
    "methodIdentifiers": {
      "getHtifFromHostAddr()": "0a279d71",
      "getHtifIYieldAddr()": "6299ea3f",
      "getHtifToHostAddr()": "521819f5",
      "htifRead(MemoryInteractor,uint64,uint64)": "035173f2",
      "htifWrite(MemoryInteractor,uint64,uint64,uint64)": "91b78523"
    }
  },
  "storageLayout": {
    "storage": [],
    "types": null
  },
  "userdoc": {
    "kind": "user",
    "methods": {
      "htifRead(MemoryInteractor,uint64,uint64)": {
        "notice": "reads htif"
      },
      "htifWrite(MemoryInteractor,uint64,uint64,uint64)": {
        "notice": "write htif"
      }
    },
    "notice": "Host-Target-Interface (HTIF) mediates communcation with external world.",
    "version": 1
  }
}