{
  "contractName": "Interrupts",
  "sourceName": "contracts/Interrupts.sol",
  "abi": [
    {
      "inputs": [
        {
          "internalType": "uint32",
          "name": "v",
          "type": "uint32"
        }
      ],
      "name": "ilog2",
      "outputs": [
        {
          "internalType": "uint64",
          "name": "",
          "type": "uint64"
        }
      ],
      "stateMutability": "pure",
      "type": "function"
    }
  ],
  "bytecode": "0x6107b2610026600b82828239805160001a60731461001957fe5b30600052607381538281f3fe73000000000000000000000000000000000000000030146080604052600436106100405760003560e01c8063cbe611b214610045578063ef86c6141461007a575b600080fd5b81801561005157600080fd5b506100786004803603602081101561006857600080fd5b50356001600160a01b03166100ba565b005b61009d6004803603602081101561009057600080fd5b503563ffffffff166101e6565b6040805167ffffffffffffffff9092168252519081900360200190f35b60006100c582610218565b905063ffffffff8116156101e25760006100de826101e6565b905073__$7a619e2484503bc317a624d2cc621a55c4$__630b2c70098473__$7a619e2484503bc317a624d2cc621a55c4$__63883d4fb06040518163ffffffff1660e01b815260040160206040518083038186803b15801561013f57600080fd5b505af4158015610153573d6000803e3d6000fd5b505050506040513d602081101561016957600080fd5b50516040805160e085901b6001600160e01b03191681526001600160a01b0393909316600484015290851767ffffffffffffffff1660248301526000604483018190529051606480840193829003018186803b1580156101c857600080fd5b505af41580156101dc573d6000803e3d6000fd5b50505050505b5050565b600060205b63ffffffff83161561020d5760019290921c637fffffff1691600019016101eb565b601f0390505b919050565b600080826001600160a01b031663a317ce9d6040518163ffffffff1660e01b8152600401602060405180830381600087803b15801561025657600080fd5b505af115801561026a573d6000803e3d6000fd5b505050506040513d602081101561028057600080fd5b50516040805163cc92cbf760e01b815290519192506000916001600160a01b0386169163cc92cbf791600480830192602092919082900301818787803b1580156102c957600080fd5b505af11580156102dd573d6000803e3d6000fd5b505050506040513d60208110156102f357600080fd5b5051905081811663ffffffff81166103115760009350505050610213565b6000806000876001600160a01b031663f7ac913d6040518163ffffffff1660e01b8152600401602060405180830381600087803b15801561035157600080fd5b505af1158015610365573d6000803e3d6000fd5b505050506040513d602081101561037b57600080fd5b50516040805163cf7ecf7960e01b8152905191925073__$6af7953b03ecb3cadd1ca9bb3675b9b8d6$__9163cf7ecf7991600480820192602092909190829003018186803b1580156103cc57600080fd5b505af41580156103e0573d6000803e3d6000fd5b505050506040513d60208110156103f657600080fd5b505167ffffffffffffffff8281169116141561056f57876001600160a01b031663b5b98ed46040518163ffffffff1660e01b8152600401602060405180830381600087803b15801561044757600080fd5b505af115801561045b573d6000803e3d6000fd5b505050506040513d602081101561047157600080fd5b505160408051633cbc879360e21b8152905191945073__$6af7953b03ecb3cadd1ca9bb3675b9b8d6$__9163f2f21e4c91600480820192602092909190829003018186803b1580156104c257600080fd5b505af41580156104d6573d6000803e3d6000fd5b505050506040513d60208110156104ec57600080fd5b5051831667ffffffffffffffff161561056a57876001600160a01b031663a740dbc16040518163ffffffff1660e01b8152600401602060405180830381600087803b15801561053a57600080fd5b505af115801561054e573d6000803e3d6000fd5b505050506040513d602081101561056457600080fd5b50511991505b61076e565b73__$6af7953b03ecb3cadd1ca9bb3675b9b8d6$__63026797d96040518163ffffffff1660e01b815260040160206040518083038186803b1580156105b357600080fd5b505af41580156105c7573d6000803e3d6000fd5b505050506040513d60208110156105dd57600080fd5b505167ffffffffffffffff8281169116141561076857876001600160a01b031663b5b98ed46040518163ffffffff1660e01b8152600401602060405180830381600087803b15801561062e57600080fd5b505af1158015610642573d6000803e3d6000fd5b505050506040513d602081101561065857600080fd5b50516040805163a740dbc160e01b815290519194506000916001600160a01b038b169163a740dbc191600480830192602092919082900301818787803b1580156106a157600080fd5b505af11580156106b5573d6000803e3d6000fd5b505050506040513d60208110156106cb57600080fd5b50516040805163594dc37360e01b815290518219955091925073__$6af7953b03ecb3cadd1ca9bb3675b9b8d6$__9163594dc37391600480820192602092909190829003018186803b15801561072057600080fd5b505af4158015610734573d6000803e3d6000fd5b505050506040513d602081101561074a57600080fd5b5051841667ffffffffffffffff161561076257918217915b5061076e565b60001991505b50919091169594505050505056fea2646970667358221220bca05efc08df509bad3c65d96fd7f061f3a4f24e0905fcd0177df526fb2140e264736f6c63430007040033",
  "linkReferences": {
    "contracts/Exceptions.sol": {
      "Exceptions": [
        {
          "length": 20,
          "start": 264
        },
        {
          "length": 20,
          "start": 291
        }
      ]
    },
    "contracts/RiscVConstants.sol": {
      "RiscVConstants": [
        {
          "length": 20,
          "start": 952
        },
        {
          "length": 20,
          "start": 1198
        },
        {
          "length": 20,
          "start": 1431
        },
        {
          "length": 20,
          "start": 1804
        }
      ]
    }
  },
  "deployedLinkReferences": {
    "contracts/Exceptions.sol": {
      "Exceptions": [
        {
          "length": 20,
          "start": 226
        },
        {
          "length": 20,
          "start": 253
        }
      ]
    },
    "contracts/RiscVConstants.sol": {
      "RiscVConstants": [
        {
          "length": 20,
          "start": 914
        },
        {
          "length": 20,
          "start": 1160
        },
        {
          "length": 20,
          "start": 1393
        },
        {
          "length": 20,
          "start": 1766
        }
      ]
    }
  },
  "devdoc": {
    "author": "Felipe Argento",
    "kind": "dev",
    "methods": {
      "raiseInterruptIfAny(MemoryInteractor)": {
        "params": {
          "mi": "Memory Interactor with which Step function is interacting."
        }
      }
    },
    "title": "Interrupts",
    "version": 1
  },
  "evm": {
    "bytecode": {
      "linkReferences": {
        "contracts/Exceptions.sol": {
          "Exceptions": [
            {
              "length": 20,
              "start": 264
            },
            {
              "length": 20,
              "start": 291
            }
          ]
        },
        "contracts/RiscVConstants.sol": {
          "RiscVConstants": [
            {
              "length": 20,
              "start": 952
            },
            {
              "length": 20,
              "start": 1198
            },
            {
              "length": 20,
              "start": 1431
            },
            {
              "length": 20,
              "start": 1804
            }
          ]
        }
      },
      "opcodes": "PUSH2 0x7B2 PUSH2 0x26 PUSH1 0xB DUP3 DUP3 DUP3 CODECOPY DUP1 MLOAD PUSH1 0x0 BYTE PUSH1 0x73 EQ PUSH2 0x19 JUMPI INVALID JUMPDEST ADDRESS PUSH1 0x0 MSTORE PUSH1 0x73 DUP2 MSTORE8 DUP3 DUP2 RETURN INVALID PUSH20 0x0 ADDRESS EQ PUSH1 0x80 PUSH1 0x40 MSTORE PUSH1 0x4 CALLDATASIZE LT PUSH2 0x40 JUMPI PUSH1 0x0 CALLDATALOAD PUSH1 0xE0 SHR DUP1 PUSH4 0xCBE611B2 EQ PUSH2 0x45 JUMPI DUP1 PUSH4 0xEF86C614 EQ PUSH2 0x7A JUMPI JUMPDEST PUSH1 0x0 DUP1 REVERT JUMPDEST DUP2 DUP1 ISZERO PUSH2 0x51 JUMPI PUSH1 0x0 DUP1 REVERT JUMPDEST POP PUSH2 0x78 PUSH1 0x4 DUP1 CALLDATASIZE SUB PUSH1 0x20 DUP2 LT ISZERO PUSH2 0x68 JUMPI PUSH1 0x0 DUP1 REVERT JUMPDEST POP CALLDATALOAD PUSH1 0x1 PUSH1 0x1 PUSH1 0xA0 SHL SUB AND PUSH2 0xBA JUMP JUMPDEST STOP JUMPDEST PUSH2 0x9D PUSH1 0x4 DUP1 CALLDATASIZE SUB PUSH1 0x20 DUP2 LT ISZERO PUSH2 0x90 JUMPI PUSH1 0x0 DUP1 REVERT JUMPDEST POP CALLDATALOAD PUSH4 0xFFFFFFFF AND PUSH2 0x1E6 JUMP JUMPDEST PUSH1 0x40 DUP1 MLOAD PUSH8 0xFFFFFFFFFFFFFFFF SWAP1 SWAP3 AND DUP3 MSTORE MLOAD SWAP1 DUP2 SWAP1 SUB PUSH1 0x20 ADD SWAP1 RETURN JUMPDEST PUSH1 0x0 PUSH2 0xC5 DUP3 PUSH2 0x218 JUMP JUMPDEST SWAP1 POP PUSH4 0xFFFFFFFF DUP2 AND ISZERO PUSH2 0x1E2 JUMPI PUSH1 0x0 PUSH2 0xDE DUP3 PUSH2 0x1E6 JUMP JUMPDEST SWAP1 POP PUSH20 0x0 PUSH4 0xB2C7009 DUP5 PUSH20 0x0 PUSH4 0x883D4FB0 PUSH1 0x40 MLOAD DUP2 PUSH4 0xFFFFFFFF AND PUSH1 0xE0 SHL DUP2 MSTORE PUSH1 0x4 ADD PUSH1 0x20 PUSH1 0x40 MLOAD DUP1 DUP4 SUB DUP2 DUP7 DUP1 EXTCODESIZE ISZERO DUP1 ISZERO PUSH2 0x13F JUMPI PUSH1 0x0 DUP1 REVERT JUMPDEST POP GAS DELEGATECALL ISZERO DUP1 ISZERO PUSH2 0x153 JUMPI RETURNDATASIZE PUSH1 0x0 DUP1 RETURNDATACOPY RETURNDATASIZE PUSH1 0x0 REVERT JUMPDEST POP POP POP POP PUSH1 0x40 MLOAD RETURNDATASIZE PUSH1 0x20 DUP2 LT ISZERO PUSH2 0x169 JUMPI PUSH1 0x0 DUP1 REVERT JUMPDEST POP MLOAD PUSH1 0x40 DUP1 MLOAD PUSH1 0xE0 DUP6 SWAP1 SHL PUSH1 0x1 PUSH1 0x1 PUSH1 0xE0 SHL SUB NOT AND DUP2 MSTORE PUSH1 0x1 PUSH1 0x1 PUSH1 0xA0 SHL SUB SWAP4 SWAP1 SWAP4 AND PUSH1 0x4 DUP5 ADD MSTORE SWAP1 DUP6 OR PUSH8 0xFFFFFFFFFFFFFFFF AND PUSH1 0x24 DUP4 ADD MSTORE PUSH1 0x0 PUSH1 0x44 DUP4 ADD DUP2 SWAP1 MSTORE SWAP1 MLOAD PUSH1 0x64 DUP1 DUP5 ADD SWAP4 DUP3 SWAP1 SUB ADD DUP2 DUP7 DUP1 EXTCODESIZE ISZERO DUP1 ISZERO PUSH2 0x1C8 JUMPI PUSH1 0x0 DUP1 REVERT JUMPDEST POP GAS DELEGATECALL ISZERO DUP1 ISZERO PUSH2 0x1DC JUMPI RETURNDATASIZE PUSH1 0x0 DUP1 RETURNDATACOPY RETURNDATASIZE PUSH1 0x0 REVERT JUMPDEST POP POP POP POP POP JUMPDEST POP POP JUMP JUMPDEST PUSH1 0x0 PUSH1 0x20 JUMPDEST PUSH4 0xFFFFFFFF DUP4 AND ISZERO PUSH2 0x20D JUMPI PUSH1 0x1 SWAP3 SWAP1 SWAP3 SHR PUSH4 0x7FFFFFFF AND SWAP2 PUSH1 0x0 NOT ADD PUSH2 0x1EB JUMP JUMPDEST PUSH1 0x1F SUB SWAP1 POP JUMPDEST SWAP2 SWAP1 POP JUMP JUMPDEST PUSH1 0x0 DUP1 DUP3 PUSH1 0x1 PUSH1 0x1 PUSH1 0xA0 SHL SUB AND PUSH4 0xA317CE9D PUSH1 0x40 MLOAD DUP2 PUSH4 0xFFFFFFFF AND PUSH1 0xE0 SHL DUP2 MSTORE PUSH1 0x4 ADD PUSH1 0x20 PUSH1 0x40 MLOAD DUP1 DUP4 SUB DUP2 PUSH1 0x0 DUP8 DUP1 EXTCODESIZE ISZERO DUP1 ISZERO PUSH2 0x256 JUMPI PUSH1 0x0 DUP1 REVERT JUMPDEST POP GAS CALL ISZERO DUP1 ISZERO PUSH2 0x26A JUMPI RETURNDATASIZE PUSH1 0x0 DUP1 RETURNDATACOPY RETURNDATASIZE PUSH1 0x0 REVERT JUMPDEST POP POP POP POP PUSH1 0x40 MLOAD RETURNDATASIZE PUSH1 0x20 DUP2 LT ISZERO PUSH2 0x280 JUMPI PUSH1 0x0 DUP1 REVERT JUMPDEST POP MLOAD PUSH1 0x40 DUP1 MLOAD PUSH4 0xCC92CBF7 PUSH1 0xE0 SHL DUP2 MSTORE SWAP1 MLOAD SWAP2 SWAP3 POP PUSH1 0x0 SWAP2 PUSH1 0x1 PUSH1 0x1 PUSH1 0xA0 SHL SUB DUP7 AND SWAP2 PUSH4 0xCC92CBF7 SWAP2 PUSH1 0x4 DUP1 DUP4 ADD SWAP3 PUSH1 0x20 SWAP3 SWAP2 SWAP1 DUP3 SWAP1 SUB ADD DUP2 DUP8 DUP8 DUP1 EXTCODESIZE ISZERO DUP1 ISZERO PUSH2 0x2C9 JUMPI PUSH1 0x0 DUP1 REVERT JUMPDEST POP GAS CALL ISZERO DUP1 ISZERO PUSH2 0x2DD JUMPI RETURNDATASIZE PUSH1 0x0 DUP1 RETURNDATACOPY RETURNDATASIZE PUSH1 0x0 REVERT JUMPDEST POP POP POP POP PUSH1 0x40 MLOAD RETURNDATASIZE PUSH1 0x20 DUP2 LT ISZERO PUSH2 0x2F3 JUMPI PUSH1 0x0 DUP1 REVERT JUMPDEST POP MLOAD SWAP1 POP DUP2 DUP2 AND PUSH4 0xFFFFFFFF DUP2 AND PUSH2 0x311 JUMPI PUSH1 0x0 SWAP4 POP POP POP POP PUSH2 0x213 JUMP JUMPDEST PUSH1 0x0 DUP1 PUSH1 0x0 DUP8 PUSH1 0x1 PUSH1 0x1 PUSH1 0xA0 SHL SUB AND PUSH4 0xF7AC913D PUSH1 0x40 MLOAD DUP2 PUSH4 0xFFFFFFFF AND PUSH1 0xE0 SHL DUP2 MSTORE PUSH1 0x4 ADD PUSH1 0x20 PUSH1 0x40 MLOAD DUP1 DUP4 SUB DUP2 PUSH1 0x0 DUP8 DUP1 EXTCODESIZE ISZERO DUP1 ISZERO PUSH2 0x351 JUMPI PUSH1 0x0 DUP1 REVERT JUMPDEST POP GAS CALL ISZERO DUP1 ISZERO PUSH2 0x365 JUMPI RETURNDATASIZE PUSH1 0x0 DUP1 RETURNDATACOPY RETURNDATASIZE PUSH1 0x0 REVERT JUMPDEST POP POP POP POP PUSH1 0x40 MLOAD RETURNDATASIZE PUSH1 0x20 DUP2 LT ISZERO PUSH2 0x37B JUMPI PUSH1 0x0 DUP1 REVERT JUMPDEST POP MLOAD PUSH1 0x40 DUP1 MLOAD PUSH4 0xCF7ECF79 PUSH1 0xE0 SHL DUP2 MSTORE SWAP1 MLOAD SWAP2 SWAP3 POP PUSH20 0x0 SWAP2 PUSH4 0xCF7ECF79 SWAP2 PUSH1 0x4 DUP1 DUP3 ADD SWAP3 PUSH1 0x20 SWAP3 SWAP1 SWAP2 SWAP1 DUP3 SWAP1 SUB ADD DUP2 DUP7 DUP1 EXTCODESIZE ISZERO DUP1 ISZERO PUSH2 0x3CC JUMPI PUSH1 0x0 DUP1 REVERT JUMPDEST POP GAS DELEGATECALL ISZERO DUP1 ISZERO PUSH2 0x3E0 JUMPI RETURNDATASIZE PUSH1 0x0 DUP1 RETURNDATACOPY RETURNDATASIZE PUSH1 0x0 REVERT JUMPDEST POP POP POP POP PUSH1 0x40 MLOAD RETURNDATASIZE PUSH1 0x20 DUP2 LT ISZERO PUSH2 0x3F6 JUMPI PUSH1 0x0 DUP1 REVERT JUMPDEST POP MLOAD PUSH8 0xFFFFFFFFFFFFFFFF DUP3 DUP2 AND SWAP2 AND EQ ISZERO PUSH2 0x56F JUMPI DUP8 PUSH1 0x1 PUSH1 0x1 PUSH1 0xA0 SHL SUB AND PUSH4 0xB5B98ED4 PUSH1 0x40 MLOAD DUP2 PUSH4 0xFFFFFFFF AND PUSH1 0xE0 SHL DUP2 MSTORE PUSH1 0x4 ADD PUSH1 0x20 PUSH1 0x40 MLOAD DUP1 DUP4 SUB DUP2 PUSH1 0x0 DUP8 DUP1 EXTCODESIZE ISZERO DUP1 ISZERO PUSH2 0x447 JUMPI PUSH1 0x0 DUP1 REVERT JUMPDEST POP GAS CALL ISZERO DUP1 ISZERO PUSH2 0x45B JUMPI RETURNDATASIZE PUSH1 0x0 DUP1 RETURNDATACOPY RETURNDATASIZE PUSH1 0x0 REVERT JUMPDEST POP POP POP POP PUSH1 0x40 MLOAD RETURNDATASIZE PUSH1 0x20 DUP2 LT ISZERO PUSH2 0x471 JUMPI PUSH1 0x0 DUP1 REVERT JUMPDEST POP MLOAD PUSH1 0x40 DUP1 MLOAD PUSH4 0x3CBC8793 PUSH1 0xE2 SHL DUP2 MSTORE SWAP1 MLOAD SWAP2 SWAP5 POP PUSH20 0x0 SWAP2 PUSH4 0xF2F21E4C SWAP2 PUSH1 0x4 DUP1 DUP3 ADD SWAP3 PUSH1 0x20 SWAP3 SWAP1 SWAP2 SWAP1 DUP3 SWAP1 SUB ADD DUP2 DUP7 DUP1 EXTCODESIZE ISZERO DUP1 ISZERO PUSH2 0x4C2 JUMPI PUSH1 0x0 DUP1 REVERT JUMPDEST POP GAS DELEGATECALL ISZERO DUP1 ISZERO PUSH2 0x4D6 JUMPI RETURNDATASIZE PUSH1 0x0 DUP1 RETURNDATACOPY RETURNDATASIZE PUSH1 0x0 REVERT JUMPDEST POP POP POP POP PUSH1 0x40 MLOAD RETURNDATASIZE PUSH1 0x20 DUP2 LT ISZERO PUSH2 0x4EC JUMPI PUSH1 0x0 DUP1 REVERT JUMPDEST POP MLOAD DUP4 AND PUSH8 0xFFFFFFFFFFFFFFFF AND ISZERO PUSH2 0x56A JUMPI DUP8 PUSH1 0x1 PUSH1 0x1 PUSH1 0xA0 SHL SUB AND PUSH4 0xA740DBC1 PUSH1 0x40 MLOAD DUP2 PUSH4 0xFFFFFFFF AND PUSH1 0xE0 SHL DUP2 MSTORE PUSH1 0x4 ADD PUSH1 0x20 PUSH1 0x40 MLOAD DUP1 DUP4 SUB DUP2 PUSH1 0x0 DUP8 DUP1 EXTCODESIZE ISZERO DUP1 ISZERO PUSH2 0x53A JUMPI PUSH1 0x0 DUP1 REVERT JUMPDEST POP GAS CALL ISZERO DUP1 ISZERO PUSH2 0x54E JUMPI RETURNDATASIZE PUSH1 0x0 DUP1 RETURNDATACOPY RETURNDATASIZE PUSH1 0x0 REVERT JUMPDEST POP POP POP POP PUSH1 0x40 MLOAD RETURNDATASIZE PUSH1 0x20 DUP2 LT ISZERO PUSH2 0x564 JUMPI PUSH1 0x0 DUP1 REVERT JUMPDEST POP MLOAD NOT SWAP2 POP JUMPDEST PUSH2 0x76E JUMP JUMPDEST PUSH20 0x0 PUSH4 0x26797D9 PUSH1 0x40 MLOAD DUP2 PUSH4 0xFFFFFFFF AND PUSH1 0xE0 SHL DUP2 MSTORE PUSH1 0x4 ADD PUSH1 0x20 PUSH1 0x40 MLOAD DUP1 DUP4 SUB DUP2 DUP7 DUP1 EXTCODESIZE ISZERO DUP1 ISZERO PUSH2 0x5B3 JUMPI PUSH1 0x0 DUP1 REVERT JUMPDEST POP GAS DELEGATECALL ISZERO DUP1 ISZERO PUSH2 0x5C7 JUMPI RETURNDATASIZE PUSH1 0x0 DUP1 RETURNDATACOPY RETURNDATASIZE PUSH1 0x0 REVERT JUMPDEST POP POP POP POP PUSH1 0x40 MLOAD RETURNDATASIZE PUSH1 0x20 DUP2 LT ISZERO PUSH2 0x5DD JUMPI PUSH1 0x0 DUP1 REVERT JUMPDEST POP MLOAD PUSH8 0xFFFFFFFFFFFFFFFF DUP3 DUP2 AND SWAP2 AND EQ ISZERO PUSH2 0x768 JUMPI DUP8 PUSH1 0x1 PUSH1 0x1 PUSH1 0xA0 SHL SUB AND PUSH4 0xB5B98ED4 PUSH1 0x40 MLOAD DUP2 PUSH4 0xFFFFFFFF AND PUSH1 0xE0 SHL DUP2 MSTORE PUSH1 0x4 ADD PUSH1 0x20 PUSH1 0x40 MLOAD DUP1 DUP4 SUB DUP2 PUSH1 0x0 DUP8 DUP1 EXTCODESIZE ISZERO DUP1 ISZERO PUSH2 0x62E JUMPI PUSH1 0x0 DUP1 REVERT JUMPDEST POP GAS CALL ISZERO DUP1 ISZERO PUSH2 0x642 JUMPI RETURNDATASIZE PUSH1 0x0 DUP1 RETURNDATACOPY RETURNDATASIZE PUSH1 0x0 REVERT JUMPDEST POP POP POP POP PUSH1 0x40 MLOAD RETURNDATASIZE PUSH1 0x20 DUP2 LT ISZERO PUSH2 0x658 JUMPI PUSH1 0x0 DUP1 REVERT JUMPDEST POP MLOAD PUSH1 0x40 DUP1 MLOAD PUSH4 0xA740DBC1 PUSH1 0xE0 SHL DUP2 MSTORE SWAP1 MLOAD SWAP2 SWAP5 POP PUSH1 0x0 SWAP2 PUSH1 0x1 PUSH1 0x1 PUSH1 0xA0 SHL SUB DUP12 AND SWAP2 PUSH4 0xA740DBC1 SWAP2 PUSH1 0x4 DUP1 DUP4 ADD SWAP3 PUSH1 0x20 SWAP3 SWAP2 SWAP1 DUP3 SWAP1 SUB ADD DUP2 DUP8 DUP8 DUP1 EXTCODESIZE ISZERO DUP1 ISZERO PUSH2 0x6A1 JUMPI PUSH1 0x0 DUP1 REVERT JUMPDEST POP GAS CALL ISZERO DUP1 ISZERO PUSH2 0x6B5 JUMPI RETURNDATASIZE PUSH1 0x0 DUP1 RETURNDATACOPY RETURNDATASIZE PUSH1 0x0 REVERT JUMPDEST POP POP POP POP PUSH1 0x40 MLOAD RETURNDATASIZE PUSH1 0x20 DUP2 LT ISZERO PUSH2 0x6CB JUMPI PUSH1 0x0 DUP1 REVERT JUMPDEST POP MLOAD PUSH1 0x40 DUP1 MLOAD PUSH4 0x594DC373 PUSH1 0xE0 SHL DUP2 MSTORE SWAP1 MLOAD DUP3 NOT SWAP6 POP SWAP2 SWAP3 POP PUSH20 0x0 SWAP2 PUSH4 0x594DC373 SWAP2 PUSH1 0x4 DUP1 DUP3 ADD SWAP3 PUSH1 0x20 SWAP3 SWAP1 SWAP2 SWAP1 DUP3 SWAP1 SUB ADD DUP2 DUP7 DUP1 EXTCODESIZE ISZERO DUP1 ISZERO PUSH2 0x720 JUMPI PUSH1 0x0 DUP1 REVERT JUMPDEST POP GAS DELEGATECALL ISZERO DUP1 ISZERO PUSH2 0x734 JUMPI RETURNDATASIZE PUSH1 0x0 DUP1 RETURNDATACOPY RETURNDATASIZE PUSH1 0x0 REVERT JUMPDEST POP POP POP POP PUSH1 0x40 MLOAD RETURNDATASIZE PUSH1 0x20 DUP2 LT ISZERO PUSH2 0x74A JUMPI PUSH1 0x0 DUP1 REVERT JUMPDEST POP MLOAD DUP5 AND PUSH8 0xFFFFFFFFFFFFFFFF AND ISZERO PUSH2 0x762 JUMPI SWAP2 DUP3 OR SWAP2 JUMPDEST POP PUSH2 0x76E JUMP JUMPDEST PUSH1 0x0 NOT SWAP2 POP JUMPDEST POP SWAP2 SWAP1 SWAP2 AND SWAP6 SWAP5 POP POP POP POP POP JUMP INVALID LOG2 PUSH5 0x6970667358 0x22 SLT KECCAK256 0xBC LOG0 0x5E 0xFC ADDMOD 0xDF POP SWAP12 0xAD EXTCODECOPY PUSH6 0xD96FD7F061F3 LOG4 CALLCODE 0x4E MULMOD SDIV 0xFC 0xD0 OR PUSH30 0xF526FB2140E264736F6C6343000704003300000000000000000000000000 "
    },
    "gasEstimates": {
      "creation": {
        "codeDepositCost": "394000",
        "executionCost": "455",
        "totalCost": "394455"
      },
      "external": {
        "ilog2(uint32)": "infinite",
        "raiseInterruptIfAny(MemoryInteractor)": "infinite"
      },
      "internal": {
        "getPendingIrqMask(contract MemoryInteractor)": "infinite"
      }
    },
    "methodIdentifiers": {
      "ilog2(uint32)": "ef86c614",
      "raiseInterruptIfAny(MemoryInteractor)": "cbe611b2"
    }
  },
  "storageLayout": {
    "storage": [],
    "types": null
  },
  "userdoc": {
    "kind": "user",
    "methods": {
      "raiseInterruptIfAny(MemoryInteractor)": {
        "notice": "Raises an interrupt if any are enabled and pending."
      }
    },
    "notice": "Implements interrupt behaviour",
    "version": 1
  }
}