{
  "contractName": "MemoryInteractor",
  "sourceName": "contracts/MemoryInteractor.sol",
  "abi": [
    {
      "inputs": [],
      "name": "getRWIndex",
      "outputs": [
        {
          "internalType": "uint256",
          "name": "",
          "type": "uint256"
        }
      ],
      "stateMutability": "view",
      "type": "function"
    },
    {
      "inputs": [
        {
          "internalType": "uint64[]",
          "name": "_rwPositions",
          "type": "uint64[]"
        },
        {
          "internalType": "bytes8[]",
          "name": "_rwValues",
          "type": "bytes8[]"
        },
        {
          "internalType": "bool[]",
          "name": "_isRead",
          "type": "bool[]"
        }
      ],
      "name": "initializeMemory",
      "outputs": [],
      "stateMutability": "nonpayable",
      "type": "function"
    },
    {
      "inputs": [
        {
          "internalType": "uint64",
          "name": "_readAddress",
          "type": "uint64"
        }
      ],
      "name": "memoryRead",
      "outputs": [
        {
          "internalType": "uint64",
          "name": "",
          "type": "uint64"
        }
      ],
      "stateMutability": "nonpayable",
      "type": "function"
    },
    {
      "inputs": [
        {
          "internalType": "uint64",
          "name": "_writeAddress",
          "type": "uint64"
        },
        {
          "internalType": "uint64",
          "name": "_value",
          "type": "uint64"
        }
      ],
      "name": "memoryWrite",
      "outputs": [],
      "stateMutability": "nonpayable",
      "type": "function"
    },
    {
      "inputs": [],
      "name": "readClintMtimecmp",
      "outputs": [
        {
          "internalType": "uint64",
          "name": "",
          "type": "uint64"
        }
      ],
      "stateMutability": "nonpayable",
      "type": "function"
    },
    {
      "inputs": [],
      "name": "readHtifFromhost",
      "outputs": [
        {
          "internalType": "uint64",
          "name": "",
          "type": "uint64"
        }
      ],
      "stateMutability": "nonpayable",
      "type": "function"
    },
    {
      "inputs": [],
      "name": "readHtifIConsole",
      "outputs": [
        {
          "internalType": "uint64",
          "name": "",
          "type": "uint64"
        }
      ],
      "stateMutability": "nonpayable",
      "type": "function"
    },
    {
      "inputs": [],
      "name": "readHtifIHalt",
      "outputs": [
        {
          "internalType": "uint64",
          "name": "",
          "type": "uint64"
        }
      ],
      "stateMutability": "nonpayable",
      "type": "function"
    },
    {
      "inputs": [],
      "name": "readHtifIYield",
      "outputs": [
        {
          "internalType": "uint64",
          "name": "",
          "type": "uint64"
        }
      ],
      "stateMutability": "nonpayable",
      "type": "function"
    },
    {
      "inputs": [],
      "name": "readHtifTohost",
      "outputs": [
        {
          "internalType": "uint64",
          "name": "",
          "type": "uint64"
        }
      ],
      "stateMutability": "nonpayable",
      "type": "function"
    },
    {
      "inputs": [],
      "name": "readIflags",
      "outputs": [
        {
          "internalType": "uint64",
          "name": "",
          "type": "uint64"
        }
      ],
      "stateMutability": "nonpayable",
      "type": "function"
    },
    {
      "inputs": [],
      "name": "readIflagsH",
      "outputs": [
        {
          "internalType": "uint64",
          "name": "",
          "type": "uint64"
        }
      ],
      "stateMutability": "nonpayable",
      "type": "function"
    },
    {
      "inputs": [],
      "name": "readIflagsPrv",
      "outputs": [
        {
          "internalType": "uint64",
          "name": "",
          "type": "uint64"
        }
      ],
      "stateMutability": "nonpayable",
      "type": "function"
    },
    {
      "inputs": [],
      "name": "readIflagsX",
      "outputs": [
        {
          "internalType": "uint64",
          "name": "",
          "type": "uint64"
        }
      ],
      "stateMutability": "nonpayable",
      "type": "function"
    },
    {
      "inputs": [],
      "name": "readIflagsY",
      "outputs": [
        {
          "internalType": "uint64",
          "name": "",
          "type": "uint64"
        }
      ],
      "stateMutability": "nonpayable",
      "type": "function"
    },
    {
      "inputs": [],
      "name": "readIlrsc",
      "outputs": [
        {
          "internalType": "uint64",
          "name": "",
          "type": "uint64"
        }
      ],
      "stateMutability": "nonpayable",
      "type": "function"
    },
    {
      "inputs": [],
      "name": "readMarchid",
      "outputs": [
        {
          "internalType": "uint64",
          "name": "",
          "type": "uint64"
        }
      ],
      "stateMutability": "nonpayable",
      "type": "function"
    },
    {
      "inputs": [],
      "name": "readMcause",
      "outputs": [
        {
          "internalType": "uint64",
          "name": "",
          "type": "uint64"
        }
      ],
      "stateMutability": "nonpayable",
      "type": "function"
    },
    {
      "inputs": [],
      "name": "readMcounteren",
      "outputs": [
        {
          "internalType": "uint64",
          "name": "",
          "type": "uint64"
        }
      ],
      "stateMutability": "nonpayable",
      "type": "function"
    },
    {
      "inputs": [],
      "name": "readMcycle",
      "outputs": [
        {
          "internalType": "uint64",
          "name": "",
          "type": "uint64"
        }
      ],
      "stateMutability": "nonpayable",
      "type": "function"
    },
    {
      "inputs": [],
      "name": "readMedeleg",
      "outputs": [
        {
          "internalType": "uint64",
          "name": "",
          "type": "uint64"
        }
      ],
      "stateMutability": "nonpayable",
      "type": "function"
    },
    {
      "inputs": [
        {
          "internalType": "uint64",
          "name": "paddr",
          "type": "uint64"
        },
        {
          "internalType": "uint64",
          "name": "wordSize",
          "type": "uint64"
        }
      ],
      "name": "readMemory",
      "outputs": [
        {
          "internalType": "uint64",
          "name": "",
          "type": "uint64"
        }
      ],
      "stateMutability": "nonpayable",
      "type": "function"
    },
    {
      "inputs": [],
      "name": "readMepc",
      "outputs": [
        {
          "internalType": "uint64",
          "name": "",
          "type": "uint64"
        }
      ],
      "stateMutability": "nonpayable",
      "type": "function"
    },
    {
      "inputs": [],
      "name": "readMideleg",
      "outputs": [
        {
          "internalType": "uint64",
          "name": "",
          "type": "uint64"
        }
      ],
      "stateMutability": "nonpayable",
      "type": "function"
    },
    {
      "inputs": [],
      "name": "readMie",
      "outputs": [
        {
          "internalType": "uint64",
          "name": "",
          "type": "uint64"
        }
      ],
      "stateMutability": "nonpayable",
      "type": "function"
    },
    {
      "inputs": [],
      "name": "readMimpid",
      "outputs": [
        {
          "internalType": "uint64",
          "name": "",
          "type": "uint64"
        }
      ],
      "stateMutability": "nonpayable",
      "type": "function"
    },
    {
      "inputs": [],
      "name": "readMinstret",
      "outputs": [
        {
          "internalType": "uint64",
          "name": "",
          "type": "uint64"
        }
      ],
      "stateMutability": "nonpayable",
      "type": "function"
    },
    {
      "inputs": [],
      "name": "readMip",
      "outputs": [
        {
          "internalType": "uint64",
          "name": "",
          "type": "uint64"
        }
      ],
      "stateMutability": "nonpayable",
      "type": "function"
    },
    {
      "inputs": [],
      "name": "readMisa",
      "outputs": [
        {
          "internalType": "uint64",
          "name": "",
          "type": "uint64"
        }
      ],
      "stateMutability": "nonpayable",
      "type": "function"
    },
    {
      "inputs": [],
      "name": "readMscratch",
      "outputs": [
        {
          "internalType": "uint64",
          "name": "",
          "type": "uint64"
        }
      ],
      "stateMutability": "nonpayable",
      "type": "function"
    },
    {
      "inputs": [],
      "name": "readMstatus",
      "outputs": [
        {
          "internalType": "uint64",
          "name": "",
          "type": "uint64"
        }
      ],
      "stateMutability": "nonpayable",
      "type": "function"
    },
    {
      "inputs": [],
      "name": "readMtval",
      "outputs": [
        {
          "internalType": "uint64",
          "name": "",
          "type": "uint64"
        }
      ],
      "stateMutability": "nonpayable",
      "type": "function"
    },
    {
      "inputs": [],
      "name": "readMtvec",
      "outputs": [
        {
          "internalType": "uint64",
          "name": "",
          "type": "uint64"
        }
      ],
      "stateMutability": "nonpayable",
      "type": "function"
    },
    {
      "inputs": [],
      "name": "readMvendorid",
      "outputs": [
        {
          "internalType": "uint64",
          "name": "",
          "type": "uint64"
        }
      ],
      "stateMutability": "nonpayable",
      "type": "function"
    },
    {
      "inputs": [],
      "name": "readPc",
      "outputs": [
        {
          "internalType": "uint64",
          "name": "",
          "type": "uint64"
        }
      ],
      "stateMutability": "nonpayable",
      "type": "function"
    },
    {
      "inputs": [],
      "name": "readSatp",
      "outputs": [
        {
          "internalType": "uint64",
          "name": "",
          "type": "uint64"
        }
      ],
      "stateMutability": "nonpayable",
      "type": "function"
    },
    {
      "inputs": [],
      "name": "readScause",
      "outputs": [
        {
          "internalType": "uint64",
          "name": "",
          "type": "uint64"
        }
      ],
      "stateMutability": "nonpayable",
      "type": "function"
    },
    {
      "inputs": [],
      "name": "readScounteren",
      "outputs": [
        {
          "internalType": "uint64",
          "name": "",
          "type": "uint64"
        }
      ],
      "stateMutability": "nonpayable",
      "type": "function"
    },
    {
      "inputs": [],
      "name": "readSepc",
      "outputs": [
        {
          "internalType": "uint64",
          "name": "",
          "type": "uint64"
        }
      ],
      "stateMutability": "nonpayable",
      "type": "function"
    },
    {
      "inputs": [],
      "name": "readSscratch",
      "outputs": [
        {
          "internalType": "uint64",
          "name": "",
          "type": "uint64"
        }
      ],
      "stateMutability": "nonpayable",
      "type": "function"
    },
    {
      "inputs": [],
      "name": "readStval",
      "outputs": [
        {
          "internalType": "uint64",
          "name": "",
          "type": "uint64"
        }
      ],
      "stateMutability": "nonpayable",
      "type": "function"
    },
    {
      "inputs": [],
      "name": "readStvec",
      "outputs": [
        {
          "internalType": "uint64",
          "name": "",
          "type": "uint64"
        }
      ],
      "stateMutability": "nonpayable",
      "type": "function"
    },
    {
      "inputs": [
        {
          "internalType": "uint64",
          "name": "registerIndex",
          "type": "uint64"
        }
      ],
      "name": "readX",
      "outputs": [
        {
          "internalType": "uint64",
          "name": "",
          "type": "uint64"
        }
      ],
      "stateMutability": "nonpayable",
      "type": "function"
    },
    {
      "inputs": [
        {
          "internalType": "uint64",
          "name": "mask",
          "type": "uint64"
        }
      ],
      "name": "resetMip",
      "outputs": [],
      "stateMutability": "nonpayable",
      "type": "function"
    },
    {
      "inputs": [
        {
          "internalType": "bool",
          "name": "halt",
          "type": "bool"
        }
      ],
      "name": "setIflagsH",
      "outputs": [],
      "stateMutability": "nonpayable",
      "type": "function"
    },
    {
      "inputs": [
        {
          "internalType": "bool",
          "name": "isAutomaticYield",
          "type": "bool"
        }
      ],
      "name": "setIflagsX",
      "outputs": [],
      "stateMutability": "nonpayable",
      "type": "function"
    },
    {
      "inputs": [
        {
          "internalType": "bool",
          "name": "isManualYield",
          "type": "bool"
        }
      ],
      "name": "setIflagsY",
      "outputs": [],
      "stateMutability": "nonpayable",
      "type": "function"
    },
    {
      "inputs": [
        {
          "internalType": "uint64",
          "name": "mask",
          "type": "uint64"
        }
      ],
      "name": "setMip",
      "outputs": [],
      "stateMutability": "nonpayable",
      "type": "function"
    },
    {
      "inputs": [
        {
          "internalType": "uint64",
          "name": "newPriv",
          "type": "uint64"
        }
      ],
      "name": "setPriv",
      "outputs": [],
      "stateMutability": "nonpayable",
      "type": "function"
    },
    {
      "inputs": [
        {
          "internalType": "uint64",
          "name": "value",
          "type": "uint64"
        }
      ],
      "name": "writeClintMtimecmp",
      "outputs": [],
      "stateMutability": "nonpayable",
      "type": "function"
    },
    {
      "inputs": [
        {
          "internalType": "uint64",
          "name": "value",
          "type": "uint64"
        }
      ],
      "name": "writeHtifFromhost",
      "outputs": [],
      "stateMutability": "nonpayable",
      "type": "function"
    },
    {
      "inputs": [
        {
          "internalType": "uint64",
          "name": "value",
          "type": "uint64"
        }
      ],
      "name": "writeHtifTohost",
      "outputs": [],
      "stateMutability": "nonpayable",
      "type": "function"
    },
    {
      "inputs": [
        {
          "internalType": "uint64",
          "name": "newPriv",
          "type": "uint64"
        }
      ],
      "name": "writeIflagsPrv",
      "outputs": [],
      "stateMutability": "nonpayable",
      "type": "function"
    },
    {
      "inputs": [
        {
          "internalType": "uint64",
          "name": "value",
          "type": "uint64"
        }
      ],
      "name": "writeIlrsc",
      "outputs": [],
      "stateMutability": "nonpayable",
      "type": "function"
    },
    {
      "inputs": [
        {
          "internalType": "uint64",
          "name": "value",
          "type": "uint64"
        }
      ],
      "name": "writeMcause",
      "outputs": [],
      "stateMutability": "nonpayable",
      "type": "function"
    },
    {
      "inputs": [
        {
          "internalType": "uint64",
          "name": "value",
          "type": "uint64"
        }
      ],
      "name": "writeMcounteren",
      "outputs": [],
      "stateMutability": "nonpayable",
      "type": "function"
    },
    {
      "inputs": [
        {
          "internalType": "uint64",
          "name": "value",
          "type": "uint64"
        }
      ],
      "name": "writeMcycle",
      "outputs": [],
      "stateMutability": "nonpayable",
      "type": "function"
    },
    {
      "inputs": [
        {
          "internalType": "uint64",
          "name": "value",
          "type": "uint64"
        }
      ],
      "name": "writeMedeleg",
      "outputs": [],
      "stateMutability": "nonpayable",
      "type": "function"
    },
    {
      "inputs": [
        {
          "internalType": "uint64",
          "name": "paddr",
          "type": "uint64"
        },
        {
          "internalType": "uint64",
          "name": "value",
          "type": "uint64"
        },
        {
          "internalType": "uint64",
          "name": "wordSize",
          "type": "uint64"
        }
      ],
      "name": "writeMemory",
      "outputs": [],
      "stateMutability": "nonpayable",
      "type": "function"
    },
    {
      "inputs": [
        {
          "internalType": "uint64",
          "name": "value",
          "type": "uint64"
        }
      ],
      "name": "writeMepc",
      "outputs": [],
      "stateMutability": "nonpayable",
      "type": "function"
    },
    {
      "inputs": [
        {
          "internalType": "uint64",
          "name": "value",
          "type": "uint64"
        }
      ],
      "name": "writeMideleg",
      "outputs": [],
      "stateMutability": "nonpayable",
      "type": "function"
    },
    {
      "inputs": [
        {
          "internalType": "uint64",
          "name": "value",
          "type": "uint64"
        }
      ],
      "name": "writeMie",
      "outputs": [],
      "stateMutability": "nonpayable",
      "type": "function"
    },
    {
      "inputs": [
        {
          "internalType": "uint64",
          "name": "value",
          "type": "uint64"
        }
      ],
      "name": "writeMinstret",
      "outputs": [],
      "stateMutability": "nonpayable",
      "type": "function"
    },
    {
      "inputs": [
        {
          "internalType": "uint64",
          "name": "value",
          "type": "uint64"
        }
      ],
      "name": "writeMip",
      "outputs": [],
      "stateMutability": "nonpayable",
      "type": "function"
    },
    {
      "inputs": [
        {
          "internalType": "uint64",
          "name": "value",
          "type": "uint64"
        }
      ],
      "name": "writeMscratch",
      "outputs": [],
      "stateMutability": "nonpayable",
      "type": "function"
    },
    {
      "inputs": [
        {
          "internalType": "uint64",
          "name": "value",
          "type": "uint64"
        }
      ],
      "name": "writeMstatus",
      "outputs": [],
      "stateMutability": "nonpayable",
      "type": "function"
    },
    {
      "inputs": [
        {
          "internalType": "uint64",
          "name": "value",
          "type": "uint64"
        }
      ],
      "name": "writeMtval",
      "outputs": [],
      "stateMutability": "nonpayable",
      "type": "function"
    },
    {
      "inputs": [
        {
          "internalType": "uint64",
          "name": "value",
          "type": "uint64"
        }
      ],
      "name": "writeMtvec",
      "outputs": [],
      "stateMutability": "nonpayable",
      "type": "function"
    },
    {
      "inputs": [
        {
          "internalType": "uint64",
          "name": "value",
          "type": "uint64"
        }
      ],
      "name": "writePc",
      "outputs": [],
      "stateMutability": "nonpayable",
      "type": "function"
    },
    {
      "inputs": [
        {
          "internalType": "uint64",
          "name": "value",
          "type": "uint64"
        }
      ],
      "name": "writeSatp",
      "outputs": [],
      "stateMutability": "nonpayable",
      "type": "function"
    },
    {
      "inputs": [
        {
          "internalType": "uint64",
          "name": "value",
          "type": "uint64"
        }
      ],
      "name": "writeScause",
      "outputs": [],
      "stateMutability": "nonpayable",
      "type": "function"
    },
    {
      "inputs": [
        {
          "internalType": "uint64",
          "name": "value",
          "type": "uint64"
        }
      ],
      "name": "writeScounteren",
      "outputs": [],
      "stateMutability": "nonpayable",
      "type": "function"
    },
    {
      "inputs": [
        {
          "internalType": "uint64",
          "name": "value",
          "type": "uint64"
        }
      ],
      "name": "writeSepc",
      "outputs": [],
      "stateMutability": "nonpayable",
      "type": "function"
    },
    {
      "inputs": [
        {
          "internalType": "uint64",
          "name": "value",
          "type": "uint64"
        }
      ],
      "name": "writeSscratch",
      "outputs": [],
      "stateMutability": "nonpayable",
      "type": "function"
    },
    {
      "inputs": [
        {
          "internalType": "uint64",
          "name": "value",
          "type": "uint64"
        }
      ],
      "name": "writeStval",
      "outputs": [],
      "stateMutability": "nonpayable",
      "type": "function"
    },
    {
      "inputs": [
        {
          "internalType": "uint64",
          "name": "value",
          "type": "uint64"
        }
      ],
      "name": "writeStvec",
      "outputs": [],
      "stateMutability": "nonpayable",
      "type": "function"
    },
    {
      "inputs": [
        {
          "internalType": "uint64",
          "name": "registerindex",
          "type": "uint64"
        },
        {
          "internalType": "uint64",
          "name": "value",
          "type": "uint64"
        }
      ],
      "name": "writeX",
      "outputs": [],
      "stateMutability": "nonpayable",
      "type": "function"
    }
  ],
  "bytecode": "0x608060405234801561001057600080fd5b5061300d806100206000396000f3fe608060405234801561001057600080fd5b506004361061045f5760003560e01c8063854dba401161024c578063b5b98ed411610146578063dd5c4a14116100c3578063f7ac913d11610087578063f7ac913d14610c76578063f991158714610c7e578063fa644af514610ca4578063fbdb975d14610cca578063fd295abe14610cf05761045f565b8063dd5c4a1414610bd6578063f21d94f814610bfc578063f2cf6ceb14610c22578063f55c4d3814610c2a578063f604edb814610c505761045f565b8063cc92cbf71161010a578063cc92cbf714610b72578063cecdae5314610b7a578063d2be7b6d14610ba0578063d40d17c514610bc6578063daded5c214610bce5761045f565b8063b5b98ed414610b2c578063b8fd205c14610b34578063becdc10d14610b3c578063c133b7ff14610b44578063cbc446b114610b4c5761045f565b80639c872d02116101d4578063aaed4f0711610198578063aaed4f0714610a93578063ab9779b714610ab9578063af63b2a814610adf578063b2325aef14610ae7578063b27ec92014610b0d5761045f565b80639c872d0214610893578063a317ce9d146108b9578063a47594df146108c1578063a740dbc114610a6c578063a7458b9514610a745761045f565b80638e32f35e1161021b5780638e32f35e146108275780639485871b14610855578063968644f01461085d5780639b7021ce146108655780639c7b005d1461086d5761045f565b8063854dba40146107cb57806386099c54146107d357806386676d43146107db57806389365909146108015761045f565b806354749af31161035d5780636475e342116102e55780636f6c0e7d116102a95780636f6c0e7d14610767578063768365ea1461076f57806378c495741461077757806378ddee751461079d578063834aa4f6146107c35761045f565b80636475e34214610719578063650ca32b146107215780636a72b27d146107295780636cd24daf146107315780636dc95c2e146107395761045f565b80635af47ca71161032c5780635af47ca7146106975780635dadd78a146106bd5780635e5ca652146106c55780635f824bf9146106eb5780636232e59c146106f35761045f565b806354749af31461061d578063568b270214610643578063575832df1461064b57806357907837146106715761045f565b806328520b30116103eb5780633a48bb56116103af5780633a48bb561461059a57806345057ed7146105b95780634ae9388b146105df57806350cec2d5146105e757806351bb3615146106155761045f565b806328520b301461053657806328751b361461053e5780632ca2bd16146105645780632e963a801461058a57806334970f18146105925761045f565b806311cf3a221161043257806311cf3a22146104f057806315dd9c06146104f857806318e504db1461051e5780631bf2f73d146105265780631e5e61901461052e5761045f565b8063080aa5d1146104645780630df3e2951461047e5780630f84c046146104a657806310d74c7d146104ca575b600080fd5b61046c610d28565b60408051918252519081900360200190f35b6104a46004803603602081101561049457600080fd5b50356001600160401b0316610d2e565b005b6104ae610daa565b604080516001600160401b039092168252519081900360200190f35b6104a4600480360360208110156104e057600080fd5b50356001600160401b0316610e29565b6104ae610e70565b6104a46004803603602081101561050e57600080fd5b50356001600160401b0316610eb9565b6104ae610ed5565b6104ae610f1e565b6104ae610f67565b6104ae610fb0565b6104a46004803603602081101561055457600080fd5b50356001600160401b0316610ff9565b6104a46004803603602081101561057a57600080fd5b50356001600160401b0316611040565b6104ae611087565b6104ae6110d0565b6104a4600480360360208110156105b057600080fd5b50351515611119565b6104a4600480360360208110156105cf57600080fd5b50356001600160401b031661125b565b6104ae611272565b6104ae600480360360408110156105fd57600080fd5b506001600160401b03813581169160200135166112bb565b6104ae611431565b6104a46004803603602081101561063357600080fd5b50356001600160401b031661147a565b6104ae61148e565b6104a46004803603602081101561066157600080fd5b50356001600160401b03166114d7565b6104a46004803603602081101561068757600080fd5b50356001600160401b031661151e565b6104a4600480360360208110156106ad57600080fd5b50356001600160401b0316611565565b6104ae6115ac565b6104a4600480360360208110156106db57600080fd5b50356001600160401b03166115f5565b6104ae61163c565b6104ae6004803603602081101561070957600080fd5b50356001600160401b0316611685565b6104ae611699565b6104ae6116e2565b6104ae61172b565b6104ae611774565b6104a46004803603604081101561074f57600080fd5b506001600160401b03813581169160200135166117bd565b6104ae6117ca565b6104ae611813565b6104a46004803603602081101561078d57600080fd5b50356001600160401b031661185c565b6104a4600480360360208110156107b357600080fd5b50356001600160401b03166118a3565b6104ae6118ea565b6104ae611933565b6104ae61197c565b6104a4600480360360208110156107f157600080fd5b50356001600160401b0316611ad2565b6104a46004803603602081101561081757600080fd5b50356001600160401b0316611b19565b6104a46004803603604081101561083d57600080fd5b506001600160401b0381358116916020013516611b60565b6104ae611c62565b6104ae611cab565b6104ae611d74565b6104a46004803603602081101561088357600080fd5b50356001600160401b0316611dbd565b6104a4600480360360208110156108a957600080fd5b50356001600160401b0316611e04565b6104ae611e4b565b6104a4600480360360608110156108d757600080fd5b8101906020810181356401000000008111156108f257600080fd5b82018360208201111561090457600080fd5b8035906020019184602083028401116401000000008311171561092657600080fd5b919080806020026020016040519081016040528093929190818152602001838360200280828437600092019190915250929594936020810193503591505064010000000081111561097657600080fd5b82018360208201111561098857600080fd5b803590602001918460208302840111640100000000831117156109aa57600080fd5b91908080602002602001604051908101604052809392919081815260200183836020028082843760009201919091525092959493602081019350359150506401000000008111156109fa57600080fd5b820183602082011115610a0c57600080fd5b80359060200191846020830284011164010000000083111715610a2e57600080fd5b919080806020026020016040519081016040528093929190818152602001838360200280828437600092019190915250929550611e94945050505050565b6104ae611f59565b6104a460048036036020811015610a8a57600080fd5b50351515611fa2565b6104a460048036036020811015610aa957600080fd5b50356001600160401b031661203c565b6104a460048036036020811015610acf57600080fd5b50356001600160401b0316612083565b6104ae6120ca565b6104a460048036036020811015610afd57600080fd5b50356001600160401b0316612113565b6104a460048036036020811015610b2357600080fd5b5035151561215a565b6104ae6121f4565b6104ae61223d565b6104ae612286565b6104ae6122cf565b6104a460048036036020811015610b6257600080fd5b50356001600160401b0316612318565b6104ae61235f565b6104a460048036036020811015610b9057600080fd5b50356001600160401b03166123a8565b6104a460048036036020811015610bb657600080fd5b50356001600160401b0316612507565b6104ae61254e565b6104ae612617565b6104a460048036036020811015610bec57600080fd5b50356001600160401b0316612660565b6104a460048036036020811015610c1257600080fd5b50356001600160401b03166126a7565b6104ae6126ee565b6104a460048036036020811015610c4057600080fd5b50356001600160401b0316612737565b6104a460048036036020811015610c6657600080fd5b50356001600160401b031661277e565b6104ae6127c5565b6104a460048036036020811015610c9457600080fd5b50356001600160401b031661288e565b6104ae60048036036020811015610cba57600080fd5b50356001600160401b03166128d5565b6104a460048036036020811015610ce057600080fd5b50356001600160401b031661296e565b6104a460048036036060811015610d0657600080fd5b506001600160401b0381358116916020810135821691604090910135166129b5565b60005490565b610da773__$edd6a44efa4a8bdf57aa57ccba2bcfbb1d$__639a59734c6040518163ffffffff1660e01b815260040160206040518083038186803b158015610d7557600080fd5b505af4158015610d89573d6000803e3d6000fd5b505050506040513d6020811015610d9f57600080fd5b505182611b60565b50565b6000610e2473__$edd6a44efa4a8bdf57aa57ccba2bcfbb1d$__636630ad876040518163ffffffff1660e01b815260040160206040518083038186803b158015610df357600080fd5b505af4158015610e07573d6000803e3d6000fd5b505050506040513d6020811015610e1d57600080fd5b50516128d5565b905090565b610da773__$edd6a44efa4a8bdf57aa57ccba2bcfbb1d$__6372eb67d06040518163ffffffff1660e01b815260040160206040518083038186803b158015610d7557600080fd5b6000610e2473__$edd6a44efa4a8bdf57aa57ccba2bcfbb1d$__638fd6b7c46040518163ffffffff1660e01b815260040160206040518083038186803b158015610df357600080fd5b6000610ec3611e4b565b8219169050610ed18161203c565b5050565b6000610e2473__$edd6a44efa4a8bdf57aa57ccba2bcfbb1d$__63734b96006040518163ffffffff1660e01b815260040160206040518083038186803b158015610df357600080fd5b6000610e2473__$edd6a44efa4a8bdf57aa57ccba2bcfbb1d$__63443fd5986040518163ffffffff1660e01b815260040160206040518083038186803b158015610df357600080fd5b6000610e2473__$edd6a44efa4a8bdf57aa57ccba2bcfbb1d$__63ca04595a6040518163ffffffff1660e01b815260040160206040518083038186803b158015610df357600080fd5b6000610e2473__$edd6a44efa4a8bdf57aa57ccba2bcfbb1d$__6372eb67d06040518163ffffffff1660e01b815260040160206040518083038186803b158015610df357600080fd5b610da773__$edd6a44efa4a8bdf57aa57ccba2bcfbb1d$__63ca04595a6040518163ffffffff1660e01b815260040160206040518083038186803b158015610d7557600080fd5b610da773__$edd6a44efa4a8bdf57aa57ccba2bcfbb1d$__63d124bd136040518163ffffffff1660e01b815260040160206040518083038186803b158015610d7557600080fd5b6000610e2473__$edd6a44efa4a8bdf57aa57ccba2bcfbb1d$__6329301cac6040518163ffffffff1660e01b815260040160206040518083038186803b158015610df357600080fd5b6000610e2473__$96c0387300a4d16af366df01fc33f52e50$__63521819f56040518163ffffffff1660e01b815260040160206040518083038186803b158015610df357600080fd5b60006111236122cf565b905081156111a15773__$6af7953b03ecb3cadd1ca9bb3675b9b8d6$__63e697ace96040518163ffffffff1660e01b815260040160206040518083038186803b15801561116f57600080fd5b505af4158015611183573d6000803e3d6000fd5b505050506040513d602081101561119957600080fd5b505117611214565b73__$6af7953b03ecb3cadd1ca9bb3675b9b8d6$__63e697ace96040518163ffffffff1660e01b815260040160206040518083038186803b1580156111e557600080fd5b505af41580156111f9573d6000803e3d6000fd5b505050506040513d602081101561120f57600080fd5b505119165b610ed173__$edd6a44efa4a8bdf57aa57ccba2bcfbb1d$__632ffdabc56040518163ffffffff1660e01b815260040160206040518083038186803b158015610d7557600080fd5b6000611265611e4b565b82179050610ed18161203c565b6000610e2473__$edd6a44efa4a8bdf57aa57ccba2bcfbb1d$__63b255e9e46040518163ffffffff1660e01b815260040160206040518083038186803b158015610df357600080fd5b60006007198316808403826112cf83612bfc565b9050600073__$184ef4a65c614d890e6225597d290b0ed9$__63bf1924c5846008026001600160401b03166001896001600160401b031660026001600160401b03160a036001600160401b0316901b6040518263ffffffff1660e01b815260040180826001600160401b0316815260200191505060206040518083038186803b15801561135b57600080fd5b505af415801561136f573d6000803e3d6000fd5b505050506040513d602081101561138557600080fd5b50516040805163bf1924c560e01b81526001600160401b03858416811660048301529151929350600886029091169173__$184ef4a65c614d890e6225597d290b0ed9$__9163bf1924c5916024808301926020929190829003018186803b1580156113ef57600080fd5b505af4158015611403573d6000803e3d6000fd5b505050506040513d602081101561141957600080fd5b50516001600160401b0316901c979650505050505050565b6000610e2473__$edd6a44efa4a8bdf57aa57ccba2bcfbb1d$__637047f4df6040518163ffffffff1660e01b815260040160206040518083038186803b158015610df357600080fd5b611483816123a8565b610da76000196126a7565b6000610e2473__$edd6a44efa4a8bdf57aa57ccba2bcfbb1d$__6345827f696040518163ffffffff1660e01b815260040160206040518083038186803b158015610df357600080fd5b610da773__$edd6a44efa4a8bdf57aa57ccba2bcfbb1d$__63e59cb5746040518163ffffffff1660e01b815260040160206040518083038186803b158015610d7557600080fd5b610da773__$edd6a44efa4a8bdf57aa57ccba2bcfbb1d$__63734b96006040518163ffffffff1660e01b815260040160206040518083038186803b158015610d7557600080fd5b610da773__$edd6a44efa4a8bdf57aa57ccba2bcfbb1d$__639ff9932b6040518163ffffffff1660e01b815260040160206040518083038186803b158015610d7557600080fd5b6000610e2473__$edd6a44efa4a8bdf57aa57ccba2bcfbb1d$__63e2e2e7126040518163ffffffff1660e01b815260040160206040518083038186803b158015610df357600080fd5b610da773__$edd6a44efa4a8bdf57aa57ccba2bcfbb1d$__63a43e290f6040518163ffffffff1660e01b815260040160206040518083038186803b158015610d7557600080fd5b6000610e2473__$edd6a44efa4a8bdf57aa57ccba2bcfbb1d$__6392f5aa226040518163ffffffff1660e01b815260040160206040518083038186803b158015610df357600080fd5b6000611693826008026128d5565b92915050565b6000610e2473__$3c056aa8a31fb3ce78f242f7ef99e26695$__63870981356040518163ffffffff1660e01b815260040160206040518083038186803b158015610df357600080fd5b6000610e2473__$edd6a44efa4a8bdf57aa57ccba2bcfbb1d$__63d41a5b596040518163ffffffff1660e01b815260040160206040518083038186803b158015610df357600080fd5b6000610e2473__$edd6a44efa4a8bdf57aa57ccba2bcfbb1d$__63e59cb5746040518163ffffffff1660e01b815260040160206040518083038186803b158015610df357600080fd5b6000610e2473__$edd6a44efa4a8bdf57aa57ccba2bcfbb1d$__63da3e8d7b6040518163ffffffff1660e01b815260040160206040518083038186803b158015610df357600080fd5b610ed18260080282611b60565b6000610e2473__$96c0387300a4d16af366df01fc33f52e50$__636299ea3f6040518163ffffffff1660e01b815260040160206040518083038186803b158015610df357600080fd5b6000610e2473__$96c0387300a4d16af366df01fc33f52e50$__63f4655f126040518163ffffffff1660e01b815260040160206040518083038186803b158015610df357600080fd5b610da773__$edd6a44efa4a8bdf57aa57ccba2bcfbb1d$__6345827f696040518163ffffffff1660e01b815260040160206040518083038186803b158015610d7557600080fd5b610da773__$edd6a44efa4a8bdf57aa57ccba2bcfbb1d$__63b255e9e46040518163ffffffff1660e01b815260040160206040518083038186803b158015610d7557600080fd5b6000610e2473__$edd6a44efa4a8bdf57aa57ccba2bcfbb1d$__634a4c35106040518163ffffffff1660e01b815260040160206040518083038186803b158015610df357600080fd5b6000610e2473__$edd6a44efa4a8bdf57aa57ccba2bcfbb1d$__63c585eede6040518163ffffffff1660e01b815260040160206040518083038186803b158015610df357600080fd5b600073__$6af7953b03ecb3cadd1ca9bb3675b9b8d6$__6317a0cac36040518163ffffffff1660e01b815260040160206040518083038186803b1580156119c257600080fd5b505af41580156119d6573d6000803e3d6000fd5b505050506040513d60208110156119ec57600080fd5b5051604080516351a2ab4160e11b815290516001600160401b039092169173__$6af7953b03ecb3cadd1ca9bb3675b9b8d6$__9163a3455682916004808301926020929190829003018186803b158015611a4557600080fd5b505af4158015611a59573d6000803e3d6000fd5b505050506040513d6020811015611a6f57600080fd5b505160408051632ffdabc560e01b81529051611ac19173__$edd6a44efa4a8bdf57aa57ccba2bcfbb1d$__91632ffdabc591600480820192602092909190829003018186803b158015610df357600080fd5b166001600160401b0316901c905090565b610da773__$edd6a44efa4a8bdf57aa57ccba2bcfbb1d$__63e80d17516040518163ffffffff1660e01b815260040160206040518083038186803b158015610d7557600080fd5b610da773__$edd6a44efa4a8bdf57aa57ccba2bcfbb1d$__637047f4df6040518163ffffffff1660e01b815260040160206040518083038186803b158015610d7557600080fd5b600073__$184ef4a65c614d890e6225597d290b0ed9$__63bf1924c5836040518263ffffffff1660e01b815260040180826001600160401b0316815260200191505060206040518083038186803b158015611bba57600080fd5b505af4158015611bce573d6000803e3d6000fd5b505050506040513d6020811015611be457600080fd5b505160c01b90506001600160c01b03198116611c01846000612c12565b6001600160c01b03191614611c5d576040805162461bcd60e51b815260206004820152601c60248201527f5772697474656e2076616c756520646f6573206e6f74206d6174636800000000604482015290519081900360640190fd5b505050565b6000610e2473__$edd6a44efa4a8bdf57aa57ccba2bcfbb1d$__63d124bd136040518163ffffffff1660e01b815260040160206040518083038186803b158015610df357600080fd5b600073__$6af7953b03ecb3cadd1ca9bb3675b9b8d6$__63656b151f6040518163ffffffff1660e01b815260040160206040518083038186803b158015611cf157600080fd5b505af4158015611d05573d6000803e3d6000fd5b505050506040513d6020811015611d1b57600080fd5b50516040805163fd198e5560e01b815290516001600160401b039092169173__$6af7953b03ecb3cadd1ca9bb3675b9b8d6$__9163fd198e55916004808301926020929190829003018186803b158015611a4557600080fd5b6000610e2473__$edd6a44efa4a8bdf57aa57ccba2bcfbb1d$__639ff9932b6040518163ffffffff1660e01b815260040160206040518083038186803b158015610df357600080fd5b610da773__$edd6a44efa4a8bdf57aa57ccba2bcfbb1d$__6329301cac6040518163ffffffff1660e01b815260040160206040518083038186803b158015610d7557600080fd5b610da773__$edd6a44efa4a8bdf57aa57ccba2bcfbb1d$__638fd6b7c46040518163ffffffff1660e01b815260040160206040518083038186803b158015610d7557600080fd5b6000610e2473__$edd6a44efa4a8bdf57aa57ccba2bcfbb1d$__63520aff6c6040518163ffffffff1660e01b815260040160206040518083038186803b158015610df357600080fd5b8151835114611ed45760405162461bcd60e51b8152600401808060200182810382526027815260200180612fb16027913960400191505060405180910390fd5b8051835114611f145760405162461bcd60e51b8152600401808060200182810382526027815260200180612fb16027913960400191505060405180910390fd5b600080558251611f2b906001906020860190612dbd565b508151611f3f906002906020850190612e75565b508051611f53906003906020840190612ee2565b50505050565b6000610e2473__$edd6a44efa4a8bdf57aa57ccba2bcfbb1d$__632935b8ce6040518163ffffffff1660e01b815260040160206040518083038186803b158015610df357600080fd5b6000611fac6122cf565b90508115611ff85773__$6af7953b03ecb3cadd1ca9bb3675b9b8d6$__63fd198e556040518163ffffffff1660e01b815260040160206040518083038186803b15801561116f57600080fd5b73__$6af7953b03ecb3cadd1ca9bb3675b9b8d6$__63fd198e556040518163ffffffff1660e01b815260040160206040518083038186803b1580156111e557600080fd5b610da773__$edd6a44efa4a8bdf57aa57ccba2bcfbb1d$__63520aff6c6040518163ffffffff1660e01b815260040160206040518083038186803b158015610d7557600080fd5b610da773__$edd6a44efa4a8bdf57aa57ccba2bcfbb1d$__63443fd5986040518163ffffffff1660e01b815260040160206040518083038186803b158015610d7557600080fd5b6000610e2473__$edd6a44efa4a8bdf57aa57ccba2bcfbb1d$__639a59734c6040518163ffffffff1660e01b815260040160206040518083038186803b158015610df357600080fd5b610da773__$96c0387300a4d16af366df01fc33f52e50$__630a279d716040518163ffffffff1660e01b815260040160206040518083038186803b158015610d7557600080fd5b60006121646122cf565b905081156121b05773__$6af7953b03ecb3cadd1ca9bb3675b9b8d6$__63a34556826040518163ffffffff1660e01b815260040160206040518083038186803b15801561116f57600080fd5b73__$6af7953b03ecb3cadd1ca9bb3675b9b8d6$__63a34556826040518163ffffffff1660e01b815260040160206040518083038186803b1580156111e557600080fd5b6000610e2473__$edd6a44efa4a8bdf57aa57ccba2bcfbb1d$__6342db36676040518163ffffffff1660e01b815260040160206040518083038186803b158015610df357600080fd5b6000610e2473__$96c0387300a4d16af366df01fc33f52e50$__636903680c6040518163ffffffff1660e01b815260040160206040518083038186803b158015610df357600080fd5b6000610e2473__$edd6a44efa4a8bdf57aa57ccba2bcfbb1d$__63929127db6040518163ffffffff1660e01b815260040160206040518083038186803b158015610df357600080fd5b6000610e2473__$edd6a44efa4a8bdf57aa57ccba2bcfbb1d$__632ffdabc56040518163ffffffff1660e01b815260040160206040518083038186803b158015610df357600080fd5b610da773__$edd6a44efa4a8bdf57aa57ccba2bcfbb1d$__636630ad876040518163ffffffff1660e01b815260040160206040518083038186803b158015610d7557600080fd5b6000610e2473__$edd6a44efa4a8bdf57aa57ccba2bcfbb1d$__63e80d17516040518163ffffffff1660e01b815260040160206040518083038186803b158015610df357600080fd5b60006123b26122cf565b905073__$6af7953b03ecb3cadd1ca9bb3675b9b8d6$__63910a52476040518163ffffffff1660e01b815260040160206040518083038186803b1580156123f857600080fd5b505af415801561240c573d6000803e3d6000fd5b505050506040513d602081101561242257600080fd5b50516040805163317d2bb560e01b815290516001600160401b0385811693169290921b9173__$6af7953b03ecb3cadd1ca9bb3675b9b8d6$__9163317d2bb5916004808301926020929190829003018186803b15801561248157600080fd5b505af4158015612495573d6000803e3d6000fd5b505050506040513d60208110156124ab57600080fd5b505160408051632ffdabc560e01b815290519119939093169190911791610ed19173__$edd6a44efa4a8bdf57aa57ccba2bcfbb1d$__91632ffdabc5916004808301926020929190829003018186803b158015610d7557600080fd5b610da773__$edd6a44efa4a8bdf57aa57ccba2bcfbb1d$__632935b8ce6040518163ffffffff1660e01b815260040160206040518083038186803b158015610d7557600080fd5b600073__$6af7953b03ecb3cadd1ca9bb3675b9b8d6$__63e89d408d6040518163ffffffff1660e01b815260040160206040518083038186803b15801561259457600080fd5b505af41580156125a8573d6000803e3d6000fd5b505050506040513d60208110156125be57600080fd5b50516040805163e697ace960e01b815290516001600160401b039092169173__$6af7953b03ecb3cadd1ca9bb3675b9b8d6$__9163e697ace9916004808301926020929190829003018186803b158015611a4557600080fd5b6000610e2473__$edd6a44efa4a8bdf57aa57ccba2bcfbb1d$__63a43e290f6040518163ffffffff1660e01b815260040160206040518083038186803b158015610df357600080fd5b610da773__$96c0387300a4d16af366df01fc33f52e50$__63521819f56040518163ffffffff1660e01b815260040160206040518083038186803b158015610d7557600080fd5b610da773__$edd6a44efa4a8bdf57aa57ccba2bcfbb1d$__63e2e2e7126040518163ffffffff1660e01b815260040160206040518083038186803b158015610d7557600080fd5b6000610e2473__$96c0387300a4d16af366df01fc33f52e50$__630a279d716040518163ffffffff1660e01b815260040160206040518083038186803b158015610df357600080fd5b610da773__$edd6a44efa4a8bdf57aa57ccba2bcfbb1d$__6342db36676040518163ffffffff1660e01b815260040160206040518083038186803b158015610d7557600080fd5b610da773__$edd6a44efa4a8bdf57aa57ccba2bcfbb1d$__63da3e8d7b6040518163ffffffff1660e01b815260040160206040518083038186803b158015610d7557600080fd5b600073__$6af7953b03ecb3cadd1ca9bb3675b9b8d6$__63910a52476040518163ffffffff1660e01b815260040160206040518083038186803b15801561280b57600080fd5b505af415801561281f573d6000803e3d6000fd5b505050506040513d602081101561283557600080fd5b50516040805163317d2bb560e01b815290516001600160401b039092169173__$6af7953b03ecb3cadd1ca9bb3675b9b8d6$__9163317d2bb5916004808301926020929190829003018186803b158015611a4557600080fd5b610da773__$edd6a44efa4a8bdf57aa57ccba2bcfbb1d$__63d41a5b596040518163ffffffff1660e01b815260040160206040518083038186803b158015610d7557600080fd5b600073__$184ef4a65c614d890e6225597d290b0ed9$__63bf1924c56128fc846001612c12565b60c01c6040518263ffffffff1660e01b815260040180826001600160401b0316815260200191505060206040518083038186803b15801561293c57600080fd5b505af4158015612950573d6000803e3d6000fd5b505050506040513d602081101561296657600080fd5b505192915050565b610da773__$3c056aa8a31fb3ce78f242f7ef99e26695$__63870981356040518163ffffffff1660e01b815260040160206040518083038186803b158015610d7557600080fd5b600060086001600160401b038316049050806001600160401b0316600814156129e7576129e28484611b60565b611f53565b600719841680850360006129fa83612bfc565b9050600073__$184ef4a65c614d890e6225597d290b0ed9$__63bf1924c5846008026001600160401b03166001896001600160401b031660026001600160401b03160a036001600160401b0316901b6040518263ffffffff1660e01b815260040180826001600160401b0316815260200191505060206040518083038186803b158015612a8657600080fd5b505af4158015612a9a573d6000803e3d6000fd5b505050506040513d6020811015612ab057600080fd5b50516040805163bf1924c560e01b81526001600160401b0389811660020a600019018b16166004820152905191925060009173__$184ef4a65c614d890e6225597d290b0ed9$__9163bf1924c5916024808301926020929190829003018186803b158015612b1d57600080fd5b505af4158015612b31573d6000803e3d6000fd5b505050506040513d6020811015612b4757600080fd5b50516040805163bf1924c560e01b81526001600160401b038084166008890282161c861988161790811660048301529151929350909173__$184ef4a65c614d890e6225597d290b0ed9$__9163bf1924c5916024808301926020929190829003018186803b158015612bb857600080fd5b505af4158015612bcc573d6000803e3d6000fd5b505050506040513d6020811015612be257600080fd5b50519050612bf08682611b60565b50505050505050505050565b6000612c09826001612c12565b60c01c92915050565b6000811515600360005481548110612c2657fe5b90600052602060002090602091828204019190069054906101000a900460ff16151514612c9a576040805162461bcd60e51b815260206004820152601f60248201527f41636365737320776173206e6f742074686520636f7272656374207479706500604482015290519081900360640190fd5b6000600160005481548110612cab57fe5b90600052602060002090600491828204019190066008029054906101000a90046001600160401b031690506000600260005481548110612ce757fe5b60009182526020822060048204015482546001019092556003166008026101000a900460c01b90506007821615612d65576040805162461bcd60e51b815260206004820152601760248201527f506f736974696f6e206973206e6f7420616c69676e6564000000000000000000604482015290519081900360640190fd5b846001600160401b0316826001600160401b031614612db55760405162461bcd60e51b8152600401808060200182810382526026815260200180612f8b6026913960400191505060405180910390fd5b949350505050565b82805482825590600052602060002090600301600490048101928215612e655791602002820160005b83821115612e3057835183826101000a8154816001600160401b0302191690836001600160401b031602179055509260200192600801602081600701049283019260010302612de6565b8015612e635782816101000a8154906001600160401b030219169055600801602081600701049283019260010302612e30565b505b50612e71929150612f75565b5090565b82805482825590600052602060002090600301600490048101928215612e655791602002820160005b83821115612e3057835183826101000a8154816001600160401b03021916908360c01c02179055509260200192600801602081600701049283019260010302612e9e565b82805482825590600052602060002090601f01602090048101928215612e655791602002820160005b83821115612f4857835183826101000a81548160ff0219169083151502179055509260200192600101602081600001049283019260010302612f0b565b8015612e635782816101000a81549060ff0219169055600101602081600001049283019260010302612f48565b5b80821115612e715760008155600101612f7656fe506f736974696f6e20616e642072656164206164647265737320646f206e6f74206d61746368526561642f77726974652061727261797320617265206e6f74207468652073616d652073697a65a2646970667358221220ac1f61ec2fa57d76c6e3e3b8fd192b4c20dbf9a94735cb583b0b748793b8de5864736f6c63430007040033",
  "linkReferences": {
    "@cartesi/util/contracts/BitsManipulationLibrary.sol": {
      "BitsManipulationLibrary": [
        {
          "length": 20,
          "start": 4853
        },
        {
          "length": 20,
          "start": 5078
        },
        {
          "length": 20,
          "start": 7044
        },
        {
          "length": 20,
          "start": 10489
        },
        {
          "length": 20,
          "start": 10784
        },
        {
          "length": 20,
          "start": 11012
        },
        {
          "length": 20,
          "start": 11167
        }
      ]
    },
    "contracts/CLINT.sol": {
      "CLINT": [
        {
          "length": 20,
          "start": 5824
        },
        {
          "length": 20,
          "start": 10643
        }
      ]
    },
    "contracts/HTIF.sol": {
      "HTIF": [
        {
          "length": 20,
          "start": 4343
        },
        {
          "length": 20,
          "start": 6129
        },
        {
          "length": 20,
          "start": 6202
        },
        {
          "length": 20,
          "start": 8504
        },
        {
          "length": 20,
          "start": 8804
        },
        {
          "length": 20,
          "start": 9861
        },
        {
          "length": 20,
          "start": 10005
        }
      ]
    },
    "contracts/RiscVConstants.sol": {
      "RiscVConstants": [
        {
          "length": 20,
          "start": 4429
        },
        {
          "length": 20,
          "start": 4547
        },
        {
          "length": 20,
          "start": 6560
        },
        {
          "length": 20,
          "start": 6700
        },
        {
          "length": 20,
          "start": 7375
        },
        {
          "length": 20,
          "start": 7515
        },
        {
          "length": 20,
          "start": 8150
        },
        {
          "length": 20,
          "start": 8218
        },
        {
          "length": 20,
          "start": 8590
        },
        {
          "length": 20,
          "start": 8658
        },
        {
          "length": 20,
          "start": 9174
        },
        {
          "length": 20,
          "start": 9320
        },
        {
          "length": 20,
          "start": 9586
        },
        {
          "length": 20,
          "start": 9726
        },
        {
          "length": 20,
          "start": 10217
        },
        {
          "length": 20,
          "start": 10357
        }
      ]
    },
    "contracts/ShadowAddresses.sol": {
      "ShadowAddresses": [
        {
          "length": 20,
          "start": 3411
        },
        {
          "length": 20,
          "start": 3537
        },
        {
          "length": 20,
          "start": 3662
        },
        {
          "length": 20,
          "start": 3735
        },
        {
          "length": 20,
          "start": 3836
        },
        {
          "length": 20,
          "start": 3909
        },
        {
          "length": 20,
          "start": 3982
        },
        {
          "length": 20,
          "start": 4055
        },
        {
          "length": 20,
          "start": 4126
        },
        {
          "length": 20,
          "start": 4197
        },
        {
          "length": 20,
          "start": 4270
        },
        {
          "length": 20,
          "start": 4665
        },
        {
          "length": 20,
          "start": 4761
        },
        {
          "length": 20,
          "start": 5208
        },
        {
          "length": 20,
          "start": 5301
        },
        {
          "length": 20,
          "start": 5372
        },
        {
          "length": 20,
          "start": 5443
        },
        {
          "length": 20,
          "start": 5514
        },
        {
          "length": 20,
          "start": 5587
        },
        {
          "length": 20,
          "start": 5658
        },
        {
          "length": 20,
          "start": 5731
        },
        {
          "length": 20,
          "start": 5897
        },
        {
          "length": 20,
          "start": 5970
        },
        {
          "length": 20,
          "start": 6043
        },
        {
          "length": 20,
          "start": 6273
        },
        {
          "length": 20,
          "start": 6344
        },
        {
          "length": 20,
          "start": 6417
        },
        {
          "length": 20,
          "start": 6490
        },
        {
          "length": 20,
          "start": 6823
        },
        {
          "length": 20,
          "start": 6903
        },
        {
          "length": 20,
          "start": 6974
        },
        {
          "length": 20,
          "start": 7305
        },
        {
          "length": 20,
          "start": 7579
        },
        {
          "length": 20,
          "start": 7650
        },
        {
          "length": 20,
          "start": 7721
        },
        {
          "length": 20,
          "start": 7794
        },
        {
          "length": 20,
          "start": 8064
        },
        {
          "length": 20,
          "start": 8289
        },
        {
          "length": 20,
          "start": 8360
        },
        {
          "length": 20,
          "start": 8433
        },
        {
          "length": 20,
          "start": 8731
        },
        {
          "length": 20,
          "start": 8877
        },
        {
          "length": 20,
          "start": 8950
        },
        {
          "length": 20,
          "start": 9021
        },
        {
          "length": 20,
          "start": 9094
        },
        {
          "length": 20,
          "start": 9454
        },
        {
          "length": 20,
          "start": 9516
        },
        {
          "length": 20,
          "start": 9790
        },
        {
          "length": 20,
          "start": 9932
        },
        {
          "length": 20,
          "start": 10076
        },
        {
          "length": 20,
          "start": 10147
        },
        {
          "length": 20,
          "start": 10419
        }
      ]
    }
  },
  "deployedLinkReferences": {
    "@cartesi/util/contracts/BitsManipulationLibrary.sol": {
      "BitsManipulationLibrary": [
        {
          "length": 20,
          "start": 4821
        },
        {
          "length": 20,
          "start": 5046
        },
        {
          "length": 20,
          "start": 7012
        },
        {
          "length": 20,
          "start": 10457
        },
        {
          "length": 20,
          "start": 10752
        },
        {
          "length": 20,
          "start": 10980
        },
        {
          "length": 20,
          "start": 11135
        }
      ]
    },
    "contracts/CLINT.sol": {
      "CLINT": [
        {
          "length": 20,
          "start": 5792
        },
        {
          "length": 20,
          "start": 10611
        }
      ]
    },
    "contracts/HTIF.sol": {
      "HTIF": [
        {
          "length": 20,
          "start": 4311
        },
        {
          "length": 20,
          "start": 6097
        },
        {
          "length": 20,
          "start": 6170
        },
        {
          "length": 20,
          "start": 8472
        },
        {
          "length": 20,
          "start": 8772
        },
        {
          "length": 20,
          "start": 9829
        },
        {
          "length": 20,
          "start": 9973
        }
      ]
    },
    "contracts/RiscVConstants.sol": {
      "RiscVConstants": [
        {
          "length": 20,
          "start": 4397
        },
        {
          "length": 20,
          "start": 4515
        },
        {
          "length": 20,
          "start": 6528
        },
        {
          "length": 20,
          "start": 6668
        },
        {
          "length": 20,
          "start": 7343
        },
        {
          "length": 20,
          "start": 7483
        },
        {
          "length": 20,
          "start": 8118
        },
        {
          "length": 20,
          "start": 8186
        },
        {
          "length": 20,
          "start": 8558
        },
        {
          "length": 20,
          "start": 8626
        },
        {
          "length": 20,
          "start": 9142
        },
        {
          "length": 20,
          "start": 9288
        },
        {
          "length": 20,
          "start": 9554
        },
        {
          "length": 20,
          "start": 9694
        },
        {
          "length": 20,
          "start": 10185
        },
        {
          "length": 20,
          "start": 10325
        }
      ]
    },
    "contracts/ShadowAddresses.sol": {
      "ShadowAddresses": [
        {
          "length": 20,
          "start": 3379
        },
        {
          "length": 20,
          "start": 3505
        },
        {
          "length": 20,
          "start": 3630
        },
        {
          "length": 20,
          "start": 3703
        },
        {
          "length": 20,
          "start": 3804
        },
        {
          "length": 20,
          "start": 3877
        },
        {
          "length": 20,
          "start": 3950
        },
        {
          "length": 20,
          "start": 4023
        },
        {
          "length": 20,
          "start": 4094
        },
        {
          "length": 20,
          "start": 4165
        },
        {
          "length": 20,
          "start": 4238
        },
        {
          "length": 20,
          "start": 4633
        },
        {
          "length": 20,
          "start": 4729
        },
        {
          "length": 20,
          "start": 5176
        },
        {
          "length": 20,
          "start": 5269
        },
        {
          "length": 20,
          "start": 5340
        },
        {
          "length": 20,
          "start": 5411
        },
        {
          "length": 20,
          "start": 5482
        },
        {
          "length": 20,
          "start": 5555
        },
        {
          "length": 20,
          "start": 5626
        },
        {
          "length": 20,
          "start": 5699
        },
        {
          "length": 20,
          "start": 5865
        },
        {
          "length": 20,
          "start": 5938
        },
        {
          "length": 20,
          "start": 6011
        },
        {
          "length": 20,
          "start": 6241
        },
        {
          "length": 20,
          "start": 6312
        },
        {
          "length": 20,
          "start": 6385
        },
        {
          "length": 20,
          "start": 6458
        },
        {
          "length": 20,
          "start": 6791
        },
        {
          "length": 20,
          "start": 6871
        },
        {
          "length": 20,
          "start": 6942
        },
        {
          "length": 20,
          "start": 7273
        },
        {
          "length": 20,
          "start": 7547
        },
        {
          "length": 20,
          "start": 7618
        },
        {
          "length": 20,
          "start": 7689
        },
        {
          "length": 20,
          "start": 7762
        },
        {
          "length": 20,
          "start": 8032
        },
        {
          "length": 20,
          "start": 8257
        },
        {
          "length": 20,
          "start": 8328
        },
        {
          "length": 20,
          "start": 8401
        },
        {
          "length": 20,
          "start": 8699
        },
        {
          "length": 20,
          "start": 8845
        },
        {
          "length": 20,
          "start": 8918
        },
        {
          "length": 20,
          "start": 8989
        },
        {
          "length": 20,
          "start": 9062
        },
        {
          "length": 20,
          "start": 9422
        },
        {
          "length": 20,
          "start": 9484
        },
        {
          "length": 20,
          "start": 9758
        },
        {
          "length": 20,
          "start": 9900
        },
        {
          "length": 20,
          "start": 10044
        },
        {
          "length": 20,
          "start": 10115
        },
        {
          "length": 20,
          "start": 10387
        }
      ]
    }
  },
  "devdoc": {
    "author": "Felipe Argento",
    "details": "Every read performed by mi.memoryRead or mi.write should be followed by anendianess swap from little endian to big endian. This is the case becauseEVM is big endian but RiscV is little endian.Reference: riscv-spec-v2.2.pdf - Preface to Version 2.0Reference: Ethereum yellowpaper - Version 69351d5Appendix H. Virtual Machine Specification",
    "kind": "dev",
    "methods": {},
    "title": "MemoryInteractor",
    "version": 1
  },
  "evm": {
    "bytecode": {
      "linkReferences": {
        "@cartesi/util/contracts/BitsManipulationLibrary.sol": {
          "BitsManipulationLibrary": [
            {
              "length": 20,
              "start": 4853
            },
            {
              "length": 20,
              "start": 5078
            },
            {
              "length": 20,
              "start": 7044
            },
            {
              "length": 20,
              "start": 10489
            },
            {
              "length": 20,
              "start": 10784
            },
            {
              "length": 20,
              "start": 11012
            },
            {
              "length": 20,
              "start": 11167
            }
          ]
        },
        "contracts/CLINT.sol": {
          "CLINT": [
            {
              "length": 20,
              "start": 5824
            },
            {
              "length": 20,
              "start": 10643
            }
          ]
        },
        "contracts/HTIF.sol": {
          "HTIF": [
            {
              "length": 20,
              "start": 4343
            },
            {
              "length": 20,
              "start": 6129
            },
            {
              "length": 20,
              "start": 6202
            },
            {
              "length": 20,
              "start": 8504
            },
            {
              "length": 20,
              "start": 8804
            },
            {
              "length": 20,
              "start": 9861
            },
            {
              "length": 20,
              "start": 10005
            }
          ]
        },
        "contracts/RiscVConstants.sol": {
          "RiscVConstants": [
            {
              "length": 20,
              "start": 4429
            },
            {
              "length": 20,
              "start": 4547
            },
            {
              "length": 20,
              "start": 6560
            },
            {
              "length": 20,
              "start": 6700
            },
            {
              "length": 20,
              "start": 7375
            },
            {
              "length": 20,
              "start": 7515
            },
            {
              "length": 20,
              "start": 8150
            },
            {
              "length": 20,
              "start": 8218
            },
            {
              "length": 20,
              "start": 8590
            },
            {
              "length": 20,
              "start": 8658
            },
            {
              "length": 20,
              "start": 9174
            },
            {
              "length": 20,
              "start": 9320
            },
            {
              "length": 20,
              "start": 9586
            },
            {
              "length": 20,
              "start": 9726
            },
            {
              "length": 20,
              "start": 10217
            },
            {
              "length": 20,
              "start": 10357
            }
          ]
        },
        "contracts/ShadowAddresses.sol": {
          "ShadowAddresses": [
            {
              "length": 20,
              "start": 3411
            },
            {
              "length": 20,
              "start": 3537
            },
            {
              "length": 20,
              "start": 3662
            },
            {
              "length": 20,
              "start": 3735
            },
            {
              "length": 20,
              "start": 3836
            },
            {
              "length": 20,
              "start": 3909
            },
            {
              "length": 20,
              "start": 3982
            },
            {
              "length": 20,
              "start": 4055
            },
            {
              "length": 20,
              "start": 4126
            },
            {
              "length": 20,
              "start": 4197
            },
            {
              "length": 20,
              "start": 4270
            },
            {
              "length": 20,
              "start": 4665
            },
            {
              "length": 20,
              "start": 4761
            },
            {
              "length": 20,
              "start": 5208
            },
            {
              "length": 20,
              "start": 5301
            },
            {
              "length": 20,
              "start": 5372
            },
            {
              "length": 20,
              "start": 5443
            },
            {
              "length": 20,
              "start": 5514
            },
            {
              "length": 20,
              "start": 5587
            },
            {
              "length": 20,
              "start": 5658
            },
            {
              "length": 20,
              "start": 5731
            },
            {
              "length": 20,
              "start": 5897
            },
            {
              "length": 20,
              "start": 5970
            },
            {
              "length": 20,
              "start": 6043
            },
            {
              "length": 20,
              "start": 6273
            },
            {
              "length": 20,
              "start": 6344
            },
            {
              "length": 20,
              "start": 6417
            },
            {
              "length": 20,
              "start": 6490
            },
            {
              "length": 20,
              "start": 6823
            },
            {
              "length": 20,
              "start": 6903
            },
            {
              "length": 20,
              "start": 6974
            },
            {
              "length": 20,
              "start": 7305
            },
            {
              "length": 20,
              "start": 7579
            },
            {
              "length": 20,
              "start": 7650
            },
            {
              "length": 20,
              "start": 7721
            },
            {
              "length": 20,
              "start": 7794
            },
            {
              "length": 20,
              "start": 8064
            },
            {
              "length": 20,
              "start": 8289
            },
            {
              "length": 20,
              "start": 8360
            },
            {
              "length": 20,
              "start": 8433
            },
            {
              "length": 20,
              "start": 8731
            },
            {
              "length": 20,
              "start": 8877
            },
            {
              "length": 20,
              "start": 8950
            },
            {
              "length": 20,
              "start": 9021
            },
            {
              "length": 20,
              "start": 9094
            },
            {
              "length": 20,
              "start": 9454
            },
            {
              "length": 20,
              "start": 9516
            },
            {
              "length": 20,
              "start": 9790
            },
            {
              "length": 20,
              "start": 9932
            },
            {
              "length": 20,
              "start": 10076
            },
            {
              "length": 20,
              "start": 10147
            },
            {
              "length": 20,
              "start": 10419
            }
          ]
        }
      },
      "opcodes": "PUSH1 0x80 PUSH1 0x40 MSTORE CALLVALUE DUP1 ISZERO PUSH2 0x10 JUMPI PUSH1 0x0 DUP1 REVERT JUMPDEST POP PUSH2 0x300D DUP1 PUSH2 0x20 PUSH1 0x0 CODECOPY PUSH1 0x0 RETURN INVALID PUSH1 0x80 PUSH1 0x40 MSTORE CALLVALUE DUP1 ISZERO PUSH2 0x10 JUMPI PUSH1 0x0 DUP1 REVERT JUMPDEST POP PUSH1 0x4 CALLDATASIZE LT PUSH2 0x45F JUMPI PUSH1 0x0 CALLDATALOAD PUSH1 0xE0 SHR DUP1 PUSH4 0x854DBA40 GT PUSH2 0x24C JUMPI DUP1 PUSH4 0xB5B98ED4 GT PUSH2 0x146 JUMPI DUP1 PUSH4 0xDD5C4A14 GT PUSH2 0xC3 JUMPI DUP1 PUSH4 0xF7AC913D GT PUSH2 0x87 JUMPI DUP1 PUSH4 0xF7AC913D EQ PUSH2 0xC76 JUMPI DUP1 PUSH4 0xF9911587 EQ PUSH2 0xC7E JUMPI DUP1 PUSH4 0xFA644AF5 EQ PUSH2 0xCA4 JUMPI DUP1 PUSH4 0xFBDB975D EQ PUSH2 0xCCA JUMPI DUP1 PUSH4 0xFD295ABE EQ PUSH2 0xCF0 JUMPI PUSH2 0x45F JUMP JUMPDEST DUP1 PUSH4 0xDD5C4A14 EQ PUSH2 0xBD6 JUMPI DUP1 PUSH4 0xF21D94F8 EQ PUSH2 0xBFC JUMPI DUP1 PUSH4 0xF2CF6CEB EQ PUSH2 0xC22 JUMPI DUP1 PUSH4 0xF55C4D38 EQ PUSH2 0xC2A JUMPI DUP1 PUSH4 0xF604EDB8 EQ PUSH2 0xC50 JUMPI PUSH2 0x45F JUMP JUMPDEST DUP1 PUSH4 0xCC92CBF7 GT PUSH2 0x10A JUMPI DUP1 PUSH4 0xCC92CBF7 EQ PUSH2 0xB72 JUMPI DUP1 PUSH4 0xCECDAE53 EQ PUSH2 0xB7A JUMPI DUP1 PUSH4 0xD2BE7B6D EQ PUSH2 0xBA0 JUMPI DUP1 PUSH4 0xD40D17C5 EQ PUSH2 0xBC6 JUMPI DUP1 PUSH4 0xDADED5C2 EQ PUSH2 0xBCE JUMPI PUSH2 0x45F JUMP JUMPDEST DUP1 PUSH4 0xB5B98ED4 EQ PUSH2 0xB2C JUMPI DUP1 PUSH4 0xB8FD205C EQ PUSH2 0xB34 JUMPI DUP1 PUSH4 0xBECDC10D EQ PUSH2 0xB3C JUMPI DUP1 PUSH4 0xC133B7FF EQ PUSH2 0xB44 JUMPI DUP1 PUSH4 0xCBC446B1 EQ PUSH2 0xB4C JUMPI PUSH2 0x45F JUMP JUMPDEST DUP1 PUSH4 0x9C872D02 GT PUSH2 0x1D4 JUMPI DUP1 PUSH4 0xAAED4F07 GT PUSH2 0x198 JUMPI DUP1 PUSH4 0xAAED4F07 EQ PUSH2 0xA93 JUMPI DUP1 PUSH4 0xAB9779B7 EQ PUSH2 0xAB9 JUMPI DUP1 PUSH4 0xAF63B2A8 EQ PUSH2 0xADF JUMPI DUP1 PUSH4 0xB2325AEF EQ PUSH2 0xAE7 JUMPI DUP1 PUSH4 0xB27EC920 EQ PUSH2 0xB0D JUMPI PUSH2 0x45F JUMP JUMPDEST DUP1 PUSH4 0x9C872D02 EQ PUSH2 0x893 JUMPI DUP1 PUSH4 0xA317CE9D EQ PUSH2 0x8B9 JUMPI DUP1 PUSH4 0xA47594DF EQ PUSH2 0x8C1 JUMPI DUP1 PUSH4 0xA740DBC1 EQ PUSH2 0xA6C JUMPI DUP1 PUSH4 0xA7458B95 EQ PUSH2 0xA74 JUMPI PUSH2 0x45F JUMP JUMPDEST DUP1 PUSH4 0x8E32F35E GT PUSH2 0x21B JUMPI DUP1 PUSH4 0x8E32F35E EQ PUSH2 0x827 JUMPI DUP1 PUSH4 0x9485871B EQ PUSH2 0x855 JUMPI DUP1 PUSH4 0x968644F0 EQ PUSH2 0x85D JUMPI DUP1 PUSH4 0x9B7021CE EQ PUSH2 0x865 JUMPI DUP1 PUSH4 0x9C7B005D EQ PUSH2 0x86D JUMPI PUSH2 0x45F JUMP JUMPDEST DUP1 PUSH4 0x854DBA40 EQ PUSH2 0x7CB JUMPI DUP1 PUSH4 0x86099C54 EQ PUSH2 0x7D3 JUMPI DUP1 PUSH4 0x86676D43 EQ PUSH2 0x7DB JUMPI DUP1 PUSH4 0x89365909 EQ PUSH2 0x801 JUMPI PUSH2 0x45F JUMP JUMPDEST DUP1 PUSH4 0x54749AF3 GT PUSH2 0x35D JUMPI DUP1 PUSH4 0x6475E342 GT PUSH2 0x2E5 JUMPI DUP1 PUSH4 0x6F6C0E7D GT PUSH2 0x2A9 JUMPI DUP1 PUSH4 0x6F6C0E7D EQ PUSH2 0x767 JUMPI DUP1 PUSH4 0x768365EA EQ PUSH2 0x76F JUMPI DUP1 PUSH4 0x78C49574 EQ PUSH2 0x777 JUMPI DUP1 PUSH4 0x78DDEE75 EQ PUSH2 0x79D JUMPI DUP1 PUSH4 0x834AA4F6 EQ PUSH2 0x7C3 JUMPI PUSH2 0x45F JUMP JUMPDEST DUP1 PUSH4 0x6475E342 EQ PUSH2 0x719 JUMPI DUP1 PUSH4 0x650CA32B EQ PUSH2 0x721 JUMPI DUP1 PUSH4 0x6A72B27D EQ PUSH2 0x729 JUMPI DUP1 PUSH4 0x6CD24DAF EQ PUSH2 0x731 JUMPI DUP1 PUSH4 0x6DC95C2E EQ PUSH2 0x739 JUMPI PUSH2 0x45F JUMP JUMPDEST DUP1 PUSH4 0x5AF47CA7 GT PUSH2 0x32C JUMPI DUP1 PUSH4 0x5AF47CA7 EQ PUSH2 0x697 JUMPI DUP1 PUSH4 0x5DADD78A EQ PUSH2 0x6BD JUMPI DUP1 PUSH4 0x5E5CA652 EQ PUSH2 0x6C5 JUMPI DUP1 PUSH4 0x5F824BF9 EQ PUSH2 0x6EB JUMPI DUP1 PUSH4 0x6232E59C EQ PUSH2 0x6F3 JUMPI PUSH2 0x45F JUMP JUMPDEST DUP1 PUSH4 0x54749AF3 EQ PUSH2 0x61D JUMPI DUP1 PUSH4 0x568B2702 EQ PUSH2 0x643 JUMPI DUP1 PUSH4 0x575832DF EQ PUSH2 0x64B JUMPI DUP1 PUSH4 0x57907837 EQ PUSH2 0x671 JUMPI PUSH2 0x45F JUMP JUMPDEST DUP1 PUSH4 0x28520B30 GT PUSH2 0x3EB JUMPI DUP1 PUSH4 0x3A48BB56 GT PUSH2 0x3AF JUMPI DUP1 PUSH4 0x3A48BB56 EQ PUSH2 0x59A JUMPI DUP1 PUSH4 0x45057ED7 EQ PUSH2 0x5B9 JUMPI DUP1 PUSH4 0x4AE9388B EQ PUSH2 0x5DF JUMPI DUP1 PUSH4 0x50CEC2D5 EQ PUSH2 0x5E7 JUMPI DUP1 PUSH4 0x51BB3615 EQ PUSH2 0x615 JUMPI PUSH2 0x45F JUMP JUMPDEST DUP1 PUSH4 0x28520B30 EQ PUSH2 0x536 JUMPI DUP1 PUSH4 0x28751B36 EQ PUSH2 0x53E JUMPI DUP1 PUSH4 0x2CA2BD16 EQ PUSH2 0x564 JUMPI DUP1 PUSH4 0x2E963A80 EQ PUSH2 0x58A JUMPI DUP1 PUSH4 0x34970F18 EQ PUSH2 0x592 JUMPI PUSH2 0x45F JUMP JUMPDEST DUP1 PUSH4 0x11CF3A22 GT PUSH2 0x432 JUMPI DUP1 PUSH4 0x11CF3A22 EQ PUSH2 0x4F0 JUMPI DUP1 PUSH4 0x15DD9C06 EQ PUSH2 0x4F8 JUMPI DUP1 PUSH4 0x18E504DB EQ PUSH2 0x51E JUMPI DUP1 PUSH4 0x1BF2F73D EQ PUSH2 0x526 JUMPI DUP1 PUSH4 0x1E5E6190 EQ PUSH2 0x52E JUMPI PUSH2 0x45F JUMP JUMPDEST DUP1 PUSH4 0x80AA5D1 EQ PUSH2 0x464 JUMPI DUP1 PUSH4 0xDF3E295 EQ PUSH2 0x47E JUMPI DUP1 PUSH4 0xF84C046 EQ PUSH2 0x4A6 JUMPI DUP1 PUSH4 0x10D74C7D EQ PUSH2 0x4CA JUMPI JUMPDEST PUSH1 0x0 DUP1 REVERT JUMPDEST PUSH2 0x46C PUSH2 0xD28 JUMP JUMPDEST PUSH1 0x40 DUP1 MLOAD SWAP2 DUP3 MSTORE MLOAD SWAP1 DUP2 SWAP1 SUB PUSH1 0x20 ADD SWAP1 RETURN JUMPDEST PUSH2 0x4A4 PUSH1 0x4 DUP1 CALLDATASIZE SUB PUSH1 0x20 DUP2 LT ISZERO PUSH2 0x494 JUMPI PUSH1 0x0 DUP1 REVERT JUMPDEST POP CALLDATALOAD PUSH1 0x1 PUSH1 0x1 PUSH1 0x40 SHL SUB AND PUSH2 0xD2E JUMP JUMPDEST STOP JUMPDEST PUSH2 0x4AE PUSH2 0xDAA JUMP JUMPDEST PUSH1 0x40 DUP1 MLOAD PUSH1 0x1 PUSH1 0x1 PUSH1 0x40 SHL SUB SWAP1 SWAP3 AND DUP3 MSTORE MLOAD SWAP1 DUP2 SWAP1 SUB PUSH1 0x20 ADD SWAP1 RETURN JUMPDEST PUSH2 0x4A4 PUSH1 0x4 DUP1 CALLDATASIZE SUB PUSH1 0x20 DUP2 LT ISZERO PUSH2 0x4E0 JUMPI PUSH1 0x0 DUP1 REVERT JUMPDEST POP CALLDATALOAD PUSH1 0x1 PUSH1 0x1 PUSH1 0x40 SHL SUB AND PUSH2 0xE29 JUMP JUMPDEST PUSH2 0x4AE PUSH2 0xE70 JUMP JUMPDEST PUSH2 0x4A4 PUSH1 0x4 DUP1 CALLDATASIZE SUB PUSH1 0x20 DUP2 LT ISZERO PUSH2 0x50E JUMPI PUSH1 0x0 DUP1 REVERT JUMPDEST POP CALLDATALOAD PUSH1 0x1 PUSH1 0x1 PUSH1 0x40 SHL SUB AND PUSH2 0xEB9 JUMP JUMPDEST PUSH2 0x4AE PUSH2 0xED5 JUMP JUMPDEST PUSH2 0x4AE PUSH2 0xF1E JUMP JUMPDEST PUSH2 0x4AE PUSH2 0xF67 JUMP JUMPDEST PUSH2 0x4AE PUSH2 0xFB0 JUMP JUMPDEST PUSH2 0x4A4 PUSH1 0x4 DUP1 CALLDATASIZE SUB PUSH1 0x20 DUP2 LT ISZERO PUSH2 0x554 JUMPI PUSH1 0x0 DUP1 REVERT JUMPDEST POP CALLDATALOAD PUSH1 0x1 PUSH1 0x1 PUSH1 0x40 SHL SUB AND PUSH2 0xFF9 JUMP JUMPDEST PUSH2 0x4A4 PUSH1 0x4 DUP1 CALLDATASIZE SUB PUSH1 0x20 DUP2 LT ISZERO PUSH2 0x57A JUMPI PUSH1 0x0 DUP1 REVERT JUMPDEST POP CALLDATALOAD PUSH1 0x1 PUSH1 0x1 PUSH1 0x40 SHL SUB AND PUSH2 0x1040 JUMP JUMPDEST PUSH2 0x4AE PUSH2 0x1087 JUMP JUMPDEST PUSH2 0x4AE PUSH2 0x10D0 JUMP JUMPDEST PUSH2 0x4A4 PUSH1 0x4 DUP1 CALLDATASIZE SUB PUSH1 0x20 DUP2 LT ISZERO PUSH2 0x5B0 JUMPI PUSH1 0x0 DUP1 REVERT JUMPDEST POP CALLDATALOAD ISZERO ISZERO PUSH2 0x1119 JUMP JUMPDEST PUSH2 0x4A4 PUSH1 0x4 DUP1 CALLDATASIZE SUB PUSH1 0x20 DUP2 LT ISZERO PUSH2 0x5CF JUMPI PUSH1 0x0 DUP1 REVERT JUMPDEST POP CALLDATALOAD PUSH1 0x1 PUSH1 0x1 PUSH1 0x40 SHL SUB AND PUSH2 0x125B JUMP JUMPDEST PUSH2 0x4AE PUSH2 0x1272 JUMP JUMPDEST PUSH2 0x4AE PUSH1 0x4 DUP1 CALLDATASIZE SUB PUSH1 0x40 DUP2 LT ISZERO PUSH2 0x5FD JUMPI PUSH1 0x0 DUP1 REVERT JUMPDEST POP PUSH1 0x1 PUSH1 0x1 PUSH1 0x40 SHL SUB DUP2 CALLDATALOAD DUP2 AND SWAP2 PUSH1 0x20 ADD CALLDATALOAD AND PUSH2 0x12BB JUMP JUMPDEST PUSH2 0x4AE PUSH2 0x1431 JUMP JUMPDEST PUSH2 0x4A4 PUSH1 0x4 DUP1 CALLDATASIZE SUB PUSH1 0x20 DUP2 LT ISZERO PUSH2 0x633 JUMPI PUSH1 0x0 DUP1 REVERT JUMPDEST POP CALLDATALOAD PUSH1 0x1 PUSH1 0x1 PUSH1 0x40 SHL SUB AND PUSH2 0x147A JUMP JUMPDEST PUSH2 0x4AE PUSH2 0x148E JUMP JUMPDEST PUSH2 0x4A4 PUSH1 0x4 DUP1 CALLDATASIZE SUB PUSH1 0x20 DUP2 LT ISZERO PUSH2 0x661 JUMPI PUSH1 0x0 DUP1 REVERT JUMPDEST POP CALLDATALOAD PUSH1 0x1 PUSH1 0x1 PUSH1 0x40 SHL SUB AND PUSH2 0x14D7 JUMP JUMPDEST PUSH2 0x4A4 PUSH1 0x4 DUP1 CALLDATASIZE SUB PUSH1 0x20 DUP2 LT ISZERO PUSH2 0x687 JUMPI PUSH1 0x0 DUP1 REVERT JUMPDEST POP CALLDATALOAD PUSH1 0x1 PUSH1 0x1 PUSH1 0x40 SHL SUB AND PUSH2 0x151E JUMP JUMPDEST PUSH2 0x4A4 PUSH1 0x4 DUP1 CALLDATASIZE SUB PUSH1 0x20 DUP2 LT ISZERO PUSH2 0x6AD JUMPI PUSH1 0x0 DUP1 REVERT JUMPDEST POP CALLDATALOAD PUSH1 0x1 PUSH1 0x1 PUSH1 0x40 SHL SUB AND PUSH2 0x1565 JUMP JUMPDEST PUSH2 0x4AE PUSH2 0x15AC JUMP JUMPDEST PUSH2 0x4A4 PUSH1 0x4 DUP1 CALLDATASIZE SUB PUSH1 0x20 DUP2 LT ISZERO PUSH2 0x6DB JUMPI PUSH1 0x0 DUP1 REVERT JUMPDEST POP CALLDATALOAD PUSH1 0x1 PUSH1 0x1 PUSH1 0x40 SHL SUB AND PUSH2 0x15F5 JUMP JUMPDEST PUSH2 0x4AE PUSH2 0x163C JUMP JUMPDEST PUSH2 0x4AE PUSH1 0x4 DUP1 CALLDATASIZE SUB PUSH1 0x20 DUP2 LT ISZERO PUSH2 0x709 JUMPI PUSH1 0x0 DUP1 REVERT JUMPDEST POP CALLDATALOAD PUSH1 0x1 PUSH1 0x1 PUSH1 0x40 SHL SUB AND PUSH2 0x1685 JUMP JUMPDEST PUSH2 0x4AE PUSH2 0x1699 JUMP JUMPDEST PUSH2 0x4AE PUSH2 0x16E2 JUMP JUMPDEST PUSH2 0x4AE PUSH2 0x172B JUMP JUMPDEST PUSH2 0x4AE PUSH2 0x1774 JUMP JUMPDEST PUSH2 0x4A4 PUSH1 0x4 DUP1 CALLDATASIZE SUB PUSH1 0x40 DUP2 LT ISZERO PUSH2 0x74F JUMPI PUSH1 0x0 DUP1 REVERT JUMPDEST POP PUSH1 0x1 PUSH1 0x1 PUSH1 0x40 SHL SUB DUP2 CALLDATALOAD DUP2 AND SWAP2 PUSH1 0x20 ADD CALLDATALOAD AND PUSH2 0x17BD JUMP JUMPDEST PUSH2 0x4AE PUSH2 0x17CA JUMP JUMPDEST PUSH2 0x4AE PUSH2 0x1813 JUMP JUMPDEST PUSH2 0x4A4 PUSH1 0x4 DUP1 CALLDATASIZE SUB PUSH1 0x20 DUP2 LT ISZERO PUSH2 0x78D JUMPI PUSH1 0x0 DUP1 REVERT JUMPDEST POP CALLDATALOAD PUSH1 0x1 PUSH1 0x1 PUSH1 0x40 SHL SUB AND PUSH2 0x185C JUMP JUMPDEST PUSH2 0x4A4 PUSH1 0x4 DUP1 CALLDATASIZE SUB PUSH1 0x20 DUP2 LT ISZERO PUSH2 0x7B3 JUMPI PUSH1 0x0 DUP1 REVERT JUMPDEST POP CALLDATALOAD PUSH1 0x1 PUSH1 0x1 PUSH1 0x40 SHL SUB AND PUSH2 0x18A3 JUMP JUMPDEST PUSH2 0x4AE PUSH2 0x18EA JUMP JUMPDEST PUSH2 0x4AE PUSH2 0x1933 JUMP JUMPDEST PUSH2 0x4AE PUSH2 0x197C JUMP JUMPDEST PUSH2 0x4A4 PUSH1 0x4 DUP1 CALLDATASIZE SUB PUSH1 0x20 DUP2 LT ISZERO PUSH2 0x7F1 JUMPI PUSH1 0x0 DUP1 REVERT JUMPDEST POP CALLDATALOAD PUSH1 0x1 PUSH1 0x1 PUSH1 0x40 SHL SUB AND PUSH2 0x1AD2 JUMP JUMPDEST PUSH2 0x4A4 PUSH1 0x4 DUP1 CALLDATASIZE SUB PUSH1 0x20 DUP2 LT ISZERO PUSH2 0x817 JUMPI PUSH1 0x0 DUP1 REVERT JUMPDEST POP CALLDATALOAD PUSH1 0x1 PUSH1 0x1 PUSH1 0x40 SHL SUB AND PUSH2 0x1B19 JUMP JUMPDEST PUSH2 0x4A4 PUSH1 0x4 DUP1 CALLDATASIZE SUB PUSH1 0x40 DUP2 LT ISZERO PUSH2 0x83D JUMPI PUSH1 0x0 DUP1 REVERT JUMPDEST POP PUSH1 0x1 PUSH1 0x1 PUSH1 0x40 SHL SUB DUP2 CALLDATALOAD DUP2 AND SWAP2 PUSH1 0x20 ADD CALLDATALOAD AND PUSH2 0x1B60 JUMP JUMPDEST PUSH2 0x4AE PUSH2 0x1C62 JUMP JUMPDEST PUSH2 0x4AE PUSH2 0x1CAB JUMP JUMPDEST PUSH2 0x4AE PUSH2 0x1D74 JUMP JUMPDEST PUSH2 0x4A4 PUSH1 0x4 DUP1 CALLDATASIZE SUB PUSH1 0x20 DUP2 LT ISZERO PUSH2 0x883 JUMPI PUSH1 0x0 DUP1 REVERT JUMPDEST POP CALLDATALOAD PUSH1 0x1 PUSH1 0x1 PUSH1 0x40 SHL SUB AND PUSH2 0x1DBD JUMP JUMPDEST PUSH2 0x4A4 PUSH1 0x4 DUP1 CALLDATASIZE SUB PUSH1 0x20 DUP2 LT ISZERO PUSH2 0x8A9 JUMPI PUSH1 0x0 DUP1 REVERT JUMPDEST POP CALLDATALOAD PUSH1 0x1 PUSH1 0x1 PUSH1 0x40 SHL SUB AND PUSH2 0x1E04 JUMP JUMPDEST PUSH2 0x4AE PUSH2 0x1E4B JUMP JUMPDEST PUSH2 0x4A4 PUSH1 0x4 DUP1 CALLDATASIZE SUB PUSH1 0x60 DUP2 LT ISZERO PUSH2 0x8D7 JUMPI PUSH1 0x0 DUP1 REVERT JUMPDEST DUP2 ADD SWAP1 PUSH1 0x20 DUP2 ADD DUP2 CALLDATALOAD PUSH5 0x100000000 DUP2 GT ISZERO PUSH2 0x8F2 JUMPI PUSH1 0x0 DUP1 REVERT JUMPDEST DUP3 ADD DUP4 PUSH1 0x20 DUP3 ADD GT ISZERO PUSH2 0x904 JUMPI PUSH1 0x0 DUP1 REVERT JUMPDEST DUP1 CALLDATALOAD SWAP1 PUSH1 0x20 ADD SWAP2 DUP5 PUSH1 0x20 DUP4 MUL DUP5 ADD GT PUSH5 0x100000000 DUP4 GT OR ISZERO PUSH2 0x926 JUMPI PUSH1 0x0 DUP1 REVERT JUMPDEST SWAP2 SWAP1 DUP1 DUP1 PUSH1 0x20 MUL PUSH1 0x20 ADD PUSH1 0x40 MLOAD SWAP1 DUP2 ADD PUSH1 0x40 MSTORE DUP1 SWAP4 SWAP3 SWAP2 SWAP1 DUP2 DUP2 MSTORE PUSH1 0x20 ADD DUP4 DUP4 PUSH1 0x20 MUL DUP1 DUP3 DUP5 CALLDATACOPY PUSH1 0x0 SWAP3 ADD SWAP2 SWAP1 SWAP2 MSTORE POP SWAP3 SWAP6 SWAP5 SWAP4 PUSH1 0x20 DUP2 ADD SWAP4 POP CALLDATALOAD SWAP2 POP POP PUSH5 0x100000000 DUP2 GT ISZERO PUSH2 0x976 JUMPI PUSH1 0x0 DUP1 REVERT JUMPDEST DUP3 ADD DUP4 PUSH1 0x20 DUP3 ADD GT ISZERO PUSH2 0x988 JUMPI PUSH1 0x0 DUP1 REVERT JUMPDEST DUP1 CALLDATALOAD SWAP1 PUSH1 0x20 ADD SWAP2 DUP5 PUSH1 0x20 DUP4 MUL DUP5 ADD GT PUSH5 0x100000000 DUP4 GT OR ISZERO PUSH2 0x9AA JUMPI PUSH1 0x0 DUP1 REVERT JUMPDEST SWAP2 SWAP1 DUP1 DUP1 PUSH1 0x20 MUL PUSH1 0x20 ADD PUSH1 0x40 MLOAD SWAP1 DUP2 ADD PUSH1 0x40 MSTORE DUP1 SWAP4 SWAP3 SWAP2 SWAP1 DUP2 DUP2 MSTORE PUSH1 0x20 ADD DUP4 DUP4 PUSH1 0x20 MUL DUP1 DUP3 DUP5 CALLDATACOPY PUSH1 0x0 SWAP3 ADD SWAP2 SWAP1 SWAP2 MSTORE POP SWAP3 SWAP6 SWAP5 SWAP4 PUSH1 0x20 DUP2 ADD SWAP4 POP CALLDATALOAD SWAP2 POP POP PUSH5 0x100000000 DUP2 GT ISZERO PUSH2 0x9FA JUMPI PUSH1 0x0 DUP1 REVERT JUMPDEST DUP3 ADD DUP4 PUSH1 0x20 DUP3 ADD GT ISZERO PUSH2 0xA0C JUMPI PUSH1 0x0 DUP1 REVERT JUMPDEST DUP1 CALLDATALOAD SWAP1 PUSH1 0x20 ADD SWAP2 DUP5 PUSH1 0x20 DUP4 MUL DUP5 ADD GT PUSH5 0x100000000 DUP4 GT OR ISZERO PUSH2 0xA2E JUMPI PUSH1 0x0 DUP1 REVERT JUMPDEST SWAP2 SWAP1 DUP1 DUP1 PUSH1 0x20 MUL PUSH1 0x20 ADD PUSH1 0x40 MLOAD SWAP1 DUP2 ADD PUSH1 0x40 MSTORE DUP1 SWAP4 SWAP3 SWAP2 SWAP1 DUP2 DUP2 MSTORE PUSH1 0x20 ADD DUP4 DUP4 PUSH1 0x20 MUL DUP1 DUP3 DUP5 CALLDATACOPY PUSH1 0x0 SWAP3 ADD SWAP2 SWAP1 SWAP2 MSTORE POP SWAP3 SWAP6 POP PUSH2 0x1E94 SWAP5 POP POP POP POP POP JUMP JUMPDEST PUSH2 0x4AE PUSH2 0x1F59 JUMP JUMPDEST PUSH2 0x4A4 PUSH1 0x4 DUP1 CALLDATASIZE SUB PUSH1 0x20 DUP2 LT ISZERO PUSH2 0xA8A JUMPI PUSH1 0x0 DUP1 REVERT JUMPDEST POP CALLDATALOAD ISZERO ISZERO PUSH2 0x1FA2 JUMP JUMPDEST PUSH2 0x4A4 PUSH1 0x4 DUP1 CALLDATASIZE SUB PUSH1 0x20 DUP2 LT ISZERO PUSH2 0xAA9 JUMPI PUSH1 0x0 DUP1 REVERT JUMPDEST POP CALLDATALOAD PUSH1 0x1 PUSH1 0x1 PUSH1 0x40 SHL SUB AND PUSH2 0x203C JUMP JUMPDEST PUSH2 0x4A4 PUSH1 0x4 DUP1 CALLDATASIZE SUB PUSH1 0x20 DUP2 LT ISZERO PUSH2 0xACF JUMPI PUSH1 0x0 DUP1 REVERT JUMPDEST POP CALLDATALOAD PUSH1 0x1 PUSH1 0x1 PUSH1 0x40 SHL SUB AND PUSH2 0x2083 JUMP JUMPDEST PUSH2 0x4AE PUSH2 0x20CA JUMP JUMPDEST PUSH2 0x4A4 PUSH1 0x4 DUP1 CALLDATASIZE SUB PUSH1 0x20 DUP2 LT ISZERO PUSH2 0xAFD JUMPI PUSH1 0x0 DUP1 REVERT JUMPDEST POP CALLDATALOAD PUSH1 0x1 PUSH1 0x1 PUSH1 0x40 SHL SUB AND PUSH2 0x2113 JUMP JUMPDEST PUSH2 0x4A4 PUSH1 0x4 DUP1 CALLDATASIZE SUB PUSH1 0x20 DUP2 LT ISZERO PUSH2 0xB23 JUMPI PUSH1 0x0 DUP1 REVERT JUMPDEST POP CALLDATALOAD ISZERO ISZERO PUSH2 0x215A JUMP JUMPDEST PUSH2 0x4AE PUSH2 0x21F4 JUMP JUMPDEST PUSH2 0x4AE PUSH2 0x223D JUMP JUMPDEST PUSH2 0x4AE PUSH2 0x2286 JUMP JUMPDEST PUSH2 0x4AE PUSH2 0x22CF JUMP JUMPDEST PUSH2 0x4A4 PUSH1 0x4 DUP1 CALLDATASIZE SUB PUSH1 0x20 DUP2 LT ISZERO PUSH2 0xB62 JUMPI PUSH1 0x0 DUP1 REVERT JUMPDEST POP CALLDATALOAD PUSH1 0x1 PUSH1 0x1 PUSH1 0x40 SHL SUB AND PUSH2 0x2318 JUMP JUMPDEST PUSH2 0x4AE PUSH2 0x235F JUMP JUMPDEST PUSH2 0x4A4 PUSH1 0x4 DUP1 CALLDATASIZE SUB PUSH1 0x20 DUP2 LT ISZERO PUSH2 0xB90 JUMPI PUSH1 0x0 DUP1 REVERT JUMPDEST POP CALLDATALOAD PUSH1 0x1 PUSH1 0x1 PUSH1 0x40 SHL SUB AND PUSH2 0x23A8 JUMP JUMPDEST PUSH2 0x4A4 PUSH1 0x4 DUP1 CALLDATASIZE SUB PUSH1 0x20 DUP2 LT ISZERO PUSH2 0xBB6 JUMPI PUSH1 0x0 DUP1 REVERT JUMPDEST POP CALLDATALOAD PUSH1 0x1 PUSH1 0x1 PUSH1 0x40 SHL SUB AND PUSH2 0x2507 JUMP JUMPDEST PUSH2 0x4AE PUSH2 0x254E JUMP JUMPDEST PUSH2 0x4AE PUSH2 0x2617 JUMP JUMPDEST PUSH2 0x4A4 PUSH1 0x4 DUP1 CALLDATASIZE SUB PUSH1 0x20 DUP2 LT ISZERO PUSH2 0xBEC JUMPI PUSH1 0x0 DUP1 REVERT JUMPDEST POP CALLDATALOAD PUSH1 0x1 PUSH1 0x1 PUSH1 0x40 SHL SUB AND PUSH2 0x2660 JUMP JUMPDEST PUSH2 0x4A4 PUSH1 0x4 DUP1 CALLDATASIZE SUB PUSH1 0x20 DUP2 LT ISZERO PUSH2 0xC12 JUMPI PUSH1 0x0 DUP1 REVERT JUMPDEST POP CALLDATALOAD PUSH1 0x1 PUSH1 0x1 PUSH1 0x40 SHL SUB AND PUSH2 0x26A7 JUMP JUMPDEST PUSH2 0x4AE PUSH2 0x26EE JUMP JUMPDEST PUSH2 0x4A4 PUSH1 0x4 DUP1 CALLDATASIZE SUB PUSH1 0x20 DUP2 LT ISZERO PUSH2 0xC40 JUMPI PUSH1 0x0 DUP1 REVERT JUMPDEST POP CALLDATALOAD PUSH1 0x1 PUSH1 0x1 PUSH1 0x40 SHL SUB AND PUSH2 0x2737 JUMP JUMPDEST PUSH2 0x4A4 PUSH1 0x4 DUP1 CALLDATASIZE SUB PUSH1 0x20 DUP2 LT ISZERO PUSH2 0xC66 JUMPI PUSH1 0x0 DUP1 REVERT JUMPDEST POP CALLDATALOAD PUSH1 0x1 PUSH1 0x1 PUSH1 0x40 SHL SUB AND PUSH2 0x277E JUMP JUMPDEST PUSH2 0x4AE PUSH2 0x27C5 JUMP JUMPDEST PUSH2 0x4A4 PUSH1 0x4 DUP1 CALLDATASIZE SUB PUSH1 0x20 DUP2 LT ISZERO PUSH2 0xC94 JUMPI PUSH1 0x0 DUP1 REVERT JUMPDEST POP CALLDATALOAD PUSH1 0x1 PUSH1 0x1 PUSH1 0x40 SHL SUB AND PUSH2 0x288E JUMP JUMPDEST PUSH2 0x4AE PUSH1 0x4 DUP1 CALLDATASIZE SUB PUSH1 0x20 DUP2 LT ISZERO PUSH2 0xCBA JUMPI PUSH1 0x0 DUP1 REVERT JUMPDEST POP CALLDATALOAD PUSH1 0x1 PUSH1 0x1 PUSH1 0x40 SHL SUB AND PUSH2 0x28D5 JUMP JUMPDEST PUSH2 0x4A4 PUSH1 0x4 DUP1 CALLDATASIZE SUB PUSH1 0x20 DUP2 LT ISZERO PUSH2 0xCE0 JUMPI PUSH1 0x0 DUP1 REVERT JUMPDEST POP CALLDATALOAD PUSH1 0x1 PUSH1 0x1 PUSH1 0x40 SHL SUB AND PUSH2 0x296E JUMP JUMPDEST PUSH2 0x4A4 PUSH1 0x4 DUP1 CALLDATASIZE SUB PUSH1 0x60 DUP2 LT ISZERO PUSH2 0xD06 JUMPI PUSH1 0x0 DUP1 REVERT JUMPDEST POP PUSH1 0x1 PUSH1 0x1 PUSH1 0x40 SHL SUB DUP2 CALLDATALOAD DUP2 AND SWAP2 PUSH1 0x20 DUP2 ADD CALLDATALOAD DUP3 AND SWAP2 PUSH1 0x40 SWAP1 SWAP2 ADD CALLDATALOAD AND PUSH2 0x29B5 JUMP JUMPDEST PUSH1 0x0 SLOAD SWAP1 JUMP JUMPDEST PUSH2 0xDA7 PUSH20 0x0 PUSH4 0x9A59734C PUSH1 0x40 MLOAD DUP2 PUSH4 0xFFFFFFFF AND PUSH1 0xE0 SHL DUP2 MSTORE PUSH1 0x4 ADD PUSH1 0x20 PUSH1 0x40 MLOAD DUP1 DUP4 SUB DUP2 DUP7 DUP1 EXTCODESIZE ISZERO DUP1 ISZERO PUSH2 0xD75 JUMPI PUSH1 0x0 DUP1 REVERT JUMPDEST POP GAS DELEGATECALL ISZERO DUP1 ISZERO PUSH2 0xD89 JUMPI RETURNDATASIZE PUSH1 0x0 DUP1 RETURNDATACOPY RETURNDATASIZE PUSH1 0x0 REVERT JUMPDEST POP POP POP POP PUSH1 0x40 MLOAD RETURNDATASIZE PUSH1 0x20 DUP2 LT ISZERO PUSH2 0xD9F JUMPI PUSH1 0x0 DUP1 REVERT JUMPDEST POP MLOAD DUP3 PUSH2 0x1B60 JUMP JUMPDEST POP JUMP JUMPDEST PUSH1 0x0 PUSH2 0xE24 PUSH20 0x0 PUSH4 0x6630AD87 PUSH1 0x40 MLOAD DUP2 PUSH4 0xFFFFFFFF AND PUSH1 0xE0 SHL DUP2 MSTORE PUSH1 0x4 ADD PUSH1 0x20 PUSH1 0x40 MLOAD DUP1 DUP4 SUB DUP2 DUP7 DUP1 EXTCODESIZE ISZERO DUP1 ISZERO PUSH2 0xDF3 JUMPI PUSH1 0x0 DUP1 REVERT JUMPDEST POP GAS DELEGATECALL ISZERO DUP1 ISZERO PUSH2 0xE07 JUMPI RETURNDATASIZE PUSH1 0x0 DUP1 RETURNDATACOPY RETURNDATASIZE PUSH1 0x0 REVERT JUMPDEST POP POP POP POP PUSH1 0x40 MLOAD RETURNDATASIZE PUSH1 0x20 DUP2 LT ISZERO PUSH2 0xE1D JUMPI PUSH1 0x0 DUP1 REVERT JUMPDEST POP MLOAD PUSH2 0x28D5 JUMP JUMPDEST SWAP1 POP SWAP1 JUMP JUMPDEST PUSH2 0xDA7 PUSH20 0x0 PUSH4 0x72EB67D0 PUSH1 0x40 MLOAD DUP2 PUSH4 0xFFFFFFFF AND PUSH1 0xE0 SHL DUP2 MSTORE PUSH1 0x4 ADD PUSH1 0x20 PUSH1 0x40 MLOAD DUP1 DUP4 SUB DUP2 DUP7 DUP1 EXTCODESIZE ISZERO DUP1 ISZERO PUSH2 0xD75 JUMPI PUSH1 0x0 DUP1 REVERT JUMPDEST PUSH1 0x0 PUSH2 0xE24 PUSH20 0x0 PUSH4 0x8FD6B7C4 PUSH1 0x40 MLOAD DUP2 PUSH4 0xFFFFFFFF AND PUSH1 0xE0 SHL DUP2 MSTORE PUSH1 0x4 ADD PUSH1 0x20 PUSH1 0x40 MLOAD DUP1 DUP4 SUB DUP2 DUP7 DUP1 EXTCODESIZE ISZERO DUP1 ISZERO PUSH2 0xDF3 JUMPI PUSH1 0x0 DUP1 REVERT JUMPDEST PUSH1 0x0 PUSH2 0xEC3 PUSH2 0x1E4B JUMP JUMPDEST DUP3 NOT AND SWAP1 POP PUSH2 0xED1 DUP2 PUSH2 0x203C JUMP JUMPDEST POP POP JUMP JUMPDEST PUSH1 0x0 PUSH2 0xE24 PUSH20 0x0 PUSH4 0x734B9600 PUSH1 0x40 MLOAD DUP2 PUSH4 0xFFFFFFFF AND PUSH1 0xE0 SHL DUP2 MSTORE PUSH1 0x4 ADD PUSH1 0x20 PUSH1 0x40 MLOAD DUP1 DUP4 SUB DUP2 DUP7 DUP1 EXTCODESIZE ISZERO DUP1 ISZERO PUSH2 0xDF3 JUMPI PUSH1 0x0 DUP1 REVERT JUMPDEST PUSH1 0x0 PUSH2 0xE24 PUSH20 0x0 PUSH4 0x443FD598 PUSH1 0x40 MLOAD DUP2 PUSH4 0xFFFFFFFF AND PUSH1 0xE0 SHL DUP2 MSTORE PUSH1 0x4 ADD PUSH1 0x20 PUSH1 0x40 MLOAD DUP1 DUP4 SUB DUP2 DUP7 DUP1 EXTCODESIZE ISZERO DUP1 ISZERO PUSH2 0xDF3 JUMPI PUSH1 0x0 DUP1 REVERT JUMPDEST PUSH1 0x0 PUSH2 0xE24 PUSH20 0x0 PUSH4 0xCA04595A PUSH1 0x40 MLOAD DUP2 PUSH4 0xFFFFFFFF AND PUSH1 0xE0 SHL DUP2 MSTORE PUSH1 0x4 ADD PUSH1 0x20 PUSH1 0x40 MLOAD DUP1 DUP4 SUB DUP2 DUP7 DUP1 EXTCODESIZE ISZERO DUP1 ISZERO PUSH2 0xDF3 JUMPI PUSH1 0x0 DUP1 REVERT JUMPDEST PUSH1 0x0 PUSH2 0xE24 PUSH20 0x0 PUSH4 0x72EB67D0 PUSH1 0x40 MLOAD DUP2 PUSH4 0xFFFFFFFF AND PUSH1 0xE0 SHL DUP2 MSTORE PUSH1 0x4 ADD PUSH1 0x20 PUSH1 0x40 MLOAD DUP1 DUP4 SUB DUP2 DUP7 DUP1 EXTCODESIZE ISZERO DUP1 ISZERO PUSH2 0xDF3 JUMPI PUSH1 0x0 DUP1 REVERT JUMPDEST PUSH2 0xDA7 PUSH20 0x0 PUSH4 0xCA04595A PUSH1 0x40 MLOAD DUP2 PUSH4 0xFFFFFFFF AND PUSH1 0xE0 SHL DUP2 MSTORE PUSH1 0x4 ADD PUSH1 0x20 PUSH1 0x40 MLOAD DUP1 DUP4 SUB DUP2 DUP7 DUP1 EXTCODESIZE ISZERO DUP1 ISZERO PUSH2 0xD75 JUMPI PUSH1 0x0 DUP1 REVERT JUMPDEST PUSH2 0xDA7 PUSH20 0x0 PUSH4 0xD124BD13 PUSH1 0x40 MLOAD DUP2 PUSH4 0xFFFFFFFF AND PUSH1 0xE0 SHL DUP2 MSTORE PUSH1 0x4 ADD PUSH1 0x20 PUSH1 0x40 MLOAD DUP1 DUP4 SUB DUP2 DUP7 DUP1 EXTCODESIZE ISZERO DUP1 ISZERO PUSH2 0xD75 JUMPI PUSH1 0x0 DUP1 REVERT JUMPDEST PUSH1 0x0 PUSH2 0xE24 PUSH20 0x0 PUSH4 0x29301CAC PUSH1 0x40 MLOAD DUP2 PUSH4 0xFFFFFFFF AND PUSH1 0xE0 SHL DUP2 MSTORE PUSH1 0x4 ADD PUSH1 0x20 PUSH1 0x40 MLOAD DUP1 DUP4 SUB DUP2 DUP7 DUP1 EXTCODESIZE ISZERO DUP1 ISZERO PUSH2 0xDF3 JUMPI PUSH1 0x0 DUP1 REVERT JUMPDEST PUSH1 0x0 PUSH2 0xE24 PUSH20 0x0 PUSH4 0x521819F5 PUSH1 0x40 MLOAD DUP2 PUSH4 0xFFFFFFFF AND PUSH1 0xE0 SHL DUP2 MSTORE PUSH1 0x4 ADD PUSH1 0x20 PUSH1 0x40 MLOAD DUP1 DUP4 SUB DUP2 DUP7 DUP1 EXTCODESIZE ISZERO DUP1 ISZERO PUSH2 0xDF3 JUMPI PUSH1 0x0 DUP1 REVERT JUMPDEST PUSH1 0x0 PUSH2 0x1123 PUSH2 0x22CF JUMP JUMPDEST SWAP1 POP DUP2 ISZERO PUSH2 0x11A1 JUMPI PUSH20 0x0 PUSH4 0xE697ACE9 PUSH1 0x40 MLOAD DUP2 PUSH4 0xFFFFFFFF AND PUSH1 0xE0 SHL DUP2 MSTORE PUSH1 0x4 ADD PUSH1 0x20 PUSH1 0x40 MLOAD DUP1 DUP4 SUB DUP2 DUP7 DUP1 EXTCODESIZE ISZERO DUP1 ISZERO PUSH2 0x116F JUMPI PUSH1 0x0 DUP1 REVERT JUMPDEST POP GAS DELEGATECALL ISZERO DUP1 ISZERO PUSH2 0x1183 JUMPI RETURNDATASIZE PUSH1 0x0 DUP1 RETURNDATACOPY RETURNDATASIZE PUSH1 0x0 REVERT JUMPDEST POP POP POP POP PUSH1 0x40 MLOAD RETURNDATASIZE PUSH1 0x20 DUP2 LT ISZERO PUSH2 0x1199 JUMPI PUSH1 0x0 DUP1 REVERT JUMPDEST POP MLOAD OR PUSH2 0x1214 JUMP JUMPDEST PUSH20 0x0 PUSH4 0xE697ACE9 PUSH1 0x40 MLOAD DUP2 PUSH4 0xFFFFFFFF AND PUSH1 0xE0 SHL DUP2 MSTORE PUSH1 0x4 ADD PUSH1 0x20 PUSH1 0x40 MLOAD DUP1 DUP4 SUB DUP2 DUP7 DUP1 EXTCODESIZE ISZERO DUP1 ISZERO PUSH2 0x11E5 JUMPI PUSH1 0x0 DUP1 REVERT JUMPDEST POP GAS DELEGATECALL ISZERO DUP1 ISZERO PUSH2 0x11F9 JUMPI RETURNDATASIZE PUSH1 0x0 DUP1 RETURNDATACOPY RETURNDATASIZE PUSH1 0x0 REVERT JUMPDEST POP POP POP POP PUSH1 0x40 MLOAD RETURNDATASIZE PUSH1 0x20 DUP2 LT ISZERO PUSH2 0x120F JUMPI PUSH1 0x0 DUP1 REVERT JUMPDEST POP MLOAD NOT AND JUMPDEST PUSH2 0xED1 PUSH20 0x0 PUSH4 0x2FFDABC5 PUSH1 0x40 MLOAD DUP2 PUSH4 0xFFFFFFFF AND PUSH1 0xE0 SHL DUP2 MSTORE PUSH1 0x4 ADD PUSH1 0x20 PUSH1 0x40 MLOAD DUP1 DUP4 SUB DUP2 DUP7 DUP1 EXTCODESIZE ISZERO DUP1 ISZERO PUSH2 0xD75 JUMPI PUSH1 0x0 DUP1 REVERT JUMPDEST PUSH1 0x0 PUSH2 0x1265 PUSH2 0x1E4B JUMP JUMPDEST DUP3 OR SWAP1 POP PUSH2 0xED1 DUP2 PUSH2 0x203C JUMP JUMPDEST PUSH1 0x0 PUSH2 0xE24 PUSH20 0x0 PUSH4 0xB255E9E4 PUSH1 0x40 MLOAD DUP2 PUSH4 0xFFFFFFFF AND PUSH1 0xE0 SHL DUP2 MSTORE PUSH1 0x4 ADD PUSH1 0x20 PUSH1 0x40 MLOAD DUP1 DUP4 SUB DUP2 DUP7 DUP1 EXTCODESIZE ISZERO DUP1 ISZERO PUSH2 0xDF3 JUMPI PUSH1 0x0 DUP1 REVERT JUMPDEST PUSH1 0x0 PUSH1 0x7 NOT DUP4 AND DUP1 DUP5 SUB DUP3 PUSH2 0x12CF DUP4 PUSH2 0x2BFC JUMP JUMPDEST SWAP1 POP PUSH1 0x0 PUSH20 0x0 PUSH4 0xBF1924C5 DUP5 PUSH1 0x8 MUL PUSH1 0x1 PUSH1 0x1 PUSH1 0x40 SHL SUB AND PUSH1 0x1 DUP10 PUSH1 0x1 PUSH1 0x1 PUSH1 0x40 SHL SUB AND PUSH1 0x2 PUSH1 0x1 PUSH1 0x1 PUSH1 0x40 SHL SUB AND EXP SUB PUSH1 0x1 PUSH1 0x1 PUSH1 0x40 SHL SUB AND SWAP1 SHL PUSH1 0x40 MLOAD DUP3 PUSH4 0xFFFFFFFF AND PUSH1 0xE0 SHL DUP2 MSTORE PUSH1 0x4 ADD DUP1 DUP3 PUSH1 0x1 PUSH1 0x1 PUSH1 0x40 SHL SUB AND DUP2 MSTORE PUSH1 0x20 ADD SWAP2 POP POP PUSH1 0x20 PUSH1 0x40 MLOAD DUP1 DUP4 SUB DUP2 DUP7 DUP1 EXTCODESIZE ISZERO DUP1 ISZERO PUSH2 0x135B JUMPI PUSH1 0x0 DUP1 REVERT JUMPDEST POP GAS DELEGATECALL ISZERO DUP1 ISZERO PUSH2 0x136F JUMPI RETURNDATASIZE PUSH1 0x0 DUP1 RETURNDATACOPY RETURNDATASIZE PUSH1 0x0 REVERT JUMPDEST POP POP POP POP PUSH1 0x40 MLOAD RETURNDATASIZE PUSH1 0x20 DUP2 LT ISZERO PUSH2 0x1385 JUMPI PUSH1 0x0 DUP1 REVERT JUMPDEST POP MLOAD PUSH1 0x40 DUP1 MLOAD PUSH4 0xBF1924C5 PUSH1 0xE0 SHL DUP2 MSTORE PUSH1 0x1 PUSH1 0x1 PUSH1 0x40 SHL SUB DUP6 DUP5 AND DUP2 AND PUSH1 0x4 DUP4 ADD MSTORE SWAP2 MLOAD SWAP3 SWAP4 POP PUSH1 0x8 DUP7 MUL SWAP1 SWAP2 AND SWAP2 PUSH20 0x0 SWAP2 PUSH4 0xBF1924C5 SWAP2 PUSH1 0x24 DUP1 DUP4 ADD SWAP3 PUSH1 0x20 SWAP3 SWAP2 SWAP1 DUP3 SWAP1 SUB ADD DUP2 DUP7 DUP1 EXTCODESIZE ISZERO DUP1 ISZERO PUSH2 0x13EF JUMPI PUSH1 0x0 DUP1 REVERT JUMPDEST POP GAS DELEGATECALL ISZERO DUP1 ISZERO PUSH2 0x1403 JUMPI RETURNDATASIZE PUSH1 0x0 DUP1 RETURNDATACOPY RETURNDATASIZE PUSH1 0x0 REVERT JUMPDEST POP POP POP POP PUSH1 0x40 MLOAD RETURNDATASIZE PUSH1 0x20 DUP2 LT ISZERO PUSH2 0x1419 JUMPI PUSH1 0x0 DUP1 REVERT JUMPDEST POP MLOAD PUSH1 0x1 PUSH1 0x1 PUSH1 0x40 SHL SUB AND SWAP1 SHR SWAP8 SWAP7 POP POP POP POP POP POP POP JUMP JUMPDEST PUSH1 0x0 PUSH2 0xE24 PUSH20 0x0 PUSH4 0x7047F4DF PUSH1 0x40 MLOAD DUP2 PUSH4 0xFFFFFFFF AND PUSH1 0xE0 SHL DUP2 MSTORE PUSH1 0x4 ADD PUSH1 0x20 PUSH1 0x40 MLOAD DUP1 DUP4 SUB DUP2 DUP7 DUP1 EXTCODESIZE ISZERO DUP1 ISZERO PUSH2 0xDF3 JUMPI PUSH1 0x0 DUP1 REVERT JUMPDEST PUSH2 0x1483 DUP2 PUSH2 0x23A8 JUMP JUMPDEST PUSH2 0xDA7 PUSH1 0x0 NOT PUSH2 0x26A7 JUMP JUMPDEST PUSH1 0x0 PUSH2 0xE24 PUSH20 0x0 PUSH4 0x45827F69 PUSH1 0x40 MLOAD DUP2 PUSH4 0xFFFFFFFF AND PUSH1 0xE0 SHL DUP2 MSTORE PUSH1 0x4 ADD PUSH1 0x20 PUSH1 0x40 MLOAD DUP1 DUP4 SUB DUP2 DUP7 DUP1 EXTCODESIZE ISZERO DUP1 ISZERO PUSH2 0xDF3 JUMPI PUSH1 0x0 DUP1 REVERT JUMPDEST PUSH2 0xDA7 PUSH20 0x0 PUSH4 0xE59CB574 PUSH1 0x40 MLOAD DUP2 PUSH4 0xFFFFFFFF AND PUSH1 0xE0 SHL DUP2 MSTORE PUSH1 0x4 ADD PUSH1 0x20 PUSH1 0x40 MLOAD DUP1 DUP4 SUB DUP2 DUP7 DUP1 EXTCODESIZE ISZERO DUP1 ISZERO PUSH2 0xD75 JUMPI PUSH1 0x0 DUP1 REVERT JUMPDEST PUSH2 0xDA7 PUSH20 0x0 PUSH4 0x734B9600 PUSH1 0x40 MLOAD DUP2 PUSH4 0xFFFFFFFF AND PUSH1 0xE0 SHL DUP2 MSTORE PUSH1 0x4 ADD PUSH1 0x20 PUSH1 0x40 MLOAD DUP1 DUP4 SUB DUP2 DUP7 DUP1 EXTCODESIZE ISZERO DUP1 ISZERO PUSH2 0xD75 JUMPI PUSH1 0x0 DUP1 REVERT JUMPDEST PUSH2 0xDA7 PUSH20 0x0 PUSH4 0x9FF9932B PUSH1 0x40 MLOAD DUP2 PUSH4 0xFFFFFFFF AND PUSH1 0xE0 SHL DUP2 MSTORE PUSH1 0x4 ADD PUSH1 0x20 PUSH1 0x40 MLOAD DUP1 DUP4 SUB DUP2 DUP7 DUP1 EXTCODESIZE ISZERO DUP1 ISZERO PUSH2 0xD75 JUMPI PUSH1 0x0 DUP1 REVERT JUMPDEST PUSH1 0x0 PUSH2 0xE24 PUSH20 0x0 PUSH4 0xE2E2E712 PUSH1 0x40 MLOAD DUP2 PUSH4 0xFFFFFFFF AND PUSH1 0xE0 SHL DUP2 MSTORE PUSH1 0x4 ADD PUSH1 0x20 PUSH1 0x40 MLOAD DUP1 DUP4 SUB DUP2 DUP7 DUP1 EXTCODESIZE ISZERO DUP1 ISZERO PUSH2 0xDF3 JUMPI PUSH1 0x0 DUP1 REVERT JUMPDEST PUSH2 0xDA7 PUSH20 0x0 PUSH4 0xA43E290F PUSH1 0x40 MLOAD DUP2 PUSH4 0xFFFFFFFF AND PUSH1 0xE0 SHL DUP2 MSTORE PUSH1 0x4 ADD PUSH1 0x20 PUSH1 0x40 MLOAD DUP1 DUP4 SUB DUP2 DUP7 DUP1 EXTCODESIZE ISZERO DUP1 ISZERO PUSH2 0xD75 JUMPI PUSH1 0x0 DUP1 REVERT JUMPDEST PUSH1 0x0 PUSH2 0xE24 PUSH20 0x0 PUSH4 0x92F5AA22 PUSH1 0x40 MLOAD DUP2 PUSH4 0xFFFFFFFF AND PUSH1 0xE0 SHL DUP2 MSTORE PUSH1 0x4 ADD PUSH1 0x20 PUSH1 0x40 MLOAD DUP1 DUP4 SUB DUP2 DUP7 DUP1 EXTCODESIZE ISZERO DUP1 ISZERO PUSH2 0xDF3 JUMPI PUSH1 0x0 DUP1 REVERT JUMPDEST PUSH1 0x0 PUSH2 0x1693 DUP3 PUSH1 0x8 MUL PUSH2 0x28D5 JUMP JUMPDEST SWAP3 SWAP2 POP POP JUMP JUMPDEST PUSH1 0x0 PUSH2 0xE24 PUSH20 0x0 PUSH4 0x87098135 PUSH1 0x40 MLOAD DUP2 PUSH4 0xFFFFFFFF AND PUSH1 0xE0 SHL DUP2 MSTORE PUSH1 0x4 ADD PUSH1 0x20 PUSH1 0x40 MLOAD DUP1 DUP4 SUB DUP2 DUP7 DUP1 EXTCODESIZE ISZERO DUP1 ISZERO PUSH2 0xDF3 JUMPI PUSH1 0x0 DUP1 REVERT JUMPDEST PUSH1 0x0 PUSH2 0xE24 PUSH20 0x0 PUSH4 0xD41A5B59 PUSH1 0x40 MLOAD DUP2 PUSH4 0xFFFFFFFF AND PUSH1 0xE0 SHL DUP2 MSTORE PUSH1 0x4 ADD PUSH1 0x20 PUSH1 0x40 MLOAD DUP1 DUP4 SUB DUP2 DUP7 DUP1 EXTCODESIZE ISZERO DUP1 ISZERO PUSH2 0xDF3 JUMPI PUSH1 0x0 DUP1 REVERT JUMPDEST PUSH1 0x0 PUSH2 0xE24 PUSH20 0x0 PUSH4 0xE59CB574 PUSH1 0x40 MLOAD DUP2 PUSH4 0xFFFFFFFF AND PUSH1 0xE0 SHL DUP2 MSTORE PUSH1 0x4 ADD PUSH1 0x20 PUSH1 0x40 MLOAD DUP1 DUP4 SUB DUP2 DUP7 DUP1 EXTCODESIZE ISZERO DUP1 ISZERO PUSH2 0xDF3 JUMPI PUSH1 0x0 DUP1 REVERT JUMPDEST PUSH1 0x0 PUSH2 0xE24 PUSH20 0x0 PUSH4 0xDA3E8D7B PUSH1 0x40 MLOAD DUP2 PUSH4 0xFFFFFFFF AND PUSH1 0xE0 SHL DUP2 MSTORE PUSH1 0x4 ADD PUSH1 0x20 PUSH1 0x40 MLOAD DUP1 DUP4 SUB DUP2 DUP7 DUP1 EXTCODESIZE ISZERO DUP1 ISZERO PUSH2 0xDF3 JUMPI PUSH1 0x0 DUP1 REVERT JUMPDEST PUSH2 0xED1 DUP3 PUSH1 0x8 MUL DUP3 PUSH2 0x1B60 JUMP JUMPDEST PUSH1 0x0 PUSH2 0xE24 PUSH20 0x0 PUSH4 0x6299EA3F PUSH1 0x40 MLOAD DUP2 PUSH4 0xFFFFFFFF AND PUSH1 0xE0 SHL DUP2 MSTORE PUSH1 0x4 ADD PUSH1 0x20 PUSH1 0x40 MLOAD DUP1 DUP4 SUB DUP2 DUP7 DUP1 EXTCODESIZE ISZERO DUP1 ISZERO PUSH2 0xDF3 JUMPI PUSH1 0x0 DUP1 REVERT JUMPDEST PUSH1 0x0 PUSH2 0xE24 PUSH20 0x0 PUSH4 0xF4655F12 PUSH1 0x40 MLOAD DUP2 PUSH4 0xFFFFFFFF AND PUSH1 0xE0 SHL DUP2 MSTORE PUSH1 0x4 ADD PUSH1 0x20 PUSH1 0x40 MLOAD DUP1 DUP4 SUB DUP2 DUP7 DUP1 EXTCODESIZE ISZERO DUP1 ISZERO PUSH2 0xDF3 JUMPI PUSH1 0x0 DUP1 REVERT JUMPDEST PUSH2 0xDA7 PUSH20 0x0 PUSH4 0x45827F69 PUSH1 0x40 MLOAD DUP2 PUSH4 0xFFFFFFFF AND PUSH1 0xE0 SHL DUP2 MSTORE PUSH1 0x4 ADD PUSH1 0x20 PUSH1 0x40 MLOAD DUP1 DUP4 SUB DUP2 DUP7 DUP1 EXTCODESIZE ISZERO DUP1 ISZERO PUSH2 0xD75 JUMPI PUSH1 0x0 DUP1 REVERT JUMPDEST PUSH2 0xDA7 PUSH20 0x0 PUSH4 0xB255E9E4 PUSH1 0x40 MLOAD DUP2 PUSH4 0xFFFFFFFF AND PUSH1 0xE0 SHL DUP2 MSTORE PUSH1 0x4 ADD PUSH1 0x20 PUSH1 0x40 MLOAD DUP1 DUP4 SUB DUP2 DUP7 DUP1 EXTCODESIZE ISZERO DUP1 ISZERO PUSH2 0xD75 JUMPI PUSH1 0x0 DUP1 REVERT JUMPDEST PUSH1 0x0 PUSH2 0xE24 PUSH20 0x0 PUSH4 0x4A4C3510 PUSH1 0x40 MLOAD DUP2 PUSH4 0xFFFFFFFF AND PUSH1 0xE0 SHL DUP2 MSTORE PUSH1 0x4 ADD PUSH1 0x20 PUSH1 0x40 MLOAD DUP1 DUP4 SUB DUP2 DUP7 DUP1 EXTCODESIZE ISZERO DUP1 ISZERO PUSH2 0xDF3 JUMPI PUSH1 0x0 DUP1 REVERT JUMPDEST PUSH1 0x0 PUSH2 0xE24 PUSH20 0x0 PUSH4 0xC585EEDE PUSH1 0x40 MLOAD DUP2 PUSH4 0xFFFFFFFF AND PUSH1 0xE0 SHL DUP2 MSTORE PUSH1 0x4 ADD PUSH1 0x20 PUSH1 0x40 MLOAD DUP1 DUP4 SUB DUP2 DUP7 DUP1 EXTCODESIZE ISZERO DUP1 ISZERO PUSH2 0xDF3 JUMPI PUSH1 0x0 DUP1 REVERT JUMPDEST PUSH1 0x0 PUSH20 0x0 PUSH4 0x17A0CAC3 PUSH1 0x40 MLOAD DUP2 PUSH4 0xFFFFFFFF AND PUSH1 0xE0 SHL DUP2 MSTORE PUSH1 0x4 ADD PUSH1 0x20 PUSH1 0x40 MLOAD DUP1 DUP4 SUB DUP2 DUP7 DUP1 EXTCODESIZE ISZERO DUP1 ISZERO PUSH2 0x19C2 JUMPI PUSH1 0x0 DUP1 REVERT JUMPDEST POP GAS DELEGATECALL ISZERO DUP1 ISZERO PUSH2 0x19D6 JUMPI RETURNDATASIZE PUSH1 0x0 DUP1 RETURNDATACOPY RETURNDATASIZE PUSH1 0x0 REVERT JUMPDEST POP POP POP POP PUSH1 0x40 MLOAD RETURNDATASIZE PUSH1 0x20 DUP2 LT ISZERO PUSH2 0x19EC JUMPI PUSH1 0x0 DUP1 REVERT JUMPDEST POP MLOAD PUSH1 0x40 DUP1 MLOAD PUSH4 0x51A2AB41 PUSH1 0xE1 SHL DUP2 MSTORE SWAP1 MLOAD PUSH1 0x1 PUSH1 0x1 PUSH1 0x40 SHL SUB SWAP1 SWAP3 AND SWAP2 PUSH20 0x0 SWAP2 PUSH4 0xA3455682 SWAP2 PUSH1 0x4 DUP1 DUP4 ADD SWAP3 PUSH1 0x20 SWAP3 SWAP2 SWAP1 DUP3 SWAP1 SUB ADD DUP2 DUP7 DUP1 EXTCODESIZE ISZERO DUP1 ISZERO PUSH2 0x1A45 JUMPI PUSH1 0x0 DUP1 REVERT JUMPDEST POP GAS DELEGATECALL ISZERO DUP1 ISZERO PUSH2 0x1A59 JUMPI RETURNDATASIZE PUSH1 0x0 DUP1 RETURNDATACOPY RETURNDATASIZE PUSH1 0x0 REVERT JUMPDEST POP POP POP POP PUSH1 0x40 MLOAD RETURNDATASIZE PUSH1 0x20 DUP2 LT ISZERO PUSH2 0x1A6F JUMPI PUSH1 0x0 DUP1 REVERT JUMPDEST POP MLOAD PUSH1 0x40 DUP1 MLOAD PUSH4 0x2FFDABC5 PUSH1 0xE0 SHL DUP2 MSTORE SWAP1 MLOAD PUSH2 0x1AC1 SWAP2 PUSH20 0x0 SWAP2 PUSH4 0x2FFDABC5 SWAP2 PUSH1 0x4 DUP1 DUP3 ADD SWAP3 PUSH1 0x20 SWAP3 SWAP1 SWAP2 SWAP1 DUP3 SWAP1 SUB ADD DUP2 DUP7 DUP1 EXTCODESIZE ISZERO DUP1 ISZERO PUSH2 0xDF3 JUMPI PUSH1 0x0 DUP1 REVERT JUMPDEST AND PUSH1 0x1 PUSH1 0x1 PUSH1 0x40 SHL SUB AND SWAP1 SHR SWAP1 POP SWAP1 JUMP JUMPDEST PUSH2 0xDA7 PUSH20 0x0 PUSH4 0xE80D1751 PUSH1 0x40 MLOAD DUP2 PUSH4 0xFFFFFFFF AND PUSH1 0xE0 SHL DUP2 MSTORE PUSH1 0x4 ADD PUSH1 0x20 PUSH1 0x40 MLOAD DUP1 DUP4 SUB DUP2 DUP7 DUP1 EXTCODESIZE ISZERO DUP1 ISZERO PUSH2 0xD75 JUMPI PUSH1 0x0 DUP1 REVERT JUMPDEST PUSH2 0xDA7 PUSH20 0x0 PUSH4 0x7047F4DF PUSH1 0x40 MLOAD DUP2 PUSH4 0xFFFFFFFF AND PUSH1 0xE0 SHL DUP2 MSTORE PUSH1 0x4 ADD PUSH1 0x20 PUSH1 0x40 MLOAD DUP1 DUP4 SUB DUP2 DUP7 DUP1 EXTCODESIZE ISZERO DUP1 ISZERO PUSH2 0xD75 JUMPI PUSH1 0x0 DUP1 REVERT JUMPDEST PUSH1 0x0 PUSH20 0x0 PUSH4 0xBF1924C5 DUP4 PUSH1 0x40 MLOAD DUP3 PUSH4 0xFFFFFFFF AND PUSH1 0xE0 SHL DUP2 MSTORE PUSH1 0x4 ADD DUP1 DUP3 PUSH1 0x1 PUSH1 0x1 PUSH1 0x40 SHL SUB AND DUP2 MSTORE PUSH1 0x20 ADD SWAP2 POP POP PUSH1 0x20 PUSH1 0x40 MLOAD DUP1 DUP4 SUB DUP2 DUP7 DUP1 EXTCODESIZE ISZERO DUP1 ISZERO PUSH2 0x1BBA JUMPI PUSH1 0x0 DUP1 REVERT JUMPDEST POP GAS DELEGATECALL ISZERO DUP1 ISZERO PUSH2 0x1BCE JUMPI RETURNDATASIZE PUSH1 0x0 DUP1 RETURNDATACOPY RETURNDATASIZE PUSH1 0x0 REVERT JUMPDEST POP POP POP POP PUSH1 0x40 MLOAD RETURNDATASIZE PUSH1 0x20 DUP2 LT ISZERO PUSH2 0x1BE4 JUMPI PUSH1 0x0 DUP1 REVERT JUMPDEST POP MLOAD PUSH1 0xC0 SHL SWAP1 POP PUSH1 0x1 PUSH1 0x1 PUSH1 0xC0 SHL SUB NOT DUP2 AND PUSH2 0x1C01 DUP5 PUSH1 0x0 PUSH2 0x2C12 JUMP JUMPDEST PUSH1 0x1 PUSH1 0x1 PUSH1 0xC0 SHL SUB NOT AND EQ PUSH2 0x1C5D JUMPI PUSH1 0x40 DUP1 MLOAD PUSH3 0x461BCD PUSH1 0xE5 SHL DUP2 MSTORE PUSH1 0x20 PUSH1 0x4 DUP3 ADD MSTORE PUSH1 0x1C PUSH1 0x24 DUP3 ADD MSTORE PUSH32 0x5772697474656E2076616C756520646F6573206E6F74206D6174636800000000 PUSH1 0x44 DUP3 ADD MSTORE SWAP1 MLOAD SWAP1 DUP2 SWAP1 SUB PUSH1 0x64 ADD SWAP1 REVERT JUMPDEST POP POP POP JUMP JUMPDEST PUSH1 0x0 PUSH2 0xE24 PUSH20 0x0 PUSH4 0xD124BD13 PUSH1 0x40 MLOAD DUP2 PUSH4 0xFFFFFFFF AND PUSH1 0xE0 SHL DUP2 MSTORE PUSH1 0x4 ADD PUSH1 0x20 PUSH1 0x40 MLOAD DUP1 DUP4 SUB DUP2 DUP7 DUP1 EXTCODESIZE ISZERO DUP1 ISZERO PUSH2 0xDF3 JUMPI PUSH1 0x0 DUP1 REVERT JUMPDEST PUSH1 0x0 PUSH20 0x0 PUSH4 0x656B151F PUSH1 0x40 MLOAD DUP2 PUSH4 0xFFFFFFFF AND PUSH1 0xE0 SHL DUP2 MSTORE PUSH1 0x4 ADD PUSH1 0x20 PUSH1 0x40 MLOAD DUP1 DUP4 SUB DUP2 DUP7 DUP1 EXTCODESIZE ISZERO DUP1 ISZERO PUSH2 0x1CF1 JUMPI PUSH1 0x0 DUP1 REVERT JUMPDEST POP GAS DELEGATECALL ISZERO DUP1 ISZERO PUSH2 0x1D05 JUMPI RETURNDATASIZE PUSH1 0x0 DUP1 RETURNDATACOPY RETURNDATASIZE PUSH1 0x0 REVERT JUMPDEST POP POP POP POP PUSH1 0x40 MLOAD RETURNDATASIZE PUSH1 0x20 DUP2 LT ISZERO PUSH2 0x1D1B JUMPI PUSH1 0x0 DUP1 REVERT JUMPDEST POP MLOAD PUSH1 0x40 DUP1 MLOAD PUSH4 0xFD198E55 PUSH1 0xE0 SHL DUP2 MSTORE SWAP1 MLOAD PUSH1 0x1 PUSH1 0x1 PUSH1 0x40 SHL SUB SWAP1 SWAP3 AND SWAP2 PUSH20 0x0 SWAP2 PUSH4 0xFD198E55 SWAP2 PUSH1 0x4 DUP1 DUP4 ADD SWAP3 PUSH1 0x20 SWAP3 SWAP2 SWAP1 DUP3 SWAP1 SUB ADD DUP2 DUP7 DUP1 EXTCODESIZE ISZERO DUP1 ISZERO PUSH2 0x1A45 JUMPI PUSH1 0x0 DUP1 REVERT JUMPDEST PUSH1 0x0 PUSH2 0xE24 PUSH20 0x0 PUSH4 0x9FF9932B PUSH1 0x40 MLOAD DUP2 PUSH4 0xFFFFFFFF AND PUSH1 0xE0 SHL DUP2 MSTORE PUSH1 0x4 ADD PUSH1 0x20 PUSH1 0x40 MLOAD DUP1 DUP4 SUB DUP2 DUP7 DUP1 EXTCODESIZE ISZERO DUP1 ISZERO PUSH2 0xDF3 JUMPI PUSH1 0x0 DUP1 REVERT JUMPDEST PUSH2 0xDA7 PUSH20 0x0 PUSH4 0x29301CAC PUSH1 0x40 MLOAD DUP2 PUSH4 0xFFFFFFFF AND PUSH1 0xE0 SHL DUP2 MSTORE PUSH1 0x4 ADD PUSH1 0x20 PUSH1 0x40 MLOAD DUP1 DUP4 SUB DUP2 DUP7 DUP1 EXTCODESIZE ISZERO DUP1 ISZERO PUSH2 0xD75 JUMPI PUSH1 0x0 DUP1 REVERT JUMPDEST PUSH2 0xDA7 PUSH20 0x0 PUSH4 0x8FD6B7C4 PUSH1 0x40 MLOAD DUP2 PUSH4 0xFFFFFFFF AND PUSH1 0xE0 SHL DUP2 MSTORE PUSH1 0x4 ADD PUSH1 0x20 PUSH1 0x40 MLOAD DUP1 DUP4 SUB DUP2 DUP7 DUP1 EXTCODESIZE ISZERO DUP1 ISZERO PUSH2 0xD75 JUMPI PUSH1 0x0 DUP1 REVERT JUMPDEST PUSH1 0x0 PUSH2 0xE24 PUSH20 0x0 PUSH4 0x520AFF6C PUSH1 0x40 MLOAD DUP2 PUSH4 0xFFFFFFFF AND PUSH1 0xE0 SHL DUP2 MSTORE PUSH1 0x4 ADD PUSH1 0x20 PUSH1 0x40 MLOAD DUP1 DUP4 SUB DUP2 DUP7 DUP1 EXTCODESIZE ISZERO DUP1 ISZERO PUSH2 0xDF3 JUMPI PUSH1 0x0 DUP1 REVERT JUMPDEST DUP2 MLOAD DUP4 MLOAD EQ PUSH2 0x1ED4 JUMPI PUSH1 0x40 MLOAD PUSH3 0x461BCD PUSH1 0xE5 SHL DUP2 MSTORE PUSH1 0x4 ADD DUP1 DUP1 PUSH1 0x20 ADD DUP3 DUP2 SUB DUP3 MSTORE PUSH1 0x27 DUP2 MSTORE PUSH1 0x20 ADD DUP1 PUSH2 0x2FB1 PUSH1 0x27 SWAP2 CODECOPY PUSH1 0x40 ADD SWAP2 POP POP PUSH1 0x40 MLOAD DUP1 SWAP2 SUB SWAP1 REVERT JUMPDEST DUP1 MLOAD DUP4 MLOAD EQ PUSH2 0x1F14 JUMPI PUSH1 0x40 MLOAD PUSH3 0x461BCD PUSH1 0xE5 SHL DUP2 MSTORE PUSH1 0x4 ADD DUP1 DUP1 PUSH1 0x20 ADD DUP3 DUP2 SUB DUP3 MSTORE PUSH1 0x27 DUP2 MSTORE PUSH1 0x20 ADD DUP1 PUSH2 0x2FB1 PUSH1 0x27 SWAP2 CODECOPY PUSH1 0x40 ADD SWAP2 POP POP PUSH1 0x40 MLOAD DUP1 SWAP2 SUB SWAP1 REVERT JUMPDEST PUSH1 0x0 DUP1 SSTORE DUP3 MLOAD PUSH2 0x1F2B SWAP1 PUSH1 0x1 SWAP1 PUSH1 0x20 DUP7 ADD SWAP1 PUSH2 0x2DBD JUMP JUMPDEST POP DUP2 MLOAD PUSH2 0x1F3F SWAP1 PUSH1 0x2 SWAP1 PUSH1 0x20 DUP6 ADD SWAP1 PUSH2 0x2E75 JUMP JUMPDEST POP DUP1 MLOAD PUSH2 0x1F53 SWAP1 PUSH1 0x3 SWAP1 PUSH1 0x20 DUP5 ADD SWAP1 PUSH2 0x2EE2 JUMP JUMPDEST POP POP POP POP JUMP JUMPDEST PUSH1 0x0 PUSH2 0xE24 PUSH20 0x0 PUSH4 0x2935B8CE PUSH1 0x40 MLOAD DUP2 PUSH4 0xFFFFFFFF AND PUSH1 0xE0 SHL DUP2 MSTORE PUSH1 0x4 ADD PUSH1 0x20 PUSH1 0x40 MLOAD DUP1 DUP4 SUB DUP2 DUP7 DUP1 EXTCODESIZE ISZERO DUP1 ISZERO PUSH2 0xDF3 JUMPI PUSH1 0x0 DUP1 REVERT JUMPDEST PUSH1 0x0 PUSH2 0x1FAC PUSH2 0x22CF JUMP JUMPDEST SWAP1 POP DUP2 ISZERO PUSH2 0x1FF8 JUMPI PUSH20 0x0 PUSH4 0xFD198E55 PUSH1 0x40 MLOAD DUP2 PUSH4 0xFFFFFFFF AND PUSH1 0xE0 SHL DUP2 MSTORE PUSH1 0x4 ADD PUSH1 0x20 PUSH1 0x40 MLOAD DUP1 DUP4 SUB DUP2 DUP7 DUP1 EXTCODESIZE ISZERO DUP1 ISZERO PUSH2 0x116F JUMPI PUSH1 0x0 DUP1 REVERT JUMPDEST PUSH20 0x0 PUSH4 0xFD198E55 PUSH1 0x40 MLOAD DUP2 PUSH4 0xFFFFFFFF AND PUSH1 0xE0 SHL DUP2 MSTORE PUSH1 0x4 ADD PUSH1 0x20 PUSH1 0x40 MLOAD DUP1 DUP4 SUB DUP2 DUP7 DUP1 EXTCODESIZE ISZERO DUP1 ISZERO PUSH2 0x11E5 JUMPI PUSH1 0x0 DUP1 REVERT JUMPDEST PUSH2 0xDA7 PUSH20 0x0 PUSH4 0x520AFF6C PUSH1 0x40 MLOAD DUP2 PUSH4 0xFFFFFFFF AND PUSH1 0xE0 SHL DUP2 MSTORE PUSH1 0x4 ADD PUSH1 0x20 PUSH1 0x40 MLOAD DUP1 DUP4 SUB DUP2 DUP7 DUP1 EXTCODESIZE ISZERO DUP1 ISZERO PUSH2 0xD75 JUMPI PUSH1 0x0 DUP1 REVERT JUMPDEST PUSH2 0xDA7 PUSH20 0x0 PUSH4 0x443FD598 PUSH1 0x40 MLOAD DUP2 PUSH4 0xFFFFFFFF AND PUSH1 0xE0 SHL DUP2 MSTORE PUSH1 0x4 ADD PUSH1 0x20 PUSH1 0x40 MLOAD DUP1 DUP4 SUB DUP2 DUP7 DUP1 EXTCODESIZE ISZERO DUP1 ISZERO PUSH2 0xD75 JUMPI PUSH1 0x0 DUP1 REVERT JUMPDEST PUSH1 0x0 PUSH2 0xE24 PUSH20 0x0 PUSH4 0x9A59734C PUSH1 0x40 MLOAD DUP2 PUSH4 0xFFFFFFFF AND PUSH1 0xE0 SHL DUP2 MSTORE PUSH1 0x4 ADD PUSH1 0x20 PUSH1 0x40 MLOAD DUP1 DUP4 SUB DUP2 DUP7 DUP1 EXTCODESIZE ISZERO DUP1 ISZERO PUSH2 0xDF3 JUMPI PUSH1 0x0 DUP1 REVERT JUMPDEST PUSH2 0xDA7 PUSH20 0x0 PUSH4 0xA279D71 PUSH1 0x40 MLOAD DUP2 PUSH4 0xFFFFFFFF AND PUSH1 0xE0 SHL DUP2 MSTORE PUSH1 0x4 ADD PUSH1 0x20 PUSH1 0x40 MLOAD DUP1 DUP4 SUB DUP2 DUP7 DUP1 EXTCODESIZE ISZERO DUP1 ISZERO PUSH2 0xD75 JUMPI PUSH1 0x0 DUP1 REVERT JUMPDEST PUSH1 0x0 PUSH2 0x2164 PUSH2 0x22CF JUMP JUMPDEST SWAP1 POP DUP2 ISZERO PUSH2 0x21B0 JUMPI PUSH20 0x0 PUSH4 0xA3455682 PUSH1 0x40 MLOAD DUP2 PUSH4 0xFFFFFFFF AND PUSH1 0xE0 SHL DUP2 MSTORE PUSH1 0x4 ADD PUSH1 0x20 PUSH1 0x40 MLOAD DUP1 DUP4 SUB DUP2 DUP7 DUP1 EXTCODESIZE ISZERO DUP1 ISZERO PUSH2 0x116F JUMPI PUSH1 0x0 DUP1 REVERT JUMPDEST PUSH20 0x0 PUSH4 0xA3455682 PUSH1 0x40 MLOAD DUP2 PUSH4 0xFFFFFFFF AND PUSH1 0xE0 SHL DUP2 MSTORE PUSH1 0x4 ADD PUSH1 0x20 PUSH1 0x40 MLOAD DUP1 DUP4 SUB DUP2 DUP7 DUP1 EXTCODESIZE ISZERO DUP1 ISZERO PUSH2 0x11E5 JUMPI PUSH1 0x0 DUP1 REVERT JUMPDEST PUSH1 0x0 PUSH2 0xE24 PUSH20 0x0 PUSH4 0x42DB3667 PUSH1 0x40 MLOAD DUP2 PUSH4 0xFFFFFFFF AND PUSH1 0xE0 SHL DUP2 MSTORE PUSH1 0x4 ADD PUSH1 0x20 PUSH1 0x40 MLOAD DUP1 DUP4 SUB DUP2 DUP7 DUP1 EXTCODESIZE ISZERO DUP1 ISZERO PUSH2 0xDF3 JUMPI PUSH1 0x0 DUP1 REVERT JUMPDEST PUSH1 0x0 PUSH2 0xE24 PUSH20 0x0 PUSH4 0x6903680C PUSH1 0x40 MLOAD DUP2 PUSH4 0xFFFFFFFF AND PUSH1 0xE0 SHL DUP2 MSTORE PUSH1 0x4 ADD PUSH1 0x20 PUSH1 0x40 MLOAD DUP1 DUP4 SUB DUP2 DUP7 DUP1 EXTCODESIZE ISZERO DUP1 ISZERO PUSH2 0xDF3 JUMPI PUSH1 0x0 DUP1 REVERT JUMPDEST PUSH1 0x0 PUSH2 0xE24 PUSH20 0x0 PUSH4 0x929127DB PUSH1 0x40 MLOAD DUP2 PUSH4 0xFFFFFFFF AND PUSH1 0xE0 SHL DUP2 MSTORE PUSH1 0x4 ADD PUSH1 0x20 PUSH1 0x40 MLOAD DUP1 DUP4 SUB DUP2 DUP7 DUP1 EXTCODESIZE ISZERO DUP1 ISZERO PUSH2 0xDF3 JUMPI PUSH1 0x0 DUP1 REVERT JUMPDEST PUSH1 0x0 PUSH2 0xE24 PUSH20 0x0 PUSH4 0x2FFDABC5 PUSH1 0x40 MLOAD DUP2 PUSH4 0xFFFFFFFF AND PUSH1 0xE0 SHL DUP2 MSTORE PUSH1 0x4 ADD PUSH1 0x20 PUSH1 0x40 MLOAD DUP1 DUP4 SUB DUP2 DUP7 DUP1 EXTCODESIZE ISZERO DUP1 ISZERO PUSH2 0xDF3 JUMPI PUSH1 0x0 DUP1 REVERT JUMPDEST PUSH2 0xDA7 PUSH20 0x0 PUSH4 0x6630AD87 PUSH1 0x40 MLOAD DUP2 PUSH4 0xFFFFFFFF AND PUSH1 0xE0 SHL DUP2 MSTORE PUSH1 0x4 ADD PUSH1 0x20 PUSH1 0x40 MLOAD DUP1 DUP4 SUB DUP2 DUP7 DUP1 EXTCODESIZE ISZERO DUP1 ISZERO PUSH2 0xD75 JUMPI PUSH1 0x0 DUP1 REVERT JUMPDEST PUSH1 0x0 PUSH2 0xE24 PUSH20 0x0 PUSH4 0xE80D1751 PUSH1 0x40 MLOAD DUP2 PUSH4 0xFFFFFFFF AND PUSH1 0xE0 SHL DUP2 MSTORE PUSH1 0x4 ADD PUSH1 0x20 PUSH1 0x40 MLOAD DUP1 DUP4 SUB DUP2 DUP7 DUP1 EXTCODESIZE ISZERO DUP1 ISZERO PUSH2 0xDF3 JUMPI PUSH1 0x0 DUP1 REVERT JUMPDEST PUSH1 0x0 PUSH2 0x23B2 PUSH2 0x22CF JUMP JUMPDEST SWAP1 POP PUSH20 0x0 PUSH4 0x910A5247 PUSH1 0x40 MLOAD DUP2 PUSH4 0xFFFFFFFF AND PUSH1 0xE0 SHL DUP2 MSTORE PUSH1 0x4 ADD PUSH1 0x20 PUSH1 0x40 MLOAD DUP1 DUP4 SUB DUP2 DUP7 DUP1 EXTCODESIZE ISZERO DUP1 ISZERO PUSH2 0x23F8 JUMPI PUSH1 0x0 DUP1 REVERT JUMPDEST POP GAS DELEGATECALL ISZERO DUP1 ISZERO PUSH2 0x240C JUMPI RETURNDATASIZE PUSH1 0x0 DUP1 RETURNDATACOPY RETURNDATASIZE PUSH1 0x0 REVERT JUMPDEST POP POP POP POP PUSH1 0x40 MLOAD RETURNDATASIZE PUSH1 0x20 DUP2 LT ISZERO PUSH2 0x2422 JUMPI PUSH1 0x0 DUP1 REVERT JUMPDEST POP MLOAD PUSH1 0x40 DUP1 MLOAD PUSH4 0x317D2BB5 PUSH1 0xE0 SHL DUP2 MSTORE SWAP1 MLOAD PUSH1 0x1 PUSH1 0x1 PUSH1 0x40 SHL SUB DUP6 DUP2 AND SWAP4 AND SWAP3 SWAP1 SWAP3 SHL SWAP2 PUSH20 0x0 SWAP2 PUSH4 0x317D2BB5 SWAP2 PUSH1 0x4 DUP1 DUP4 ADD SWAP3 PUSH1 0x20 SWAP3 SWAP2 SWAP1 DUP3 SWAP1 SUB ADD DUP2 DUP7 DUP1 EXTCODESIZE ISZERO DUP1 ISZERO PUSH2 0x2481 JUMPI PUSH1 0x0 DUP1 REVERT JUMPDEST POP GAS DELEGATECALL ISZERO DUP1 ISZERO PUSH2 0x2495 JUMPI RETURNDATASIZE PUSH1 0x0 DUP1 RETURNDATACOPY RETURNDATASIZE PUSH1 0x0 REVERT JUMPDEST POP POP POP POP PUSH1 0x40 MLOAD RETURNDATASIZE PUSH1 0x20 DUP2 LT ISZERO PUSH2 0x24AB JUMPI PUSH1 0x0 DUP1 REVERT JUMPDEST POP MLOAD PUSH1 0x40 DUP1 MLOAD PUSH4 0x2FFDABC5 PUSH1 0xE0 SHL DUP2 MSTORE SWAP1 MLOAD SWAP2 NOT SWAP4 SWAP1 SWAP4 AND SWAP2 SWAP1 SWAP2 OR SWAP2 PUSH2 0xED1 SWAP2 PUSH20 0x0 SWAP2 PUSH4 0x2FFDABC5 SWAP2 PUSH1 0x4 DUP1 DUP4 ADD SWAP3 PUSH1 0x20 SWAP3 SWAP2 SWAP1 DUP3 SWAP1 SUB ADD DUP2 DUP7 DUP1 EXTCODESIZE ISZERO DUP1 ISZERO PUSH2 0xD75 JUMPI PUSH1 0x0 DUP1 REVERT JUMPDEST PUSH2 0xDA7 PUSH20 0x0 PUSH4 0x2935B8CE PUSH1 0x40 MLOAD DUP2 PUSH4 0xFFFFFFFF AND PUSH1 0xE0 SHL DUP2 MSTORE PUSH1 0x4 ADD PUSH1 0x20 PUSH1 0x40 MLOAD DUP1 DUP4 SUB DUP2 DUP7 DUP1 EXTCODESIZE ISZERO DUP1 ISZERO PUSH2 0xD75 JUMPI PUSH1 0x0 DUP1 REVERT JUMPDEST PUSH1 0x0 PUSH20 0x0 PUSH4 0xE89D408D PUSH1 0x40 MLOAD DUP2 PUSH4 0xFFFFFFFF AND PUSH1 0xE0 SHL DUP2 MSTORE PUSH1 0x4 ADD PUSH1 0x20 PUSH1 0x40 MLOAD DUP1 DUP4 SUB DUP2 DUP7 DUP1 EXTCODESIZE ISZERO DUP1 ISZERO PUSH2 0x2594 JUMPI PUSH1 0x0 DUP1 REVERT JUMPDEST POP GAS DELEGATECALL ISZERO DUP1 ISZERO PUSH2 0x25A8 JUMPI RETURNDATASIZE PUSH1 0x0 DUP1 RETURNDATACOPY RETURNDATASIZE PUSH1 0x0 REVERT JUMPDEST POP POP POP POP PUSH1 0x40 MLOAD RETURNDATASIZE PUSH1 0x20 DUP2 LT ISZERO PUSH2 0x25BE JUMPI PUSH1 0x0 DUP1 REVERT JUMPDEST POP MLOAD PUSH1 0x40 DUP1 MLOAD PUSH4 0xE697ACE9 PUSH1 0xE0 SHL DUP2 MSTORE SWAP1 MLOAD PUSH1 0x1 PUSH1 0x1 PUSH1 0x40 SHL SUB SWAP1 SWAP3 AND SWAP2 PUSH20 0x0 SWAP2 PUSH4 0xE697ACE9 SWAP2 PUSH1 0x4 DUP1 DUP4 ADD SWAP3 PUSH1 0x20 SWAP3 SWAP2 SWAP1 DUP3 SWAP1 SUB ADD DUP2 DUP7 DUP1 EXTCODESIZE ISZERO DUP1 ISZERO PUSH2 0x1A45 JUMPI PUSH1 0x0 DUP1 REVERT JUMPDEST PUSH1 0x0 PUSH2 0xE24 PUSH20 0x0 PUSH4 0xA43E290F PUSH1 0x40 MLOAD DUP2 PUSH4 0xFFFFFFFF AND PUSH1 0xE0 SHL DUP2 MSTORE PUSH1 0x4 ADD PUSH1 0x20 PUSH1 0x40 MLOAD DUP1 DUP4 SUB DUP2 DUP7 DUP1 EXTCODESIZE ISZERO DUP1 ISZERO PUSH2 0xDF3 JUMPI PUSH1 0x0 DUP1 REVERT JUMPDEST PUSH2 0xDA7 PUSH20 0x0 PUSH4 0x521819F5 PUSH1 0x40 MLOAD DUP2 PUSH4 0xFFFFFFFF AND PUSH1 0xE0 SHL DUP2 MSTORE PUSH1 0x4 ADD PUSH1 0x20 PUSH1 0x40 MLOAD DUP1 DUP4 SUB DUP2 DUP7 DUP1 EXTCODESIZE ISZERO DUP1 ISZERO PUSH2 0xD75 JUMPI PUSH1 0x0 DUP1 REVERT JUMPDEST PUSH2 0xDA7 PUSH20 0x0 PUSH4 0xE2E2E712 PUSH1 0x40 MLOAD DUP2 PUSH4 0xFFFFFFFF AND PUSH1 0xE0 SHL DUP2 MSTORE PUSH1 0x4 ADD PUSH1 0x20 PUSH1 0x40 MLOAD DUP1 DUP4 SUB DUP2 DUP7 DUP1 EXTCODESIZE ISZERO DUP1 ISZERO PUSH2 0xD75 JUMPI PUSH1 0x0 DUP1 REVERT JUMPDEST PUSH1 0x0 PUSH2 0xE24 PUSH20 0x0 PUSH4 0xA279D71 PUSH1 0x40 MLOAD DUP2 PUSH4 0xFFFFFFFF AND PUSH1 0xE0 SHL DUP2 MSTORE PUSH1 0x4 ADD PUSH1 0x20 PUSH1 0x40 MLOAD DUP1 DUP4 SUB DUP2 DUP7 DUP1 EXTCODESIZE ISZERO DUP1 ISZERO PUSH2 0xDF3 JUMPI PUSH1 0x0 DUP1 REVERT JUMPDEST PUSH2 0xDA7 PUSH20 0x0 PUSH4 0x42DB3667 PUSH1 0x40 MLOAD DUP2 PUSH4 0xFFFFFFFF AND PUSH1 0xE0 SHL DUP2 MSTORE PUSH1 0x4 ADD PUSH1 0x20 PUSH1 0x40 MLOAD DUP1 DUP4 SUB DUP2 DUP7 DUP1 EXTCODESIZE ISZERO DUP1 ISZERO PUSH2 0xD75 JUMPI PUSH1 0x0 DUP1 REVERT JUMPDEST PUSH2 0xDA7 PUSH20 0x0 PUSH4 0xDA3E8D7B PUSH1 0x40 MLOAD DUP2 PUSH4 0xFFFFFFFF AND PUSH1 0xE0 SHL DUP2 MSTORE PUSH1 0x4 ADD PUSH1 0x20 PUSH1 0x40 MLOAD DUP1 DUP4 SUB DUP2 DUP7 DUP1 EXTCODESIZE ISZERO DUP1 ISZERO PUSH2 0xD75 JUMPI PUSH1 0x0 DUP1 REVERT JUMPDEST PUSH1 0x0 PUSH20 0x0 PUSH4 0x910A5247 PUSH1 0x40 MLOAD DUP2 PUSH4 0xFFFFFFFF AND PUSH1 0xE0 SHL DUP2 MSTORE PUSH1 0x4 ADD PUSH1 0x20 PUSH1 0x40 MLOAD DUP1 DUP4 SUB DUP2 DUP7 DUP1 EXTCODESIZE ISZERO DUP1 ISZERO PUSH2 0x280B JUMPI PUSH1 0x0 DUP1 REVERT JUMPDEST POP GAS DELEGATECALL ISZERO DUP1 ISZERO PUSH2 0x281F JUMPI RETURNDATASIZE PUSH1 0x0 DUP1 RETURNDATACOPY RETURNDATASIZE PUSH1 0x0 REVERT JUMPDEST POP POP POP POP PUSH1 0x40 MLOAD RETURNDATASIZE PUSH1 0x20 DUP2 LT ISZERO PUSH2 0x2835 JUMPI PUSH1 0x0 DUP1 REVERT JUMPDEST POP MLOAD PUSH1 0x40 DUP1 MLOAD PUSH4 0x317D2BB5 PUSH1 0xE0 SHL DUP2 MSTORE SWAP1 MLOAD PUSH1 0x1 PUSH1 0x1 PUSH1 0x40 SHL SUB SWAP1 SWAP3 AND SWAP2 PUSH20 0x0 SWAP2 PUSH4 0x317D2BB5 SWAP2 PUSH1 0x4 DUP1 DUP4 ADD SWAP3 PUSH1 0x20 SWAP3 SWAP2 SWAP1 DUP3 SWAP1 SUB ADD DUP2 DUP7 DUP1 EXTCODESIZE ISZERO DUP1 ISZERO PUSH2 0x1A45 JUMPI PUSH1 0x0 DUP1 REVERT JUMPDEST PUSH2 0xDA7 PUSH20 0x0 PUSH4 0xD41A5B59 PUSH1 0x40 MLOAD DUP2 PUSH4 0xFFFFFFFF AND PUSH1 0xE0 SHL DUP2 MSTORE PUSH1 0x4 ADD PUSH1 0x20 PUSH1 0x40 MLOAD DUP1 DUP4 SUB DUP2 DUP7 DUP1 EXTCODESIZE ISZERO DUP1 ISZERO PUSH2 0xD75 JUMPI PUSH1 0x0 DUP1 REVERT JUMPDEST PUSH1 0x0 PUSH20 0x0 PUSH4 0xBF1924C5 PUSH2 0x28FC DUP5 PUSH1 0x1 PUSH2 0x2C12 JUMP JUMPDEST PUSH1 0xC0 SHR PUSH1 0x40 MLOAD DUP3 PUSH4 0xFFFFFFFF AND PUSH1 0xE0 SHL DUP2 MSTORE PUSH1 0x4 ADD DUP1 DUP3 PUSH1 0x1 PUSH1 0x1 PUSH1 0x40 SHL SUB AND DUP2 MSTORE PUSH1 0x20 ADD SWAP2 POP POP PUSH1 0x20 PUSH1 0x40 MLOAD DUP1 DUP4 SUB DUP2 DUP7 DUP1 EXTCODESIZE ISZERO DUP1 ISZERO PUSH2 0x293C JUMPI PUSH1 0x0 DUP1 REVERT JUMPDEST POP GAS DELEGATECALL ISZERO DUP1 ISZERO PUSH2 0x2950 JUMPI RETURNDATASIZE PUSH1 0x0 DUP1 RETURNDATACOPY RETURNDATASIZE PUSH1 0x0 REVERT JUMPDEST POP POP POP POP PUSH1 0x40 MLOAD RETURNDATASIZE PUSH1 0x20 DUP2 LT ISZERO PUSH2 0x2966 JUMPI PUSH1 0x0 DUP1 REVERT JUMPDEST POP MLOAD SWAP3 SWAP2 POP POP JUMP JUMPDEST PUSH2 0xDA7 PUSH20 0x0 PUSH4 0x87098135 PUSH1 0x40 MLOAD DUP2 PUSH4 0xFFFFFFFF AND PUSH1 0xE0 SHL DUP2 MSTORE PUSH1 0x4 ADD PUSH1 0x20 PUSH1 0x40 MLOAD DUP1 DUP4 SUB DUP2 DUP7 DUP1 EXTCODESIZE ISZERO DUP1 ISZERO PUSH2 0xD75 JUMPI PUSH1 0x0 DUP1 REVERT JUMPDEST PUSH1 0x0 PUSH1 0x8 PUSH1 0x1 PUSH1 0x1 PUSH1 0x40 SHL SUB DUP4 AND DIV SWAP1 POP DUP1 PUSH1 0x1 PUSH1 0x1 PUSH1 0x40 SHL SUB AND PUSH1 0x8 EQ ISZERO PUSH2 0x29E7 JUMPI PUSH2 0x29E2 DUP5 DUP5 PUSH2 0x1B60 JUMP JUMPDEST PUSH2 0x1F53 JUMP JUMPDEST PUSH1 0x7 NOT DUP5 AND DUP1 DUP6 SUB PUSH1 0x0 PUSH2 0x29FA DUP4 PUSH2 0x2BFC JUMP JUMPDEST SWAP1 POP PUSH1 0x0 PUSH20 0x0 PUSH4 0xBF1924C5 DUP5 PUSH1 0x8 MUL PUSH1 0x1 PUSH1 0x1 PUSH1 0x40 SHL SUB AND PUSH1 0x1 DUP10 PUSH1 0x1 PUSH1 0x1 PUSH1 0x40 SHL SUB AND PUSH1 0x2 PUSH1 0x1 PUSH1 0x1 PUSH1 0x40 SHL SUB AND EXP SUB PUSH1 0x1 PUSH1 0x1 PUSH1 0x40 SHL SUB AND SWAP1 SHL PUSH1 0x40 MLOAD DUP3 PUSH4 0xFFFFFFFF AND PUSH1 0xE0 SHL DUP2 MSTORE PUSH1 0x4 ADD DUP1 DUP3 PUSH1 0x1 PUSH1 0x1 PUSH1 0x40 SHL SUB AND DUP2 MSTORE PUSH1 0x20 ADD SWAP2 POP POP PUSH1 0x20 PUSH1 0x40 MLOAD DUP1 DUP4 SUB DUP2 DUP7 DUP1 EXTCODESIZE ISZERO DUP1 ISZERO PUSH2 0x2A86 JUMPI PUSH1 0x0 DUP1 REVERT JUMPDEST POP GAS DELEGATECALL ISZERO DUP1 ISZERO PUSH2 0x2A9A JUMPI RETURNDATASIZE PUSH1 0x0 DUP1 RETURNDATACOPY RETURNDATASIZE PUSH1 0x0 REVERT JUMPDEST POP POP POP POP PUSH1 0x40 MLOAD RETURNDATASIZE PUSH1 0x20 DUP2 LT ISZERO PUSH2 0x2AB0 JUMPI PUSH1 0x0 DUP1 REVERT JUMPDEST POP MLOAD PUSH1 0x40 DUP1 MLOAD PUSH4 0xBF1924C5 PUSH1 0xE0 SHL DUP2 MSTORE PUSH1 0x1 PUSH1 0x1 PUSH1 0x40 SHL SUB DUP10 DUP2 AND PUSH1 0x2 EXP PUSH1 0x0 NOT ADD DUP12 AND AND PUSH1 0x4 DUP3 ADD MSTORE SWAP1 MLOAD SWAP2 SWAP3 POP PUSH1 0x0 SWAP2 PUSH20 0x0 SWAP2 PUSH4 0xBF1924C5 SWAP2 PUSH1 0x24 DUP1 DUP4 ADD SWAP3 PUSH1 0x20 SWAP3 SWAP2 SWAP1 DUP3 SWAP1 SUB ADD DUP2 DUP7 DUP1 EXTCODESIZE ISZERO DUP1 ISZERO PUSH2 0x2B1D JUMPI PUSH1 0x0 DUP1 REVERT JUMPDEST POP GAS DELEGATECALL ISZERO DUP1 ISZERO PUSH2 0x2B31 JUMPI RETURNDATASIZE PUSH1 0x0 DUP1 RETURNDATACOPY RETURNDATASIZE PUSH1 0x0 REVERT JUMPDEST POP POP POP POP PUSH1 0x40 MLOAD RETURNDATASIZE PUSH1 0x20 DUP2 LT ISZERO PUSH2 0x2B47 JUMPI PUSH1 0x0 DUP1 REVERT JUMPDEST POP MLOAD PUSH1 0x40 DUP1 MLOAD PUSH4 0xBF1924C5 PUSH1 0xE0 SHL DUP2 MSTORE PUSH1 0x1 PUSH1 0x1 PUSH1 0x40 SHL SUB DUP1 DUP5 AND PUSH1 0x8 DUP10 MUL DUP3 AND SHR DUP7 NOT DUP9 AND OR SWAP1 DUP2 AND PUSH1 0x4 DUP4 ADD MSTORE SWAP2 MLOAD SWAP3 SWAP4 POP SWAP1 SWAP2 PUSH20 0x0 SWAP2 PUSH4 0xBF1924C5 SWAP2 PUSH1 0x24 DUP1 DUP4 ADD SWAP3 PUSH1 0x20 SWAP3 SWAP2 SWAP1 DUP3 SWAP1 SUB ADD DUP2 DUP7 DUP1 EXTCODESIZE ISZERO DUP1 ISZERO PUSH2 0x2BB8 JUMPI PUSH1 0x0 DUP1 REVERT JUMPDEST POP GAS DELEGATECALL ISZERO DUP1 ISZERO PUSH2 0x2BCC JUMPI RETURNDATASIZE PUSH1 0x0 DUP1 RETURNDATACOPY RETURNDATASIZE PUSH1 0x0 REVERT JUMPDEST POP POP POP POP PUSH1 0x40 MLOAD RETURNDATASIZE PUSH1 0x20 DUP2 LT ISZERO PUSH2 0x2BE2 JUMPI PUSH1 0x0 DUP1 REVERT JUMPDEST POP MLOAD SWAP1 POP PUSH2 0x2BF0 DUP7 DUP3 PUSH2 0x1B60 JUMP JUMPDEST POP POP POP POP POP POP POP POP POP POP JUMP JUMPDEST PUSH1 0x0 PUSH2 0x2C09 DUP3 PUSH1 0x1 PUSH2 0x2C12 JUMP JUMPDEST PUSH1 0xC0 SHR SWAP3 SWAP2 POP POP JUMP JUMPDEST PUSH1 0x0 DUP2 ISZERO ISZERO PUSH1 0x3 PUSH1 0x0 SLOAD DUP2 SLOAD DUP2 LT PUSH2 0x2C26 JUMPI INVALID JUMPDEST SWAP1 PUSH1 0x0 MSTORE PUSH1 0x20 PUSH1 0x0 KECCAK256 SWAP1 PUSH1 0x20 SWAP2 DUP3 DUP3 DIV ADD SWAP2 SWAP1 MOD SWAP1 SLOAD SWAP1 PUSH2 0x100 EXP SWAP1 DIV PUSH1 0xFF AND ISZERO ISZERO EQ PUSH2 0x2C9A JUMPI PUSH1 0x40 DUP1 MLOAD PUSH3 0x461BCD PUSH1 0xE5 SHL DUP2 MSTORE PUSH1 0x20 PUSH1 0x4 DUP3 ADD MSTORE PUSH1 0x1F PUSH1 0x24 DUP3 ADD MSTORE PUSH32 0x41636365737320776173206E6F742074686520636F7272656374207479706500 PUSH1 0x44 DUP3 ADD MSTORE SWAP1 MLOAD SWAP1 DUP2 SWAP1 SUB PUSH1 0x64 ADD SWAP1 REVERT JUMPDEST PUSH1 0x0 PUSH1 0x1 PUSH1 0x0 SLOAD DUP2 SLOAD DUP2 LT PUSH2 0x2CAB JUMPI INVALID JUMPDEST SWAP1 PUSH1 0x0 MSTORE PUSH1 0x20 PUSH1 0x0 KECCAK256 SWAP1 PUSH1 0x4 SWAP2 DUP3 DUP3 DIV ADD SWAP2 SWAP1 MOD PUSH1 0x8 MUL SWAP1 SLOAD SWAP1 PUSH2 0x100 EXP SWAP1 DIV PUSH1 0x1 PUSH1 0x1 PUSH1 0x40 SHL SUB AND SWAP1 POP PUSH1 0x0 PUSH1 0x2 PUSH1 0x0 SLOAD DUP2 SLOAD DUP2 LT PUSH2 0x2CE7 JUMPI INVALID JUMPDEST PUSH1 0x0 SWAP2 DUP3 MSTORE PUSH1 0x20 DUP3 KECCAK256 PUSH1 0x4 DUP3 DIV ADD SLOAD DUP3 SLOAD PUSH1 0x1 ADD SWAP1 SWAP3 SSTORE PUSH1 0x3 AND PUSH1 0x8 MUL PUSH2 0x100 EXP SWAP1 DIV PUSH1 0xC0 SHL SWAP1 POP PUSH1 0x7 DUP3 AND ISZERO PUSH2 0x2D65 JUMPI PUSH1 0x40 DUP1 MLOAD PUSH3 0x461BCD PUSH1 0xE5 SHL DUP2 MSTORE PUSH1 0x20 PUSH1 0x4 DUP3 ADD MSTORE PUSH1 0x17 PUSH1 0x24 DUP3 ADD MSTORE PUSH32 0x506F736974696F6E206973206E6F7420616C69676E6564000000000000000000 PUSH1 0x44 DUP3 ADD MSTORE SWAP1 MLOAD SWAP1 DUP2 SWAP1 SUB PUSH1 0x64 ADD SWAP1 REVERT JUMPDEST DUP5 PUSH1 0x1 PUSH1 0x1 PUSH1 0x40 SHL SUB AND DUP3 PUSH1 0x1 PUSH1 0x1 PUSH1 0x40 SHL SUB AND EQ PUSH2 0x2DB5 JUMPI PUSH1 0x40 MLOAD PUSH3 0x461BCD PUSH1 0xE5 SHL DUP2 MSTORE PUSH1 0x4 ADD DUP1 DUP1 PUSH1 0x20 ADD DUP3 DUP2 SUB DUP3 MSTORE PUSH1 0x26 DUP2 MSTORE PUSH1 0x20 ADD DUP1 PUSH2 0x2F8B PUSH1 0x26 SWAP2 CODECOPY PUSH1 0x40 ADD SWAP2 POP POP PUSH1 0x40 MLOAD DUP1 SWAP2 SUB SWAP1 REVERT JUMPDEST SWAP5 SWAP4 POP POP POP POP JUMP JUMPDEST DUP3 DUP1 SLOAD DUP3 DUP3 SSTORE SWAP1 PUSH1 0x0 MSTORE PUSH1 0x20 PUSH1 0x0 KECCAK256 SWAP1 PUSH1 0x3 ADD PUSH1 0x4 SWAP1 DIV DUP2 ADD SWAP3 DUP3 ISZERO PUSH2 0x2E65 JUMPI SWAP2 PUSH1 0x20 MUL DUP3 ADD PUSH1 0x0 JUMPDEST DUP4 DUP3 GT ISZERO PUSH2 0x2E30 JUMPI DUP4 MLOAD DUP4 DUP3 PUSH2 0x100 EXP DUP2 SLOAD DUP2 PUSH1 0x1 PUSH1 0x1 PUSH1 0x40 SHL SUB MUL NOT AND SWAP1 DUP4 PUSH1 0x1 PUSH1 0x1 PUSH1 0x40 SHL SUB AND MUL OR SWAP1 SSTORE POP SWAP3 PUSH1 0x20 ADD SWAP3 PUSH1 0x8 ADD PUSH1 0x20 DUP2 PUSH1 0x7 ADD DIV SWAP3 DUP4 ADD SWAP3 PUSH1 0x1 SUB MUL PUSH2 0x2DE6 JUMP JUMPDEST DUP1 ISZERO PUSH2 0x2E63 JUMPI DUP3 DUP2 PUSH2 0x100 EXP DUP2 SLOAD SWAP1 PUSH1 0x1 PUSH1 0x1 PUSH1 0x40 SHL SUB MUL NOT AND SWAP1 SSTORE PUSH1 0x8 ADD PUSH1 0x20 DUP2 PUSH1 0x7 ADD DIV SWAP3 DUP4 ADD SWAP3 PUSH1 0x1 SUB MUL PUSH2 0x2E30 JUMP JUMPDEST POP JUMPDEST POP PUSH2 0x2E71 SWAP3 SWAP2 POP PUSH2 0x2F75 JUMP JUMPDEST POP SWAP1 JUMP JUMPDEST DUP3 DUP1 SLOAD DUP3 DUP3 SSTORE SWAP1 PUSH1 0x0 MSTORE PUSH1 0x20 PUSH1 0x0 KECCAK256 SWAP1 PUSH1 0x3 ADD PUSH1 0x4 SWAP1 DIV DUP2 ADD SWAP3 DUP3 ISZERO PUSH2 0x2E65 JUMPI SWAP2 PUSH1 0x20 MUL DUP3 ADD PUSH1 0x0 JUMPDEST DUP4 DUP3 GT ISZERO PUSH2 0x2E30 JUMPI DUP4 MLOAD DUP4 DUP3 PUSH2 0x100 EXP DUP2 SLOAD DUP2 PUSH1 0x1 PUSH1 0x1 PUSH1 0x40 SHL SUB MUL NOT AND SWAP1 DUP4 PUSH1 0xC0 SHR MUL OR SWAP1 SSTORE POP SWAP3 PUSH1 0x20 ADD SWAP3 PUSH1 0x8 ADD PUSH1 0x20 DUP2 PUSH1 0x7 ADD DIV SWAP3 DUP4 ADD SWAP3 PUSH1 0x1 SUB MUL PUSH2 0x2E9E JUMP JUMPDEST DUP3 DUP1 SLOAD DUP3 DUP3 SSTORE SWAP1 PUSH1 0x0 MSTORE PUSH1 0x20 PUSH1 0x0 KECCAK256 SWAP1 PUSH1 0x1F ADD PUSH1 0x20 SWAP1 DIV DUP2 ADD SWAP3 DUP3 ISZERO PUSH2 0x2E65 JUMPI SWAP2 PUSH1 0x20 MUL DUP3 ADD PUSH1 0x0 JUMPDEST DUP4 DUP3 GT ISZERO PUSH2 0x2F48 JUMPI DUP4 MLOAD DUP4 DUP3 PUSH2 0x100 EXP DUP2 SLOAD DUP2 PUSH1 0xFF MUL NOT AND SWAP1 DUP4 ISZERO ISZERO MUL OR SWAP1 SSTORE POP SWAP3 PUSH1 0x20 ADD SWAP3 PUSH1 0x1 ADD PUSH1 0x20 DUP2 PUSH1 0x0 ADD DIV SWAP3 DUP4 ADD SWAP3 PUSH1 0x1 SUB MUL PUSH2 0x2F0B JUMP JUMPDEST DUP1 ISZERO PUSH2 0x2E63 JUMPI DUP3 DUP2 PUSH2 0x100 EXP DUP2 SLOAD SWAP1 PUSH1 0xFF MUL NOT AND SWAP1 SSTORE PUSH1 0x1 ADD PUSH1 0x20 DUP2 PUSH1 0x0 ADD DIV SWAP3 DUP4 ADD SWAP3 PUSH1 0x1 SUB MUL PUSH2 0x2F48 JUMP JUMPDEST JUMPDEST DUP1 DUP3 GT ISZERO PUSH2 0x2E71 JUMPI PUSH1 0x0 DUP2 SSTORE PUSH1 0x1 ADD PUSH2 0x2F76 JUMP INVALID POP PUSH16 0x736974696F6E20616E64207265616420 PUSH2 0x6464 PUSH19 0x65737320646F206E6F74206D61746368526561 PUSH5 0x2F77726974 PUSH6 0x206172726179 PUSH20 0x20617265206E6F74207468652073616D65207369 PUSH27 0x65A2646970667358221220AC1F61EC2FA57D76C6E3E3B8FD192B4C KECCAK256 0xDB 0xF9 0xA9 SELFBALANCE CALLDATALOAD 0xCB PC EXTCODESIZE SIGNEXTEND PUSH21 0x8793B8DE5864736F6C634300070400330000000000 "
    },
    "gasEstimates": {
      "creation": {
        "codeDepositCost": "2460200",
        "executionCost": "2650",
        "totalCost": "2462850"
      },
      "external": {
        "getRWIndex()": "1068",
        "initializeMemory(uint64[],bytes8[],bool[])": "infinite",
        "memoryRead(uint64)": "infinite",
        "memoryWrite(uint64,uint64)": "infinite",
        "readClintMtimecmp()": "infinite",
        "readHtifFromhost()": "infinite",
        "readHtifIConsole()": "infinite",
        "readHtifIHalt()": "infinite",
        "readHtifIYield()": "infinite",
        "readHtifTohost()": "infinite",
        "readIflags()": "infinite",
        "readIflagsH()": "infinite",
        "readIflagsPrv()": "infinite",
        "readIflagsX()": "infinite",
        "readIflagsY()": "infinite",
        "readIlrsc()": "infinite",
        "readMarchid()": "infinite",
        "readMcause()": "infinite",
        "readMcounteren()": "infinite",
        "readMcycle()": "infinite",
        "readMedeleg()": "infinite",
        "readMemory(uint64,uint64)": "infinite",
        "readMepc()": "infinite",
        "readMideleg()": "infinite",
        "readMie()": "infinite",
        "readMimpid()": "infinite",
        "readMinstret()": "infinite",
        "readMip()": "infinite",
        "readMisa()": "infinite",
        "readMscratch()": "infinite",
        "readMstatus()": "infinite",
        "readMtval()": "infinite",
        "readMtvec()": "infinite",
        "readMvendorid()": "infinite",
        "readPc()": "infinite",
        "readSatp()": "infinite",
        "readScause()": "infinite",
        "readScounteren()": "infinite",
        "readSepc()": "infinite",
        "readSscratch()": "infinite",
        "readStval()": "infinite",
        "readStvec()": "infinite",
        "readX(uint64)": "infinite",
        "resetMip(uint64)": "infinite",
        "setIflagsH(bool)": "infinite",
        "setIflagsX(bool)": "infinite",
        "setIflagsY(bool)": "infinite",
        "setMip(uint64)": "infinite",
        "setPriv(uint64)": "infinite",
        "writeClintMtimecmp(uint64)": "infinite",
        "writeHtifFromhost(uint64)": "infinite",
        "writeHtifTohost(uint64)": "infinite",
        "writeIflagsPrv(uint64)": "infinite",
        "writeIlrsc(uint64)": "infinite",
        "writeMcause(uint64)": "infinite",
        "writeMcounteren(uint64)": "infinite",
        "writeMcycle(uint64)": "infinite",
        "writeMedeleg(uint64)": "infinite",
        "writeMemory(uint64,uint64,uint64)": "infinite",
        "writeMepc(uint64)": "infinite",
        "writeMideleg(uint64)": "infinite",
        "writeMie(uint64)": "infinite",
        "writeMinstret(uint64)": "infinite",
        "writeMip(uint64)": "infinite",
        "writeMscratch(uint64)": "infinite",
        "writeMstatus(uint64)": "infinite",
        "writeMtval(uint64)": "infinite",
        "writeMtvec(uint64)": "infinite",
        "writePc(uint64)": "infinite",
        "writeSatp(uint64)": "infinite",
        "writeScause(uint64)": "infinite",
        "writeScounteren(uint64)": "infinite",
        "writeSepc(uint64)": "infinite",
        "writeSscratch(uint64)": "infinite",
        "writeStval(uint64)": "infinite",
        "writeStvec(uint64)": "infinite",
        "writeX(uint64,uint64)": "infinite"
      },
      "internal": {
        "memoryAccessManager(uint64,bool)": "infinite",
        "pureMemoryRead(uint64)": "infinite",
        "pureMemoryWrite(uint64,uint64)": "infinite"
      }
    },
    "methodIdentifiers": {
      "getRWIndex()": "080aa5d1",
      "initializeMemory(uint64[],bytes8[],bool[])": "a47594df",
      "memoryRead(uint64)": "fa644af5",
      "memoryWrite(uint64,uint64)": "8e32f35e",
      "readClintMtimecmp()": "6475e342",
      "readHtifFromhost()": "f2cf6ceb",
      "readHtifIConsole()": "b8fd205c",
      "readHtifIHalt()": "768365ea",
      "readHtifIYield()": "6f6c0e7d",
      "readHtifTohost()": "34970f18",
      "readIflags()": "c133b7ff",
      "readIflagsH()": "968644f0",
      "readIflagsPrv()": "f7ac913d",
      "readIflagsX()": "86099c54",
      "readIflagsY()": "d40d17c5",
      "readIlrsc()": "5dadd78a",
      "readMarchid()": "854dba40",
      "readMcause()": "51bb3615",
      "readMcounteren()": "9485871b",
      "readMcycle()": "daded5c2",
      "readMedeleg()": "6a72b27d",
      "readMemory(uint64,uint64)": "50cec2d5",
      "readMepc()": "1e5e6190",
      "readMideleg()": "a740dbc1",
      "readMie()": "cc92cbf7",
      "readMimpid()": "becdc10d",
      "readMinstret()": "28520b30",
      "readMip()": "a317ce9d",
      "readMisa()": "834aa4f6",
      "readMscratch()": "af63b2a8",
      "readMstatus()": "b5b98ed4",
      "readMtval()": "6cd24daf",
      "readMtvec()": "11cf3a22",
      "readMvendorid()": "5f824bf9",
      "readPc()": "650ca32b",
      "readSatp()": "1bf2f73d",
      "readScause()": "568b2702",
      "readScounteren()": "4ae9388b",
      "readSepc()": "18e504db",
      "readSscratch()": "9b7021ce",
      "readStval()": "2e963a80",
      "readStvec()": "0f84c046",
      "readX(uint64)": "6232e59c",
      "resetMip(uint64)": "15dd9c06",
      "setIflagsH(bool)": "a7458b95",
      "setIflagsX(bool)": "b27ec920",
      "setIflagsY(bool)": "3a48bb56",
      "setMip(uint64)": "45057ed7",
      "setPriv(uint64)": "54749af3",
      "writeClintMtimecmp(uint64)": "fbdb975d",
      "writeHtifFromhost(uint64)": "b2325aef",
      "writeHtifTohost(uint64)": "dd5c4a14",
      "writeIflagsPrv(uint64)": "cecdae53",
      "writeIlrsc(uint64)": "f21d94f8",
      "writeMcause(uint64)": "89365909",
      "writeMcounteren(uint64)": "2ca2bd16",
      "writeMcycle(uint64)": "5e5ca652",
      "writeMedeleg(uint64)": "575832df",
      "writeMemory(uint64,uint64,uint64)": "fd295abe",
      "writeMepc(uint64)": "28751b36",
      "writeMideleg(uint64)": "d2be7b6d",
      "writeMie(uint64)": "86676d43",
      "writeMinstret(uint64)": "10d74c7d",
      "writeMip(uint64)": "aaed4f07",
      "writeMscratch(uint64)": "0df3e295",
      "writeMstatus(uint64)": "f55c4d38",
      "writeMtval(uint64)": "f604edb8",
      "writeMtvec(uint64)": "9c872d02",
      "writePc(uint64)": "f9911587",
      "writeSatp(uint64)": "ab9779b7",
      "writeScause(uint64)": "78c49574",
      "writeScounteren(uint64)": "78ddee75",
      "writeSepc(uint64)": "57907837",
      "writeSscratch(uint64)": "5af47ca7",
      "writeStval(uint64)": "9c7b005d",
      "writeStvec(uint64)": "cbc446b1",
      "writeX(uint64,uint64)": "6dc95c2e"
    }
  },
  "storageLayout": {
    "storage": [
      {
        "astId": 5841,
        "contract": "contracts/MemoryInteractor.sol:MemoryInteractor",
        "label": "rwIndex",
        "offset": 0,
        "slot": "0",
        "type": "t_uint256"
      },
      {
        "astId": 5844,
        "contract": "contracts/MemoryInteractor.sol:MemoryInteractor",
        "label": "rwPositions",
        "offset": 0,
        "slot": "1",
        "type": "t_array(t_uint64)dyn_storage"
      },
      {
        "astId": 5847,
        "contract": "contracts/MemoryInteractor.sol:MemoryInteractor",
        "label": "rwValues",
        "offset": 0,
        "slot": "2",
        "type": "t_array(t_bytes8)dyn_storage"
      },
      {
        "astId": 5850,
        "contract": "contracts/MemoryInteractor.sol:MemoryInteractor",
        "label": "isRead",
        "offset": 0,
        "slot": "3",
        "type": "t_array(t_bool)dyn_storage"
      }
    ],
    "types": {
      "t_array(t_bool)dyn_storage": {
        "base": "t_bool",
        "encoding": "dynamic_array",
        "label": "bool[]",
        "numberOfBytes": "32"
      },
      "t_array(t_bytes8)dyn_storage": {
        "base": "t_bytes8",
        "encoding": "dynamic_array",
        "label": "bytes8[]",
        "numberOfBytes": "32"
      },
      "t_array(t_uint64)dyn_storage": {
        "base": "t_uint64",
        "encoding": "dynamic_array",
        "label": "uint64[]",
        "numberOfBytes": "32"
      },
      "t_bool": {
        "encoding": "inplace",
        "label": "bool",
        "numberOfBytes": "1"
      },
      "t_bytes8": {
        "encoding": "inplace",
        "label": "bytes8",
        "numberOfBytes": "8"
      },
      "t_uint256": {
        "encoding": "inplace",
        "label": "uint256",
        "numberOfBytes": "32"
      },
      "t_uint64": {
        "encoding": "inplace",
        "label": "uint64",
        "numberOfBytes": "8"
      }
    }
  },
  "userdoc": {
    "kind": "user",
    "methods": {},
    "notice": "Bridge between Memory Manager and Step",
    "version": 1
  }
}