{
  "contractName": "MemoryInteractor",
  "sourceName": "contracts/MemoryInteractor.sol",
  "abi": [
    {
      "inputs": [],
      "name": "getRWIndex",
      "outputs": [
        {
          "internalType": "uint256",
          "name": "",
          "type": "uint256"
        }
      ],
      "stateMutability": "view",
      "type": "function"
    },
    {
      "inputs": [
        {
          "internalType": "uint64[]",
          "name": "_rwPositions",
          "type": "uint64[]"
        },
        {
          "internalType": "bytes8[]",
          "name": "_rwValues",
          "type": "bytes8[]"
        },
        {
          "internalType": "bool[]",
          "name": "_isRead",
          "type": "bool[]"
        }
      ],
      "name": "initializeMemory",
      "outputs": [],
      "stateMutability": "nonpayable",
      "type": "function"
    },
    {
      "inputs": [
        {
          "internalType": "uint64",
          "name": "_readAddress",
          "type": "uint64"
        }
      ],
      "name": "memoryRead",
      "outputs": [
        {
          "internalType": "uint64",
          "name": "",
          "type": "uint64"
        }
      ],
      "stateMutability": "nonpayable",
      "type": "function"
    },
    {
      "inputs": [
        {
          "internalType": "uint64",
          "name": "_writeAddress",
          "type": "uint64"
        },
        {
          "internalType": "uint64",
          "name": "_value",
          "type": "uint64"
        }
      ],
      "name": "memoryWrite",
      "outputs": [],
      "stateMutability": "nonpayable",
      "type": "function"
    },
    {
      "inputs": [],
      "name": "readClintMtimecmp",
      "outputs": [
        {
          "internalType": "uint64",
          "name": "",
          "type": "uint64"
        }
      ],
      "stateMutability": "nonpayable",
      "type": "function"
    },
    {
      "inputs": [],
      "name": "readHtifFromhost",
      "outputs": [
        {
          "internalType": "uint64",
          "name": "",
          "type": "uint64"
        }
      ],
      "stateMutability": "nonpayable",
      "type": "function"
    },
    {
      "inputs": [],
      "name": "readHtifIYield",
      "outputs": [
        {
          "internalType": "uint64",
          "name": "",
          "type": "uint64"
        }
      ],
      "stateMutability": "nonpayable",
      "type": "function"
    },
    {
      "inputs": [],
      "name": "readHtifTohost",
      "outputs": [
        {
          "internalType": "uint64",
          "name": "",
          "type": "uint64"
        }
      ],
      "stateMutability": "nonpayable",
      "type": "function"
    },
    {
      "inputs": [],
      "name": "readIflags",
      "outputs": [
        {
          "internalType": "uint64",
          "name": "",
          "type": "uint64"
        }
      ],
      "stateMutability": "nonpayable",
      "type": "function"
    },
    {
      "inputs": [],
      "name": "readIflagsH",
      "outputs": [
        {
          "internalType": "uint64",
          "name": "",
          "type": "uint64"
        }
      ],
      "stateMutability": "nonpayable",
      "type": "function"
    },
    {
      "inputs": [],
      "name": "readIflagsPrv",
      "outputs": [
        {
          "internalType": "uint64",
          "name": "",
          "type": "uint64"
        }
      ],
      "stateMutability": "nonpayable",
      "type": "function"
    },
    {
      "inputs": [],
      "name": "readIflagsX",
      "outputs": [
        {
          "internalType": "uint64",
          "name": "",
          "type": "uint64"
        }
      ],
      "stateMutability": "nonpayable",
      "type": "function"
    },
    {
      "inputs": [],
      "name": "readIflagsY",
      "outputs": [
        {
          "internalType": "uint64",
          "name": "",
          "type": "uint64"
        }
      ],
      "stateMutability": "nonpayable",
      "type": "function"
    },
    {
      "inputs": [],
      "name": "readIlrsc",
      "outputs": [
        {
          "internalType": "uint64",
          "name": "",
          "type": "uint64"
        }
      ],
      "stateMutability": "nonpayable",
      "type": "function"
    },
    {
      "inputs": [],
      "name": "readMarchid",
      "outputs": [
        {
          "internalType": "uint64",
          "name": "",
          "type": "uint64"
        }
      ],
      "stateMutability": "nonpayable",
      "type": "function"
    },
    {
      "inputs": [],
      "name": "readMcause",
      "outputs": [
        {
          "internalType": "uint64",
          "name": "",
          "type": "uint64"
        }
      ],
      "stateMutability": "nonpayable",
      "type": "function"
    },
    {
      "inputs": [],
      "name": "readMcounteren",
      "outputs": [
        {
          "internalType": "uint64",
          "name": "",
          "type": "uint64"
        }
      ],
      "stateMutability": "nonpayable",
      "type": "function"
    },
    {
      "inputs": [],
      "name": "readMcycle",
      "outputs": [
        {
          "internalType": "uint64",
          "name": "",
          "type": "uint64"
        }
      ],
      "stateMutability": "nonpayable",
      "type": "function"
    },
    {
      "inputs": [],
      "name": "readMedeleg",
      "outputs": [
        {
          "internalType": "uint64",
          "name": "",
          "type": "uint64"
        }
      ],
      "stateMutability": "nonpayable",
      "type": "function"
    },
    {
      "inputs": [
        {
          "internalType": "uint64",
          "name": "paddr",
          "type": "uint64"
        },
        {
          "internalType": "uint64",
          "name": "wordSize",
          "type": "uint64"
        }
      ],
      "name": "readMemory",
      "outputs": [
        {
          "internalType": "uint64",
          "name": "",
          "type": "uint64"
        }
      ],
      "stateMutability": "nonpayable",
      "type": "function"
    },
    {
      "inputs": [],
      "name": "readMepc",
      "outputs": [
        {
          "internalType": "uint64",
          "name": "",
          "type": "uint64"
        }
      ],
      "stateMutability": "nonpayable",
      "type": "function"
    },
    {
      "inputs": [],
      "name": "readMideleg",
      "outputs": [
        {
          "internalType": "uint64",
          "name": "",
          "type": "uint64"
        }
      ],
      "stateMutability": "nonpayable",
      "type": "function"
    },
    {
      "inputs": [],
      "name": "readMie",
      "outputs": [
        {
          "internalType": "uint64",
          "name": "",
          "type": "uint64"
        }
      ],
      "stateMutability": "nonpayable",
      "type": "function"
    },
    {
      "inputs": [],
      "name": "readMimpid",
      "outputs": [
        {
          "internalType": "uint64",
          "name": "",
          "type": "uint64"
        }
      ],
      "stateMutability": "nonpayable",
      "type": "function"
    },
    {
      "inputs": [],
      "name": "readMinstret",
      "outputs": [
        {
          "internalType": "uint64",
          "name": "",
          "type": "uint64"
        }
      ],
      "stateMutability": "nonpayable",
      "type": "function"
    },
    {
      "inputs": [],
      "name": "readMip",
      "outputs": [
        {
          "internalType": "uint64",
          "name": "",
          "type": "uint64"
        }
      ],
      "stateMutability": "nonpayable",
      "type": "function"
    },
    {
      "inputs": [],
      "name": "readMisa",
      "outputs": [
        {
          "internalType": "uint64",
          "name": "",
          "type": "uint64"
        }
      ],
      "stateMutability": "nonpayable",
      "type": "function"
    },
    {
      "inputs": [],
      "name": "readMscratch",
      "outputs": [
        {
          "internalType": "uint64",
          "name": "",
          "type": "uint64"
        }
      ],
      "stateMutability": "nonpayable",
      "type": "function"
    },
    {
      "inputs": [],
      "name": "readMstatus",
      "outputs": [
        {
          "internalType": "uint64",
          "name": "",
          "type": "uint64"
        }
      ],
      "stateMutability": "nonpayable",
      "type": "function"
    },
    {
      "inputs": [],
      "name": "readMtval",
      "outputs": [
        {
          "internalType": "uint64",
          "name": "",
          "type": "uint64"
        }
      ],
      "stateMutability": "nonpayable",
      "type": "function"
    },
    {
      "inputs": [],
      "name": "readMtvec",
      "outputs": [
        {
          "internalType": "uint64",
          "name": "",
          "type": "uint64"
        }
      ],
      "stateMutability": "nonpayable",
      "type": "function"
    },
    {
      "inputs": [],
      "name": "readMvendorid",
      "outputs": [
        {
          "internalType": "uint64",
          "name": "",
          "type": "uint64"
        }
      ],
      "stateMutability": "nonpayable",
      "type": "function"
    },
    {
      "inputs": [],
      "name": "readPc",
      "outputs": [
        {
          "internalType": "uint64",
          "name": "",
          "type": "uint64"
        }
      ],
      "stateMutability": "nonpayable",
      "type": "function"
    },
    {
      "inputs": [],
      "name": "readSatp",
      "outputs": [
        {
          "internalType": "uint64",
          "name": "",
          "type": "uint64"
        }
      ],
      "stateMutability": "nonpayable",
      "type": "function"
    },
    {
      "inputs": [],
      "name": "readScause",
      "outputs": [
        {
          "internalType": "uint64",
          "name": "",
          "type": "uint64"
        }
      ],
      "stateMutability": "nonpayable",
      "type": "function"
    },
    {
      "inputs": [],
      "name": "readScounteren",
      "outputs": [
        {
          "internalType": "uint64",
          "name": "",
          "type": "uint64"
        }
      ],
      "stateMutability": "nonpayable",
      "type": "function"
    },
    {
      "inputs": [],
      "name": "readSepc",
      "outputs": [
        {
          "internalType": "uint64",
          "name": "",
          "type": "uint64"
        }
      ],
      "stateMutability": "nonpayable",
      "type": "function"
    },
    {
      "inputs": [],
      "name": "readSscratch",
      "outputs": [
        {
          "internalType": "uint64",
          "name": "",
          "type": "uint64"
        }
      ],
      "stateMutability": "nonpayable",
      "type": "function"
    },
    {
      "inputs": [],
      "name": "readStval",
      "outputs": [
        {
          "internalType": "uint64",
          "name": "",
          "type": "uint64"
        }
      ],
      "stateMutability": "nonpayable",
      "type": "function"
    },
    {
      "inputs": [],
      "name": "readStvec",
      "outputs": [
        {
          "internalType": "uint64",
          "name": "",
          "type": "uint64"
        }
      ],
      "stateMutability": "nonpayable",
      "type": "function"
    },
    {
      "inputs": [
        {
          "internalType": "uint64",
          "name": "registerIndex",
          "type": "uint64"
        }
      ],
      "name": "readX",
      "outputs": [
        {
          "internalType": "uint64",
          "name": "",
          "type": "uint64"
        }
      ],
      "stateMutability": "nonpayable",
      "type": "function"
    },
    {
      "inputs": [
        {
          "internalType": "uint64",
          "name": "mask",
          "type": "uint64"
        }
      ],
      "name": "resetMip",
      "outputs": [],
      "stateMutability": "nonpayable",
      "type": "function"
    },
    {
      "inputs": [
        {
          "internalType": "bool",
          "name": "halt",
          "type": "bool"
        }
      ],
      "name": "setIflagsH",
      "outputs": [],
      "stateMutability": "nonpayable",
      "type": "function"
    },
    {
      "inputs": [
        {
          "internalType": "bool",
          "name": "isAutomaticYield",
          "type": "bool"
        }
      ],
      "name": "setIflagsX",
      "outputs": [],
      "stateMutability": "nonpayable",
      "type": "function"
    },
    {
      "inputs": [
        {
          "internalType": "bool",
          "name": "isManualYield",
          "type": "bool"
        }
      ],
      "name": "setIflagsY",
      "outputs": [],
      "stateMutability": "nonpayable",
      "type": "function"
    },
    {
      "inputs": [
        {
          "internalType": "uint64",
          "name": "mask",
          "type": "uint64"
        }
      ],
      "name": "setMip",
      "outputs": [],
      "stateMutability": "nonpayable",
      "type": "function"
    },
    {
      "inputs": [
        {
          "internalType": "uint64",
          "name": "newPriv",
          "type": "uint64"
        }
      ],
      "name": "setPriv",
      "outputs": [],
      "stateMutability": "nonpayable",
      "type": "function"
    },
    {
      "inputs": [
        {
          "internalType": "uint64",
          "name": "value",
          "type": "uint64"
        }
      ],
      "name": "writeClintMtimecmp",
      "outputs": [],
      "stateMutability": "nonpayable",
      "type": "function"
    },
    {
      "inputs": [
        {
          "internalType": "uint64",
          "name": "value",
          "type": "uint64"
        }
      ],
      "name": "writeHtifFromhost",
      "outputs": [],
      "stateMutability": "nonpayable",
      "type": "function"
    },
    {
      "inputs": [
        {
          "internalType": "uint64",
          "name": "value",
          "type": "uint64"
        }
      ],
      "name": "writeHtifTohost",
      "outputs": [],
      "stateMutability": "nonpayable",
      "type": "function"
    },
    {
      "inputs": [
        {
          "internalType": "uint64",
          "name": "newPriv",
          "type": "uint64"
        }
      ],
      "name": "writeIflagsPrv",
      "outputs": [],
      "stateMutability": "nonpayable",
      "type": "function"
    },
    {
      "inputs": [
        {
          "internalType": "uint64",
          "name": "value",
          "type": "uint64"
        }
      ],
      "name": "writeIlrsc",
      "outputs": [],
      "stateMutability": "nonpayable",
      "type": "function"
    },
    {
      "inputs": [
        {
          "internalType": "uint64",
          "name": "value",
          "type": "uint64"
        }
      ],
      "name": "writeMcause",
      "outputs": [],
      "stateMutability": "nonpayable",
      "type": "function"
    },
    {
      "inputs": [
        {
          "internalType": "uint64",
          "name": "value",
          "type": "uint64"
        }
      ],
      "name": "writeMcounteren",
      "outputs": [],
      "stateMutability": "nonpayable",
      "type": "function"
    },
    {
      "inputs": [
        {
          "internalType": "uint64",
          "name": "value",
          "type": "uint64"
        }
      ],
      "name": "writeMcycle",
      "outputs": [],
      "stateMutability": "nonpayable",
      "type": "function"
    },
    {
      "inputs": [
        {
          "internalType": "uint64",
          "name": "value",
          "type": "uint64"
        }
      ],
      "name": "writeMedeleg",
      "outputs": [],
      "stateMutability": "nonpayable",
      "type": "function"
    },
    {
      "inputs": [
        {
          "internalType": "uint64",
          "name": "paddr",
          "type": "uint64"
        },
        {
          "internalType": "uint64",
          "name": "value",
          "type": "uint64"
        },
        {
          "internalType": "uint64",
          "name": "wordSize",
          "type": "uint64"
        }
      ],
      "name": "writeMemory",
      "outputs": [],
      "stateMutability": "nonpayable",
      "type": "function"
    },
    {
      "inputs": [
        {
          "internalType": "uint64",
          "name": "value",
          "type": "uint64"
        }
      ],
      "name": "writeMepc",
      "outputs": [],
      "stateMutability": "nonpayable",
      "type": "function"
    },
    {
      "inputs": [
        {
          "internalType": "uint64",
          "name": "value",
          "type": "uint64"
        }
      ],
      "name": "writeMideleg",
      "outputs": [],
      "stateMutability": "nonpayable",
      "type": "function"
    },
    {
      "inputs": [
        {
          "internalType": "uint64",
          "name": "value",
          "type": "uint64"
        }
      ],
      "name": "writeMie",
      "outputs": [],
      "stateMutability": "nonpayable",
      "type": "function"
    },
    {
      "inputs": [
        {
          "internalType": "uint64",
          "name": "value",
          "type": "uint64"
        }
      ],
      "name": "writeMinstret",
      "outputs": [],
      "stateMutability": "nonpayable",
      "type": "function"
    },
    {
      "inputs": [
        {
          "internalType": "uint64",
          "name": "value",
          "type": "uint64"
        }
      ],
      "name": "writeMip",
      "outputs": [],
      "stateMutability": "nonpayable",
      "type": "function"
    },
    {
      "inputs": [
        {
          "internalType": "uint64",
          "name": "value",
          "type": "uint64"
        }
      ],
      "name": "writeMscratch",
      "outputs": [],
      "stateMutability": "nonpayable",
      "type": "function"
    },
    {
      "inputs": [
        {
          "internalType": "uint64",
          "name": "value",
          "type": "uint64"
        }
      ],
      "name": "writeMstatus",
      "outputs": [],
      "stateMutability": "nonpayable",
      "type": "function"
    },
    {
      "inputs": [
        {
          "internalType": "uint64",
          "name": "value",
          "type": "uint64"
        }
      ],
      "name": "writeMtval",
      "outputs": [],
      "stateMutability": "nonpayable",
      "type": "function"
    },
    {
      "inputs": [
        {
          "internalType": "uint64",
          "name": "value",
          "type": "uint64"
        }
      ],
      "name": "writeMtvec",
      "outputs": [],
      "stateMutability": "nonpayable",
      "type": "function"
    },
    {
      "inputs": [
        {
          "internalType": "uint64",
          "name": "value",
          "type": "uint64"
        }
      ],
      "name": "writePc",
      "outputs": [],
      "stateMutability": "nonpayable",
      "type": "function"
    },
    {
      "inputs": [
        {
          "internalType": "uint64",
          "name": "value",
          "type": "uint64"
        }
      ],
      "name": "writeSatp",
      "outputs": [],
      "stateMutability": "nonpayable",
      "type": "function"
    },
    {
      "inputs": [
        {
          "internalType": "uint64",
          "name": "value",
          "type": "uint64"
        }
      ],
      "name": "writeScause",
      "outputs": [],
      "stateMutability": "nonpayable",
      "type": "function"
    },
    {
      "inputs": [
        {
          "internalType": "uint64",
          "name": "value",
          "type": "uint64"
        }
      ],
      "name": "writeScounteren",
      "outputs": [],
      "stateMutability": "nonpayable",
      "type": "function"
    },
    {
      "inputs": [
        {
          "internalType": "uint64",
          "name": "value",
          "type": "uint64"
        }
      ],
      "name": "writeSepc",
      "outputs": [],
      "stateMutability": "nonpayable",
      "type": "function"
    },
    {
      "inputs": [
        {
          "internalType": "uint64",
          "name": "value",
          "type": "uint64"
        }
      ],
      "name": "writeSscratch",
      "outputs": [],
      "stateMutability": "nonpayable",
      "type": "function"
    },
    {
      "inputs": [
        {
          "internalType": "uint64",
          "name": "value",
          "type": "uint64"
        }
      ],
      "name": "writeStval",
      "outputs": [],
      "stateMutability": "nonpayable",
      "type": "function"
    },
    {
      "inputs": [
        {
          "internalType": "uint64",
          "name": "value",
          "type": "uint64"
        }
      ],
      "name": "writeStvec",
      "outputs": [],
      "stateMutability": "nonpayable",
      "type": "function"
    },
    {
      "inputs": [
        {
          "internalType": "uint64",
          "name": "registerindex",
          "type": "uint64"
        },
        {
          "internalType": "uint64",
          "name": "value",
          "type": "uint64"
        }
      ],
      "name": "writeX",
      "outputs": [],
      "stateMutability": "nonpayable",
      "type": "function"
    }
  ],
  "bytecode": "0x608060405234801561001057600080fd5b50612f55806100206000396000f3fe608060405234801561001057600080fd5b50600436106104495760003560e01c8063854dba4011610241578063b5b98ed41161013b578063dd5c4a14116100c3578063f7ac913d11610087578063f7ac913d14610c50578063f991158714610c58578063fa644af514610c7e578063fbdb975d14610ca4578063fd295abe14610cca57610449565b8063dd5c4a1414610bb0578063f21d94f814610bd6578063f2cf6ceb14610bfc578063f55c4d3814610c04578063f604edb814610c2a57610449565b8063cc92cbf71161010a578063cc92cbf714610b4c578063cecdae5314610b54578063d2be7b6d14610b7a578063d40d17c514610ba0578063daded5c214610ba857610449565b8063b5b98ed414610b0e578063becdc10d14610b16578063c133b7ff14610b1e578063cbc446b114610b2657610449565b80639c872d02116101c9578063aaed4f071161018d578063aaed4f0714610a75578063ab9779b714610a9b578063af63b2a814610ac1578063b2325aef14610ac9578063b27ec92014610aef57610449565b80639c872d0214610875578063a317ce9d1461089b578063a47594df146108a3578063a740dbc114610a4e578063a7458b9514610a5657610449565b80638e32f35e116102105780638e32f35e146108095780639485871b14610837578063968644f01461083f5780639b7021ce146108475780639c7b005d1461084f57610449565b8063854dba40146107ad57806386099c54146107b557806386676d43146107bd57806389365909146107e357610449565b806351bb3615116103525780636232e59c116102da5780636dc95c2e1161029e5780636dc95c2e146107235780636f6c0e7d1461075157806378c495741461075957806378ddee751461077f578063834aa4f6146107a557610449565b80636232e59c146106dd5780636475e34214610703578063650ca32b1461070b5780636a72b27d146107135780636cd24daf1461071b57610449565b80635790783711610321578063579078371461065b5780635af47ca7146106815780635dadd78a146106a75780635e5ca652146106af5780635f824bf9146106d557610449565b806351bb3615146105ff57806354749af314610607578063568b27021461062d578063575832df1461063557610449565b806328520b30116103d557806334970f18116103a457806334970f181461057c5780633a48bb561461058457806345057ed7146105a35780634ae9388b146105c957806350cec2d5146105d157610449565b806328520b301461052057806328751b36146105285780632ca2bd161461054e5780632e963a801461057457610449565b806311cf3a221161041c57806311cf3a22146104da57806315dd9c06146104e257806318e504db146105085780631bf2f73d146105105780631e5e61901461051857610449565b8063080aa5d11461044e5780630df3e295146104685780630f84c0461461049057806310d74c7d146104b4575b600080fd5b610456610d02565b60408051918252519081900360200190f35b61048e6004803603602081101561047e57600080fd5b50356001600160401b0316610d08565b005b610498610d84565b604080516001600160401b039092168252519081900360200190f35b61048e600480360360208110156104ca57600080fd5b50356001600160401b0316610e03565b610498610e4a565b61048e600480360360208110156104f857600080fd5b50356001600160401b0316610e93565b610498610eaf565b610498610ef8565b610498610f41565b610498610f8a565b61048e6004803603602081101561053e57600080fd5b50356001600160401b0316610fd3565b61048e6004803603602081101561056457600080fd5b50356001600160401b031661101a565b610498611061565b6104986110aa565b61048e6004803603602081101561059a57600080fd5b503515156110f3565b61048e600480360360208110156105b957600080fd5b50356001600160401b0316611235565b61049861124c565b610498600480360360408110156105e757600080fd5b506001600160401b0381358116916020013516611295565b61049861140b565b61048e6004803603602081101561061d57600080fd5b50356001600160401b0316611454565b610498611468565b61048e6004803603602081101561064b57600080fd5b50356001600160401b03166114b1565b61048e6004803603602081101561067157600080fd5b50356001600160401b03166114f8565b61048e6004803603602081101561069757600080fd5b50356001600160401b031661153f565b610498611586565b61048e600480360360208110156106c557600080fd5b50356001600160401b03166115cf565b610498611616565b610498600480360360208110156106f357600080fd5b50356001600160401b031661165f565b610498611673565b6104986116bc565b610498611705565b61049861174e565b61048e6004803603604081101561073957600080fd5b506001600160401b0381358116916020013516611797565b6104986117a4565b61048e6004803603602081101561076f57600080fd5b50356001600160401b03166117ed565b61048e6004803603602081101561079557600080fd5b50356001600160401b0316611834565b61049861187b565b6104986118c4565b61049861190d565b61048e600480360360208110156107d357600080fd5b50356001600160401b0316611a63565b61048e600480360360208110156107f957600080fd5b50356001600160401b0316611aaa565b61048e6004803603604081101561081f57600080fd5b506001600160401b0381358116916020013516611af1565b610498611bf3565b610498611c3c565b610498611d05565b61048e6004803603602081101561086557600080fd5b50356001600160401b0316611d4e565b61048e6004803603602081101561088b57600080fd5b50356001600160401b0316611d95565b610498611ddc565b61048e600480360360608110156108b957600080fd5b8101906020810181356401000000008111156108d457600080fd5b8201836020820111156108e657600080fd5b8035906020019184602083028401116401000000008311171561090857600080fd5b919080806020026020016040519081016040528093929190818152602001838360200280828437600092019190915250929594936020810193503591505064010000000081111561095857600080fd5b82018360208201111561096a57600080fd5b8035906020019184602083028401116401000000008311171561098c57600080fd5b91908080602002602001604051908101604052809392919081815260200183836020028082843760009201919091525092959493602081019350359150506401000000008111156109dc57600080fd5b8201836020820111156109ee57600080fd5b80359060200191846020830284011164010000000083111715610a1057600080fd5b919080806020026020016040519081016040528093929190818152602001838360200280828437600092019190915250929550611e25945050505050565b610498611eea565b61048e60048036036020811015610a6c57600080fd5b50351515611f33565b61048e60048036036020811015610a8b57600080fd5b50356001600160401b0316611fcd565b61048e60048036036020811015610ab157600080fd5b50356001600160401b0316612014565b61049861205b565b61048e60048036036020811015610adf57600080fd5b50356001600160401b03166120a4565b61048e60048036036020811015610b0557600080fd5b503515156120eb565b610498612185565b6104986121ce565b610498612217565b61048e60048036036020811015610b3c57600080fd5b50356001600160401b0316612260565b6104986122a7565b61048e60048036036020811015610b6a57600080fd5b50356001600160401b03166122f0565b61048e60048036036020811015610b9057600080fd5b50356001600160401b031661244f565b610498612496565b61049861255f565b61048e60048036036020811015610bc657600080fd5b50356001600160401b03166125a8565b61048e60048036036020811015610bec57600080fd5b50356001600160401b03166125ef565b610498612636565b61048e60048036036020811015610c1a57600080fd5b50356001600160401b031661267f565b61048e60048036036020811015610c4057600080fd5b50356001600160401b03166126c6565b61049861270d565b61048e60048036036020811015610c6e57600080fd5b50356001600160401b03166127d6565b61049860048036036020811015610c9457600080fd5b50356001600160401b031661281d565b61048e60048036036020811015610cba57600080fd5b50356001600160401b03166128b6565b61048e60048036036060811015610ce057600080fd5b506001600160401b0381358116916020810135821691604090910135166128fd565b60005490565b610d8173__$edd6a44efa4a8bdf57aa57ccba2bcfbb1d$__639a59734c6040518163ffffffff1660e01b815260040160206040518083038186803b158015610d4f57600080fd5b505af4158015610d63573d6000803e3d6000fd5b505050506040513d6020811015610d7957600080fd5b505182611af1565b50565b6000610dfe73__$edd6a44efa4a8bdf57aa57ccba2bcfbb1d$__636630ad876040518163ffffffff1660e01b815260040160206040518083038186803b158015610dcd57600080fd5b505af4158015610de1573d6000803e3d6000fd5b505050506040513d6020811015610df757600080fd5b505161281d565b905090565b610d8173__$edd6a44efa4a8bdf57aa57ccba2bcfbb1d$__6372eb67d06040518163ffffffff1660e01b815260040160206040518083038186803b158015610d4f57600080fd5b6000610dfe73__$edd6a44efa4a8bdf57aa57ccba2bcfbb1d$__638fd6b7c46040518163ffffffff1660e01b815260040160206040518083038186803b158015610dcd57600080fd5b6000610e9d611ddc565b8219169050610eab81611fcd565b5050565b6000610dfe73__$edd6a44efa4a8bdf57aa57ccba2bcfbb1d$__63734b96006040518163ffffffff1660e01b815260040160206040518083038186803b158015610dcd57600080fd5b6000610dfe73__$edd6a44efa4a8bdf57aa57ccba2bcfbb1d$__63443fd5986040518163ffffffff1660e01b815260040160206040518083038186803b158015610dcd57600080fd5b6000610dfe73__$edd6a44efa4a8bdf57aa57ccba2bcfbb1d$__63ca04595a6040518163ffffffff1660e01b815260040160206040518083038186803b158015610dcd57600080fd5b6000610dfe73__$edd6a44efa4a8bdf57aa57ccba2bcfbb1d$__6372eb67d06040518163ffffffff1660e01b815260040160206040518083038186803b158015610dcd57600080fd5b610d8173__$edd6a44efa4a8bdf57aa57ccba2bcfbb1d$__63ca04595a6040518163ffffffff1660e01b815260040160206040518083038186803b158015610d4f57600080fd5b610d8173__$edd6a44efa4a8bdf57aa57ccba2bcfbb1d$__63d124bd136040518163ffffffff1660e01b815260040160206040518083038186803b158015610d4f57600080fd5b6000610dfe73__$edd6a44efa4a8bdf57aa57ccba2bcfbb1d$__6329301cac6040518163ffffffff1660e01b815260040160206040518083038186803b158015610dcd57600080fd5b6000610dfe73__$96c0387300a4d16af366df01fc33f52e50$__63521819f56040518163ffffffff1660e01b815260040160206040518083038186803b158015610dcd57600080fd5b60006110fd612217565b9050811561117b5773__$6af7953b03ecb3cadd1ca9bb3675b9b8d6$__63e697ace96040518163ffffffff1660e01b815260040160206040518083038186803b15801561114957600080fd5b505af415801561115d573d6000803e3d6000fd5b505050506040513d602081101561117357600080fd5b5051176111ee565b73__$6af7953b03ecb3cadd1ca9bb3675b9b8d6$__63e697ace96040518163ffffffff1660e01b815260040160206040518083038186803b1580156111bf57600080fd5b505af41580156111d3573d6000803e3d6000fd5b505050506040513d60208110156111e957600080fd5b505119165b610eab73__$edd6a44efa4a8bdf57aa57ccba2bcfbb1d$__632ffdabc56040518163ffffffff1660e01b815260040160206040518083038186803b158015610d4f57600080fd5b600061123f611ddc565b82179050610eab81611fcd565b6000610dfe73__$edd6a44efa4a8bdf57aa57ccba2bcfbb1d$__63b255e9e46040518163ffffffff1660e01b815260040160206040518083038186803b158015610dcd57600080fd5b60006007198316808403826112a983612b44565b9050600073__$184ef4a65c614d890e6225597d290b0ed9$__63bf1924c5846008026001600160401b03166001896001600160401b031660026001600160401b03160a036001600160401b0316901b6040518263ffffffff1660e01b815260040180826001600160401b0316815260200191505060206040518083038186803b15801561133557600080fd5b505af4158015611349573d6000803e3d6000fd5b505050506040513d602081101561135f57600080fd5b50516040805163bf1924c560e01b81526001600160401b03858416811660048301529151929350600886029091169173__$184ef4a65c614d890e6225597d290b0ed9$__9163bf1924c5916024808301926020929190829003018186803b1580156113c957600080fd5b505af41580156113dd573d6000803e3d6000fd5b505050506040513d60208110156113f357600080fd5b50516001600160401b0316901c979650505050505050565b6000610dfe73__$edd6a44efa4a8bdf57aa57ccba2bcfbb1d$__637047f4df6040518163ffffffff1660e01b815260040160206040518083038186803b158015610dcd57600080fd5b61145d816122f0565b610d816000196125ef565b6000610dfe73__$edd6a44efa4a8bdf57aa57ccba2bcfbb1d$__6345827f696040518163ffffffff1660e01b815260040160206040518083038186803b158015610dcd57600080fd5b610d8173__$edd6a44efa4a8bdf57aa57ccba2bcfbb1d$__63e59cb5746040518163ffffffff1660e01b815260040160206040518083038186803b158015610d4f57600080fd5b610d8173__$edd6a44efa4a8bdf57aa57ccba2bcfbb1d$__63734b96006040518163ffffffff1660e01b815260040160206040518083038186803b158015610d4f57600080fd5b610d8173__$edd6a44efa4a8bdf57aa57ccba2bcfbb1d$__639ff9932b6040518163ffffffff1660e01b815260040160206040518083038186803b158015610d4f57600080fd5b6000610dfe73__$edd6a44efa4a8bdf57aa57ccba2bcfbb1d$__63e2e2e7126040518163ffffffff1660e01b815260040160206040518083038186803b158015610dcd57600080fd5b610d8173__$edd6a44efa4a8bdf57aa57ccba2bcfbb1d$__63a43e290f6040518163ffffffff1660e01b815260040160206040518083038186803b158015610d4f57600080fd5b6000610dfe73__$edd6a44efa4a8bdf57aa57ccba2bcfbb1d$__6392f5aa226040518163ffffffff1660e01b815260040160206040518083038186803b158015610dcd57600080fd5b600061166d8260080261281d565b92915050565b6000610dfe73__$3c056aa8a31fb3ce78f242f7ef99e26695$__63870981356040518163ffffffff1660e01b815260040160206040518083038186803b158015610dcd57600080fd5b6000610dfe73__$edd6a44efa4a8bdf57aa57ccba2bcfbb1d$__63d41a5b596040518163ffffffff1660e01b815260040160206040518083038186803b158015610dcd57600080fd5b6000610dfe73__$edd6a44efa4a8bdf57aa57ccba2bcfbb1d$__63e59cb5746040518163ffffffff1660e01b815260040160206040518083038186803b158015610dcd57600080fd5b6000610dfe73__$edd6a44efa4a8bdf57aa57ccba2bcfbb1d$__63da3e8d7b6040518163ffffffff1660e01b815260040160206040518083038186803b158015610dcd57600080fd5b610eab8260080282611af1565b6000610dfe73__$96c0387300a4d16af366df01fc33f52e50$__636299ea3f6040518163ffffffff1660e01b815260040160206040518083038186803b158015610dcd57600080fd5b610d8173__$edd6a44efa4a8bdf57aa57ccba2bcfbb1d$__6345827f696040518163ffffffff1660e01b815260040160206040518083038186803b158015610d4f57600080fd5b610d8173__$edd6a44efa4a8bdf57aa57ccba2bcfbb1d$__63b255e9e46040518163ffffffff1660e01b815260040160206040518083038186803b158015610d4f57600080fd5b6000610dfe73__$edd6a44efa4a8bdf57aa57ccba2bcfbb1d$__634a4c35106040518163ffffffff1660e01b815260040160206040518083038186803b158015610dcd57600080fd5b6000610dfe73__$edd6a44efa4a8bdf57aa57ccba2bcfbb1d$__63c585eede6040518163ffffffff1660e01b815260040160206040518083038186803b158015610dcd57600080fd5b600073__$6af7953b03ecb3cadd1ca9bb3675b9b8d6$__6317a0cac36040518163ffffffff1660e01b815260040160206040518083038186803b15801561195357600080fd5b505af4158015611967573d6000803e3d6000fd5b505050506040513d602081101561197d57600080fd5b5051604080516351a2ab4160e11b815290516001600160401b039092169173__$6af7953b03ecb3cadd1ca9bb3675b9b8d6$__9163a3455682916004808301926020929190829003018186803b1580156119d657600080fd5b505af41580156119ea573d6000803e3d6000fd5b505050506040513d6020811015611a0057600080fd5b505160408051632ffdabc560e01b81529051611a529173__$edd6a44efa4a8bdf57aa57ccba2bcfbb1d$__91632ffdabc591600480820192602092909190829003018186803b158015610dcd57600080fd5b166001600160401b0316901c905090565b610d8173__$edd6a44efa4a8bdf57aa57ccba2bcfbb1d$__63e80d17516040518163ffffffff1660e01b815260040160206040518083038186803b158015610d4f57600080fd5b610d8173__$edd6a44efa4a8bdf57aa57ccba2bcfbb1d$__637047f4df6040518163ffffffff1660e01b815260040160206040518083038186803b158015610d4f57600080fd5b600073__$184ef4a65c614d890e6225597d290b0ed9$__63bf1924c5836040518263ffffffff1660e01b815260040180826001600160401b0316815260200191505060206040518083038186803b158015611b4b57600080fd5b505af4158015611b5f573d6000803e3d6000fd5b505050506040513d6020811015611b7557600080fd5b505160c01b90506001600160c01b03198116611b92846000612b5a565b6001600160c01b03191614611bee576040805162461bcd60e51b815260206004820152601c60248201527f5772697474656e2076616c756520646f6573206e6f74206d6174636800000000604482015290519081900360640190fd5b505050565b6000610dfe73__$edd6a44efa4a8bdf57aa57ccba2bcfbb1d$__63d124bd136040518163ffffffff1660e01b815260040160206040518083038186803b158015610dcd57600080fd5b600073__$6af7953b03ecb3cadd1ca9bb3675b9b8d6$__63656b151f6040518163ffffffff1660e01b815260040160206040518083038186803b158015611c8257600080fd5b505af4158015611c96573d6000803e3d6000fd5b505050506040513d6020811015611cac57600080fd5b50516040805163fd198e5560e01b815290516001600160401b039092169173__$6af7953b03ecb3cadd1ca9bb3675b9b8d6$__9163fd198e55916004808301926020929190829003018186803b1580156119d657600080fd5b6000610dfe73__$edd6a44efa4a8bdf57aa57ccba2bcfbb1d$__639ff9932b6040518163ffffffff1660e01b815260040160206040518083038186803b158015610dcd57600080fd5b610d8173__$edd6a44efa4a8bdf57aa57ccba2bcfbb1d$__6329301cac6040518163ffffffff1660e01b815260040160206040518083038186803b158015610d4f57600080fd5b610d8173__$edd6a44efa4a8bdf57aa57ccba2bcfbb1d$__638fd6b7c46040518163ffffffff1660e01b815260040160206040518083038186803b158015610d4f57600080fd5b6000610dfe73__$edd6a44efa4a8bdf57aa57ccba2bcfbb1d$__63520aff6c6040518163ffffffff1660e01b815260040160206040518083038186803b158015610dcd57600080fd5b8151835114611e655760405162461bcd60e51b8152600401808060200182810382526027815260200180612ef96027913960400191505060405180910390fd5b8051835114611ea55760405162461bcd60e51b8152600401808060200182810382526027815260200180612ef96027913960400191505060405180910390fd5b600080558251611ebc906001906020860190612d05565b508151611ed0906002906020850190612dbd565b508051611ee4906003906020840190612e2a565b50505050565b6000610dfe73__$edd6a44efa4a8bdf57aa57ccba2bcfbb1d$__632935b8ce6040518163ffffffff1660e01b815260040160206040518083038186803b158015610dcd57600080fd5b6000611f3d612217565b90508115611f895773__$6af7953b03ecb3cadd1ca9bb3675b9b8d6$__63fd198e556040518163ffffffff1660e01b815260040160206040518083038186803b15801561114957600080fd5b73__$6af7953b03ecb3cadd1ca9bb3675b9b8d6$__63fd198e556040518163ffffffff1660e01b815260040160206040518083038186803b1580156111bf57600080fd5b610d8173__$edd6a44efa4a8bdf57aa57ccba2bcfbb1d$__63520aff6c6040518163ffffffff1660e01b815260040160206040518083038186803b158015610d4f57600080fd5b610d8173__$edd6a44efa4a8bdf57aa57ccba2bcfbb1d$__63443fd5986040518163ffffffff1660e01b815260040160206040518083038186803b158015610d4f57600080fd5b6000610dfe73__$edd6a44efa4a8bdf57aa57ccba2bcfbb1d$__639a59734c6040518163ffffffff1660e01b815260040160206040518083038186803b158015610dcd57600080fd5b610d8173__$96c0387300a4d16af366df01fc33f52e50$__630a279d716040518163ffffffff1660e01b815260040160206040518083038186803b158015610d4f57600080fd5b60006120f5612217565b905081156121415773__$6af7953b03ecb3cadd1ca9bb3675b9b8d6$__63a34556826040518163ffffffff1660e01b815260040160206040518083038186803b15801561114957600080fd5b73__$6af7953b03ecb3cadd1ca9bb3675b9b8d6$__63a34556826040518163ffffffff1660e01b815260040160206040518083038186803b1580156111bf57600080fd5b6000610dfe73__$edd6a44efa4a8bdf57aa57ccba2bcfbb1d$__6342db36676040518163ffffffff1660e01b815260040160206040518083038186803b158015610dcd57600080fd5b6000610dfe73__$edd6a44efa4a8bdf57aa57ccba2bcfbb1d$__63929127db6040518163ffffffff1660e01b815260040160206040518083038186803b158015610dcd57600080fd5b6000610dfe73__$edd6a44efa4a8bdf57aa57ccba2bcfbb1d$__632ffdabc56040518163ffffffff1660e01b815260040160206040518083038186803b158015610dcd57600080fd5b610d8173__$edd6a44efa4a8bdf57aa57ccba2bcfbb1d$__636630ad876040518163ffffffff1660e01b815260040160206040518083038186803b158015610d4f57600080fd5b6000610dfe73__$edd6a44efa4a8bdf57aa57ccba2bcfbb1d$__63e80d17516040518163ffffffff1660e01b815260040160206040518083038186803b158015610dcd57600080fd5b60006122fa612217565b905073__$6af7953b03ecb3cadd1ca9bb3675b9b8d6$__63910a52476040518163ffffffff1660e01b815260040160206040518083038186803b15801561234057600080fd5b505af4158015612354573d6000803e3d6000fd5b505050506040513d602081101561236a57600080fd5b50516040805163317d2bb560e01b815290516001600160401b0385811693169290921b9173__$6af7953b03ecb3cadd1ca9bb3675b9b8d6$__9163317d2bb5916004808301926020929190829003018186803b1580156123c957600080fd5b505af41580156123dd573d6000803e3d6000fd5b505050506040513d60208110156123f357600080fd5b505160408051632ffdabc560e01b815290519119939093169190911791610eab9173__$edd6a44efa4a8bdf57aa57ccba2bcfbb1d$__91632ffdabc5916004808301926020929190829003018186803b158015610d4f57600080fd5b610d8173__$edd6a44efa4a8bdf57aa57ccba2bcfbb1d$__632935b8ce6040518163ffffffff1660e01b815260040160206040518083038186803b158015610d4f57600080fd5b600073__$6af7953b03ecb3cadd1ca9bb3675b9b8d6$__63e89d408d6040518163ffffffff1660e01b815260040160206040518083038186803b1580156124dc57600080fd5b505af41580156124f0573d6000803e3d6000fd5b505050506040513d602081101561250657600080fd5b50516040805163e697ace960e01b815290516001600160401b039092169173__$6af7953b03ecb3cadd1ca9bb3675b9b8d6$__9163e697ace9916004808301926020929190829003018186803b1580156119d657600080fd5b6000610dfe73__$edd6a44efa4a8bdf57aa57ccba2bcfbb1d$__63a43e290f6040518163ffffffff1660e01b815260040160206040518083038186803b158015610dcd57600080fd5b610d8173__$96c0387300a4d16af366df01fc33f52e50$__63521819f56040518163ffffffff1660e01b815260040160206040518083038186803b158015610d4f57600080fd5b610d8173__$edd6a44efa4a8bdf57aa57ccba2bcfbb1d$__63e2e2e7126040518163ffffffff1660e01b815260040160206040518083038186803b158015610d4f57600080fd5b6000610dfe73__$96c0387300a4d16af366df01fc33f52e50$__630a279d716040518163ffffffff1660e01b815260040160206040518083038186803b158015610dcd57600080fd5b610d8173__$edd6a44efa4a8bdf57aa57ccba2bcfbb1d$__6342db36676040518163ffffffff1660e01b815260040160206040518083038186803b158015610d4f57600080fd5b610d8173__$edd6a44efa4a8bdf57aa57ccba2bcfbb1d$__63da3e8d7b6040518163ffffffff1660e01b815260040160206040518083038186803b158015610d4f57600080fd5b600073__$6af7953b03ecb3cadd1ca9bb3675b9b8d6$__63910a52476040518163ffffffff1660e01b815260040160206040518083038186803b15801561275357600080fd5b505af4158015612767573d6000803e3d6000fd5b505050506040513d602081101561277d57600080fd5b50516040805163317d2bb560e01b815290516001600160401b039092169173__$6af7953b03ecb3cadd1ca9bb3675b9b8d6$__9163317d2bb5916004808301926020929190829003018186803b1580156119d657600080fd5b610d8173__$edd6a44efa4a8bdf57aa57ccba2bcfbb1d$__63d41a5b596040518163ffffffff1660e01b815260040160206040518083038186803b158015610d4f57600080fd5b600073__$184ef4a65c614d890e6225597d290b0ed9$__63bf1924c5612844846001612b5a565b60c01c6040518263ffffffff1660e01b815260040180826001600160401b0316815260200191505060206040518083038186803b15801561288457600080fd5b505af4158015612898573d6000803e3d6000fd5b505050506040513d60208110156128ae57600080fd5b505192915050565b610d8173__$3c056aa8a31fb3ce78f242f7ef99e26695$__63870981356040518163ffffffff1660e01b815260040160206040518083038186803b158015610d4f57600080fd5b600060086001600160401b038316049050806001600160401b03166008141561292f5761292a8484611af1565b611ee4565b6007198416808503600061294283612b44565b9050600073__$184ef4a65c614d890e6225597d290b0ed9$__63bf1924c5846008026001600160401b03166001896001600160401b031660026001600160401b03160a036001600160401b0316901b6040518263ffffffff1660e01b815260040180826001600160401b0316815260200191505060206040518083038186803b1580156129ce57600080fd5b505af41580156129e2573d6000803e3d6000fd5b505050506040513d60208110156129f857600080fd5b50516040805163bf1924c560e01b81526001600160401b0389811660020a600019018b16166004820152905191925060009173__$184ef4a65c614d890e6225597d290b0ed9$__9163bf1924c5916024808301926020929190829003018186803b158015612a6557600080fd5b505af4158015612a79573d6000803e3d6000fd5b505050506040513d6020811015612a8f57600080fd5b50516040805163bf1924c560e01b81526001600160401b038084166008890282161c861988161790811660048301529151929350909173__$184ef4a65c614d890e6225597d290b0ed9$__9163bf1924c5916024808301926020929190829003018186803b158015612b0057600080fd5b505af4158015612b14573d6000803e3d6000fd5b505050506040513d6020811015612b2a57600080fd5b50519050612b388682611af1565b50505050505050505050565b6000612b51826001612b5a565b60c01c92915050565b6000811515600360005481548110612b6e57fe5b90600052602060002090602091828204019190069054906101000a900460ff16151514612be2576040805162461bcd60e51b815260206004820152601f60248201527f41636365737320776173206e6f742074686520636f7272656374207479706500604482015290519081900360640190fd5b6000600160005481548110612bf357fe5b90600052602060002090600491828204019190066008029054906101000a90046001600160401b031690506000600260005481548110612c2f57fe5b60009182526020822060048204015482546001019092556003166008026101000a900460c01b90506007821615612cad576040805162461bcd60e51b815260206004820152601760248201527f506f736974696f6e206973206e6f7420616c69676e6564000000000000000000604482015290519081900360640190fd5b846001600160401b0316826001600160401b031614612cfd5760405162461bcd60e51b8152600401808060200182810382526026815260200180612ed36026913960400191505060405180910390fd5b949350505050565b82805482825590600052602060002090600301600490048101928215612dad5791602002820160005b83821115612d7857835183826101000a8154816001600160401b0302191690836001600160401b031602179055509260200192600801602081600701049283019260010302612d2e565b8015612dab5782816101000a8154906001600160401b030219169055600801602081600701049283019260010302612d78565b505b50612db9929150612ebd565b5090565b82805482825590600052602060002090600301600490048101928215612dad5791602002820160005b83821115612d7857835183826101000a8154816001600160401b03021916908360c01c02179055509260200192600801602081600701049283019260010302612de6565b82805482825590600052602060002090601f01602090048101928215612dad5791602002820160005b83821115612e9057835183826101000a81548160ff0219169083151502179055509260200192600101602081600001049283019260010302612e53565b8015612dab5782816101000a81549060ff0219169055600101602081600001049283019260010302612e90565b5b80821115612db95760008155600101612ebe56fe506f736974696f6e20616e642072656164206164647265737320646f206e6f74206d61746368526561642f77726974652061727261797320617265206e6f74207468652073616d652073697a65a2646970667358221220d8ad88147f407e1aa5f265625c1c1c5882c5f9367822640b6b9cae9958deedda64736f6c63430007040033",
  "linkReferences": {
    "@cartesi/util/contracts/BitsManipulationLibrary.sol": {
      "BitsManipulationLibrary": [
        {
          "length": 20,
          "start": 4815
        },
        {
          "length": 20,
          "start": 5040
        },
        {
          "length": 20,
          "start": 6933
        },
        {
          "length": 20,
          "start": 10305
        },
        {
          "length": 20,
          "start": 10600
        },
        {
          "length": 20,
          "start": 10828
        },
        {
          "length": 20,
          "start": 10983
        }
      ]
    },
    "contracts/CLINT.sol": {
      "CLINT": [
        {
          "length": 20,
          "start": 5786
        },
        {
          "length": 20,
          "start": 10459
        }
      ]
    },
    "contracts/HTIF.sol": {
      "HTIF": [
        {
          "length": 20,
          "start": 4305
        },
        {
          "length": 20,
          "start": 6091
        },
        {
          "length": 20,
          "start": 8393
        },
        {
          "length": 20,
          "start": 9677
        },
        {
          "length": 20,
          "start": 9821
        }
      ]
    },
    "contracts/RiscVConstants.sol": {
      "RiscVConstants": [
        {
          "length": 20,
          "start": 4391
        },
        {
          "length": 20,
          "start": 4509
        },
        {
          "length": 20,
          "start": 6449
        },
        {
          "length": 20,
          "start": 6589
        },
        {
          "length": 20,
          "start": 7264
        },
        {
          "length": 20,
          "start": 7404
        },
        {
          "length": 20,
          "start": 8039
        },
        {
          "length": 20,
          "start": 8107
        },
        {
          "length": 20,
          "start": 8479
        },
        {
          "length": 20,
          "start": 8547
        },
        {
          "length": 20,
          "start": 8990
        },
        {
          "length": 20,
          "start": 9136
        },
        {
          "length": 20,
          "start": 9402
        },
        {
          "length": 20,
          "start": 9542
        },
        {
          "length": 20,
          "start": 10033
        },
        {
          "length": 20,
          "start": 10173
        }
      ]
    },
    "contracts/ShadowAddresses.sol": {
      "ShadowAddresses": [
        {
          "length": 20,
          "start": 3373
        },
        {
          "length": 20,
          "start": 3499
        },
        {
          "length": 20,
          "start": 3624
        },
        {
          "length": 20,
          "start": 3697
        },
        {
          "length": 20,
          "start": 3798
        },
        {
          "length": 20,
          "start": 3871
        },
        {
          "length": 20,
          "start": 3944
        },
        {
          "length": 20,
          "start": 4017
        },
        {
          "length": 20,
          "start": 4088
        },
        {
          "length": 20,
          "start": 4159
        },
        {
          "length": 20,
          "start": 4232
        },
        {
          "length": 20,
          "start": 4627
        },
        {
          "length": 20,
          "start": 4723
        },
        {
          "length": 20,
          "start": 5170
        },
        {
          "length": 20,
          "start": 5263
        },
        {
          "length": 20,
          "start": 5334
        },
        {
          "length": 20,
          "start": 5405
        },
        {
          "length": 20,
          "start": 5476
        },
        {
          "length": 20,
          "start": 5549
        },
        {
          "length": 20,
          "start": 5620
        },
        {
          "length": 20,
          "start": 5693
        },
        {
          "length": 20,
          "start": 5859
        },
        {
          "length": 20,
          "start": 5932
        },
        {
          "length": 20,
          "start": 6005
        },
        {
          "length": 20,
          "start": 6162
        },
        {
          "length": 20,
          "start": 6233
        },
        {
          "length": 20,
          "start": 6306
        },
        {
          "length": 20,
          "start": 6379
        },
        {
          "length": 20,
          "start": 6712
        },
        {
          "length": 20,
          "start": 6792
        },
        {
          "length": 20,
          "start": 6863
        },
        {
          "length": 20,
          "start": 7194
        },
        {
          "length": 20,
          "start": 7468
        },
        {
          "length": 20,
          "start": 7539
        },
        {
          "length": 20,
          "start": 7610
        },
        {
          "length": 20,
          "start": 7683
        },
        {
          "length": 20,
          "start": 7953
        },
        {
          "length": 20,
          "start": 8178
        },
        {
          "length": 20,
          "start": 8249
        },
        {
          "length": 20,
          "start": 8322
        },
        {
          "length": 20,
          "start": 8620
        },
        {
          "length": 20,
          "start": 8693
        },
        {
          "length": 20,
          "start": 8766
        },
        {
          "length": 20,
          "start": 8837
        },
        {
          "length": 20,
          "start": 8910
        },
        {
          "length": 20,
          "start": 9270
        },
        {
          "length": 20,
          "start": 9332
        },
        {
          "length": 20,
          "start": 9606
        },
        {
          "length": 20,
          "start": 9748
        },
        {
          "length": 20,
          "start": 9892
        },
        {
          "length": 20,
          "start": 9963
        },
        {
          "length": 20,
          "start": 10235
        }
      ]
    }
  },
  "deployedLinkReferences": {
    "@cartesi/util/contracts/BitsManipulationLibrary.sol": {
      "BitsManipulationLibrary": [
        {
          "length": 20,
          "start": 4783
        },
        {
          "length": 20,
          "start": 5008
        },
        {
          "length": 20,
          "start": 6901
        },
        {
          "length": 20,
          "start": 10273
        },
        {
          "length": 20,
          "start": 10568
        },
        {
          "length": 20,
          "start": 10796
        },
        {
          "length": 20,
          "start": 10951
        }
      ]
    },
    "contracts/CLINT.sol": {
      "CLINT": [
        {
          "length": 20,
          "start": 5754
        },
        {
          "length": 20,
          "start": 10427
        }
      ]
    },
    "contracts/HTIF.sol": {
      "HTIF": [
        {
          "length": 20,
          "start": 4273
        },
        {
          "length": 20,
          "start": 6059
        },
        {
          "length": 20,
          "start": 8361
        },
        {
          "length": 20,
          "start": 9645
        },
        {
          "length": 20,
          "start": 9789
        }
      ]
    },
    "contracts/RiscVConstants.sol": {
      "RiscVConstants": [
        {
          "length": 20,
          "start": 4359
        },
        {
          "length": 20,
          "start": 4477
        },
        {
          "length": 20,
          "start": 6417
        },
        {
          "length": 20,
          "start": 6557
        },
        {
          "length": 20,
          "start": 7232
        },
        {
          "length": 20,
          "start": 7372
        },
        {
          "length": 20,
          "start": 8007
        },
        {
          "length": 20,
          "start": 8075
        },
        {
          "length": 20,
          "start": 8447
        },
        {
          "length": 20,
          "start": 8515
        },
        {
          "length": 20,
          "start": 8958
        },
        {
          "length": 20,
          "start": 9104
        },
        {
          "length": 20,
          "start": 9370
        },
        {
          "length": 20,
          "start": 9510
        },
        {
          "length": 20,
          "start": 10001
        },
        {
          "length": 20,
          "start": 10141
        }
      ]
    },
    "contracts/ShadowAddresses.sol": {
      "ShadowAddresses": [
        {
          "length": 20,
          "start": 3341
        },
        {
          "length": 20,
          "start": 3467
        },
        {
          "length": 20,
          "start": 3592
        },
        {
          "length": 20,
          "start": 3665
        },
        {
          "length": 20,
          "start": 3766
        },
        {
          "length": 20,
          "start": 3839
        },
        {
          "length": 20,
          "start": 3912
        },
        {
          "length": 20,
          "start": 3985
        },
        {
          "length": 20,
          "start": 4056
        },
        {
          "length": 20,
          "start": 4127
        },
        {
          "length": 20,
          "start": 4200
        },
        {
          "length": 20,
          "start": 4595
        },
        {
          "length": 20,
          "start": 4691
        },
        {
          "length": 20,
          "start": 5138
        },
        {
          "length": 20,
          "start": 5231
        },
        {
          "length": 20,
          "start": 5302
        },
        {
          "length": 20,
          "start": 5373
        },
        {
          "length": 20,
          "start": 5444
        },
        {
          "length": 20,
          "start": 5517
        },
        {
          "length": 20,
          "start": 5588
        },
        {
          "length": 20,
          "start": 5661
        },
        {
          "length": 20,
          "start": 5827
        },
        {
          "length": 20,
          "start": 5900
        },
        {
          "length": 20,
          "start": 5973
        },
        {
          "length": 20,
          "start": 6130
        },
        {
          "length": 20,
          "start": 6201
        },
        {
          "length": 20,
          "start": 6274
        },
        {
          "length": 20,
          "start": 6347
        },
        {
          "length": 20,
          "start": 6680
        },
        {
          "length": 20,
          "start": 6760
        },
        {
          "length": 20,
          "start": 6831
        },
        {
          "length": 20,
          "start": 7162
        },
        {
          "length": 20,
          "start": 7436
        },
        {
          "length": 20,
          "start": 7507
        },
        {
          "length": 20,
          "start": 7578
        },
        {
          "length": 20,
          "start": 7651
        },
        {
          "length": 20,
          "start": 7921
        },
        {
          "length": 20,
          "start": 8146
        },
        {
          "length": 20,
          "start": 8217
        },
        {
          "length": 20,
          "start": 8290
        },
        {
          "length": 20,
          "start": 8588
        },
        {
          "length": 20,
          "start": 8661
        },
        {
          "length": 20,
          "start": 8734
        },
        {
          "length": 20,
          "start": 8805
        },
        {
          "length": 20,
          "start": 8878
        },
        {
          "length": 20,
          "start": 9238
        },
        {
          "length": 20,
          "start": 9300
        },
        {
          "length": 20,
          "start": 9574
        },
        {
          "length": 20,
          "start": 9716
        },
        {
          "length": 20,
          "start": 9860
        },
        {
          "length": 20,
          "start": 9931
        },
        {
          "length": 20,
          "start": 10203
        }
      ]
    }
  },
  "devdoc": {
    "author": "Felipe Argento",
    "details": "Every read performed by mi.memoryRead or mi.write should be followed by anendianess swap from little endian to big endian. This is the case becauseEVM is big endian but RiscV is little endian.Reference: riscv-spec-v2.2.pdf - Preface to Version 2.0Reference: Ethereum yellowpaper - Version 69351d5Appendix H. Virtual Machine Specification",
    "kind": "dev",
    "methods": {},
    "title": "MemoryInteractor",
    "version": 1
  },
  "evm": {
    "bytecode": {
      "linkReferences": {
        "@cartesi/util/contracts/BitsManipulationLibrary.sol": {
          "BitsManipulationLibrary": [
            {
              "length": 20,
              "start": 4815
            },
            {
              "length": 20,
              "start": 5040
            },
            {
              "length": 20,
              "start": 6933
            },
            {
              "length": 20,
              "start": 10305
            },
            {
              "length": 20,
              "start": 10600
            },
            {
              "length": 20,
              "start": 10828
            },
            {
              "length": 20,
              "start": 10983
            }
          ]
        },
        "contracts/CLINT.sol": {
          "CLINT": [
            {
              "length": 20,
              "start": 5786
            },
            {
              "length": 20,
              "start": 10459
            }
          ]
        },
        "contracts/HTIF.sol": {
          "HTIF": [
            {
              "length": 20,
              "start": 4305
            },
            {
              "length": 20,
              "start": 6091
            },
            {
              "length": 20,
              "start": 8393
            },
            {
              "length": 20,
              "start": 9677
            },
            {
              "length": 20,
              "start": 9821
            }
          ]
        },
        "contracts/RiscVConstants.sol": {
          "RiscVConstants": [
            {
              "length": 20,
              "start": 4391
            },
            {
              "length": 20,
              "start": 4509
            },
            {
              "length": 20,
              "start": 6449
            },
            {
              "length": 20,
              "start": 6589
            },
            {
              "length": 20,
              "start": 7264
            },
            {
              "length": 20,
              "start": 7404
            },
            {
              "length": 20,
              "start": 8039
            },
            {
              "length": 20,
              "start": 8107
            },
            {
              "length": 20,
              "start": 8479
            },
            {
              "length": 20,
              "start": 8547
            },
            {
              "length": 20,
              "start": 8990
            },
            {
              "length": 20,
              "start": 9136
            },
            {
              "length": 20,
              "start": 9402
            },
            {
              "length": 20,
              "start": 9542
            },
            {
              "length": 20,
              "start": 10033
            },
            {
              "length": 20,
              "start": 10173
            }
          ]
        },
        "contracts/ShadowAddresses.sol": {
          "ShadowAddresses": [
            {
              "length": 20,
              "start": 3373
            },
            {
              "length": 20,
              "start": 3499
            },
            {
              "length": 20,
              "start": 3624
            },
            {
              "length": 20,
              "start": 3697
            },
            {
              "length": 20,
              "start": 3798
            },
            {
              "length": 20,
              "start": 3871
            },
            {
              "length": 20,
              "start": 3944
            },
            {
              "length": 20,
              "start": 4017
            },
            {
              "length": 20,
              "start": 4088
            },
            {
              "length": 20,
              "start": 4159
            },
            {
              "length": 20,
              "start": 4232
            },
            {
              "length": 20,
              "start": 4627
            },
            {
              "length": 20,
              "start": 4723
            },
            {
              "length": 20,
              "start": 5170
            },
            {
              "length": 20,
              "start": 5263
            },
            {
              "length": 20,
              "start": 5334
            },
            {
              "length": 20,
              "start": 5405
            },
            {
              "length": 20,
              "start": 5476
            },
            {
              "length": 20,
              "start": 5549
            },
            {
              "length": 20,
              "start": 5620
            },
            {
              "length": 20,
              "start": 5693
            },
            {
              "length": 20,
              "start": 5859
            },
            {
              "length": 20,
              "start": 5932
            },
            {
              "length": 20,
              "start": 6005
            },
            {
              "length": 20,
              "start": 6162
            },
            {
              "length": 20,
              "start": 6233
            },
            {
              "length": 20,
              "start": 6306
            },
            {
              "length": 20,
              "start": 6379
            },
            {
              "length": 20,
              "start": 6712
            },
            {
              "length": 20,
              "start": 6792
            },
            {
              "length": 20,
              "start": 6863
            },
            {
              "length": 20,
              "start": 7194
            },
            {
              "length": 20,
              "start": 7468
            },
            {
              "length": 20,
              "start": 7539
            },
            {
              "length": 20,
              "start": 7610
            },
            {
              "length": 20,
              "start": 7683
            },
            {
              "length": 20,
              "start": 7953
            },
            {
              "length": 20,
              "start": 8178
            },
            {
              "length": 20,
              "start": 8249
            },
            {
              "length": 20,
              "start": 8322
            },
            {
              "length": 20,
              "start": 8620
            },
            {
              "length": 20,
              "start": 8693
            },
            {
              "length": 20,
              "start": 8766
            },
            {
              "length": 20,
              "start": 8837
            },
            {
              "length": 20,
              "start": 8910
            },
            {
              "length": 20,
              "start": 9270
            },
            {
              "length": 20,
              "start": 9332
            },
            {
              "length": 20,
              "start": 9606
            },
            {
              "length": 20,
              "start": 9748
            },
            {
              "length": 20,
              "start": 9892
            },
            {
              "length": 20,
              "start": 9963
            },
            {
              "length": 20,
              "start": 10235
            }
          ]
        }
      },
      "opcodes": "PUSH1 0x80 PUSH1 0x40 MSTORE CALLVALUE DUP1 ISZERO PUSH2 0x10 JUMPI PUSH1 0x0 DUP1 REVERT JUMPDEST POP PUSH2 0x2F55 DUP1 PUSH2 0x20 PUSH1 0x0 CODECOPY PUSH1 0x0 RETURN INVALID PUSH1 0x80 PUSH1 0x40 MSTORE CALLVALUE DUP1 ISZERO PUSH2 0x10 JUMPI PUSH1 0x0 DUP1 REVERT JUMPDEST POP PUSH1 0x4 CALLDATASIZE LT PUSH2 0x449 JUMPI PUSH1 0x0 CALLDATALOAD PUSH1 0xE0 SHR DUP1 PUSH4 0x854DBA40 GT PUSH2 0x241 JUMPI DUP1 PUSH4 0xB5B98ED4 GT PUSH2 0x13B JUMPI DUP1 PUSH4 0xDD5C4A14 GT PUSH2 0xC3 JUMPI DUP1 PUSH4 0xF7AC913D GT PUSH2 0x87 JUMPI DUP1 PUSH4 0xF7AC913D EQ PUSH2 0xC50 JUMPI DUP1 PUSH4 0xF9911587 EQ PUSH2 0xC58 JUMPI DUP1 PUSH4 0xFA644AF5 EQ PUSH2 0xC7E JUMPI DUP1 PUSH4 0xFBDB975D EQ PUSH2 0xCA4 JUMPI DUP1 PUSH4 0xFD295ABE EQ PUSH2 0xCCA JUMPI PUSH2 0x449 JUMP JUMPDEST DUP1 PUSH4 0xDD5C4A14 EQ PUSH2 0xBB0 JUMPI DUP1 PUSH4 0xF21D94F8 EQ PUSH2 0xBD6 JUMPI DUP1 PUSH4 0xF2CF6CEB EQ PUSH2 0xBFC JUMPI DUP1 PUSH4 0xF55C4D38 EQ PUSH2 0xC04 JUMPI DUP1 PUSH4 0xF604EDB8 EQ PUSH2 0xC2A JUMPI PUSH2 0x449 JUMP JUMPDEST DUP1 PUSH4 0xCC92CBF7 GT PUSH2 0x10A JUMPI DUP1 PUSH4 0xCC92CBF7 EQ PUSH2 0xB4C JUMPI DUP1 PUSH4 0xCECDAE53 EQ PUSH2 0xB54 JUMPI DUP1 PUSH4 0xD2BE7B6D EQ PUSH2 0xB7A JUMPI DUP1 PUSH4 0xD40D17C5 EQ PUSH2 0xBA0 JUMPI DUP1 PUSH4 0xDADED5C2 EQ PUSH2 0xBA8 JUMPI PUSH2 0x449 JUMP JUMPDEST DUP1 PUSH4 0xB5B98ED4 EQ PUSH2 0xB0E JUMPI DUP1 PUSH4 0xBECDC10D EQ PUSH2 0xB16 JUMPI DUP1 PUSH4 0xC133B7FF EQ PUSH2 0xB1E JUMPI DUP1 PUSH4 0xCBC446B1 EQ PUSH2 0xB26 JUMPI PUSH2 0x449 JUMP JUMPDEST DUP1 PUSH4 0x9C872D02 GT PUSH2 0x1C9 JUMPI DUP1 PUSH4 0xAAED4F07 GT PUSH2 0x18D JUMPI DUP1 PUSH4 0xAAED4F07 EQ PUSH2 0xA75 JUMPI DUP1 PUSH4 0xAB9779B7 EQ PUSH2 0xA9B JUMPI DUP1 PUSH4 0xAF63B2A8 EQ PUSH2 0xAC1 JUMPI DUP1 PUSH4 0xB2325AEF EQ PUSH2 0xAC9 JUMPI DUP1 PUSH4 0xB27EC920 EQ PUSH2 0xAEF JUMPI PUSH2 0x449 JUMP JUMPDEST DUP1 PUSH4 0x9C872D02 EQ PUSH2 0x875 JUMPI DUP1 PUSH4 0xA317CE9D EQ PUSH2 0x89B JUMPI DUP1 PUSH4 0xA47594DF EQ PUSH2 0x8A3 JUMPI DUP1 PUSH4 0xA740DBC1 EQ PUSH2 0xA4E JUMPI DUP1 PUSH4 0xA7458B95 EQ PUSH2 0xA56 JUMPI PUSH2 0x449 JUMP JUMPDEST DUP1 PUSH4 0x8E32F35E GT PUSH2 0x210 JUMPI DUP1 PUSH4 0x8E32F35E EQ PUSH2 0x809 JUMPI DUP1 PUSH4 0x9485871B EQ PUSH2 0x837 JUMPI DUP1 PUSH4 0x968644F0 EQ PUSH2 0x83F JUMPI DUP1 PUSH4 0x9B7021CE EQ PUSH2 0x847 JUMPI DUP1 PUSH4 0x9C7B005D EQ PUSH2 0x84F JUMPI PUSH2 0x449 JUMP JUMPDEST DUP1 PUSH4 0x854DBA40 EQ PUSH2 0x7AD JUMPI DUP1 PUSH4 0x86099C54 EQ PUSH2 0x7B5 JUMPI DUP1 PUSH4 0x86676D43 EQ PUSH2 0x7BD JUMPI DUP1 PUSH4 0x89365909 EQ PUSH2 0x7E3 JUMPI PUSH2 0x449 JUMP JUMPDEST DUP1 PUSH4 0x51BB3615 GT PUSH2 0x352 JUMPI DUP1 PUSH4 0x6232E59C GT PUSH2 0x2DA JUMPI DUP1 PUSH4 0x6DC95C2E GT PUSH2 0x29E JUMPI DUP1 PUSH4 0x6DC95C2E EQ PUSH2 0x723 JUMPI DUP1 PUSH4 0x6F6C0E7D EQ PUSH2 0x751 JUMPI DUP1 PUSH4 0x78C49574 EQ PUSH2 0x759 JUMPI DUP1 PUSH4 0x78DDEE75 EQ PUSH2 0x77F JUMPI DUP1 PUSH4 0x834AA4F6 EQ PUSH2 0x7A5 JUMPI PUSH2 0x449 JUMP JUMPDEST DUP1 PUSH4 0x6232E59C EQ PUSH2 0x6DD JUMPI DUP1 PUSH4 0x6475E342 EQ PUSH2 0x703 JUMPI DUP1 PUSH4 0x650CA32B EQ PUSH2 0x70B JUMPI DUP1 PUSH4 0x6A72B27D EQ PUSH2 0x713 JUMPI DUP1 PUSH4 0x6CD24DAF EQ PUSH2 0x71B JUMPI PUSH2 0x449 JUMP JUMPDEST DUP1 PUSH4 0x57907837 GT PUSH2 0x321 JUMPI DUP1 PUSH4 0x57907837 EQ PUSH2 0x65B JUMPI DUP1 PUSH4 0x5AF47CA7 EQ PUSH2 0x681 JUMPI DUP1 PUSH4 0x5DADD78A EQ PUSH2 0x6A7 JUMPI DUP1 PUSH4 0x5E5CA652 EQ PUSH2 0x6AF JUMPI DUP1 PUSH4 0x5F824BF9 EQ PUSH2 0x6D5 JUMPI PUSH2 0x449 JUMP JUMPDEST DUP1 PUSH4 0x51BB3615 EQ PUSH2 0x5FF JUMPI DUP1 PUSH4 0x54749AF3 EQ PUSH2 0x607 JUMPI DUP1 PUSH4 0x568B2702 EQ PUSH2 0x62D JUMPI DUP1 PUSH4 0x575832DF EQ PUSH2 0x635 JUMPI PUSH2 0x449 JUMP JUMPDEST DUP1 PUSH4 0x28520B30 GT PUSH2 0x3D5 JUMPI DUP1 PUSH4 0x34970F18 GT PUSH2 0x3A4 JUMPI DUP1 PUSH4 0x34970F18 EQ PUSH2 0x57C JUMPI DUP1 PUSH4 0x3A48BB56 EQ PUSH2 0x584 JUMPI DUP1 PUSH4 0x45057ED7 EQ PUSH2 0x5A3 JUMPI DUP1 PUSH4 0x4AE9388B EQ PUSH2 0x5C9 JUMPI DUP1 PUSH4 0x50CEC2D5 EQ PUSH2 0x5D1 JUMPI PUSH2 0x449 JUMP JUMPDEST DUP1 PUSH4 0x28520B30 EQ PUSH2 0x520 JUMPI DUP1 PUSH4 0x28751B36 EQ PUSH2 0x528 JUMPI DUP1 PUSH4 0x2CA2BD16 EQ PUSH2 0x54E JUMPI DUP1 PUSH4 0x2E963A80 EQ PUSH2 0x574 JUMPI PUSH2 0x449 JUMP JUMPDEST DUP1 PUSH4 0x11CF3A22 GT PUSH2 0x41C JUMPI DUP1 PUSH4 0x11CF3A22 EQ PUSH2 0x4DA JUMPI DUP1 PUSH4 0x15DD9C06 EQ PUSH2 0x4E2 JUMPI DUP1 PUSH4 0x18E504DB EQ PUSH2 0x508 JUMPI DUP1 PUSH4 0x1BF2F73D EQ PUSH2 0x510 JUMPI DUP1 PUSH4 0x1E5E6190 EQ PUSH2 0x518 JUMPI PUSH2 0x449 JUMP JUMPDEST DUP1 PUSH4 0x80AA5D1 EQ PUSH2 0x44E JUMPI DUP1 PUSH4 0xDF3E295 EQ PUSH2 0x468 JUMPI DUP1 PUSH4 0xF84C046 EQ PUSH2 0x490 JUMPI DUP1 PUSH4 0x10D74C7D EQ PUSH2 0x4B4 JUMPI JUMPDEST PUSH1 0x0 DUP1 REVERT JUMPDEST PUSH2 0x456 PUSH2 0xD02 JUMP JUMPDEST PUSH1 0x40 DUP1 MLOAD SWAP2 DUP3 MSTORE MLOAD SWAP1 DUP2 SWAP1 SUB PUSH1 0x20 ADD SWAP1 RETURN JUMPDEST PUSH2 0x48E PUSH1 0x4 DUP1 CALLDATASIZE SUB PUSH1 0x20 DUP2 LT ISZERO PUSH2 0x47E JUMPI PUSH1 0x0 DUP1 REVERT JUMPDEST POP CALLDATALOAD PUSH1 0x1 PUSH1 0x1 PUSH1 0x40 SHL SUB AND PUSH2 0xD08 JUMP JUMPDEST STOP JUMPDEST PUSH2 0x498 PUSH2 0xD84 JUMP JUMPDEST PUSH1 0x40 DUP1 MLOAD PUSH1 0x1 PUSH1 0x1 PUSH1 0x40 SHL SUB SWAP1 SWAP3 AND DUP3 MSTORE MLOAD SWAP1 DUP2 SWAP1 SUB PUSH1 0x20 ADD SWAP1 RETURN JUMPDEST PUSH2 0x48E PUSH1 0x4 DUP1 CALLDATASIZE SUB PUSH1 0x20 DUP2 LT ISZERO PUSH2 0x4CA JUMPI PUSH1 0x0 DUP1 REVERT JUMPDEST POP CALLDATALOAD PUSH1 0x1 PUSH1 0x1 PUSH1 0x40 SHL SUB AND PUSH2 0xE03 JUMP JUMPDEST PUSH2 0x498 PUSH2 0xE4A JUMP JUMPDEST PUSH2 0x48E PUSH1 0x4 DUP1 CALLDATASIZE SUB PUSH1 0x20 DUP2 LT ISZERO PUSH2 0x4F8 JUMPI PUSH1 0x0 DUP1 REVERT JUMPDEST POP CALLDATALOAD PUSH1 0x1 PUSH1 0x1 PUSH1 0x40 SHL SUB AND PUSH2 0xE93 JUMP JUMPDEST PUSH2 0x498 PUSH2 0xEAF JUMP JUMPDEST PUSH2 0x498 PUSH2 0xEF8 JUMP JUMPDEST PUSH2 0x498 PUSH2 0xF41 JUMP JUMPDEST PUSH2 0x498 PUSH2 0xF8A JUMP JUMPDEST PUSH2 0x48E PUSH1 0x4 DUP1 CALLDATASIZE SUB PUSH1 0x20 DUP2 LT ISZERO PUSH2 0x53E JUMPI PUSH1 0x0 DUP1 REVERT JUMPDEST POP CALLDATALOAD PUSH1 0x1 PUSH1 0x1 PUSH1 0x40 SHL SUB AND PUSH2 0xFD3 JUMP JUMPDEST PUSH2 0x48E PUSH1 0x4 DUP1 CALLDATASIZE SUB PUSH1 0x20 DUP2 LT ISZERO PUSH2 0x564 JUMPI PUSH1 0x0 DUP1 REVERT JUMPDEST POP CALLDATALOAD PUSH1 0x1 PUSH1 0x1 PUSH1 0x40 SHL SUB AND PUSH2 0x101A JUMP JUMPDEST PUSH2 0x498 PUSH2 0x1061 JUMP JUMPDEST PUSH2 0x498 PUSH2 0x10AA JUMP JUMPDEST PUSH2 0x48E PUSH1 0x4 DUP1 CALLDATASIZE SUB PUSH1 0x20 DUP2 LT ISZERO PUSH2 0x59A JUMPI PUSH1 0x0 DUP1 REVERT JUMPDEST POP CALLDATALOAD ISZERO ISZERO PUSH2 0x10F3 JUMP JUMPDEST PUSH2 0x48E PUSH1 0x4 DUP1 CALLDATASIZE SUB PUSH1 0x20 DUP2 LT ISZERO PUSH2 0x5B9 JUMPI PUSH1 0x0 DUP1 REVERT JUMPDEST POP CALLDATALOAD PUSH1 0x1 PUSH1 0x1 PUSH1 0x40 SHL SUB AND PUSH2 0x1235 JUMP JUMPDEST PUSH2 0x498 PUSH2 0x124C JUMP JUMPDEST PUSH2 0x498 PUSH1 0x4 DUP1 CALLDATASIZE SUB PUSH1 0x40 DUP2 LT ISZERO PUSH2 0x5E7 JUMPI PUSH1 0x0 DUP1 REVERT JUMPDEST POP PUSH1 0x1 PUSH1 0x1 PUSH1 0x40 SHL SUB DUP2 CALLDATALOAD DUP2 AND SWAP2 PUSH1 0x20 ADD CALLDATALOAD AND PUSH2 0x1295 JUMP JUMPDEST PUSH2 0x498 PUSH2 0x140B JUMP JUMPDEST PUSH2 0x48E PUSH1 0x4 DUP1 CALLDATASIZE SUB PUSH1 0x20 DUP2 LT ISZERO PUSH2 0x61D JUMPI PUSH1 0x0 DUP1 REVERT JUMPDEST POP CALLDATALOAD PUSH1 0x1 PUSH1 0x1 PUSH1 0x40 SHL SUB AND PUSH2 0x1454 JUMP JUMPDEST PUSH2 0x498 PUSH2 0x1468 JUMP JUMPDEST PUSH2 0x48E PUSH1 0x4 DUP1 CALLDATASIZE SUB PUSH1 0x20 DUP2 LT ISZERO PUSH2 0x64B JUMPI PUSH1 0x0 DUP1 REVERT JUMPDEST POP CALLDATALOAD PUSH1 0x1 PUSH1 0x1 PUSH1 0x40 SHL SUB AND PUSH2 0x14B1 JUMP JUMPDEST PUSH2 0x48E PUSH1 0x4 DUP1 CALLDATASIZE SUB PUSH1 0x20 DUP2 LT ISZERO PUSH2 0x671 JUMPI PUSH1 0x0 DUP1 REVERT JUMPDEST POP CALLDATALOAD PUSH1 0x1 PUSH1 0x1 PUSH1 0x40 SHL SUB AND PUSH2 0x14F8 JUMP JUMPDEST PUSH2 0x48E PUSH1 0x4 DUP1 CALLDATASIZE SUB PUSH1 0x20 DUP2 LT ISZERO PUSH2 0x697 JUMPI PUSH1 0x0 DUP1 REVERT JUMPDEST POP CALLDATALOAD PUSH1 0x1 PUSH1 0x1 PUSH1 0x40 SHL SUB AND PUSH2 0x153F JUMP JUMPDEST PUSH2 0x498 PUSH2 0x1586 JUMP JUMPDEST PUSH2 0x48E PUSH1 0x4 DUP1 CALLDATASIZE SUB PUSH1 0x20 DUP2 LT ISZERO PUSH2 0x6C5 JUMPI PUSH1 0x0 DUP1 REVERT JUMPDEST POP CALLDATALOAD PUSH1 0x1 PUSH1 0x1 PUSH1 0x40 SHL SUB AND PUSH2 0x15CF JUMP JUMPDEST PUSH2 0x498 PUSH2 0x1616 JUMP JUMPDEST PUSH2 0x498 PUSH1 0x4 DUP1 CALLDATASIZE SUB PUSH1 0x20 DUP2 LT ISZERO PUSH2 0x6F3 JUMPI PUSH1 0x0 DUP1 REVERT JUMPDEST POP CALLDATALOAD PUSH1 0x1 PUSH1 0x1 PUSH1 0x40 SHL SUB AND PUSH2 0x165F JUMP JUMPDEST PUSH2 0x498 PUSH2 0x1673 JUMP JUMPDEST PUSH2 0x498 PUSH2 0x16BC JUMP JUMPDEST PUSH2 0x498 PUSH2 0x1705 JUMP JUMPDEST PUSH2 0x498 PUSH2 0x174E JUMP JUMPDEST PUSH2 0x48E PUSH1 0x4 DUP1 CALLDATASIZE SUB PUSH1 0x40 DUP2 LT ISZERO PUSH2 0x739 JUMPI PUSH1 0x0 DUP1 REVERT JUMPDEST POP PUSH1 0x1 PUSH1 0x1 PUSH1 0x40 SHL SUB DUP2 CALLDATALOAD DUP2 AND SWAP2 PUSH1 0x20 ADD CALLDATALOAD AND PUSH2 0x1797 JUMP JUMPDEST PUSH2 0x498 PUSH2 0x17A4 JUMP JUMPDEST PUSH2 0x48E PUSH1 0x4 DUP1 CALLDATASIZE SUB PUSH1 0x20 DUP2 LT ISZERO PUSH2 0x76F JUMPI PUSH1 0x0 DUP1 REVERT JUMPDEST POP CALLDATALOAD PUSH1 0x1 PUSH1 0x1 PUSH1 0x40 SHL SUB AND PUSH2 0x17ED JUMP JUMPDEST PUSH2 0x48E PUSH1 0x4 DUP1 CALLDATASIZE SUB PUSH1 0x20 DUP2 LT ISZERO PUSH2 0x795 JUMPI PUSH1 0x0 DUP1 REVERT JUMPDEST POP CALLDATALOAD PUSH1 0x1 PUSH1 0x1 PUSH1 0x40 SHL SUB AND PUSH2 0x1834 JUMP JUMPDEST PUSH2 0x498 PUSH2 0x187B JUMP JUMPDEST PUSH2 0x498 PUSH2 0x18C4 JUMP JUMPDEST PUSH2 0x498 PUSH2 0x190D JUMP JUMPDEST PUSH2 0x48E PUSH1 0x4 DUP1 CALLDATASIZE SUB PUSH1 0x20 DUP2 LT ISZERO PUSH2 0x7D3 JUMPI PUSH1 0x0 DUP1 REVERT JUMPDEST POP CALLDATALOAD PUSH1 0x1 PUSH1 0x1 PUSH1 0x40 SHL SUB AND PUSH2 0x1A63 JUMP JUMPDEST PUSH2 0x48E PUSH1 0x4 DUP1 CALLDATASIZE SUB PUSH1 0x20 DUP2 LT ISZERO PUSH2 0x7F9 JUMPI PUSH1 0x0 DUP1 REVERT JUMPDEST POP CALLDATALOAD PUSH1 0x1 PUSH1 0x1 PUSH1 0x40 SHL SUB AND PUSH2 0x1AAA JUMP JUMPDEST PUSH2 0x48E PUSH1 0x4 DUP1 CALLDATASIZE SUB PUSH1 0x40 DUP2 LT ISZERO PUSH2 0x81F JUMPI PUSH1 0x0 DUP1 REVERT JUMPDEST POP PUSH1 0x1 PUSH1 0x1 PUSH1 0x40 SHL SUB DUP2 CALLDATALOAD DUP2 AND SWAP2 PUSH1 0x20 ADD CALLDATALOAD AND PUSH2 0x1AF1 JUMP JUMPDEST PUSH2 0x498 PUSH2 0x1BF3 JUMP JUMPDEST PUSH2 0x498 PUSH2 0x1C3C JUMP JUMPDEST PUSH2 0x498 PUSH2 0x1D05 JUMP JUMPDEST PUSH2 0x48E PUSH1 0x4 DUP1 CALLDATASIZE SUB PUSH1 0x20 DUP2 LT ISZERO PUSH2 0x865 JUMPI PUSH1 0x0 DUP1 REVERT JUMPDEST POP CALLDATALOAD PUSH1 0x1 PUSH1 0x1 PUSH1 0x40 SHL SUB AND PUSH2 0x1D4E JUMP JUMPDEST PUSH2 0x48E PUSH1 0x4 DUP1 CALLDATASIZE SUB PUSH1 0x20 DUP2 LT ISZERO PUSH2 0x88B JUMPI PUSH1 0x0 DUP1 REVERT JUMPDEST POP CALLDATALOAD PUSH1 0x1 PUSH1 0x1 PUSH1 0x40 SHL SUB AND PUSH2 0x1D95 JUMP JUMPDEST PUSH2 0x498 PUSH2 0x1DDC JUMP JUMPDEST PUSH2 0x48E PUSH1 0x4 DUP1 CALLDATASIZE SUB PUSH1 0x60 DUP2 LT ISZERO PUSH2 0x8B9 JUMPI PUSH1 0x0 DUP1 REVERT JUMPDEST DUP2 ADD SWAP1 PUSH1 0x20 DUP2 ADD DUP2 CALLDATALOAD PUSH5 0x100000000 DUP2 GT ISZERO PUSH2 0x8D4 JUMPI PUSH1 0x0 DUP1 REVERT JUMPDEST DUP3 ADD DUP4 PUSH1 0x20 DUP3 ADD GT ISZERO PUSH2 0x8E6 JUMPI PUSH1 0x0 DUP1 REVERT JUMPDEST DUP1 CALLDATALOAD SWAP1 PUSH1 0x20 ADD SWAP2 DUP5 PUSH1 0x20 DUP4 MUL DUP5 ADD GT PUSH5 0x100000000 DUP4 GT OR ISZERO PUSH2 0x908 JUMPI PUSH1 0x0 DUP1 REVERT JUMPDEST SWAP2 SWAP1 DUP1 DUP1 PUSH1 0x20 MUL PUSH1 0x20 ADD PUSH1 0x40 MLOAD SWAP1 DUP2 ADD PUSH1 0x40 MSTORE DUP1 SWAP4 SWAP3 SWAP2 SWAP1 DUP2 DUP2 MSTORE PUSH1 0x20 ADD DUP4 DUP4 PUSH1 0x20 MUL DUP1 DUP3 DUP5 CALLDATACOPY PUSH1 0x0 SWAP3 ADD SWAP2 SWAP1 SWAP2 MSTORE POP SWAP3 SWAP6 SWAP5 SWAP4 PUSH1 0x20 DUP2 ADD SWAP4 POP CALLDATALOAD SWAP2 POP POP PUSH5 0x100000000 DUP2 GT ISZERO PUSH2 0x958 JUMPI PUSH1 0x0 DUP1 REVERT JUMPDEST DUP3 ADD DUP4 PUSH1 0x20 DUP3 ADD GT ISZERO PUSH2 0x96A JUMPI PUSH1 0x0 DUP1 REVERT JUMPDEST DUP1 CALLDATALOAD SWAP1 PUSH1 0x20 ADD SWAP2 DUP5 PUSH1 0x20 DUP4 MUL DUP5 ADD GT PUSH5 0x100000000 DUP4 GT OR ISZERO PUSH2 0x98C JUMPI PUSH1 0x0 DUP1 REVERT JUMPDEST SWAP2 SWAP1 DUP1 DUP1 PUSH1 0x20 MUL PUSH1 0x20 ADD PUSH1 0x40 MLOAD SWAP1 DUP2 ADD PUSH1 0x40 MSTORE DUP1 SWAP4 SWAP3 SWAP2 SWAP1 DUP2 DUP2 MSTORE PUSH1 0x20 ADD DUP4 DUP4 PUSH1 0x20 MUL DUP1 DUP3 DUP5 CALLDATACOPY PUSH1 0x0 SWAP3 ADD SWAP2 SWAP1 SWAP2 MSTORE POP SWAP3 SWAP6 SWAP5 SWAP4 PUSH1 0x20 DUP2 ADD SWAP4 POP CALLDATALOAD SWAP2 POP POP PUSH5 0x100000000 DUP2 GT ISZERO PUSH2 0x9DC JUMPI PUSH1 0x0 DUP1 REVERT JUMPDEST DUP3 ADD DUP4 PUSH1 0x20 DUP3 ADD GT ISZERO PUSH2 0x9EE JUMPI PUSH1 0x0 DUP1 REVERT JUMPDEST DUP1 CALLDATALOAD SWAP1 PUSH1 0x20 ADD SWAP2 DUP5 PUSH1 0x20 DUP4 MUL DUP5 ADD GT PUSH5 0x100000000 DUP4 GT OR ISZERO PUSH2 0xA10 JUMPI PUSH1 0x0 DUP1 REVERT JUMPDEST SWAP2 SWAP1 DUP1 DUP1 PUSH1 0x20 MUL PUSH1 0x20 ADD PUSH1 0x40 MLOAD SWAP1 DUP2 ADD PUSH1 0x40 MSTORE DUP1 SWAP4 SWAP3 SWAP2 SWAP1 DUP2 DUP2 MSTORE PUSH1 0x20 ADD DUP4 DUP4 PUSH1 0x20 MUL DUP1 DUP3 DUP5 CALLDATACOPY PUSH1 0x0 SWAP3 ADD SWAP2 SWAP1 SWAP2 MSTORE POP SWAP3 SWAP6 POP PUSH2 0x1E25 SWAP5 POP POP POP POP POP JUMP JUMPDEST PUSH2 0x498 PUSH2 0x1EEA JUMP JUMPDEST PUSH2 0x48E PUSH1 0x4 DUP1 CALLDATASIZE SUB PUSH1 0x20 DUP2 LT ISZERO PUSH2 0xA6C JUMPI PUSH1 0x0 DUP1 REVERT JUMPDEST POP CALLDATALOAD ISZERO ISZERO PUSH2 0x1F33 JUMP JUMPDEST PUSH2 0x48E PUSH1 0x4 DUP1 CALLDATASIZE SUB PUSH1 0x20 DUP2 LT ISZERO PUSH2 0xA8B JUMPI PUSH1 0x0 DUP1 REVERT JUMPDEST POP CALLDATALOAD PUSH1 0x1 PUSH1 0x1 PUSH1 0x40 SHL SUB AND PUSH2 0x1FCD JUMP JUMPDEST PUSH2 0x48E PUSH1 0x4 DUP1 CALLDATASIZE SUB PUSH1 0x20 DUP2 LT ISZERO PUSH2 0xAB1 JUMPI PUSH1 0x0 DUP1 REVERT JUMPDEST POP CALLDATALOAD PUSH1 0x1 PUSH1 0x1 PUSH1 0x40 SHL SUB AND PUSH2 0x2014 JUMP JUMPDEST PUSH2 0x498 PUSH2 0x205B JUMP JUMPDEST PUSH2 0x48E PUSH1 0x4 DUP1 CALLDATASIZE SUB PUSH1 0x20 DUP2 LT ISZERO PUSH2 0xADF JUMPI PUSH1 0x0 DUP1 REVERT JUMPDEST POP CALLDATALOAD PUSH1 0x1 PUSH1 0x1 PUSH1 0x40 SHL SUB AND PUSH2 0x20A4 JUMP JUMPDEST PUSH2 0x48E PUSH1 0x4 DUP1 CALLDATASIZE SUB PUSH1 0x20 DUP2 LT ISZERO PUSH2 0xB05 JUMPI PUSH1 0x0 DUP1 REVERT JUMPDEST POP CALLDATALOAD ISZERO ISZERO PUSH2 0x20EB JUMP JUMPDEST PUSH2 0x498 PUSH2 0x2185 JUMP JUMPDEST PUSH2 0x498 PUSH2 0x21CE JUMP JUMPDEST PUSH2 0x498 PUSH2 0x2217 JUMP JUMPDEST PUSH2 0x48E PUSH1 0x4 DUP1 CALLDATASIZE SUB PUSH1 0x20 DUP2 LT ISZERO PUSH2 0xB3C JUMPI PUSH1 0x0 DUP1 REVERT JUMPDEST POP CALLDATALOAD PUSH1 0x1 PUSH1 0x1 PUSH1 0x40 SHL SUB AND PUSH2 0x2260 JUMP JUMPDEST PUSH2 0x498 PUSH2 0x22A7 JUMP JUMPDEST PUSH2 0x48E PUSH1 0x4 DUP1 CALLDATASIZE SUB PUSH1 0x20 DUP2 LT ISZERO PUSH2 0xB6A JUMPI PUSH1 0x0 DUP1 REVERT JUMPDEST POP CALLDATALOAD PUSH1 0x1 PUSH1 0x1 PUSH1 0x40 SHL SUB AND PUSH2 0x22F0 JUMP JUMPDEST PUSH2 0x48E PUSH1 0x4 DUP1 CALLDATASIZE SUB PUSH1 0x20 DUP2 LT ISZERO PUSH2 0xB90 JUMPI PUSH1 0x0 DUP1 REVERT JUMPDEST POP CALLDATALOAD PUSH1 0x1 PUSH1 0x1 PUSH1 0x40 SHL SUB AND PUSH2 0x244F JUMP JUMPDEST PUSH2 0x498 PUSH2 0x2496 JUMP JUMPDEST PUSH2 0x498 PUSH2 0x255F JUMP JUMPDEST PUSH2 0x48E PUSH1 0x4 DUP1 CALLDATASIZE SUB PUSH1 0x20 DUP2 LT ISZERO PUSH2 0xBC6 JUMPI PUSH1 0x0 DUP1 REVERT JUMPDEST POP CALLDATALOAD PUSH1 0x1 PUSH1 0x1 PUSH1 0x40 SHL SUB AND PUSH2 0x25A8 JUMP JUMPDEST PUSH2 0x48E PUSH1 0x4 DUP1 CALLDATASIZE SUB PUSH1 0x20 DUP2 LT ISZERO PUSH2 0xBEC JUMPI PUSH1 0x0 DUP1 REVERT JUMPDEST POP CALLDATALOAD PUSH1 0x1 PUSH1 0x1 PUSH1 0x40 SHL SUB AND PUSH2 0x25EF JUMP JUMPDEST PUSH2 0x498 PUSH2 0x2636 JUMP JUMPDEST PUSH2 0x48E PUSH1 0x4 DUP1 CALLDATASIZE SUB PUSH1 0x20 DUP2 LT ISZERO PUSH2 0xC1A JUMPI PUSH1 0x0 DUP1 REVERT JUMPDEST POP CALLDATALOAD PUSH1 0x1 PUSH1 0x1 PUSH1 0x40 SHL SUB AND PUSH2 0x267F JUMP JUMPDEST PUSH2 0x48E PUSH1 0x4 DUP1 CALLDATASIZE SUB PUSH1 0x20 DUP2 LT ISZERO PUSH2 0xC40 JUMPI PUSH1 0x0 DUP1 REVERT JUMPDEST POP CALLDATALOAD PUSH1 0x1 PUSH1 0x1 PUSH1 0x40 SHL SUB AND PUSH2 0x26C6 JUMP JUMPDEST PUSH2 0x498 PUSH2 0x270D JUMP JUMPDEST PUSH2 0x48E PUSH1 0x4 DUP1 CALLDATASIZE SUB PUSH1 0x20 DUP2 LT ISZERO PUSH2 0xC6E JUMPI PUSH1 0x0 DUP1 REVERT JUMPDEST POP CALLDATALOAD PUSH1 0x1 PUSH1 0x1 PUSH1 0x40 SHL SUB AND PUSH2 0x27D6 JUMP JUMPDEST PUSH2 0x498 PUSH1 0x4 DUP1 CALLDATASIZE SUB PUSH1 0x20 DUP2 LT ISZERO PUSH2 0xC94 JUMPI PUSH1 0x0 DUP1 REVERT JUMPDEST POP CALLDATALOAD PUSH1 0x1 PUSH1 0x1 PUSH1 0x40 SHL SUB AND PUSH2 0x281D JUMP JUMPDEST PUSH2 0x48E PUSH1 0x4 DUP1 CALLDATASIZE SUB PUSH1 0x20 DUP2 LT ISZERO PUSH2 0xCBA JUMPI PUSH1 0x0 DUP1 REVERT JUMPDEST POP CALLDATALOAD PUSH1 0x1 PUSH1 0x1 PUSH1 0x40 SHL SUB AND PUSH2 0x28B6 JUMP JUMPDEST PUSH2 0x48E PUSH1 0x4 DUP1 CALLDATASIZE SUB PUSH1 0x60 DUP2 LT ISZERO PUSH2 0xCE0 JUMPI PUSH1 0x0 DUP1 REVERT JUMPDEST POP PUSH1 0x1 PUSH1 0x1 PUSH1 0x40 SHL SUB DUP2 CALLDATALOAD DUP2 AND SWAP2 PUSH1 0x20 DUP2 ADD CALLDATALOAD DUP3 AND SWAP2 PUSH1 0x40 SWAP1 SWAP2 ADD CALLDATALOAD AND PUSH2 0x28FD JUMP JUMPDEST PUSH1 0x0 SLOAD SWAP1 JUMP JUMPDEST PUSH2 0xD81 PUSH20 0x0 PUSH4 0x9A59734C PUSH1 0x40 MLOAD DUP2 PUSH4 0xFFFFFFFF AND PUSH1 0xE0 SHL DUP2 MSTORE PUSH1 0x4 ADD PUSH1 0x20 PUSH1 0x40 MLOAD DUP1 DUP4 SUB DUP2 DUP7 DUP1 EXTCODESIZE ISZERO DUP1 ISZERO PUSH2 0xD4F JUMPI PUSH1 0x0 DUP1 REVERT JUMPDEST POP GAS DELEGATECALL ISZERO DUP1 ISZERO PUSH2 0xD63 JUMPI RETURNDATASIZE PUSH1 0x0 DUP1 RETURNDATACOPY RETURNDATASIZE PUSH1 0x0 REVERT JUMPDEST POP POP POP POP PUSH1 0x40 MLOAD RETURNDATASIZE PUSH1 0x20 DUP2 LT ISZERO PUSH2 0xD79 JUMPI PUSH1 0x0 DUP1 REVERT JUMPDEST POP MLOAD DUP3 PUSH2 0x1AF1 JUMP JUMPDEST POP JUMP JUMPDEST PUSH1 0x0 PUSH2 0xDFE PUSH20 0x0 PUSH4 0x6630AD87 PUSH1 0x40 MLOAD DUP2 PUSH4 0xFFFFFFFF AND PUSH1 0xE0 SHL DUP2 MSTORE PUSH1 0x4 ADD PUSH1 0x20 PUSH1 0x40 MLOAD DUP1 DUP4 SUB DUP2 DUP7 DUP1 EXTCODESIZE ISZERO DUP1 ISZERO PUSH2 0xDCD JUMPI PUSH1 0x0 DUP1 REVERT JUMPDEST POP GAS DELEGATECALL ISZERO DUP1 ISZERO PUSH2 0xDE1 JUMPI RETURNDATASIZE PUSH1 0x0 DUP1 RETURNDATACOPY RETURNDATASIZE PUSH1 0x0 REVERT JUMPDEST POP POP POP POP PUSH1 0x40 MLOAD RETURNDATASIZE PUSH1 0x20 DUP2 LT ISZERO PUSH2 0xDF7 JUMPI PUSH1 0x0 DUP1 REVERT JUMPDEST POP MLOAD PUSH2 0x281D JUMP JUMPDEST SWAP1 POP SWAP1 JUMP JUMPDEST PUSH2 0xD81 PUSH20 0x0 PUSH4 0x72EB67D0 PUSH1 0x40 MLOAD DUP2 PUSH4 0xFFFFFFFF AND PUSH1 0xE0 SHL DUP2 MSTORE PUSH1 0x4 ADD PUSH1 0x20 PUSH1 0x40 MLOAD DUP1 DUP4 SUB DUP2 DUP7 DUP1 EXTCODESIZE ISZERO DUP1 ISZERO PUSH2 0xD4F JUMPI PUSH1 0x0 DUP1 REVERT JUMPDEST PUSH1 0x0 PUSH2 0xDFE PUSH20 0x0 PUSH4 0x8FD6B7C4 PUSH1 0x40 MLOAD DUP2 PUSH4 0xFFFFFFFF AND PUSH1 0xE0 SHL DUP2 MSTORE PUSH1 0x4 ADD PUSH1 0x20 PUSH1 0x40 MLOAD DUP1 DUP4 SUB DUP2 DUP7 DUP1 EXTCODESIZE ISZERO DUP1 ISZERO PUSH2 0xDCD JUMPI PUSH1 0x0 DUP1 REVERT JUMPDEST PUSH1 0x0 PUSH2 0xE9D PUSH2 0x1DDC JUMP JUMPDEST DUP3 NOT AND SWAP1 POP PUSH2 0xEAB DUP2 PUSH2 0x1FCD JUMP JUMPDEST POP POP JUMP JUMPDEST PUSH1 0x0 PUSH2 0xDFE PUSH20 0x0 PUSH4 0x734B9600 PUSH1 0x40 MLOAD DUP2 PUSH4 0xFFFFFFFF AND PUSH1 0xE0 SHL DUP2 MSTORE PUSH1 0x4 ADD PUSH1 0x20 PUSH1 0x40 MLOAD DUP1 DUP4 SUB DUP2 DUP7 DUP1 EXTCODESIZE ISZERO DUP1 ISZERO PUSH2 0xDCD JUMPI PUSH1 0x0 DUP1 REVERT JUMPDEST PUSH1 0x0 PUSH2 0xDFE PUSH20 0x0 PUSH4 0x443FD598 PUSH1 0x40 MLOAD DUP2 PUSH4 0xFFFFFFFF AND PUSH1 0xE0 SHL DUP2 MSTORE PUSH1 0x4 ADD PUSH1 0x20 PUSH1 0x40 MLOAD DUP1 DUP4 SUB DUP2 DUP7 DUP1 EXTCODESIZE ISZERO DUP1 ISZERO PUSH2 0xDCD JUMPI PUSH1 0x0 DUP1 REVERT JUMPDEST PUSH1 0x0 PUSH2 0xDFE PUSH20 0x0 PUSH4 0xCA04595A PUSH1 0x40 MLOAD DUP2 PUSH4 0xFFFFFFFF AND PUSH1 0xE0 SHL DUP2 MSTORE PUSH1 0x4 ADD PUSH1 0x20 PUSH1 0x40 MLOAD DUP1 DUP4 SUB DUP2 DUP7 DUP1 EXTCODESIZE ISZERO DUP1 ISZERO PUSH2 0xDCD JUMPI PUSH1 0x0 DUP1 REVERT JUMPDEST PUSH1 0x0 PUSH2 0xDFE PUSH20 0x0 PUSH4 0x72EB67D0 PUSH1 0x40 MLOAD DUP2 PUSH4 0xFFFFFFFF AND PUSH1 0xE0 SHL DUP2 MSTORE PUSH1 0x4 ADD PUSH1 0x20 PUSH1 0x40 MLOAD DUP1 DUP4 SUB DUP2 DUP7 DUP1 EXTCODESIZE ISZERO DUP1 ISZERO PUSH2 0xDCD JUMPI PUSH1 0x0 DUP1 REVERT JUMPDEST PUSH2 0xD81 PUSH20 0x0 PUSH4 0xCA04595A PUSH1 0x40 MLOAD DUP2 PUSH4 0xFFFFFFFF AND PUSH1 0xE0 SHL DUP2 MSTORE PUSH1 0x4 ADD PUSH1 0x20 PUSH1 0x40 MLOAD DUP1 DUP4 SUB DUP2 DUP7 DUP1 EXTCODESIZE ISZERO DUP1 ISZERO PUSH2 0xD4F JUMPI PUSH1 0x0 DUP1 REVERT JUMPDEST PUSH2 0xD81 PUSH20 0x0 PUSH4 0xD124BD13 PUSH1 0x40 MLOAD DUP2 PUSH4 0xFFFFFFFF AND PUSH1 0xE0 SHL DUP2 MSTORE PUSH1 0x4 ADD PUSH1 0x20 PUSH1 0x40 MLOAD DUP1 DUP4 SUB DUP2 DUP7 DUP1 EXTCODESIZE ISZERO DUP1 ISZERO PUSH2 0xD4F JUMPI PUSH1 0x0 DUP1 REVERT JUMPDEST PUSH1 0x0 PUSH2 0xDFE PUSH20 0x0 PUSH4 0x29301CAC PUSH1 0x40 MLOAD DUP2 PUSH4 0xFFFFFFFF AND PUSH1 0xE0 SHL DUP2 MSTORE PUSH1 0x4 ADD PUSH1 0x20 PUSH1 0x40 MLOAD DUP1 DUP4 SUB DUP2 DUP7 DUP1 EXTCODESIZE ISZERO DUP1 ISZERO PUSH2 0xDCD JUMPI PUSH1 0x0 DUP1 REVERT JUMPDEST PUSH1 0x0 PUSH2 0xDFE PUSH20 0x0 PUSH4 0x521819F5 PUSH1 0x40 MLOAD DUP2 PUSH4 0xFFFFFFFF AND PUSH1 0xE0 SHL DUP2 MSTORE PUSH1 0x4 ADD PUSH1 0x20 PUSH1 0x40 MLOAD DUP1 DUP4 SUB DUP2 DUP7 DUP1 EXTCODESIZE ISZERO DUP1 ISZERO PUSH2 0xDCD JUMPI PUSH1 0x0 DUP1 REVERT JUMPDEST PUSH1 0x0 PUSH2 0x10FD PUSH2 0x2217 JUMP JUMPDEST SWAP1 POP DUP2 ISZERO PUSH2 0x117B JUMPI PUSH20 0x0 PUSH4 0xE697ACE9 PUSH1 0x40 MLOAD DUP2 PUSH4 0xFFFFFFFF AND PUSH1 0xE0 SHL DUP2 MSTORE PUSH1 0x4 ADD PUSH1 0x20 PUSH1 0x40 MLOAD DUP1 DUP4 SUB DUP2 DUP7 DUP1 EXTCODESIZE ISZERO DUP1 ISZERO PUSH2 0x1149 JUMPI PUSH1 0x0 DUP1 REVERT JUMPDEST POP GAS DELEGATECALL ISZERO DUP1 ISZERO PUSH2 0x115D JUMPI RETURNDATASIZE PUSH1 0x0 DUP1 RETURNDATACOPY RETURNDATASIZE PUSH1 0x0 REVERT JUMPDEST POP POP POP POP PUSH1 0x40 MLOAD RETURNDATASIZE PUSH1 0x20 DUP2 LT ISZERO PUSH2 0x1173 JUMPI PUSH1 0x0 DUP1 REVERT JUMPDEST POP MLOAD OR PUSH2 0x11EE JUMP JUMPDEST PUSH20 0x0 PUSH4 0xE697ACE9 PUSH1 0x40 MLOAD DUP2 PUSH4 0xFFFFFFFF AND PUSH1 0xE0 SHL DUP2 MSTORE PUSH1 0x4 ADD PUSH1 0x20 PUSH1 0x40 MLOAD DUP1 DUP4 SUB DUP2 DUP7 DUP1 EXTCODESIZE ISZERO DUP1 ISZERO PUSH2 0x11BF JUMPI PUSH1 0x0 DUP1 REVERT JUMPDEST POP GAS DELEGATECALL ISZERO DUP1 ISZERO PUSH2 0x11D3 JUMPI RETURNDATASIZE PUSH1 0x0 DUP1 RETURNDATACOPY RETURNDATASIZE PUSH1 0x0 REVERT JUMPDEST POP POP POP POP PUSH1 0x40 MLOAD RETURNDATASIZE PUSH1 0x20 DUP2 LT ISZERO PUSH2 0x11E9 JUMPI PUSH1 0x0 DUP1 REVERT JUMPDEST POP MLOAD NOT AND JUMPDEST PUSH2 0xEAB PUSH20 0x0 PUSH4 0x2FFDABC5 PUSH1 0x40 MLOAD DUP2 PUSH4 0xFFFFFFFF AND PUSH1 0xE0 SHL DUP2 MSTORE PUSH1 0x4 ADD PUSH1 0x20 PUSH1 0x40 MLOAD DUP1 DUP4 SUB DUP2 DUP7 DUP1 EXTCODESIZE ISZERO DUP1 ISZERO PUSH2 0xD4F JUMPI PUSH1 0x0 DUP1 REVERT JUMPDEST PUSH1 0x0 PUSH2 0x123F PUSH2 0x1DDC JUMP JUMPDEST DUP3 OR SWAP1 POP PUSH2 0xEAB DUP2 PUSH2 0x1FCD JUMP JUMPDEST PUSH1 0x0 PUSH2 0xDFE PUSH20 0x0 PUSH4 0xB255E9E4 PUSH1 0x40 MLOAD DUP2 PUSH4 0xFFFFFFFF AND PUSH1 0xE0 SHL DUP2 MSTORE PUSH1 0x4 ADD PUSH1 0x20 PUSH1 0x40 MLOAD DUP1 DUP4 SUB DUP2 DUP7 DUP1 EXTCODESIZE ISZERO DUP1 ISZERO PUSH2 0xDCD JUMPI PUSH1 0x0 DUP1 REVERT JUMPDEST PUSH1 0x0 PUSH1 0x7 NOT DUP4 AND DUP1 DUP5 SUB DUP3 PUSH2 0x12A9 DUP4 PUSH2 0x2B44 JUMP JUMPDEST SWAP1 POP PUSH1 0x0 PUSH20 0x0 PUSH4 0xBF1924C5 DUP5 PUSH1 0x8 MUL PUSH1 0x1 PUSH1 0x1 PUSH1 0x40 SHL SUB AND PUSH1 0x1 DUP10 PUSH1 0x1 PUSH1 0x1 PUSH1 0x40 SHL SUB AND PUSH1 0x2 PUSH1 0x1 PUSH1 0x1 PUSH1 0x40 SHL SUB AND EXP SUB PUSH1 0x1 PUSH1 0x1 PUSH1 0x40 SHL SUB AND SWAP1 SHL PUSH1 0x40 MLOAD DUP3 PUSH4 0xFFFFFFFF AND PUSH1 0xE0 SHL DUP2 MSTORE PUSH1 0x4 ADD DUP1 DUP3 PUSH1 0x1 PUSH1 0x1 PUSH1 0x40 SHL SUB AND DUP2 MSTORE PUSH1 0x20 ADD SWAP2 POP POP PUSH1 0x20 PUSH1 0x40 MLOAD DUP1 DUP4 SUB DUP2 DUP7 DUP1 EXTCODESIZE ISZERO DUP1 ISZERO PUSH2 0x1335 JUMPI PUSH1 0x0 DUP1 REVERT JUMPDEST POP GAS DELEGATECALL ISZERO DUP1 ISZERO PUSH2 0x1349 JUMPI RETURNDATASIZE PUSH1 0x0 DUP1 RETURNDATACOPY RETURNDATASIZE PUSH1 0x0 REVERT JUMPDEST POP POP POP POP PUSH1 0x40 MLOAD RETURNDATASIZE PUSH1 0x20 DUP2 LT ISZERO PUSH2 0x135F JUMPI PUSH1 0x0 DUP1 REVERT JUMPDEST POP MLOAD PUSH1 0x40 DUP1 MLOAD PUSH4 0xBF1924C5 PUSH1 0xE0 SHL DUP2 MSTORE PUSH1 0x1 PUSH1 0x1 PUSH1 0x40 SHL SUB DUP6 DUP5 AND DUP2 AND PUSH1 0x4 DUP4 ADD MSTORE SWAP2 MLOAD SWAP3 SWAP4 POP PUSH1 0x8 DUP7 MUL SWAP1 SWAP2 AND SWAP2 PUSH20 0x0 SWAP2 PUSH4 0xBF1924C5 SWAP2 PUSH1 0x24 DUP1 DUP4 ADD SWAP3 PUSH1 0x20 SWAP3 SWAP2 SWAP1 DUP3 SWAP1 SUB ADD DUP2 DUP7 DUP1 EXTCODESIZE ISZERO DUP1 ISZERO PUSH2 0x13C9 JUMPI PUSH1 0x0 DUP1 REVERT JUMPDEST POP GAS DELEGATECALL ISZERO DUP1 ISZERO PUSH2 0x13DD JUMPI RETURNDATASIZE PUSH1 0x0 DUP1 RETURNDATACOPY RETURNDATASIZE PUSH1 0x0 REVERT JUMPDEST POP POP POP POP PUSH1 0x40 MLOAD RETURNDATASIZE PUSH1 0x20 DUP2 LT ISZERO PUSH2 0x13F3 JUMPI PUSH1 0x0 DUP1 REVERT JUMPDEST POP MLOAD PUSH1 0x1 PUSH1 0x1 PUSH1 0x40 SHL SUB AND SWAP1 SHR SWAP8 SWAP7 POP POP POP POP POP POP POP JUMP JUMPDEST PUSH1 0x0 PUSH2 0xDFE PUSH20 0x0 PUSH4 0x7047F4DF PUSH1 0x40 MLOAD DUP2 PUSH4 0xFFFFFFFF AND PUSH1 0xE0 SHL DUP2 MSTORE PUSH1 0x4 ADD PUSH1 0x20 PUSH1 0x40 MLOAD DUP1 DUP4 SUB DUP2 DUP7 DUP1 EXTCODESIZE ISZERO DUP1 ISZERO PUSH2 0xDCD JUMPI PUSH1 0x0 DUP1 REVERT JUMPDEST PUSH2 0x145D DUP2 PUSH2 0x22F0 JUMP JUMPDEST PUSH2 0xD81 PUSH1 0x0 NOT PUSH2 0x25EF JUMP JUMPDEST PUSH1 0x0 PUSH2 0xDFE PUSH20 0x0 PUSH4 0x45827F69 PUSH1 0x40 MLOAD DUP2 PUSH4 0xFFFFFFFF AND PUSH1 0xE0 SHL DUP2 MSTORE PUSH1 0x4 ADD PUSH1 0x20 PUSH1 0x40 MLOAD DUP1 DUP4 SUB DUP2 DUP7 DUP1 EXTCODESIZE ISZERO DUP1 ISZERO PUSH2 0xDCD JUMPI PUSH1 0x0 DUP1 REVERT JUMPDEST PUSH2 0xD81 PUSH20 0x0 PUSH4 0xE59CB574 PUSH1 0x40 MLOAD DUP2 PUSH4 0xFFFFFFFF AND PUSH1 0xE0 SHL DUP2 MSTORE PUSH1 0x4 ADD PUSH1 0x20 PUSH1 0x40 MLOAD DUP1 DUP4 SUB DUP2 DUP7 DUP1 EXTCODESIZE ISZERO DUP1 ISZERO PUSH2 0xD4F JUMPI PUSH1 0x0 DUP1 REVERT JUMPDEST PUSH2 0xD81 PUSH20 0x0 PUSH4 0x734B9600 PUSH1 0x40 MLOAD DUP2 PUSH4 0xFFFFFFFF AND PUSH1 0xE0 SHL DUP2 MSTORE PUSH1 0x4 ADD PUSH1 0x20 PUSH1 0x40 MLOAD DUP1 DUP4 SUB DUP2 DUP7 DUP1 EXTCODESIZE ISZERO DUP1 ISZERO PUSH2 0xD4F JUMPI PUSH1 0x0 DUP1 REVERT JUMPDEST PUSH2 0xD81 PUSH20 0x0 PUSH4 0x9FF9932B PUSH1 0x40 MLOAD DUP2 PUSH4 0xFFFFFFFF AND PUSH1 0xE0 SHL DUP2 MSTORE PUSH1 0x4 ADD PUSH1 0x20 PUSH1 0x40 MLOAD DUP1 DUP4 SUB DUP2 DUP7 DUP1 EXTCODESIZE ISZERO DUP1 ISZERO PUSH2 0xD4F JUMPI PUSH1 0x0 DUP1 REVERT JUMPDEST PUSH1 0x0 PUSH2 0xDFE PUSH20 0x0 PUSH4 0xE2E2E712 PUSH1 0x40 MLOAD DUP2 PUSH4 0xFFFFFFFF AND PUSH1 0xE0 SHL DUP2 MSTORE PUSH1 0x4 ADD PUSH1 0x20 PUSH1 0x40 MLOAD DUP1 DUP4 SUB DUP2 DUP7 DUP1 EXTCODESIZE ISZERO DUP1 ISZERO PUSH2 0xDCD JUMPI PUSH1 0x0 DUP1 REVERT JUMPDEST PUSH2 0xD81 PUSH20 0x0 PUSH4 0xA43E290F PUSH1 0x40 MLOAD DUP2 PUSH4 0xFFFFFFFF AND PUSH1 0xE0 SHL DUP2 MSTORE PUSH1 0x4 ADD PUSH1 0x20 PUSH1 0x40 MLOAD DUP1 DUP4 SUB DUP2 DUP7 DUP1 EXTCODESIZE ISZERO DUP1 ISZERO PUSH2 0xD4F JUMPI PUSH1 0x0 DUP1 REVERT JUMPDEST PUSH1 0x0 PUSH2 0xDFE PUSH20 0x0 PUSH4 0x92F5AA22 PUSH1 0x40 MLOAD DUP2 PUSH4 0xFFFFFFFF AND PUSH1 0xE0 SHL DUP2 MSTORE PUSH1 0x4 ADD PUSH1 0x20 PUSH1 0x40 MLOAD DUP1 DUP4 SUB DUP2 DUP7 DUP1 EXTCODESIZE ISZERO DUP1 ISZERO PUSH2 0xDCD JUMPI PUSH1 0x0 DUP1 REVERT JUMPDEST PUSH1 0x0 PUSH2 0x166D DUP3 PUSH1 0x8 MUL PUSH2 0x281D JUMP JUMPDEST SWAP3 SWAP2 POP POP JUMP JUMPDEST PUSH1 0x0 PUSH2 0xDFE PUSH20 0x0 PUSH4 0x87098135 PUSH1 0x40 MLOAD DUP2 PUSH4 0xFFFFFFFF AND PUSH1 0xE0 SHL DUP2 MSTORE PUSH1 0x4 ADD PUSH1 0x20 PUSH1 0x40 MLOAD DUP1 DUP4 SUB DUP2 DUP7 DUP1 EXTCODESIZE ISZERO DUP1 ISZERO PUSH2 0xDCD JUMPI PUSH1 0x0 DUP1 REVERT JUMPDEST PUSH1 0x0 PUSH2 0xDFE PUSH20 0x0 PUSH4 0xD41A5B59 PUSH1 0x40 MLOAD DUP2 PUSH4 0xFFFFFFFF AND PUSH1 0xE0 SHL DUP2 MSTORE PUSH1 0x4 ADD PUSH1 0x20 PUSH1 0x40 MLOAD DUP1 DUP4 SUB DUP2 DUP7 DUP1 EXTCODESIZE ISZERO DUP1 ISZERO PUSH2 0xDCD JUMPI PUSH1 0x0 DUP1 REVERT JUMPDEST PUSH1 0x0 PUSH2 0xDFE PUSH20 0x0 PUSH4 0xE59CB574 PUSH1 0x40 MLOAD DUP2 PUSH4 0xFFFFFFFF AND PUSH1 0xE0 SHL DUP2 MSTORE PUSH1 0x4 ADD PUSH1 0x20 PUSH1 0x40 MLOAD DUP1 DUP4 SUB DUP2 DUP7 DUP1 EXTCODESIZE ISZERO DUP1 ISZERO PUSH2 0xDCD JUMPI PUSH1 0x0 DUP1 REVERT JUMPDEST PUSH1 0x0 PUSH2 0xDFE PUSH20 0x0 PUSH4 0xDA3E8D7B PUSH1 0x40 MLOAD DUP2 PUSH4 0xFFFFFFFF AND PUSH1 0xE0 SHL DUP2 MSTORE PUSH1 0x4 ADD PUSH1 0x20 PUSH1 0x40 MLOAD DUP1 DUP4 SUB DUP2 DUP7 DUP1 EXTCODESIZE ISZERO DUP1 ISZERO PUSH2 0xDCD JUMPI PUSH1 0x0 DUP1 REVERT JUMPDEST PUSH2 0xEAB DUP3 PUSH1 0x8 MUL DUP3 PUSH2 0x1AF1 JUMP JUMPDEST PUSH1 0x0 PUSH2 0xDFE PUSH20 0x0 PUSH4 0x6299EA3F PUSH1 0x40 MLOAD DUP2 PUSH4 0xFFFFFFFF AND PUSH1 0xE0 SHL DUP2 MSTORE PUSH1 0x4 ADD PUSH1 0x20 PUSH1 0x40 MLOAD DUP1 DUP4 SUB DUP2 DUP7 DUP1 EXTCODESIZE ISZERO DUP1 ISZERO PUSH2 0xDCD JUMPI PUSH1 0x0 DUP1 REVERT JUMPDEST PUSH2 0xD81 PUSH20 0x0 PUSH4 0x45827F69 PUSH1 0x40 MLOAD DUP2 PUSH4 0xFFFFFFFF AND PUSH1 0xE0 SHL DUP2 MSTORE PUSH1 0x4 ADD PUSH1 0x20 PUSH1 0x40 MLOAD DUP1 DUP4 SUB DUP2 DUP7 DUP1 EXTCODESIZE ISZERO DUP1 ISZERO PUSH2 0xD4F JUMPI PUSH1 0x0 DUP1 REVERT JUMPDEST PUSH2 0xD81 PUSH20 0x0 PUSH4 0xB255E9E4 PUSH1 0x40 MLOAD DUP2 PUSH4 0xFFFFFFFF AND PUSH1 0xE0 SHL DUP2 MSTORE PUSH1 0x4 ADD PUSH1 0x20 PUSH1 0x40 MLOAD DUP1 DUP4 SUB DUP2 DUP7 DUP1 EXTCODESIZE ISZERO DUP1 ISZERO PUSH2 0xD4F JUMPI PUSH1 0x0 DUP1 REVERT JUMPDEST PUSH1 0x0 PUSH2 0xDFE PUSH20 0x0 PUSH4 0x4A4C3510 PUSH1 0x40 MLOAD DUP2 PUSH4 0xFFFFFFFF AND PUSH1 0xE0 SHL DUP2 MSTORE PUSH1 0x4 ADD PUSH1 0x20 PUSH1 0x40 MLOAD DUP1 DUP4 SUB DUP2 DUP7 DUP1 EXTCODESIZE ISZERO DUP1 ISZERO PUSH2 0xDCD JUMPI PUSH1 0x0 DUP1 REVERT JUMPDEST PUSH1 0x0 PUSH2 0xDFE PUSH20 0x0 PUSH4 0xC585EEDE PUSH1 0x40 MLOAD DUP2 PUSH4 0xFFFFFFFF AND PUSH1 0xE0 SHL DUP2 MSTORE PUSH1 0x4 ADD PUSH1 0x20 PUSH1 0x40 MLOAD DUP1 DUP4 SUB DUP2 DUP7 DUP1 EXTCODESIZE ISZERO DUP1 ISZERO PUSH2 0xDCD JUMPI PUSH1 0x0 DUP1 REVERT JUMPDEST PUSH1 0x0 PUSH20 0x0 PUSH4 0x17A0CAC3 PUSH1 0x40 MLOAD DUP2 PUSH4 0xFFFFFFFF AND PUSH1 0xE0 SHL DUP2 MSTORE PUSH1 0x4 ADD PUSH1 0x20 PUSH1 0x40 MLOAD DUP1 DUP4 SUB DUP2 DUP7 DUP1 EXTCODESIZE ISZERO DUP1 ISZERO PUSH2 0x1953 JUMPI PUSH1 0x0 DUP1 REVERT JUMPDEST POP GAS DELEGATECALL ISZERO DUP1 ISZERO PUSH2 0x1967 JUMPI RETURNDATASIZE PUSH1 0x0 DUP1 RETURNDATACOPY RETURNDATASIZE PUSH1 0x0 REVERT JUMPDEST POP POP POP POP PUSH1 0x40 MLOAD RETURNDATASIZE PUSH1 0x20 DUP2 LT ISZERO PUSH2 0x197D JUMPI PUSH1 0x0 DUP1 REVERT JUMPDEST POP MLOAD PUSH1 0x40 DUP1 MLOAD PUSH4 0x51A2AB41 PUSH1 0xE1 SHL DUP2 MSTORE SWAP1 MLOAD PUSH1 0x1 PUSH1 0x1 PUSH1 0x40 SHL SUB SWAP1 SWAP3 AND SWAP2 PUSH20 0x0 SWAP2 PUSH4 0xA3455682 SWAP2 PUSH1 0x4 DUP1 DUP4 ADD SWAP3 PUSH1 0x20 SWAP3 SWAP2 SWAP1 DUP3 SWAP1 SUB ADD DUP2 DUP7 DUP1 EXTCODESIZE ISZERO DUP1 ISZERO PUSH2 0x19D6 JUMPI PUSH1 0x0 DUP1 REVERT JUMPDEST POP GAS DELEGATECALL ISZERO DUP1 ISZERO PUSH2 0x19EA JUMPI RETURNDATASIZE PUSH1 0x0 DUP1 RETURNDATACOPY RETURNDATASIZE PUSH1 0x0 REVERT JUMPDEST POP POP POP POP PUSH1 0x40 MLOAD RETURNDATASIZE PUSH1 0x20 DUP2 LT ISZERO PUSH2 0x1A00 JUMPI PUSH1 0x0 DUP1 REVERT JUMPDEST POP MLOAD PUSH1 0x40 DUP1 MLOAD PUSH4 0x2FFDABC5 PUSH1 0xE0 SHL DUP2 MSTORE SWAP1 MLOAD PUSH2 0x1A52 SWAP2 PUSH20 0x0 SWAP2 PUSH4 0x2FFDABC5 SWAP2 PUSH1 0x4 DUP1 DUP3 ADD SWAP3 PUSH1 0x20 SWAP3 SWAP1 SWAP2 SWAP1 DUP3 SWAP1 SUB ADD DUP2 DUP7 DUP1 EXTCODESIZE ISZERO DUP1 ISZERO PUSH2 0xDCD JUMPI PUSH1 0x0 DUP1 REVERT JUMPDEST AND PUSH1 0x1 PUSH1 0x1 PUSH1 0x40 SHL SUB AND SWAP1 SHR SWAP1 POP SWAP1 JUMP JUMPDEST PUSH2 0xD81 PUSH20 0x0 PUSH4 0xE80D1751 PUSH1 0x40 MLOAD DUP2 PUSH4 0xFFFFFFFF AND PUSH1 0xE0 SHL DUP2 MSTORE PUSH1 0x4 ADD PUSH1 0x20 PUSH1 0x40 MLOAD DUP1 DUP4 SUB DUP2 DUP7 DUP1 EXTCODESIZE ISZERO DUP1 ISZERO PUSH2 0xD4F JUMPI PUSH1 0x0 DUP1 REVERT JUMPDEST PUSH2 0xD81 PUSH20 0x0 PUSH4 0x7047F4DF PUSH1 0x40 MLOAD DUP2 PUSH4 0xFFFFFFFF AND PUSH1 0xE0 SHL DUP2 MSTORE PUSH1 0x4 ADD PUSH1 0x20 PUSH1 0x40 MLOAD DUP1 DUP4 SUB DUP2 DUP7 DUP1 EXTCODESIZE ISZERO DUP1 ISZERO PUSH2 0xD4F JUMPI PUSH1 0x0 DUP1 REVERT JUMPDEST PUSH1 0x0 PUSH20 0x0 PUSH4 0xBF1924C5 DUP4 PUSH1 0x40 MLOAD DUP3 PUSH4 0xFFFFFFFF AND PUSH1 0xE0 SHL DUP2 MSTORE PUSH1 0x4 ADD DUP1 DUP3 PUSH1 0x1 PUSH1 0x1 PUSH1 0x40 SHL SUB AND DUP2 MSTORE PUSH1 0x20 ADD SWAP2 POP POP PUSH1 0x20 PUSH1 0x40 MLOAD DUP1 DUP4 SUB DUP2 DUP7 DUP1 EXTCODESIZE ISZERO DUP1 ISZERO PUSH2 0x1B4B JUMPI PUSH1 0x0 DUP1 REVERT JUMPDEST POP GAS DELEGATECALL ISZERO DUP1 ISZERO PUSH2 0x1B5F JUMPI RETURNDATASIZE PUSH1 0x0 DUP1 RETURNDATACOPY RETURNDATASIZE PUSH1 0x0 REVERT JUMPDEST POP POP POP POP PUSH1 0x40 MLOAD RETURNDATASIZE PUSH1 0x20 DUP2 LT ISZERO PUSH2 0x1B75 JUMPI PUSH1 0x0 DUP1 REVERT JUMPDEST POP MLOAD PUSH1 0xC0 SHL SWAP1 POP PUSH1 0x1 PUSH1 0x1 PUSH1 0xC0 SHL SUB NOT DUP2 AND PUSH2 0x1B92 DUP5 PUSH1 0x0 PUSH2 0x2B5A JUMP JUMPDEST PUSH1 0x1 PUSH1 0x1 PUSH1 0xC0 SHL SUB NOT AND EQ PUSH2 0x1BEE JUMPI PUSH1 0x40 DUP1 MLOAD PUSH3 0x461BCD PUSH1 0xE5 SHL DUP2 MSTORE PUSH1 0x20 PUSH1 0x4 DUP3 ADD MSTORE PUSH1 0x1C PUSH1 0x24 DUP3 ADD MSTORE PUSH32 0x5772697474656E2076616C756520646F6573206E6F74206D6174636800000000 PUSH1 0x44 DUP3 ADD MSTORE SWAP1 MLOAD SWAP1 DUP2 SWAP1 SUB PUSH1 0x64 ADD SWAP1 REVERT JUMPDEST POP POP POP JUMP JUMPDEST PUSH1 0x0 PUSH2 0xDFE PUSH20 0x0 PUSH4 0xD124BD13 PUSH1 0x40 MLOAD DUP2 PUSH4 0xFFFFFFFF AND PUSH1 0xE0 SHL DUP2 MSTORE PUSH1 0x4 ADD PUSH1 0x20 PUSH1 0x40 MLOAD DUP1 DUP4 SUB DUP2 DUP7 DUP1 EXTCODESIZE ISZERO DUP1 ISZERO PUSH2 0xDCD JUMPI PUSH1 0x0 DUP1 REVERT JUMPDEST PUSH1 0x0 PUSH20 0x0 PUSH4 0x656B151F PUSH1 0x40 MLOAD DUP2 PUSH4 0xFFFFFFFF AND PUSH1 0xE0 SHL DUP2 MSTORE PUSH1 0x4 ADD PUSH1 0x20 PUSH1 0x40 MLOAD DUP1 DUP4 SUB DUP2 DUP7 DUP1 EXTCODESIZE ISZERO DUP1 ISZERO PUSH2 0x1C82 JUMPI PUSH1 0x0 DUP1 REVERT JUMPDEST POP GAS DELEGATECALL ISZERO DUP1 ISZERO PUSH2 0x1C96 JUMPI RETURNDATASIZE PUSH1 0x0 DUP1 RETURNDATACOPY RETURNDATASIZE PUSH1 0x0 REVERT JUMPDEST POP POP POP POP PUSH1 0x40 MLOAD RETURNDATASIZE PUSH1 0x20 DUP2 LT ISZERO PUSH2 0x1CAC JUMPI PUSH1 0x0 DUP1 REVERT JUMPDEST POP MLOAD PUSH1 0x40 DUP1 MLOAD PUSH4 0xFD198E55 PUSH1 0xE0 SHL DUP2 MSTORE SWAP1 MLOAD PUSH1 0x1 PUSH1 0x1 PUSH1 0x40 SHL SUB SWAP1 SWAP3 AND SWAP2 PUSH20 0x0 SWAP2 PUSH4 0xFD198E55 SWAP2 PUSH1 0x4 DUP1 DUP4 ADD SWAP3 PUSH1 0x20 SWAP3 SWAP2 SWAP1 DUP3 SWAP1 SUB ADD DUP2 DUP7 DUP1 EXTCODESIZE ISZERO DUP1 ISZERO PUSH2 0x19D6 JUMPI PUSH1 0x0 DUP1 REVERT JUMPDEST PUSH1 0x0 PUSH2 0xDFE PUSH20 0x0 PUSH4 0x9FF9932B PUSH1 0x40 MLOAD DUP2 PUSH4 0xFFFFFFFF AND PUSH1 0xE0 SHL DUP2 MSTORE PUSH1 0x4 ADD PUSH1 0x20 PUSH1 0x40 MLOAD DUP1 DUP4 SUB DUP2 DUP7 DUP1 EXTCODESIZE ISZERO DUP1 ISZERO PUSH2 0xDCD JUMPI PUSH1 0x0 DUP1 REVERT JUMPDEST PUSH2 0xD81 PUSH20 0x0 PUSH4 0x29301CAC PUSH1 0x40 MLOAD DUP2 PUSH4 0xFFFFFFFF AND PUSH1 0xE0 SHL DUP2 MSTORE PUSH1 0x4 ADD PUSH1 0x20 PUSH1 0x40 MLOAD DUP1 DUP4 SUB DUP2 DUP7 DUP1 EXTCODESIZE ISZERO DUP1 ISZERO PUSH2 0xD4F JUMPI PUSH1 0x0 DUP1 REVERT JUMPDEST PUSH2 0xD81 PUSH20 0x0 PUSH4 0x8FD6B7C4 PUSH1 0x40 MLOAD DUP2 PUSH4 0xFFFFFFFF AND PUSH1 0xE0 SHL DUP2 MSTORE PUSH1 0x4 ADD PUSH1 0x20 PUSH1 0x40 MLOAD DUP1 DUP4 SUB DUP2 DUP7 DUP1 EXTCODESIZE ISZERO DUP1 ISZERO PUSH2 0xD4F JUMPI PUSH1 0x0 DUP1 REVERT JUMPDEST PUSH1 0x0 PUSH2 0xDFE PUSH20 0x0 PUSH4 0x520AFF6C PUSH1 0x40 MLOAD DUP2 PUSH4 0xFFFFFFFF AND PUSH1 0xE0 SHL DUP2 MSTORE PUSH1 0x4 ADD PUSH1 0x20 PUSH1 0x40 MLOAD DUP1 DUP4 SUB DUP2 DUP7 DUP1 EXTCODESIZE ISZERO DUP1 ISZERO PUSH2 0xDCD JUMPI PUSH1 0x0 DUP1 REVERT JUMPDEST DUP2 MLOAD DUP4 MLOAD EQ PUSH2 0x1E65 JUMPI PUSH1 0x40 MLOAD PUSH3 0x461BCD PUSH1 0xE5 SHL DUP2 MSTORE PUSH1 0x4 ADD DUP1 DUP1 PUSH1 0x20 ADD DUP3 DUP2 SUB DUP3 MSTORE PUSH1 0x27 DUP2 MSTORE PUSH1 0x20 ADD DUP1 PUSH2 0x2EF9 PUSH1 0x27 SWAP2 CODECOPY PUSH1 0x40 ADD SWAP2 POP POP PUSH1 0x40 MLOAD DUP1 SWAP2 SUB SWAP1 REVERT JUMPDEST DUP1 MLOAD DUP4 MLOAD EQ PUSH2 0x1EA5 JUMPI PUSH1 0x40 MLOAD PUSH3 0x461BCD PUSH1 0xE5 SHL DUP2 MSTORE PUSH1 0x4 ADD DUP1 DUP1 PUSH1 0x20 ADD DUP3 DUP2 SUB DUP3 MSTORE PUSH1 0x27 DUP2 MSTORE PUSH1 0x20 ADD DUP1 PUSH2 0x2EF9 PUSH1 0x27 SWAP2 CODECOPY PUSH1 0x40 ADD SWAP2 POP POP PUSH1 0x40 MLOAD DUP1 SWAP2 SUB SWAP1 REVERT JUMPDEST PUSH1 0x0 DUP1 SSTORE DUP3 MLOAD PUSH2 0x1EBC SWAP1 PUSH1 0x1 SWAP1 PUSH1 0x20 DUP7 ADD SWAP1 PUSH2 0x2D05 JUMP JUMPDEST POP DUP2 MLOAD PUSH2 0x1ED0 SWAP1 PUSH1 0x2 SWAP1 PUSH1 0x20 DUP6 ADD SWAP1 PUSH2 0x2DBD JUMP JUMPDEST POP DUP1 MLOAD PUSH2 0x1EE4 SWAP1 PUSH1 0x3 SWAP1 PUSH1 0x20 DUP5 ADD SWAP1 PUSH2 0x2E2A JUMP JUMPDEST POP POP POP POP JUMP JUMPDEST PUSH1 0x0 PUSH2 0xDFE PUSH20 0x0 PUSH4 0x2935B8CE PUSH1 0x40 MLOAD DUP2 PUSH4 0xFFFFFFFF AND PUSH1 0xE0 SHL DUP2 MSTORE PUSH1 0x4 ADD PUSH1 0x20 PUSH1 0x40 MLOAD DUP1 DUP4 SUB DUP2 DUP7 DUP1 EXTCODESIZE ISZERO DUP1 ISZERO PUSH2 0xDCD JUMPI PUSH1 0x0 DUP1 REVERT JUMPDEST PUSH1 0x0 PUSH2 0x1F3D PUSH2 0x2217 JUMP JUMPDEST SWAP1 POP DUP2 ISZERO PUSH2 0x1F89 JUMPI PUSH20 0x0 PUSH4 0xFD198E55 PUSH1 0x40 MLOAD DUP2 PUSH4 0xFFFFFFFF AND PUSH1 0xE0 SHL DUP2 MSTORE PUSH1 0x4 ADD PUSH1 0x20 PUSH1 0x40 MLOAD DUP1 DUP4 SUB DUP2 DUP7 DUP1 EXTCODESIZE ISZERO DUP1 ISZERO PUSH2 0x1149 JUMPI PUSH1 0x0 DUP1 REVERT JUMPDEST PUSH20 0x0 PUSH4 0xFD198E55 PUSH1 0x40 MLOAD DUP2 PUSH4 0xFFFFFFFF AND PUSH1 0xE0 SHL DUP2 MSTORE PUSH1 0x4 ADD PUSH1 0x20 PUSH1 0x40 MLOAD DUP1 DUP4 SUB DUP2 DUP7 DUP1 EXTCODESIZE ISZERO DUP1 ISZERO PUSH2 0x11BF JUMPI PUSH1 0x0 DUP1 REVERT JUMPDEST PUSH2 0xD81 PUSH20 0x0 PUSH4 0x520AFF6C PUSH1 0x40 MLOAD DUP2 PUSH4 0xFFFFFFFF AND PUSH1 0xE0 SHL DUP2 MSTORE PUSH1 0x4 ADD PUSH1 0x20 PUSH1 0x40 MLOAD DUP1 DUP4 SUB DUP2 DUP7 DUP1 EXTCODESIZE ISZERO DUP1 ISZERO PUSH2 0xD4F JUMPI PUSH1 0x0 DUP1 REVERT JUMPDEST PUSH2 0xD81 PUSH20 0x0 PUSH4 0x443FD598 PUSH1 0x40 MLOAD DUP2 PUSH4 0xFFFFFFFF AND PUSH1 0xE0 SHL DUP2 MSTORE PUSH1 0x4 ADD PUSH1 0x20 PUSH1 0x40 MLOAD DUP1 DUP4 SUB DUP2 DUP7 DUP1 EXTCODESIZE ISZERO DUP1 ISZERO PUSH2 0xD4F JUMPI PUSH1 0x0 DUP1 REVERT JUMPDEST PUSH1 0x0 PUSH2 0xDFE PUSH20 0x0 PUSH4 0x9A59734C PUSH1 0x40 MLOAD DUP2 PUSH4 0xFFFFFFFF AND PUSH1 0xE0 SHL DUP2 MSTORE PUSH1 0x4 ADD PUSH1 0x20 PUSH1 0x40 MLOAD DUP1 DUP4 SUB DUP2 DUP7 DUP1 EXTCODESIZE ISZERO DUP1 ISZERO PUSH2 0xDCD JUMPI PUSH1 0x0 DUP1 REVERT JUMPDEST PUSH2 0xD81 PUSH20 0x0 PUSH4 0xA279D71 PUSH1 0x40 MLOAD DUP2 PUSH4 0xFFFFFFFF AND PUSH1 0xE0 SHL DUP2 MSTORE PUSH1 0x4 ADD PUSH1 0x20 PUSH1 0x40 MLOAD DUP1 DUP4 SUB DUP2 DUP7 DUP1 EXTCODESIZE ISZERO DUP1 ISZERO PUSH2 0xD4F JUMPI PUSH1 0x0 DUP1 REVERT JUMPDEST PUSH1 0x0 PUSH2 0x20F5 PUSH2 0x2217 JUMP JUMPDEST SWAP1 POP DUP2 ISZERO PUSH2 0x2141 JUMPI PUSH20 0x0 PUSH4 0xA3455682 PUSH1 0x40 MLOAD DUP2 PUSH4 0xFFFFFFFF AND PUSH1 0xE0 SHL DUP2 MSTORE PUSH1 0x4 ADD PUSH1 0x20 PUSH1 0x40 MLOAD DUP1 DUP4 SUB DUP2 DUP7 DUP1 EXTCODESIZE ISZERO DUP1 ISZERO PUSH2 0x1149 JUMPI PUSH1 0x0 DUP1 REVERT JUMPDEST PUSH20 0x0 PUSH4 0xA3455682 PUSH1 0x40 MLOAD DUP2 PUSH4 0xFFFFFFFF AND PUSH1 0xE0 SHL DUP2 MSTORE PUSH1 0x4 ADD PUSH1 0x20 PUSH1 0x40 MLOAD DUP1 DUP4 SUB DUP2 DUP7 DUP1 EXTCODESIZE ISZERO DUP1 ISZERO PUSH2 0x11BF JUMPI PUSH1 0x0 DUP1 REVERT JUMPDEST PUSH1 0x0 PUSH2 0xDFE PUSH20 0x0 PUSH4 0x42DB3667 PUSH1 0x40 MLOAD DUP2 PUSH4 0xFFFFFFFF AND PUSH1 0xE0 SHL DUP2 MSTORE PUSH1 0x4 ADD PUSH1 0x20 PUSH1 0x40 MLOAD DUP1 DUP4 SUB DUP2 DUP7 DUP1 EXTCODESIZE ISZERO DUP1 ISZERO PUSH2 0xDCD JUMPI PUSH1 0x0 DUP1 REVERT JUMPDEST PUSH1 0x0 PUSH2 0xDFE PUSH20 0x0 PUSH4 0x929127DB PUSH1 0x40 MLOAD DUP2 PUSH4 0xFFFFFFFF AND PUSH1 0xE0 SHL DUP2 MSTORE PUSH1 0x4 ADD PUSH1 0x20 PUSH1 0x40 MLOAD DUP1 DUP4 SUB DUP2 DUP7 DUP1 EXTCODESIZE ISZERO DUP1 ISZERO PUSH2 0xDCD JUMPI PUSH1 0x0 DUP1 REVERT JUMPDEST PUSH1 0x0 PUSH2 0xDFE PUSH20 0x0 PUSH4 0x2FFDABC5 PUSH1 0x40 MLOAD DUP2 PUSH4 0xFFFFFFFF AND PUSH1 0xE0 SHL DUP2 MSTORE PUSH1 0x4 ADD PUSH1 0x20 PUSH1 0x40 MLOAD DUP1 DUP4 SUB DUP2 DUP7 DUP1 EXTCODESIZE ISZERO DUP1 ISZERO PUSH2 0xDCD JUMPI PUSH1 0x0 DUP1 REVERT JUMPDEST PUSH2 0xD81 PUSH20 0x0 PUSH4 0x6630AD87 PUSH1 0x40 MLOAD DUP2 PUSH4 0xFFFFFFFF AND PUSH1 0xE0 SHL DUP2 MSTORE PUSH1 0x4 ADD PUSH1 0x20 PUSH1 0x40 MLOAD DUP1 DUP4 SUB DUP2 DUP7 DUP1 EXTCODESIZE ISZERO DUP1 ISZERO PUSH2 0xD4F JUMPI PUSH1 0x0 DUP1 REVERT JUMPDEST PUSH1 0x0 PUSH2 0xDFE PUSH20 0x0 PUSH4 0xE80D1751 PUSH1 0x40 MLOAD DUP2 PUSH4 0xFFFFFFFF AND PUSH1 0xE0 SHL DUP2 MSTORE PUSH1 0x4 ADD PUSH1 0x20 PUSH1 0x40 MLOAD DUP1 DUP4 SUB DUP2 DUP7 DUP1 EXTCODESIZE ISZERO DUP1 ISZERO PUSH2 0xDCD JUMPI PUSH1 0x0 DUP1 REVERT JUMPDEST PUSH1 0x0 PUSH2 0x22FA PUSH2 0x2217 JUMP JUMPDEST SWAP1 POP PUSH20 0x0 PUSH4 0x910A5247 PUSH1 0x40 MLOAD DUP2 PUSH4 0xFFFFFFFF AND PUSH1 0xE0 SHL DUP2 MSTORE PUSH1 0x4 ADD PUSH1 0x20 PUSH1 0x40 MLOAD DUP1 DUP4 SUB DUP2 DUP7 DUP1 EXTCODESIZE ISZERO DUP1 ISZERO PUSH2 0x2340 JUMPI PUSH1 0x0 DUP1 REVERT JUMPDEST POP GAS DELEGATECALL ISZERO DUP1 ISZERO PUSH2 0x2354 JUMPI RETURNDATASIZE PUSH1 0x0 DUP1 RETURNDATACOPY RETURNDATASIZE PUSH1 0x0 REVERT JUMPDEST POP POP POP POP PUSH1 0x40 MLOAD RETURNDATASIZE PUSH1 0x20 DUP2 LT ISZERO PUSH2 0x236A JUMPI PUSH1 0x0 DUP1 REVERT JUMPDEST POP MLOAD PUSH1 0x40 DUP1 MLOAD PUSH4 0x317D2BB5 PUSH1 0xE0 SHL DUP2 MSTORE SWAP1 MLOAD PUSH1 0x1 PUSH1 0x1 PUSH1 0x40 SHL SUB DUP6 DUP2 AND SWAP4 AND SWAP3 SWAP1 SWAP3 SHL SWAP2 PUSH20 0x0 SWAP2 PUSH4 0x317D2BB5 SWAP2 PUSH1 0x4 DUP1 DUP4 ADD SWAP3 PUSH1 0x20 SWAP3 SWAP2 SWAP1 DUP3 SWAP1 SUB ADD DUP2 DUP7 DUP1 EXTCODESIZE ISZERO DUP1 ISZERO PUSH2 0x23C9 JUMPI PUSH1 0x0 DUP1 REVERT JUMPDEST POP GAS DELEGATECALL ISZERO DUP1 ISZERO PUSH2 0x23DD JUMPI RETURNDATASIZE PUSH1 0x0 DUP1 RETURNDATACOPY RETURNDATASIZE PUSH1 0x0 REVERT JUMPDEST POP POP POP POP PUSH1 0x40 MLOAD RETURNDATASIZE PUSH1 0x20 DUP2 LT ISZERO PUSH2 0x23F3 JUMPI PUSH1 0x0 DUP1 REVERT JUMPDEST POP MLOAD PUSH1 0x40 DUP1 MLOAD PUSH4 0x2FFDABC5 PUSH1 0xE0 SHL DUP2 MSTORE SWAP1 MLOAD SWAP2 NOT SWAP4 SWAP1 SWAP4 AND SWAP2 SWAP1 SWAP2 OR SWAP2 PUSH2 0xEAB SWAP2 PUSH20 0x0 SWAP2 PUSH4 0x2FFDABC5 SWAP2 PUSH1 0x4 DUP1 DUP4 ADD SWAP3 PUSH1 0x20 SWAP3 SWAP2 SWAP1 DUP3 SWAP1 SUB ADD DUP2 DUP7 DUP1 EXTCODESIZE ISZERO DUP1 ISZERO PUSH2 0xD4F JUMPI PUSH1 0x0 DUP1 REVERT JUMPDEST PUSH2 0xD81 PUSH20 0x0 PUSH4 0x2935B8CE PUSH1 0x40 MLOAD DUP2 PUSH4 0xFFFFFFFF AND PUSH1 0xE0 SHL DUP2 MSTORE PUSH1 0x4 ADD PUSH1 0x20 PUSH1 0x40 MLOAD DUP1 DUP4 SUB DUP2 DUP7 DUP1 EXTCODESIZE ISZERO DUP1 ISZERO PUSH2 0xD4F JUMPI PUSH1 0x0 DUP1 REVERT JUMPDEST PUSH1 0x0 PUSH20 0x0 PUSH4 0xE89D408D PUSH1 0x40 MLOAD DUP2 PUSH4 0xFFFFFFFF AND PUSH1 0xE0 SHL DUP2 MSTORE PUSH1 0x4 ADD PUSH1 0x20 PUSH1 0x40 MLOAD DUP1 DUP4 SUB DUP2 DUP7 DUP1 EXTCODESIZE ISZERO DUP1 ISZERO PUSH2 0x24DC JUMPI PUSH1 0x0 DUP1 REVERT JUMPDEST POP GAS DELEGATECALL ISZERO DUP1 ISZERO PUSH2 0x24F0 JUMPI RETURNDATASIZE PUSH1 0x0 DUP1 RETURNDATACOPY RETURNDATASIZE PUSH1 0x0 REVERT JUMPDEST POP POP POP POP PUSH1 0x40 MLOAD RETURNDATASIZE PUSH1 0x20 DUP2 LT ISZERO PUSH2 0x2506 JUMPI PUSH1 0x0 DUP1 REVERT JUMPDEST POP MLOAD PUSH1 0x40 DUP1 MLOAD PUSH4 0xE697ACE9 PUSH1 0xE0 SHL DUP2 MSTORE SWAP1 MLOAD PUSH1 0x1 PUSH1 0x1 PUSH1 0x40 SHL SUB SWAP1 SWAP3 AND SWAP2 PUSH20 0x0 SWAP2 PUSH4 0xE697ACE9 SWAP2 PUSH1 0x4 DUP1 DUP4 ADD SWAP3 PUSH1 0x20 SWAP3 SWAP2 SWAP1 DUP3 SWAP1 SUB ADD DUP2 DUP7 DUP1 EXTCODESIZE ISZERO DUP1 ISZERO PUSH2 0x19D6 JUMPI PUSH1 0x0 DUP1 REVERT JUMPDEST PUSH1 0x0 PUSH2 0xDFE PUSH20 0x0 PUSH4 0xA43E290F PUSH1 0x40 MLOAD DUP2 PUSH4 0xFFFFFFFF AND PUSH1 0xE0 SHL DUP2 MSTORE PUSH1 0x4 ADD PUSH1 0x20 PUSH1 0x40 MLOAD DUP1 DUP4 SUB DUP2 DUP7 DUP1 EXTCODESIZE ISZERO DUP1 ISZERO PUSH2 0xDCD JUMPI PUSH1 0x0 DUP1 REVERT JUMPDEST PUSH2 0xD81 PUSH20 0x0 PUSH4 0x521819F5 PUSH1 0x40 MLOAD DUP2 PUSH4 0xFFFFFFFF AND PUSH1 0xE0 SHL DUP2 MSTORE PUSH1 0x4 ADD PUSH1 0x20 PUSH1 0x40 MLOAD DUP1 DUP4 SUB DUP2 DUP7 DUP1 EXTCODESIZE ISZERO DUP1 ISZERO PUSH2 0xD4F JUMPI PUSH1 0x0 DUP1 REVERT JUMPDEST PUSH2 0xD81 PUSH20 0x0 PUSH4 0xE2E2E712 PUSH1 0x40 MLOAD DUP2 PUSH4 0xFFFFFFFF AND PUSH1 0xE0 SHL DUP2 MSTORE PUSH1 0x4 ADD PUSH1 0x20 PUSH1 0x40 MLOAD DUP1 DUP4 SUB DUP2 DUP7 DUP1 EXTCODESIZE ISZERO DUP1 ISZERO PUSH2 0xD4F JUMPI PUSH1 0x0 DUP1 REVERT JUMPDEST PUSH1 0x0 PUSH2 0xDFE PUSH20 0x0 PUSH4 0xA279D71 PUSH1 0x40 MLOAD DUP2 PUSH4 0xFFFFFFFF AND PUSH1 0xE0 SHL DUP2 MSTORE PUSH1 0x4 ADD PUSH1 0x20 PUSH1 0x40 MLOAD DUP1 DUP4 SUB DUP2 DUP7 DUP1 EXTCODESIZE ISZERO DUP1 ISZERO PUSH2 0xDCD JUMPI PUSH1 0x0 DUP1 REVERT JUMPDEST PUSH2 0xD81 PUSH20 0x0 PUSH4 0x42DB3667 PUSH1 0x40 MLOAD DUP2 PUSH4 0xFFFFFFFF AND PUSH1 0xE0 SHL DUP2 MSTORE PUSH1 0x4 ADD PUSH1 0x20 PUSH1 0x40 MLOAD DUP1 DUP4 SUB DUP2 DUP7 DUP1 EXTCODESIZE ISZERO DUP1 ISZERO PUSH2 0xD4F JUMPI PUSH1 0x0 DUP1 REVERT JUMPDEST PUSH2 0xD81 PUSH20 0x0 PUSH4 0xDA3E8D7B PUSH1 0x40 MLOAD DUP2 PUSH4 0xFFFFFFFF AND PUSH1 0xE0 SHL DUP2 MSTORE PUSH1 0x4 ADD PUSH1 0x20 PUSH1 0x40 MLOAD DUP1 DUP4 SUB DUP2 DUP7 DUP1 EXTCODESIZE ISZERO DUP1 ISZERO PUSH2 0xD4F JUMPI PUSH1 0x0 DUP1 REVERT JUMPDEST PUSH1 0x0 PUSH20 0x0 PUSH4 0x910A5247 PUSH1 0x40 MLOAD DUP2 PUSH4 0xFFFFFFFF AND PUSH1 0xE0 SHL DUP2 MSTORE PUSH1 0x4 ADD PUSH1 0x20 PUSH1 0x40 MLOAD DUP1 DUP4 SUB DUP2 DUP7 DUP1 EXTCODESIZE ISZERO DUP1 ISZERO PUSH2 0x2753 JUMPI PUSH1 0x0 DUP1 REVERT JUMPDEST POP GAS DELEGATECALL ISZERO DUP1 ISZERO PUSH2 0x2767 JUMPI RETURNDATASIZE PUSH1 0x0 DUP1 RETURNDATACOPY RETURNDATASIZE PUSH1 0x0 REVERT JUMPDEST POP POP POP POP PUSH1 0x40 MLOAD RETURNDATASIZE PUSH1 0x20 DUP2 LT ISZERO PUSH2 0x277D JUMPI PUSH1 0x0 DUP1 REVERT JUMPDEST POP MLOAD PUSH1 0x40 DUP1 MLOAD PUSH4 0x317D2BB5 PUSH1 0xE0 SHL DUP2 MSTORE SWAP1 MLOAD PUSH1 0x1 PUSH1 0x1 PUSH1 0x40 SHL SUB SWAP1 SWAP3 AND SWAP2 PUSH20 0x0 SWAP2 PUSH4 0x317D2BB5 SWAP2 PUSH1 0x4 DUP1 DUP4 ADD SWAP3 PUSH1 0x20 SWAP3 SWAP2 SWAP1 DUP3 SWAP1 SUB ADD DUP2 DUP7 DUP1 EXTCODESIZE ISZERO DUP1 ISZERO PUSH2 0x19D6 JUMPI PUSH1 0x0 DUP1 REVERT JUMPDEST PUSH2 0xD81 PUSH20 0x0 PUSH4 0xD41A5B59 PUSH1 0x40 MLOAD DUP2 PUSH4 0xFFFFFFFF AND PUSH1 0xE0 SHL DUP2 MSTORE PUSH1 0x4 ADD PUSH1 0x20 PUSH1 0x40 MLOAD DUP1 DUP4 SUB DUP2 DUP7 DUP1 EXTCODESIZE ISZERO DUP1 ISZERO PUSH2 0xD4F JUMPI PUSH1 0x0 DUP1 REVERT JUMPDEST PUSH1 0x0 PUSH20 0x0 PUSH4 0xBF1924C5 PUSH2 0x2844 DUP5 PUSH1 0x1 PUSH2 0x2B5A JUMP JUMPDEST PUSH1 0xC0 SHR PUSH1 0x40 MLOAD DUP3 PUSH4 0xFFFFFFFF AND PUSH1 0xE0 SHL DUP2 MSTORE PUSH1 0x4 ADD DUP1 DUP3 PUSH1 0x1 PUSH1 0x1 PUSH1 0x40 SHL SUB AND DUP2 MSTORE PUSH1 0x20 ADD SWAP2 POP POP PUSH1 0x20 PUSH1 0x40 MLOAD DUP1 DUP4 SUB DUP2 DUP7 DUP1 EXTCODESIZE ISZERO DUP1 ISZERO PUSH2 0x2884 JUMPI PUSH1 0x0 DUP1 REVERT JUMPDEST POP GAS DELEGATECALL ISZERO DUP1 ISZERO PUSH2 0x2898 JUMPI RETURNDATASIZE PUSH1 0x0 DUP1 RETURNDATACOPY RETURNDATASIZE PUSH1 0x0 REVERT JUMPDEST POP POP POP POP PUSH1 0x40 MLOAD RETURNDATASIZE PUSH1 0x20 DUP2 LT ISZERO PUSH2 0x28AE JUMPI PUSH1 0x0 DUP1 REVERT JUMPDEST POP MLOAD SWAP3 SWAP2 POP POP JUMP JUMPDEST PUSH2 0xD81 PUSH20 0x0 PUSH4 0x87098135 PUSH1 0x40 MLOAD DUP2 PUSH4 0xFFFFFFFF AND PUSH1 0xE0 SHL DUP2 MSTORE PUSH1 0x4 ADD PUSH1 0x20 PUSH1 0x40 MLOAD DUP1 DUP4 SUB DUP2 DUP7 DUP1 EXTCODESIZE ISZERO DUP1 ISZERO PUSH2 0xD4F JUMPI PUSH1 0x0 DUP1 REVERT JUMPDEST PUSH1 0x0 PUSH1 0x8 PUSH1 0x1 PUSH1 0x1 PUSH1 0x40 SHL SUB DUP4 AND DIV SWAP1 POP DUP1 PUSH1 0x1 PUSH1 0x1 PUSH1 0x40 SHL SUB AND PUSH1 0x8 EQ ISZERO PUSH2 0x292F JUMPI PUSH2 0x292A DUP5 DUP5 PUSH2 0x1AF1 JUMP JUMPDEST PUSH2 0x1EE4 JUMP JUMPDEST PUSH1 0x7 NOT DUP5 AND DUP1 DUP6 SUB PUSH1 0x0 PUSH2 0x2942 DUP4 PUSH2 0x2B44 JUMP JUMPDEST SWAP1 POP PUSH1 0x0 PUSH20 0x0 PUSH4 0xBF1924C5 DUP5 PUSH1 0x8 MUL PUSH1 0x1 PUSH1 0x1 PUSH1 0x40 SHL SUB AND PUSH1 0x1 DUP10 PUSH1 0x1 PUSH1 0x1 PUSH1 0x40 SHL SUB AND PUSH1 0x2 PUSH1 0x1 PUSH1 0x1 PUSH1 0x40 SHL SUB AND EXP SUB PUSH1 0x1 PUSH1 0x1 PUSH1 0x40 SHL SUB AND SWAP1 SHL PUSH1 0x40 MLOAD DUP3 PUSH4 0xFFFFFFFF AND PUSH1 0xE0 SHL DUP2 MSTORE PUSH1 0x4 ADD DUP1 DUP3 PUSH1 0x1 PUSH1 0x1 PUSH1 0x40 SHL SUB AND DUP2 MSTORE PUSH1 0x20 ADD SWAP2 POP POP PUSH1 0x20 PUSH1 0x40 MLOAD DUP1 DUP4 SUB DUP2 DUP7 DUP1 EXTCODESIZE ISZERO DUP1 ISZERO PUSH2 0x29CE JUMPI PUSH1 0x0 DUP1 REVERT JUMPDEST POP GAS DELEGATECALL ISZERO DUP1 ISZERO PUSH2 0x29E2 JUMPI RETURNDATASIZE PUSH1 0x0 DUP1 RETURNDATACOPY RETURNDATASIZE PUSH1 0x0 REVERT JUMPDEST POP POP POP POP PUSH1 0x40 MLOAD RETURNDATASIZE PUSH1 0x20 DUP2 LT ISZERO PUSH2 0x29F8 JUMPI PUSH1 0x0 DUP1 REVERT JUMPDEST POP MLOAD PUSH1 0x40 DUP1 MLOAD PUSH4 0xBF1924C5 PUSH1 0xE0 SHL DUP2 MSTORE PUSH1 0x1 PUSH1 0x1 PUSH1 0x40 SHL SUB DUP10 DUP2 AND PUSH1 0x2 EXP PUSH1 0x0 NOT ADD DUP12 AND AND PUSH1 0x4 DUP3 ADD MSTORE SWAP1 MLOAD SWAP2 SWAP3 POP PUSH1 0x0 SWAP2 PUSH20 0x0 SWAP2 PUSH4 0xBF1924C5 SWAP2 PUSH1 0x24 DUP1 DUP4 ADD SWAP3 PUSH1 0x20 SWAP3 SWAP2 SWAP1 DUP3 SWAP1 SUB ADD DUP2 DUP7 DUP1 EXTCODESIZE ISZERO DUP1 ISZERO PUSH2 0x2A65 JUMPI PUSH1 0x0 DUP1 REVERT JUMPDEST POP GAS DELEGATECALL ISZERO DUP1 ISZERO PUSH2 0x2A79 JUMPI RETURNDATASIZE PUSH1 0x0 DUP1 RETURNDATACOPY RETURNDATASIZE PUSH1 0x0 REVERT JUMPDEST POP POP POP POP PUSH1 0x40 MLOAD RETURNDATASIZE PUSH1 0x20 DUP2 LT ISZERO PUSH2 0x2A8F JUMPI PUSH1 0x0 DUP1 REVERT JUMPDEST POP MLOAD PUSH1 0x40 DUP1 MLOAD PUSH4 0xBF1924C5 PUSH1 0xE0 SHL DUP2 MSTORE PUSH1 0x1 PUSH1 0x1 PUSH1 0x40 SHL SUB DUP1 DUP5 AND PUSH1 0x8 DUP10 MUL DUP3 AND SHR DUP7 NOT DUP9 AND OR SWAP1 DUP2 AND PUSH1 0x4 DUP4 ADD MSTORE SWAP2 MLOAD SWAP3 SWAP4 POP SWAP1 SWAP2 PUSH20 0x0 SWAP2 PUSH4 0xBF1924C5 SWAP2 PUSH1 0x24 DUP1 DUP4 ADD SWAP3 PUSH1 0x20 SWAP3 SWAP2 SWAP1 DUP3 SWAP1 SUB ADD DUP2 DUP7 DUP1 EXTCODESIZE ISZERO DUP1 ISZERO PUSH2 0x2B00 JUMPI PUSH1 0x0 DUP1 REVERT JUMPDEST POP GAS DELEGATECALL ISZERO DUP1 ISZERO PUSH2 0x2B14 JUMPI RETURNDATASIZE PUSH1 0x0 DUP1 RETURNDATACOPY RETURNDATASIZE PUSH1 0x0 REVERT JUMPDEST POP POP POP POP PUSH1 0x40 MLOAD RETURNDATASIZE PUSH1 0x20 DUP2 LT ISZERO PUSH2 0x2B2A JUMPI PUSH1 0x0 DUP1 REVERT JUMPDEST POP MLOAD SWAP1 POP PUSH2 0x2B38 DUP7 DUP3 PUSH2 0x1AF1 JUMP JUMPDEST POP POP POP POP POP POP POP POP POP POP JUMP JUMPDEST PUSH1 0x0 PUSH2 0x2B51 DUP3 PUSH1 0x1 PUSH2 0x2B5A JUMP JUMPDEST PUSH1 0xC0 SHR SWAP3 SWAP2 POP POP JUMP JUMPDEST PUSH1 0x0 DUP2 ISZERO ISZERO PUSH1 0x3 PUSH1 0x0 SLOAD DUP2 SLOAD DUP2 LT PUSH2 0x2B6E JUMPI INVALID JUMPDEST SWAP1 PUSH1 0x0 MSTORE PUSH1 0x20 PUSH1 0x0 KECCAK256 SWAP1 PUSH1 0x20 SWAP2 DUP3 DUP3 DIV ADD SWAP2 SWAP1 MOD SWAP1 SLOAD SWAP1 PUSH2 0x100 EXP SWAP1 DIV PUSH1 0xFF AND ISZERO ISZERO EQ PUSH2 0x2BE2 JUMPI PUSH1 0x40 DUP1 MLOAD PUSH3 0x461BCD PUSH1 0xE5 SHL DUP2 MSTORE PUSH1 0x20 PUSH1 0x4 DUP3 ADD MSTORE PUSH1 0x1F PUSH1 0x24 DUP3 ADD MSTORE PUSH32 0x41636365737320776173206E6F742074686520636F7272656374207479706500 PUSH1 0x44 DUP3 ADD MSTORE SWAP1 MLOAD SWAP1 DUP2 SWAP1 SUB PUSH1 0x64 ADD SWAP1 REVERT JUMPDEST PUSH1 0x0 PUSH1 0x1 PUSH1 0x0 SLOAD DUP2 SLOAD DUP2 LT PUSH2 0x2BF3 JUMPI INVALID JUMPDEST SWAP1 PUSH1 0x0 MSTORE PUSH1 0x20 PUSH1 0x0 KECCAK256 SWAP1 PUSH1 0x4 SWAP2 DUP3 DUP3 DIV ADD SWAP2 SWAP1 MOD PUSH1 0x8 MUL SWAP1 SLOAD SWAP1 PUSH2 0x100 EXP SWAP1 DIV PUSH1 0x1 PUSH1 0x1 PUSH1 0x40 SHL SUB AND SWAP1 POP PUSH1 0x0 PUSH1 0x2 PUSH1 0x0 SLOAD DUP2 SLOAD DUP2 LT PUSH2 0x2C2F JUMPI INVALID JUMPDEST PUSH1 0x0 SWAP2 DUP3 MSTORE PUSH1 0x20 DUP3 KECCAK256 PUSH1 0x4 DUP3 DIV ADD SLOAD DUP3 SLOAD PUSH1 0x1 ADD SWAP1 SWAP3 SSTORE PUSH1 0x3 AND PUSH1 0x8 MUL PUSH2 0x100 EXP SWAP1 DIV PUSH1 0xC0 SHL SWAP1 POP PUSH1 0x7 DUP3 AND ISZERO PUSH2 0x2CAD JUMPI PUSH1 0x40 DUP1 MLOAD PUSH3 0x461BCD PUSH1 0xE5 SHL DUP2 MSTORE PUSH1 0x20 PUSH1 0x4 DUP3 ADD MSTORE PUSH1 0x17 PUSH1 0x24 DUP3 ADD MSTORE PUSH32 0x506F736974696F6E206973206E6F7420616C69676E6564000000000000000000 PUSH1 0x44 DUP3 ADD MSTORE SWAP1 MLOAD SWAP1 DUP2 SWAP1 SUB PUSH1 0x64 ADD SWAP1 REVERT JUMPDEST DUP5 PUSH1 0x1 PUSH1 0x1 PUSH1 0x40 SHL SUB AND DUP3 PUSH1 0x1 PUSH1 0x1 PUSH1 0x40 SHL SUB AND EQ PUSH2 0x2CFD JUMPI PUSH1 0x40 MLOAD PUSH3 0x461BCD PUSH1 0xE5 SHL DUP2 MSTORE PUSH1 0x4 ADD DUP1 DUP1 PUSH1 0x20 ADD DUP3 DUP2 SUB DUP3 MSTORE PUSH1 0x26 DUP2 MSTORE PUSH1 0x20 ADD DUP1 PUSH2 0x2ED3 PUSH1 0x26 SWAP2 CODECOPY PUSH1 0x40 ADD SWAP2 POP POP PUSH1 0x40 MLOAD DUP1 SWAP2 SUB SWAP1 REVERT JUMPDEST SWAP5 SWAP4 POP POP POP POP JUMP JUMPDEST DUP3 DUP1 SLOAD DUP3 DUP3 SSTORE SWAP1 PUSH1 0x0 MSTORE PUSH1 0x20 PUSH1 0x0 KECCAK256 SWAP1 PUSH1 0x3 ADD PUSH1 0x4 SWAP1 DIV DUP2 ADD SWAP3 DUP3 ISZERO PUSH2 0x2DAD JUMPI SWAP2 PUSH1 0x20 MUL DUP3 ADD PUSH1 0x0 JUMPDEST DUP4 DUP3 GT ISZERO PUSH2 0x2D78 JUMPI DUP4 MLOAD DUP4 DUP3 PUSH2 0x100 EXP DUP2 SLOAD DUP2 PUSH1 0x1 PUSH1 0x1 PUSH1 0x40 SHL SUB MUL NOT AND SWAP1 DUP4 PUSH1 0x1 PUSH1 0x1 PUSH1 0x40 SHL SUB AND MUL OR SWAP1 SSTORE POP SWAP3 PUSH1 0x20 ADD SWAP3 PUSH1 0x8 ADD PUSH1 0x20 DUP2 PUSH1 0x7 ADD DIV SWAP3 DUP4 ADD SWAP3 PUSH1 0x1 SUB MUL PUSH2 0x2D2E JUMP JUMPDEST DUP1 ISZERO PUSH2 0x2DAB JUMPI DUP3 DUP2 PUSH2 0x100 EXP DUP2 SLOAD SWAP1 PUSH1 0x1 PUSH1 0x1 PUSH1 0x40 SHL SUB MUL NOT AND SWAP1 SSTORE PUSH1 0x8 ADD PUSH1 0x20 DUP2 PUSH1 0x7 ADD DIV SWAP3 DUP4 ADD SWAP3 PUSH1 0x1 SUB MUL PUSH2 0x2D78 JUMP JUMPDEST POP JUMPDEST POP PUSH2 0x2DB9 SWAP3 SWAP2 POP PUSH2 0x2EBD JUMP JUMPDEST POP SWAP1 JUMP JUMPDEST DUP3 DUP1 SLOAD DUP3 DUP3 SSTORE SWAP1 PUSH1 0x0 MSTORE PUSH1 0x20 PUSH1 0x0 KECCAK256 SWAP1 PUSH1 0x3 ADD PUSH1 0x4 SWAP1 DIV DUP2 ADD SWAP3 DUP3 ISZERO PUSH2 0x2DAD JUMPI SWAP2 PUSH1 0x20 MUL DUP3 ADD PUSH1 0x0 JUMPDEST DUP4 DUP3 GT ISZERO PUSH2 0x2D78 JUMPI DUP4 MLOAD DUP4 DUP3 PUSH2 0x100 EXP DUP2 SLOAD DUP2 PUSH1 0x1 PUSH1 0x1 PUSH1 0x40 SHL SUB MUL NOT AND SWAP1 DUP4 PUSH1 0xC0 SHR MUL OR SWAP1 SSTORE POP SWAP3 PUSH1 0x20 ADD SWAP3 PUSH1 0x8 ADD PUSH1 0x20 DUP2 PUSH1 0x7 ADD DIV SWAP3 DUP4 ADD SWAP3 PUSH1 0x1 SUB MUL PUSH2 0x2DE6 JUMP JUMPDEST DUP3 DUP1 SLOAD DUP3 DUP3 SSTORE SWAP1 PUSH1 0x0 MSTORE PUSH1 0x20 PUSH1 0x0 KECCAK256 SWAP1 PUSH1 0x1F ADD PUSH1 0x20 SWAP1 DIV DUP2 ADD SWAP3 DUP3 ISZERO PUSH2 0x2DAD JUMPI SWAP2 PUSH1 0x20 MUL DUP3 ADD PUSH1 0x0 JUMPDEST DUP4 DUP3 GT ISZERO PUSH2 0x2E90 JUMPI DUP4 MLOAD DUP4 DUP3 PUSH2 0x100 EXP DUP2 SLOAD DUP2 PUSH1 0xFF MUL NOT AND SWAP1 DUP4 ISZERO ISZERO MUL OR SWAP1 SSTORE POP SWAP3 PUSH1 0x20 ADD SWAP3 PUSH1 0x1 ADD PUSH1 0x20 DUP2 PUSH1 0x0 ADD DIV SWAP3 DUP4 ADD SWAP3 PUSH1 0x1 SUB MUL PUSH2 0x2E53 JUMP JUMPDEST DUP1 ISZERO PUSH2 0x2DAB JUMPI DUP3 DUP2 PUSH2 0x100 EXP DUP2 SLOAD SWAP1 PUSH1 0xFF MUL NOT AND SWAP1 SSTORE PUSH1 0x1 ADD PUSH1 0x20 DUP2 PUSH1 0x0 ADD DIV SWAP3 DUP4 ADD SWAP3 PUSH1 0x1 SUB MUL PUSH2 0x2E90 JUMP JUMPDEST JUMPDEST DUP1 DUP3 GT ISZERO PUSH2 0x2DB9 JUMPI PUSH1 0x0 DUP2 SSTORE PUSH1 0x1 ADD PUSH2 0x2EBE JUMP INVALID POP PUSH16 0x736974696F6E20616E64207265616420 PUSH2 0x6464 PUSH19 0x65737320646F206E6F74206D61746368526561 PUSH5 0x2F77726974 PUSH6 0x206172726179 PUSH20 0x20617265206E6F74207468652073616D65207369 PUSH27 0x65A2646970667358221220D8AD88147F407E1AA5F265625C1C1C58 DUP3 0xC5 0xF9 CALLDATASIZE PUSH25 0x22640B6B9CAE9958DEEDDA64736F6C63430007040033000000 "
    },
    "gasEstimates": {
      "creation": {
        "codeDepositCost": "2423400",
        "executionCost": "2605",
        "totalCost": "2426005"
      },
      "external": {
        "getRWIndex()": "1068",
        "initializeMemory(uint64[],bytes8[],bool[])": "infinite",
        "memoryRead(uint64)": "infinite",
        "memoryWrite(uint64,uint64)": "infinite",
        "readClintMtimecmp()": "infinite",
        "readHtifFromhost()": "infinite",
        "readHtifIYield()": "infinite",
        "readHtifTohost()": "infinite",
        "readIflags()": "infinite",
        "readIflagsH()": "infinite",
        "readIflagsPrv()": "infinite",
        "readIflagsX()": "infinite",
        "readIflagsY()": "infinite",
        "readIlrsc()": "infinite",
        "readMarchid()": "infinite",
        "readMcause()": "infinite",
        "readMcounteren()": "infinite",
        "readMcycle()": "infinite",
        "readMedeleg()": "infinite",
        "readMemory(uint64,uint64)": "infinite",
        "readMepc()": "infinite",
        "readMideleg()": "infinite",
        "readMie()": "infinite",
        "readMimpid()": "infinite",
        "readMinstret()": "infinite",
        "readMip()": "infinite",
        "readMisa()": "infinite",
        "readMscratch()": "infinite",
        "readMstatus()": "infinite",
        "readMtval()": "infinite",
        "readMtvec()": "infinite",
        "readMvendorid()": "infinite",
        "readPc()": "infinite",
        "readSatp()": "infinite",
        "readScause()": "infinite",
        "readScounteren()": "infinite",
        "readSepc()": "infinite",
        "readSscratch()": "infinite",
        "readStval()": "infinite",
        "readStvec()": "infinite",
        "readX(uint64)": "infinite",
        "resetMip(uint64)": "infinite",
        "setIflagsH(bool)": "infinite",
        "setIflagsX(bool)": "infinite",
        "setIflagsY(bool)": "infinite",
        "setMip(uint64)": "infinite",
        "setPriv(uint64)": "infinite",
        "writeClintMtimecmp(uint64)": "infinite",
        "writeHtifFromhost(uint64)": "infinite",
        "writeHtifTohost(uint64)": "infinite",
        "writeIflagsPrv(uint64)": "infinite",
        "writeIlrsc(uint64)": "infinite",
        "writeMcause(uint64)": "infinite",
        "writeMcounteren(uint64)": "infinite",
        "writeMcycle(uint64)": "infinite",
        "writeMedeleg(uint64)": "infinite",
        "writeMemory(uint64,uint64,uint64)": "infinite",
        "writeMepc(uint64)": "infinite",
        "writeMideleg(uint64)": "infinite",
        "writeMie(uint64)": "infinite",
        "writeMinstret(uint64)": "infinite",
        "writeMip(uint64)": "infinite",
        "writeMscratch(uint64)": "infinite",
        "writeMstatus(uint64)": "infinite",
        "writeMtval(uint64)": "infinite",
        "writeMtvec(uint64)": "infinite",
        "writePc(uint64)": "infinite",
        "writeSatp(uint64)": "infinite",
        "writeScause(uint64)": "infinite",
        "writeScounteren(uint64)": "infinite",
        "writeSepc(uint64)": "infinite",
        "writeSscratch(uint64)": "infinite",
        "writeStval(uint64)": "infinite",
        "writeStvec(uint64)": "infinite",
        "writeX(uint64,uint64)": "infinite"
      },
      "internal": {
        "memoryAccessManager(uint64,bool)": "infinite",
        "pureMemoryRead(uint64)": "infinite",
        "pureMemoryWrite(uint64,uint64)": "infinite"
      }
    },
    "methodIdentifiers": {
      "getRWIndex()": "080aa5d1",
      "initializeMemory(uint64[],bytes8[],bool[])": "a47594df",
      "memoryRead(uint64)": "fa644af5",
      "memoryWrite(uint64,uint64)": "8e32f35e",
      "readClintMtimecmp()": "6475e342",
      "readHtifFromhost()": "f2cf6ceb",
      "readHtifIYield()": "6f6c0e7d",
      "readHtifTohost()": "34970f18",
      "readIflags()": "c133b7ff",
      "readIflagsH()": "968644f0",
      "readIflagsPrv()": "f7ac913d",
      "readIflagsX()": "86099c54",
      "readIflagsY()": "d40d17c5",
      "readIlrsc()": "5dadd78a",
      "readMarchid()": "854dba40",
      "readMcause()": "51bb3615",
      "readMcounteren()": "9485871b",
      "readMcycle()": "daded5c2",
      "readMedeleg()": "6a72b27d",
      "readMemory(uint64,uint64)": "50cec2d5",
      "readMepc()": "1e5e6190",
      "readMideleg()": "a740dbc1",
      "readMie()": "cc92cbf7",
      "readMimpid()": "becdc10d",
      "readMinstret()": "28520b30",
      "readMip()": "a317ce9d",
      "readMisa()": "834aa4f6",
      "readMscratch()": "af63b2a8",
      "readMstatus()": "b5b98ed4",
      "readMtval()": "6cd24daf",
      "readMtvec()": "11cf3a22",
      "readMvendorid()": "5f824bf9",
      "readPc()": "650ca32b",
      "readSatp()": "1bf2f73d",
      "readScause()": "568b2702",
      "readScounteren()": "4ae9388b",
      "readSepc()": "18e504db",
      "readSscratch()": "9b7021ce",
      "readStval()": "2e963a80",
      "readStvec()": "0f84c046",
      "readX(uint64)": "6232e59c",
      "resetMip(uint64)": "15dd9c06",
      "setIflagsH(bool)": "a7458b95",
      "setIflagsX(bool)": "b27ec920",
      "setIflagsY(bool)": "3a48bb56",
      "setMip(uint64)": "45057ed7",
      "setPriv(uint64)": "54749af3",
      "writeClintMtimecmp(uint64)": "fbdb975d",
      "writeHtifFromhost(uint64)": "b2325aef",
      "writeHtifTohost(uint64)": "dd5c4a14",
      "writeIflagsPrv(uint64)": "cecdae53",
      "writeIlrsc(uint64)": "f21d94f8",
      "writeMcause(uint64)": "89365909",
      "writeMcounteren(uint64)": "2ca2bd16",
      "writeMcycle(uint64)": "5e5ca652",
      "writeMedeleg(uint64)": "575832df",
      "writeMemory(uint64,uint64,uint64)": "fd295abe",
      "writeMepc(uint64)": "28751b36",
      "writeMideleg(uint64)": "d2be7b6d",
      "writeMie(uint64)": "86676d43",
      "writeMinstret(uint64)": "10d74c7d",
      "writeMip(uint64)": "aaed4f07",
      "writeMscratch(uint64)": "0df3e295",
      "writeMstatus(uint64)": "f55c4d38",
      "writeMtval(uint64)": "f604edb8",
      "writeMtvec(uint64)": "9c872d02",
      "writePc(uint64)": "f9911587",
      "writeSatp(uint64)": "ab9779b7",
      "writeScause(uint64)": "78c49574",
      "writeScounteren(uint64)": "78ddee75",
      "writeSepc(uint64)": "57907837",
      "writeSscratch(uint64)": "5af47ca7",
      "writeStval(uint64)": "9c7b005d",
      "writeStvec(uint64)": "cbc446b1",
      "writeX(uint64,uint64)": "6dc95c2e"
    }
  },
  "storageLayout": {
    "storage": [
      {
        "astId": 5851,
        "contract": "contracts/MemoryInteractor.sol:MemoryInteractor",
        "label": "rwIndex",
        "offset": 0,
        "slot": "0",
        "type": "t_uint256"
      },
      {
        "astId": 5854,
        "contract": "contracts/MemoryInteractor.sol:MemoryInteractor",
        "label": "rwPositions",
        "offset": 0,
        "slot": "1",
        "type": "t_array(t_uint64)dyn_storage"
      },
      {
        "astId": 5857,
        "contract": "contracts/MemoryInteractor.sol:MemoryInteractor",
        "label": "rwValues",
        "offset": 0,
        "slot": "2",
        "type": "t_array(t_bytes8)dyn_storage"
      },
      {
        "astId": 5860,
        "contract": "contracts/MemoryInteractor.sol:MemoryInteractor",
        "label": "isRead",
        "offset": 0,
        "slot": "3",
        "type": "t_array(t_bool)dyn_storage"
      }
    ],
    "types": {
      "t_array(t_bool)dyn_storage": {
        "base": "t_bool",
        "encoding": "dynamic_array",
        "label": "bool[]",
        "numberOfBytes": "32"
      },
      "t_array(t_bytes8)dyn_storage": {
        "base": "t_bytes8",
        "encoding": "dynamic_array",
        "label": "bytes8[]",
        "numberOfBytes": "32"
      },
      "t_array(t_uint64)dyn_storage": {
        "base": "t_uint64",
        "encoding": "dynamic_array",
        "label": "uint64[]",
        "numberOfBytes": "32"
      },
      "t_bool": {
        "encoding": "inplace",
        "label": "bool",
        "numberOfBytes": "1"
      },
      "t_bytes8": {
        "encoding": "inplace",
        "label": "bytes8",
        "numberOfBytes": "8"
      },
      "t_uint256": {
        "encoding": "inplace",
        "label": "uint256",
        "numberOfBytes": "32"
      },
      "t_uint64": {
        "encoding": "inplace",
        "label": "uint64",
        "numberOfBytes": "8"
      }
    }
  },
  "userdoc": {
    "kind": "user",
    "methods": {},
    "notice": "Bridge between Memory Manager and Step",
    "version": 1
  }
}