{
  "contractName": "RealTimeClock",
  "sourceName": "contracts/RealTimeClock.sol",
  "abi": [
    {
      "inputs": [
        {
          "internalType": "uint64",
          "name": "cycle",
          "type": "uint64"
        }
      ],
      "name": "rtcCycleToTime",
      "outputs": [
        {
          "internalType": "uint64",
          "name": "",
          "type": "uint64"
        }
      ],
      "stateMutability": "pure",
      "type": "function"
    },
    {
      "inputs": [
        {
          "internalType": "uint64",
          "name": "time",
          "type": "uint64"
        }
      ],
      "name": "rtcTimeToCycle",
      "outputs": [
        {
          "internalType": "uint64",
          "name": "",
          "type": "uint64"
        }
      ],
      "stateMutability": "pure",
      "type": "function"
    }
  ],
  "bytecode": "0x60f6610025600b82828239805160001a60731461001857fe5b30600052607381538281f3fe7300000000000000000000000000000000000000003014608060405260043610603d5760003560e01c8063453f06be14604257806368bd2a56146083575b600080fd5b606660048036036020811015605657600080fd5b503567ffffffffffffffff1660a7565b6040805167ffffffffffffffff9092168252519081900360200190f35b606660048036036020811015609757600080fd5b503567ffffffffffffffff1660ba565b606467ffffffffffffffff919091160490565b6064029056fea26469706673582212205432e00f1fccffb20a220f9c2171e7371da6ed33f0698bb3d69843a5c780cff364736f6c63430007040033",
  "linkReferences": {},
  "deployedLinkReferences": {},
  "devdoc": {
    "author": "Felipe Argento",
    "kind": "dev",
    "methods": {
      "rtcCycleToTime(uint64)": {
        "params": {
          "cycle": "Cycle count"
        },
        "returns": {
          "_0": "Time count"
        }
      },
      "rtcTimeToCycle(uint64)": {
        "params": {
          "time": "Time count"
        },
        "returns": {
          "_0": "Cycle count"
        }
      }
    },
    "title": "RealTimeClock",
    "version": 1
  },
  "evm": {
    "bytecode": {
      "linkReferences": {},
      "opcodes": "PUSH1 0xF6 PUSH2 0x25 PUSH1 0xB DUP3 DUP3 DUP3 CODECOPY DUP1 MLOAD PUSH1 0x0 BYTE PUSH1 0x73 EQ PUSH2 0x18 JUMPI INVALID JUMPDEST ADDRESS PUSH1 0x0 MSTORE PUSH1 0x73 DUP2 MSTORE8 DUP3 DUP2 RETURN INVALID PUSH20 0x0 ADDRESS EQ PUSH1 0x80 PUSH1 0x40 MSTORE PUSH1 0x4 CALLDATASIZE LT PUSH1 0x3D JUMPI PUSH1 0x0 CALLDATALOAD PUSH1 0xE0 SHR DUP1 PUSH4 0x453F06BE EQ PUSH1 0x42 JUMPI DUP1 PUSH4 0x68BD2A56 EQ PUSH1 0x83 JUMPI JUMPDEST PUSH1 0x0 DUP1 REVERT JUMPDEST PUSH1 0x66 PUSH1 0x4 DUP1 CALLDATASIZE SUB PUSH1 0x20 DUP2 LT ISZERO PUSH1 0x56 JUMPI PUSH1 0x0 DUP1 REVERT JUMPDEST POP CALLDATALOAD PUSH8 0xFFFFFFFFFFFFFFFF AND PUSH1 0xA7 JUMP JUMPDEST PUSH1 0x40 DUP1 MLOAD PUSH8 0xFFFFFFFFFFFFFFFF SWAP1 SWAP3 AND DUP3 MSTORE MLOAD SWAP1 DUP2 SWAP1 SUB PUSH1 0x20 ADD SWAP1 RETURN JUMPDEST PUSH1 0x66 PUSH1 0x4 DUP1 CALLDATASIZE SUB PUSH1 0x20 DUP2 LT ISZERO PUSH1 0x97 JUMPI PUSH1 0x0 DUP1 REVERT JUMPDEST POP CALLDATALOAD PUSH8 0xFFFFFFFFFFFFFFFF AND PUSH1 0xBA JUMP JUMPDEST PUSH1 0x64 PUSH8 0xFFFFFFFFFFFFFFFF SWAP2 SWAP1 SWAP2 AND DIV SWAP1 JUMP JUMPDEST PUSH1 0x64 MUL SWAP1 JUMP INVALID LOG2 PUSH5 0x6970667358 0x22 SLT KECCAK256 SLOAD ORIGIN 0xE0 0xF 0x1F 0xCC SELFDESTRUCT 0xB2 EXP 0x22 0xF SWAP13 0x21 PUSH18 0xE7371DA6ED33F0698BB3D69843A5C780CFF3 PUSH5 0x736F6C6343 STOP SMOD DIV STOP CALLER "
    },
    "gasEstimates": {
      "creation": {
        "codeDepositCost": "49200",
        "executionCost": "127",
        "totalCost": "49327"
      },
      "external": {
        "rtcCycleToTime(uint64)": "237",
        "rtcTimeToCycle(uint64)": "244"
      }
    },
    "methodIdentifiers": {
      "rtcCycleToTime(uint64)": "453f06be",
      "rtcTimeToCycle(uint64)": "68bd2a56"
    }
  },
  "storageLayout": {
    "storage": [],
    "types": null
  },
  "userdoc": {
    "kind": "user",
    "methods": {
      "rtcCycleToTime(uint64)": {
        "notice": "Converts from cycle count to time count"
      },
      "rtcTimeToCycle(uint64)": {
        "notice": "Converts from time count to cycle count"
      }
    },
    "notice": "Real Time clock simulator",
    "version": 1
  }
}