{
  "contractName": "RealTimeClock",
  "sourceName": "contracts/RealTimeClock.sol",
  "abi": [
    {
      "inputs": [
        {
          "internalType": "uint64",
          "name": "cycle",
          "type": "uint64"
        }
      ],
      "name": "rtcCycleToTime",
      "outputs": [
        {
          "internalType": "uint64",
          "name": "",
          "type": "uint64"
        }
      ],
      "stateMutability": "pure",
      "type": "function"
    },
    {
      "inputs": [
        {
          "internalType": "uint64",
          "name": "cycle",
          "type": "uint64"
        }
      ],
      "name": "rtcIsTick",
      "outputs": [
        {
          "internalType": "bool",
          "name": "",
          "type": "bool"
        }
      ],
      "stateMutability": "pure",
      "type": "function"
    },
    {
      "inputs": [
        {
          "internalType": "uint64",
          "name": "time",
          "type": "uint64"
        }
      ],
      "name": "rtcTimeToCycle",
      "outputs": [
        {
          "internalType": "uint64",
          "name": "",
          "type": "uint64"
        }
      ],
      "stateMutability": "pure",
      "type": "function"
    }
  ],
  "bytecode": "0x610159610026600b82828239805160001a60731461001957fe5b30600052607381538281f3fe730000000000000000000000000000000000000000301460806040526004361061004b5760003560e01c8063453f06be1461005057806368bd2a5614610094578063c3965d97146100bb575b600080fd5b6100776004803603602081101561006657600080fd5b503567ffffffffffffffff166100f6565b6040805167ffffffffffffffff9092168252519081900360200190f35b610077600480360360208110156100aa57600080fd5b503567ffffffffffffffff16610109565b6100e2600480360360208110156100d157600080fd5b503567ffffffffffffffff1661010f565b604080519115158252519081900360200190f35b606467ffffffffffffffff919091160490565b60640290565b606467ffffffffffffffff9182160616159056fea2646970667358221220a30f37b2f35994b571c9928ccd878238e92ee34ed0c802f57b67766d6979e69064736f6c63430007040033",
  "linkReferences": {},
  "deployedLinkReferences": {},
  "devdoc": {
    "author": "Felipe Argento",
    "kind": "dev",
    "methods": {
      "rtcCycleToTime(uint64)": {
        "params": {
          "cycle": "Cycle count"
        },
        "returns": {
          "_0": "Time count"
        }
      },
      "rtcIsTick(uint64)": {
        "params": {
          "cycle": "Cycle count"
        }
      },
      "rtcTimeToCycle(uint64)": {
        "params": {
          "time": "Time count"
        },
        "returns": {
          "_0": "Cycle count"
        }
      }
    },
    "title": "RealTimeClock",
    "version": 1
  },
  "evm": {
    "bytecode": {
      "linkReferences": {},
      "opcodes": "PUSH2 0x159 PUSH2 0x26 PUSH1 0xB DUP3 DUP3 DUP3 CODECOPY DUP1 MLOAD PUSH1 0x0 BYTE PUSH1 0x73 EQ PUSH2 0x19 JUMPI INVALID JUMPDEST ADDRESS PUSH1 0x0 MSTORE PUSH1 0x73 DUP2 MSTORE8 DUP3 DUP2 RETURN INVALID PUSH20 0x0 ADDRESS EQ PUSH1 0x80 PUSH1 0x40 MSTORE PUSH1 0x4 CALLDATASIZE LT PUSH2 0x4B JUMPI PUSH1 0x0 CALLDATALOAD PUSH1 0xE0 SHR DUP1 PUSH4 0x453F06BE EQ PUSH2 0x50 JUMPI DUP1 PUSH4 0x68BD2A56 EQ PUSH2 0x94 JUMPI DUP1 PUSH4 0xC3965D97 EQ PUSH2 0xBB JUMPI JUMPDEST PUSH1 0x0 DUP1 REVERT JUMPDEST PUSH2 0x77 PUSH1 0x4 DUP1 CALLDATASIZE SUB PUSH1 0x20 DUP2 LT ISZERO PUSH2 0x66 JUMPI PUSH1 0x0 DUP1 REVERT JUMPDEST POP CALLDATALOAD PUSH8 0xFFFFFFFFFFFFFFFF AND PUSH2 0xF6 JUMP JUMPDEST PUSH1 0x40 DUP1 MLOAD PUSH8 0xFFFFFFFFFFFFFFFF SWAP1 SWAP3 AND DUP3 MSTORE MLOAD SWAP1 DUP2 SWAP1 SUB PUSH1 0x20 ADD SWAP1 RETURN JUMPDEST PUSH2 0x77 PUSH1 0x4 DUP1 CALLDATASIZE SUB PUSH1 0x20 DUP2 LT ISZERO PUSH2 0xAA JUMPI PUSH1 0x0 DUP1 REVERT JUMPDEST POP CALLDATALOAD PUSH8 0xFFFFFFFFFFFFFFFF AND PUSH2 0x109 JUMP JUMPDEST PUSH2 0xE2 PUSH1 0x4 DUP1 CALLDATASIZE SUB PUSH1 0x20 DUP2 LT ISZERO PUSH2 0xD1 JUMPI PUSH1 0x0 DUP1 REVERT JUMPDEST POP CALLDATALOAD PUSH8 0xFFFFFFFFFFFFFFFF AND PUSH2 0x10F JUMP JUMPDEST PUSH1 0x40 DUP1 MLOAD SWAP2 ISZERO ISZERO DUP3 MSTORE MLOAD SWAP1 DUP2 SWAP1 SUB PUSH1 0x20 ADD SWAP1 RETURN JUMPDEST PUSH1 0x64 PUSH8 0xFFFFFFFFFFFFFFFF SWAP2 SWAP1 SWAP2 AND DIV SWAP1 JUMP JUMPDEST PUSH1 0x64 MUL SWAP1 JUMP JUMPDEST PUSH1 0x64 PUSH8 0xFFFFFFFFFFFFFFFF SWAP2 DUP3 AND MOD AND ISZERO SWAP1 JUMP INVALID LOG2 PUSH5 0x6970667358 0x22 SLT KECCAK256 LOG3 0xF CALLDATACOPY 0xB2 RETURN MSIZE SWAP5 0xB5 PUSH18 0xC9928CCD878238E92EE34ED0C802F57B6776 PUSH14 0x6979E69064736F6C634300070400 CALLER "
    },
    "gasEstimates": {
      "creation": {
        "codeDepositCost": "69000",
        "executionCost": "145",
        "totalCost": "69145"
      },
      "external": {
        "rtcCycleToTime(uint64)": "237",
        "rtcIsTick(uint64)": "281",
        "rtcTimeToCycle(uint64)": "244"
      }
    },
    "methodIdentifiers": {
      "rtcCycleToTime(uint64)": "453f06be",
      "rtcIsTick(uint64)": "c3965d97",
      "rtcTimeToCycle(uint64)": "68bd2a56"
    }
  },
  "storageLayout": {
    "storage": [],
    "types": null
  },
  "userdoc": {
    "kind": "user",
    "methods": {
      "rtcCycleToTime(uint64)": {
        "notice": "Converts from cycle count to time count"
      },
      "rtcIsTick(uint64)": {
        "notice": "Returns whether the cycle is a RTC tick"
      },
      "rtcTimeToCycle(uint64)": {
        "notice": "Converts from time count to cycle count"
      }
    },
    "notice": "Real Time clock simulator",
    "version": 1
  }
}