{
  "contractName": "RiscVConstants",
  "sourceName": "contracts/RiscVConstants.sol",
  "abi": [
    {
      "inputs": [],
      "name": "getIflagsHMask",
      "outputs": [
        {
          "internalType": "uint64",
          "name": "",
          "type": "uint64"
        }
      ],
      "stateMutability": "pure",
      "type": "function"
    },
    {
      "inputs": [],
      "name": "getIflagsHShift",
      "outputs": [
        {
          "internalType": "uint64",
          "name": "",
          "type": "uint64"
        }
      ],
      "stateMutability": "pure",
      "type": "function"
    },
    {
      "inputs": [],
      "name": "getIflagsPrvMask",
      "outputs": [
        {
          "internalType": "uint64",
          "name": "",
          "type": "uint64"
        }
      ],
      "stateMutability": "pure",
      "type": "function"
    },
    {
      "inputs": [],
      "name": "getIflagsPrvShift",
      "outputs": [
        {
          "internalType": "uint64",
          "name": "",
          "type": "uint64"
        }
      ],
      "stateMutability": "pure",
      "type": "function"
    },
    {
      "inputs": [],
      "name": "getIflagsXMask",
      "outputs": [
        {
          "internalType": "uint64",
          "name": "",
          "type": "uint64"
        }
      ],
      "stateMutability": "pure",
      "type": "function"
    },
    {
      "inputs": [],
      "name": "getIflagsXShift",
      "outputs": [
        {
          "internalType": "uint64",
          "name": "",
          "type": "uint64"
        }
      ],
      "stateMutability": "pure",
      "type": "function"
    },
    {
      "inputs": [],
      "name": "getIflagsYMask",
      "outputs": [
        {
          "internalType": "uint64",
          "name": "",
          "type": "uint64"
        }
      ],
      "stateMutability": "pure",
      "type": "function"
    },
    {
      "inputs": [],
      "name": "getIflagsYShift",
      "outputs": [
        {
          "internalType": "uint64",
          "name": "",
          "type": "uint64"
        }
      ],
      "stateMutability": "pure",
      "type": "function"
    },
    {
      "inputs": [],
      "name": "getMcauseBreakpoint",
      "outputs": [
        {
          "internalType": "uint64",
          "name": "",
          "type": "uint64"
        }
      ],
      "stateMutability": "pure",
      "type": "function"
    },
    {
      "inputs": [],
      "name": "getMcauseEcallBase",
      "outputs": [
        {
          "internalType": "uint64",
          "name": "",
          "type": "uint64"
        }
      ],
      "stateMutability": "pure",
      "type": "function"
    },
    {
      "inputs": [],
      "name": "getMcauseFetchPageFault",
      "outputs": [
        {
          "internalType": "uint64",
          "name": "",
          "type": "uint64"
        }
      ],
      "stateMutability": "pure",
      "type": "function"
    },
    {
      "inputs": [],
      "name": "getMcauseIllegalInsn",
      "outputs": [
        {
          "internalType": "uint64",
          "name": "",
          "type": "uint64"
        }
      ],
      "stateMutability": "pure",
      "type": "function"
    },
    {
      "inputs": [],
      "name": "getMcauseInsnAccessFault",
      "outputs": [
        {
          "internalType": "uint64",
          "name": "",
          "type": "uint64"
        }
      ],
      "stateMutability": "pure",
      "type": "function"
    },
    {
      "inputs": [],
      "name": "getMcauseInsnAddressMisaligned",
      "outputs": [
        {
          "internalType": "uint64",
          "name": "",
          "type": "uint64"
        }
      ],
      "stateMutability": "pure",
      "type": "function"
    },
    {
      "inputs": [],
      "name": "getMcauseInterruptFlag",
      "outputs": [
        {
          "internalType": "uint64",
          "name": "",
          "type": "uint64"
        }
      ],
      "stateMutability": "pure",
      "type": "function"
    },
    {
      "inputs": [],
      "name": "getMcauseLoadAccessFault",
      "outputs": [
        {
          "internalType": "uint64",
          "name": "",
          "type": "uint64"
        }
      ],
      "stateMutability": "pure",
      "type": "function"
    },
    {
      "inputs": [],
      "name": "getMcauseLoadAddressMisaligned",
      "outputs": [
        {
          "internalType": "uint64",
          "name": "",
          "type": "uint64"
        }
      ],
      "stateMutability": "pure",
      "type": "function"
    },
    {
      "inputs": [],
      "name": "getMcauseLoadPageFault",
      "outputs": [
        {
          "internalType": "uint64",
          "name": "",
          "type": "uint64"
        }
      ],
      "stateMutability": "pure",
      "type": "function"
    },
    {
      "inputs": [],
      "name": "getMcauseStoreAmoAccessFault",
      "outputs": [
        {
          "internalType": "uint64",
          "name": "",
          "type": "uint64"
        }
      ],
      "stateMutability": "pure",
      "type": "function"
    },
    {
      "inputs": [],
      "name": "getMcauseStoreAmoAddressMisaligned",
      "outputs": [
        {
          "internalType": "uint64",
          "name": "",
          "type": "uint64"
        }
      ],
      "stateMutability": "pure",
      "type": "function"
    },
    {
      "inputs": [],
      "name": "getMcauseStoreAmoPageFault",
      "outputs": [
        {
          "internalType": "uint64",
          "name": "",
          "type": "uint64"
        }
      ],
      "stateMutability": "pure",
      "type": "function"
    },
    {
      "inputs": [],
      "name": "getMcounterenCyMask",
      "outputs": [
        {
          "internalType": "uint64",
          "name": "",
          "type": "uint64"
        }
      ],
      "stateMutability": "pure",
      "type": "function"
    },
    {
      "inputs": [],
      "name": "getMcounterenCyShift",
      "outputs": [
        {
          "internalType": "uint64",
          "name": "",
          "type": "uint64"
        }
      ],
      "stateMutability": "pure",
      "type": "function"
    },
    {
      "inputs": [],
      "name": "getMcounterenIrMask",
      "outputs": [
        {
          "internalType": "uint64",
          "name": "",
          "type": "uint64"
        }
      ],
      "stateMutability": "pure",
      "type": "function"
    },
    {
      "inputs": [],
      "name": "getMcounterenIrShift",
      "outputs": [
        {
          "internalType": "uint64",
          "name": "",
          "type": "uint64"
        }
      ],
      "stateMutability": "pure",
      "type": "function"
    },
    {
      "inputs": [],
      "name": "getMcounterenRwMask",
      "outputs": [
        {
          "internalType": "uint64",
          "name": "",
          "type": "uint64"
        }
      ],
      "stateMutability": "pure",
      "type": "function"
    },
    {
      "inputs": [],
      "name": "getMcounterenTmMask",
      "outputs": [
        {
          "internalType": "uint64",
          "name": "",
          "type": "uint64"
        }
      ],
      "stateMutability": "pure",
      "type": "function"
    },
    {
      "inputs": [],
      "name": "getMcounterenTmShift",
      "outputs": [
        {
          "internalType": "uint64",
          "name": "",
          "type": "uint64"
        }
      ],
      "stateMutability": "pure",
      "type": "function"
    },
    {
      "inputs": [],
      "name": "getMipMeipMask",
      "outputs": [
        {
          "internalType": "uint64",
          "name": "",
          "type": "uint64"
        }
      ],
      "stateMutability": "pure",
      "type": "function"
    },
    {
      "inputs": [],
      "name": "getMipMeipShift",
      "outputs": [
        {
          "internalType": "uint64",
          "name": "",
          "type": "uint64"
        }
      ],
      "stateMutability": "pure",
      "type": "function"
    },
    {
      "inputs": [],
      "name": "getMipMsipMask",
      "outputs": [
        {
          "internalType": "uint64",
          "name": "",
          "type": "uint64"
        }
      ],
      "stateMutability": "pure",
      "type": "function"
    },
    {
      "inputs": [],
      "name": "getMipMsipShift",
      "outputs": [
        {
          "internalType": "uint64",
          "name": "",
          "type": "uint64"
        }
      ],
      "stateMutability": "pure",
      "type": "function"
    },
    {
      "inputs": [],
      "name": "getMipMtipMask",
      "outputs": [
        {
          "internalType": "uint64",
          "name": "",
          "type": "uint64"
        }
      ],
      "stateMutability": "pure",
      "type": "function"
    },
    {
      "inputs": [],
      "name": "getMipMtipShift",
      "outputs": [
        {
          "internalType": "uint64",
          "name": "",
          "type": "uint64"
        }
      ],
      "stateMutability": "pure",
      "type": "function"
    },
    {
      "inputs": [],
      "name": "getMipSeipMask",
      "outputs": [
        {
          "internalType": "uint64",
          "name": "",
          "type": "uint64"
        }
      ],
      "stateMutability": "pure",
      "type": "function"
    },
    {
      "inputs": [],
      "name": "getMipSeipShift",
      "outputs": [
        {
          "internalType": "uint64",
          "name": "",
          "type": "uint64"
        }
      ],
      "stateMutability": "pure",
      "type": "function"
    },
    {
      "inputs": [],
      "name": "getMipSsipMask",
      "outputs": [
        {
          "internalType": "uint64",
          "name": "",
          "type": "uint64"
        }
      ],
      "stateMutability": "pure",
      "type": "function"
    },
    {
      "inputs": [],
      "name": "getMipSsipShift",
      "outputs": [
        {
          "internalType": "uint64",
          "name": "",
          "type": "uint64"
        }
      ],
      "stateMutability": "pure",
      "type": "function"
    },
    {
      "inputs": [],
      "name": "getMipStipMask",
      "outputs": [
        {
          "internalType": "uint64",
          "name": "",
          "type": "uint64"
        }
      ],
      "stateMutability": "pure",
      "type": "function"
    },
    {
      "inputs": [],
      "name": "getMipStipShift",
      "outputs": [
        {
          "internalType": "uint64",
          "name": "",
          "type": "uint64"
        }
      ],
      "stateMutability": "pure",
      "type": "function"
    },
    {
      "inputs": [],
      "name": "getMipUeipMask",
      "outputs": [
        {
          "internalType": "uint64",
          "name": "",
          "type": "uint64"
        }
      ],
      "stateMutability": "pure",
      "type": "function"
    },
    {
      "inputs": [],
      "name": "getMipUeipShift",
      "outputs": [
        {
          "internalType": "uint64",
          "name": "",
          "type": "uint64"
        }
      ],
      "stateMutability": "pure",
      "type": "function"
    },
    {
      "inputs": [],
      "name": "getMipUsipMask",
      "outputs": [
        {
          "internalType": "uint64",
          "name": "",
          "type": "uint64"
        }
      ],
      "stateMutability": "pure",
      "type": "function"
    },
    {
      "inputs": [],
      "name": "getMipUsipShift",
      "outputs": [
        {
          "internalType": "uint64",
          "name": "",
          "type": "uint64"
        }
      ],
      "stateMutability": "pure",
      "type": "function"
    },
    {
      "inputs": [],
      "name": "getMipUtipMask",
      "outputs": [
        {
          "internalType": "uint64",
          "name": "",
          "type": "uint64"
        }
      ],
      "stateMutability": "pure",
      "type": "function"
    },
    {
      "inputs": [],
      "name": "getMipUtipShift",
      "outputs": [
        {
          "internalType": "uint64",
          "name": "",
          "type": "uint64"
        }
      ],
      "stateMutability": "pure",
      "type": "function"
    },
    {
      "inputs": [],
      "name": "getMstatusFsMask",
      "outputs": [
        {
          "internalType": "uint64",
          "name": "",
          "type": "uint64"
        }
      ],
      "stateMutability": "pure",
      "type": "function"
    },
    {
      "inputs": [],
      "name": "getMstatusFsShift",
      "outputs": [
        {
          "internalType": "uint64",
          "name": "",
          "type": "uint64"
        }
      ],
      "stateMutability": "pure",
      "type": "function"
    },
    {
      "inputs": [],
      "name": "getMstatusHieShift",
      "outputs": [
        {
          "internalType": "uint64",
          "name": "",
          "type": "uint64"
        }
      ],
      "stateMutability": "pure",
      "type": "function"
    },
    {
      "inputs": [],
      "name": "getMstatusMieMask",
      "outputs": [
        {
          "internalType": "uint64",
          "name": "",
          "type": "uint64"
        }
      ],
      "stateMutability": "pure",
      "type": "function"
    },
    {
      "inputs": [],
      "name": "getMstatusMieShift",
      "outputs": [
        {
          "internalType": "uint64",
          "name": "",
          "type": "uint64"
        }
      ],
      "stateMutability": "pure",
      "type": "function"
    },
    {
      "inputs": [],
      "name": "getMstatusMpieMask",
      "outputs": [
        {
          "internalType": "uint64",
          "name": "",
          "type": "uint64"
        }
      ],
      "stateMutability": "pure",
      "type": "function"
    },
    {
      "inputs": [],
      "name": "getMstatusMpieShift",
      "outputs": [
        {
          "internalType": "uint64",
          "name": "",
          "type": "uint64"
        }
      ],
      "stateMutability": "pure",
      "type": "function"
    },
    {
      "inputs": [],
      "name": "getMstatusMppMask",
      "outputs": [
        {
          "internalType": "uint64",
          "name": "",
          "type": "uint64"
        }
      ],
      "stateMutability": "pure",
      "type": "function"
    },
    {
      "inputs": [],
      "name": "getMstatusMppShift",
      "outputs": [
        {
          "internalType": "uint64",
          "name": "",
          "type": "uint64"
        }
      ],
      "stateMutability": "pure",
      "type": "function"
    },
    {
      "inputs": [],
      "name": "getMstatusMprvMask",
      "outputs": [
        {
          "internalType": "uint64",
          "name": "",
          "type": "uint64"
        }
      ],
      "stateMutability": "pure",
      "type": "function"
    },
    {
      "inputs": [],
      "name": "getMstatusMprvShift",
      "outputs": [
        {
          "internalType": "uint64",
          "name": "",
          "type": "uint64"
        }
      ],
      "stateMutability": "pure",
      "type": "function"
    },
    {
      "inputs": [],
      "name": "getMstatusMxrMask",
      "outputs": [
        {
          "internalType": "uint64",
          "name": "",
          "type": "uint64"
        }
      ],
      "stateMutability": "pure",
      "type": "function"
    },
    {
      "inputs": [],
      "name": "getMstatusMxrShift",
      "outputs": [
        {
          "internalType": "uint64",
          "name": "",
          "type": "uint64"
        }
      ],
      "stateMutability": "pure",
      "type": "function"
    },
    {
      "inputs": [],
      "name": "getMstatusRMask",
      "outputs": [
        {
          "internalType": "uint64",
          "name": "",
          "type": "uint64"
        }
      ],
      "stateMutability": "pure",
      "type": "function"
    },
    {
      "inputs": [],
      "name": "getMstatusSdMask",
      "outputs": [
        {
          "internalType": "uint64",
          "name": "",
          "type": "uint64"
        }
      ],
      "stateMutability": "pure",
      "type": "function"
    },
    {
      "inputs": [],
      "name": "getMstatusSdShift",
      "outputs": [
        {
          "internalType": "uint64",
          "name": "",
          "type": "uint64"
        }
      ],
      "stateMutability": "pure",
      "type": "function"
    },
    {
      "inputs": [],
      "name": "getMstatusSieMask",
      "outputs": [
        {
          "internalType": "uint64",
          "name": "",
          "type": "uint64"
        }
      ],
      "stateMutability": "pure",
      "type": "function"
    },
    {
      "inputs": [],
      "name": "getMstatusSieShift",
      "outputs": [
        {
          "internalType": "uint64",
          "name": "",
          "type": "uint64"
        }
      ],
      "stateMutability": "pure",
      "type": "function"
    },
    {
      "inputs": [],
      "name": "getMstatusSpieMask",
      "outputs": [
        {
          "internalType": "uint64",
          "name": "",
          "type": "uint64"
        }
      ],
      "stateMutability": "pure",
      "type": "function"
    },
    {
      "inputs": [],
      "name": "getMstatusSpieShift",
      "outputs": [
        {
          "internalType": "uint64",
          "name": "",
          "type": "uint64"
        }
      ],
      "stateMutability": "pure",
      "type": "function"
    },
    {
      "inputs": [],
      "name": "getMstatusSppMask",
      "outputs": [
        {
          "internalType": "uint64",
          "name": "",
          "type": "uint64"
        }
      ],
      "stateMutability": "pure",
      "type": "function"
    },
    {
      "inputs": [],
      "name": "getMstatusSppShift",
      "outputs": [
        {
          "internalType": "uint64",
          "name": "",
          "type": "uint64"
        }
      ],
      "stateMutability": "pure",
      "type": "function"
    },
    {
      "inputs": [],
      "name": "getMstatusSumMask",
      "outputs": [
        {
          "internalType": "uint64",
          "name": "",
          "type": "uint64"
        }
      ],
      "stateMutability": "pure",
      "type": "function"
    },
    {
      "inputs": [],
      "name": "getMstatusSumShift",
      "outputs": [
        {
          "internalType": "uint64",
          "name": "",
          "type": "uint64"
        }
      ],
      "stateMutability": "pure",
      "type": "function"
    },
    {
      "inputs": [],
      "name": "getMstatusSxlMask",
      "outputs": [
        {
          "internalType": "uint64",
          "name": "",
          "type": "uint64"
        }
      ],
      "stateMutability": "pure",
      "type": "function"
    },
    {
      "inputs": [],
      "name": "getMstatusSxlShift",
      "outputs": [
        {
          "internalType": "uint64",
          "name": "",
          "type": "uint64"
        }
      ],
      "stateMutability": "pure",
      "type": "function"
    },
    {
      "inputs": [],
      "name": "getMstatusTsrMask",
      "outputs": [
        {
          "internalType": "uint64",
          "name": "",
          "type": "uint64"
        }
      ],
      "stateMutability": "pure",
      "type": "function"
    },
    {
      "inputs": [],
      "name": "getMstatusTsrShift",
      "outputs": [
        {
          "internalType": "uint64",
          "name": "",
          "type": "uint64"
        }
      ],
      "stateMutability": "pure",
      "type": "function"
    },
    {
      "inputs": [],
      "name": "getMstatusTvmMask",
      "outputs": [
        {
          "internalType": "uint64",
          "name": "",
          "type": "uint64"
        }
      ],
      "stateMutability": "pure",
      "type": "function"
    },
    {
      "inputs": [],
      "name": "getMstatusTvmShift",
      "outputs": [
        {
          "internalType": "uint64",
          "name": "",
          "type": "uint64"
        }
      ],
      "stateMutability": "pure",
      "type": "function"
    },
    {
      "inputs": [],
      "name": "getMstatusTwMask",
      "outputs": [
        {
          "internalType": "uint64",
          "name": "",
          "type": "uint64"
        }
      ],
      "stateMutability": "pure",
      "type": "function"
    },
    {
      "inputs": [],
      "name": "getMstatusTwShift",
      "outputs": [
        {
          "internalType": "uint64",
          "name": "",
          "type": "uint64"
        }
      ],
      "stateMutability": "pure",
      "type": "function"
    },
    {
      "inputs": [],
      "name": "getMstatusUieMask",
      "outputs": [
        {
          "internalType": "uint64",
          "name": "",
          "type": "uint64"
        }
      ],
      "stateMutability": "pure",
      "type": "function"
    },
    {
      "inputs": [],
      "name": "getMstatusUieShift",
      "outputs": [
        {
          "internalType": "uint64",
          "name": "",
          "type": "uint64"
        }
      ],
      "stateMutability": "pure",
      "type": "function"
    },
    {
      "inputs": [],
      "name": "getMstatusUpieMask",
      "outputs": [
        {
          "internalType": "uint64",
          "name": "",
          "type": "uint64"
        }
      ],
      "stateMutability": "pure",
      "type": "function"
    },
    {
      "inputs": [],
      "name": "getMstatusUpieShift",
      "outputs": [
        {
          "internalType": "uint64",
          "name": "",
          "type": "uint64"
        }
      ],
      "stateMutability": "pure",
      "type": "function"
    },
    {
      "inputs": [],
      "name": "getMstatusUxlMask",
      "outputs": [
        {
          "internalType": "uint64",
          "name": "",
          "type": "uint64"
        }
      ],
      "stateMutability": "pure",
      "type": "function"
    },
    {
      "inputs": [],
      "name": "getMstatusUxlShift",
      "outputs": [
        {
          "internalType": "uint64",
          "name": "",
          "type": "uint64"
        }
      ],
      "stateMutability": "pure",
      "type": "function"
    },
    {
      "inputs": [],
      "name": "getMstatusWMask",
      "outputs": [
        {
          "internalType": "uint64",
          "name": "",
          "type": "uint64"
        }
      ],
      "stateMutability": "pure",
      "type": "function"
    },
    {
      "inputs": [],
      "name": "getMstatusXsMask",
      "outputs": [
        {
          "internalType": "uint64",
          "name": "",
          "type": "uint64"
        }
      ],
      "stateMutability": "pure",
      "type": "function"
    },
    {
      "inputs": [],
      "name": "getMstatusXsShift",
      "outputs": [
        {
          "internalType": "uint64",
          "name": "",
          "type": "uint64"
        }
      ],
      "stateMutability": "pure",
      "type": "function"
    },
    {
      "inputs": [],
      "name": "getMxl",
      "outputs": [
        {
          "internalType": "uint64",
          "name": "",
          "type": "uint64"
        }
      ],
      "stateMutability": "pure",
      "type": "function"
    },
    {
      "inputs": [],
      "name": "getPageNumberShift",
      "outputs": [
        {
          "internalType": "uint64",
          "name": "",
          "type": "uint64"
        }
      ],
      "stateMutability": "pure",
      "type": "function"
    },
    {
      "inputs": [],
      "name": "getPageOffsetMask",
      "outputs": [
        {
          "internalType": "uint64",
          "name": "",
          "type": "uint64"
        }
      ],
      "stateMutability": "pure",
      "type": "function"
    },
    {
      "inputs": [],
      "name": "getPgMask",
      "outputs": [
        {
          "internalType": "uint64",
          "name": "",
          "type": "uint64"
        }
      ],
      "stateMutability": "pure",
      "type": "function"
    },
    {
      "inputs": [],
      "name": "getPgShift",
      "outputs": [
        {
          "internalType": "uint64",
          "name": "",
          "type": "uint64"
        }
      ],
      "stateMutability": "pure",
      "type": "function"
    },
    {
      "inputs": [],
      "name": "getPrvH",
      "outputs": [
        {
          "internalType": "uint64",
          "name": "",
          "type": "uint64"
        }
      ],
      "stateMutability": "pure",
      "type": "function"
    },
    {
      "inputs": [],
      "name": "getPrvM",
      "outputs": [
        {
          "internalType": "uint64",
          "name": "",
          "type": "uint64"
        }
      ],
      "stateMutability": "pure",
      "type": "function"
    },
    {
      "inputs": [],
      "name": "getPrvS",
      "outputs": [
        {
          "internalType": "uint64",
          "name": "",
          "type": "uint64"
        }
      ],
      "stateMutability": "pure",
      "type": "function"
    },
    {
      "inputs": [],
      "name": "getPrvU",
      "outputs": [
        {
          "internalType": "uint64",
          "name": "",
          "type": "uint64"
        }
      ],
      "stateMutability": "pure",
      "type": "function"
    },
    {
      "inputs": [],
      "name": "getPteAMask",
      "outputs": [
        {
          "internalType": "uint64",
          "name": "",
          "type": "uint64"
        }
      ],
      "stateMutability": "pure",
      "type": "function"
    },
    {
      "inputs": [],
      "name": "getPteDMask",
      "outputs": [
        {
          "internalType": "uint64",
          "name": "",
          "type": "uint64"
        }
      ],
      "stateMutability": "pure",
      "type": "function"
    },
    {
      "inputs": [],
      "name": "getPteUMask",
      "outputs": [
        {
          "internalType": "uint64",
          "name": "",
          "type": "uint64"
        }
      ],
      "stateMutability": "pure",
      "type": "function"
    },
    {
      "inputs": [],
      "name": "getPteVMask",
      "outputs": [
        {
          "internalType": "uint64",
          "name": "",
          "type": "uint64"
        }
      ],
      "stateMutability": "pure",
      "type": "function"
    },
    {
      "inputs": [],
      "name": "getPteXwrCodeShift",
      "outputs": [
        {
          "internalType": "uint64",
          "name": "",
          "type": "uint64"
        }
      ],
      "stateMutability": "pure",
      "type": "function"
    },
    {
      "inputs": [],
      "name": "getPteXwrReadShift",
      "outputs": [
        {
          "internalType": "uint64",
          "name": "",
          "type": "uint64"
        }
      ],
      "stateMutability": "pure",
      "type": "function"
    },
    {
      "inputs": [],
      "name": "getPteXwrWriteShift",
      "outputs": [
        {
          "internalType": "uint64",
          "name": "",
          "type": "uint64"
        }
      ],
      "stateMutability": "pure",
      "type": "function"
    },
    {
      "inputs": [],
      "name": "getScounterenRwMask",
      "outputs": [
        {
          "internalType": "uint64",
          "name": "",
          "type": "uint64"
        }
      ],
      "stateMutability": "pure",
      "type": "function"
    },
    {
      "inputs": [],
      "name": "getSstatusRMask",
      "outputs": [
        {
          "internalType": "uint64",
          "name": "",
          "type": "uint64"
        }
      ],
      "stateMutability": "pure",
      "type": "function"
    },
    {
      "inputs": [],
      "name": "getSstatusWMask",
      "outputs": [
        {
          "internalType": "uint64",
          "name": "",
          "type": "uint64"
        }
      ],
      "stateMutability": "pure",
      "type": "function"
    },
    {
      "inputs": [],
      "name": "getXlen",
      "outputs": [
        {
          "internalType": "uint64",
          "name": "",
          "type": "uint64"
        }
      ],
      "stateMutability": "pure",
      "type": "function"
    }
  ],
  "bytecode": "0x610cb4610026600b82828239805160001a60731461001957fe5b30600052607381538281f3fe73000000000000000000000000000000000000000030146080604052600436106106635760003560e01c80638ed7317f1161035b578063c3b85a8f116101cd578063db19725411610119578063f2f21e4c116100b7578063f796d7d711610091578063f796d7d714610845578063fcc61eff146107fd578063fd198e55146107fd578063fd6607c11461084d57610663565b8063f2f21e4c146106b5578063f2fb62c91461083d578063f4a407611461073d57610663565b8063e746ac72116100f3578063e746ac7214610835578063e89d408d1461068d578063e8a269591461069d578063e9d727641461066857610663565b8063db1972541461082d578063e1d206ab146106ed578063e697ace91461072557610663565b8063cac5b49511610186578063cf7ecf7911610160578063cf7ecf79146106ed578063d50ca22f1461069d578063d8685e0814610825578063dacff167146107cd57610663565b8063cac5b49514610815578063cba6d20c14610725578063cc19195c1461081d57610663565b8063c3b85a8f146106f5578063c3d5890f1461080d578063c49235ea146107e5578063c5d15aad14610695578063c6ce50d614610785578063ca3c11341461068d57610663565b8063a4521d8b116102a7578063ae3a10d111610245578063b396896e1161021f578063b396896e146106d5578063b482d45114610805578063b4e549ba1461071d578063bc8957431461069d57610663565b8063ae3a10d1146107fd578063ae458ae8146107fd578063b0c41fc51461068d57610663565b8063a8f81e2311610281578063a8f81e23146107e5578063a92353d7146107ed578063ac5732fe1461068d578063ad21dcaf146107f557610663565b8063a4521d8b146107d5578063a4652fa5146106bd578063a73fa952146107dd57610663565b80639839423811610314578063a195e2db116102ee578063a195e2db146106e5578063a1a29005146106c5578063a34556821461077d578063a406ed801461074d57610663565b80639839423814610695578063a12e3511146107c5578063a16de11c146107cd57610663565b80638ed7317f146106f55780638fbe78d214610705578063910a5247146106ed5780639166a2f9146107ad5780639230fa1d146107b5578063944b9ad4146107bd57610663565b8063574a20ef116104f4578063729e52ee11610440578063883d4fb0116103de5780638a17ca86116103b85780638a17ca861461078d5780638a911eef146107955780638c295e351461079d5780638e0840bf146107a557610663565b8063883d4fb014610775578063895327721461077d57806389941a2a1461078557610663565b80638208d1f21161041a5780638208d1f2146107255780638235ca881461069d578063835658181461076557806386c229551461076d57610663565b8063729e52ee1461075d5780637df41363146106955780637e6a20ca1461070557610663565b806361ed380a116104ad5780636eb9d0a0116104875780636eb9d0a01461073d5780636f5514e41461074d578063717c5d7c146107555780637273ba701461069d57610663565b806361ed380a1461068d578063656b151f146106955780636bdd3bf91461074557610663565b8063574a20ef1461068d578063594dc3731461072557806359e4e7c31461069d5780635af17adf1461072d578063609fd47c146107355780636164e3421461073d57610663565b80633afcb7a1116105b3578063458472a71161056c5780634d26940d116105465780634d26940d1461070d5780634d89d393146106c55780634e95a41014610715578063501bec451461071d57610663565b8063458472a7146106fd57806345d9c465146106ed57806348b36c3a1461070557610663565b80633afcb7a11461068d5780633fe2098a146106dd57806340391774146106e55780634074af28146106ed578063422c61941461069557806344312160146106f557610663565b80631d5edf03116106205780632e750856116105fa5780632e750856146106bd5780632ee52303146106c5578063317d2bb5146106cd5780633a6d9202146106d557610663565b80631d5edf031461069557806327d1ff75146106ad5780632968a7bd146106b557610663565b80630129840414610668578063026797d91461068d5780630ab3e66614610695578063143fb1a41461066857806317a0cac31461069d5780631918bc6f146106a5575b600080fd5b610670610855565b6040805167ffffffffffffffff9092168252519081900360200190f35b61067061085a565b61067061085f565b610670610864565b610670610869565b610670610890565b610670610895565b6106706108bc565b6106706108c1565b6106706108c6565b6106706108d0565b6106706108da565b6106706108df565b6106706108e4565b6106706108e9565b6106706108ee565b6106706108f8565b6106706108fd565b610670610907565b610670610911565b610670610916565b610670610920565b61067061092a565b610670610934565b610670610939565b610670610943565b61067061094d565b610670610952565b610670610964565b6106706109f1565b610670610a3f565b610670610a69565b610670610a73565b610670610a7d565b610670610a87565b610670610ae7565b610670610af1565b610670610b04565b610670610b0e565b610670610b13565b610670610bbb565b610670610bc5565b610670610bca565b610670610bcf565b610670610bd9565b610670610be3565b610670610be8565b610670610bed565b610670610bf7565b610670610bfc565b610670610c01565b610670610c10565b610670610c3a565b610670610c3f565b610670610c44565b610670610c4e565b610670610c6f565b610670610c79565b600590565b600190565b600090565b600290565b60006108736108df565b67ffffffffffffffff16600367ffffffffffffffff16901b905090565b601190565b600061089f6108e4565b67ffffffffffffffff16600167ffffffffffffffff16901b905090565b600f90565b600c90565b60006108736108e4565b600061089f610934565b608090565b600d90565b600390565b600890565b600061089f610b0e565b600790565b600061089f610bc5565b600061089f610be3565b604090565b600061089f61085a565b6000610873610be8565b600061089f610bf7565b600490565b600061087361094d565b600061089f610855565b602290565b6000600161095e610911565b03905090565b600061096e61092a565b6109766108ee565b61097e610b04565b610986610907565b61098e610a7d565b610996610ae7565b61099e610869565b6109a6610c44565b6109ae610a73565b6109b6610bd9565b6109be610943565b6109c66108d0565b6109ce610895565b6109d6610916565b6109de610bed565b1717171717171717171717171717905090565b60006109fb610907565b610a03610a7d565b610a0b610869565b610a13610a73565b610a1b610943565b610a236108d0565b610a2b610916565b610a33610bed565b17171717171717905090565b60006001610a4b610911565b0367ffffffffffffffff16600167ffffffffffffffff16901b905090565b600061089f610864565b600061089f6108e9565b600061089f610bfc565b6000610a91610bbb565b610a99610920565b610aa1610907565b610aa9610a7d565b610ab1610869565b610ab9610a73565b610ac1610943565b610ac96108d0565b610ad1610916565b610ad9610bed565b171717171717171717905090565b600061089f610890565b60006001610afd6108c1565b5090919050565b600061089f610c3f565b601590565b6000610b1d610bbb565b610b25610939565b610b2d610920565b610b3561092a565b610b3d6108ee565b610b45610b04565b610b4d610907565b610b55610a7d565b610b5d610ae7565b610b65610869565b610b6d610c44565b610b75610a73565b610b7d610bd9565b610b85610943565b610b8d6108d0565b610b95610895565b610b9d610916565b610ba5610bed565b1717171717171717171717171717171717905090565b600061089f610952565b600b90565b601090565b600061089f610c79565b600061089f6108f8565b601390565b602090565b600061089f61085f565b601690565b601290565b6000610c0b610c4e565b905090565b60006001610c1c6108c1565b67ffffffffffffffff16600167ffffffffffffffff16901b03905090565b600690565b601490565b6000610873610bc5565b6000610c58610a69565b610c60610916565b610c68610bed565b1717905090565b60006108736108bc565b60099056fea2646970667358221220d0d372651fb105c51d28c0b93010245482fec0c85f03cc3327016096fe6d763764736f6c63430007040033",
  "linkReferences": {},
  "deployedLinkReferences": {},
  "devdoc": {
    "author": "Felipe Argento",
    "kind": "dev",
    "methods": {},
    "title": "RiscVConstants",
    "version": 1
  },
  "evm": {
    "bytecode": {
      "linkReferences": {},
      "opcodes": "PUSH2 0xCB4 PUSH2 0x26 PUSH1 0xB DUP3 DUP3 DUP3 CODECOPY DUP1 MLOAD PUSH1 0x0 BYTE PUSH1 0x73 EQ PUSH2 0x19 JUMPI INVALID JUMPDEST ADDRESS PUSH1 0x0 MSTORE PUSH1 0x73 DUP2 MSTORE8 DUP3 DUP2 RETURN INVALID PUSH20 0x0 ADDRESS EQ PUSH1 0x80 PUSH1 0x40 MSTORE PUSH1 0x4 CALLDATASIZE LT PUSH2 0x663 JUMPI PUSH1 0x0 CALLDATALOAD PUSH1 0xE0 SHR DUP1 PUSH4 0x8ED7317F GT PUSH2 0x35B JUMPI DUP1 PUSH4 0xC3B85A8F GT PUSH2 0x1CD JUMPI DUP1 PUSH4 0xDB197254 GT PUSH2 0x119 JUMPI DUP1 PUSH4 0xF2F21E4C GT PUSH2 0xB7 JUMPI DUP1 PUSH4 0xF796D7D7 GT PUSH2 0x91 JUMPI DUP1 PUSH4 0xF796D7D7 EQ PUSH2 0x845 JUMPI DUP1 PUSH4 0xFCC61EFF EQ PUSH2 0x7FD JUMPI DUP1 PUSH4 0xFD198E55 EQ PUSH2 0x7FD JUMPI DUP1 PUSH4 0xFD6607C1 EQ PUSH2 0x84D JUMPI PUSH2 0x663 JUMP JUMPDEST DUP1 PUSH4 0xF2F21E4C EQ PUSH2 0x6B5 JUMPI DUP1 PUSH4 0xF2FB62C9 EQ PUSH2 0x83D JUMPI DUP1 PUSH4 0xF4A40761 EQ PUSH2 0x73D JUMPI PUSH2 0x663 JUMP JUMPDEST DUP1 PUSH4 0xE746AC72 GT PUSH2 0xF3 JUMPI DUP1 PUSH4 0xE746AC72 EQ PUSH2 0x835 JUMPI DUP1 PUSH4 0xE89D408D EQ PUSH2 0x68D JUMPI DUP1 PUSH4 0xE8A26959 EQ PUSH2 0x69D JUMPI DUP1 PUSH4 0xE9D72764 EQ PUSH2 0x668 JUMPI PUSH2 0x663 JUMP JUMPDEST DUP1 PUSH4 0xDB197254 EQ PUSH2 0x82D JUMPI DUP1 PUSH4 0xE1D206AB EQ PUSH2 0x6ED JUMPI DUP1 PUSH4 0xE697ACE9 EQ PUSH2 0x725 JUMPI PUSH2 0x663 JUMP JUMPDEST DUP1 PUSH4 0xCAC5B495 GT PUSH2 0x186 JUMPI DUP1 PUSH4 0xCF7ECF79 GT PUSH2 0x160 JUMPI DUP1 PUSH4 0xCF7ECF79 EQ PUSH2 0x6ED JUMPI DUP1 PUSH4 0xD50CA22F EQ PUSH2 0x69D JUMPI DUP1 PUSH4 0xD8685E08 EQ PUSH2 0x825 JUMPI DUP1 PUSH4 0xDACFF167 EQ PUSH2 0x7CD JUMPI PUSH2 0x663 JUMP JUMPDEST DUP1 PUSH4 0xCAC5B495 EQ PUSH2 0x815 JUMPI DUP1 PUSH4 0xCBA6D20C EQ PUSH2 0x725 JUMPI DUP1 PUSH4 0xCC19195C EQ PUSH2 0x81D JUMPI PUSH2 0x663 JUMP JUMPDEST DUP1 PUSH4 0xC3B85A8F EQ PUSH2 0x6F5 JUMPI DUP1 PUSH4 0xC3D5890F EQ PUSH2 0x80D JUMPI DUP1 PUSH4 0xC49235EA EQ PUSH2 0x7E5 JUMPI DUP1 PUSH4 0xC5D15AAD EQ PUSH2 0x695 JUMPI DUP1 PUSH4 0xC6CE50D6 EQ PUSH2 0x785 JUMPI DUP1 PUSH4 0xCA3C1134 EQ PUSH2 0x68D JUMPI PUSH2 0x663 JUMP JUMPDEST DUP1 PUSH4 0xA4521D8B GT PUSH2 0x2A7 JUMPI DUP1 PUSH4 0xAE3A10D1 GT PUSH2 0x245 JUMPI DUP1 PUSH4 0xB396896E GT PUSH2 0x21F JUMPI DUP1 PUSH4 0xB396896E EQ PUSH2 0x6D5 JUMPI DUP1 PUSH4 0xB482D451 EQ PUSH2 0x805 JUMPI DUP1 PUSH4 0xB4E549BA EQ PUSH2 0x71D JUMPI DUP1 PUSH4 0xBC895743 EQ PUSH2 0x69D JUMPI PUSH2 0x663 JUMP JUMPDEST DUP1 PUSH4 0xAE3A10D1 EQ PUSH2 0x7FD JUMPI DUP1 PUSH4 0xAE458AE8 EQ PUSH2 0x7FD JUMPI DUP1 PUSH4 0xB0C41FC5 EQ PUSH2 0x68D JUMPI PUSH2 0x663 JUMP JUMPDEST DUP1 PUSH4 0xA8F81E23 GT PUSH2 0x281 JUMPI DUP1 PUSH4 0xA8F81E23 EQ PUSH2 0x7E5 JUMPI DUP1 PUSH4 0xA92353D7 EQ PUSH2 0x7ED JUMPI DUP1 PUSH4 0xAC5732FE EQ PUSH2 0x68D JUMPI DUP1 PUSH4 0xAD21DCAF EQ PUSH2 0x7F5 JUMPI PUSH2 0x663 JUMP JUMPDEST DUP1 PUSH4 0xA4521D8B EQ PUSH2 0x7D5 JUMPI DUP1 PUSH4 0xA4652FA5 EQ PUSH2 0x6BD JUMPI DUP1 PUSH4 0xA73FA952 EQ PUSH2 0x7DD JUMPI PUSH2 0x663 JUMP JUMPDEST DUP1 PUSH4 0x98394238 GT PUSH2 0x314 JUMPI DUP1 PUSH4 0xA195E2DB GT PUSH2 0x2EE JUMPI DUP1 PUSH4 0xA195E2DB EQ PUSH2 0x6E5 JUMPI DUP1 PUSH4 0xA1A29005 EQ PUSH2 0x6C5 JUMPI DUP1 PUSH4 0xA3455682 EQ PUSH2 0x77D JUMPI DUP1 PUSH4 0xA406ED80 EQ PUSH2 0x74D JUMPI PUSH2 0x663 JUMP JUMPDEST DUP1 PUSH4 0x98394238 EQ PUSH2 0x695 JUMPI DUP1 PUSH4 0xA12E3511 EQ PUSH2 0x7C5 JUMPI DUP1 PUSH4 0xA16DE11C EQ PUSH2 0x7CD JUMPI PUSH2 0x663 JUMP JUMPDEST DUP1 PUSH4 0x8ED7317F EQ PUSH2 0x6F5 JUMPI DUP1 PUSH4 0x8FBE78D2 EQ PUSH2 0x705 JUMPI DUP1 PUSH4 0x910A5247 EQ PUSH2 0x6ED JUMPI DUP1 PUSH4 0x9166A2F9 EQ PUSH2 0x7AD JUMPI DUP1 PUSH4 0x9230FA1D EQ PUSH2 0x7B5 JUMPI DUP1 PUSH4 0x944B9AD4 EQ PUSH2 0x7BD JUMPI PUSH2 0x663 JUMP JUMPDEST DUP1 PUSH4 0x574A20EF GT PUSH2 0x4F4 JUMPI DUP1 PUSH4 0x729E52EE GT PUSH2 0x440 JUMPI DUP1 PUSH4 0x883D4FB0 GT PUSH2 0x3DE JUMPI DUP1 PUSH4 0x8A17CA86 GT PUSH2 0x3B8 JUMPI DUP1 PUSH4 0x8A17CA86 EQ PUSH2 0x78D JUMPI DUP1 PUSH4 0x8A911EEF EQ PUSH2 0x795 JUMPI DUP1 PUSH4 0x8C295E35 EQ PUSH2 0x79D JUMPI DUP1 PUSH4 0x8E0840BF EQ PUSH2 0x7A5 JUMPI PUSH2 0x663 JUMP JUMPDEST DUP1 PUSH4 0x883D4FB0 EQ PUSH2 0x775 JUMPI DUP1 PUSH4 0x89532772 EQ PUSH2 0x77D JUMPI DUP1 PUSH4 0x89941A2A EQ PUSH2 0x785 JUMPI PUSH2 0x663 JUMP JUMPDEST DUP1 PUSH4 0x8208D1F2 GT PUSH2 0x41A JUMPI DUP1 PUSH4 0x8208D1F2 EQ PUSH2 0x725 JUMPI DUP1 PUSH4 0x8235CA88 EQ PUSH2 0x69D JUMPI DUP1 PUSH4 0x83565818 EQ PUSH2 0x765 JUMPI DUP1 PUSH4 0x86C22955 EQ PUSH2 0x76D JUMPI PUSH2 0x663 JUMP JUMPDEST DUP1 PUSH4 0x729E52EE EQ PUSH2 0x75D JUMPI DUP1 PUSH4 0x7DF41363 EQ PUSH2 0x695 JUMPI DUP1 PUSH4 0x7E6A20CA EQ PUSH2 0x705 JUMPI PUSH2 0x663 JUMP JUMPDEST DUP1 PUSH4 0x61ED380A GT PUSH2 0x4AD JUMPI DUP1 PUSH4 0x6EB9D0A0 GT PUSH2 0x487 JUMPI DUP1 PUSH4 0x6EB9D0A0 EQ PUSH2 0x73D JUMPI DUP1 PUSH4 0x6F5514E4 EQ PUSH2 0x74D JUMPI DUP1 PUSH4 0x717C5D7C EQ PUSH2 0x755 JUMPI DUP1 PUSH4 0x7273BA70 EQ PUSH2 0x69D JUMPI PUSH2 0x663 JUMP JUMPDEST DUP1 PUSH4 0x61ED380A EQ PUSH2 0x68D JUMPI DUP1 PUSH4 0x656B151F EQ PUSH2 0x695 JUMPI DUP1 PUSH4 0x6BDD3BF9 EQ PUSH2 0x745 JUMPI PUSH2 0x663 JUMP JUMPDEST DUP1 PUSH4 0x574A20EF EQ PUSH2 0x68D JUMPI DUP1 PUSH4 0x594DC373 EQ PUSH2 0x725 JUMPI DUP1 PUSH4 0x59E4E7C3 EQ PUSH2 0x69D JUMPI DUP1 PUSH4 0x5AF17ADF EQ PUSH2 0x72D JUMPI DUP1 PUSH4 0x609FD47C EQ PUSH2 0x735 JUMPI DUP1 PUSH4 0x6164E342 EQ PUSH2 0x73D JUMPI PUSH2 0x663 JUMP JUMPDEST DUP1 PUSH4 0x3AFCB7A1 GT PUSH2 0x5B3 JUMPI DUP1 PUSH4 0x458472A7 GT PUSH2 0x56C JUMPI DUP1 PUSH4 0x4D26940D GT PUSH2 0x546 JUMPI DUP1 PUSH4 0x4D26940D EQ PUSH2 0x70D JUMPI DUP1 PUSH4 0x4D89D393 EQ PUSH2 0x6C5 JUMPI DUP1 PUSH4 0x4E95A410 EQ PUSH2 0x715 JUMPI DUP1 PUSH4 0x501BEC45 EQ PUSH2 0x71D JUMPI PUSH2 0x663 JUMP JUMPDEST DUP1 PUSH4 0x458472A7 EQ PUSH2 0x6FD JUMPI DUP1 PUSH4 0x45D9C465 EQ PUSH2 0x6ED JUMPI DUP1 PUSH4 0x48B36C3A EQ PUSH2 0x705 JUMPI PUSH2 0x663 JUMP JUMPDEST DUP1 PUSH4 0x3AFCB7A1 EQ PUSH2 0x68D JUMPI DUP1 PUSH4 0x3FE2098A EQ PUSH2 0x6DD JUMPI DUP1 PUSH4 0x40391774 EQ PUSH2 0x6E5 JUMPI DUP1 PUSH4 0x4074AF28 EQ PUSH2 0x6ED JUMPI DUP1 PUSH4 0x422C6194 EQ PUSH2 0x695 JUMPI DUP1 PUSH4 0x44312160 EQ PUSH2 0x6F5 JUMPI PUSH2 0x663 JUMP JUMPDEST DUP1 PUSH4 0x1D5EDF03 GT PUSH2 0x620 JUMPI DUP1 PUSH4 0x2E750856 GT PUSH2 0x5FA JUMPI DUP1 PUSH4 0x2E750856 EQ PUSH2 0x6BD JUMPI DUP1 PUSH4 0x2EE52303 EQ PUSH2 0x6C5 JUMPI DUP1 PUSH4 0x317D2BB5 EQ PUSH2 0x6CD JUMPI DUP1 PUSH4 0x3A6D9202 EQ PUSH2 0x6D5 JUMPI PUSH2 0x663 JUMP JUMPDEST DUP1 PUSH4 0x1D5EDF03 EQ PUSH2 0x695 JUMPI DUP1 PUSH4 0x27D1FF75 EQ PUSH2 0x6AD JUMPI DUP1 PUSH4 0x2968A7BD EQ PUSH2 0x6B5 JUMPI PUSH2 0x663 JUMP JUMPDEST DUP1 PUSH4 0x1298404 EQ PUSH2 0x668 JUMPI DUP1 PUSH4 0x26797D9 EQ PUSH2 0x68D JUMPI DUP1 PUSH4 0xAB3E666 EQ PUSH2 0x695 JUMPI DUP1 PUSH4 0x143FB1A4 EQ PUSH2 0x668 JUMPI DUP1 PUSH4 0x17A0CAC3 EQ PUSH2 0x69D JUMPI DUP1 PUSH4 0x1918BC6F EQ PUSH2 0x6A5 JUMPI JUMPDEST PUSH1 0x0 DUP1 REVERT JUMPDEST PUSH2 0x670 PUSH2 0x855 JUMP JUMPDEST PUSH1 0x40 DUP1 MLOAD PUSH8 0xFFFFFFFFFFFFFFFF SWAP1 SWAP3 AND DUP3 MSTORE MLOAD SWAP1 DUP2 SWAP1 SUB PUSH1 0x20 ADD SWAP1 RETURN JUMPDEST PUSH2 0x670 PUSH2 0x85A JUMP JUMPDEST PUSH2 0x670 PUSH2 0x85F JUMP JUMPDEST PUSH2 0x670 PUSH2 0x864 JUMP JUMPDEST PUSH2 0x670 PUSH2 0x869 JUMP JUMPDEST PUSH2 0x670 PUSH2 0x890 JUMP JUMPDEST PUSH2 0x670 PUSH2 0x895 JUMP JUMPDEST PUSH2 0x670 PUSH2 0x8BC JUMP JUMPDEST PUSH2 0x670 PUSH2 0x8C1 JUMP JUMPDEST PUSH2 0x670 PUSH2 0x8C6 JUMP JUMPDEST PUSH2 0x670 PUSH2 0x8D0 JUMP JUMPDEST PUSH2 0x670 PUSH2 0x8DA JUMP JUMPDEST PUSH2 0x670 PUSH2 0x8DF JUMP JUMPDEST PUSH2 0x670 PUSH2 0x8E4 JUMP JUMPDEST PUSH2 0x670 PUSH2 0x8E9 JUMP JUMPDEST PUSH2 0x670 PUSH2 0x8EE JUMP JUMPDEST PUSH2 0x670 PUSH2 0x8F8 JUMP JUMPDEST PUSH2 0x670 PUSH2 0x8FD JUMP JUMPDEST PUSH2 0x670 PUSH2 0x907 JUMP JUMPDEST PUSH2 0x670 PUSH2 0x911 JUMP JUMPDEST PUSH2 0x670 PUSH2 0x916 JUMP JUMPDEST PUSH2 0x670 PUSH2 0x920 JUMP JUMPDEST PUSH2 0x670 PUSH2 0x92A JUMP JUMPDEST PUSH2 0x670 PUSH2 0x934 JUMP JUMPDEST PUSH2 0x670 PUSH2 0x939 JUMP JUMPDEST PUSH2 0x670 PUSH2 0x943 JUMP JUMPDEST PUSH2 0x670 PUSH2 0x94D JUMP JUMPDEST PUSH2 0x670 PUSH2 0x952 JUMP JUMPDEST PUSH2 0x670 PUSH2 0x964 JUMP JUMPDEST PUSH2 0x670 PUSH2 0x9F1 JUMP JUMPDEST PUSH2 0x670 PUSH2 0xA3F JUMP JUMPDEST PUSH2 0x670 PUSH2 0xA69 JUMP JUMPDEST PUSH2 0x670 PUSH2 0xA73 JUMP JUMPDEST PUSH2 0x670 PUSH2 0xA7D JUMP JUMPDEST PUSH2 0x670 PUSH2 0xA87 JUMP JUMPDEST PUSH2 0x670 PUSH2 0xAE7 JUMP JUMPDEST PUSH2 0x670 PUSH2 0xAF1 JUMP JUMPDEST PUSH2 0x670 PUSH2 0xB04 JUMP JUMPDEST PUSH2 0x670 PUSH2 0xB0E JUMP JUMPDEST PUSH2 0x670 PUSH2 0xB13 JUMP JUMPDEST PUSH2 0x670 PUSH2 0xBBB JUMP JUMPDEST PUSH2 0x670 PUSH2 0xBC5 JUMP JUMPDEST PUSH2 0x670 PUSH2 0xBCA JUMP JUMPDEST PUSH2 0x670 PUSH2 0xBCF JUMP JUMPDEST PUSH2 0x670 PUSH2 0xBD9 JUMP JUMPDEST PUSH2 0x670 PUSH2 0xBE3 JUMP JUMPDEST PUSH2 0x670 PUSH2 0xBE8 JUMP JUMPDEST PUSH2 0x670 PUSH2 0xBED JUMP JUMPDEST PUSH2 0x670 PUSH2 0xBF7 JUMP JUMPDEST PUSH2 0x670 PUSH2 0xBFC JUMP JUMPDEST PUSH2 0x670 PUSH2 0xC01 JUMP JUMPDEST PUSH2 0x670 PUSH2 0xC10 JUMP JUMPDEST PUSH2 0x670 PUSH2 0xC3A JUMP JUMPDEST PUSH2 0x670 PUSH2 0xC3F JUMP JUMPDEST PUSH2 0x670 PUSH2 0xC44 JUMP JUMPDEST PUSH2 0x670 PUSH2 0xC4E JUMP JUMPDEST PUSH2 0x670 PUSH2 0xC6F JUMP JUMPDEST PUSH2 0x670 PUSH2 0xC79 JUMP JUMPDEST PUSH1 0x5 SWAP1 JUMP JUMPDEST PUSH1 0x1 SWAP1 JUMP JUMPDEST PUSH1 0x0 SWAP1 JUMP JUMPDEST PUSH1 0x2 SWAP1 JUMP JUMPDEST PUSH1 0x0 PUSH2 0x873 PUSH2 0x8DF JUMP JUMPDEST PUSH8 0xFFFFFFFFFFFFFFFF AND PUSH1 0x3 PUSH8 0xFFFFFFFFFFFFFFFF AND SWAP1 SHL SWAP1 POP SWAP1 JUMP JUMPDEST PUSH1 0x11 SWAP1 JUMP JUMPDEST PUSH1 0x0 PUSH2 0x89F PUSH2 0x8E4 JUMP JUMPDEST PUSH8 0xFFFFFFFFFFFFFFFF AND PUSH1 0x1 PUSH8 0xFFFFFFFFFFFFFFFF AND SWAP1 SHL SWAP1 POP SWAP1 JUMP JUMPDEST PUSH1 0xF SWAP1 JUMP JUMPDEST PUSH1 0xC SWAP1 JUMP JUMPDEST PUSH1 0x0 PUSH2 0x873 PUSH2 0x8E4 JUMP JUMPDEST PUSH1 0x0 PUSH2 0x89F PUSH2 0x934 JUMP JUMPDEST PUSH1 0x80 SWAP1 JUMP JUMPDEST PUSH1 0xD SWAP1 JUMP JUMPDEST PUSH1 0x3 SWAP1 JUMP JUMPDEST PUSH1 0x8 SWAP1 JUMP JUMPDEST PUSH1 0x0 PUSH2 0x89F PUSH2 0xB0E JUMP JUMPDEST PUSH1 0x7 SWAP1 JUMP JUMPDEST PUSH1 0x0 PUSH2 0x89F PUSH2 0xBC5 JUMP JUMPDEST PUSH1 0x0 PUSH2 0x89F PUSH2 0xBE3 JUMP JUMPDEST PUSH1 0x40 SWAP1 JUMP JUMPDEST PUSH1 0x0 PUSH2 0x89F PUSH2 0x85A JUMP JUMPDEST PUSH1 0x0 PUSH2 0x873 PUSH2 0xBE8 JUMP JUMPDEST PUSH1 0x0 PUSH2 0x89F PUSH2 0xBF7 JUMP JUMPDEST PUSH1 0x4 SWAP1 JUMP JUMPDEST PUSH1 0x0 PUSH2 0x873 PUSH2 0x94D JUMP JUMPDEST PUSH1 0x0 PUSH2 0x89F PUSH2 0x855 JUMP JUMPDEST PUSH1 0x22 SWAP1 JUMP JUMPDEST PUSH1 0x0 PUSH1 0x1 PUSH2 0x95E PUSH2 0x911 JUMP JUMPDEST SUB SWAP1 POP SWAP1 JUMP JUMPDEST PUSH1 0x0 PUSH2 0x96E PUSH2 0x92A JUMP JUMPDEST PUSH2 0x976 PUSH2 0x8EE JUMP JUMPDEST PUSH2 0x97E PUSH2 0xB04 JUMP JUMPDEST PUSH2 0x986 PUSH2 0x907 JUMP JUMPDEST PUSH2 0x98E PUSH2 0xA7D JUMP JUMPDEST PUSH2 0x996 PUSH2 0xAE7 JUMP JUMPDEST PUSH2 0x99E PUSH2 0x869 JUMP JUMPDEST PUSH2 0x9A6 PUSH2 0xC44 JUMP JUMPDEST PUSH2 0x9AE PUSH2 0xA73 JUMP JUMPDEST PUSH2 0x9B6 PUSH2 0xBD9 JUMP JUMPDEST PUSH2 0x9BE PUSH2 0x943 JUMP JUMPDEST PUSH2 0x9C6 PUSH2 0x8D0 JUMP JUMPDEST PUSH2 0x9CE PUSH2 0x895 JUMP JUMPDEST PUSH2 0x9D6 PUSH2 0x916 JUMP JUMPDEST PUSH2 0x9DE PUSH2 0xBED JUMP JUMPDEST OR OR OR OR OR OR OR OR OR OR OR OR OR OR SWAP1 POP SWAP1 JUMP JUMPDEST PUSH1 0x0 PUSH2 0x9FB PUSH2 0x907 JUMP JUMPDEST PUSH2 0xA03 PUSH2 0xA7D JUMP JUMPDEST PUSH2 0xA0B PUSH2 0x869 JUMP JUMPDEST PUSH2 0xA13 PUSH2 0xA73 JUMP JUMPDEST PUSH2 0xA1B PUSH2 0x943 JUMP JUMPDEST PUSH2 0xA23 PUSH2 0x8D0 JUMP JUMPDEST PUSH2 0xA2B PUSH2 0x916 JUMP JUMPDEST PUSH2 0xA33 PUSH2 0xBED JUMP JUMPDEST OR OR OR OR OR OR OR SWAP1 POP SWAP1 JUMP JUMPDEST PUSH1 0x0 PUSH1 0x1 PUSH2 0xA4B PUSH2 0x911 JUMP JUMPDEST SUB PUSH8 0xFFFFFFFFFFFFFFFF AND PUSH1 0x1 PUSH8 0xFFFFFFFFFFFFFFFF AND SWAP1 SHL SWAP1 POP SWAP1 JUMP JUMPDEST PUSH1 0x0 PUSH2 0x89F PUSH2 0x864 JUMP JUMPDEST PUSH1 0x0 PUSH2 0x89F PUSH2 0x8E9 JUMP JUMPDEST PUSH1 0x0 PUSH2 0x89F PUSH2 0xBFC JUMP JUMPDEST PUSH1 0x0 PUSH2 0xA91 PUSH2 0xBBB JUMP JUMPDEST PUSH2 0xA99 PUSH2 0x920 JUMP JUMPDEST PUSH2 0xAA1 PUSH2 0x907 JUMP JUMPDEST PUSH2 0xAA9 PUSH2 0xA7D JUMP JUMPDEST PUSH2 0xAB1 PUSH2 0x869 JUMP JUMPDEST PUSH2 0xAB9 PUSH2 0xA73 JUMP JUMPDEST PUSH2 0xAC1 PUSH2 0x943 JUMP JUMPDEST PUSH2 0xAC9 PUSH2 0x8D0 JUMP JUMPDEST PUSH2 0xAD1 PUSH2 0x916 JUMP JUMPDEST PUSH2 0xAD9 PUSH2 0xBED JUMP JUMPDEST OR OR OR OR OR OR OR OR OR SWAP1 POP SWAP1 JUMP JUMPDEST PUSH1 0x0 PUSH2 0x89F PUSH2 0x890 JUMP JUMPDEST PUSH1 0x0 PUSH1 0x1 PUSH2 0xAFD PUSH2 0x8C1 JUMP JUMPDEST POP SWAP1 SWAP2 SWAP1 POP JUMP JUMPDEST PUSH1 0x0 PUSH2 0x89F PUSH2 0xC3F JUMP JUMPDEST PUSH1 0x15 SWAP1 JUMP JUMPDEST PUSH1 0x0 PUSH2 0xB1D PUSH2 0xBBB JUMP JUMPDEST PUSH2 0xB25 PUSH2 0x939 JUMP JUMPDEST PUSH2 0xB2D PUSH2 0x920 JUMP JUMPDEST PUSH2 0xB35 PUSH2 0x92A JUMP JUMPDEST PUSH2 0xB3D PUSH2 0x8EE JUMP JUMPDEST PUSH2 0xB45 PUSH2 0xB04 JUMP JUMPDEST PUSH2 0xB4D PUSH2 0x907 JUMP JUMPDEST PUSH2 0xB55 PUSH2 0xA7D JUMP JUMPDEST PUSH2 0xB5D PUSH2 0xAE7 JUMP JUMPDEST PUSH2 0xB65 PUSH2 0x869 JUMP JUMPDEST PUSH2 0xB6D PUSH2 0xC44 JUMP JUMPDEST PUSH2 0xB75 PUSH2 0xA73 JUMP JUMPDEST PUSH2 0xB7D PUSH2 0xBD9 JUMP JUMPDEST PUSH2 0xB85 PUSH2 0x943 JUMP JUMPDEST PUSH2 0xB8D PUSH2 0x8D0 JUMP JUMPDEST PUSH2 0xB95 PUSH2 0x895 JUMP JUMPDEST PUSH2 0xB9D PUSH2 0x916 JUMP JUMPDEST PUSH2 0xBA5 PUSH2 0xBED JUMP JUMPDEST OR OR OR OR OR OR OR OR OR OR OR OR OR OR OR OR OR SWAP1 POP SWAP1 JUMP JUMPDEST PUSH1 0x0 PUSH2 0x89F PUSH2 0x952 JUMP JUMPDEST PUSH1 0xB SWAP1 JUMP JUMPDEST PUSH1 0x10 SWAP1 JUMP JUMPDEST PUSH1 0x0 PUSH2 0x89F PUSH2 0xC79 JUMP JUMPDEST PUSH1 0x0 PUSH2 0x89F PUSH2 0x8F8 JUMP JUMPDEST PUSH1 0x13 SWAP1 JUMP JUMPDEST PUSH1 0x20 SWAP1 JUMP JUMPDEST PUSH1 0x0 PUSH2 0x89F PUSH2 0x85F JUMP JUMPDEST PUSH1 0x16 SWAP1 JUMP JUMPDEST PUSH1 0x12 SWAP1 JUMP JUMPDEST PUSH1 0x0 PUSH2 0xC0B PUSH2 0xC4E JUMP JUMPDEST SWAP1 POP SWAP1 JUMP JUMPDEST PUSH1 0x0 PUSH1 0x1 PUSH2 0xC1C PUSH2 0x8C1 JUMP JUMPDEST PUSH8 0xFFFFFFFFFFFFFFFF AND PUSH1 0x1 PUSH8 0xFFFFFFFFFFFFFFFF AND SWAP1 SHL SUB SWAP1 POP SWAP1 JUMP JUMPDEST PUSH1 0x6 SWAP1 JUMP JUMPDEST PUSH1 0x14 SWAP1 JUMP JUMPDEST PUSH1 0x0 PUSH2 0x873 PUSH2 0xBC5 JUMP JUMPDEST PUSH1 0x0 PUSH2 0xC58 PUSH2 0xA69 JUMP JUMPDEST PUSH2 0xC60 PUSH2 0x916 JUMP JUMPDEST PUSH2 0xC68 PUSH2 0xBED JUMP JUMPDEST OR OR SWAP1 POP SWAP1 JUMP JUMPDEST PUSH1 0x0 PUSH2 0x873 PUSH2 0x8BC JUMP JUMPDEST PUSH1 0x9 SWAP1 JUMP INVALID LOG2 PUSH5 0x6970667358 0x22 SLT KECCAK256 0xD0 0xD3 PUSH19 0x651FB105C51D28C0B93010245482FEC0C85F03 0xCC CALLER 0x27 ADD PUSH1 0x96 INVALID PUSH14 0x763764736F6C6343000704003300 "
    },
    "gasEstimates": {
      "creation": {
        "codeDepositCost": "650400",
        "executionCost": "708",
        "totalCost": "651108"
      },
      "external": {
        "getIflagsHMask()": "379",
        "getIflagsHShift()": "304",
        "getIflagsPrvMask()": "382",
        "getIflagsPrvShift()": "304",
        "getIflagsXMask()": "381",
        "getIflagsXShift()": "349",
        "getIflagsYMask()": "381",
        "getIflagsYShift()": "302",
        "getMcauseBreakpoint()": "326",
        "getMcauseEcallBase()": "370",
        "getMcauseFetchPageFault()": "303",
        "getMcauseIllegalInsn()": "347",
        "getMcauseInsnAccessFault()": "260",
        "getMcauseInsnAddressMisaligned()": "305",
        "getMcauseInterruptFlag()": "343",
        "getMcauseLoadAccessFault()": "261",
        "getMcauseLoadAddressMisaligned()": "324",
        "getMcauseLoadPageFault()": "304",
        "getMcauseStoreAmoAccessFault()": "326",
        "getMcauseStoreAmoAddressMisaligned()": "324",
        "getMcauseStoreAmoPageFault()": "304",
        "getMcounterenCyMask()": "337",
        "getMcounterenCyShift()": "283",
        "getMcounterenIrMask()": "359",
        "getMcounterenIrShift()": "303",
        "getMcounterenRwMask()": "infinite",
        "getMcounterenTmMask()": "337",
        "getMcounterenTmShift()": "282",
        "getMipMeipMask()": "337",
        "getMipMeipShift()": "346",
        "getMipMsipMask()": "383",
        "getMipMsipShift()": "303",
        "getMipMtipMask()": "359",
        "getMipMtipShift()": "282",
        "getMipSeipMask()": "382",
        "getMipSeipShift()": "345",
        "getMipSsipMask()": "359",
        "getMipSsipShift()": "325",
        "getMipStipMask()": "403",
        "getMipStipShift()": "327",
        "getMipUeipMask()": "381",
        "getMipUeipShift()": "260",
        "getMipUsipMask()": "359",
        "getMipUsipShift()": "325",
        "getMipUtipMask()": "404",
        "getMipUtipShift()": "281",
        "getMstatusFsMask()": "427",
        "getMstatusFsShift()": "281",
        "getMstatusHieShift()": "304",
        "getMstatusMieMask()": "336",
        "getMstatusMieShift()": "304",
        "getMstatusMpieMask()": "337",
        "getMstatusMpieShift()": "326",
        "getMstatusMppMask()": "336",
        "getMstatusMppShift()": "326",
        "getMstatusMprvMask()": "380",
        "getMstatusMprvShift()": "305",
        "getMstatusMxrMask()": "381",
        "getMstatusMxrShift()": "303",
        "getMstatusRMask()": "infinite",
        "getMstatusSdMask()": "401",
        "getMstatusSdShift()": "323",
        "getMstatusSieMask()": "338",
        "getMstatusSieShift()": "369",
        "getMstatusSpieMask()": "359",
        "getMstatusSpieShift()": "346",
        "getMstatusSppMask()": "403",
        "getMstatusSppShift()": "259",
        "getMstatusSumMask()": "336",
        "getMstatusSumShift()": "281",
        "getMstatusSxlMask()": "382",
        "getMstatusSxlShift()": "325",
        "getMstatusTsrMask()": "404",
        "getMstatusTsrShift()": "302",
        "getMstatusTvmMask()": "382",
        "getMstatusTvmShift()": "281",
        "getMstatusTwMask()": "338",
        "getMstatusTwShift()": "348",
        "getMstatusUieMask()": "357",
        "getMstatusUieShift()": "348",
        "getMstatusUpieMask()": "336",
        "getMstatusUpieShift()": "370",
        "getMstatusUxlMask()": "382",
        "getMstatusUxlShift()": "347",
        "getMstatusWMask()": "infinite",
        "getMstatusXsMask()": "335",
        "getMstatusXsShift()": "282",
        "getMxl()": "302",
        "getPageNumberShift()": "304",
        "getPageOffsetMask()": "387",
        "getPgMask()": "389",
        "getPgShift()": "303",
        "getPrvH()": "324",
        "getPrvM()": "280",
        "getPrvS()": "283",
        "getPrvU()": "282",
        "getPteAMask()": "347",
        "getPteDMask()": "282",
        "getPteUMask()": "282",
        "getPteVMask()": "260",
        "getPteXwrCodeShift()": "346",
        "getPteXwrReadShift()": "304",
        "getPteXwrWriteShift()": "325",
        "getScounterenRwMask()": "infinite",
        "getSstatusRMask()": "infinite",
        "getSstatusWMask()": "infinite",
        "getXlen()": "324"
      }
    },
    "methodIdentifiers": {
      "getIflagsHMask()": "fd198e55",
      "getIflagsHShift()": "656b151f",
      "getIflagsPrvMask()": "317d2bb5",
      "getIflagsPrvShift()": "910a5247",
      "getIflagsXMask()": "a3455682",
      "getIflagsXShift()": "17a0cac3",
      "getIflagsYMask()": "e697ace9",
      "getIflagsYShift()": "e89d408d",
      "getMcauseBreakpoint()": "4074af28",
      "getMcauseEcallBase()": "44312160",
      "getMcauseFetchPageFault()": "4d89d393",
      "getMcauseIllegalInsn()": "7273ba70",
      "getMcauseInsnAccessFault()": "3afcb7a1",
      "getMcauseInsnAddressMisaligned()": "0ab3e666",
      "getMcauseInterruptFlag()": "883d4fb0",
      "getMcauseLoadAccessFault()": "01298404",
      "getMcauseLoadAddressMisaligned()": "f4a40761",
      "getMcauseLoadPageFault()": "40391774",
      "getMcauseStoreAmoAccessFault()": "48b36c3a",
      "getMcauseStoreAmoAddressMisaligned()": "d8685e08",
      "getMcauseStoreAmoPageFault()": "a4652fa5",
      "getMcounterenCyMask()": "ae3a10d1",
      "getMcounterenCyShift()": "1d5edf03",
      "getMcounterenIrMask()": "89532772",
      "getMcounterenIrShift()": "8235ca88",
      "getMcounterenRwMask()": "f2fb62c9",
      "getMcounterenTmMask()": "8208d1f2",
      "getMcounterenTmShift()": "61ed380a",
      "getMipMeipMask()": "4d26940d",
      "getMipMeipShift()": "dacff167",
      "getMipMsipMask()": "2968a7bd",
      "getMipMsipShift()": "e1d206ab",
      "getMipMtipMask()": "c49235ea",
      "getMipMtipShift()": "8fbe78d2",
      "getMipSeipMask()": "a73fa952",
      "getMipSeipShift()": "fd6607c1",
      "getMipSsipMask()": "cba6d20c",
      "getMipSsipShift()": "ac5732fe",
      "getMipStipMask()": "a406ed80",
      "getMipStipShift()": "143fb1a4",
      "getMipUeipMask()": "89941a2a",
      "getMipUeipShift()": "8ed7317f",
      "getMipUsipMask()": "ae458ae8",
      "getMipUsipShift()": "c5d15aad",
      "getMipUtipMask()": "3a6d9202",
      "getMipUtipShift()": "6eb9d0a0",
      "getMstatusFsMask()": "1918bc6f",
      "getMstatusFsShift()": "a195e2db",
      "getMstatusHieShift()": "59e4e7c3",
      "getMstatusMieMask()": "f2f21e4c",
      "getMstatusMieShift()": "45d9c465",
      "getMstatusMpieMask()": "a8f81e23",
      "getMstatusMpieShift()": "7e6a20ca",
      "getMstatusMppMask()": "e746ac72",
      "getMstatusMppShift()": "a16de11c",
      "getMstatusMprvMask()": "8c295e35",
      "getMstatusMprvShift()": "27d1ff75",
      "getMstatusMxrMask()": "4e95a410",
      "getMstatusMxrShift()": "a92353d7",
      "getMstatusRMask()": "944b9ad4",
      "getMstatusSdMask()": "a12e3511",
      "getMstatusSdShift()": "729e52ee",
      "getMstatusSieMask()": "594dc373",
      "getMstatusSieShift()": "ca3c1134",
      "getMstatusSpieMask()": "6f5514e4",
      "getMstatusSpieShift()": "e9d72764",
      "getMstatusSppMask()": "c6ce50d6",
      "getMstatusSppShift()": "c3b85a8f",
      "getMstatusSumMask()": "8a17ca86",
      "getMstatusSumShift()": "c3d5890f",
      "getMstatusSxlMask()": "6bdd3bf9",
      "getMstatusSxlShift()": "717c5d7c",
      "getMstatusTsrMask()": "609fd47c",
      "getMstatusTsrShift()": "b482d451",
      "getMstatusTvmMask()": "9166a2f9",
      "getMstatusTvmShift()": "db197254",
      "getMstatusTwMask()": "458472a7",
      "getMstatusTwShift()": "9230fa1d",
      "getMstatusUieMask()": "fcc61eff",
      "getMstatusUieShift()": "422c6194",
      "getMstatusUpieMask()": "b396896e",
      "getMstatusUpieShift()": "6164e342",
      "getMstatusUxlMask()": "5af17adf",
      "getMstatusUxlShift()": "ad21dcaf",
      "getMstatusWMask()": "83565818",
      "getMstatusXsMask()": "f796d7d7",
      "getMstatusXsShift()": "2e750856",
      "getMxl()": "d50ca22f",
      "getPageNumberShift()": "2ee52303",
      "getPageOffsetMask()": "cc19195c",
      "getPgMask()": "8e0840bf",
      "getPgShift()": "a1a29005",
      "getPrvH()": "e8a26959",
      "getPrvM()": "cf7ecf79",
      "getPrvS()": "026797d9",
      "getPrvU()": "98394238",
      "getPteAMask()": "501bec45",
      "getPteDMask()": "3fe2098a",
      "getPteUMask()": "a4521d8b",
      "getPteVMask()": "574a20ef",
      "getPteXwrCodeShift()": "bc895743",
      "getPteXwrReadShift()": "7df41363",
      "getPteXwrWriteShift()": "b0c41fc5",
      "getScounterenRwMask()": "cac5b495",
      "getSstatusRMask()": "8a911eef",
      "getSstatusWMask()": "86c22955",
      "getXlen()": "b4e549ba"
    }
  },
  "storageLayout": {
    "storage": [],
    "types": null
  },
  "userdoc": {
    "kind": "user",
    "methods": {
      "getMcauseBreakpoint()": {
        "notice": "< illegal instruction"
      },
      "getMcauseEcallBase()": {
        "notice": "< store/amo access fault < environment call (+0: from u-mode, +1: from s-mode, +3: from m-mode)"
      },
      "getMcauseIllegalInsn()": {
        "notice": "< instruction access fault"
      },
      "getMcauseInsnAccessFault()": {
        "notice": "< instruction address misaligned"
      },
      "getMcauseInterruptFlag()": {
        "notice": "< store/amo page fault"
      },
      "getMcauseLoadAccessFault()": {
        "notice": "< load address misaligned"
      },
      "getMcauseLoadAddressMisaligned()": {
        "notice": "< breakpoint"
      },
      "getMcauseLoadPageFault()": {
        "notice": "< instruction page fault"
      },
      "getMcauseStoreAmoAccessFault()": {
        "notice": "< store/amo address misaligned"
      },
      "getMcauseStoreAmoAddressMisaligned()": {
        "notice": "< load access fault"
      },
      "getMcauseStoreAmoPageFault()": {
        "notice": "< load page fault"
      },
      "getMcounterenCyShift()": {
        "notice": "< interrupt flag"
      }
    },
    "notice": "Defines getters for important constants",
    "version": 1
  }
}