{
  "contractName": "ShadowAddresses",
  "sourceName": "contracts/ShadowAddresses.sol",
  "abi": [
    {
      "inputs": [],
      "name": "getIflags",
      "outputs": [
        {
          "internalType": "uint64",
          "name": "",
          "type": "uint64"
        }
      ],
      "stateMutability": "pure",
      "type": "function"
    },
    {
      "inputs": [],
      "name": "getIlrsc",
      "outputs": [
        {
          "internalType": "uint64",
          "name": "",
          "type": "uint64"
        }
      ],
      "stateMutability": "pure",
      "type": "function"
    },
    {
      "inputs": [],
      "name": "getMarchid",
      "outputs": [
        {
          "internalType": "uint64",
          "name": "",
          "type": "uint64"
        }
      ],
      "stateMutability": "pure",
      "type": "function"
    },
    {
      "inputs": [],
      "name": "getMcause",
      "outputs": [
        {
          "internalType": "uint64",
          "name": "",
          "type": "uint64"
        }
      ],
      "stateMutability": "pure",
      "type": "function"
    },
    {
      "inputs": [],
      "name": "getMcounteren",
      "outputs": [
        {
          "internalType": "uint64",
          "name": "",
          "type": "uint64"
        }
      ],
      "stateMutability": "pure",
      "type": "function"
    },
    {
      "inputs": [],
      "name": "getMcycle",
      "outputs": [
        {
          "internalType": "uint64",
          "name": "",
          "type": "uint64"
        }
      ],
      "stateMutability": "pure",
      "type": "function"
    },
    {
      "inputs": [],
      "name": "getMedeleg",
      "outputs": [
        {
          "internalType": "uint64",
          "name": "",
          "type": "uint64"
        }
      ],
      "stateMutability": "pure",
      "type": "function"
    },
    {
      "inputs": [],
      "name": "getMepc",
      "outputs": [
        {
          "internalType": "uint64",
          "name": "",
          "type": "uint64"
        }
      ],
      "stateMutability": "pure",
      "type": "function"
    },
    {
      "inputs": [],
      "name": "getMideleg",
      "outputs": [
        {
          "internalType": "uint64",
          "name": "",
          "type": "uint64"
        }
      ],
      "stateMutability": "pure",
      "type": "function"
    },
    {
      "inputs": [],
      "name": "getMie",
      "outputs": [
        {
          "internalType": "uint64",
          "name": "",
          "type": "uint64"
        }
      ],
      "stateMutability": "pure",
      "type": "function"
    },
    {
      "inputs": [],
      "name": "getMimpid",
      "outputs": [
        {
          "internalType": "uint64",
          "name": "",
          "type": "uint64"
        }
      ],
      "stateMutability": "pure",
      "type": "function"
    },
    {
      "inputs": [],
      "name": "getMinstret",
      "outputs": [
        {
          "internalType": "uint64",
          "name": "",
          "type": "uint64"
        }
      ],
      "stateMutability": "pure",
      "type": "function"
    },
    {
      "inputs": [],
      "name": "getMip",
      "outputs": [
        {
          "internalType": "uint64",
          "name": "",
          "type": "uint64"
        }
      ],
      "stateMutability": "pure",
      "type": "function"
    },
    {
      "inputs": [],
      "name": "getMisa",
      "outputs": [
        {
          "internalType": "uint64",
          "name": "",
          "type": "uint64"
        }
      ],
      "stateMutability": "pure",
      "type": "function"
    },
    {
      "inputs": [],
      "name": "getMscratch",
      "outputs": [
        {
          "internalType": "uint64",
          "name": "",
          "type": "uint64"
        }
      ],
      "stateMutability": "pure",
      "type": "function"
    },
    {
      "inputs": [],
      "name": "getMstatus",
      "outputs": [
        {
          "internalType": "uint64",
          "name": "",
          "type": "uint64"
        }
      ],
      "stateMutability": "pure",
      "type": "function"
    },
    {
      "inputs": [],
      "name": "getMtval",
      "outputs": [
        {
          "internalType": "uint64",
          "name": "",
          "type": "uint64"
        }
      ],
      "stateMutability": "pure",
      "type": "function"
    },
    {
      "inputs": [],
      "name": "getMtvec",
      "outputs": [
        {
          "internalType": "uint64",
          "name": "",
          "type": "uint64"
        }
      ],
      "stateMutability": "pure",
      "type": "function"
    },
    {
      "inputs": [],
      "name": "getMvendorid",
      "outputs": [
        {
          "internalType": "uint64",
          "name": "",
          "type": "uint64"
        }
      ],
      "stateMutability": "pure",
      "type": "function"
    },
    {
      "inputs": [],
      "name": "getPc",
      "outputs": [
        {
          "internalType": "uint64",
          "name": "",
          "type": "uint64"
        }
      ],
      "stateMutability": "pure",
      "type": "function"
    },
    {
      "inputs": [],
      "name": "getSatp",
      "outputs": [
        {
          "internalType": "uint64",
          "name": "",
          "type": "uint64"
        }
      ],
      "stateMutability": "pure",
      "type": "function"
    },
    {
      "inputs": [],
      "name": "getScause",
      "outputs": [
        {
          "internalType": "uint64",
          "name": "",
          "type": "uint64"
        }
      ],
      "stateMutability": "pure",
      "type": "function"
    },
    {
      "inputs": [],
      "name": "getScounteren",
      "outputs": [
        {
          "internalType": "uint64",
          "name": "",
          "type": "uint64"
        }
      ],
      "stateMutability": "pure",
      "type": "function"
    },
    {
      "inputs": [],
      "name": "getSepc",
      "outputs": [
        {
          "internalType": "uint64",
          "name": "",
          "type": "uint64"
        }
      ],
      "stateMutability": "pure",
      "type": "function"
    },
    {
      "inputs": [],
      "name": "getSscratch",
      "outputs": [
        {
          "internalType": "uint64",
          "name": "",
          "type": "uint64"
        }
      ],
      "stateMutability": "pure",
      "type": "function"
    },
    {
      "inputs": [],
      "name": "getStval",
      "outputs": [
        {
          "internalType": "uint64",
          "name": "",
          "type": "uint64"
        }
      ],
      "stateMutability": "pure",
      "type": "function"
    },
    {
      "inputs": [],
      "name": "getStvec",
      "outputs": [
        {
          "internalType": "uint64",
          "name": "",
          "type": "uint64"
        }
      ],
      "stateMutability": "pure",
      "type": "function"
    }
  ],
  "bytecode": "0x610385610026600b82828239805160001a60731461001957fe5b30600052607381538281f3fe73000000000000000000000000000000000000000030146080604052600436106101b35760003560e01c8063929127db11610103578063ca04595a116100a1578063da3e8d7b1161007b578063da3e8d7b1461028d578063e2e2e71214610295578063e59cb5741461029d578063e80d1751146102a5576101b3565b8063ca04595a14610275578063d124bd131461027d578063d41a5b5914610285576101b3565b80639ff9932b116100dd5780639ff9932b14610255578063a43e290f1461025d578063b255e9e414610265578063c585eede1461026d576101b3565b8063929127db1461023d57806392f5aa22146102455780639a59734c1461024d576101b3565b80634a4c3510116101705780637047f4df1161014a5780637047f4df1461021d57806372eb67d014610225578063734b96001461022d5780638fd6b7c414610235576101b3565b80634a4c351014610205578063520aff6c1461020d5780636630ad8714610215576101b3565b806329301cac146101b85780632935b8ce146101dd5780632ffdabc5146101e557806342db3667146101ed578063443fd598146101f557806345827f69146101fd575b600080fd5b6101c06102ad565b6040805167ffffffffffffffff9092168252519081900360200190f35b6101c06102b3565b6101c06102b9565b6101c06102bf565b6101c06102c5565b6101c06102cb565b6101c06102d1565b6101c06102d7565b6101c06102dd565b6101c06102e3565b6101c06102e9565b6101c06102ef565b6101c06102f5565b6101c06102fb565b6101c0610301565b6101c0610307565b6101c061030d565b6101c0610313565b6101c0610319565b6101c061031f565b6101c0610325565b6101c061032b565b6101c0610331565b6101c0610337565b6101c061033d565b6101c0610343565b6101c0610349565b6101b090565b61018090565b6101d090565b61013090565b6101b890565b6101a890565b61016090565b61017090565b61019090565b61015090565b61012890565b6101a090565b61013890565b61011890565b61010890565b61014090565b61019890565b61012090565b6101c090565b61011090565b61014890565b61018890565b61010090565b61015890565b6101c890565b61017890565b6101689056fea2646970667358221220c2645a6c0067eeb44cca824c64fdfbd38ee7978a544a8881a9547c7780c26f6564736f6c63430007040033",
  "linkReferences": {},
  "deployedLinkReferences": {},
  "devdoc": {
    "author": "Felipe Argento",
    "details": "Defined on Cartesi techpaper version 1.02 - Section 3 - table 2  Source: https://cartesi.io/cartesi_whitepaper.pdf ",
    "kind": "dev",
    "methods": {},
    "title": "ShadowAddresses",
    "version": 1
  },
  "evm": {
    "bytecode": {
      "linkReferences": {},
      "opcodes": "PUSH2 0x385 PUSH2 0x26 PUSH1 0xB DUP3 DUP3 DUP3 CODECOPY DUP1 MLOAD PUSH1 0x0 BYTE PUSH1 0x73 EQ PUSH2 0x19 JUMPI INVALID JUMPDEST ADDRESS PUSH1 0x0 MSTORE PUSH1 0x73 DUP2 MSTORE8 DUP3 DUP2 RETURN INVALID PUSH20 0x0 ADDRESS EQ PUSH1 0x80 PUSH1 0x40 MSTORE PUSH1 0x4 CALLDATASIZE LT PUSH2 0x1B3 JUMPI PUSH1 0x0 CALLDATALOAD PUSH1 0xE0 SHR DUP1 PUSH4 0x929127DB GT PUSH2 0x103 JUMPI DUP1 PUSH4 0xCA04595A GT PUSH2 0xA1 JUMPI DUP1 PUSH4 0xDA3E8D7B GT PUSH2 0x7B JUMPI DUP1 PUSH4 0xDA3E8D7B EQ PUSH2 0x28D JUMPI DUP1 PUSH4 0xE2E2E712 EQ PUSH2 0x295 JUMPI DUP1 PUSH4 0xE59CB574 EQ PUSH2 0x29D JUMPI DUP1 PUSH4 0xE80D1751 EQ PUSH2 0x2A5 JUMPI PUSH2 0x1B3 JUMP JUMPDEST DUP1 PUSH4 0xCA04595A EQ PUSH2 0x275 JUMPI DUP1 PUSH4 0xD124BD13 EQ PUSH2 0x27D JUMPI DUP1 PUSH4 0xD41A5B59 EQ PUSH2 0x285 JUMPI PUSH2 0x1B3 JUMP JUMPDEST DUP1 PUSH4 0x9FF9932B GT PUSH2 0xDD JUMPI DUP1 PUSH4 0x9FF9932B EQ PUSH2 0x255 JUMPI DUP1 PUSH4 0xA43E290F EQ PUSH2 0x25D JUMPI DUP1 PUSH4 0xB255E9E4 EQ PUSH2 0x265 JUMPI DUP1 PUSH4 0xC585EEDE EQ PUSH2 0x26D JUMPI PUSH2 0x1B3 JUMP JUMPDEST DUP1 PUSH4 0x929127DB EQ PUSH2 0x23D JUMPI DUP1 PUSH4 0x92F5AA22 EQ PUSH2 0x245 JUMPI DUP1 PUSH4 0x9A59734C EQ PUSH2 0x24D JUMPI PUSH2 0x1B3 JUMP JUMPDEST DUP1 PUSH4 0x4A4C3510 GT PUSH2 0x170 JUMPI DUP1 PUSH4 0x7047F4DF GT PUSH2 0x14A JUMPI DUP1 PUSH4 0x7047F4DF EQ PUSH2 0x21D JUMPI DUP1 PUSH4 0x72EB67D0 EQ PUSH2 0x225 JUMPI DUP1 PUSH4 0x734B9600 EQ PUSH2 0x22D JUMPI DUP1 PUSH4 0x8FD6B7C4 EQ PUSH2 0x235 JUMPI PUSH2 0x1B3 JUMP JUMPDEST DUP1 PUSH4 0x4A4C3510 EQ PUSH2 0x205 JUMPI DUP1 PUSH4 0x520AFF6C EQ PUSH2 0x20D JUMPI DUP1 PUSH4 0x6630AD87 EQ PUSH2 0x215 JUMPI PUSH2 0x1B3 JUMP JUMPDEST DUP1 PUSH4 0x29301CAC EQ PUSH2 0x1B8 JUMPI DUP1 PUSH4 0x2935B8CE EQ PUSH2 0x1DD JUMPI DUP1 PUSH4 0x2FFDABC5 EQ PUSH2 0x1E5 JUMPI DUP1 PUSH4 0x42DB3667 EQ PUSH2 0x1ED JUMPI DUP1 PUSH4 0x443FD598 EQ PUSH2 0x1F5 JUMPI DUP1 PUSH4 0x45827F69 EQ PUSH2 0x1FD JUMPI JUMPDEST PUSH1 0x0 DUP1 REVERT JUMPDEST PUSH2 0x1C0 PUSH2 0x2AD JUMP JUMPDEST PUSH1 0x40 DUP1 MLOAD PUSH8 0xFFFFFFFFFFFFFFFF SWAP1 SWAP3 AND DUP3 MSTORE MLOAD SWAP1 DUP2 SWAP1 SUB PUSH1 0x20 ADD SWAP1 RETURN JUMPDEST PUSH2 0x1C0 PUSH2 0x2B3 JUMP JUMPDEST PUSH2 0x1C0 PUSH2 0x2B9 JUMP JUMPDEST PUSH2 0x1C0 PUSH2 0x2BF JUMP JUMPDEST PUSH2 0x1C0 PUSH2 0x2C5 JUMP JUMPDEST PUSH2 0x1C0 PUSH2 0x2CB JUMP JUMPDEST PUSH2 0x1C0 PUSH2 0x2D1 JUMP JUMPDEST PUSH2 0x1C0 PUSH2 0x2D7 JUMP JUMPDEST PUSH2 0x1C0 PUSH2 0x2DD JUMP JUMPDEST PUSH2 0x1C0 PUSH2 0x2E3 JUMP JUMPDEST PUSH2 0x1C0 PUSH2 0x2E9 JUMP JUMPDEST PUSH2 0x1C0 PUSH2 0x2EF JUMP JUMPDEST PUSH2 0x1C0 PUSH2 0x2F5 JUMP JUMPDEST PUSH2 0x1C0 PUSH2 0x2FB JUMP JUMPDEST PUSH2 0x1C0 PUSH2 0x301 JUMP JUMPDEST PUSH2 0x1C0 PUSH2 0x307 JUMP JUMPDEST PUSH2 0x1C0 PUSH2 0x30D JUMP JUMPDEST PUSH2 0x1C0 PUSH2 0x313 JUMP JUMPDEST PUSH2 0x1C0 PUSH2 0x319 JUMP JUMPDEST PUSH2 0x1C0 PUSH2 0x31F JUMP JUMPDEST PUSH2 0x1C0 PUSH2 0x325 JUMP JUMPDEST PUSH2 0x1C0 PUSH2 0x32B JUMP JUMPDEST PUSH2 0x1C0 PUSH2 0x331 JUMP JUMPDEST PUSH2 0x1C0 PUSH2 0x337 JUMP JUMPDEST PUSH2 0x1C0 PUSH2 0x33D JUMP JUMPDEST PUSH2 0x1C0 PUSH2 0x343 JUMP JUMPDEST PUSH2 0x1C0 PUSH2 0x349 JUMP JUMPDEST PUSH2 0x1B0 SWAP1 JUMP JUMPDEST PUSH2 0x180 SWAP1 JUMP JUMPDEST PUSH2 0x1D0 SWAP1 JUMP JUMPDEST PUSH2 0x130 SWAP1 JUMP JUMPDEST PUSH2 0x1B8 SWAP1 JUMP JUMPDEST PUSH2 0x1A8 SWAP1 JUMP JUMPDEST PUSH2 0x160 SWAP1 JUMP JUMPDEST PUSH2 0x170 SWAP1 JUMP JUMPDEST PUSH2 0x190 SWAP1 JUMP JUMPDEST PUSH2 0x150 SWAP1 JUMP JUMPDEST PUSH2 0x128 SWAP1 JUMP JUMPDEST PUSH2 0x1A0 SWAP1 JUMP JUMPDEST PUSH2 0x138 SWAP1 JUMP JUMPDEST PUSH2 0x118 SWAP1 JUMP JUMPDEST PUSH2 0x108 SWAP1 JUMP JUMPDEST PUSH2 0x140 SWAP1 JUMP JUMPDEST PUSH2 0x198 SWAP1 JUMP JUMPDEST PUSH2 0x120 SWAP1 JUMP JUMPDEST PUSH2 0x1C0 SWAP1 JUMP JUMPDEST PUSH2 0x110 SWAP1 JUMP JUMPDEST PUSH2 0x148 SWAP1 JUMP JUMPDEST PUSH2 0x188 SWAP1 JUMP JUMPDEST PUSH2 0x100 SWAP1 JUMP JUMPDEST PUSH2 0x158 SWAP1 JUMP JUMPDEST PUSH2 0x1C8 SWAP1 JUMP JUMPDEST PUSH2 0x178 SWAP1 JUMP JUMPDEST PUSH2 0x168 SWAP1 JUMP INVALID LOG2 PUSH5 0x6970667358 0x22 SLT KECCAK256 0xC2 PUSH5 0x5A6C0067EE 0xB4 0x4C 0xCA DUP3 0x4C PUSH5 0xFDFBD38EE7 SWAP8 DUP11 SLOAD 0x4A DUP9 DUP2 0xA9 SLOAD PUSH29 0x7780C26F6564736F6C6343000704003300000000000000000000000000 "
    },
    "gasEstimates": {
      "creation": {
        "codeDepositCost": "180200",
        "executionCost": "251",
        "totalCost": "180451"
      },
      "external": {
        "getIflags()": "259",
        "getIlrsc()": "257",
        "getMarchid()": "302",
        "getMcause()": "236",
        "getMcounteren()": "258",
        "getMcycle()": "258",
        "getMedeleg()": "279",
        "getMepc()": "236",
        "getMideleg()": "237",
        "getMie()": "301",
        "getMimpid()": "237",
        "getMinstret()": "258",
        "getMip()": "259",
        "getMisa()": "237",
        "getMscratch()": "281",
        "getMstatus()": "281",
        "getMtval()": "235",
        "getMtvec()": "302",
        "getMvendorid()": "259",
        "getPc()": "280",
        "getSatp()": "303",
        "getScause()": "325",
        "getScounteren()": "280",
        "getSepc()": "280",
        "getSscratch()": "236",
        "getStval()": "215",
        "getStvec()": "281"
      }
    },
    "methodIdentifiers": {
      "getIflags()": "2ffdabc5",
      "getIlrsc()": "e2e2e712",
      "getMarchid()": "c585eede",
      "getMcause()": "7047f4df",
      "getMcounteren()": "d124bd13",
      "getMcycle()": "a43e290f",
      "getMedeleg()": "e59cb574",
      "getMepc()": "ca04595a",
      "getMideleg()": "2935b8ce",
      "getMie()": "e80d1751",
      "getMimpid()": "929127db",
      "getMinstret()": "72eb67d0",
      "getMip()": "520aff6c",
      "getMisa()": "4a4c3510",
      "getMscratch()": "9a59734c",
      "getMstatus()": "42db3667",
      "getMtval()": "da3e8d7b",
      "getMtvec()": "8fd6b7c4",
      "getMvendorid()": "92f5aa22",
      "getPc()": "d41a5b59",
      "getSatp()": "443fd598",
      "getScause()": "45827f69",
      "getScounteren()": "b255e9e4",
      "getSepc()": "734b9600",
      "getSscratch()": "9ff9932b",
      "getStval()": "29301cac",
      "getStvec()": "6630ad87"
    }
  },
  "storageLayout": {
    "storage": [],
    "types": null
  },
  "userdoc": {
    "kind": "user",
    "methods": {},
    "notice": "Defines the processor state. Memory-mapped to the lowest 512 bytes in pm",
    "version": 1
  }
}