{
  "contractName": "TestMemoryInteractor",
  "sourceName": "contracts/TestMemoryInteractor.sol",
  "abi": [
    {
      "anonymous": false,
      "inputs": [
        {
          "indexed": false,
          "internalType": "uint256",
          "name": "_index",
          "type": "uint256"
        },
        {
          "indexed": false,
          "internalType": "uint64",
          "name": "_exitCode",
          "type": "uint64"
        },
        {
          "indexed": false,
          "internalType": "bool",
          "name": "_halt",
          "type": "bool"
        }
      ],
      "name": "HTIFExit",
      "type": "event"
    },
    {
      "inputs": [
        {
          "internalType": "uint64",
          "name": "_writeAddress",
          "type": "uint64"
        },
        {
          "internalType": "bytes8",
          "name": "_value",
          "type": "bytes8"
        }
      ],
      "name": "externalPureMemoryWrite",
      "outputs": [],
      "stateMutability": "nonpayable",
      "type": "function"
    },
    {
      "inputs": [],
      "name": "getRWIndex",
      "outputs": [
        {
          "internalType": "uint256",
          "name": "",
          "type": "uint256"
        }
      ],
      "stateMutability": "view",
      "type": "function"
    },
    {
      "inputs": [],
      "name": "htifExit",
      "outputs": [
        {
          "internalType": "uint64",
          "name": "",
          "type": "uint64"
        }
      ],
      "stateMutability": "nonpayable",
      "type": "function"
    },
    {
      "inputs": [
        {
          "internalType": "uint64[]",
          "name": "_rwPositions",
          "type": "uint64[]"
        },
        {
          "internalType": "bytes8[]",
          "name": "_rwValues",
          "type": "bytes8[]"
        },
        {
          "internalType": "bool[]",
          "name": "_isRead",
          "type": "bool[]"
        }
      ],
      "name": "initializeMemory",
      "outputs": [],
      "stateMutability": "nonpayable",
      "type": "function"
    },
    {
      "inputs": [
        {
          "internalType": "uint64",
          "name": "_readAddress",
          "type": "uint64"
        }
      ],
      "name": "memoryRead",
      "outputs": [
        {
          "internalType": "uint64",
          "name": "",
          "type": "uint64"
        }
      ],
      "stateMutability": "nonpayable",
      "type": "function"
    },
    {
      "inputs": [
        {
          "internalType": "uint64",
          "name": "_writeAddress",
          "type": "uint64"
        },
        {
          "internalType": "uint64",
          "name": "_value",
          "type": "uint64"
        }
      ],
      "name": "memoryWrite",
      "outputs": [],
      "stateMutability": "nonpayable",
      "type": "function"
    },
    {
      "inputs": [],
      "name": "readClintMtimecmp",
      "outputs": [
        {
          "internalType": "uint64",
          "name": "",
          "type": "uint64"
        }
      ],
      "stateMutability": "nonpayable",
      "type": "function"
    },
    {
      "inputs": [],
      "name": "readHtifFromhost",
      "outputs": [
        {
          "internalType": "uint64",
          "name": "",
          "type": "uint64"
        }
      ],
      "stateMutability": "nonpayable",
      "type": "function"
    },
    {
      "inputs": [],
      "name": "readHtifIYield",
      "outputs": [
        {
          "internalType": "uint64",
          "name": "",
          "type": "uint64"
        }
      ],
      "stateMutability": "nonpayable",
      "type": "function"
    },
    {
      "inputs": [],
      "name": "readHtifTohost",
      "outputs": [
        {
          "internalType": "uint64",
          "name": "",
          "type": "uint64"
        }
      ],
      "stateMutability": "nonpayable",
      "type": "function"
    },
    {
      "inputs": [],
      "name": "readIflags",
      "outputs": [
        {
          "internalType": "uint64",
          "name": "",
          "type": "uint64"
        }
      ],
      "stateMutability": "nonpayable",
      "type": "function"
    },
    {
      "inputs": [],
      "name": "readIflagsH",
      "outputs": [
        {
          "internalType": "uint64",
          "name": "",
          "type": "uint64"
        }
      ],
      "stateMutability": "nonpayable",
      "type": "function"
    },
    {
      "inputs": [],
      "name": "readIflagsPrv",
      "outputs": [
        {
          "internalType": "uint64",
          "name": "",
          "type": "uint64"
        }
      ],
      "stateMutability": "nonpayable",
      "type": "function"
    },
    {
      "inputs": [],
      "name": "readIflagsX",
      "outputs": [
        {
          "internalType": "uint64",
          "name": "",
          "type": "uint64"
        }
      ],
      "stateMutability": "nonpayable",
      "type": "function"
    },
    {
      "inputs": [],
      "name": "readIflagsY",
      "outputs": [
        {
          "internalType": "uint64",
          "name": "",
          "type": "uint64"
        }
      ],
      "stateMutability": "nonpayable",
      "type": "function"
    },
    {
      "inputs": [],
      "name": "readIlrsc",
      "outputs": [
        {
          "internalType": "uint64",
          "name": "",
          "type": "uint64"
        }
      ],
      "stateMutability": "nonpayable",
      "type": "function"
    },
    {
      "inputs": [],
      "name": "readMarchid",
      "outputs": [
        {
          "internalType": "uint64",
          "name": "",
          "type": "uint64"
        }
      ],
      "stateMutability": "nonpayable",
      "type": "function"
    },
    {
      "inputs": [],
      "name": "readMcause",
      "outputs": [
        {
          "internalType": "uint64",
          "name": "",
          "type": "uint64"
        }
      ],
      "stateMutability": "nonpayable",
      "type": "function"
    },
    {
      "inputs": [],
      "name": "readMcounteren",
      "outputs": [
        {
          "internalType": "uint64",
          "name": "",
          "type": "uint64"
        }
      ],
      "stateMutability": "nonpayable",
      "type": "function"
    },
    {
      "inputs": [],
      "name": "readMcycle",
      "outputs": [
        {
          "internalType": "uint64",
          "name": "",
          "type": "uint64"
        }
      ],
      "stateMutability": "nonpayable",
      "type": "function"
    },
    {
      "inputs": [],
      "name": "readMedeleg",
      "outputs": [
        {
          "internalType": "uint64",
          "name": "",
          "type": "uint64"
        }
      ],
      "stateMutability": "nonpayable",
      "type": "function"
    },
    {
      "inputs": [
        {
          "internalType": "uint64",
          "name": "paddr",
          "type": "uint64"
        },
        {
          "internalType": "uint64",
          "name": "wordSize",
          "type": "uint64"
        }
      ],
      "name": "readMemory",
      "outputs": [
        {
          "internalType": "uint64",
          "name": "",
          "type": "uint64"
        }
      ],
      "stateMutability": "nonpayable",
      "type": "function"
    },
    {
      "inputs": [],
      "name": "readMepc",
      "outputs": [
        {
          "internalType": "uint64",
          "name": "",
          "type": "uint64"
        }
      ],
      "stateMutability": "nonpayable",
      "type": "function"
    },
    {
      "inputs": [],
      "name": "readMideleg",
      "outputs": [
        {
          "internalType": "uint64",
          "name": "",
          "type": "uint64"
        }
      ],
      "stateMutability": "nonpayable",
      "type": "function"
    },
    {
      "inputs": [],
      "name": "readMie",
      "outputs": [
        {
          "internalType": "uint64",
          "name": "",
          "type": "uint64"
        }
      ],
      "stateMutability": "nonpayable",
      "type": "function"
    },
    {
      "inputs": [],
      "name": "readMimpid",
      "outputs": [
        {
          "internalType": "uint64",
          "name": "",
          "type": "uint64"
        }
      ],
      "stateMutability": "nonpayable",
      "type": "function"
    },
    {
      "inputs": [],
      "name": "readMinstret",
      "outputs": [
        {
          "internalType": "uint64",
          "name": "",
          "type": "uint64"
        }
      ],
      "stateMutability": "nonpayable",
      "type": "function"
    },
    {
      "inputs": [],
      "name": "readMip",
      "outputs": [
        {
          "internalType": "uint64",
          "name": "",
          "type": "uint64"
        }
      ],
      "stateMutability": "nonpayable",
      "type": "function"
    },
    {
      "inputs": [],
      "name": "readMisa",
      "outputs": [
        {
          "internalType": "uint64",
          "name": "",
          "type": "uint64"
        }
      ],
      "stateMutability": "nonpayable",
      "type": "function"
    },
    {
      "inputs": [],
      "name": "readMscratch",
      "outputs": [
        {
          "internalType": "uint64",
          "name": "",
          "type": "uint64"
        }
      ],
      "stateMutability": "nonpayable",
      "type": "function"
    },
    {
      "inputs": [],
      "name": "readMstatus",
      "outputs": [
        {
          "internalType": "uint64",
          "name": "",
          "type": "uint64"
        }
      ],
      "stateMutability": "nonpayable",
      "type": "function"
    },
    {
      "inputs": [],
      "name": "readMtval",
      "outputs": [
        {
          "internalType": "uint64",
          "name": "",
          "type": "uint64"
        }
      ],
      "stateMutability": "nonpayable",
      "type": "function"
    },
    {
      "inputs": [],
      "name": "readMtvec",
      "outputs": [
        {
          "internalType": "uint64",
          "name": "",
          "type": "uint64"
        }
      ],
      "stateMutability": "nonpayable",
      "type": "function"
    },
    {
      "inputs": [],
      "name": "readMvendorid",
      "outputs": [
        {
          "internalType": "uint64",
          "name": "",
          "type": "uint64"
        }
      ],
      "stateMutability": "nonpayable",
      "type": "function"
    },
    {
      "inputs": [],
      "name": "readPc",
      "outputs": [
        {
          "internalType": "uint64",
          "name": "",
          "type": "uint64"
        }
      ],
      "stateMutability": "nonpayable",
      "type": "function"
    },
    {
      "inputs": [],
      "name": "readSatp",
      "outputs": [
        {
          "internalType": "uint64",
          "name": "",
          "type": "uint64"
        }
      ],
      "stateMutability": "nonpayable",
      "type": "function"
    },
    {
      "inputs": [],
      "name": "readScause",
      "outputs": [
        {
          "internalType": "uint64",
          "name": "",
          "type": "uint64"
        }
      ],
      "stateMutability": "nonpayable",
      "type": "function"
    },
    {
      "inputs": [],
      "name": "readScounteren",
      "outputs": [
        {
          "internalType": "uint64",
          "name": "",
          "type": "uint64"
        }
      ],
      "stateMutability": "nonpayable",
      "type": "function"
    },
    {
      "inputs": [],
      "name": "readSepc",
      "outputs": [
        {
          "internalType": "uint64",
          "name": "",
          "type": "uint64"
        }
      ],
      "stateMutability": "nonpayable",
      "type": "function"
    },
    {
      "inputs": [],
      "name": "readSscratch",
      "outputs": [
        {
          "internalType": "uint64",
          "name": "",
          "type": "uint64"
        }
      ],
      "stateMutability": "nonpayable",
      "type": "function"
    },
    {
      "inputs": [],
      "name": "readStval",
      "outputs": [
        {
          "internalType": "uint64",
          "name": "",
          "type": "uint64"
        }
      ],
      "stateMutability": "nonpayable",
      "type": "function"
    },
    {
      "inputs": [],
      "name": "readStvec",
      "outputs": [
        {
          "internalType": "uint64",
          "name": "",
          "type": "uint64"
        }
      ],
      "stateMutability": "nonpayable",
      "type": "function"
    },
    {
      "inputs": [
        {
          "internalType": "uint64",
          "name": "registerIndex",
          "type": "uint64"
        }
      ],
      "name": "readX",
      "outputs": [
        {
          "internalType": "uint64",
          "name": "",
          "type": "uint64"
        }
      ],
      "stateMutability": "nonpayable",
      "type": "function"
    },
    {
      "inputs": [
        {
          "internalType": "uint64",
          "name": "mask",
          "type": "uint64"
        }
      ],
      "name": "resetMip",
      "outputs": [],
      "stateMutability": "nonpayable",
      "type": "function"
    },
    {
      "inputs": [
        {
          "internalType": "bool",
          "name": "halt",
          "type": "bool"
        }
      ],
      "name": "setIflagsH",
      "outputs": [],
      "stateMutability": "nonpayable",
      "type": "function"
    },
    {
      "inputs": [
        {
          "internalType": "bool",
          "name": "isAutomaticYield",
          "type": "bool"
        }
      ],
      "name": "setIflagsX",
      "outputs": [],
      "stateMutability": "nonpayable",
      "type": "function"
    },
    {
      "inputs": [
        {
          "internalType": "bool",
          "name": "isManualYield",
          "type": "bool"
        }
      ],
      "name": "setIflagsY",
      "outputs": [],
      "stateMutability": "nonpayable",
      "type": "function"
    },
    {
      "inputs": [
        {
          "internalType": "uint64",
          "name": "mask",
          "type": "uint64"
        }
      ],
      "name": "setMip",
      "outputs": [],
      "stateMutability": "nonpayable",
      "type": "function"
    },
    {
      "inputs": [
        {
          "internalType": "uint64",
          "name": "newPriv",
          "type": "uint64"
        }
      ],
      "name": "setPriv",
      "outputs": [],
      "stateMutability": "nonpayable",
      "type": "function"
    },
    {
      "inputs": [
        {
          "internalType": "uint64",
          "name": "value",
          "type": "uint64"
        }
      ],
      "name": "writeClintMtimecmp",
      "outputs": [],
      "stateMutability": "nonpayable",
      "type": "function"
    },
    {
      "inputs": [
        {
          "internalType": "uint64",
          "name": "value",
          "type": "uint64"
        }
      ],
      "name": "writeHtifFromhost",
      "outputs": [],
      "stateMutability": "nonpayable",
      "type": "function"
    },
    {
      "inputs": [
        {
          "internalType": "uint64",
          "name": "value",
          "type": "uint64"
        }
      ],
      "name": "writeHtifTohost",
      "outputs": [],
      "stateMutability": "nonpayable",
      "type": "function"
    },
    {
      "inputs": [
        {
          "internalType": "uint64",
          "name": "newPriv",
          "type": "uint64"
        }
      ],
      "name": "writeIflagsPrv",
      "outputs": [],
      "stateMutability": "nonpayable",
      "type": "function"
    },
    {
      "inputs": [
        {
          "internalType": "uint64",
          "name": "value",
          "type": "uint64"
        }
      ],
      "name": "writeIlrsc",
      "outputs": [],
      "stateMutability": "nonpayable",
      "type": "function"
    },
    {
      "inputs": [
        {
          "internalType": "uint64",
          "name": "value",
          "type": "uint64"
        }
      ],
      "name": "writeMcause",
      "outputs": [],
      "stateMutability": "nonpayable",
      "type": "function"
    },
    {
      "inputs": [
        {
          "internalType": "uint64",
          "name": "value",
          "type": "uint64"
        }
      ],
      "name": "writeMcounteren",
      "outputs": [],
      "stateMutability": "nonpayable",
      "type": "function"
    },
    {
      "inputs": [
        {
          "internalType": "uint64",
          "name": "value",
          "type": "uint64"
        }
      ],
      "name": "writeMcycle",
      "outputs": [],
      "stateMutability": "nonpayable",
      "type": "function"
    },
    {
      "inputs": [
        {
          "internalType": "uint64",
          "name": "value",
          "type": "uint64"
        }
      ],
      "name": "writeMedeleg",
      "outputs": [],
      "stateMutability": "nonpayable",
      "type": "function"
    },
    {
      "inputs": [
        {
          "internalType": "uint64",
          "name": "paddr",
          "type": "uint64"
        },
        {
          "internalType": "uint64",
          "name": "value",
          "type": "uint64"
        },
        {
          "internalType": "uint64",
          "name": "wordSize",
          "type": "uint64"
        }
      ],
      "name": "writeMemory",
      "outputs": [],
      "stateMutability": "nonpayable",
      "type": "function"
    },
    {
      "inputs": [
        {
          "internalType": "uint64",
          "name": "value",
          "type": "uint64"
        }
      ],
      "name": "writeMepc",
      "outputs": [],
      "stateMutability": "nonpayable",
      "type": "function"
    },
    {
      "inputs": [
        {
          "internalType": "uint64",
          "name": "value",
          "type": "uint64"
        }
      ],
      "name": "writeMideleg",
      "outputs": [],
      "stateMutability": "nonpayable",
      "type": "function"
    },
    {
      "inputs": [
        {
          "internalType": "uint64",
          "name": "value",
          "type": "uint64"
        }
      ],
      "name": "writeMie",
      "outputs": [],
      "stateMutability": "nonpayable",
      "type": "function"
    },
    {
      "inputs": [
        {
          "internalType": "uint64",
          "name": "value",
          "type": "uint64"
        }
      ],
      "name": "writeMinstret",
      "outputs": [],
      "stateMutability": "nonpayable",
      "type": "function"
    },
    {
      "inputs": [
        {
          "internalType": "uint64",
          "name": "value",
          "type": "uint64"
        }
      ],
      "name": "writeMip",
      "outputs": [],
      "stateMutability": "nonpayable",
      "type": "function"
    },
    {
      "inputs": [
        {
          "internalType": "uint64",
          "name": "value",
          "type": "uint64"
        }
      ],
      "name": "writeMscratch",
      "outputs": [],
      "stateMutability": "nonpayable",
      "type": "function"
    },
    {
      "inputs": [
        {
          "internalType": "uint64",
          "name": "value",
          "type": "uint64"
        }
      ],
      "name": "writeMstatus",
      "outputs": [],
      "stateMutability": "nonpayable",
      "type": "function"
    },
    {
      "inputs": [
        {
          "internalType": "uint64",
          "name": "value",
          "type": "uint64"
        }
      ],
      "name": "writeMtval",
      "outputs": [],
      "stateMutability": "nonpayable",
      "type": "function"
    },
    {
      "inputs": [
        {
          "internalType": "uint64",
          "name": "value",
          "type": "uint64"
        }
      ],
      "name": "writeMtvec",
      "outputs": [],
      "stateMutability": "nonpayable",
      "type": "function"
    },
    {
      "inputs": [
        {
          "internalType": "uint64",
          "name": "value",
          "type": "uint64"
        }
      ],
      "name": "writePc",
      "outputs": [],
      "stateMutability": "nonpayable",
      "type": "function"
    },
    {
      "inputs": [
        {
          "internalType": "uint64",
          "name": "value",
          "type": "uint64"
        }
      ],
      "name": "writeSatp",
      "outputs": [],
      "stateMutability": "nonpayable",
      "type": "function"
    },
    {
      "inputs": [
        {
          "internalType": "uint64",
          "name": "value",
          "type": "uint64"
        }
      ],
      "name": "writeScause",
      "outputs": [],
      "stateMutability": "nonpayable",
      "type": "function"
    },
    {
      "inputs": [
        {
          "internalType": "uint64",
          "name": "value",
          "type": "uint64"
        }
      ],
      "name": "writeScounteren",
      "outputs": [],
      "stateMutability": "nonpayable",
      "type": "function"
    },
    {
      "inputs": [
        {
          "internalType": "uint64",
          "name": "value",
          "type": "uint64"
        }
      ],
      "name": "writeSepc",
      "outputs": [],
      "stateMutability": "nonpayable",
      "type": "function"
    },
    {
      "inputs": [
        {
          "internalType": "uint64",
          "name": "value",
          "type": "uint64"
        }
      ],
      "name": "writeSscratch",
      "outputs": [],
      "stateMutability": "nonpayable",
      "type": "function"
    },
    {
      "inputs": [
        {
          "internalType": "uint64",
          "name": "value",
          "type": "uint64"
        }
      ],
      "name": "writeStval",
      "outputs": [],
      "stateMutability": "nonpayable",
      "type": "function"
    },
    {
      "inputs": [
        {
          "internalType": "uint64",
          "name": "value",
          "type": "uint64"
        }
      ],
      "name": "writeStvec",
      "outputs": [],
      "stateMutability": "nonpayable",
      "type": "function"
    },
    {
      "inputs": [
        {
          "internalType": "uint64",
          "name": "registerindex",
          "type": "uint64"
        },
        {
          "internalType": "uint64",
          "name": "value",
          "type": "uint64"
        }
      ],
      "name": "writeX",
      "outputs": [],
      "stateMutability": "nonpayable",
      "type": "function"
    }
  ],
  "bytecode": "0x608060405234801561001057600080fd5b50612cae806100206000396000f3fe608060405234801561001057600080fd5b506004361061045f5760003560e01c8063854dba401161024c578063b5b98ed411610146578063dd5c4a14116100c3578063f7ac913d11610087578063f7ac913d14610ca4578063f991158714610cac578063fa644af514610cd2578063fbdb975d14610cf8578063fd295abe14610d1e5761045f565b8063dd5c4a1414610c04578063f21d94f814610c2a578063f2cf6ceb14610c50578063f55c4d3814610c58578063f604edb814610c7e5761045f565b8063cecdae531161010a578063cecdae5314610ba0578063cf18743014610bc6578063d2be7b6d14610bce578063d40d17c514610bf4578063daded5c214610bfc5761045f565b8063b5b98ed414610b5a578063becdc10d14610b62578063c133b7ff14610b6a578063cbc446b114610b72578063cc92cbf714610b985761045f565b80639c872d02116101d4578063aaed4f0711610198578063aaed4f0714610ac1578063ab9779b714610ae7578063af63b2a814610b0d578063b2325aef14610b15578063b27ec92014610b3b5761045f565b80639c872d02146108c1578063a317ce9d146108e7578063a47594df146108ef578063a740dbc114610a9a578063a7458b9514610aa25761045f565b80638e32f35e1161021b5780638e32f35e146108555780639485871b14610883578063968644f01461088b5780639b7021ce146108935780639c7b005d1461089b5761045f565b8063854dba40146107f957806386099c541461080157806386676d4314610809578063893659091461082f5761045f565b806354749af31161035d5780636232e59c116102e55780636dc95c2e116102a95780636dc95c2e1461076f5780636f6c0e7d1461079d57806378c49574146107a557806378ddee75146107cb578063834aa4f6146107f15761045f565b80636232e59c146107295780636475e3421461074f578063650ca32b146107575780636a72b27d1461075f5780636cd24daf146107675761045f565b8063579078371161032c57806357907837146106a75780635af47ca7146106cd5780635dadd78a146106f35780635e5ca652146106fb5780635f824bf9146107215761045f565b806354749af31461061d578063568b2702146106435780635729e4a61461064b578063575832df146106815761045f565b806328520b30116103eb5780633a48bb56116103af5780633a48bb561461059a57806345057ed7146105b95780634ae9388b146105df57806350cec2d5146105e757806351bb3615146106155761045f565b806328520b301461053657806328751b361461053e5780632ca2bd16146105645780632e963a801461058a57806334970f18146105925761045f565b806311cf3a221161043257806311cf3a22146104f057806315dd9c06146104f857806318e504db1461051e5780631bf2f73d146105265780631e5e61901461052e5761045f565b8063080aa5d1146104645780630df3e2951461047e5780630f84c046146104a657806310d74c7d146104ca575b600080fd5b61046c610d56565b60408051918252519081900360200190f35b6104a46004803603602081101561049457600080fd5b50356001600160401b0316610d5c565b005b6104ae610dd8565b604080516001600160401b039092168252519081900360200190f35b6104a4600480360360208110156104e057600080fd5b50356001600160401b0316610e57565b6104ae610e9e565b6104a46004803603602081101561050e57600080fd5b50356001600160401b0316610ee7565b6104ae610f03565b6104ae610f4c565b6104ae610f95565b6104ae610fde565b6104a46004803603602081101561055457600080fd5b50356001600160401b0316611027565b6104a46004803603602081101561057a57600080fd5b50356001600160401b031661106e565b6104ae6110b5565b6104ae6110fe565b6104a4600480360360208110156105b057600080fd5b50351515611147565b6104a4600480360360208110156105cf57600080fd5b50356001600160401b0316611289565b6104ae6112a0565b6104ae600480360360408110156105fd57600080fd5b506001600160401b03813581169160200135166112e9565b6104ae61145f565b6104a46004803603602081101561063357600080fd5b50356001600160401b03166114a8565b6104ae6114bc565b6104a46004803603604081101561066157600080fd5b5080356001600160401b031690602001356001600160c01b031916611505565b6104a46004803603602081101561069757600080fd5b50356001600160401b031661153a565b6104a4600480360360208110156106bd57600080fd5b50356001600160401b0316611581565b6104a4600480360360208110156106e357600080fd5b50356001600160401b03166115c8565b6104ae61160f565b6104a46004803603602081101561071157600080fd5b50356001600160401b0316611658565b6104ae61169f565b6104ae6004803603602081101561073f57600080fd5b50356001600160401b03166116e8565b6104ae6116fc565b6104ae611745565b6104ae61178e565b6104ae6117d7565b6104a46004803603604081101561078557600080fd5b506001600160401b0381358116916020013516611820565b6104ae61182d565b6104a4600480360360208110156107bb57600080fd5b50356001600160401b0316611876565b6104a4600480360360208110156107e157600080fd5b50356001600160401b03166118bd565b6104ae611904565b6104ae61194d565b6104ae611996565b6104a46004803603602081101561081f57600080fd5b50356001600160401b0316611aec565b6104a46004803603602081101561084557600080fd5b50356001600160401b0316611b33565b6104a46004803603604081101561086b57600080fd5b506001600160401b0381358116916020013516611b7a565b6104ae611c35565b6104ae611c7e565b6104ae611d47565b6104a4600480360360208110156108b157600080fd5b50356001600160401b0316611d90565b6104a4600480360360208110156108d757600080fd5b50356001600160401b0316611dd7565b6104ae611e1e565b6104a46004803603606081101561090557600080fd5b81019060208101813564010000000081111561092057600080fd5b82018360208201111561093257600080fd5b8035906020019184602083028401116401000000008311171561095457600080fd5b91908080602002602001604051908101604052809392919081815260200183836020028082843760009201919091525092959493602081019350359150506401000000008111156109a457600080fd5b8201836020820111156109b657600080fd5b803590602001918460208302840111640100000000831117156109d857600080fd5b9190808060200260200160405190810160405280939291908181526020018383602002808284376000920191909152509295949360208101935035915050640100000000811115610a2857600080fd5b820183602082011115610a3a57600080fd5b80359060200191846020830284011164010000000083111715610a5c57600080fd5b919080806020026020016040519081016040528093929190818152602001838360200280828437600092019190915250929550611e67945050505050565b6104ae611e6c565b6104a460048036036020811015610ab857600080fd5b50351515611eb5565b6104a460048036036020811015610ad757600080fd5b50356001600160401b0316611f4f565b6104a460048036036020811015610afd57600080fd5b50356001600160401b0316611f96565b6104ae611fdd565b6104a460048036036020811015610b2b57600080fd5b50356001600160401b0316612026565b6104a460048036036020811015610b5157600080fd5b5035151561206d565b6104ae612107565b6104ae612150565b6104ae612199565b6104a460048036036020811015610b8857600080fd5b50356001600160401b03166121e2565b6104ae612229565b6104a460048036036020811015610bb657600080fd5b50356001600160401b0316612272565b6104ae6123d1565b6104a460048036036020811015610be457600080fd5b50356001600160401b03166124f4565b6104ae61253b565b6104ae612604565b6104a460048036036020811015610c1a57600080fd5b50356001600160401b031661264d565b6104a460048036036020811015610c4057600080fd5b50356001600160401b0316612694565b6104ae6126db565b6104a460048036036020811015610c6e57600080fd5b50356001600160401b0316612724565b6104a460048036036020811015610c9457600080fd5b50356001600160401b031661276b565b6104ae6127b2565b6104a460048036036020811015610cc257600080fd5b50356001600160401b031661287b565b6104ae60048036036020811015610ce857600080fd5b50356001600160401b03166128c2565b6104a460048036036020811015610d0e57600080fd5b50356001600160401b031661295b565b6104a460048036036060811015610d3457600080fd5b506001600160401b0381358116916020810135821691604090910135166129a2565b60005490565b610dd573__$edd6a44efa4a8bdf57aa57ccba2bcfbb1d$__639a59734c6040518163ffffffff1660e01b815260040160206040518083038186803b158015610da357600080fd5b505af4158015610db7573d6000803e3d6000fd5b505050506040513d6020811015610dcd57600080fd5b505182611b7a565b50565b6000610e5273__$edd6a44efa4a8bdf57aa57ccba2bcfbb1d$__636630ad876040518163ffffffff1660e01b815260040160206040518083038186803b158015610e2157600080fd5b505af4158015610e35573d6000803e3d6000fd5b505050506040513d6020811015610e4b57600080fd5b50516128c2565b905090565b610dd573__$edd6a44efa4a8bdf57aa57ccba2bcfbb1d$__6372eb67d06040518163ffffffff1660e01b815260040160206040518083038186803b158015610da357600080fd5b6000610e5273__$edd6a44efa4a8bdf57aa57ccba2bcfbb1d$__638fd6b7c46040518163ffffffff1660e01b815260040160206040518083038186803b158015610e2157600080fd5b6000610ef1611e1e565b8219169050610eff81611f4f565b5050565b6000610e5273__$edd6a44efa4a8bdf57aa57ccba2bcfbb1d$__63734b96006040518163ffffffff1660e01b815260040160206040518083038186803b158015610e2157600080fd5b6000610e5273__$edd6a44efa4a8bdf57aa57ccba2bcfbb1d$__63443fd5986040518163ffffffff1660e01b815260040160206040518083038186803b158015610e2157600080fd5b6000610e5273__$edd6a44efa4a8bdf57aa57ccba2bcfbb1d$__63ca04595a6040518163ffffffff1660e01b815260040160206040518083038186803b158015610e2157600080fd5b6000610e5273__$edd6a44efa4a8bdf57aa57ccba2bcfbb1d$__6372eb67d06040518163ffffffff1660e01b815260040160206040518083038186803b158015610e2157600080fd5b610dd573__$edd6a44efa4a8bdf57aa57ccba2bcfbb1d$__63ca04595a6040518163ffffffff1660e01b815260040160206040518083038186803b158015610da357600080fd5b610dd573__$edd6a44efa4a8bdf57aa57ccba2bcfbb1d$__63d124bd136040518163ffffffff1660e01b815260040160206040518083038186803b158015610da357600080fd5b6000610e5273__$edd6a44efa4a8bdf57aa57ccba2bcfbb1d$__6329301cac6040518163ffffffff1660e01b815260040160206040518083038186803b158015610e2157600080fd5b6000610e5273__$96c0387300a4d16af366df01fc33f52e50$__63521819f56040518163ffffffff1660e01b815260040160206040518083038186803b158015610e2157600080fd5b6000611151612199565b905081156111cf5773__$6af7953b03ecb3cadd1ca9bb3675b9b8d6$__63e697ace96040518163ffffffff1660e01b815260040160206040518083038186803b15801561119d57600080fd5b505af41580156111b1573d6000803e3d6000fd5b505050506040513d60208110156111c757600080fd5b505117611242565b73__$6af7953b03ecb3cadd1ca9bb3675b9b8d6$__63e697ace96040518163ffffffff1660e01b815260040160206040518083038186803b15801561121357600080fd5b505af4158015611227573d6000803e3d6000fd5b505050506040513d602081101561123d57600080fd5b505119165b610eff73__$edd6a44efa4a8bdf57aa57ccba2bcfbb1d$__632ffdabc56040518163ffffffff1660e01b815260040160206040518083038186803b158015610da357600080fd5b6000611293611e1e565b82179050610eff81611f4f565b6000610e5273__$edd6a44efa4a8bdf57aa57ccba2bcfbb1d$__63b255e9e46040518163ffffffff1660e01b815260040160206040518083038186803b158015610e2157600080fd5b60006007198316808403826112fd83612bea565b9050600073__$184ef4a65c614d890e6225597d290b0ed9$__63bf1924c5846008026001600160401b03166001896001600160401b031660026001600160401b03160a036001600160401b0316901b6040518263ffffffff1660e01b815260040180826001600160401b0316815260200191505060206040518083038186803b15801561138957600080fd5b505af415801561139d573d6000803e3d6000fd5b505050506040513d60208110156113b357600080fd5b50516040805163bf1924c560e01b81526001600160401b03858416811660048301529151929350600886029091169173__$184ef4a65c614d890e6225597d290b0ed9$__9163bf1924c5916024808301926020929190829003018186803b15801561141d57600080fd5b505af4158015611431573d6000803e3d6000fd5b505050506040513d602081101561144757600080fd5b50516001600160401b0316901c979650505050505050565b6000610e5273__$edd6a44efa4a8bdf57aa57ccba2bcfbb1d$__637047f4df6040518163ffffffff1660e01b815260040160206040518083038186803b158015610e2157600080fd5b6114b181612272565b610dd5600019612694565b6000610e5273__$edd6a44efa4a8bdf57aa57ccba2bcfbb1d$__6345827f696040518163ffffffff1660e01b815260040160206040518083038186803b158015610e2157600080fd5b6001600160401b03919091166000908152600460205260409020805467ffffffffffffffff191660c09290921c919091179055565b610dd573__$edd6a44efa4a8bdf57aa57ccba2bcfbb1d$__63e59cb5746040518163ffffffff1660e01b815260040160206040518083038186803b158015610da357600080fd5b610dd573__$edd6a44efa4a8bdf57aa57ccba2bcfbb1d$__63734b96006040518163ffffffff1660e01b815260040160206040518083038186803b158015610da357600080fd5b610dd573__$edd6a44efa4a8bdf57aa57ccba2bcfbb1d$__639ff9932b6040518163ffffffff1660e01b815260040160206040518083038186803b158015610da357600080fd5b6000610e5273__$edd6a44efa4a8bdf57aa57ccba2bcfbb1d$__63e2e2e7126040518163ffffffff1660e01b815260040160206040518083038186803b158015610e2157600080fd5b610dd573__$edd6a44efa4a8bdf57aa57ccba2bcfbb1d$__63a43e290f6040518163ffffffff1660e01b815260040160206040518083038186803b158015610da357600080fd5b6000610e5273__$edd6a44efa4a8bdf57aa57ccba2bcfbb1d$__6392f5aa226040518163ffffffff1660e01b815260040160206040518083038186803b158015610e2157600080fd5b60006116f6826008026128c2565b92915050565b6000610e5273__$3c056aa8a31fb3ce78f242f7ef99e26695$__63870981356040518163ffffffff1660e01b815260040160206040518083038186803b158015610e2157600080fd5b6000610e5273__$edd6a44efa4a8bdf57aa57ccba2bcfbb1d$__63d41a5b596040518163ffffffff1660e01b815260040160206040518083038186803b158015610e2157600080fd5b6000610e5273__$edd6a44efa4a8bdf57aa57ccba2bcfbb1d$__63e59cb5746040518163ffffffff1660e01b815260040160206040518083038186803b158015610e2157600080fd5b6000610e5273__$edd6a44efa4a8bdf57aa57ccba2bcfbb1d$__63da3e8d7b6040518163ffffffff1660e01b815260040160206040518083038186803b158015610e2157600080fd5b610eff8260080282611b7a565b6000610e5273__$96c0387300a4d16af366df01fc33f52e50$__636299ea3f6040518163ffffffff1660e01b815260040160206040518083038186803b158015610e2157600080fd5b610dd573__$edd6a44efa4a8bdf57aa57ccba2bcfbb1d$__6345827f696040518163ffffffff1660e01b815260040160206040518083038186803b158015610da357600080fd5b610dd573__$edd6a44efa4a8bdf57aa57ccba2bcfbb1d$__63b255e9e46040518163ffffffff1660e01b815260040160206040518083038186803b158015610da357600080fd5b6000610e5273__$edd6a44efa4a8bdf57aa57ccba2bcfbb1d$__634a4c35106040518163ffffffff1660e01b815260040160206040518083038186803b158015610e2157600080fd5b6000610e5273__$edd6a44efa4a8bdf57aa57ccba2bcfbb1d$__63c585eede6040518163ffffffff1660e01b815260040160206040518083038186803b158015610e2157600080fd5b600073__$6af7953b03ecb3cadd1ca9bb3675b9b8d6$__6317a0cac36040518163ffffffff1660e01b815260040160206040518083038186803b1580156119dc57600080fd5b505af41580156119f0573d6000803e3d6000fd5b505050506040513d6020811015611a0657600080fd5b5051604080516351a2ab4160e11b815290516001600160401b039092169173__$6af7953b03ecb3cadd1ca9bb3675b9b8d6$__9163a3455682916004808301926020929190829003018186803b158015611a5f57600080fd5b505af4158015611a73573d6000803e3d6000fd5b505050506040513d6020811015611a8957600080fd5b505160408051632ffdabc560e01b81529051611adb9173__$edd6a44efa4a8bdf57aa57ccba2bcfbb1d$__91632ffdabc591600480820192602092909190829003018186803b158015610e2157600080fd5b166001600160401b0316901c905090565b610dd573__$edd6a44efa4a8bdf57aa57ccba2bcfbb1d$__63e80d17516040518163ffffffff1660e01b815260040160206040518083038186803b158015610da357600080fd5b610dd573__$edd6a44efa4a8bdf57aa57ccba2bcfbb1d$__637047f4df6040518163ffffffff1660e01b815260040160206040518083038186803b158015610da357600080fd5b600073__$184ef4a65c614d890e6225597d290b0ed9$__63bf1924c5836040518263ffffffff1660e01b815260040180826001600160401b0316815260200191505060206040518083038186803b158015611bd457600080fd5b505af4158015611be8573d6000803e3d6000fd5b505050506040513d6020811015611bfe57600080fd5b50516001600160401b039384166000908152600460205260409020805467ffffffffffffffff191694909116939093179092555050565b6000610e5273__$edd6a44efa4a8bdf57aa57ccba2bcfbb1d$__63d124bd136040518163ffffffff1660e01b815260040160206040518083038186803b158015610e2157600080fd5b600073__$6af7953b03ecb3cadd1ca9bb3675b9b8d6$__63656b151f6040518163ffffffff1660e01b815260040160206040518083038186803b158015611cc457600080fd5b505af4158015611cd8573d6000803e3d6000fd5b505050506040513d6020811015611cee57600080fd5b50516040805163fd198e5560e01b815290516001600160401b039092169173__$6af7953b03ecb3cadd1ca9bb3675b9b8d6$__9163fd198e55916004808301926020929190829003018186803b158015611a5f57600080fd5b6000610e5273__$edd6a44efa4a8bdf57aa57ccba2bcfbb1d$__639ff9932b6040518163ffffffff1660e01b815260040160206040518083038186803b158015610e2157600080fd5b610dd573__$edd6a44efa4a8bdf57aa57ccba2bcfbb1d$__6329301cac6040518163ffffffff1660e01b815260040160206040518083038186803b158015610da357600080fd5b610dd573__$edd6a44efa4a8bdf57aa57ccba2bcfbb1d$__638fd6b7c46040518163ffffffff1660e01b815260040160206040518083038186803b158015610da357600080fd5b6000610e5273__$edd6a44efa4a8bdf57aa57ccba2bcfbb1d$__63520aff6c6040518163ffffffff1660e01b815260040160206040518083038186803b158015610e2157600080fd5b505050565b6000610e5273__$edd6a44efa4a8bdf57aa57ccba2bcfbb1d$__632935b8ce6040518163ffffffff1660e01b815260040160206040518083038186803b158015610e2157600080fd5b6000611ebf612199565b90508115611f0b5773__$6af7953b03ecb3cadd1ca9bb3675b9b8d6$__63fd198e556040518163ffffffff1660e01b815260040160206040518083038186803b15801561119d57600080fd5b73__$6af7953b03ecb3cadd1ca9bb3675b9b8d6$__63fd198e556040518163ffffffff1660e01b815260040160206040518083038186803b15801561121357600080fd5b610dd573__$edd6a44efa4a8bdf57aa57ccba2bcfbb1d$__63520aff6c6040518163ffffffff1660e01b815260040160206040518083038186803b158015610da357600080fd5b610dd573__$edd6a44efa4a8bdf57aa57ccba2bcfbb1d$__63443fd5986040518163ffffffff1660e01b815260040160206040518083038186803b158015610da357600080fd5b6000610e5273__$edd6a44efa4a8bdf57aa57ccba2bcfbb1d$__639a59734c6040518163ffffffff1660e01b815260040160206040518083038186803b158015610e2157600080fd5b610dd573__$96c0387300a4d16af366df01fc33f52e50$__630a279d716040518163ffffffff1660e01b815260040160206040518083038186803b158015610da357600080fd5b6000612077612199565b905081156120c35773__$6af7953b03ecb3cadd1ca9bb3675b9b8d6$__63a34556826040518163ffffffff1660e01b815260040160206040518083038186803b15801561119d57600080fd5b73__$6af7953b03ecb3cadd1ca9bb3675b9b8d6$__63a34556826040518163ffffffff1660e01b815260040160206040518083038186803b15801561121357600080fd5b6000610e5273__$edd6a44efa4a8bdf57aa57ccba2bcfbb1d$__6342db36676040518163ffffffff1660e01b815260040160206040518083038186803b158015610e2157600080fd5b6000610e5273__$edd6a44efa4a8bdf57aa57ccba2bcfbb1d$__63929127db6040518163ffffffff1660e01b815260040160206040518083038186803b158015610e2157600080fd5b6000610e5273__$edd6a44efa4a8bdf57aa57ccba2bcfbb1d$__632ffdabc56040518163ffffffff1660e01b815260040160206040518083038186803b158015610e2157600080fd5b610dd573__$edd6a44efa4a8bdf57aa57ccba2bcfbb1d$__636630ad876040518163ffffffff1660e01b815260040160206040518083038186803b158015610da357600080fd5b6000610e5273__$edd6a44efa4a8bdf57aa57ccba2bcfbb1d$__63e80d17516040518163ffffffff1660e01b815260040160206040518083038186803b158015610e2157600080fd5b600061227c612199565b905073__$6af7953b03ecb3cadd1ca9bb3675b9b8d6$__63910a52476040518163ffffffff1660e01b815260040160206040518083038186803b1580156122c257600080fd5b505af41580156122d6573d6000803e3d6000fd5b505050506040513d60208110156122ec57600080fd5b50516040805163317d2bb560e01b815290516001600160401b0385811693169290921b9173__$6af7953b03ecb3cadd1ca9bb3675b9b8d6$__9163317d2bb5916004808301926020929190829003018186803b15801561234b57600080fd5b505af415801561235f573d6000803e3d6000fd5b505050506040513d602081101561237557600080fd5b505160408051632ffdabc560e01b815290519119939093169190911791610eff9173__$edd6a44efa4a8bdf57aa57ccba2bcfbb1d$__91632ffdabc5916004808301926020929190829003018186803b158015610da357600080fd5b63400080006000908152600460208181527f1f90ff9d73e8a6c31aa68ce092ee24c1fc49bc29c8525b76e90c710641779cea546040805163bf1924c560e01b81526001600160401b0390921693820184905251849273__$184ef4a65c614d890e6225597d290b0ed9$__9263bf1924c59260248083019392829003018186803b15801561245d57600080fd5b505af4158015612471573d6000803e3d6000fd5b505050506040513d602081101561248757600080fd5b505160005460408051918252657fffffffffff600184811c919091166020840181905281851691821484840181905292519496509194509290917f23a6dbf84a188125a7e041cf278e49ebf25abc3565d481f0728681181a01b1d4919081900360600190a1935050505090565b610dd573__$edd6a44efa4a8bdf57aa57ccba2bcfbb1d$__632935b8ce6040518163ffffffff1660e01b815260040160206040518083038186803b158015610da357600080fd5b600073__$6af7953b03ecb3cadd1ca9bb3675b9b8d6$__63e89d408d6040518163ffffffff1660e01b815260040160206040518083038186803b15801561258157600080fd5b505af4158015612595573d6000803e3d6000fd5b505050506040513d60208110156125ab57600080fd5b50516040805163e697ace960e01b815290516001600160401b039092169173__$6af7953b03ecb3cadd1ca9bb3675b9b8d6$__9163e697ace9916004808301926020929190829003018186803b158015611a5f57600080fd5b6000610e5273__$edd6a44efa4a8bdf57aa57ccba2bcfbb1d$__63a43e290f6040518163ffffffff1660e01b815260040160206040518083038186803b158015610e2157600080fd5b610dd573__$96c0387300a4d16af366df01fc33f52e50$__63521819f56040518163ffffffff1660e01b815260040160206040518083038186803b158015610da357600080fd5b610dd573__$edd6a44efa4a8bdf57aa57ccba2bcfbb1d$__63e2e2e7126040518163ffffffff1660e01b815260040160206040518083038186803b158015610da357600080fd5b6000610e5273__$96c0387300a4d16af366df01fc33f52e50$__630a279d716040518163ffffffff1660e01b815260040160206040518083038186803b158015610e2157600080fd5b610dd573__$edd6a44efa4a8bdf57aa57ccba2bcfbb1d$__6342db36676040518163ffffffff1660e01b815260040160206040518083038186803b158015610da357600080fd5b610dd573__$edd6a44efa4a8bdf57aa57ccba2bcfbb1d$__63da3e8d7b6040518163ffffffff1660e01b815260040160206040518083038186803b158015610da357600080fd5b600073__$6af7953b03ecb3cadd1ca9bb3675b9b8d6$__63910a52476040518163ffffffff1660e01b815260040160206040518083038186803b1580156127f857600080fd5b505af415801561280c573d6000803e3d6000fd5b505050506040513d602081101561282257600080fd5b50516040805163317d2bb560e01b815290516001600160401b039092169173__$6af7953b03ecb3cadd1ca9bb3675b9b8d6$__9163317d2bb5916004808301926020929190829003018186803b158015611a5f57600080fd5b610dd573__$edd6a44efa4a8bdf57aa57ccba2bcfbb1d$__63d41a5b596040518163ffffffff1660e01b815260040160206040518083038186803b158015610da357600080fd5b600073__$184ef4a65c614d890e6225597d290b0ed9$__63bf1924c56128e9846001612c00565b60c01c6040518263ffffffff1660e01b815260040180826001600160401b0316815260200191505060206040518083038186803b15801561292957600080fd5b505af415801561293d573d6000803e3d6000fd5b505050506040513d602081101561295357600080fd5b505192915050565b610dd573__$3c056aa8a31fb3ce78f242f7ef99e26695$__63870981356040518163ffffffff1660e01b815260040160206040518083038186803b158015610da357600080fd5b600060086001600160401b038316049050806001600160401b0316600814156129d4576129cf8484611b7a565b612be4565b600719841680850360006129e783612bea565b9050600073__$184ef4a65c614d890e6225597d290b0ed9$__63bf1924c5846008026001600160401b03166001896001600160401b031660026001600160401b03160a036001600160401b0316901b6040518263ffffffff1660e01b815260040180826001600160401b0316815260200191505060206040518083038186803b158015612a7357600080fd5b505af4158015612a87573d6000803e3d6000fd5b505050506040513d6020811015612a9d57600080fd5b50516040805163bf1924c560e01b81526001600160401b0389811660020a600019018b16166004820152905191925060009173__$184ef4a65c614d890e6225597d290b0ed9$__9163bf1924c5916024808301926020929190829003018186803b158015612b0a57600080fd5b505af4158015612b1e573d6000803e3d6000fd5b505050506040513d6020811015612b3457600080fd5b50516040805163bf1924c560e01b81526001600160401b038084166008890282161c861988161790811660048301529151929350909173__$184ef4a65c614d890e6225597d290b0ed9$__9163bf1924c5916024808301926020929190829003018186803b158015612ba557600080fd5b505af4158015612bb9573d6000803e3d6000fd5b505050506040513d6020811015612bcf57600080fd5b50519050612bdd8682611b7a565b5050505050505b50505050565b6000612bf7826001612c00565b60c01c92915050565b60006007831615612c58576040805162461bcd60e51b815260206004820152601760248201527f506f736974696f6e206973206e6f7420616c69676e6564000000000000000000604482015290519081900360640190fd5b50506001600160401b031660009081526004602052604090205460c01b9056fea26469706673582212209a451be82358158334dba8c750e8bf14c4b646b861d4c4cc43217d880d7a728764736f6c63430007040033",
  "linkReferences": {
    "@cartesi/util/contracts/BitsManipulationLibrary.sol": {
      "BitsManipulationLibrary": [
        {
          "length": 20,
          "start": 4899
        },
        {
          "length": 20,
          "start": 5124
        },
        {
          "length": 20,
          "start": 7070
        },
        {
          "length": 20,
          "start": 9288
        },
        {
          "length": 20,
          "start": 10470
        },
        {
          "length": 20,
          "start": 10765
        },
        {
          "length": 20,
          "start": 10993
        },
        {
          "length": 20,
          "start": 11148
        }
      ]
    },
    "contracts/CLINT.sol": {
      "CLINT": [
        {
          "length": 20,
          "start": 5923
        },
        {
          "length": 20,
          "start": 10624
        }
      ]
    },
    "contracts/HTIF.sol": {
      "HTIF": [
        {
          "length": 20,
          "start": 4389
        },
        {
          "length": 20,
          "start": 6228
        },
        {
          "length": 20,
          "start": 8267
        },
        {
          "length": 20,
          "start": 9842
        },
        {
          "length": 20,
          "start": 9986
        }
      ]
    },
    "contracts/RiscVConstants.sol": {
      "RiscVConstants": [
        {
          "length": 20,
          "start": 4475
        },
        {
          "length": 20,
          "start": 4593
        },
        {
          "length": 20,
          "start": 6586
        },
        {
          "length": 20,
          "start": 6726
        },
        {
          "length": 20,
          "start": 7330
        },
        {
          "length": 20,
          "start": 7470
        },
        {
          "length": 20,
          "start": 7913
        },
        {
          "length": 20,
          "start": 7981
        },
        {
          "length": 20,
          "start": 8353
        },
        {
          "length": 20,
          "start": 8421
        },
        {
          "length": 20,
          "start": 8864
        },
        {
          "length": 20,
          "start": 9010
        },
        {
          "length": 20,
          "start": 9567
        },
        {
          "length": 20,
          "start": 9707
        },
        {
          "length": 20,
          "start": 10198
        },
        {
          "length": 20,
          "start": 10338
        }
      ]
    },
    "contracts/ShadowAddresses.sol": {
      "ShadowAddresses": [
        {
          "length": 20,
          "start": 3457
        },
        {
          "length": 20,
          "start": 3583
        },
        {
          "length": 20,
          "start": 3708
        },
        {
          "length": 20,
          "start": 3781
        },
        {
          "length": 20,
          "start": 3882
        },
        {
          "length": 20,
          "start": 3955
        },
        {
          "length": 20,
          "start": 4028
        },
        {
          "length": 20,
          "start": 4101
        },
        {
          "length": 20,
          "start": 4172
        },
        {
          "length": 20,
          "start": 4243
        },
        {
          "length": 20,
          "start": 4316
        },
        {
          "length": 20,
          "start": 4711
        },
        {
          "length": 20,
          "start": 4807
        },
        {
          "length": 20,
          "start": 5254
        },
        {
          "length": 20,
          "start": 5347
        },
        {
          "length": 20,
          "start": 5471
        },
        {
          "length": 20,
          "start": 5542
        },
        {
          "length": 20,
          "start": 5613
        },
        {
          "length": 20,
          "start": 5686
        },
        {
          "length": 20,
          "start": 5757
        },
        {
          "length": 20,
          "start": 5830
        },
        {
          "length": 20,
          "start": 5996
        },
        {
          "length": 20,
          "start": 6069
        },
        {
          "length": 20,
          "start": 6142
        },
        {
          "length": 20,
          "start": 6299
        },
        {
          "length": 20,
          "start": 6370
        },
        {
          "length": 20,
          "start": 6443
        },
        {
          "length": 20,
          "start": 6516
        },
        {
          "length": 20,
          "start": 6849
        },
        {
          "length": 20,
          "start": 6929
        },
        {
          "length": 20,
          "start": 7000
        },
        {
          "length": 20,
          "start": 7260
        },
        {
          "length": 20,
          "start": 7534
        },
        {
          "length": 20,
          "start": 7605
        },
        {
          "length": 20,
          "start": 7676
        },
        {
          "length": 20,
          "start": 7749
        },
        {
          "length": 20,
          "start": 7827
        },
        {
          "length": 20,
          "start": 8052
        },
        {
          "length": 20,
          "start": 8123
        },
        {
          "length": 20,
          "start": 8196
        },
        {
          "length": 20,
          "start": 8494
        },
        {
          "length": 20,
          "start": 8567
        },
        {
          "length": 20,
          "start": 8640
        },
        {
          "length": 20,
          "start": 8711
        },
        {
          "length": 20,
          "start": 8784
        },
        {
          "length": 20,
          "start": 9144
        },
        {
          "length": 20,
          "start": 9497
        },
        {
          "length": 20,
          "start": 9771
        },
        {
          "length": 20,
          "start": 9913
        },
        {
          "length": 20,
          "start": 10057
        },
        {
          "length": 20,
          "start": 10128
        },
        {
          "length": 20,
          "start": 10400
        }
      ]
    }
  },
  "deployedLinkReferences": {
    "@cartesi/util/contracts/BitsManipulationLibrary.sol": {
      "BitsManipulationLibrary": [
        {
          "length": 20,
          "start": 4867
        },
        {
          "length": 20,
          "start": 5092
        },
        {
          "length": 20,
          "start": 7038
        },
        {
          "length": 20,
          "start": 9256
        },
        {
          "length": 20,
          "start": 10438
        },
        {
          "length": 20,
          "start": 10733
        },
        {
          "length": 20,
          "start": 10961
        },
        {
          "length": 20,
          "start": 11116
        }
      ]
    },
    "contracts/CLINT.sol": {
      "CLINT": [
        {
          "length": 20,
          "start": 5891
        },
        {
          "length": 20,
          "start": 10592
        }
      ]
    },
    "contracts/HTIF.sol": {
      "HTIF": [
        {
          "length": 20,
          "start": 4357
        },
        {
          "length": 20,
          "start": 6196
        },
        {
          "length": 20,
          "start": 8235
        },
        {
          "length": 20,
          "start": 9810
        },
        {
          "length": 20,
          "start": 9954
        }
      ]
    },
    "contracts/RiscVConstants.sol": {
      "RiscVConstants": [
        {
          "length": 20,
          "start": 4443
        },
        {
          "length": 20,
          "start": 4561
        },
        {
          "length": 20,
          "start": 6554
        },
        {
          "length": 20,
          "start": 6694
        },
        {
          "length": 20,
          "start": 7298
        },
        {
          "length": 20,
          "start": 7438
        },
        {
          "length": 20,
          "start": 7881
        },
        {
          "length": 20,
          "start": 7949
        },
        {
          "length": 20,
          "start": 8321
        },
        {
          "length": 20,
          "start": 8389
        },
        {
          "length": 20,
          "start": 8832
        },
        {
          "length": 20,
          "start": 8978
        },
        {
          "length": 20,
          "start": 9535
        },
        {
          "length": 20,
          "start": 9675
        },
        {
          "length": 20,
          "start": 10166
        },
        {
          "length": 20,
          "start": 10306
        }
      ]
    },
    "contracts/ShadowAddresses.sol": {
      "ShadowAddresses": [
        {
          "length": 20,
          "start": 3425
        },
        {
          "length": 20,
          "start": 3551
        },
        {
          "length": 20,
          "start": 3676
        },
        {
          "length": 20,
          "start": 3749
        },
        {
          "length": 20,
          "start": 3850
        },
        {
          "length": 20,
          "start": 3923
        },
        {
          "length": 20,
          "start": 3996
        },
        {
          "length": 20,
          "start": 4069
        },
        {
          "length": 20,
          "start": 4140
        },
        {
          "length": 20,
          "start": 4211
        },
        {
          "length": 20,
          "start": 4284
        },
        {
          "length": 20,
          "start": 4679
        },
        {
          "length": 20,
          "start": 4775
        },
        {
          "length": 20,
          "start": 5222
        },
        {
          "length": 20,
          "start": 5315
        },
        {
          "length": 20,
          "start": 5439
        },
        {
          "length": 20,
          "start": 5510
        },
        {
          "length": 20,
          "start": 5581
        },
        {
          "length": 20,
          "start": 5654
        },
        {
          "length": 20,
          "start": 5725
        },
        {
          "length": 20,
          "start": 5798
        },
        {
          "length": 20,
          "start": 5964
        },
        {
          "length": 20,
          "start": 6037
        },
        {
          "length": 20,
          "start": 6110
        },
        {
          "length": 20,
          "start": 6267
        },
        {
          "length": 20,
          "start": 6338
        },
        {
          "length": 20,
          "start": 6411
        },
        {
          "length": 20,
          "start": 6484
        },
        {
          "length": 20,
          "start": 6817
        },
        {
          "length": 20,
          "start": 6897
        },
        {
          "length": 20,
          "start": 6968
        },
        {
          "length": 20,
          "start": 7228
        },
        {
          "length": 20,
          "start": 7502
        },
        {
          "length": 20,
          "start": 7573
        },
        {
          "length": 20,
          "start": 7644
        },
        {
          "length": 20,
          "start": 7717
        },
        {
          "length": 20,
          "start": 7795
        },
        {
          "length": 20,
          "start": 8020
        },
        {
          "length": 20,
          "start": 8091
        },
        {
          "length": 20,
          "start": 8164
        },
        {
          "length": 20,
          "start": 8462
        },
        {
          "length": 20,
          "start": 8535
        },
        {
          "length": 20,
          "start": 8608
        },
        {
          "length": 20,
          "start": 8679
        },
        {
          "length": 20,
          "start": 8752
        },
        {
          "length": 20,
          "start": 9112
        },
        {
          "length": 20,
          "start": 9465
        },
        {
          "length": 20,
          "start": 9739
        },
        {
          "length": 20,
          "start": 9881
        },
        {
          "length": 20,
          "start": 10025
        },
        {
          "length": 20,
          "start": 10096
        },
        {
          "length": 20,
          "start": 10368
        }
      ]
    }
  },
  "devdoc": {
    "author": "Felipe",
    "details": "This should never be deployed to Main net.This contract is unsafe.",
    "kind": "dev",
    "methods": {},
    "title": "Test Memory Interactor",
    "version": 1
  },
  "evm": {
    "bytecode": {
      "linkReferences": {
        "@cartesi/util/contracts/BitsManipulationLibrary.sol": {
          "BitsManipulationLibrary": [
            {
              "length": 20,
              "start": 4899
            },
            {
              "length": 20,
              "start": 5124
            },
            {
              "length": 20,
              "start": 7070
            },
            {
              "length": 20,
              "start": 9288
            },
            {
              "length": 20,
              "start": 10470
            },
            {
              "length": 20,
              "start": 10765
            },
            {
              "length": 20,
              "start": 10993
            },
            {
              "length": 20,
              "start": 11148
            }
          ]
        },
        "contracts/CLINT.sol": {
          "CLINT": [
            {
              "length": 20,
              "start": 5923
            },
            {
              "length": 20,
              "start": 10624
            }
          ]
        },
        "contracts/HTIF.sol": {
          "HTIF": [
            {
              "length": 20,
              "start": 4389
            },
            {
              "length": 20,
              "start": 6228
            },
            {
              "length": 20,
              "start": 8267
            },
            {
              "length": 20,
              "start": 9842
            },
            {
              "length": 20,
              "start": 9986
            }
          ]
        },
        "contracts/RiscVConstants.sol": {
          "RiscVConstants": [
            {
              "length": 20,
              "start": 4475
            },
            {
              "length": 20,
              "start": 4593
            },
            {
              "length": 20,
              "start": 6586
            },
            {
              "length": 20,
              "start": 6726
            },
            {
              "length": 20,
              "start": 7330
            },
            {
              "length": 20,
              "start": 7470
            },
            {
              "length": 20,
              "start": 7913
            },
            {
              "length": 20,
              "start": 7981
            },
            {
              "length": 20,
              "start": 8353
            },
            {
              "length": 20,
              "start": 8421
            },
            {
              "length": 20,
              "start": 8864
            },
            {
              "length": 20,
              "start": 9010
            },
            {
              "length": 20,
              "start": 9567
            },
            {
              "length": 20,
              "start": 9707
            },
            {
              "length": 20,
              "start": 10198
            },
            {
              "length": 20,
              "start": 10338
            }
          ]
        },
        "contracts/ShadowAddresses.sol": {
          "ShadowAddresses": [
            {
              "length": 20,
              "start": 3457
            },
            {
              "length": 20,
              "start": 3583
            },
            {
              "length": 20,
              "start": 3708
            },
            {
              "length": 20,
              "start": 3781
            },
            {
              "length": 20,
              "start": 3882
            },
            {
              "length": 20,
              "start": 3955
            },
            {
              "length": 20,
              "start": 4028
            },
            {
              "length": 20,
              "start": 4101
            },
            {
              "length": 20,
              "start": 4172
            },
            {
              "length": 20,
              "start": 4243
            },
            {
              "length": 20,
              "start": 4316
            },
            {
              "length": 20,
              "start": 4711
            },
            {
              "length": 20,
              "start": 4807
            },
            {
              "length": 20,
              "start": 5254
            },
            {
              "length": 20,
              "start": 5347
            },
            {
              "length": 20,
              "start": 5471
            },
            {
              "length": 20,
              "start": 5542
            },
            {
              "length": 20,
              "start": 5613
            },
            {
              "length": 20,
              "start": 5686
            },
            {
              "length": 20,
              "start": 5757
            },
            {
              "length": 20,
              "start": 5830
            },
            {
              "length": 20,
              "start": 5996
            },
            {
              "length": 20,
              "start": 6069
            },
            {
              "length": 20,
              "start": 6142
            },
            {
              "length": 20,
              "start": 6299
            },
            {
              "length": 20,
              "start": 6370
            },
            {
              "length": 20,
              "start": 6443
            },
            {
              "length": 20,
              "start": 6516
            },
            {
              "length": 20,
              "start": 6849
            },
            {
              "length": 20,
              "start": 6929
            },
            {
              "length": 20,
              "start": 7000
            },
            {
              "length": 20,
              "start": 7260
            },
            {
              "length": 20,
              "start": 7534
            },
            {
              "length": 20,
              "start": 7605
            },
            {
              "length": 20,
              "start": 7676
            },
            {
              "length": 20,
              "start": 7749
            },
            {
              "length": 20,
              "start": 7827
            },
            {
              "length": 20,
              "start": 8052
            },
            {
              "length": 20,
              "start": 8123
            },
            {
              "length": 20,
              "start": 8196
            },
            {
              "length": 20,
              "start": 8494
            },
            {
              "length": 20,
              "start": 8567
            },
            {
              "length": 20,
              "start": 8640
            },
            {
              "length": 20,
              "start": 8711
            },
            {
              "length": 20,
              "start": 8784
            },
            {
              "length": 20,
              "start": 9144
            },
            {
              "length": 20,
              "start": 9497
            },
            {
              "length": 20,
              "start": 9771
            },
            {
              "length": 20,
              "start": 9913
            },
            {
              "length": 20,
              "start": 10057
            },
            {
              "length": 20,
              "start": 10128
            },
            {
              "length": 20,
              "start": 10400
            }
          ]
        }
      },
      "opcodes": "PUSH1 0x80 PUSH1 0x40 MSTORE CALLVALUE DUP1 ISZERO PUSH2 0x10 JUMPI PUSH1 0x0 DUP1 REVERT JUMPDEST POP PUSH2 0x2CAE DUP1 PUSH2 0x20 PUSH1 0x0 CODECOPY PUSH1 0x0 RETURN INVALID PUSH1 0x80 PUSH1 0x40 MSTORE CALLVALUE DUP1 ISZERO PUSH2 0x10 JUMPI PUSH1 0x0 DUP1 REVERT JUMPDEST POP PUSH1 0x4 CALLDATASIZE LT PUSH2 0x45F JUMPI PUSH1 0x0 CALLDATALOAD PUSH1 0xE0 SHR DUP1 PUSH4 0x854DBA40 GT PUSH2 0x24C JUMPI DUP1 PUSH4 0xB5B98ED4 GT PUSH2 0x146 JUMPI DUP1 PUSH4 0xDD5C4A14 GT PUSH2 0xC3 JUMPI DUP1 PUSH4 0xF7AC913D GT PUSH2 0x87 JUMPI DUP1 PUSH4 0xF7AC913D EQ PUSH2 0xCA4 JUMPI DUP1 PUSH4 0xF9911587 EQ PUSH2 0xCAC JUMPI DUP1 PUSH4 0xFA644AF5 EQ PUSH2 0xCD2 JUMPI DUP1 PUSH4 0xFBDB975D EQ PUSH2 0xCF8 JUMPI DUP1 PUSH4 0xFD295ABE EQ PUSH2 0xD1E JUMPI PUSH2 0x45F JUMP JUMPDEST DUP1 PUSH4 0xDD5C4A14 EQ PUSH2 0xC04 JUMPI DUP1 PUSH4 0xF21D94F8 EQ PUSH2 0xC2A JUMPI DUP1 PUSH4 0xF2CF6CEB EQ PUSH2 0xC50 JUMPI DUP1 PUSH4 0xF55C4D38 EQ PUSH2 0xC58 JUMPI DUP1 PUSH4 0xF604EDB8 EQ PUSH2 0xC7E JUMPI PUSH2 0x45F JUMP JUMPDEST DUP1 PUSH4 0xCECDAE53 GT PUSH2 0x10A JUMPI DUP1 PUSH4 0xCECDAE53 EQ PUSH2 0xBA0 JUMPI DUP1 PUSH4 0xCF187430 EQ PUSH2 0xBC6 JUMPI DUP1 PUSH4 0xD2BE7B6D EQ PUSH2 0xBCE JUMPI DUP1 PUSH4 0xD40D17C5 EQ PUSH2 0xBF4 JUMPI DUP1 PUSH4 0xDADED5C2 EQ PUSH2 0xBFC JUMPI PUSH2 0x45F JUMP JUMPDEST DUP1 PUSH4 0xB5B98ED4 EQ PUSH2 0xB5A JUMPI DUP1 PUSH4 0xBECDC10D EQ PUSH2 0xB62 JUMPI DUP1 PUSH4 0xC133B7FF EQ PUSH2 0xB6A JUMPI DUP1 PUSH4 0xCBC446B1 EQ PUSH2 0xB72 JUMPI DUP1 PUSH4 0xCC92CBF7 EQ PUSH2 0xB98 JUMPI PUSH2 0x45F JUMP JUMPDEST DUP1 PUSH4 0x9C872D02 GT PUSH2 0x1D4 JUMPI DUP1 PUSH4 0xAAED4F07 GT PUSH2 0x198 JUMPI DUP1 PUSH4 0xAAED4F07 EQ PUSH2 0xAC1 JUMPI DUP1 PUSH4 0xAB9779B7 EQ PUSH2 0xAE7 JUMPI DUP1 PUSH4 0xAF63B2A8 EQ PUSH2 0xB0D JUMPI DUP1 PUSH4 0xB2325AEF EQ PUSH2 0xB15 JUMPI DUP1 PUSH4 0xB27EC920 EQ PUSH2 0xB3B JUMPI PUSH2 0x45F JUMP JUMPDEST DUP1 PUSH4 0x9C872D02 EQ PUSH2 0x8C1 JUMPI DUP1 PUSH4 0xA317CE9D EQ PUSH2 0x8E7 JUMPI DUP1 PUSH4 0xA47594DF EQ PUSH2 0x8EF JUMPI DUP1 PUSH4 0xA740DBC1 EQ PUSH2 0xA9A JUMPI DUP1 PUSH4 0xA7458B95 EQ PUSH2 0xAA2 JUMPI PUSH2 0x45F JUMP JUMPDEST DUP1 PUSH4 0x8E32F35E GT PUSH2 0x21B JUMPI DUP1 PUSH4 0x8E32F35E EQ PUSH2 0x855 JUMPI DUP1 PUSH4 0x9485871B EQ PUSH2 0x883 JUMPI DUP1 PUSH4 0x968644F0 EQ PUSH2 0x88B JUMPI DUP1 PUSH4 0x9B7021CE EQ PUSH2 0x893 JUMPI DUP1 PUSH4 0x9C7B005D EQ PUSH2 0x89B JUMPI PUSH2 0x45F JUMP JUMPDEST DUP1 PUSH4 0x854DBA40 EQ PUSH2 0x7F9 JUMPI DUP1 PUSH4 0x86099C54 EQ PUSH2 0x801 JUMPI DUP1 PUSH4 0x86676D43 EQ PUSH2 0x809 JUMPI DUP1 PUSH4 0x89365909 EQ PUSH2 0x82F JUMPI PUSH2 0x45F JUMP JUMPDEST DUP1 PUSH4 0x54749AF3 GT PUSH2 0x35D JUMPI DUP1 PUSH4 0x6232E59C GT PUSH2 0x2E5 JUMPI DUP1 PUSH4 0x6DC95C2E GT PUSH2 0x2A9 JUMPI DUP1 PUSH4 0x6DC95C2E EQ PUSH2 0x76F JUMPI DUP1 PUSH4 0x6F6C0E7D EQ PUSH2 0x79D JUMPI DUP1 PUSH4 0x78C49574 EQ PUSH2 0x7A5 JUMPI DUP1 PUSH4 0x78DDEE75 EQ PUSH2 0x7CB JUMPI DUP1 PUSH4 0x834AA4F6 EQ PUSH2 0x7F1 JUMPI PUSH2 0x45F JUMP JUMPDEST DUP1 PUSH4 0x6232E59C EQ PUSH2 0x729 JUMPI DUP1 PUSH4 0x6475E342 EQ PUSH2 0x74F JUMPI DUP1 PUSH4 0x650CA32B EQ PUSH2 0x757 JUMPI DUP1 PUSH4 0x6A72B27D EQ PUSH2 0x75F JUMPI DUP1 PUSH4 0x6CD24DAF EQ PUSH2 0x767 JUMPI PUSH2 0x45F JUMP JUMPDEST DUP1 PUSH4 0x57907837 GT PUSH2 0x32C JUMPI DUP1 PUSH4 0x57907837 EQ PUSH2 0x6A7 JUMPI DUP1 PUSH4 0x5AF47CA7 EQ PUSH2 0x6CD JUMPI DUP1 PUSH4 0x5DADD78A EQ PUSH2 0x6F3 JUMPI DUP1 PUSH4 0x5E5CA652 EQ PUSH2 0x6FB JUMPI DUP1 PUSH4 0x5F824BF9 EQ PUSH2 0x721 JUMPI PUSH2 0x45F JUMP JUMPDEST DUP1 PUSH4 0x54749AF3 EQ PUSH2 0x61D JUMPI DUP1 PUSH4 0x568B2702 EQ PUSH2 0x643 JUMPI DUP1 PUSH4 0x5729E4A6 EQ PUSH2 0x64B JUMPI DUP1 PUSH4 0x575832DF EQ PUSH2 0x681 JUMPI PUSH2 0x45F JUMP JUMPDEST DUP1 PUSH4 0x28520B30 GT PUSH2 0x3EB JUMPI DUP1 PUSH4 0x3A48BB56 GT PUSH2 0x3AF JUMPI DUP1 PUSH4 0x3A48BB56 EQ PUSH2 0x59A JUMPI DUP1 PUSH4 0x45057ED7 EQ PUSH2 0x5B9 JUMPI DUP1 PUSH4 0x4AE9388B EQ PUSH2 0x5DF JUMPI DUP1 PUSH4 0x50CEC2D5 EQ PUSH2 0x5E7 JUMPI DUP1 PUSH4 0x51BB3615 EQ PUSH2 0x615 JUMPI PUSH2 0x45F JUMP JUMPDEST DUP1 PUSH4 0x28520B30 EQ PUSH2 0x536 JUMPI DUP1 PUSH4 0x28751B36 EQ PUSH2 0x53E JUMPI DUP1 PUSH4 0x2CA2BD16 EQ PUSH2 0x564 JUMPI DUP1 PUSH4 0x2E963A80 EQ PUSH2 0x58A JUMPI DUP1 PUSH4 0x34970F18 EQ PUSH2 0x592 JUMPI PUSH2 0x45F JUMP JUMPDEST DUP1 PUSH4 0x11CF3A22 GT PUSH2 0x432 JUMPI DUP1 PUSH4 0x11CF3A22 EQ PUSH2 0x4F0 JUMPI DUP1 PUSH4 0x15DD9C06 EQ PUSH2 0x4F8 JUMPI DUP1 PUSH4 0x18E504DB EQ PUSH2 0x51E JUMPI DUP1 PUSH4 0x1BF2F73D EQ PUSH2 0x526 JUMPI DUP1 PUSH4 0x1E5E6190 EQ PUSH2 0x52E JUMPI PUSH2 0x45F JUMP JUMPDEST DUP1 PUSH4 0x80AA5D1 EQ PUSH2 0x464 JUMPI DUP1 PUSH4 0xDF3E295 EQ PUSH2 0x47E JUMPI DUP1 PUSH4 0xF84C046 EQ PUSH2 0x4A6 JUMPI DUP1 PUSH4 0x10D74C7D EQ PUSH2 0x4CA JUMPI JUMPDEST PUSH1 0x0 DUP1 REVERT JUMPDEST PUSH2 0x46C PUSH2 0xD56 JUMP JUMPDEST PUSH1 0x40 DUP1 MLOAD SWAP2 DUP3 MSTORE MLOAD SWAP1 DUP2 SWAP1 SUB PUSH1 0x20 ADD SWAP1 RETURN JUMPDEST PUSH2 0x4A4 PUSH1 0x4 DUP1 CALLDATASIZE SUB PUSH1 0x20 DUP2 LT ISZERO PUSH2 0x494 JUMPI PUSH1 0x0 DUP1 REVERT JUMPDEST POP CALLDATALOAD PUSH1 0x1 PUSH1 0x1 PUSH1 0x40 SHL SUB AND PUSH2 0xD5C JUMP JUMPDEST STOP JUMPDEST PUSH2 0x4AE PUSH2 0xDD8 JUMP JUMPDEST PUSH1 0x40 DUP1 MLOAD PUSH1 0x1 PUSH1 0x1 PUSH1 0x40 SHL SUB SWAP1 SWAP3 AND DUP3 MSTORE MLOAD SWAP1 DUP2 SWAP1 SUB PUSH1 0x20 ADD SWAP1 RETURN JUMPDEST PUSH2 0x4A4 PUSH1 0x4 DUP1 CALLDATASIZE SUB PUSH1 0x20 DUP2 LT ISZERO PUSH2 0x4E0 JUMPI PUSH1 0x0 DUP1 REVERT JUMPDEST POP CALLDATALOAD PUSH1 0x1 PUSH1 0x1 PUSH1 0x40 SHL SUB AND PUSH2 0xE57 JUMP JUMPDEST PUSH2 0x4AE PUSH2 0xE9E JUMP JUMPDEST PUSH2 0x4A4 PUSH1 0x4 DUP1 CALLDATASIZE SUB PUSH1 0x20 DUP2 LT ISZERO PUSH2 0x50E JUMPI PUSH1 0x0 DUP1 REVERT JUMPDEST POP CALLDATALOAD PUSH1 0x1 PUSH1 0x1 PUSH1 0x40 SHL SUB AND PUSH2 0xEE7 JUMP JUMPDEST PUSH2 0x4AE PUSH2 0xF03 JUMP JUMPDEST PUSH2 0x4AE PUSH2 0xF4C JUMP JUMPDEST PUSH2 0x4AE PUSH2 0xF95 JUMP JUMPDEST PUSH2 0x4AE PUSH2 0xFDE JUMP JUMPDEST PUSH2 0x4A4 PUSH1 0x4 DUP1 CALLDATASIZE SUB PUSH1 0x20 DUP2 LT ISZERO PUSH2 0x554 JUMPI PUSH1 0x0 DUP1 REVERT JUMPDEST POP CALLDATALOAD PUSH1 0x1 PUSH1 0x1 PUSH1 0x40 SHL SUB AND PUSH2 0x1027 JUMP JUMPDEST PUSH2 0x4A4 PUSH1 0x4 DUP1 CALLDATASIZE SUB PUSH1 0x20 DUP2 LT ISZERO PUSH2 0x57A JUMPI PUSH1 0x0 DUP1 REVERT JUMPDEST POP CALLDATALOAD PUSH1 0x1 PUSH1 0x1 PUSH1 0x40 SHL SUB AND PUSH2 0x106E JUMP JUMPDEST PUSH2 0x4AE PUSH2 0x10B5 JUMP JUMPDEST PUSH2 0x4AE PUSH2 0x10FE JUMP JUMPDEST PUSH2 0x4A4 PUSH1 0x4 DUP1 CALLDATASIZE SUB PUSH1 0x20 DUP2 LT ISZERO PUSH2 0x5B0 JUMPI PUSH1 0x0 DUP1 REVERT JUMPDEST POP CALLDATALOAD ISZERO ISZERO PUSH2 0x1147 JUMP JUMPDEST PUSH2 0x4A4 PUSH1 0x4 DUP1 CALLDATASIZE SUB PUSH1 0x20 DUP2 LT ISZERO PUSH2 0x5CF JUMPI PUSH1 0x0 DUP1 REVERT JUMPDEST POP CALLDATALOAD PUSH1 0x1 PUSH1 0x1 PUSH1 0x40 SHL SUB AND PUSH2 0x1289 JUMP JUMPDEST PUSH2 0x4AE PUSH2 0x12A0 JUMP JUMPDEST PUSH2 0x4AE PUSH1 0x4 DUP1 CALLDATASIZE SUB PUSH1 0x40 DUP2 LT ISZERO PUSH2 0x5FD JUMPI PUSH1 0x0 DUP1 REVERT JUMPDEST POP PUSH1 0x1 PUSH1 0x1 PUSH1 0x40 SHL SUB DUP2 CALLDATALOAD DUP2 AND SWAP2 PUSH1 0x20 ADD CALLDATALOAD AND PUSH2 0x12E9 JUMP JUMPDEST PUSH2 0x4AE PUSH2 0x145F JUMP JUMPDEST PUSH2 0x4A4 PUSH1 0x4 DUP1 CALLDATASIZE SUB PUSH1 0x20 DUP2 LT ISZERO PUSH2 0x633 JUMPI PUSH1 0x0 DUP1 REVERT JUMPDEST POP CALLDATALOAD PUSH1 0x1 PUSH1 0x1 PUSH1 0x40 SHL SUB AND PUSH2 0x14A8 JUMP JUMPDEST PUSH2 0x4AE PUSH2 0x14BC JUMP JUMPDEST PUSH2 0x4A4 PUSH1 0x4 DUP1 CALLDATASIZE SUB PUSH1 0x40 DUP2 LT ISZERO PUSH2 0x661 JUMPI PUSH1 0x0 DUP1 REVERT JUMPDEST POP DUP1 CALLDATALOAD PUSH1 0x1 PUSH1 0x1 PUSH1 0x40 SHL SUB AND SWAP1 PUSH1 0x20 ADD CALLDATALOAD PUSH1 0x1 PUSH1 0x1 PUSH1 0xC0 SHL SUB NOT AND PUSH2 0x1505 JUMP JUMPDEST PUSH2 0x4A4 PUSH1 0x4 DUP1 CALLDATASIZE SUB PUSH1 0x20 DUP2 LT ISZERO PUSH2 0x697 JUMPI PUSH1 0x0 DUP1 REVERT JUMPDEST POP CALLDATALOAD PUSH1 0x1 PUSH1 0x1 PUSH1 0x40 SHL SUB AND PUSH2 0x153A JUMP JUMPDEST PUSH2 0x4A4 PUSH1 0x4 DUP1 CALLDATASIZE SUB PUSH1 0x20 DUP2 LT ISZERO PUSH2 0x6BD JUMPI PUSH1 0x0 DUP1 REVERT JUMPDEST POP CALLDATALOAD PUSH1 0x1 PUSH1 0x1 PUSH1 0x40 SHL SUB AND PUSH2 0x1581 JUMP JUMPDEST PUSH2 0x4A4 PUSH1 0x4 DUP1 CALLDATASIZE SUB PUSH1 0x20 DUP2 LT ISZERO PUSH2 0x6E3 JUMPI PUSH1 0x0 DUP1 REVERT JUMPDEST POP CALLDATALOAD PUSH1 0x1 PUSH1 0x1 PUSH1 0x40 SHL SUB AND PUSH2 0x15C8 JUMP JUMPDEST PUSH2 0x4AE PUSH2 0x160F JUMP JUMPDEST PUSH2 0x4A4 PUSH1 0x4 DUP1 CALLDATASIZE SUB PUSH1 0x20 DUP2 LT ISZERO PUSH2 0x711 JUMPI PUSH1 0x0 DUP1 REVERT JUMPDEST POP CALLDATALOAD PUSH1 0x1 PUSH1 0x1 PUSH1 0x40 SHL SUB AND PUSH2 0x1658 JUMP JUMPDEST PUSH2 0x4AE PUSH2 0x169F JUMP JUMPDEST PUSH2 0x4AE PUSH1 0x4 DUP1 CALLDATASIZE SUB PUSH1 0x20 DUP2 LT ISZERO PUSH2 0x73F JUMPI PUSH1 0x0 DUP1 REVERT JUMPDEST POP CALLDATALOAD PUSH1 0x1 PUSH1 0x1 PUSH1 0x40 SHL SUB AND PUSH2 0x16E8 JUMP JUMPDEST PUSH2 0x4AE PUSH2 0x16FC JUMP JUMPDEST PUSH2 0x4AE PUSH2 0x1745 JUMP JUMPDEST PUSH2 0x4AE PUSH2 0x178E JUMP JUMPDEST PUSH2 0x4AE PUSH2 0x17D7 JUMP JUMPDEST PUSH2 0x4A4 PUSH1 0x4 DUP1 CALLDATASIZE SUB PUSH1 0x40 DUP2 LT ISZERO PUSH2 0x785 JUMPI PUSH1 0x0 DUP1 REVERT JUMPDEST POP PUSH1 0x1 PUSH1 0x1 PUSH1 0x40 SHL SUB DUP2 CALLDATALOAD DUP2 AND SWAP2 PUSH1 0x20 ADD CALLDATALOAD AND PUSH2 0x1820 JUMP JUMPDEST PUSH2 0x4AE PUSH2 0x182D JUMP JUMPDEST PUSH2 0x4A4 PUSH1 0x4 DUP1 CALLDATASIZE SUB PUSH1 0x20 DUP2 LT ISZERO PUSH2 0x7BB JUMPI PUSH1 0x0 DUP1 REVERT JUMPDEST POP CALLDATALOAD PUSH1 0x1 PUSH1 0x1 PUSH1 0x40 SHL SUB AND PUSH2 0x1876 JUMP JUMPDEST PUSH2 0x4A4 PUSH1 0x4 DUP1 CALLDATASIZE SUB PUSH1 0x20 DUP2 LT ISZERO PUSH2 0x7E1 JUMPI PUSH1 0x0 DUP1 REVERT JUMPDEST POP CALLDATALOAD PUSH1 0x1 PUSH1 0x1 PUSH1 0x40 SHL SUB AND PUSH2 0x18BD JUMP JUMPDEST PUSH2 0x4AE PUSH2 0x1904 JUMP JUMPDEST PUSH2 0x4AE PUSH2 0x194D JUMP JUMPDEST PUSH2 0x4AE PUSH2 0x1996 JUMP JUMPDEST PUSH2 0x4A4 PUSH1 0x4 DUP1 CALLDATASIZE SUB PUSH1 0x20 DUP2 LT ISZERO PUSH2 0x81F JUMPI PUSH1 0x0 DUP1 REVERT JUMPDEST POP CALLDATALOAD PUSH1 0x1 PUSH1 0x1 PUSH1 0x40 SHL SUB AND PUSH2 0x1AEC JUMP JUMPDEST PUSH2 0x4A4 PUSH1 0x4 DUP1 CALLDATASIZE SUB PUSH1 0x20 DUP2 LT ISZERO PUSH2 0x845 JUMPI PUSH1 0x0 DUP1 REVERT JUMPDEST POP CALLDATALOAD PUSH1 0x1 PUSH1 0x1 PUSH1 0x40 SHL SUB AND PUSH2 0x1B33 JUMP JUMPDEST PUSH2 0x4A4 PUSH1 0x4 DUP1 CALLDATASIZE SUB PUSH1 0x40 DUP2 LT ISZERO PUSH2 0x86B JUMPI PUSH1 0x0 DUP1 REVERT JUMPDEST POP PUSH1 0x1 PUSH1 0x1 PUSH1 0x40 SHL SUB DUP2 CALLDATALOAD DUP2 AND SWAP2 PUSH1 0x20 ADD CALLDATALOAD AND PUSH2 0x1B7A JUMP JUMPDEST PUSH2 0x4AE PUSH2 0x1C35 JUMP JUMPDEST PUSH2 0x4AE PUSH2 0x1C7E JUMP JUMPDEST PUSH2 0x4AE PUSH2 0x1D47 JUMP JUMPDEST PUSH2 0x4A4 PUSH1 0x4 DUP1 CALLDATASIZE SUB PUSH1 0x20 DUP2 LT ISZERO PUSH2 0x8B1 JUMPI PUSH1 0x0 DUP1 REVERT JUMPDEST POP CALLDATALOAD PUSH1 0x1 PUSH1 0x1 PUSH1 0x40 SHL SUB AND PUSH2 0x1D90 JUMP JUMPDEST PUSH2 0x4A4 PUSH1 0x4 DUP1 CALLDATASIZE SUB PUSH1 0x20 DUP2 LT ISZERO PUSH2 0x8D7 JUMPI PUSH1 0x0 DUP1 REVERT JUMPDEST POP CALLDATALOAD PUSH1 0x1 PUSH1 0x1 PUSH1 0x40 SHL SUB AND PUSH2 0x1DD7 JUMP JUMPDEST PUSH2 0x4AE PUSH2 0x1E1E JUMP JUMPDEST PUSH2 0x4A4 PUSH1 0x4 DUP1 CALLDATASIZE SUB PUSH1 0x60 DUP2 LT ISZERO PUSH2 0x905 JUMPI PUSH1 0x0 DUP1 REVERT JUMPDEST DUP2 ADD SWAP1 PUSH1 0x20 DUP2 ADD DUP2 CALLDATALOAD PUSH5 0x100000000 DUP2 GT ISZERO PUSH2 0x920 JUMPI PUSH1 0x0 DUP1 REVERT JUMPDEST DUP3 ADD DUP4 PUSH1 0x20 DUP3 ADD GT ISZERO PUSH2 0x932 JUMPI PUSH1 0x0 DUP1 REVERT JUMPDEST DUP1 CALLDATALOAD SWAP1 PUSH1 0x20 ADD SWAP2 DUP5 PUSH1 0x20 DUP4 MUL DUP5 ADD GT PUSH5 0x100000000 DUP4 GT OR ISZERO PUSH2 0x954 JUMPI PUSH1 0x0 DUP1 REVERT JUMPDEST SWAP2 SWAP1 DUP1 DUP1 PUSH1 0x20 MUL PUSH1 0x20 ADD PUSH1 0x40 MLOAD SWAP1 DUP2 ADD PUSH1 0x40 MSTORE DUP1 SWAP4 SWAP3 SWAP2 SWAP1 DUP2 DUP2 MSTORE PUSH1 0x20 ADD DUP4 DUP4 PUSH1 0x20 MUL DUP1 DUP3 DUP5 CALLDATACOPY PUSH1 0x0 SWAP3 ADD SWAP2 SWAP1 SWAP2 MSTORE POP SWAP3 SWAP6 SWAP5 SWAP4 PUSH1 0x20 DUP2 ADD SWAP4 POP CALLDATALOAD SWAP2 POP POP PUSH5 0x100000000 DUP2 GT ISZERO PUSH2 0x9A4 JUMPI PUSH1 0x0 DUP1 REVERT JUMPDEST DUP3 ADD DUP4 PUSH1 0x20 DUP3 ADD GT ISZERO PUSH2 0x9B6 JUMPI PUSH1 0x0 DUP1 REVERT JUMPDEST DUP1 CALLDATALOAD SWAP1 PUSH1 0x20 ADD SWAP2 DUP5 PUSH1 0x20 DUP4 MUL DUP5 ADD GT PUSH5 0x100000000 DUP4 GT OR ISZERO PUSH2 0x9D8 JUMPI PUSH1 0x0 DUP1 REVERT JUMPDEST SWAP2 SWAP1 DUP1 DUP1 PUSH1 0x20 MUL PUSH1 0x20 ADD PUSH1 0x40 MLOAD SWAP1 DUP2 ADD PUSH1 0x40 MSTORE DUP1 SWAP4 SWAP3 SWAP2 SWAP1 DUP2 DUP2 MSTORE PUSH1 0x20 ADD DUP4 DUP4 PUSH1 0x20 MUL DUP1 DUP3 DUP5 CALLDATACOPY PUSH1 0x0 SWAP3 ADD SWAP2 SWAP1 SWAP2 MSTORE POP SWAP3 SWAP6 SWAP5 SWAP4 PUSH1 0x20 DUP2 ADD SWAP4 POP CALLDATALOAD SWAP2 POP POP PUSH5 0x100000000 DUP2 GT ISZERO PUSH2 0xA28 JUMPI PUSH1 0x0 DUP1 REVERT JUMPDEST DUP3 ADD DUP4 PUSH1 0x20 DUP3 ADD GT ISZERO PUSH2 0xA3A JUMPI PUSH1 0x0 DUP1 REVERT JUMPDEST DUP1 CALLDATALOAD SWAP1 PUSH1 0x20 ADD SWAP2 DUP5 PUSH1 0x20 DUP4 MUL DUP5 ADD GT PUSH5 0x100000000 DUP4 GT OR ISZERO PUSH2 0xA5C JUMPI PUSH1 0x0 DUP1 REVERT JUMPDEST SWAP2 SWAP1 DUP1 DUP1 PUSH1 0x20 MUL PUSH1 0x20 ADD PUSH1 0x40 MLOAD SWAP1 DUP2 ADD PUSH1 0x40 MSTORE DUP1 SWAP4 SWAP3 SWAP2 SWAP1 DUP2 DUP2 MSTORE PUSH1 0x20 ADD DUP4 DUP4 PUSH1 0x20 MUL DUP1 DUP3 DUP5 CALLDATACOPY PUSH1 0x0 SWAP3 ADD SWAP2 SWAP1 SWAP2 MSTORE POP SWAP3 SWAP6 POP PUSH2 0x1E67 SWAP5 POP POP POP POP POP JUMP JUMPDEST PUSH2 0x4AE PUSH2 0x1E6C JUMP JUMPDEST PUSH2 0x4A4 PUSH1 0x4 DUP1 CALLDATASIZE SUB PUSH1 0x20 DUP2 LT ISZERO PUSH2 0xAB8 JUMPI PUSH1 0x0 DUP1 REVERT JUMPDEST POP CALLDATALOAD ISZERO ISZERO PUSH2 0x1EB5 JUMP JUMPDEST PUSH2 0x4A4 PUSH1 0x4 DUP1 CALLDATASIZE SUB PUSH1 0x20 DUP2 LT ISZERO PUSH2 0xAD7 JUMPI PUSH1 0x0 DUP1 REVERT JUMPDEST POP CALLDATALOAD PUSH1 0x1 PUSH1 0x1 PUSH1 0x40 SHL SUB AND PUSH2 0x1F4F JUMP JUMPDEST PUSH2 0x4A4 PUSH1 0x4 DUP1 CALLDATASIZE SUB PUSH1 0x20 DUP2 LT ISZERO PUSH2 0xAFD JUMPI PUSH1 0x0 DUP1 REVERT JUMPDEST POP CALLDATALOAD PUSH1 0x1 PUSH1 0x1 PUSH1 0x40 SHL SUB AND PUSH2 0x1F96 JUMP JUMPDEST PUSH2 0x4AE PUSH2 0x1FDD JUMP JUMPDEST PUSH2 0x4A4 PUSH1 0x4 DUP1 CALLDATASIZE SUB PUSH1 0x20 DUP2 LT ISZERO PUSH2 0xB2B JUMPI PUSH1 0x0 DUP1 REVERT JUMPDEST POP CALLDATALOAD PUSH1 0x1 PUSH1 0x1 PUSH1 0x40 SHL SUB AND PUSH2 0x2026 JUMP JUMPDEST PUSH2 0x4A4 PUSH1 0x4 DUP1 CALLDATASIZE SUB PUSH1 0x20 DUP2 LT ISZERO PUSH2 0xB51 JUMPI PUSH1 0x0 DUP1 REVERT JUMPDEST POP CALLDATALOAD ISZERO ISZERO PUSH2 0x206D JUMP JUMPDEST PUSH2 0x4AE PUSH2 0x2107 JUMP JUMPDEST PUSH2 0x4AE PUSH2 0x2150 JUMP JUMPDEST PUSH2 0x4AE PUSH2 0x2199 JUMP JUMPDEST PUSH2 0x4A4 PUSH1 0x4 DUP1 CALLDATASIZE SUB PUSH1 0x20 DUP2 LT ISZERO PUSH2 0xB88 JUMPI PUSH1 0x0 DUP1 REVERT JUMPDEST POP CALLDATALOAD PUSH1 0x1 PUSH1 0x1 PUSH1 0x40 SHL SUB AND PUSH2 0x21E2 JUMP JUMPDEST PUSH2 0x4AE PUSH2 0x2229 JUMP JUMPDEST PUSH2 0x4A4 PUSH1 0x4 DUP1 CALLDATASIZE SUB PUSH1 0x20 DUP2 LT ISZERO PUSH2 0xBB6 JUMPI PUSH1 0x0 DUP1 REVERT JUMPDEST POP CALLDATALOAD PUSH1 0x1 PUSH1 0x1 PUSH1 0x40 SHL SUB AND PUSH2 0x2272 JUMP JUMPDEST PUSH2 0x4AE PUSH2 0x23D1 JUMP JUMPDEST PUSH2 0x4A4 PUSH1 0x4 DUP1 CALLDATASIZE SUB PUSH1 0x20 DUP2 LT ISZERO PUSH2 0xBE4 JUMPI PUSH1 0x0 DUP1 REVERT JUMPDEST POP CALLDATALOAD PUSH1 0x1 PUSH1 0x1 PUSH1 0x40 SHL SUB AND PUSH2 0x24F4 JUMP JUMPDEST PUSH2 0x4AE PUSH2 0x253B JUMP JUMPDEST PUSH2 0x4AE PUSH2 0x2604 JUMP JUMPDEST PUSH2 0x4A4 PUSH1 0x4 DUP1 CALLDATASIZE SUB PUSH1 0x20 DUP2 LT ISZERO PUSH2 0xC1A JUMPI PUSH1 0x0 DUP1 REVERT JUMPDEST POP CALLDATALOAD PUSH1 0x1 PUSH1 0x1 PUSH1 0x40 SHL SUB AND PUSH2 0x264D JUMP JUMPDEST PUSH2 0x4A4 PUSH1 0x4 DUP1 CALLDATASIZE SUB PUSH1 0x20 DUP2 LT ISZERO PUSH2 0xC40 JUMPI PUSH1 0x0 DUP1 REVERT JUMPDEST POP CALLDATALOAD PUSH1 0x1 PUSH1 0x1 PUSH1 0x40 SHL SUB AND PUSH2 0x2694 JUMP JUMPDEST PUSH2 0x4AE PUSH2 0x26DB JUMP JUMPDEST PUSH2 0x4A4 PUSH1 0x4 DUP1 CALLDATASIZE SUB PUSH1 0x20 DUP2 LT ISZERO PUSH2 0xC6E JUMPI PUSH1 0x0 DUP1 REVERT JUMPDEST POP CALLDATALOAD PUSH1 0x1 PUSH1 0x1 PUSH1 0x40 SHL SUB AND PUSH2 0x2724 JUMP JUMPDEST PUSH2 0x4A4 PUSH1 0x4 DUP1 CALLDATASIZE SUB PUSH1 0x20 DUP2 LT ISZERO PUSH2 0xC94 JUMPI PUSH1 0x0 DUP1 REVERT JUMPDEST POP CALLDATALOAD PUSH1 0x1 PUSH1 0x1 PUSH1 0x40 SHL SUB AND PUSH2 0x276B JUMP JUMPDEST PUSH2 0x4AE PUSH2 0x27B2 JUMP JUMPDEST PUSH2 0x4A4 PUSH1 0x4 DUP1 CALLDATASIZE SUB PUSH1 0x20 DUP2 LT ISZERO PUSH2 0xCC2 JUMPI PUSH1 0x0 DUP1 REVERT JUMPDEST POP CALLDATALOAD PUSH1 0x1 PUSH1 0x1 PUSH1 0x40 SHL SUB AND PUSH2 0x287B JUMP JUMPDEST PUSH2 0x4AE PUSH1 0x4 DUP1 CALLDATASIZE SUB PUSH1 0x20 DUP2 LT ISZERO PUSH2 0xCE8 JUMPI PUSH1 0x0 DUP1 REVERT JUMPDEST POP CALLDATALOAD PUSH1 0x1 PUSH1 0x1 PUSH1 0x40 SHL SUB AND PUSH2 0x28C2 JUMP JUMPDEST PUSH2 0x4A4 PUSH1 0x4 DUP1 CALLDATASIZE SUB PUSH1 0x20 DUP2 LT ISZERO PUSH2 0xD0E JUMPI PUSH1 0x0 DUP1 REVERT JUMPDEST POP CALLDATALOAD PUSH1 0x1 PUSH1 0x1 PUSH1 0x40 SHL SUB AND PUSH2 0x295B JUMP JUMPDEST PUSH2 0x4A4 PUSH1 0x4 DUP1 CALLDATASIZE SUB PUSH1 0x60 DUP2 LT ISZERO PUSH2 0xD34 JUMPI PUSH1 0x0 DUP1 REVERT JUMPDEST POP PUSH1 0x1 PUSH1 0x1 PUSH1 0x40 SHL SUB DUP2 CALLDATALOAD DUP2 AND SWAP2 PUSH1 0x20 DUP2 ADD CALLDATALOAD DUP3 AND SWAP2 PUSH1 0x40 SWAP1 SWAP2 ADD CALLDATALOAD AND PUSH2 0x29A2 JUMP JUMPDEST PUSH1 0x0 SLOAD SWAP1 JUMP JUMPDEST PUSH2 0xDD5 PUSH20 0x0 PUSH4 0x9A59734C PUSH1 0x40 MLOAD DUP2 PUSH4 0xFFFFFFFF AND PUSH1 0xE0 SHL DUP2 MSTORE PUSH1 0x4 ADD PUSH1 0x20 PUSH1 0x40 MLOAD DUP1 DUP4 SUB DUP2 DUP7 DUP1 EXTCODESIZE ISZERO DUP1 ISZERO PUSH2 0xDA3 JUMPI PUSH1 0x0 DUP1 REVERT JUMPDEST POP GAS DELEGATECALL ISZERO DUP1 ISZERO PUSH2 0xDB7 JUMPI RETURNDATASIZE PUSH1 0x0 DUP1 RETURNDATACOPY RETURNDATASIZE PUSH1 0x0 REVERT JUMPDEST POP POP POP POP PUSH1 0x40 MLOAD RETURNDATASIZE PUSH1 0x20 DUP2 LT ISZERO PUSH2 0xDCD JUMPI PUSH1 0x0 DUP1 REVERT JUMPDEST POP MLOAD DUP3 PUSH2 0x1B7A JUMP JUMPDEST POP JUMP JUMPDEST PUSH1 0x0 PUSH2 0xE52 PUSH20 0x0 PUSH4 0x6630AD87 PUSH1 0x40 MLOAD DUP2 PUSH4 0xFFFFFFFF AND PUSH1 0xE0 SHL DUP2 MSTORE PUSH1 0x4 ADD PUSH1 0x20 PUSH1 0x40 MLOAD DUP1 DUP4 SUB DUP2 DUP7 DUP1 EXTCODESIZE ISZERO DUP1 ISZERO PUSH2 0xE21 JUMPI PUSH1 0x0 DUP1 REVERT JUMPDEST POP GAS DELEGATECALL ISZERO DUP1 ISZERO PUSH2 0xE35 JUMPI RETURNDATASIZE PUSH1 0x0 DUP1 RETURNDATACOPY RETURNDATASIZE PUSH1 0x0 REVERT JUMPDEST POP POP POP POP PUSH1 0x40 MLOAD RETURNDATASIZE PUSH1 0x20 DUP2 LT ISZERO PUSH2 0xE4B JUMPI PUSH1 0x0 DUP1 REVERT JUMPDEST POP MLOAD PUSH2 0x28C2 JUMP JUMPDEST SWAP1 POP SWAP1 JUMP JUMPDEST PUSH2 0xDD5 PUSH20 0x0 PUSH4 0x72EB67D0 PUSH1 0x40 MLOAD DUP2 PUSH4 0xFFFFFFFF AND PUSH1 0xE0 SHL DUP2 MSTORE PUSH1 0x4 ADD PUSH1 0x20 PUSH1 0x40 MLOAD DUP1 DUP4 SUB DUP2 DUP7 DUP1 EXTCODESIZE ISZERO DUP1 ISZERO PUSH2 0xDA3 JUMPI PUSH1 0x0 DUP1 REVERT JUMPDEST PUSH1 0x0 PUSH2 0xE52 PUSH20 0x0 PUSH4 0x8FD6B7C4 PUSH1 0x40 MLOAD DUP2 PUSH4 0xFFFFFFFF AND PUSH1 0xE0 SHL DUP2 MSTORE PUSH1 0x4 ADD PUSH1 0x20 PUSH1 0x40 MLOAD DUP1 DUP4 SUB DUP2 DUP7 DUP1 EXTCODESIZE ISZERO DUP1 ISZERO PUSH2 0xE21 JUMPI PUSH1 0x0 DUP1 REVERT JUMPDEST PUSH1 0x0 PUSH2 0xEF1 PUSH2 0x1E1E JUMP JUMPDEST DUP3 NOT AND SWAP1 POP PUSH2 0xEFF DUP2 PUSH2 0x1F4F JUMP JUMPDEST POP POP JUMP JUMPDEST PUSH1 0x0 PUSH2 0xE52 PUSH20 0x0 PUSH4 0x734B9600 PUSH1 0x40 MLOAD DUP2 PUSH4 0xFFFFFFFF AND PUSH1 0xE0 SHL DUP2 MSTORE PUSH1 0x4 ADD PUSH1 0x20 PUSH1 0x40 MLOAD DUP1 DUP4 SUB DUP2 DUP7 DUP1 EXTCODESIZE ISZERO DUP1 ISZERO PUSH2 0xE21 JUMPI PUSH1 0x0 DUP1 REVERT JUMPDEST PUSH1 0x0 PUSH2 0xE52 PUSH20 0x0 PUSH4 0x443FD598 PUSH1 0x40 MLOAD DUP2 PUSH4 0xFFFFFFFF AND PUSH1 0xE0 SHL DUP2 MSTORE PUSH1 0x4 ADD PUSH1 0x20 PUSH1 0x40 MLOAD DUP1 DUP4 SUB DUP2 DUP7 DUP1 EXTCODESIZE ISZERO DUP1 ISZERO PUSH2 0xE21 JUMPI PUSH1 0x0 DUP1 REVERT JUMPDEST PUSH1 0x0 PUSH2 0xE52 PUSH20 0x0 PUSH4 0xCA04595A PUSH1 0x40 MLOAD DUP2 PUSH4 0xFFFFFFFF AND PUSH1 0xE0 SHL DUP2 MSTORE PUSH1 0x4 ADD PUSH1 0x20 PUSH1 0x40 MLOAD DUP1 DUP4 SUB DUP2 DUP7 DUP1 EXTCODESIZE ISZERO DUP1 ISZERO PUSH2 0xE21 JUMPI PUSH1 0x0 DUP1 REVERT JUMPDEST PUSH1 0x0 PUSH2 0xE52 PUSH20 0x0 PUSH4 0x72EB67D0 PUSH1 0x40 MLOAD DUP2 PUSH4 0xFFFFFFFF AND PUSH1 0xE0 SHL DUP2 MSTORE PUSH1 0x4 ADD PUSH1 0x20 PUSH1 0x40 MLOAD DUP1 DUP4 SUB DUP2 DUP7 DUP1 EXTCODESIZE ISZERO DUP1 ISZERO PUSH2 0xE21 JUMPI PUSH1 0x0 DUP1 REVERT JUMPDEST PUSH2 0xDD5 PUSH20 0x0 PUSH4 0xCA04595A PUSH1 0x40 MLOAD DUP2 PUSH4 0xFFFFFFFF AND PUSH1 0xE0 SHL DUP2 MSTORE PUSH1 0x4 ADD PUSH1 0x20 PUSH1 0x40 MLOAD DUP1 DUP4 SUB DUP2 DUP7 DUP1 EXTCODESIZE ISZERO DUP1 ISZERO PUSH2 0xDA3 JUMPI PUSH1 0x0 DUP1 REVERT JUMPDEST PUSH2 0xDD5 PUSH20 0x0 PUSH4 0xD124BD13 PUSH1 0x40 MLOAD DUP2 PUSH4 0xFFFFFFFF AND PUSH1 0xE0 SHL DUP2 MSTORE PUSH1 0x4 ADD PUSH1 0x20 PUSH1 0x40 MLOAD DUP1 DUP4 SUB DUP2 DUP7 DUP1 EXTCODESIZE ISZERO DUP1 ISZERO PUSH2 0xDA3 JUMPI PUSH1 0x0 DUP1 REVERT JUMPDEST PUSH1 0x0 PUSH2 0xE52 PUSH20 0x0 PUSH4 0x29301CAC PUSH1 0x40 MLOAD DUP2 PUSH4 0xFFFFFFFF AND PUSH1 0xE0 SHL DUP2 MSTORE PUSH1 0x4 ADD PUSH1 0x20 PUSH1 0x40 MLOAD DUP1 DUP4 SUB DUP2 DUP7 DUP1 EXTCODESIZE ISZERO DUP1 ISZERO PUSH2 0xE21 JUMPI PUSH1 0x0 DUP1 REVERT JUMPDEST PUSH1 0x0 PUSH2 0xE52 PUSH20 0x0 PUSH4 0x521819F5 PUSH1 0x40 MLOAD DUP2 PUSH4 0xFFFFFFFF AND PUSH1 0xE0 SHL DUP2 MSTORE PUSH1 0x4 ADD PUSH1 0x20 PUSH1 0x40 MLOAD DUP1 DUP4 SUB DUP2 DUP7 DUP1 EXTCODESIZE ISZERO DUP1 ISZERO PUSH2 0xE21 JUMPI PUSH1 0x0 DUP1 REVERT JUMPDEST PUSH1 0x0 PUSH2 0x1151 PUSH2 0x2199 JUMP JUMPDEST SWAP1 POP DUP2 ISZERO PUSH2 0x11CF JUMPI PUSH20 0x0 PUSH4 0xE697ACE9 PUSH1 0x40 MLOAD DUP2 PUSH4 0xFFFFFFFF AND PUSH1 0xE0 SHL DUP2 MSTORE PUSH1 0x4 ADD PUSH1 0x20 PUSH1 0x40 MLOAD DUP1 DUP4 SUB DUP2 DUP7 DUP1 EXTCODESIZE ISZERO DUP1 ISZERO PUSH2 0x119D JUMPI PUSH1 0x0 DUP1 REVERT JUMPDEST POP GAS DELEGATECALL ISZERO DUP1 ISZERO PUSH2 0x11B1 JUMPI RETURNDATASIZE PUSH1 0x0 DUP1 RETURNDATACOPY RETURNDATASIZE PUSH1 0x0 REVERT JUMPDEST POP POP POP POP PUSH1 0x40 MLOAD RETURNDATASIZE PUSH1 0x20 DUP2 LT ISZERO PUSH2 0x11C7 JUMPI PUSH1 0x0 DUP1 REVERT JUMPDEST POP MLOAD OR PUSH2 0x1242 JUMP JUMPDEST PUSH20 0x0 PUSH4 0xE697ACE9 PUSH1 0x40 MLOAD DUP2 PUSH4 0xFFFFFFFF AND PUSH1 0xE0 SHL DUP2 MSTORE PUSH1 0x4 ADD PUSH1 0x20 PUSH1 0x40 MLOAD DUP1 DUP4 SUB DUP2 DUP7 DUP1 EXTCODESIZE ISZERO DUP1 ISZERO PUSH2 0x1213 JUMPI PUSH1 0x0 DUP1 REVERT JUMPDEST POP GAS DELEGATECALL ISZERO DUP1 ISZERO PUSH2 0x1227 JUMPI RETURNDATASIZE PUSH1 0x0 DUP1 RETURNDATACOPY RETURNDATASIZE PUSH1 0x0 REVERT JUMPDEST POP POP POP POP PUSH1 0x40 MLOAD RETURNDATASIZE PUSH1 0x20 DUP2 LT ISZERO PUSH2 0x123D JUMPI PUSH1 0x0 DUP1 REVERT JUMPDEST POP MLOAD NOT AND JUMPDEST PUSH2 0xEFF PUSH20 0x0 PUSH4 0x2FFDABC5 PUSH1 0x40 MLOAD DUP2 PUSH4 0xFFFFFFFF AND PUSH1 0xE0 SHL DUP2 MSTORE PUSH1 0x4 ADD PUSH1 0x20 PUSH1 0x40 MLOAD DUP1 DUP4 SUB DUP2 DUP7 DUP1 EXTCODESIZE ISZERO DUP1 ISZERO PUSH2 0xDA3 JUMPI PUSH1 0x0 DUP1 REVERT JUMPDEST PUSH1 0x0 PUSH2 0x1293 PUSH2 0x1E1E JUMP JUMPDEST DUP3 OR SWAP1 POP PUSH2 0xEFF DUP2 PUSH2 0x1F4F JUMP JUMPDEST PUSH1 0x0 PUSH2 0xE52 PUSH20 0x0 PUSH4 0xB255E9E4 PUSH1 0x40 MLOAD DUP2 PUSH4 0xFFFFFFFF AND PUSH1 0xE0 SHL DUP2 MSTORE PUSH1 0x4 ADD PUSH1 0x20 PUSH1 0x40 MLOAD DUP1 DUP4 SUB DUP2 DUP7 DUP1 EXTCODESIZE ISZERO DUP1 ISZERO PUSH2 0xE21 JUMPI PUSH1 0x0 DUP1 REVERT JUMPDEST PUSH1 0x0 PUSH1 0x7 NOT DUP4 AND DUP1 DUP5 SUB DUP3 PUSH2 0x12FD DUP4 PUSH2 0x2BEA JUMP JUMPDEST SWAP1 POP PUSH1 0x0 PUSH20 0x0 PUSH4 0xBF1924C5 DUP5 PUSH1 0x8 MUL PUSH1 0x1 PUSH1 0x1 PUSH1 0x40 SHL SUB AND PUSH1 0x1 DUP10 PUSH1 0x1 PUSH1 0x1 PUSH1 0x40 SHL SUB AND PUSH1 0x2 PUSH1 0x1 PUSH1 0x1 PUSH1 0x40 SHL SUB AND EXP SUB PUSH1 0x1 PUSH1 0x1 PUSH1 0x40 SHL SUB AND SWAP1 SHL PUSH1 0x40 MLOAD DUP3 PUSH4 0xFFFFFFFF AND PUSH1 0xE0 SHL DUP2 MSTORE PUSH1 0x4 ADD DUP1 DUP3 PUSH1 0x1 PUSH1 0x1 PUSH1 0x40 SHL SUB AND DUP2 MSTORE PUSH1 0x20 ADD SWAP2 POP POP PUSH1 0x20 PUSH1 0x40 MLOAD DUP1 DUP4 SUB DUP2 DUP7 DUP1 EXTCODESIZE ISZERO DUP1 ISZERO PUSH2 0x1389 JUMPI PUSH1 0x0 DUP1 REVERT JUMPDEST POP GAS DELEGATECALL ISZERO DUP1 ISZERO PUSH2 0x139D JUMPI RETURNDATASIZE PUSH1 0x0 DUP1 RETURNDATACOPY RETURNDATASIZE PUSH1 0x0 REVERT JUMPDEST POP POP POP POP PUSH1 0x40 MLOAD RETURNDATASIZE PUSH1 0x20 DUP2 LT ISZERO PUSH2 0x13B3 JUMPI PUSH1 0x0 DUP1 REVERT JUMPDEST POP MLOAD PUSH1 0x40 DUP1 MLOAD PUSH4 0xBF1924C5 PUSH1 0xE0 SHL DUP2 MSTORE PUSH1 0x1 PUSH1 0x1 PUSH1 0x40 SHL SUB DUP6 DUP5 AND DUP2 AND PUSH1 0x4 DUP4 ADD MSTORE SWAP2 MLOAD SWAP3 SWAP4 POP PUSH1 0x8 DUP7 MUL SWAP1 SWAP2 AND SWAP2 PUSH20 0x0 SWAP2 PUSH4 0xBF1924C5 SWAP2 PUSH1 0x24 DUP1 DUP4 ADD SWAP3 PUSH1 0x20 SWAP3 SWAP2 SWAP1 DUP3 SWAP1 SUB ADD DUP2 DUP7 DUP1 EXTCODESIZE ISZERO DUP1 ISZERO PUSH2 0x141D JUMPI PUSH1 0x0 DUP1 REVERT JUMPDEST POP GAS DELEGATECALL ISZERO DUP1 ISZERO PUSH2 0x1431 JUMPI RETURNDATASIZE PUSH1 0x0 DUP1 RETURNDATACOPY RETURNDATASIZE PUSH1 0x0 REVERT JUMPDEST POP POP POP POP PUSH1 0x40 MLOAD RETURNDATASIZE PUSH1 0x20 DUP2 LT ISZERO PUSH2 0x1447 JUMPI PUSH1 0x0 DUP1 REVERT JUMPDEST POP MLOAD PUSH1 0x1 PUSH1 0x1 PUSH1 0x40 SHL SUB AND SWAP1 SHR SWAP8 SWAP7 POP POP POP POP POP POP POP JUMP JUMPDEST PUSH1 0x0 PUSH2 0xE52 PUSH20 0x0 PUSH4 0x7047F4DF PUSH1 0x40 MLOAD DUP2 PUSH4 0xFFFFFFFF AND PUSH1 0xE0 SHL DUP2 MSTORE PUSH1 0x4 ADD PUSH1 0x20 PUSH1 0x40 MLOAD DUP1 DUP4 SUB DUP2 DUP7 DUP1 EXTCODESIZE ISZERO DUP1 ISZERO PUSH2 0xE21 JUMPI PUSH1 0x0 DUP1 REVERT JUMPDEST PUSH2 0x14B1 DUP2 PUSH2 0x2272 JUMP JUMPDEST PUSH2 0xDD5 PUSH1 0x0 NOT PUSH2 0x2694 JUMP JUMPDEST PUSH1 0x0 PUSH2 0xE52 PUSH20 0x0 PUSH4 0x45827F69 PUSH1 0x40 MLOAD DUP2 PUSH4 0xFFFFFFFF AND PUSH1 0xE0 SHL DUP2 MSTORE PUSH1 0x4 ADD PUSH1 0x20 PUSH1 0x40 MLOAD DUP1 DUP4 SUB DUP2 DUP7 DUP1 EXTCODESIZE ISZERO DUP1 ISZERO PUSH2 0xE21 JUMPI PUSH1 0x0 DUP1 REVERT JUMPDEST PUSH1 0x1 PUSH1 0x1 PUSH1 0x40 SHL SUB SWAP2 SWAP1 SWAP2 AND PUSH1 0x0 SWAP1 DUP2 MSTORE PUSH1 0x4 PUSH1 0x20 MSTORE PUSH1 0x40 SWAP1 KECCAK256 DUP1 SLOAD PUSH8 0xFFFFFFFFFFFFFFFF NOT AND PUSH1 0xC0 SWAP3 SWAP1 SWAP3 SHR SWAP2 SWAP1 SWAP2 OR SWAP1 SSTORE JUMP JUMPDEST PUSH2 0xDD5 PUSH20 0x0 PUSH4 0xE59CB574 PUSH1 0x40 MLOAD DUP2 PUSH4 0xFFFFFFFF AND PUSH1 0xE0 SHL DUP2 MSTORE PUSH1 0x4 ADD PUSH1 0x20 PUSH1 0x40 MLOAD DUP1 DUP4 SUB DUP2 DUP7 DUP1 EXTCODESIZE ISZERO DUP1 ISZERO PUSH2 0xDA3 JUMPI PUSH1 0x0 DUP1 REVERT JUMPDEST PUSH2 0xDD5 PUSH20 0x0 PUSH4 0x734B9600 PUSH1 0x40 MLOAD DUP2 PUSH4 0xFFFFFFFF AND PUSH1 0xE0 SHL DUP2 MSTORE PUSH1 0x4 ADD PUSH1 0x20 PUSH1 0x40 MLOAD DUP1 DUP4 SUB DUP2 DUP7 DUP1 EXTCODESIZE ISZERO DUP1 ISZERO PUSH2 0xDA3 JUMPI PUSH1 0x0 DUP1 REVERT JUMPDEST PUSH2 0xDD5 PUSH20 0x0 PUSH4 0x9FF9932B PUSH1 0x40 MLOAD DUP2 PUSH4 0xFFFFFFFF AND PUSH1 0xE0 SHL DUP2 MSTORE PUSH1 0x4 ADD PUSH1 0x20 PUSH1 0x40 MLOAD DUP1 DUP4 SUB DUP2 DUP7 DUP1 EXTCODESIZE ISZERO DUP1 ISZERO PUSH2 0xDA3 JUMPI PUSH1 0x0 DUP1 REVERT JUMPDEST PUSH1 0x0 PUSH2 0xE52 PUSH20 0x0 PUSH4 0xE2E2E712 PUSH1 0x40 MLOAD DUP2 PUSH4 0xFFFFFFFF AND PUSH1 0xE0 SHL DUP2 MSTORE PUSH1 0x4 ADD PUSH1 0x20 PUSH1 0x40 MLOAD DUP1 DUP4 SUB DUP2 DUP7 DUP1 EXTCODESIZE ISZERO DUP1 ISZERO PUSH2 0xE21 JUMPI PUSH1 0x0 DUP1 REVERT JUMPDEST PUSH2 0xDD5 PUSH20 0x0 PUSH4 0xA43E290F PUSH1 0x40 MLOAD DUP2 PUSH4 0xFFFFFFFF AND PUSH1 0xE0 SHL DUP2 MSTORE PUSH1 0x4 ADD PUSH1 0x20 PUSH1 0x40 MLOAD DUP1 DUP4 SUB DUP2 DUP7 DUP1 EXTCODESIZE ISZERO DUP1 ISZERO PUSH2 0xDA3 JUMPI PUSH1 0x0 DUP1 REVERT JUMPDEST PUSH1 0x0 PUSH2 0xE52 PUSH20 0x0 PUSH4 0x92F5AA22 PUSH1 0x40 MLOAD DUP2 PUSH4 0xFFFFFFFF AND PUSH1 0xE0 SHL DUP2 MSTORE PUSH1 0x4 ADD PUSH1 0x20 PUSH1 0x40 MLOAD DUP1 DUP4 SUB DUP2 DUP7 DUP1 EXTCODESIZE ISZERO DUP1 ISZERO PUSH2 0xE21 JUMPI PUSH1 0x0 DUP1 REVERT JUMPDEST PUSH1 0x0 PUSH2 0x16F6 DUP3 PUSH1 0x8 MUL PUSH2 0x28C2 JUMP JUMPDEST SWAP3 SWAP2 POP POP JUMP JUMPDEST PUSH1 0x0 PUSH2 0xE52 PUSH20 0x0 PUSH4 0x87098135 PUSH1 0x40 MLOAD DUP2 PUSH4 0xFFFFFFFF AND PUSH1 0xE0 SHL DUP2 MSTORE PUSH1 0x4 ADD PUSH1 0x20 PUSH1 0x40 MLOAD DUP1 DUP4 SUB DUP2 DUP7 DUP1 EXTCODESIZE ISZERO DUP1 ISZERO PUSH2 0xE21 JUMPI PUSH1 0x0 DUP1 REVERT JUMPDEST PUSH1 0x0 PUSH2 0xE52 PUSH20 0x0 PUSH4 0xD41A5B59 PUSH1 0x40 MLOAD DUP2 PUSH4 0xFFFFFFFF AND PUSH1 0xE0 SHL DUP2 MSTORE PUSH1 0x4 ADD PUSH1 0x20 PUSH1 0x40 MLOAD DUP1 DUP4 SUB DUP2 DUP7 DUP1 EXTCODESIZE ISZERO DUP1 ISZERO PUSH2 0xE21 JUMPI PUSH1 0x0 DUP1 REVERT JUMPDEST PUSH1 0x0 PUSH2 0xE52 PUSH20 0x0 PUSH4 0xE59CB574 PUSH1 0x40 MLOAD DUP2 PUSH4 0xFFFFFFFF AND PUSH1 0xE0 SHL DUP2 MSTORE PUSH1 0x4 ADD PUSH1 0x20 PUSH1 0x40 MLOAD DUP1 DUP4 SUB DUP2 DUP7 DUP1 EXTCODESIZE ISZERO DUP1 ISZERO PUSH2 0xE21 JUMPI PUSH1 0x0 DUP1 REVERT JUMPDEST PUSH1 0x0 PUSH2 0xE52 PUSH20 0x0 PUSH4 0xDA3E8D7B PUSH1 0x40 MLOAD DUP2 PUSH4 0xFFFFFFFF AND PUSH1 0xE0 SHL DUP2 MSTORE PUSH1 0x4 ADD PUSH1 0x20 PUSH1 0x40 MLOAD DUP1 DUP4 SUB DUP2 DUP7 DUP1 EXTCODESIZE ISZERO DUP1 ISZERO PUSH2 0xE21 JUMPI PUSH1 0x0 DUP1 REVERT JUMPDEST PUSH2 0xEFF DUP3 PUSH1 0x8 MUL DUP3 PUSH2 0x1B7A JUMP JUMPDEST PUSH1 0x0 PUSH2 0xE52 PUSH20 0x0 PUSH4 0x6299EA3F PUSH1 0x40 MLOAD DUP2 PUSH4 0xFFFFFFFF AND PUSH1 0xE0 SHL DUP2 MSTORE PUSH1 0x4 ADD PUSH1 0x20 PUSH1 0x40 MLOAD DUP1 DUP4 SUB DUP2 DUP7 DUP1 EXTCODESIZE ISZERO DUP1 ISZERO PUSH2 0xE21 JUMPI PUSH1 0x0 DUP1 REVERT JUMPDEST PUSH2 0xDD5 PUSH20 0x0 PUSH4 0x45827F69 PUSH1 0x40 MLOAD DUP2 PUSH4 0xFFFFFFFF AND PUSH1 0xE0 SHL DUP2 MSTORE PUSH1 0x4 ADD PUSH1 0x20 PUSH1 0x40 MLOAD DUP1 DUP4 SUB DUP2 DUP7 DUP1 EXTCODESIZE ISZERO DUP1 ISZERO PUSH2 0xDA3 JUMPI PUSH1 0x0 DUP1 REVERT JUMPDEST PUSH2 0xDD5 PUSH20 0x0 PUSH4 0xB255E9E4 PUSH1 0x40 MLOAD DUP2 PUSH4 0xFFFFFFFF AND PUSH1 0xE0 SHL DUP2 MSTORE PUSH1 0x4 ADD PUSH1 0x20 PUSH1 0x40 MLOAD DUP1 DUP4 SUB DUP2 DUP7 DUP1 EXTCODESIZE ISZERO DUP1 ISZERO PUSH2 0xDA3 JUMPI PUSH1 0x0 DUP1 REVERT JUMPDEST PUSH1 0x0 PUSH2 0xE52 PUSH20 0x0 PUSH4 0x4A4C3510 PUSH1 0x40 MLOAD DUP2 PUSH4 0xFFFFFFFF AND PUSH1 0xE0 SHL DUP2 MSTORE PUSH1 0x4 ADD PUSH1 0x20 PUSH1 0x40 MLOAD DUP1 DUP4 SUB DUP2 DUP7 DUP1 EXTCODESIZE ISZERO DUP1 ISZERO PUSH2 0xE21 JUMPI PUSH1 0x0 DUP1 REVERT JUMPDEST PUSH1 0x0 PUSH2 0xE52 PUSH20 0x0 PUSH4 0xC585EEDE PUSH1 0x40 MLOAD DUP2 PUSH4 0xFFFFFFFF AND PUSH1 0xE0 SHL DUP2 MSTORE PUSH1 0x4 ADD PUSH1 0x20 PUSH1 0x40 MLOAD DUP1 DUP4 SUB DUP2 DUP7 DUP1 EXTCODESIZE ISZERO DUP1 ISZERO PUSH2 0xE21 JUMPI PUSH1 0x0 DUP1 REVERT JUMPDEST PUSH1 0x0 PUSH20 0x0 PUSH4 0x17A0CAC3 PUSH1 0x40 MLOAD DUP2 PUSH4 0xFFFFFFFF AND PUSH1 0xE0 SHL DUP2 MSTORE PUSH1 0x4 ADD PUSH1 0x20 PUSH1 0x40 MLOAD DUP1 DUP4 SUB DUP2 DUP7 DUP1 EXTCODESIZE ISZERO DUP1 ISZERO PUSH2 0x19DC JUMPI PUSH1 0x0 DUP1 REVERT JUMPDEST POP GAS DELEGATECALL ISZERO DUP1 ISZERO PUSH2 0x19F0 JUMPI RETURNDATASIZE PUSH1 0x0 DUP1 RETURNDATACOPY RETURNDATASIZE PUSH1 0x0 REVERT JUMPDEST POP POP POP POP PUSH1 0x40 MLOAD RETURNDATASIZE PUSH1 0x20 DUP2 LT ISZERO PUSH2 0x1A06 JUMPI PUSH1 0x0 DUP1 REVERT JUMPDEST POP MLOAD PUSH1 0x40 DUP1 MLOAD PUSH4 0x51A2AB41 PUSH1 0xE1 SHL DUP2 MSTORE SWAP1 MLOAD PUSH1 0x1 PUSH1 0x1 PUSH1 0x40 SHL SUB SWAP1 SWAP3 AND SWAP2 PUSH20 0x0 SWAP2 PUSH4 0xA3455682 SWAP2 PUSH1 0x4 DUP1 DUP4 ADD SWAP3 PUSH1 0x20 SWAP3 SWAP2 SWAP1 DUP3 SWAP1 SUB ADD DUP2 DUP7 DUP1 EXTCODESIZE ISZERO DUP1 ISZERO PUSH2 0x1A5F JUMPI PUSH1 0x0 DUP1 REVERT JUMPDEST POP GAS DELEGATECALL ISZERO DUP1 ISZERO PUSH2 0x1A73 JUMPI RETURNDATASIZE PUSH1 0x0 DUP1 RETURNDATACOPY RETURNDATASIZE PUSH1 0x0 REVERT JUMPDEST POP POP POP POP PUSH1 0x40 MLOAD RETURNDATASIZE PUSH1 0x20 DUP2 LT ISZERO PUSH2 0x1A89 JUMPI PUSH1 0x0 DUP1 REVERT JUMPDEST POP MLOAD PUSH1 0x40 DUP1 MLOAD PUSH4 0x2FFDABC5 PUSH1 0xE0 SHL DUP2 MSTORE SWAP1 MLOAD PUSH2 0x1ADB SWAP2 PUSH20 0x0 SWAP2 PUSH4 0x2FFDABC5 SWAP2 PUSH1 0x4 DUP1 DUP3 ADD SWAP3 PUSH1 0x20 SWAP3 SWAP1 SWAP2 SWAP1 DUP3 SWAP1 SUB ADD DUP2 DUP7 DUP1 EXTCODESIZE ISZERO DUP1 ISZERO PUSH2 0xE21 JUMPI PUSH1 0x0 DUP1 REVERT JUMPDEST AND PUSH1 0x1 PUSH1 0x1 PUSH1 0x40 SHL SUB AND SWAP1 SHR SWAP1 POP SWAP1 JUMP JUMPDEST PUSH2 0xDD5 PUSH20 0x0 PUSH4 0xE80D1751 PUSH1 0x40 MLOAD DUP2 PUSH4 0xFFFFFFFF AND PUSH1 0xE0 SHL DUP2 MSTORE PUSH1 0x4 ADD PUSH1 0x20 PUSH1 0x40 MLOAD DUP1 DUP4 SUB DUP2 DUP7 DUP1 EXTCODESIZE ISZERO DUP1 ISZERO PUSH2 0xDA3 JUMPI PUSH1 0x0 DUP1 REVERT JUMPDEST PUSH2 0xDD5 PUSH20 0x0 PUSH4 0x7047F4DF PUSH1 0x40 MLOAD DUP2 PUSH4 0xFFFFFFFF AND PUSH1 0xE0 SHL DUP2 MSTORE PUSH1 0x4 ADD PUSH1 0x20 PUSH1 0x40 MLOAD DUP1 DUP4 SUB DUP2 DUP7 DUP1 EXTCODESIZE ISZERO DUP1 ISZERO PUSH2 0xDA3 JUMPI PUSH1 0x0 DUP1 REVERT JUMPDEST PUSH1 0x0 PUSH20 0x0 PUSH4 0xBF1924C5 DUP4 PUSH1 0x40 MLOAD DUP3 PUSH4 0xFFFFFFFF AND PUSH1 0xE0 SHL DUP2 MSTORE PUSH1 0x4 ADD DUP1 DUP3 PUSH1 0x1 PUSH1 0x1 PUSH1 0x40 SHL SUB AND DUP2 MSTORE PUSH1 0x20 ADD SWAP2 POP POP PUSH1 0x20 PUSH1 0x40 MLOAD DUP1 DUP4 SUB DUP2 DUP7 DUP1 EXTCODESIZE ISZERO DUP1 ISZERO PUSH2 0x1BD4 JUMPI PUSH1 0x0 DUP1 REVERT JUMPDEST POP GAS DELEGATECALL ISZERO DUP1 ISZERO PUSH2 0x1BE8 JUMPI RETURNDATASIZE PUSH1 0x0 DUP1 RETURNDATACOPY RETURNDATASIZE PUSH1 0x0 REVERT JUMPDEST POP POP POP POP PUSH1 0x40 MLOAD RETURNDATASIZE PUSH1 0x20 DUP2 LT ISZERO PUSH2 0x1BFE JUMPI PUSH1 0x0 DUP1 REVERT JUMPDEST POP MLOAD PUSH1 0x1 PUSH1 0x1 PUSH1 0x40 SHL SUB SWAP4 DUP5 AND PUSH1 0x0 SWAP1 DUP2 MSTORE PUSH1 0x4 PUSH1 0x20 MSTORE PUSH1 0x40 SWAP1 KECCAK256 DUP1 SLOAD PUSH8 0xFFFFFFFFFFFFFFFF NOT AND SWAP5 SWAP1 SWAP2 AND SWAP4 SWAP1 SWAP4 OR SWAP1 SWAP3 SSTORE POP POP JUMP JUMPDEST PUSH1 0x0 PUSH2 0xE52 PUSH20 0x0 PUSH4 0xD124BD13 PUSH1 0x40 MLOAD DUP2 PUSH4 0xFFFFFFFF AND PUSH1 0xE0 SHL DUP2 MSTORE PUSH1 0x4 ADD PUSH1 0x20 PUSH1 0x40 MLOAD DUP1 DUP4 SUB DUP2 DUP7 DUP1 EXTCODESIZE ISZERO DUP1 ISZERO PUSH2 0xE21 JUMPI PUSH1 0x0 DUP1 REVERT JUMPDEST PUSH1 0x0 PUSH20 0x0 PUSH4 0x656B151F PUSH1 0x40 MLOAD DUP2 PUSH4 0xFFFFFFFF AND PUSH1 0xE0 SHL DUP2 MSTORE PUSH1 0x4 ADD PUSH1 0x20 PUSH1 0x40 MLOAD DUP1 DUP4 SUB DUP2 DUP7 DUP1 EXTCODESIZE ISZERO DUP1 ISZERO PUSH2 0x1CC4 JUMPI PUSH1 0x0 DUP1 REVERT JUMPDEST POP GAS DELEGATECALL ISZERO DUP1 ISZERO PUSH2 0x1CD8 JUMPI RETURNDATASIZE PUSH1 0x0 DUP1 RETURNDATACOPY RETURNDATASIZE PUSH1 0x0 REVERT JUMPDEST POP POP POP POP PUSH1 0x40 MLOAD RETURNDATASIZE PUSH1 0x20 DUP2 LT ISZERO PUSH2 0x1CEE JUMPI PUSH1 0x0 DUP1 REVERT JUMPDEST POP MLOAD PUSH1 0x40 DUP1 MLOAD PUSH4 0xFD198E55 PUSH1 0xE0 SHL DUP2 MSTORE SWAP1 MLOAD PUSH1 0x1 PUSH1 0x1 PUSH1 0x40 SHL SUB SWAP1 SWAP3 AND SWAP2 PUSH20 0x0 SWAP2 PUSH4 0xFD198E55 SWAP2 PUSH1 0x4 DUP1 DUP4 ADD SWAP3 PUSH1 0x20 SWAP3 SWAP2 SWAP1 DUP3 SWAP1 SUB ADD DUP2 DUP7 DUP1 EXTCODESIZE ISZERO DUP1 ISZERO PUSH2 0x1A5F JUMPI PUSH1 0x0 DUP1 REVERT JUMPDEST PUSH1 0x0 PUSH2 0xE52 PUSH20 0x0 PUSH4 0x9FF9932B PUSH1 0x40 MLOAD DUP2 PUSH4 0xFFFFFFFF AND PUSH1 0xE0 SHL DUP2 MSTORE PUSH1 0x4 ADD PUSH1 0x20 PUSH1 0x40 MLOAD DUP1 DUP4 SUB DUP2 DUP7 DUP1 EXTCODESIZE ISZERO DUP1 ISZERO PUSH2 0xE21 JUMPI PUSH1 0x0 DUP1 REVERT JUMPDEST PUSH2 0xDD5 PUSH20 0x0 PUSH4 0x29301CAC PUSH1 0x40 MLOAD DUP2 PUSH4 0xFFFFFFFF AND PUSH1 0xE0 SHL DUP2 MSTORE PUSH1 0x4 ADD PUSH1 0x20 PUSH1 0x40 MLOAD DUP1 DUP4 SUB DUP2 DUP7 DUP1 EXTCODESIZE ISZERO DUP1 ISZERO PUSH2 0xDA3 JUMPI PUSH1 0x0 DUP1 REVERT JUMPDEST PUSH2 0xDD5 PUSH20 0x0 PUSH4 0x8FD6B7C4 PUSH1 0x40 MLOAD DUP2 PUSH4 0xFFFFFFFF AND PUSH1 0xE0 SHL DUP2 MSTORE PUSH1 0x4 ADD PUSH1 0x20 PUSH1 0x40 MLOAD DUP1 DUP4 SUB DUP2 DUP7 DUP1 EXTCODESIZE ISZERO DUP1 ISZERO PUSH2 0xDA3 JUMPI PUSH1 0x0 DUP1 REVERT JUMPDEST PUSH1 0x0 PUSH2 0xE52 PUSH20 0x0 PUSH4 0x520AFF6C PUSH1 0x40 MLOAD DUP2 PUSH4 0xFFFFFFFF AND PUSH1 0xE0 SHL DUP2 MSTORE PUSH1 0x4 ADD PUSH1 0x20 PUSH1 0x40 MLOAD DUP1 DUP4 SUB DUP2 DUP7 DUP1 EXTCODESIZE ISZERO DUP1 ISZERO PUSH2 0xE21 JUMPI PUSH1 0x0 DUP1 REVERT JUMPDEST POP POP POP JUMP JUMPDEST PUSH1 0x0 PUSH2 0xE52 PUSH20 0x0 PUSH4 0x2935B8CE PUSH1 0x40 MLOAD DUP2 PUSH4 0xFFFFFFFF AND PUSH1 0xE0 SHL DUP2 MSTORE PUSH1 0x4 ADD PUSH1 0x20 PUSH1 0x40 MLOAD DUP1 DUP4 SUB DUP2 DUP7 DUP1 EXTCODESIZE ISZERO DUP1 ISZERO PUSH2 0xE21 JUMPI PUSH1 0x0 DUP1 REVERT JUMPDEST PUSH1 0x0 PUSH2 0x1EBF PUSH2 0x2199 JUMP JUMPDEST SWAP1 POP DUP2 ISZERO PUSH2 0x1F0B JUMPI PUSH20 0x0 PUSH4 0xFD198E55 PUSH1 0x40 MLOAD DUP2 PUSH4 0xFFFFFFFF AND PUSH1 0xE0 SHL DUP2 MSTORE PUSH1 0x4 ADD PUSH1 0x20 PUSH1 0x40 MLOAD DUP1 DUP4 SUB DUP2 DUP7 DUP1 EXTCODESIZE ISZERO DUP1 ISZERO PUSH2 0x119D JUMPI PUSH1 0x0 DUP1 REVERT JUMPDEST PUSH20 0x0 PUSH4 0xFD198E55 PUSH1 0x40 MLOAD DUP2 PUSH4 0xFFFFFFFF AND PUSH1 0xE0 SHL DUP2 MSTORE PUSH1 0x4 ADD PUSH1 0x20 PUSH1 0x40 MLOAD DUP1 DUP4 SUB DUP2 DUP7 DUP1 EXTCODESIZE ISZERO DUP1 ISZERO PUSH2 0x1213 JUMPI PUSH1 0x0 DUP1 REVERT JUMPDEST PUSH2 0xDD5 PUSH20 0x0 PUSH4 0x520AFF6C PUSH1 0x40 MLOAD DUP2 PUSH4 0xFFFFFFFF AND PUSH1 0xE0 SHL DUP2 MSTORE PUSH1 0x4 ADD PUSH1 0x20 PUSH1 0x40 MLOAD DUP1 DUP4 SUB DUP2 DUP7 DUP1 EXTCODESIZE ISZERO DUP1 ISZERO PUSH2 0xDA3 JUMPI PUSH1 0x0 DUP1 REVERT JUMPDEST PUSH2 0xDD5 PUSH20 0x0 PUSH4 0x443FD598 PUSH1 0x40 MLOAD DUP2 PUSH4 0xFFFFFFFF AND PUSH1 0xE0 SHL DUP2 MSTORE PUSH1 0x4 ADD PUSH1 0x20 PUSH1 0x40 MLOAD DUP1 DUP4 SUB DUP2 DUP7 DUP1 EXTCODESIZE ISZERO DUP1 ISZERO PUSH2 0xDA3 JUMPI PUSH1 0x0 DUP1 REVERT JUMPDEST PUSH1 0x0 PUSH2 0xE52 PUSH20 0x0 PUSH4 0x9A59734C PUSH1 0x40 MLOAD DUP2 PUSH4 0xFFFFFFFF AND PUSH1 0xE0 SHL DUP2 MSTORE PUSH1 0x4 ADD PUSH1 0x20 PUSH1 0x40 MLOAD DUP1 DUP4 SUB DUP2 DUP7 DUP1 EXTCODESIZE ISZERO DUP1 ISZERO PUSH2 0xE21 JUMPI PUSH1 0x0 DUP1 REVERT JUMPDEST PUSH2 0xDD5 PUSH20 0x0 PUSH4 0xA279D71 PUSH1 0x40 MLOAD DUP2 PUSH4 0xFFFFFFFF AND PUSH1 0xE0 SHL DUP2 MSTORE PUSH1 0x4 ADD PUSH1 0x20 PUSH1 0x40 MLOAD DUP1 DUP4 SUB DUP2 DUP7 DUP1 EXTCODESIZE ISZERO DUP1 ISZERO PUSH2 0xDA3 JUMPI PUSH1 0x0 DUP1 REVERT JUMPDEST PUSH1 0x0 PUSH2 0x2077 PUSH2 0x2199 JUMP JUMPDEST SWAP1 POP DUP2 ISZERO PUSH2 0x20C3 JUMPI PUSH20 0x0 PUSH4 0xA3455682 PUSH1 0x40 MLOAD DUP2 PUSH4 0xFFFFFFFF AND PUSH1 0xE0 SHL DUP2 MSTORE PUSH1 0x4 ADD PUSH1 0x20 PUSH1 0x40 MLOAD DUP1 DUP4 SUB DUP2 DUP7 DUP1 EXTCODESIZE ISZERO DUP1 ISZERO PUSH2 0x119D JUMPI PUSH1 0x0 DUP1 REVERT JUMPDEST PUSH20 0x0 PUSH4 0xA3455682 PUSH1 0x40 MLOAD DUP2 PUSH4 0xFFFFFFFF AND PUSH1 0xE0 SHL DUP2 MSTORE PUSH1 0x4 ADD PUSH1 0x20 PUSH1 0x40 MLOAD DUP1 DUP4 SUB DUP2 DUP7 DUP1 EXTCODESIZE ISZERO DUP1 ISZERO PUSH2 0x1213 JUMPI PUSH1 0x0 DUP1 REVERT JUMPDEST PUSH1 0x0 PUSH2 0xE52 PUSH20 0x0 PUSH4 0x42DB3667 PUSH1 0x40 MLOAD DUP2 PUSH4 0xFFFFFFFF AND PUSH1 0xE0 SHL DUP2 MSTORE PUSH1 0x4 ADD PUSH1 0x20 PUSH1 0x40 MLOAD DUP1 DUP4 SUB DUP2 DUP7 DUP1 EXTCODESIZE ISZERO DUP1 ISZERO PUSH2 0xE21 JUMPI PUSH1 0x0 DUP1 REVERT JUMPDEST PUSH1 0x0 PUSH2 0xE52 PUSH20 0x0 PUSH4 0x929127DB PUSH1 0x40 MLOAD DUP2 PUSH4 0xFFFFFFFF AND PUSH1 0xE0 SHL DUP2 MSTORE PUSH1 0x4 ADD PUSH1 0x20 PUSH1 0x40 MLOAD DUP1 DUP4 SUB DUP2 DUP7 DUP1 EXTCODESIZE ISZERO DUP1 ISZERO PUSH2 0xE21 JUMPI PUSH1 0x0 DUP1 REVERT JUMPDEST PUSH1 0x0 PUSH2 0xE52 PUSH20 0x0 PUSH4 0x2FFDABC5 PUSH1 0x40 MLOAD DUP2 PUSH4 0xFFFFFFFF AND PUSH1 0xE0 SHL DUP2 MSTORE PUSH1 0x4 ADD PUSH1 0x20 PUSH1 0x40 MLOAD DUP1 DUP4 SUB DUP2 DUP7 DUP1 EXTCODESIZE ISZERO DUP1 ISZERO PUSH2 0xE21 JUMPI PUSH1 0x0 DUP1 REVERT JUMPDEST PUSH2 0xDD5 PUSH20 0x0 PUSH4 0x6630AD87 PUSH1 0x40 MLOAD DUP2 PUSH4 0xFFFFFFFF AND PUSH1 0xE0 SHL DUP2 MSTORE PUSH1 0x4 ADD PUSH1 0x20 PUSH1 0x40 MLOAD DUP1 DUP4 SUB DUP2 DUP7 DUP1 EXTCODESIZE ISZERO DUP1 ISZERO PUSH2 0xDA3 JUMPI PUSH1 0x0 DUP1 REVERT JUMPDEST PUSH1 0x0 PUSH2 0xE52 PUSH20 0x0 PUSH4 0xE80D1751 PUSH1 0x40 MLOAD DUP2 PUSH4 0xFFFFFFFF AND PUSH1 0xE0 SHL DUP2 MSTORE PUSH1 0x4 ADD PUSH1 0x20 PUSH1 0x40 MLOAD DUP1 DUP4 SUB DUP2 DUP7 DUP1 EXTCODESIZE ISZERO DUP1 ISZERO PUSH2 0xE21 JUMPI PUSH1 0x0 DUP1 REVERT JUMPDEST PUSH1 0x0 PUSH2 0x227C PUSH2 0x2199 JUMP JUMPDEST SWAP1 POP PUSH20 0x0 PUSH4 0x910A5247 PUSH1 0x40 MLOAD DUP2 PUSH4 0xFFFFFFFF AND PUSH1 0xE0 SHL DUP2 MSTORE PUSH1 0x4 ADD PUSH1 0x20 PUSH1 0x40 MLOAD DUP1 DUP4 SUB DUP2 DUP7 DUP1 EXTCODESIZE ISZERO DUP1 ISZERO PUSH2 0x22C2 JUMPI PUSH1 0x0 DUP1 REVERT JUMPDEST POP GAS DELEGATECALL ISZERO DUP1 ISZERO PUSH2 0x22D6 JUMPI RETURNDATASIZE PUSH1 0x0 DUP1 RETURNDATACOPY RETURNDATASIZE PUSH1 0x0 REVERT JUMPDEST POP POP POP POP PUSH1 0x40 MLOAD RETURNDATASIZE PUSH1 0x20 DUP2 LT ISZERO PUSH2 0x22EC JUMPI PUSH1 0x0 DUP1 REVERT JUMPDEST POP MLOAD PUSH1 0x40 DUP1 MLOAD PUSH4 0x317D2BB5 PUSH1 0xE0 SHL DUP2 MSTORE SWAP1 MLOAD PUSH1 0x1 PUSH1 0x1 PUSH1 0x40 SHL SUB DUP6 DUP2 AND SWAP4 AND SWAP3 SWAP1 SWAP3 SHL SWAP2 PUSH20 0x0 SWAP2 PUSH4 0x317D2BB5 SWAP2 PUSH1 0x4 DUP1 DUP4 ADD SWAP3 PUSH1 0x20 SWAP3 SWAP2 SWAP1 DUP3 SWAP1 SUB ADD DUP2 DUP7 DUP1 EXTCODESIZE ISZERO DUP1 ISZERO PUSH2 0x234B JUMPI PUSH1 0x0 DUP1 REVERT JUMPDEST POP GAS DELEGATECALL ISZERO DUP1 ISZERO PUSH2 0x235F JUMPI RETURNDATASIZE PUSH1 0x0 DUP1 RETURNDATACOPY RETURNDATASIZE PUSH1 0x0 REVERT JUMPDEST POP POP POP POP PUSH1 0x40 MLOAD RETURNDATASIZE PUSH1 0x20 DUP2 LT ISZERO PUSH2 0x2375 JUMPI PUSH1 0x0 DUP1 REVERT JUMPDEST POP MLOAD PUSH1 0x40 DUP1 MLOAD PUSH4 0x2FFDABC5 PUSH1 0xE0 SHL DUP2 MSTORE SWAP1 MLOAD SWAP2 NOT SWAP4 SWAP1 SWAP4 AND SWAP2 SWAP1 SWAP2 OR SWAP2 PUSH2 0xEFF SWAP2 PUSH20 0x0 SWAP2 PUSH4 0x2FFDABC5 SWAP2 PUSH1 0x4 DUP1 DUP4 ADD SWAP3 PUSH1 0x20 SWAP3 SWAP2 SWAP1 DUP3 SWAP1 SUB ADD DUP2 DUP7 DUP1 EXTCODESIZE ISZERO DUP1 ISZERO PUSH2 0xDA3 JUMPI PUSH1 0x0 DUP1 REVERT JUMPDEST PUSH4 0x40008000 PUSH1 0x0 SWAP1 DUP2 MSTORE PUSH1 0x4 PUSH1 0x20 DUP2 DUP2 MSTORE PUSH32 0x1F90FF9D73E8A6C31AA68CE092EE24C1FC49BC29C8525B76E90C710641779CEA SLOAD PUSH1 0x40 DUP1 MLOAD PUSH4 0xBF1924C5 PUSH1 0xE0 SHL DUP2 MSTORE PUSH1 0x1 PUSH1 0x1 PUSH1 0x40 SHL SUB SWAP1 SWAP3 AND SWAP4 DUP3 ADD DUP5 SWAP1 MSTORE MLOAD DUP5 SWAP3 PUSH20 0x0 SWAP3 PUSH4 0xBF1924C5 SWAP3 PUSH1 0x24 DUP1 DUP4 ADD SWAP4 SWAP3 DUP3 SWAP1 SUB ADD DUP2 DUP7 DUP1 EXTCODESIZE ISZERO DUP1 ISZERO PUSH2 0x245D JUMPI PUSH1 0x0 DUP1 REVERT JUMPDEST POP GAS DELEGATECALL ISZERO DUP1 ISZERO PUSH2 0x2471 JUMPI RETURNDATASIZE PUSH1 0x0 DUP1 RETURNDATACOPY RETURNDATASIZE PUSH1 0x0 REVERT JUMPDEST POP POP POP POP PUSH1 0x40 MLOAD RETURNDATASIZE PUSH1 0x20 DUP2 LT ISZERO PUSH2 0x2487 JUMPI PUSH1 0x0 DUP1 REVERT JUMPDEST POP MLOAD PUSH1 0x0 SLOAD PUSH1 0x40 DUP1 MLOAD SWAP2 DUP3 MSTORE PUSH6 0x7FFFFFFFFFFF PUSH1 0x1 DUP5 DUP2 SHR SWAP2 SWAP1 SWAP2 AND PUSH1 0x20 DUP5 ADD DUP2 SWAP1 MSTORE DUP2 DUP6 AND SWAP2 DUP3 EQ DUP5 DUP5 ADD DUP2 SWAP1 MSTORE SWAP3 MLOAD SWAP5 SWAP7 POP SWAP2 SWAP5 POP SWAP3 SWAP1 SWAP2 PUSH32 0x23A6DBF84A188125A7E041CF278E49EBF25ABC3565D481F0728681181A01B1D4 SWAP2 SWAP1 DUP2 SWAP1 SUB PUSH1 0x60 ADD SWAP1 LOG1 SWAP4 POP POP POP POP SWAP1 JUMP JUMPDEST PUSH2 0xDD5 PUSH20 0x0 PUSH4 0x2935B8CE PUSH1 0x40 MLOAD DUP2 PUSH4 0xFFFFFFFF AND PUSH1 0xE0 SHL DUP2 MSTORE PUSH1 0x4 ADD PUSH1 0x20 PUSH1 0x40 MLOAD DUP1 DUP4 SUB DUP2 DUP7 DUP1 EXTCODESIZE ISZERO DUP1 ISZERO PUSH2 0xDA3 JUMPI PUSH1 0x0 DUP1 REVERT JUMPDEST PUSH1 0x0 PUSH20 0x0 PUSH4 0xE89D408D PUSH1 0x40 MLOAD DUP2 PUSH4 0xFFFFFFFF AND PUSH1 0xE0 SHL DUP2 MSTORE PUSH1 0x4 ADD PUSH1 0x20 PUSH1 0x40 MLOAD DUP1 DUP4 SUB DUP2 DUP7 DUP1 EXTCODESIZE ISZERO DUP1 ISZERO PUSH2 0x2581 JUMPI PUSH1 0x0 DUP1 REVERT JUMPDEST POP GAS DELEGATECALL ISZERO DUP1 ISZERO PUSH2 0x2595 JUMPI RETURNDATASIZE PUSH1 0x0 DUP1 RETURNDATACOPY RETURNDATASIZE PUSH1 0x0 REVERT JUMPDEST POP POP POP POP PUSH1 0x40 MLOAD RETURNDATASIZE PUSH1 0x20 DUP2 LT ISZERO PUSH2 0x25AB JUMPI PUSH1 0x0 DUP1 REVERT JUMPDEST POP MLOAD PUSH1 0x40 DUP1 MLOAD PUSH4 0xE697ACE9 PUSH1 0xE0 SHL DUP2 MSTORE SWAP1 MLOAD PUSH1 0x1 PUSH1 0x1 PUSH1 0x40 SHL SUB SWAP1 SWAP3 AND SWAP2 PUSH20 0x0 SWAP2 PUSH4 0xE697ACE9 SWAP2 PUSH1 0x4 DUP1 DUP4 ADD SWAP3 PUSH1 0x20 SWAP3 SWAP2 SWAP1 DUP3 SWAP1 SUB ADD DUP2 DUP7 DUP1 EXTCODESIZE ISZERO DUP1 ISZERO PUSH2 0x1A5F JUMPI PUSH1 0x0 DUP1 REVERT JUMPDEST PUSH1 0x0 PUSH2 0xE52 PUSH20 0x0 PUSH4 0xA43E290F PUSH1 0x40 MLOAD DUP2 PUSH4 0xFFFFFFFF AND PUSH1 0xE0 SHL DUP2 MSTORE PUSH1 0x4 ADD PUSH1 0x20 PUSH1 0x40 MLOAD DUP1 DUP4 SUB DUP2 DUP7 DUP1 EXTCODESIZE ISZERO DUP1 ISZERO PUSH2 0xE21 JUMPI PUSH1 0x0 DUP1 REVERT JUMPDEST PUSH2 0xDD5 PUSH20 0x0 PUSH4 0x521819F5 PUSH1 0x40 MLOAD DUP2 PUSH4 0xFFFFFFFF AND PUSH1 0xE0 SHL DUP2 MSTORE PUSH1 0x4 ADD PUSH1 0x20 PUSH1 0x40 MLOAD DUP1 DUP4 SUB DUP2 DUP7 DUP1 EXTCODESIZE ISZERO DUP1 ISZERO PUSH2 0xDA3 JUMPI PUSH1 0x0 DUP1 REVERT JUMPDEST PUSH2 0xDD5 PUSH20 0x0 PUSH4 0xE2E2E712 PUSH1 0x40 MLOAD DUP2 PUSH4 0xFFFFFFFF AND PUSH1 0xE0 SHL DUP2 MSTORE PUSH1 0x4 ADD PUSH1 0x20 PUSH1 0x40 MLOAD DUP1 DUP4 SUB DUP2 DUP7 DUP1 EXTCODESIZE ISZERO DUP1 ISZERO PUSH2 0xDA3 JUMPI PUSH1 0x0 DUP1 REVERT JUMPDEST PUSH1 0x0 PUSH2 0xE52 PUSH20 0x0 PUSH4 0xA279D71 PUSH1 0x40 MLOAD DUP2 PUSH4 0xFFFFFFFF AND PUSH1 0xE0 SHL DUP2 MSTORE PUSH1 0x4 ADD PUSH1 0x20 PUSH1 0x40 MLOAD DUP1 DUP4 SUB DUP2 DUP7 DUP1 EXTCODESIZE ISZERO DUP1 ISZERO PUSH2 0xE21 JUMPI PUSH1 0x0 DUP1 REVERT JUMPDEST PUSH2 0xDD5 PUSH20 0x0 PUSH4 0x42DB3667 PUSH1 0x40 MLOAD DUP2 PUSH4 0xFFFFFFFF AND PUSH1 0xE0 SHL DUP2 MSTORE PUSH1 0x4 ADD PUSH1 0x20 PUSH1 0x40 MLOAD DUP1 DUP4 SUB DUP2 DUP7 DUP1 EXTCODESIZE ISZERO DUP1 ISZERO PUSH2 0xDA3 JUMPI PUSH1 0x0 DUP1 REVERT JUMPDEST PUSH2 0xDD5 PUSH20 0x0 PUSH4 0xDA3E8D7B PUSH1 0x40 MLOAD DUP2 PUSH4 0xFFFFFFFF AND PUSH1 0xE0 SHL DUP2 MSTORE PUSH1 0x4 ADD PUSH1 0x20 PUSH1 0x40 MLOAD DUP1 DUP4 SUB DUP2 DUP7 DUP1 EXTCODESIZE ISZERO DUP1 ISZERO PUSH2 0xDA3 JUMPI PUSH1 0x0 DUP1 REVERT JUMPDEST PUSH1 0x0 PUSH20 0x0 PUSH4 0x910A5247 PUSH1 0x40 MLOAD DUP2 PUSH4 0xFFFFFFFF AND PUSH1 0xE0 SHL DUP2 MSTORE PUSH1 0x4 ADD PUSH1 0x20 PUSH1 0x40 MLOAD DUP1 DUP4 SUB DUP2 DUP7 DUP1 EXTCODESIZE ISZERO DUP1 ISZERO PUSH2 0x27F8 JUMPI PUSH1 0x0 DUP1 REVERT JUMPDEST POP GAS DELEGATECALL ISZERO DUP1 ISZERO PUSH2 0x280C JUMPI RETURNDATASIZE PUSH1 0x0 DUP1 RETURNDATACOPY RETURNDATASIZE PUSH1 0x0 REVERT JUMPDEST POP POP POP POP PUSH1 0x40 MLOAD RETURNDATASIZE PUSH1 0x20 DUP2 LT ISZERO PUSH2 0x2822 JUMPI PUSH1 0x0 DUP1 REVERT JUMPDEST POP MLOAD PUSH1 0x40 DUP1 MLOAD PUSH4 0x317D2BB5 PUSH1 0xE0 SHL DUP2 MSTORE SWAP1 MLOAD PUSH1 0x1 PUSH1 0x1 PUSH1 0x40 SHL SUB SWAP1 SWAP3 AND SWAP2 PUSH20 0x0 SWAP2 PUSH4 0x317D2BB5 SWAP2 PUSH1 0x4 DUP1 DUP4 ADD SWAP3 PUSH1 0x20 SWAP3 SWAP2 SWAP1 DUP3 SWAP1 SUB ADD DUP2 DUP7 DUP1 EXTCODESIZE ISZERO DUP1 ISZERO PUSH2 0x1A5F JUMPI PUSH1 0x0 DUP1 REVERT JUMPDEST PUSH2 0xDD5 PUSH20 0x0 PUSH4 0xD41A5B59 PUSH1 0x40 MLOAD DUP2 PUSH4 0xFFFFFFFF AND PUSH1 0xE0 SHL DUP2 MSTORE PUSH1 0x4 ADD PUSH1 0x20 PUSH1 0x40 MLOAD DUP1 DUP4 SUB DUP2 DUP7 DUP1 EXTCODESIZE ISZERO DUP1 ISZERO PUSH2 0xDA3 JUMPI PUSH1 0x0 DUP1 REVERT JUMPDEST PUSH1 0x0 PUSH20 0x0 PUSH4 0xBF1924C5 PUSH2 0x28E9 DUP5 PUSH1 0x1 PUSH2 0x2C00 JUMP JUMPDEST PUSH1 0xC0 SHR PUSH1 0x40 MLOAD DUP3 PUSH4 0xFFFFFFFF AND PUSH1 0xE0 SHL DUP2 MSTORE PUSH1 0x4 ADD DUP1 DUP3 PUSH1 0x1 PUSH1 0x1 PUSH1 0x40 SHL SUB AND DUP2 MSTORE PUSH1 0x20 ADD SWAP2 POP POP PUSH1 0x20 PUSH1 0x40 MLOAD DUP1 DUP4 SUB DUP2 DUP7 DUP1 EXTCODESIZE ISZERO DUP1 ISZERO PUSH2 0x2929 JUMPI PUSH1 0x0 DUP1 REVERT JUMPDEST POP GAS DELEGATECALL ISZERO DUP1 ISZERO PUSH2 0x293D JUMPI RETURNDATASIZE PUSH1 0x0 DUP1 RETURNDATACOPY RETURNDATASIZE PUSH1 0x0 REVERT JUMPDEST POP POP POP POP PUSH1 0x40 MLOAD RETURNDATASIZE PUSH1 0x20 DUP2 LT ISZERO PUSH2 0x2953 JUMPI PUSH1 0x0 DUP1 REVERT JUMPDEST POP MLOAD SWAP3 SWAP2 POP POP JUMP JUMPDEST PUSH2 0xDD5 PUSH20 0x0 PUSH4 0x87098135 PUSH1 0x40 MLOAD DUP2 PUSH4 0xFFFFFFFF AND PUSH1 0xE0 SHL DUP2 MSTORE PUSH1 0x4 ADD PUSH1 0x20 PUSH1 0x40 MLOAD DUP1 DUP4 SUB DUP2 DUP7 DUP1 EXTCODESIZE ISZERO DUP1 ISZERO PUSH2 0xDA3 JUMPI PUSH1 0x0 DUP1 REVERT JUMPDEST PUSH1 0x0 PUSH1 0x8 PUSH1 0x1 PUSH1 0x1 PUSH1 0x40 SHL SUB DUP4 AND DIV SWAP1 POP DUP1 PUSH1 0x1 PUSH1 0x1 PUSH1 0x40 SHL SUB AND PUSH1 0x8 EQ ISZERO PUSH2 0x29D4 JUMPI PUSH2 0x29CF DUP5 DUP5 PUSH2 0x1B7A JUMP JUMPDEST PUSH2 0x2BE4 JUMP JUMPDEST PUSH1 0x7 NOT DUP5 AND DUP1 DUP6 SUB PUSH1 0x0 PUSH2 0x29E7 DUP4 PUSH2 0x2BEA JUMP JUMPDEST SWAP1 POP PUSH1 0x0 PUSH20 0x0 PUSH4 0xBF1924C5 DUP5 PUSH1 0x8 MUL PUSH1 0x1 PUSH1 0x1 PUSH1 0x40 SHL SUB AND PUSH1 0x1 DUP10 PUSH1 0x1 PUSH1 0x1 PUSH1 0x40 SHL SUB AND PUSH1 0x2 PUSH1 0x1 PUSH1 0x1 PUSH1 0x40 SHL SUB AND EXP SUB PUSH1 0x1 PUSH1 0x1 PUSH1 0x40 SHL SUB AND SWAP1 SHL PUSH1 0x40 MLOAD DUP3 PUSH4 0xFFFFFFFF AND PUSH1 0xE0 SHL DUP2 MSTORE PUSH1 0x4 ADD DUP1 DUP3 PUSH1 0x1 PUSH1 0x1 PUSH1 0x40 SHL SUB AND DUP2 MSTORE PUSH1 0x20 ADD SWAP2 POP POP PUSH1 0x20 PUSH1 0x40 MLOAD DUP1 DUP4 SUB DUP2 DUP7 DUP1 EXTCODESIZE ISZERO DUP1 ISZERO PUSH2 0x2A73 JUMPI PUSH1 0x0 DUP1 REVERT JUMPDEST POP GAS DELEGATECALL ISZERO DUP1 ISZERO PUSH2 0x2A87 JUMPI RETURNDATASIZE PUSH1 0x0 DUP1 RETURNDATACOPY RETURNDATASIZE PUSH1 0x0 REVERT JUMPDEST POP POP POP POP PUSH1 0x40 MLOAD RETURNDATASIZE PUSH1 0x20 DUP2 LT ISZERO PUSH2 0x2A9D JUMPI PUSH1 0x0 DUP1 REVERT JUMPDEST POP MLOAD PUSH1 0x40 DUP1 MLOAD PUSH4 0xBF1924C5 PUSH1 0xE0 SHL DUP2 MSTORE PUSH1 0x1 PUSH1 0x1 PUSH1 0x40 SHL SUB DUP10 DUP2 AND PUSH1 0x2 EXP PUSH1 0x0 NOT ADD DUP12 AND AND PUSH1 0x4 DUP3 ADD MSTORE SWAP1 MLOAD SWAP2 SWAP3 POP PUSH1 0x0 SWAP2 PUSH20 0x0 SWAP2 PUSH4 0xBF1924C5 SWAP2 PUSH1 0x24 DUP1 DUP4 ADD SWAP3 PUSH1 0x20 SWAP3 SWAP2 SWAP1 DUP3 SWAP1 SUB ADD DUP2 DUP7 DUP1 EXTCODESIZE ISZERO DUP1 ISZERO PUSH2 0x2B0A JUMPI PUSH1 0x0 DUP1 REVERT JUMPDEST POP GAS DELEGATECALL ISZERO DUP1 ISZERO PUSH2 0x2B1E JUMPI RETURNDATASIZE PUSH1 0x0 DUP1 RETURNDATACOPY RETURNDATASIZE PUSH1 0x0 REVERT JUMPDEST POP POP POP POP PUSH1 0x40 MLOAD RETURNDATASIZE PUSH1 0x20 DUP2 LT ISZERO PUSH2 0x2B34 JUMPI PUSH1 0x0 DUP1 REVERT JUMPDEST POP MLOAD PUSH1 0x40 DUP1 MLOAD PUSH4 0xBF1924C5 PUSH1 0xE0 SHL DUP2 MSTORE PUSH1 0x1 PUSH1 0x1 PUSH1 0x40 SHL SUB DUP1 DUP5 AND PUSH1 0x8 DUP10 MUL DUP3 AND SHR DUP7 NOT DUP9 AND OR SWAP1 DUP2 AND PUSH1 0x4 DUP4 ADD MSTORE SWAP2 MLOAD SWAP3 SWAP4 POP SWAP1 SWAP2 PUSH20 0x0 SWAP2 PUSH4 0xBF1924C5 SWAP2 PUSH1 0x24 DUP1 DUP4 ADD SWAP3 PUSH1 0x20 SWAP3 SWAP2 SWAP1 DUP3 SWAP1 SUB ADD DUP2 DUP7 DUP1 EXTCODESIZE ISZERO DUP1 ISZERO PUSH2 0x2BA5 JUMPI PUSH1 0x0 DUP1 REVERT JUMPDEST POP GAS DELEGATECALL ISZERO DUP1 ISZERO PUSH2 0x2BB9 JUMPI RETURNDATASIZE PUSH1 0x0 DUP1 RETURNDATACOPY RETURNDATASIZE PUSH1 0x0 REVERT JUMPDEST POP POP POP POP PUSH1 0x40 MLOAD RETURNDATASIZE PUSH1 0x20 DUP2 LT ISZERO PUSH2 0x2BCF JUMPI PUSH1 0x0 DUP1 REVERT JUMPDEST POP MLOAD SWAP1 POP PUSH2 0x2BDD DUP7 DUP3 PUSH2 0x1B7A JUMP JUMPDEST POP POP POP POP POP POP JUMPDEST POP POP POP POP JUMP JUMPDEST PUSH1 0x0 PUSH2 0x2BF7 DUP3 PUSH1 0x1 PUSH2 0x2C00 JUMP JUMPDEST PUSH1 0xC0 SHR SWAP3 SWAP2 POP POP JUMP JUMPDEST PUSH1 0x0 PUSH1 0x7 DUP4 AND ISZERO PUSH2 0x2C58 JUMPI PUSH1 0x40 DUP1 MLOAD PUSH3 0x461BCD PUSH1 0xE5 SHL DUP2 MSTORE PUSH1 0x20 PUSH1 0x4 DUP3 ADD MSTORE PUSH1 0x17 PUSH1 0x24 DUP3 ADD MSTORE PUSH32 0x506F736974696F6E206973206E6F7420616C69676E6564000000000000000000 PUSH1 0x44 DUP3 ADD MSTORE SWAP1 MLOAD SWAP1 DUP2 SWAP1 SUB PUSH1 0x64 ADD SWAP1 REVERT JUMPDEST POP POP PUSH1 0x1 PUSH1 0x1 PUSH1 0x40 SHL SUB AND PUSH1 0x0 SWAP1 DUP2 MSTORE PUSH1 0x4 PUSH1 0x20 MSTORE PUSH1 0x40 SWAP1 KECCAK256 SLOAD PUSH1 0xC0 SHL SWAP1 JUMP INVALID LOG2 PUSH5 0x6970667358 0x22 SLT KECCAK256 SWAP11 GASLIMIT SHL 0xE8 0x23 PC ISZERO DUP4 CALLVALUE 0xDB 0xA8 0xC7 POP 0xE8 0xBF EQ 0xC4 0xB6 CHAINID 0xB8 PUSH2 0xD4C4 0xCC NUMBER 0x21 PUSH30 0x880D7A728764736F6C634300070400330000000000000000000000000000 "
    },
    "gasEstimates": {
      "creation": {
        "codeDepositCost": "2287600",
        "executionCost": "2449",
        "totalCost": "2290049"
      },
      "external": {
        "externalPureMemoryWrite(uint64,bytes8)": "21291",
        "getRWIndex()": "1068",
        "htifExit()": "infinite",
        "initializeMemory(uint64[],bytes8[],bool[])": "infinite",
        "memoryRead(uint64)": "infinite",
        "memoryWrite(uint64,uint64)": "infinite",
        "readClintMtimecmp()": "infinite",
        "readHtifFromhost()": "infinite",
        "readHtifIYield()": "infinite",
        "readHtifTohost()": "infinite",
        "readIflags()": "infinite",
        "readIflagsH()": "infinite",
        "readIflagsPrv()": "infinite",
        "readIflagsX()": "infinite",
        "readIflagsY()": "infinite",
        "readIlrsc()": "infinite",
        "readMarchid()": "infinite",
        "readMcause()": "infinite",
        "readMcounteren()": "infinite",
        "readMcycle()": "infinite",
        "readMedeleg()": "infinite",
        "readMemory(uint64,uint64)": "infinite",
        "readMepc()": "infinite",
        "readMideleg()": "infinite",
        "readMie()": "infinite",
        "readMimpid()": "infinite",
        "readMinstret()": "infinite",
        "readMip()": "infinite",
        "readMisa()": "infinite",
        "readMscratch()": "infinite",
        "readMstatus()": "infinite",
        "readMtval()": "infinite",
        "readMtvec()": "infinite",
        "readMvendorid()": "infinite",
        "readPc()": "infinite",
        "readSatp()": "infinite",
        "readScause()": "infinite",
        "readScounteren()": "infinite",
        "readSepc()": "infinite",
        "readSscratch()": "infinite",
        "readStval()": "infinite",
        "readStvec()": "infinite",
        "readX(uint64)": "infinite",
        "resetMip(uint64)": "infinite",
        "setIflagsH(bool)": "infinite",
        "setIflagsX(bool)": "infinite",
        "setIflagsY(bool)": "infinite",
        "setMip(uint64)": "infinite",
        "setPriv(uint64)": "infinite",
        "writeClintMtimecmp(uint64)": "infinite",
        "writeHtifFromhost(uint64)": "infinite",
        "writeHtifTohost(uint64)": "infinite",
        "writeIflagsPrv(uint64)": "infinite",
        "writeIlrsc(uint64)": "infinite",
        "writeMcause(uint64)": "infinite",
        "writeMcounteren(uint64)": "infinite",
        "writeMcycle(uint64)": "infinite",
        "writeMedeleg(uint64)": "infinite",
        "writeMemory(uint64,uint64,uint64)": "infinite",
        "writeMepc(uint64)": "infinite",
        "writeMideleg(uint64)": "infinite",
        "writeMie(uint64)": "infinite",
        "writeMinstret(uint64)": "infinite",
        "writeMip(uint64)": "infinite",
        "writeMscratch(uint64)": "infinite",
        "writeMstatus(uint64)": "infinite",
        "writeMtval(uint64)": "infinite",
        "writeMtvec(uint64)": "infinite",
        "writePc(uint64)": "infinite",
        "writeSatp(uint64)": "infinite",
        "writeScause(uint64)": "infinite",
        "writeScounteren(uint64)": "infinite",
        "writeSepc(uint64)": "infinite",
        "writeSscratch(uint64)": "infinite",
        "writeStval(uint64)": "infinite",
        "writeStvec(uint64)": "infinite",
        "writeX(uint64,uint64)": "infinite"
      },
      "internal": {
        "memoryAccessManager(uint64,bool)": "infinite",
        "pureMemoryWrite(uint64,uint64)": "infinite"
      }
    },
    "methodIdentifiers": {
      "externalPureMemoryWrite(uint64,bytes8)": "5729e4a6",
      "getRWIndex()": "080aa5d1",
      "htifExit()": "cf187430",
      "initializeMemory(uint64[],bytes8[],bool[])": "a47594df",
      "memoryRead(uint64)": "fa644af5",
      "memoryWrite(uint64,uint64)": "8e32f35e",
      "readClintMtimecmp()": "6475e342",
      "readHtifFromhost()": "f2cf6ceb",
      "readHtifIYield()": "6f6c0e7d",
      "readHtifTohost()": "34970f18",
      "readIflags()": "c133b7ff",
      "readIflagsH()": "968644f0",
      "readIflagsPrv()": "f7ac913d",
      "readIflagsX()": "86099c54",
      "readIflagsY()": "d40d17c5",
      "readIlrsc()": "5dadd78a",
      "readMarchid()": "854dba40",
      "readMcause()": "51bb3615",
      "readMcounteren()": "9485871b",
      "readMcycle()": "daded5c2",
      "readMedeleg()": "6a72b27d",
      "readMemory(uint64,uint64)": "50cec2d5",
      "readMepc()": "1e5e6190",
      "readMideleg()": "a740dbc1",
      "readMie()": "cc92cbf7",
      "readMimpid()": "becdc10d",
      "readMinstret()": "28520b30",
      "readMip()": "a317ce9d",
      "readMisa()": "834aa4f6",
      "readMscratch()": "af63b2a8",
      "readMstatus()": "b5b98ed4",
      "readMtval()": "6cd24daf",
      "readMtvec()": "11cf3a22",
      "readMvendorid()": "5f824bf9",
      "readPc()": "650ca32b",
      "readSatp()": "1bf2f73d",
      "readScause()": "568b2702",
      "readScounteren()": "4ae9388b",
      "readSepc()": "18e504db",
      "readSscratch()": "9b7021ce",
      "readStval()": "2e963a80",
      "readStvec()": "0f84c046",
      "readX(uint64)": "6232e59c",
      "resetMip(uint64)": "15dd9c06",
      "setIflagsH(bool)": "a7458b95",
      "setIflagsX(bool)": "b27ec920",
      "setIflagsY(bool)": "3a48bb56",
      "setMip(uint64)": "45057ed7",
      "setPriv(uint64)": "54749af3",
      "writeClintMtimecmp(uint64)": "fbdb975d",
      "writeHtifFromhost(uint64)": "b2325aef",
      "writeHtifTohost(uint64)": "dd5c4a14",
      "writeIflagsPrv(uint64)": "cecdae53",
      "writeIlrsc(uint64)": "f21d94f8",
      "writeMcause(uint64)": "89365909",
      "writeMcounteren(uint64)": "2ca2bd16",
      "writeMcycle(uint64)": "5e5ca652",
      "writeMedeleg(uint64)": "575832df",
      "writeMemory(uint64,uint64,uint64)": "fd295abe",
      "writeMepc(uint64)": "28751b36",
      "writeMideleg(uint64)": "d2be7b6d",
      "writeMie(uint64)": "86676d43",
      "writeMinstret(uint64)": "10d74c7d",
      "writeMip(uint64)": "aaed4f07",
      "writeMscratch(uint64)": "0df3e295",
      "writeMstatus(uint64)": "f55c4d38",
      "writeMtval(uint64)": "f604edb8",
      "writeMtvec(uint64)": "9c872d02",
      "writePc(uint64)": "f9911587",
      "writeSatp(uint64)": "ab9779b7",
      "writeScause(uint64)": "78c49574",
      "writeScounteren(uint64)": "78ddee75",
      "writeSepc(uint64)": "57907837",
      "writeSscratch(uint64)": "5af47ca7",
      "writeStval(uint64)": "9c7b005d",
      "writeStvec(uint64)": "cbc446b1",
      "writeX(uint64,uint64)": "6dc95c2e"
    }
  },
  "storageLayout": {
    "storage": [
      {
        "astId": 5851,
        "contract": "contracts/TestMemoryInteractor.sol:TestMemoryInteractor",
        "label": "rwIndex",
        "offset": 0,
        "slot": "0",
        "type": "t_uint256"
      },
      {
        "astId": 5854,
        "contract": "contracts/TestMemoryInteractor.sol:TestMemoryInteractor",
        "label": "rwPositions",
        "offset": 0,
        "slot": "1",
        "type": "t_array(t_uint64)dyn_storage"
      },
      {
        "astId": 5857,
        "contract": "contracts/TestMemoryInteractor.sol:TestMemoryInteractor",
        "label": "rwValues",
        "offset": 0,
        "slot": "2",
        "type": "t_array(t_bytes8)dyn_storage"
      },
      {
        "astId": 5860,
        "contract": "contracts/TestMemoryInteractor.sol:TestMemoryInteractor",
        "label": "isRead",
        "offset": 0,
        "slot": "3",
        "type": "t_array(t_bool)dyn_storage"
      },
      {
        "astId": 14504,
        "contract": "contracts/TestMemoryInteractor.sol:TestMemoryInteractor",
        "label": "ram",
        "offset": 0,
        "slot": "4",
        "type": "t_mapping(t_uint64,t_bytes8)"
      }
    ],
    "types": {
      "t_array(t_bool)dyn_storage": {
        "base": "t_bool",
        "encoding": "dynamic_array",
        "label": "bool[]",
        "numberOfBytes": "32"
      },
      "t_array(t_bytes8)dyn_storage": {
        "base": "t_bytes8",
        "encoding": "dynamic_array",
        "label": "bytes8[]",
        "numberOfBytes": "32"
      },
      "t_array(t_uint64)dyn_storage": {
        "base": "t_uint64",
        "encoding": "dynamic_array",
        "label": "uint64[]",
        "numberOfBytes": "32"
      },
      "t_bool": {
        "encoding": "inplace",
        "label": "bool",
        "numberOfBytes": "1"
      },
      "t_bytes8": {
        "encoding": "inplace",
        "label": "bytes8",
        "numberOfBytes": "8"
      },
      "t_mapping(t_uint64,t_bytes8)": {
        "encoding": "mapping",
        "key": "t_uint64",
        "label": "mapping(uint64 => bytes8)",
        "numberOfBytes": "32",
        "value": "t_bytes8"
      },
      "t_uint256": {
        "encoding": "inplace",
        "label": "uint256",
        "numberOfBytes": "32"
      },
      "t_uint64": {
        "encoding": "inplace",
        "label": "uint64",
        "numberOfBytes": "8"
      }
    }
  },
  "userdoc": {
    "kind": "user",
    "methods": {
      "htifExit()": {
        "notice": "Perform a read in HTIF to get the arbitrary exit code"
      }
    },
    "notice": "A mock memory interactor for running test_ram.py",
    "version": 1
  }
}