{
  "contractName": "TestMemoryInteractor",
  "sourceName": "contracts/TestMemoryInteractor.sol",
  "abi": [
    {
      "anonymous": false,
      "inputs": [
        {
          "indexed": false,
          "internalType": "uint256",
          "name": "_index",
          "type": "uint256"
        },
        {
          "indexed": false,
          "internalType": "uint64",
          "name": "_exitCode",
          "type": "uint64"
        },
        {
          "indexed": false,
          "internalType": "bool",
          "name": "_halt",
          "type": "bool"
        }
      ],
      "name": "HTIFExit",
      "type": "event"
    },
    {
      "inputs": [
        {
          "internalType": "uint64",
          "name": "_writeAddress",
          "type": "uint64"
        },
        {
          "internalType": "bytes8",
          "name": "_value",
          "type": "bytes8"
        }
      ],
      "name": "externalPureMemoryWrite",
      "outputs": [],
      "stateMutability": "nonpayable",
      "type": "function"
    },
    {
      "inputs": [],
      "name": "getRWIndex",
      "outputs": [
        {
          "internalType": "uint256",
          "name": "",
          "type": "uint256"
        }
      ],
      "stateMutability": "view",
      "type": "function"
    },
    {
      "inputs": [],
      "name": "htifExit",
      "outputs": [
        {
          "internalType": "uint64",
          "name": "",
          "type": "uint64"
        }
      ],
      "stateMutability": "nonpayable",
      "type": "function"
    },
    {
      "inputs": [
        {
          "internalType": "uint64[]",
          "name": "_rwPositions",
          "type": "uint64[]"
        },
        {
          "internalType": "bytes8[]",
          "name": "_rwValues",
          "type": "bytes8[]"
        },
        {
          "internalType": "bool[]",
          "name": "_isRead",
          "type": "bool[]"
        }
      ],
      "name": "initializeMemory",
      "outputs": [],
      "stateMutability": "nonpayable",
      "type": "function"
    },
    {
      "inputs": [
        {
          "internalType": "uint64",
          "name": "_readAddress",
          "type": "uint64"
        }
      ],
      "name": "memoryRead",
      "outputs": [
        {
          "internalType": "uint64",
          "name": "",
          "type": "uint64"
        }
      ],
      "stateMutability": "nonpayable",
      "type": "function"
    },
    {
      "inputs": [
        {
          "internalType": "uint64",
          "name": "_writeAddress",
          "type": "uint64"
        },
        {
          "internalType": "uint64",
          "name": "_value",
          "type": "uint64"
        }
      ],
      "name": "memoryWrite",
      "outputs": [],
      "stateMutability": "nonpayable",
      "type": "function"
    },
    {
      "inputs": [],
      "name": "readClintMtimecmp",
      "outputs": [
        {
          "internalType": "uint64",
          "name": "",
          "type": "uint64"
        }
      ],
      "stateMutability": "nonpayable",
      "type": "function"
    },
    {
      "inputs": [],
      "name": "readHtifFromhost",
      "outputs": [
        {
          "internalType": "uint64",
          "name": "",
          "type": "uint64"
        }
      ],
      "stateMutability": "nonpayable",
      "type": "function"
    },
    {
      "inputs": [],
      "name": "readHtifIConsole",
      "outputs": [
        {
          "internalType": "uint64",
          "name": "",
          "type": "uint64"
        }
      ],
      "stateMutability": "nonpayable",
      "type": "function"
    },
    {
      "inputs": [],
      "name": "readHtifIHalt",
      "outputs": [
        {
          "internalType": "uint64",
          "name": "",
          "type": "uint64"
        }
      ],
      "stateMutability": "nonpayable",
      "type": "function"
    },
    {
      "inputs": [],
      "name": "readHtifIYield",
      "outputs": [
        {
          "internalType": "uint64",
          "name": "",
          "type": "uint64"
        }
      ],
      "stateMutability": "nonpayable",
      "type": "function"
    },
    {
      "inputs": [],
      "name": "readHtifTohost",
      "outputs": [
        {
          "internalType": "uint64",
          "name": "",
          "type": "uint64"
        }
      ],
      "stateMutability": "nonpayable",
      "type": "function"
    },
    {
      "inputs": [],
      "name": "readIflags",
      "outputs": [
        {
          "internalType": "uint64",
          "name": "",
          "type": "uint64"
        }
      ],
      "stateMutability": "nonpayable",
      "type": "function"
    },
    {
      "inputs": [],
      "name": "readIflagsH",
      "outputs": [
        {
          "internalType": "uint64",
          "name": "",
          "type": "uint64"
        }
      ],
      "stateMutability": "nonpayable",
      "type": "function"
    },
    {
      "inputs": [],
      "name": "readIflagsPrv",
      "outputs": [
        {
          "internalType": "uint64",
          "name": "",
          "type": "uint64"
        }
      ],
      "stateMutability": "nonpayable",
      "type": "function"
    },
    {
      "inputs": [],
      "name": "readIflagsX",
      "outputs": [
        {
          "internalType": "uint64",
          "name": "",
          "type": "uint64"
        }
      ],
      "stateMutability": "nonpayable",
      "type": "function"
    },
    {
      "inputs": [],
      "name": "readIflagsY",
      "outputs": [
        {
          "internalType": "uint64",
          "name": "",
          "type": "uint64"
        }
      ],
      "stateMutability": "nonpayable",
      "type": "function"
    },
    {
      "inputs": [],
      "name": "readIlrsc",
      "outputs": [
        {
          "internalType": "uint64",
          "name": "",
          "type": "uint64"
        }
      ],
      "stateMutability": "nonpayable",
      "type": "function"
    },
    {
      "inputs": [],
      "name": "readMarchid",
      "outputs": [
        {
          "internalType": "uint64",
          "name": "",
          "type": "uint64"
        }
      ],
      "stateMutability": "nonpayable",
      "type": "function"
    },
    {
      "inputs": [],
      "name": "readMcause",
      "outputs": [
        {
          "internalType": "uint64",
          "name": "",
          "type": "uint64"
        }
      ],
      "stateMutability": "nonpayable",
      "type": "function"
    },
    {
      "inputs": [],
      "name": "readMcounteren",
      "outputs": [
        {
          "internalType": "uint64",
          "name": "",
          "type": "uint64"
        }
      ],
      "stateMutability": "nonpayable",
      "type": "function"
    },
    {
      "inputs": [],
      "name": "readMcycle",
      "outputs": [
        {
          "internalType": "uint64",
          "name": "",
          "type": "uint64"
        }
      ],
      "stateMutability": "nonpayable",
      "type": "function"
    },
    {
      "inputs": [],
      "name": "readMedeleg",
      "outputs": [
        {
          "internalType": "uint64",
          "name": "",
          "type": "uint64"
        }
      ],
      "stateMutability": "nonpayable",
      "type": "function"
    },
    {
      "inputs": [
        {
          "internalType": "uint64",
          "name": "paddr",
          "type": "uint64"
        },
        {
          "internalType": "uint64",
          "name": "wordSize",
          "type": "uint64"
        }
      ],
      "name": "readMemory",
      "outputs": [
        {
          "internalType": "uint64",
          "name": "",
          "type": "uint64"
        }
      ],
      "stateMutability": "nonpayable",
      "type": "function"
    },
    {
      "inputs": [],
      "name": "readMepc",
      "outputs": [
        {
          "internalType": "uint64",
          "name": "",
          "type": "uint64"
        }
      ],
      "stateMutability": "nonpayable",
      "type": "function"
    },
    {
      "inputs": [],
      "name": "readMideleg",
      "outputs": [
        {
          "internalType": "uint64",
          "name": "",
          "type": "uint64"
        }
      ],
      "stateMutability": "nonpayable",
      "type": "function"
    },
    {
      "inputs": [],
      "name": "readMie",
      "outputs": [
        {
          "internalType": "uint64",
          "name": "",
          "type": "uint64"
        }
      ],
      "stateMutability": "nonpayable",
      "type": "function"
    },
    {
      "inputs": [],
      "name": "readMimpid",
      "outputs": [
        {
          "internalType": "uint64",
          "name": "",
          "type": "uint64"
        }
      ],
      "stateMutability": "nonpayable",
      "type": "function"
    },
    {
      "inputs": [],
      "name": "readMinstret",
      "outputs": [
        {
          "internalType": "uint64",
          "name": "",
          "type": "uint64"
        }
      ],
      "stateMutability": "nonpayable",
      "type": "function"
    },
    {
      "inputs": [],
      "name": "readMip",
      "outputs": [
        {
          "internalType": "uint64",
          "name": "",
          "type": "uint64"
        }
      ],
      "stateMutability": "nonpayable",
      "type": "function"
    },
    {
      "inputs": [],
      "name": "readMisa",
      "outputs": [
        {
          "internalType": "uint64",
          "name": "",
          "type": "uint64"
        }
      ],
      "stateMutability": "nonpayable",
      "type": "function"
    },
    {
      "inputs": [],
      "name": "readMscratch",
      "outputs": [
        {
          "internalType": "uint64",
          "name": "",
          "type": "uint64"
        }
      ],
      "stateMutability": "nonpayable",
      "type": "function"
    },
    {
      "inputs": [],
      "name": "readMstatus",
      "outputs": [
        {
          "internalType": "uint64",
          "name": "",
          "type": "uint64"
        }
      ],
      "stateMutability": "nonpayable",
      "type": "function"
    },
    {
      "inputs": [],
      "name": "readMtval",
      "outputs": [
        {
          "internalType": "uint64",
          "name": "",
          "type": "uint64"
        }
      ],
      "stateMutability": "nonpayable",
      "type": "function"
    },
    {
      "inputs": [],
      "name": "readMtvec",
      "outputs": [
        {
          "internalType": "uint64",
          "name": "",
          "type": "uint64"
        }
      ],
      "stateMutability": "nonpayable",
      "type": "function"
    },
    {
      "inputs": [],
      "name": "readMvendorid",
      "outputs": [
        {
          "internalType": "uint64",
          "name": "",
          "type": "uint64"
        }
      ],
      "stateMutability": "nonpayable",
      "type": "function"
    },
    {
      "inputs": [],
      "name": "readPc",
      "outputs": [
        {
          "internalType": "uint64",
          "name": "",
          "type": "uint64"
        }
      ],
      "stateMutability": "nonpayable",
      "type": "function"
    },
    {
      "inputs": [],
      "name": "readSatp",
      "outputs": [
        {
          "internalType": "uint64",
          "name": "",
          "type": "uint64"
        }
      ],
      "stateMutability": "nonpayable",
      "type": "function"
    },
    {
      "inputs": [],
      "name": "readScause",
      "outputs": [
        {
          "internalType": "uint64",
          "name": "",
          "type": "uint64"
        }
      ],
      "stateMutability": "nonpayable",
      "type": "function"
    },
    {
      "inputs": [],
      "name": "readScounteren",
      "outputs": [
        {
          "internalType": "uint64",
          "name": "",
          "type": "uint64"
        }
      ],
      "stateMutability": "nonpayable",
      "type": "function"
    },
    {
      "inputs": [],
      "name": "readSepc",
      "outputs": [
        {
          "internalType": "uint64",
          "name": "",
          "type": "uint64"
        }
      ],
      "stateMutability": "nonpayable",
      "type": "function"
    },
    {
      "inputs": [],
      "name": "readSscratch",
      "outputs": [
        {
          "internalType": "uint64",
          "name": "",
          "type": "uint64"
        }
      ],
      "stateMutability": "nonpayable",
      "type": "function"
    },
    {
      "inputs": [],
      "name": "readStval",
      "outputs": [
        {
          "internalType": "uint64",
          "name": "",
          "type": "uint64"
        }
      ],
      "stateMutability": "nonpayable",
      "type": "function"
    },
    {
      "inputs": [],
      "name": "readStvec",
      "outputs": [
        {
          "internalType": "uint64",
          "name": "",
          "type": "uint64"
        }
      ],
      "stateMutability": "nonpayable",
      "type": "function"
    },
    {
      "inputs": [
        {
          "internalType": "uint64",
          "name": "registerIndex",
          "type": "uint64"
        }
      ],
      "name": "readX",
      "outputs": [
        {
          "internalType": "uint64",
          "name": "",
          "type": "uint64"
        }
      ],
      "stateMutability": "nonpayable",
      "type": "function"
    },
    {
      "inputs": [
        {
          "internalType": "uint64",
          "name": "mask",
          "type": "uint64"
        }
      ],
      "name": "resetMip",
      "outputs": [],
      "stateMutability": "nonpayable",
      "type": "function"
    },
    {
      "inputs": [
        {
          "internalType": "bool",
          "name": "halt",
          "type": "bool"
        }
      ],
      "name": "setIflagsH",
      "outputs": [],
      "stateMutability": "nonpayable",
      "type": "function"
    },
    {
      "inputs": [
        {
          "internalType": "bool",
          "name": "isAutomaticYield",
          "type": "bool"
        }
      ],
      "name": "setIflagsX",
      "outputs": [],
      "stateMutability": "nonpayable",
      "type": "function"
    },
    {
      "inputs": [
        {
          "internalType": "bool",
          "name": "isManualYield",
          "type": "bool"
        }
      ],
      "name": "setIflagsY",
      "outputs": [],
      "stateMutability": "nonpayable",
      "type": "function"
    },
    {
      "inputs": [
        {
          "internalType": "uint64",
          "name": "mask",
          "type": "uint64"
        }
      ],
      "name": "setMip",
      "outputs": [],
      "stateMutability": "nonpayable",
      "type": "function"
    },
    {
      "inputs": [
        {
          "internalType": "uint64",
          "name": "newPriv",
          "type": "uint64"
        }
      ],
      "name": "setPriv",
      "outputs": [],
      "stateMutability": "nonpayable",
      "type": "function"
    },
    {
      "inputs": [
        {
          "internalType": "uint64",
          "name": "value",
          "type": "uint64"
        }
      ],
      "name": "writeClintMtimecmp",
      "outputs": [],
      "stateMutability": "nonpayable",
      "type": "function"
    },
    {
      "inputs": [
        {
          "internalType": "uint64",
          "name": "value",
          "type": "uint64"
        }
      ],
      "name": "writeHtifFromhost",
      "outputs": [],
      "stateMutability": "nonpayable",
      "type": "function"
    },
    {
      "inputs": [
        {
          "internalType": "uint64",
          "name": "value",
          "type": "uint64"
        }
      ],
      "name": "writeHtifTohost",
      "outputs": [],
      "stateMutability": "nonpayable",
      "type": "function"
    },
    {
      "inputs": [
        {
          "internalType": "uint64",
          "name": "newPriv",
          "type": "uint64"
        }
      ],
      "name": "writeIflagsPrv",
      "outputs": [],
      "stateMutability": "nonpayable",
      "type": "function"
    },
    {
      "inputs": [
        {
          "internalType": "uint64",
          "name": "value",
          "type": "uint64"
        }
      ],
      "name": "writeIlrsc",
      "outputs": [],
      "stateMutability": "nonpayable",
      "type": "function"
    },
    {
      "inputs": [
        {
          "internalType": "uint64",
          "name": "value",
          "type": "uint64"
        }
      ],
      "name": "writeMcause",
      "outputs": [],
      "stateMutability": "nonpayable",
      "type": "function"
    },
    {
      "inputs": [
        {
          "internalType": "uint64",
          "name": "value",
          "type": "uint64"
        }
      ],
      "name": "writeMcounteren",
      "outputs": [],
      "stateMutability": "nonpayable",
      "type": "function"
    },
    {
      "inputs": [
        {
          "internalType": "uint64",
          "name": "value",
          "type": "uint64"
        }
      ],
      "name": "writeMcycle",
      "outputs": [],
      "stateMutability": "nonpayable",
      "type": "function"
    },
    {
      "inputs": [
        {
          "internalType": "uint64",
          "name": "value",
          "type": "uint64"
        }
      ],
      "name": "writeMedeleg",
      "outputs": [],
      "stateMutability": "nonpayable",
      "type": "function"
    },
    {
      "inputs": [
        {
          "internalType": "uint64",
          "name": "paddr",
          "type": "uint64"
        },
        {
          "internalType": "uint64",
          "name": "value",
          "type": "uint64"
        },
        {
          "internalType": "uint64",
          "name": "wordSize",
          "type": "uint64"
        }
      ],
      "name": "writeMemory",
      "outputs": [],
      "stateMutability": "nonpayable",
      "type": "function"
    },
    {
      "inputs": [
        {
          "internalType": "uint64",
          "name": "value",
          "type": "uint64"
        }
      ],
      "name": "writeMepc",
      "outputs": [],
      "stateMutability": "nonpayable",
      "type": "function"
    },
    {
      "inputs": [
        {
          "internalType": "uint64",
          "name": "value",
          "type": "uint64"
        }
      ],
      "name": "writeMideleg",
      "outputs": [],
      "stateMutability": "nonpayable",
      "type": "function"
    },
    {
      "inputs": [
        {
          "internalType": "uint64",
          "name": "value",
          "type": "uint64"
        }
      ],
      "name": "writeMie",
      "outputs": [],
      "stateMutability": "nonpayable",
      "type": "function"
    },
    {
      "inputs": [
        {
          "internalType": "uint64",
          "name": "value",
          "type": "uint64"
        }
      ],
      "name": "writeMinstret",
      "outputs": [],
      "stateMutability": "nonpayable",
      "type": "function"
    },
    {
      "inputs": [
        {
          "internalType": "uint64",
          "name": "value",
          "type": "uint64"
        }
      ],
      "name": "writeMip",
      "outputs": [],
      "stateMutability": "nonpayable",
      "type": "function"
    },
    {
      "inputs": [
        {
          "internalType": "uint64",
          "name": "value",
          "type": "uint64"
        }
      ],
      "name": "writeMscratch",
      "outputs": [],
      "stateMutability": "nonpayable",
      "type": "function"
    },
    {
      "inputs": [
        {
          "internalType": "uint64",
          "name": "value",
          "type": "uint64"
        }
      ],
      "name": "writeMstatus",
      "outputs": [],
      "stateMutability": "nonpayable",
      "type": "function"
    },
    {
      "inputs": [
        {
          "internalType": "uint64",
          "name": "value",
          "type": "uint64"
        }
      ],
      "name": "writeMtval",
      "outputs": [],
      "stateMutability": "nonpayable",
      "type": "function"
    },
    {
      "inputs": [
        {
          "internalType": "uint64",
          "name": "value",
          "type": "uint64"
        }
      ],
      "name": "writeMtvec",
      "outputs": [],
      "stateMutability": "nonpayable",
      "type": "function"
    },
    {
      "inputs": [
        {
          "internalType": "uint64",
          "name": "value",
          "type": "uint64"
        }
      ],
      "name": "writePc",
      "outputs": [],
      "stateMutability": "nonpayable",
      "type": "function"
    },
    {
      "inputs": [
        {
          "internalType": "uint64",
          "name": "value",
          "type": "uint64"
        }
      ],
      "name": "writeSatp",
      "outputs": [],
      "stateMutability": "nonpayable",
      "type": "function"
    },
    {
      "inputs": [
        {
          "internalType": "uint64",
          "name": "value",
          "type": "uint64"
        }
      ],
      "name": "writeScause",
      "outputs": [],
      "stateMutability": "nonpayable",
      "type": "function"
    },
    {
      "inputs": [
        {
          "internalType": "uint64",
          "name": "value",
          "type": "uint64"
        }
      ],
      "name": "writeScounteren",
      "outputs": [],
      "stateMutability": "nonpayable",
      "type": "function"
    },
    {
      "inputs": [
        {
          "internalType": "uint64",
          "name": "value",
          "type": "uint64"
        }
      ],
      "name": "writeSepc",
      "outputs": [],
      "stateMutability": "nonpayable",
      "type": "function"
    },
    {
      "inputs": [
        {
          "internalType": "uint64",
          "name": "value",
          "type": "uint64"
        }
      ],
      "name": "writeSscratch",
      "outputs": [],
      "stateMutability": "nonpayable",
      "type": "function"
    },
    {
      "inputs": [
        {
          "internalType": "uint64",
          "name": "value",
          "type": "uint64"
        }
      ],
      "name": "writeStval",
      "outputs": [],
      "stateMutability": "nonpayable",
      "type": "function"
    },
    {
      "inputs": [
        {
          "internalType": "uint64",
          "name": "value",
          "type": "uint64"
        }
      ],
      "name": "writeStvec",
      "outputs": [],
      "stateMutability": "nonpayable",
      "type": "function"
    },
    {
      "inputs": [
        {
          "internalType": "uint64",
          "name": "registerindex",
          "type": "uint64"
        },
        {
          "internalType": "uint64",
          "name": "value",
          "type": "uint64"
        }
      ],
      "name": "writeX",
      "outputs": [],
      "stateMutability": "nonpayable",
      "type": "function"
    }
  ],
  "bytecode": "0x608060405234801561001057600080fd5b50612d66806100206000396000f3fe608060405234801561001057600080fd5b50600436106104755760003560e01c8063854dba4011610257578063b8fd205c11610146578063dd5c4a14116100c3578063f7ac913d11610087578063f7ac913d14610cca578063f991158714610cd2578063fa644af514610cf8578063fbdb975d14610d1e578063fd295abe14610d4457610475565b8063dd5c4a1414610c2a578063f21d94f814610c50578063f2cf6ceb14610c76578063f55c4d3814610c7e578063f604edb814610ca457610475565b8063cecdae531161010a578063cecdae5314610bc6578063cf18743014610bec578063d2be7b6d14610bf4578063d40d17c514610c1a578063daded5c214610c2257610475565b8063b8fd205c14610b80578063becdc10d14610b88578063c133b7ff14610b90578063cbc446b114610b98578063cc92cbf714610bbe57610475565b8063a317ce9d116101d4578063ab9779b711610198578063ab9779b714610b05578063af63b2a814610b2b578063b2325aef14610b33578063b27ec92014610b59578063b5b98ed414610b7857610475565b8063a317ce9d14610905578063a47594df1461090d578063a740dbc114610ab8578063a7458b9514610ac0578063aaed4f0714610adf57610475565b80639485871b1161021b5780639485871b146108a1578063968644f0146108a95780639b7021ce146108b15780639c7b005d146108b95780639c872d02146108df57610475565b8063854dba401461081757806386099c541461081f57806386676d4314610827578063893659091461084d5780638e32f35e1461087357610475565b806354749af3116103735780636475e342116102f05780636f6c0e7d116102b45780636f6c0e7d146107b3578063768365ea146107bb57806378c49574146107c357806378ddee75146107e9578063834aa4f61461080f57610475565b80636475e34214610765578063650ca32b1461076d5780636a72b27d146107755780636cd24daf1461077d5780636dc95c2e1461078557610475565b80635af47ca7116103375780635af47ca7146106e35780635dadd78a146107095780635e5ca652146107115780635f824bf9146107375780636232e59c1461073f57610475565b806354749af314610633578063568b2702146106595780635729e4a614610661578063575832df1461069757806357907837146106bd57610475565b806328520b30116104015780633a48bb56116103c55780633a48bb56146105b057806345057ed7146105cf5780634ae9388b146105f557806350cec2d5146105fd57806351bb36151461062b57610475565b806328520b301461054c57806328751b36146105545780632ca2bd161461057a5780632e963a80146105a057806334970f18146105a857610475565b806311cf3a221161044857806311cf3a221461050657806315dd9c061461050e57806318e504db146105345780631bf2f73d1461053c5780631e5e61901461054457610475565b8063080aa5d11461047a5780630df3e295146104945780630f84c046146104bc57806310d74c7d146104e0575b600080fd5b610482610d7c565b60408051918252519081900360200190f35b6104ba600480360360208110156104aa57600080fd5b50356001600160401b0316610d82565b005b6104c4610dfe565b604080516001600160401b039092168252519081900360200190f35b6104ba600480360360208110156104f657600080fd5b50356001600160401b0316610e7d565b6104c4610ec4565b6104ba6004803603602081101561052457600080fd5b50356001600160401b0316610f0d565b6104c4610f29565b6104c4610f72565b6104c4610fbb565b6104c4611004565b6104ba6004803603602081101561056a57600080fd5b50356001600160401b031661104d565b6104ba6004803603602081101561059057600080fd5b50356001600160401b0316611094565b6104c46110db565b6104c4611124565b6104ba600480360360208110156105c657600080fd5b5035151561116d565b6104ba600480360360208110156105e557600080fd5b50356001600160401b03166112af565b6104c46112c6565b6104c46004803603604081101561061357600080fd5b506001600160401b038135811691602001351661130f565b6104c4611485565b6104ba6004803603602081101561064957600080fd5b50356001600160401b03166114ce565b6104c46114e2565b6104ba6004803603604081101561067757600080fd5b5080356001600160401b031690602001356001600160c01b03191661152b565b6104ba600480360360208110156106ad57600080fd5b50356001600160401b0316611560565b6104ba600480360360208110156106d357600080fd5b50356001600160401b03166115a7565b6104ba600480360360208110156106f957600080fd5b50356001600160401b03166115ee565b6104c4611635565b6104ba6004803603602081101561072757600080fd5b50356001600160401b031661167e565b6104c46116c5565b6104c46004803603602081101561075557600080fd5b50356001600160401b031661170e565b6104c4611722565b6104c461176b565b6104c46117b4565b6104c46117fd565b6104ba6004803603604081101561079b57600080fd5b506001600160401b0381358116916020013516611846565b6104c4611853565b6104c461189c565b6104ba600480360360208110156107d957600080fd5b50356001600160401b03166118e5565b6104ba600480360360208110156107ff57600080fd5b50356001600160401b031661192c565b6104c4611973565b6104c46119bc565b6104c4611a05565b6104ba6004803603602081101561083d57600080fd5b50356001600160401b0316611b5b565b6104ba6004803603602081101561086357600080fd5b50356001600160401b0316611ba2565b6104ba6004803603604081101561088957600080fd5b506001600160401b0381358116916020013516611be9565b6104c4611ca4565b6104c4611ced565b6104c4611db6565b6104ba600480360360208110156108cf57600080fd5b50356001600160401b0316611dff565b6104ba600480360360208110156108f557600080fd5b50356001600160401b0316611e46565b6104c4611e8d565b6104ba6004803603606081101561092357600080fd5b81019060208101813564010000000081111561093e57600080fd5b82018360208201111561095057600080fd5b8035906020019184602083028401116401000000008311171561097257600080fd5b91908080602002602001604051908101604052809392919081815260200183836020028082843760009201919091525092959493602081019350359150506401000000008111156109c257600080fd5b8201836020820111156109d457600080fd5b803590602001918460208302840111640100000000831117156109f657600080fd5b9190808060200260200160405190810160405280939291908181526020018383602002808284376000920191909152509295949360208101935035915050640100000000811115610a4657600080fd5b820183602082011115610a5857600080fd5b80359060200191846020830284011164010000000083111715610a7a57600080fd5b919080806020026020016040519081016040528093929190818152602001838360200280828437600092019190915250929550611ed6945050505050565b6104c4611edb565b6104ba60048036036020811015610ad657600080fd5b50351515611f24565b6104ba60048036036020811015610af557600080fd5b50356001600160401b0316611fbe565b6104ba60048036036020811015610b1b57600080fd5b50356001600160401b0316612005565b6104c461204c565b6104ba60048036036020811015610b4957600080fd5b50356001600160401b0316612095565b6104ba60048036036020811015610b6f57600080fd5b503515156120dc565b6104c4612176565b6104c46121bf565b6104c4612208565b6104c4612251565b6104ba60048036036020811015610bae57600080fd5b50356001600160401b031661229a565b6104c46122e1565b6104ba60048036036020811015610bdc57600080fd5b50356001600160401b031661232a565b6104c4612489565b6104ba60048036036020811015610c0a57600080fd5b50356001600160401b03166125ac565b6104c46125f3565b6104c46126bc565b6104ba60048036036020811015610c4057600080fd5b50356001600160401b0316612705565b6104ba60048036036020811015610c6657600080fd5b50356001600160401b031661274c565b6104c4612793565b6104ba60048036036020811015610c9457600080fd5b50356001600160401b03166127dc565b6104ba60048036036020811015610cba57600080fd5b50356001600160401b0316612823565b6104c461286a565b6104ba60048036036020811015610ce857600080fd5b50356001600160401b0316612933565b6104c460048036036020811015610d0e57600080fd5b50356001600160401b031661297a565b6104ba60048036036020811015610d3457600080fd5b50356001600160401b0316612a13565b6104ba60048036036060811015610d5a57600080fd5b506001600160401b038135811691602081013582169160409091013516612a5a565b60005490565b610dfb73__$edd6a44efa4a8bdf57aa57ccba2bcfbb1d$__639a59734c6040518163ffffffff1660e01b815260040160206040518083038186803b158015610dc957600080fd5b505af4158015610ddd573d6000803e3d6000fd5b505050506040513d6020811015610df357600080fd5b505182611be9565b50565b6000610e7873__$edd6a44efa4a8bdf57aa57ccba2bcfbb1d$__636630ad876040518163ffffffff1660e01b815260040160206040518083038186803b158015610e4757600080fd5b505af4158015610e5b573d6000803e3d6000fd5b505050506040513d6020811015610e7157600080fd5b505161297a565b905090565b610dfb73__$edd6a44efa4a8bdf57aa57ccba2bcfbb1d$__6372eb67d06040518163ffffffff1660e01b815260040160206040518083038186803b158015610dc957600080fd5b6000610e7873__$edd6a44efa4a8bdf57aa57ccba2bcfbb1d$__638fd6b7c46040518163ffffffff1660e01b815260040160206040518083038186803b158015610e4757600080fd5b6000610f17611e8d565b8219169050610f2581611fbe565b5050565b6000610e7873__$edd6a44efa4a8bdf57aa57ccba2bcfbb1d$__63734b96006040518163ffffffff1660e01b815260040160206040518083038186803b158015610e4757600080fd5b6000610e7873__$edd6a44efa4a8bdf57aa57ccba2bcfbb1d$__63443fd5986040518163ffffffff1660e01b815260040160206040518083038186803b158015610e4757600080fd5b6000610e7873__$edd6a44efa4a8bdf57aa57ccba2bcfbb1d$__63ca04595a6040518163ffffffff1660e01b815260040160206040518083038186803b158015610e4757600080fd5b6000610e7873__$edd6a44efa4a8bdf57aa57ccba2bcfbb1d$__6372eb67d06040518163ffffffff1660e01b815260040160206040518083038186803b158015610e4757600080fd5b610dfb73__$edd6a44efa4a8bdf57aa57ccba2bcfbb1d$__63ca04595a6040518163ffffffff1660e01b815260040160206040518083038186803b158015610dc957600080fd5b610dfb73__$edd6a44efa4a8bdf57aa57ccba2bcfbb1d$__63d124bd136040518163ffffffff1660e01b815260040160206040518083038186803b158015610dc957600080fd5b6000610e7873__$edd6a44efa4a8bdf57aa57ccba2bcfbb1d$__6329301cac6040518163ffffffff1660e01b815260040160206040518083038186803b158015610e4757600080fd5b6000610e7873__$96c0387300a4d16af366df01fc33f52e50$__63521819f56040518163ffffffff1660e01b815260040160206040518083038186803b158015610e4757600080fd5b6000611177612251565b905081156111f55773__$6af7953b03ecb3cadd1ca9bb3675b9b8d6$__63e697ace96040518163ffffffff1660e01b815260040160206040518083038186803b1580156111c357600080fd5b505af41580156111d7573d6000803e3d6000fd5b505050506040513d60208110156111ed57600080fd5b505117611268565b73__$6af7953b03ecb3cadd1ca9bb3675b9b8d6$__63e697ace96040518163ffffffff1660e01b815260040160206040518083038186803b15801561123957600080fd5b505af415801561124d573d6000803e3d6000fd5b505050506040513d602081101561126357600080fd5b505119165b610f2573__$edd6a44efa4a8bdf57aa57ccba2bcfbb1d$__632ffdabc56040518163ffffffff1660e01b815260040160206040518083038186803b158015610dc957600080fd5b60006112b9611e8d565b82179050610f2581611fbe565b6000610e7873__$edd6a44efa4a8bdf57aa57ccba2bcfbb1d$__63b255e9e46040518163ffffffff1660e01b815260040160206040518083038186803b158015610e4757600080fd5b600060071983168084038261132383612ca2565b9050600073__$184ef4a65c614d890e6225597d290b0ed9$__63bf1924c5846008026001600160401b03166001896001600160401b031660026001600160401b03160a036001600160401b0316901b6040518263ffffffff1660e01b815260040180826001600160401b0316815260200191505060206040518083038186803b1580156113af57600080fd5b505af41580156113c3573d6000803e3d6000fd5b505050506040513d60208110156113d957600080fd5b50516040805163bf1924c560e01b81526001600160401b03858416811660048301529151929350600886029091169173__$184ef4a65c614d890e6225597d290b0ed9$__9163bf1924c5916024808301926020929190829003018186803b15801561144357600080fd5b505af4158015611457573d6000803e3d6000fd5b505050506040513d602081101561146d57600080fd5b50516001600160401b0316901c979650505050505050565b6000610e7873__$edd6a44efa4a8bdf57aa57ccba2bcfbb1d$__637047f4df6040518163ffffffff1660e01b815260040160206040518083038186803b158015610e4757600080fd5b6114d78161232a565b610dfb60001961274c565b6000610e7873__$edd6a44efa4a8bdf57aa57ccba2bcfbb1d$__6345827f696040518163ffffffff1660e01b815260040160206040518083038186803b158015610e4757600080fd5b6001600160401b03919091166000908152600460205260409020805467ffffffffffffffff191660c09290921c919091179055565b610dfb73__$edd6a44efa4a8bdf57aa57ccba2bcfbb1d$__63e59cb5746040518163ffffffff1660e01b815260040160206040518083038186803b158015610dc957600080fd5b610dfb73__$edd6a44efa4a8bdf57aa57ccba2bcfbb1d$__63734b96006040518163ffffffff1660e01b815260040160206040518083038186803b158015610dc957600080fd5b610dfb73__$edd6a44efa4a8bdf57aa57ccba2bcfbb1d$__639ff9932b6040518163ffffffff1660e01b815260040160206040518083038186803b158015610dc957600080fd5b6000610e7873__$edd6a44efa4a8bdf57aa57ccba2bcfbb1d$__63e2e2e7126040518163ffffffff1660e01b815260040160206040518083038186803b158015610e4757600080fd5b610dfb73__$edd6a44efa4a8bdf57aa57ccba2bcfbb1d$__63a43e290f6040518163ffffffff1660e01b815260040160206040518083038186803b158015610dc957600080fd5b6000610e7873__$edd6a44efa4a8bdf57aa57ccba2bcfbb1d$__6392f5aa226040518163ffffffff1660e01b815260040160206040518083038186803b158015610e4757600080fd5b600061171c8260080261297a565b92915050565b6000610e7873__$3c056aa8a31fb3ce78f242f7ef99e26695$__63870981356040518163ffffffff1660e01b815260040160206040518083038186803b158015610e4757600080fd5b6000610e7873__$edd6a44efa4a8bdf57aa57ccba2bcfbb1d$__63d41a5b596040518163ffffffff1660e01b815260040160206040518083038186803b158015610e4757600080fd5b6000610e7873__$edd6a44efa4a8bdf57aa57ccba2bcfbb1d$__63e59cb5746040518163ffffffff1660e01b815260040160206040518083038186803b158015610e4757600080fd5b6000610e7873__$edd6a44efa4a8bdf57aa57ccba2bcfbb1d$__63da3e8d7b6040518163ffffffff1660e01b815260040160206040518083038186803b158015610e4757600080fd5b610f258260080282611be9565b6000610e7873__$96c0387300a4d16af366df01fc33f52e50$__636299ea3f6040518163ffffffff1660e01b815260040160206040518083038186803b158015610e4757600080fd5b6000610e7873__$96c0387300a4d16af366df01fc33f52e50$__63f4655f126040518163ffffffff1660e01b815260040160206040518083038186803b158015610e4757600080fd5b610dfb73__$edd6a44efa4a8bdf57aa57ccba2bcfbb1d$__6345827f696040518163ffffffff1660e01b815260040160206040518083038186803b158015610dc957600080fd5b610dfb73__$edd6a44efa4a8bdf57aa57ccba2bcfbb1d$__63b255e9e46040518163ffffffff1660e01b815260040160206040518083038186803b158015610dc957600080fd5b6000610e7873__$edd6a44efa4a8bdf57aa57ccba2bcfbb1d$__634a4c35106040518163ffffffff1660e01b815260040160206040518083038186803b158015610e4757600080fd5b6000610e7873__$edd6a44efa4a8bdf57aa57ccba2bcfbb1d$__63c585eede6040518163ffffffff1660e01b815260040160206040518083038186803b158015610e4757600080fd5b600073__$6af7953b03ecb3cadd1ca9bb3675b9b8d6$__6317a0cac36040518163ffffffff1660e01b815260040160206040518083038186803b158015611a4b57600080fd5b505af4158015611a5f573d6000803e3d6000fd5b505050506040513d6020811015611a7557600080fd5b5051604080516351a2ab4160e11b815290516001600160401b039092169173__$6af7953b03ecb3cadd1ca9bb3675b9b8d6$__9163a3455682916004808301926020929190829003018186803b158015611ace57600080fd5b505af4158015611ae2573d6000803e3d6000fd5b505050506040513d6020811015611af857600080fd5b505160408051632ffdabc560e01b81529051611b4a9173__$edd6a44efa4a8bdf57aa57ccba2bcfbb1d$__91632ffdabc591600480820192602092909190829003018186803b158015610e4757600080fd5b166001600160401b0316901c905090565b610dfb73__$edd6a44efa4a8bdf57aa57ccba2bcfbb1d$__63e80d17516040518163ffffffff1660e01b815260040160206040518083038186803b158015610dc957600080fd5b610dfb73__$edd6a44efa4a8bdf57aa57ccba2bcfbb1d$__637047f4df6040518163ffffffff1660e01b815260040160206040518083038186803b158015610dc957600080fd5b600073__$184ef4a65c614d890e6225597d290b0ed9$__63bf1924c5836040518263ffffffff1660e01b815260040180826001600160401b0316815260200191505060206040518083038186803b158015611c4357600080fd5b505af4158015611c57573d6000803e3d6000fd5b505050506040513d6020811015611c6d57600080fd5b50516001600160401b039384166000908152600460205260409020805467ffffffffffffffff191694909116939093179092555050565b6000610e7873__$edd6a44efa4a8bdf57aa57ccba2bcfbb1d$__63d124bd136040518163ffffffff1660e01b815260040160206040518083038186803b158015610e4757600080fd5b600073__$6af7953b03ecb3cadd1ca9bb3675b9b8d6$__63656b151f6040518163ffffffff1660e01b815260040160206040518083038186803b158015611d3357600080fd5b505af4158015611d47573d6000803e3d6000fd5b505050506040513d6020811015611d5d57600080fd5b50516040805163fd198e5560e01b815290516001600160401b039092169173__$6af7953b03ecb3cadd1ca9bb3675b9b8d6$__9163fd198e55916004808301926020929190829003018186803b158015611ace57600080fd5b6000610e7873__$edd6a44efa4a8bdf57aa57ccba2bcfbb1d$__639ff9932b6040518163ffffffff1660e01b815260040160206040518083038186803b158015610e4757600080fd5b610dfb73__$edd6a44efa4a8bdf57aa57ccba2bcfbb1d$__6329301cac6040518163ffffffff1660e01b815260040160206040518083038186803b158015610dc957600080fd5b610dfb73__$edd6a44efa4a8bdf57aa57ccba2bcfbb1d$__638fd6b7c46040518163ffffffff1660e01b815260040160206040518083038186803b158015610dc957600080fd5b6000610e7873__$edd6a44efa4a8bdf57aa57ccba2bcfbb1d$__63520aff6c6040518163ffffffff1660e01b815260040160206040518083038186803b158015610e4757600080fd5b505050565b6000610e7873__$edd6a44efa4a8bdf57aa57ccba2bcfbb1d$__632935b8ce6040518163ffffffff1660e01b815260040160206040518083038186803b158015610e4757600080fd5b6000611f2e612251565b90508115611f7a5773__$6af7953b03ecb3cadd1ca9bb3675b9b8d6$__63fd198e556040518163ffffffff1660e01b815260040160206040518083038186803b1580156111c357600080fd5b73__$6af7953b03ecb3cadd1ca9bb3675b9b8d6$__63fd198e556040518163ffffffff1660e01b815260040160206040518083038186803b15801561123957600080fd5b610dfb73__$edd6a44efa4a8bdf57aa57ccba2bcfbb1d$__63520aff6c6040518163ffffffff1660e01b815260040160206040518083038186803b158015610dc957600080fd5b610dfb73__$edd6a44efa4a8bdf57aa57ccba2bcfbb1d$__63443fd5986040518163ffffffff1660e01b815260040160206040518083038186803b158015610dc957600080fd5b6000610e7873__$edd6a44efa4a8bdf57aa57ccba2bcfbb1d$__639a59734c6040518163ffffffff1660e01b815260040160206040518083038186803b158015610e4757600080fd5b610dfb73__$96c0387300a4d16af366df01fc33f52e50$__630a279d716040518163ffffffff1660e01b815260040160206040518083038186803b158015610dc957600080fd5b60006120e6612251565b905081156121325773__$6af7953b03ecb3cadd1ca9bb3675b9b8d6$__63a34556826040518163ffffffff1660e01b815260040160206040518083038186803b1580156111c357600080fd5b73__$6af7953b03ecb3cadd1ca9bb3675b9b8d6$__63a34556826040518163ffffffff1660e01b815260040160206040518083038186803b15801561123957600080fd5b6000610e7873__$edd6a44efa4a8bdf57aa57ccba2bcfbb1d$__6342db36676040518163ffffffff1660e01b815260040160206040518083038186803b158015610e4757600080fd5b6000610e7873__$96c0387300a4d16af366df01fc33f52e50$__636903680c6040518163ffffffff1660e01b815260040160206040518083038186803b158015610e4757600080fd5b6000610e7873__$edd6a44efa4a8bdf57aa57ccba2bcfbb1d$__63929127db6040518163ffffffff1660e01b815260040160206040518083038186803b158015610e4757600080fd5b6000610e7873__$edd6a44efa4a8bdf57aa57ccba2bcfbb1d$__632ffdabc56040518163ffffffff1660e01b815260040160206040518083038186803b158015610e4757600080fd5b610dfb73__$edd6a44efa4a8bdf57aa57ccba2bcfbb1d$__636630ad876040518163ffffffff1660e01b815260040160206040518083038186803b158015610dc957600080fd5b6000610e7873__$edd6a44efa4a8bdf57aa57ccba2bcfbb1d$__63e80d17516040518163ffffffff1660e01b815260040160206040518083038186803b158015610e4757600080fd5b6000612334612251565b905073__$6af7953b03ecb3cadd1ca9bb3675b9b8d6$__63910a52476040518163ffffffff1660e01b815260040160206040518083038186803b15801561237a57600080fd5b505af415801561238e573d6000803e3d6000fd5b505050506040513d60208110156123a457600080fd5b50516040805163317d2bb560e01b815290516001600160401b0385811693169290921b9173__$6af7953b03ecb3cadd1ca9bb3675b9b8d6$__9163317d2bb5916004808301926020929190829003018186803b15801561240357600080fd5b505af4158015612417573d6000803e3d6000fd5b505050506040513d602081101561242d57600080fd5b505160408051632ffdabc560e01b815290519119939093169190911791610f259173__$edd6a44efa4a8bdf57aa57ccba2bcfbb1d$__91632ffdabc5916004808301926020929190829003018186803b158015610dc957600080fd5b63400080006000908152600460208181527f1f90ff9d73e8a6c31aa68ce092ee24c1fc49bc29c8525b76e90c710641779cea546040805163bf1924c560e01b81526001600160401b0390921693820184905251849273__$184ef4a65c614d890e6225597d290b0ed9$__9263bf1924c59260248083019392829003018186803b15801561251557600080fd5b505af4158015612529573d6000803e3d6000fd5b505050506040513d602081101561253f57600080fd5b505160005460408051918252657fffffffffff600184811c919091166020840181905281851691821484840181905292519496509194509290917f23a6dbf84a188125a7e041cf278e49ebf25abc3565d481f0728681181a01b1d4919081900360600190a1935050505090565b610dfb73__$edd6a44efa4a8bdf57aa57ccba2bcfbb1d$__632935b8ce6040518163ffffffff1660e01b815260040160206040518083038186803b158015610dc957600080fd5b600073__$6af7953b03ecb3cadd1ca9bb3675b9b8d6$__63e89d408d6040518163ffffffff1660e01b815260040160206040518083038186803b15801561263957600080fd5b505af415801561264d573d6000803e3d6000fd5b505050506040513d602081101561266357600080fd5b50516040805163e697ace960e01b815290516001600160401b039092169173__$6af7953b03ecb3cadd1ca9bb3675b9b8d6$__9163e697ace9916004808301926020929190829003018186803b158015611ace57600080fd5b6000610e7873__$edd6a44efa4a8bdf57aa57ccba2bcfbb1d$__63a43e290f6040518163ffffffff1660e01b815260040160206040518083038186803b158015610e4757600080fd5b610dfb73__$96c0387300a4d16af366df01fc33f52e50$__63521819f56040518163ffffffff1660e01b815260040160206040518083038186803b158015610dc957600080fd5b610dfb73__$edd6a44efa4a8bdf57aa57ccba2bcfbb1d$__63e2e2e7126040518163ffffffff1660e01b815260040160206040518083038186803b158015610dc957600080fd5b6000610e7873__$96c0387300a4d16af366df01fc33f52e50$__630a279d716040518163ffffffff1660e01b815260040160206040518083038186803b158015610e4757600080fd5b610dfb73__$edd6a44efa4a8bdf57aa57ccba2bcfbb1d$__6342db36676040518163ffffffff1660e01b815260040160206040518083038186803b158015610dc957600080fd5b610dfb73__$edd6a44efa4a8bdf57aa57ccba2bcfbb1d$__63da3e8d7b6040518163ffffffff1660e01b815260040160206040518083038186803b158015610dc957600080fd5b600073__$6af7953b03ecb3cadd1ca9bb3675b9b8d6$__63910a52476040518163ffffffff1660e01b815260040160206040518083038186803b1580156128b057600080fd5b505af41580156128c4573d6000803e3d6000fd5b505050506040513d60208110156128da57600080fd5b50516040805163317d2bb560e01b815290516001600160401b039092169173__$6af7953b03ecb3cadd1ca9bb3675b9b8d6$__9163317d2bb5916004808301926020929190829003018186803b158015611ace57600080fd5b610dfb73__$edd6a44efa4a8bdf57aa57ccba2bcfbb1d$__63d41a5b596040518163ffffffff1660e01b815260040160206040518083038186803b158015610dc957600080fd5b600073__$184ef4a65c614d890e6225597d290b0ed9$__63bf1924c56129a1846001612cb8565b60c01c6040518263ffffffff1660e01b815260040180826001600160401b0316815260200191505060206040518083038186803b1580156129e157600080fd5b505af41580156129f5573d6000803e3d6000fd5b505050506040513d6020811015612a0b57600080fd5b505192915050565b610dfb73__$3c056aa8a31fb3ce78f242f7ef99e26695$__63870981356040518163ffffffff1660e01b815260040160206040518083038186803b158015610dc957600080fd5b600060086001600160401b038316049050806001600160401b031660081415612a8c57612a878484611be9565b612c9c565b60071984168085036000612a9f83612ca2565b9050600073__$184ef4a65c614d890e6225597d290b0ed9$__63bf1924c5846008026001600160401b03166001896001600160401b031660026001600160401b03160a036001600160401b0316901b6040518263ffffffff1660e01b815260040180826001600160401b0316815260200191505060206040518083038186803b158015612b2b57600080fd5b505af4158015612b3f573d6000803e3d6000fd5b505050506040513d6020811015612b5557600080fd5b50516040805163bf1924c560e01b81526001600160401b0389811660020a600019018b16166004820152905191925060009173__$184ef4a65c614d890e6225597d290b0ed9$__9163bf1924c5916024808301926020929190829003018186803b158015612bc257600080fd5b505af4158015612bd6573d6000803e3d6000fd5b505050506040513d6020811015612bec57600080fd5b50516040805163bf1924c560e01b81526001600160401b038084166008890282161c861988161790811660048301529151929350909173__$184ef4a65c614d890e6225597d290b0ed9$__9163bf1924c5916024808301926020929190829003018186803b158015612c5d57600080fd5b505af4158015612c71573d6000803e3d6000fd5b505050506040513d6020811015612c8757600080fd5b50519050612c958682611be9565b5050505050505b50505050565b6000612caf826001612cb8565b60c01c92915050565b60006007831615612d10576040805162461bcd60e51b815260206004820152601760248201527f506f736974696f6e206973206e6f7420616c69676e6564000000000000000000604482015290519081900360640190fd5b50506001600160401b031660009081526004602052604090205460c01b9056fea264697066735822122049a06a7e23d14ad53aa780522141663baacc9089c8fb8aff79b0c457c250ddeb64736f6c63430007040033",
  "linkReferences": {
    "@cartesi/util/contracts/BitsManipulationLibrary.sol": {
      "BitsManipulationLibrary": [
        {
          "length": 20,
          "start": 4937
        },
        {
          "length": 20,
          "start": 5162
        },
        {
          "length": 20,
          "start": 7181
        },
        {
          "length": 20,
          "start": 9472
        },
        {
          "length": 20,
          "start": 10654
        },
        {
          "length": 20,
          "start": 10949
        },
        {
          "length": 20,
          "start": 11177
        },
        {
          "length": 20,
          "start": 11332
        }
      ]
    },
    "contracts/CLINT.sol": {
      "CLINT": [
        {
          "length": 20,
          "start": 5961
        },
        {
          "length": 20,
          "start": 10808
        }
      ]
    },
    "contracts/HTIF.sol": {
      "HTIF": [
        {
          "length": 20,
          "start": 4427
        },
        {
          "length": 20,
          "start": 6266
        },
        {
          "length": 20,
          "start": 6339
        },
        {
          "length": 20,
          "start": 8378
        },
        {
          "length": 20,
          "start": 8678
        },
        {
          "length": 20,
          "start": 10026
        },
        {
          "length": 20,
          "start": 10170
        }
      ]
    },
    "contracts/RiscVConstants.sol": {
      "RiscVConstants": [
        {
          "length": 20,
          "start": 4513
        },
        {
          "length": 20,
          "start": 4631
        },
        {
          "length": 20,
          "start": 6697
        },
        {
          "length": 20,
          "start": 6837
        },
        {
          "length": 20,
          "start": 7441
        },
        {
          "length": 20,
          "start": 7581
        },
        {
          "length": 20,
          "start": 8024
        },
        {
          "length": 20,
          "start": 8092
        },
        {
          "length": 20,
          "start": 8464
        },
        {
          "length": 20,
          "start": 8532
        },
        {
          "length": 20,
          "start": 9048
        },
        {
          "length": 20,
          "start": 9194
        },
        {
          "length": 20,
          "start": 9751
        },
        {
          "length": 20,
          "start": 9891
        },
        {
          "length": 20,
          "start": 10382
        },
        {
          "length": 20,
          "start": 10522
        }
      ]
    },
    "contracts/ShadowAddresses.sol": {
      "ShadowAddresses": [
        {
          "length": 20,
          "start": 3495
        },
        {
          "length": 20,
          "start": 3621
        },
        {
          "length": 20,
          "start": 3746
        },
        {
          "length": 20,
          "start": 3819
        },
        {
          "length": 20,
          "start": 3920
        },
        {
          "length": 20,
          "start": 3993
        },
        {
          "length": 20,
          "start": 4066
        },
        {
          "length": 20,
          "start": 4139
        },
        {
          "length": 20,
          "start": 4210
        },
        {
          "length": 20,
          "start": 4281
        },
        {
          "length": 20,
          "start": 4354
        },
        {
          "length": 20,
          "start": 4749
        },
        {
          "length": 20,
          "start": 4845
        },
        {
          "length": 20,
          "start": 5292
        },
        {
          "length": 20,
          "start": 5385
        },
        {
          "length": 20,
          "start": 5509
        },
        {
          "length": 20,
          "start": 5580
        },
        {
          "length": 20,
          "start": 5651
        },
        {
          "length": 20,
          "start": 5724
        },
        {
          "length": 20,
          "start": 5795
        },
        {
          "length": 20,
          "start": 5868
        },
        {
          "length": 20,
          "start": 6034
        },
        {
          "length": 20,
          "start": 6107
        },
        {
          "length": 20,
          "start": 6180
        },
        {
          "length": 20,
          "start": 6410
        },
        {
          "length": 20,
          "start": 6481
        },
        {
          "length": 20,
          "start": 6554
        },
        {
          "length": 20,
          "start": 6627
        },
        {
          "length": 20,
          "start": 6960
        },
        {
          "length": 20,
          "start": 7040
        },
        {
          "length": 20,
          "start": 7111
        },
        {
          "length": 20,
          "start": 7371
        },
        {
          "length": 20,
          "start": 7645
        },
        {
          "length": 20,
          "start": 7716
        },
        {
          "length": 20,
          "start": 7787
        },
        {
          "length": 20,
          "start": 7860
        },
        {
          "length": 20,
          "start": 7938
        },
        {
          "length": 20,
          "start": 8163
        },
        {
          "length": 20,
          "start": 8234
        },
        {
          "length": 20,
          "start": 8307
        },
        {
          "length": 20,
          "start": 8605
        },
        {
          "length": 20,
          "start": 8751
        },
        {
          "length": 20,
          "start": 8824
        },
        {
          "length": 20,
          "start": 8895
        },
        {
          "length": 20,
          "start": 8968
        },
        {
          "length": 20,
          "start": 9328
        },
        {
          "length": 20,
          "start": 9681
        },
        {
          "length": 20,
          "start": 9955
        },
        {
          "length": 20,
          "start": 10097
        },
        {
          "length": 20,
          "start": 10241
        },
        {
          "length": 20,
          "start": 10312
        },
        {
          "length": 20,
          "start": 10584
        }
      ]
    }
  },
  "deployedLinkReferences": {
    "@cartesi/util/contracts/BitsManipulationLibrary.sol": {
      "BitsManipulationLibrary": [
        {
          "length": 20,
          "start": 4905
        },
        {
          "length": 20,
          "start": 5130
        },
        {
          "length": 20,
          "start": 7149
        },
        {
          "length": 20,
          "start": 9440
        },
        {
          "length": 20,
          "start": 10622
        },
        {
          "length": 20,
          "start": 10917
        },
        {
          "length": 20,
          "start": 11145
        },
        {
          "length": 20,
          "start": 11300
        }
      ]
    },
    "contracts/CLINT.sol": {
      "CLINT": [
        {
          "length": 20,
          "start": 5929
        },
        {
          "length": 20,
          "start": 10776
        }
      ]
    },
    "contracts/HTIF.sol": {
      "HTIF": [
        {
          "length": 20,
          "start": 4395
        },
        {
          "length": 20,
          "start": 6234
        },
        {
          "length": 20,
          "start": 6307
        },
        {
          "length": 20,
          "start": 8346
        },
        {
          "length": 20,
          "start": 8646
        },
        {
          "length": 20,
          "start": 9994
        },
        {
          "length": 20,
          "start": 10138
        }
      ]
    },
    "contracts/RiscVConstants.sol": {
      "RiscVConstants": [
        {
          "length": 20,
          "start": 4481
        },
        {
          "length": 20,
          "start": 4599
        },
        {
          "length": 20,
          "start": 6665
        },
        {
          "length": 20,
          "start": 6805
        },
        {
          "length": 20,
          "start": 7409
        },
        {
          "length": 20,
          "start": 7549
        },
        {
          "length": 20,
          "start": 7992
        },
        {
          "length": 20,
          "start": 8060
        },
        {
          "length": 20,
          "start": 8432
        },
        {
          "length": 20,
          "start": 8500
        },
        {
          "length": 20,
          "start": 9016
        },
        {
          "length": 20,
          "start": 9162
        },
        {
          "length": 20,
          "start": 9719
        },
        {
          "length": 20,
          "start": 9859
        },
        {
          "length": 20,
          "start": 10350
        },
        {
          "length": 20,
          "start": 10490
        }
      ]
    },
    "contracts/ShadowAddresses.sol": {
      "ShadowAddresses": [
        {
          "length": 20,
          "start": 3463
        },
        {
          "length": 20,
          "start": 3589
        },
        {
          "length": 20,
          "start": 3714
        },
        {
          "length": 20,
          "start": 3787
        },
        {
          "length": 20,
          "start": 3888
        },
        {
          "length": 20,
          "start": 3961
        },
        {
          "length": 20,
          "start": 4034
        },
        {
          "length": 20,
          "start": 4107
        },
        {
          "length": 20,
          "start": 4178
        },
        {
          "length": 20,
          "start": 4249
        },
        {
          "length": 20,
          "start": 4322
        },
        {
          "length": 20,
          "start": 4717
        },
        {
          "length": 20,
          "start": 4813
        },
        {
          "length": 20,
          "start": 5260
        },
        {
          "length": 20,
          "start": 5353
        },
        {
          "length": 20,
          "start": 5477
        },
        {
          "length": 20,
          "start": 5548
        },
        {
          "length": 20,
          "start": 5619
        },
        {
          "length": 20,
          "start": 5692
        },
        {
          "length": 20,
          "start": 5763
        },
        {
          "length": 20,
          "start": 5836
        },
        {
          "length": 20,
          "start": 6002
        },
        {
          "length": 20,
          "start": 6075
        },
        {
          "length": 20,
          "start": 6148
        },
        {
          "length": 20,
          "start": 6378
        },
        {
          "length": 20,
          "start": 6449
        },
        {
          "length": 20,
          "start": 6522
        },
        {
          "length": 20,
          "start": 6595
        },
        {
          "length": 20,
          "start": 6928
        },
        {
          "length": 20,
          "start": 7008
        },
        {
          "length": 20,
          "start": 7079
        },
        {
          "length": 20,
          "start": 7339
        },
        {
          "length": 20,
          "start": 7613
        },
        {
          "length": 20,
          "start": 7684
        },
        {
          "length": 20,
          "start": 7755
        },
        {
          "length": 20,
          "start": 7828
        },
        {
          "length": 20,
          "start": 7906
        },
        {
          "length": 20,
          "start": 8131
        },
        {
          "length": 20,
          "start": 8202
        },
        {
          "length": 20,
          "start": 8275
        },
        {
          "length": 20,
          "start": 8573
        },
        {
          "length": 20,
          "start": 8719
        },
        {
          "length": 20,
          "start": 8792
        },
        {
          "length": 20,
          "start": 8863
        },
        {
          "length": 20,
          "start": 8936
        },
        {
          "length": 20,
          "start": 9296
        },
        {
          "length": 20,
          "start": 9649
        },
        {
          "length": 20,
          "start": 9923
        },
        {
          "length": 20,
          "start": 10065
        },
        {
          "length": 20,
          "start": 10209
        },
        {
          "length": 20,
          "start": 10280
        },
        {
          "length": 20,
          "start": 10552
        }
      ]
    }
  },
  "devdoc": {
    "author": "Felipe",
    "details": "This should never be deployed to Main net.This contract is unsafe.",
    "kind": "dev",
    "methods": {},
    "title": "Test Memory Interactor",
    "version": 1
  },
  "evm": {
    "bytecode": {
      "linkReferences": {
        "@cartesi/util/contracts/BitsManipulationLibrary.sol": {
          "BitsManipulationLibrary": [
            {
              "length": 20,
              "start": 4937
            },
            {
              "length": 20,
              "start": 5162
            },
            {
              "length": 20,
              "start": 7181
            },
            {
              "length": 20,
              "start": 9472
            },
            {
              "length": 20,
              "start": 10654
            },
            {
              "length": 20,
              "start": 10949
            },
            {
              "length": 20,
              "start": 11177
            },
            {
              "length": 20,
              "start": 11332
            }
          ]
        },
        "contracts/CLINT.sol": {
          "CLINT": [
            {
              "length": 20,
              "start": 5961
            },
            {
              "length": 20,
              "start": 10808
            }
          ]
        },
        "contracts/HTIF.sol": {
          "HTIF": [
            {
              "length": 20,
              "start": 4427
            },
            {
              "length": 20,
              "start": 6266
            },
            {
              "length": 20,
              "start": 6339
            },
            {
              "length": 20,
              "start": 8378
            },
            {
              "length": 20,
              "start": 8678
            },
            {
              "length": 20,
              "start": 10026
            },
            {
              "length": 20,
              "start": 10170
            }
          ]
        },
        "contracts/RiscVConstants.sol": {
          "RiscVConstants": [
            {
              "length": 20,
              "start": 4513
            },
            {
              "length": 20,
              "start": 4631
            },
            {
              "length": 20,
              "start": 6697
            },
            {
              "length": 20,
              "start": 6837
            },
            {
              "length": 20,
              "start": 7441
            },
            {
              "length": 20,
              "start": 7581
            },
            {
              "length": 20,
              "start": 8024
            },
            {
              "length": 20,
              "start": 8092
            },
            {
              "length": 20,
              "start": 8464
            },
            {
              "length": 20,
              "start": 8532
            },
            {
              "length": 20,
              "start": 9048
            },
            {
              "length": 20,
              "start": 9194
            },
            {
              "length": 20,
              "start": 9751
            },
            {
              "length": 20,
              "start": 9891
            },
            {
              "length": 20,
              "start": 10382
            },
            {
              "length": 20,
              "start": 10522
            }
          ]
        },
        "contracts/ShadowAddresses.sol": {
          "ShadowAddresses": [
            {
              "length": 20,
              "start": 3495
            },
            {
              "length": 20,
              "start": 3621
            },
            {
              "length": 20,
              "start": 3746
            },
            {
              "length": 20,
              "start": 3819
            },
            {
              "length": 20,
              "start": 3920
            },
            {
              "length": 20,
              "start": 3993
            },
            {
              "length": 20,
              "start": 4066
            },
            {
              "length": 20,
              "start": 4139
            },
            {
              "length": 20,
              "start": 4210
            },
            {
              "length": 20,
              "start": 4281
            },
            {
              "length": 20,
              "start": 4354
            },
            {
              "length": 20,
              "start": 4749
            },
            {
              "length": 20,
              "start": 4845
            },
            {
              "length": 20,
              "start": 5292
            },
            {
              "length": 20,
              "start": 5385
            },
            {
              "length": 20,
              "start": 5509
            },
            {
              "length": 20,
              "start": 5580
            },
            {
              "length": 20,
              "start": 5651
            },
            {
              "length": 20,
              "start": 5724
            },
            {
              "length": 20,
              "start": 5795
            },
            {
              "length": 20,
              "start": 5868
            },
            {
              "length": 20,
              "start": 6034
            },
            {
              "length": 20,
              "start": 6107
            },
            {
              "length": 20,
              "start": 6180
            },
            {
              "length": 20,
              "start": 6410
            },
            {
              "length": 20,
              "start": 6481
            },
            {
              "length": 20,
              "start": 6554
            },
            {
              "length": 20,
              "start": 6627
            },
            {
              "length": 20,
              "start": 6960
            },
            {
              "length": 20,
              "start": 7040
            },
            {
              "length": 20,
              "start": 7111
            },
            {
              "length": 20,
              "start": 7371
            },
            {
              "length": 20,
              "start": 7645
            },
            {
              "length": 20,
              "start": 7716
            },
            {
              "length": 20,
              "start": 7787
            },
            {
              "length": 20,
              "start": 7860
            },
            {
              "length": 20,
              "start": 7938
            },
            {
              "length": 20,
              "start": 8163
            },
            {
              "length": 20,
              "start": 8234
            },
            {
              "length": 20,
              "start": 8307
            },
            {
              "length": 20,
              "start": 8605
            },
            {
              "length": 20,
              "start": 8751
            },
            {
              "length": 20,
              "start": 8824
            },
            {
              "length": 20,
              "start": 8895
            },
            {
              "length": 20,
              "start": 8968
            },
            {
              "length": 20,
              "start": 9328
            },
            {
              "length": 20,
              "start": 9681
            },
            {
              "length": 20,
              "start": 9955
            },
            {
              "length": 20,
              "start": 10097
            },
            {
              "length": 20,
              "start": 10241
            },
            {
              "length": 20,
              "start": 10312
            },
            {
              "length": 20,
              "start": 10584
            }
          ]
        }
      },
      "opcodes": "PUSH1 0x80 PUSH1 0x40 MSTORE CALLVALUE DUP1 ISZERO PUSH2 0x10 JUMPI PUSH1 0x0 DUP1 REVERT JUMPDEST POP PUSH2 0x2D66 DUP1 PUSH2 0x20 PUSH1 0x0 CODECOPY PUSH1 0x0 RETURN INVALID PUSH1 0x80 PUSH1 0x40 MSTORE CALLVALUE DUP1 ISZERO PUSH2 0x10 JUMPI PUSH1 0x0 DUP1 REVERT JUMPDEST POP PUSH1 0x4 CALLDATASIZE LT PUSH2 0x475 JUMPI PUSH1 0x0 CALLDATALOAD PUSH1 0xE0 SHR DUP1 PUSH4 0x854DBA40 GT PUSH2 0x257 JUMPI DUP1 PUSH4 0xB8FD205C GT PUSH2 0x146 JUMPI DUP1 PUSH4 0xDD5C4A14 GT PUSH2 0xC3 JUMPI DUP1 PUSH4 0xF7AC913D GT PUSH2 0x87 JUMPI DUP1 PUSH4 0xF7AC913D EQ PUSH2 0xCCA JUMPI DUP1 PUSH4 0xF9911587 EQ PUSH2 0xCD2 JUMPI DUP1 PUSH4 0xFA644AF5 EQ PUSH2 0xCF8 JUMPI DUP1 PUSH4 0xFBDB975D EQ PUSH2 0xD1E JUMPI DUP1 PUSH4 0xFD295ABE EQ PUSH2 0xD44 JUMPI PUSH2 0x475 JUMP JUMPDEST DUP1 PUSH4 0xDD5C4A14 EQ PUSH2 0xC2A JUMPI DUP1 PUSH4 0xF21D94F8 EQ PUSH2 0xC50 JUMPI DUP1 PUSH4 0xF2CF6CEB EQ PUSH2 0xC76 JUMPI DUP1 PUSH4 0xF55C4D38 EQ PUSH2 0xC7E JUMPI DUP1 PUSH4 0xF604EDB8 EQ PUSH2 0xCA4 JUMPI PUSH2 0x475 JUMP JUMPDEST DUP1 PUSH4 0xCECDAE53 GT PUSH2 0x10A JUMPI DUP1 PUSH4 0xCECDAE53 EQ PUSH2 0xBC6 JUMPI DUP1 PUSH4 0xCF187430 EQ PUSH2 0xBEC JUMPI DUP1 PUSH4 0xD2BE7B6D EQ PUSH2 0xBF4 JUMPI DUP1 PUSH4 0xD40D17C5 EQ PUSH2 0xC1A JUMPI DUP1 PUSH4 0xDADED5C2 EQ PUSH2 0xC22 JUMPI PUSH2 0x475 JUMP JUMPDEST DUP1 PUSH4 0xB8FD205C EQ PUSH2 0xB80 JUMPI DUP1 PUSH4 0xBECDC10D EQ PUSH2 0xB88 JUMPI DUP1 PUSH4 0xC133B7FF EQ PUSH2 0xB90 JUMPI DUP1 PUSH4 0xCBC446B1 EQ PUSH2 0xB98 JUMPI DUP1 PUSH4 0xCC92CBF7 EQ PUSH2 0xBBE JUMPI PUSH2 0x475 JUMP JUMPDEST DUP1 PUSH4 0xA317CE9D GT PUSH2 0x1D4 JUMPI DUP1 PUSH4 0xAB9779B7 GT PUSH2 0x198 JUMPI DUP1 PUSH4 0xAB9779B7 EQ PUSH2 0xB05 JUMPI DUP1 PUSH4 0xAF63B2A8 EQ PUSH2 0xB2B JUMPI DUP1 PUSH4 0xB2325AEF EQ PUSH2 0xB33 JUMPI DUP1 PUSH4 0xB27EC920 EQ PUSH2 0xB59 JUMPI DUP1 PUSH4 0xB5B98ED4 EQ PUSH2 0xB78 JUMPI PUSH2 0x475 JUMP JUMPDEST DUP1 PUSH4 0xA317CE9D EQ PUSH2 0x905 JUMPI DUP1 PUSH4 0xA47594DF EQ PUSH2 0x90D JUMPI DUP1 PUSH4 0xA740DBC1 EQ PUSH2 0xAB8 JUMPI DUP1 PUSH4 0xA7458B95 EQ PUSH2 0xAC0 JUMPI DUP1 PUSH4 0xAAED4F07 EQ PUSH2 0xADF JUMPI PUSH2 0x475 JUMP JUMPDEST DUP1 PUSH4 0x9485871B GT PUSH2 0x21B JUMPI DUP1 PUSH4 0x9485871B EQ PUSH2 0x8A1 JUMPI DUP1 PUSH4 0x968644F0 EQ PUSH2 0x8A9 JUMPI DUP1 PUSH4 0x9B7021CE EQ PUSH2 0x8B1 JUMPI DUP1 PUSH4 0x9C7B005D EQ PUSH2 0x8B9 JUMPI DUP1 PUSH4 0x9C872D02 EQ PUSH2 0x8DF JUMPI PUSH2 0x475 JUMP JUMPDEST DUP1 PUSH4 0x854DBA40 EQ PUSH2 0x817 JUMPI DUP1 PUSH4 0x86099C54 EQ PUSH2 0x81F JUMPI DUP1 PUSH4 0x86676D43 EQ PUSH2 0x827 JUMPI DUP1 PUSH4 0x89365909 EQ PUSH2 0x84D JUMPI DUP1 PUSH4 0x8E32F35E EQ PUSH2 0x873 JUMPI PUSH2 0x475 JUMP JUMPDEST DUP1 PUSH4 0x54749AF3 GT PUSH2 0x373 JUMPI DUP1 PUSH4 0x6475E342 GT PUSH2 0x2F0 JUMPI DUP1 PUSH4 0x6F6C0E7D GT PUSH2 0x2B4 JUMPI DUP1 PUSH4 0x6F6C0E7D EQ PUSH2 0x7B3 JUMPI DUP1 PUSH4 0x768365EA EQ PUSH2 0x7BB JUMPI DUP1 PUSH4 0x78C49574 EQ PUSH2 0x7C3 JUMPI DUP1 PUSH4 0x78DDEE75 EQ PUSH2 0x7E9 JUMPI DUP1 PUSH4 0x834AA4F6 EQ PUSH2 0x80F JUMPI PUSH2 0x475 JUMP JUMPDEST DUP1 PUSH4 0x6475E342 EQ PUSH2 0x765 JUMPI DUP1 PUSH4 0x650CA32B EQ PUSH2 0x76D JUMPI DUP1 PUSH4 0x6A72B27D EQ PUSH2 0x775 JUMPI DUP1 PUSH4 0x6CD24DAF EQ PUSH2 0x77D JUMPI DUP1 PUSH4 0x6DC95C2E EQ PUSH2 0x785 JUMPI PUSH2 0x475 JUMP JUMPDEST DUP1 PUSH4 0x5AF47CA7 GT PUSH2 0x337 JUMPI DUP1 PUSH4 0x5AF47CA7 EQ PUSH2 0x6E3 JUMPI DUP1 PUSH4 0x5DADD78A EQ PUSH2 0x709 JUMPI DUP1 PUSH4 0x5E5CA652 EQ PUSH2 0x711 JUMPI DUP1 PUSH4 0x5F824BF9 EQ PUSH2 0x737 JUMPI DUP1 PUSH4 0x6232E59C EQ PUSH2 0x73F JUMPI PUSH2 0x475 JUMP JUMPDEST DUP1 PUSH4 0x54749AF3 EQ PUSH2 0x633 JUMPI DUP1 PUSH4 0x568B2702 EQ PUSH2 0x659 JUMPI DUP1 PUSH4 0x5729E4A6 EQ PUSH2 0x661 JUMPI DUP1 PUSH4 0x575832DF EQ PUSH2 0x697 JUMPI DUP1 PUSH4 0x57907837 EQ PUSH2 0x6BD JUMPI PUSH2 0x475 JUMP JUMPDEST DUP1 PUSH4 0x28520B30 GT PUSH2 0x401 JUMPI DUP1 PUSH4 0x3A48BB56 GT PUSH2 0x3C5 JUMPI DUP1 PUSH4 0x3A48BB56 EQ PUSH2 0x5B0 JUMPI DUP1 PUSH4 0x45057ED7 EQ PUSH2 0x5CF JUMPI DUP1 PUSH4 0x4AE9388B EQ PUSH2 0x5F5 JUMPI DUP1 PUSH4 0x50CEC2D5 EQ PUSH2 0x5FD JUMPI DUP1 PUSH4 0x51BB3615 EQ PUSH2 0x62B JUMPI PUSH2 0x475 JUMP JUMPDEST DUP1 PUSH4 0x28520B30 EQ PUSH2 0x54C JUMPI DUP1 PUSH4 0x28751B36 EQ PUSH2 0x554 JUMPI DUP1 PUSH4 0x2CA2BD16 EQ PUSH2 0x57A JUMPI DUP1 PUSH4 0x2E963A80 EQ PUSH2 0x5A0 JUMPI DUP1 PUSH4 0x34970F18 EQ PUSH2 0x5A8 JUMPI PUSH2 0x475 JUMP JUMPDEST DUP1 PUSH4 0x11CF3A22 GT PUSH2 0x448 JUMPI DUP1 PUSH4 0x11CF3A22 EQ PUSH2 0x506 JUMPI DUP1 PUSH4 0x15DD9C06 EQ PUSH2 0x50E JUMPI DUP1 PUSH4 0x18E504DB EQ PUSH2 0x534 JUMPI DUP1 PUSH4 0x1BF2F73D EQ PUSH2 0x53C JUMPI DUP1 PUSH4 0x1E5E6190 EQ PUSH2 0x544 JUMPI PUSH2 0x475 JUMP JUMPDEST DUP1 PUSH4 0x80AA5D1 EQ PUSH2 0x47A JUMPI DUP1 PUSH4 0xDF3E295 EQ PUSH2 0x494 JUMPI DUP1 PUSH4 0xF84C046 EQ PUSH2 0x4BC JUMPI DUP1 PUSH4 0x10D74C7D EQ PUSH2 0x4E0 JUMPI JUMPDEST PUSH1 0x0 DUP1 REVERT JUMPDEST PUSH2 0x482 PUSH2 0xD7C JUMP JUMPDEST PUSH1 0x40 DUP1 MLOAD SWAP2 DUP3 MSTORE MLOAD SWAP1 DUP2 SWAP1 SUB PUSH1 0x20 ADD SWAP1 RETURN JUMPDEST PUSH2 0x4BA PUSH1 0x4 DUP1 CALLDATASIZE SUB PUSH1 0x20 DUP2 LT ISZERO PUSH2 0x4AA JUMPI PUSH1 0x0 DUP1 REVERT JUMPDEST POP CALLDATALOAD PUSH1 0x1 PUSH1 0x1 PUSH1 0x40 SHL SUB AND PUSH2 0xD82 JUMP JUMPDEST STOP JUMPDEST PUSH2 0x4C4 PUSH2 0xDFE JUMP JUMPDEST PUSH1 0x40 DUP1 MLOAD PUSH1 0x1 PUSH1 0x1 PUSH1 0x40 SHL SUB SWAP1 SWAP3 AND DUP3 MSTORE MLOAD SWAP1 DUP2 SWAP1 SUB PUSH1 0x20 ADD SWAP1 RETURN JUMPDEST PUSH2 0x4BA PUSH1 0x4 DUP1 CALLDATASIZE SUB PUSH1 0x20 DUP2 LT ISZERO PUSH2 0x4F6 JUMPI PUSH1 0x0 DUP1 REVERT JUMPDEST POP CALLDATALOAD PUSH1 0x1 PUSH1 0x1 PUSH1 0x40 SHL SUB AND PUSH2 0xE7D JUMP JUMPDEST PUSH2 0x4C4 PUSH2 0xEC4 JUMP JUMPDEST PUSH2 0x4BA PUSH1 0x4 DUP1 CALLDATASIZE SUB PUSH1 0x20 DUP2 LT ISZERO PUSH2 0x524 JUMPI PUSH1 0x0 DUP1 REVERT JUMPDEST POP CALLDATALOAD PUSH1 0x1 PUSH1 0x1 PUSH1 0x40 SHL SUB AND PUSH2 0xF0D JUMP JUMPDEST PUSH2 0x4C4 PUSH2 0xF29 JUMP JUMPDEST PUSH2 0x4C4 PUSH2 0xF72 JUMP JUMPDEST PUSH2 0x4C4 PUSH2 0xFBB JUMP JUMPDEST PUSH2 0x4C4 PUSH2 0x1004 JUMP JUMPDEST PUSH2 0x4BA PUSH1 0x4 DUP1 CALLDATASIZE SUB PUSH1 0x20 DUP2 LT ISZERO PUSH2 0x56A JUMPI PUSH1 0x0 DUP1 REVERT JUMPDEST POP CALLDATALOAD PUSH1 0x1 PUSH1 0x1 PUSH1 0x40 SHL SUB AND PUSH2 0x104D JUMP JUMPDEST PUSH2 0x4BA PUSH1 0x4 DUP1 CALLDATASIZE SUB PUSH1 0x20 DUP2 LT ISZERO PUSH2 0x590 JUMPI PUSH1 0x0 DUP1 REVERT JUMPDEST POP CALLDATALOAD PUSH1 0x1 PUSH1 0x1 PUSH1 0x40 SHL SUB AND PUSH2 0x1094 JUMP JUMPDEST PUSH2 0x4C4 PUSH2 0x10DB JUMP JUMPDEST PUSH2 0x4C4 PUSH2 0x1124 JUMP JUMPDEST PUSH2 0x4BA PUSH1 0x4 DUP1 CALLDATASIZE SUB PUSH1 0x20 DUP2 LT ISZERO PUSH2 0x5C6 JUMPI PUSH1 0x0 DUP1 REVERT JUMPDEST POP CALLDATALOAD ISZERO ISZERO PUSH2 0x116D JUMP JUMPDEST PUSH2 0x4BA PUSH1 0x4 DUP1 CALLDATASIZE SUB PUSH1 0x20 DUP2 LT ISZERO PUSH2 0x5E5 JUMPI PUSH1 0x0 DUP1 REVERT JUMPDEST POP CALLDATALOAD PUSH1 0x1 PUSH1 0x1 PUSH1 0x40 SHL SUB AND PUSH2 0x12AF JUMP JUMPDEST PUSH2 0x4C4 PUSH2 0x12C6 JUMP JUMPDEST PUSH2 0x4C4 PUSH1 0x4 DUP1 CALLDATASIZE SUB PUSH1 0x40 DUP2 LT ISZERO PUSH2 0x613 JUMPI PUSH1 0x0 DUP1 REVERT JUMPDEST POP PUSH1 0x1 PUSH1 0x1 PUSH1 0x40 SHL SUB DUP2 CALLDATALOAD DUP2 AND SWAP2 PUSH1 0x20 ADD CALLDATALOAD AND PUSH2 0x130F JUMP JUMPDEST PUSH2 0x4C4 PUSH2 0x1485 JUMP JUMPDEST PUSH2 0x4BA PUSH1 0x4 DUP1 CALLDATASIZE SUB PUSH1 0x20 DUP2 LT ISZERO PUSH2 0x649 JUMPI PUSH1 0x0 DUP1 REVERT JUMPDEST POP CALLDATALOAD PUSH1 0x1 PUSH1 0x1 PUSH1 0x40 SHL SUB AND PUSH2 0x14CE JUMP JUMPDEST PUSH2 0x4C4 PUSH2 0x14E2 JUMP JUMPDEST PUSH2 0x4BA PUSH1 0x4 DUP1 CALLDATASIZE SUB PUSH1 0x40 DUP2 LT ISZERO PUSH2 0x677 JUMPI PUSH1 0x0 DUP1 REVERT JUMPDEST POP DUP1 CALLDATALOAD PUSH1 0x1 PUSH1 0x1 PUSH1 0x40 SHL SUB AND SWAP1 PUSH1 0x20 ADD CALLDATALOAD PUSH1 0x1 PUSH1 0x1 PUSH1 0xC0 SHL SUB NOT AND PUSH2 0x152B JUMP JUMPDEST PUSH2 0x4BA PUSH1 0x4 DUP1 CALLDATASIZE SUB PUSH1 0x20 DUP2 LT ISZERO PUSH2 0x6AD JUMPI PUSH1 0x0 DUP1 REVERT JUMPDEST POP CALLDATALOAD PUSH1 0x1 PUSH1 0x1 PUSH1 0x40 SHL SUB AND PUSH2 0x1560 JUMP JUMPDEST PUSH2 0x4BA PUSH1 0x4 DUP1 CALLDATASIZE SUB PUSH1 0x20 DUP2 LT ISZERO PUSH2 0x6D3 JUMPI PUSH1 0x0 DUP1 REVERT JUMPDEST POP CALLDATALOAD PUSH1 0x1 PUSH1 0x1 PUSH1 0x40 SHL SUB AND PUSH2 0x15A7 JUMP JUMPDEST PUSH2 0x4BA PUSH1 0x4 DUP1 CALLDATASIZE SUB PUSH1 0x20 DUP2 LT ISZERO PUSH2 0x6F9 JUMPI PUSH1 0x0 DUP1 REVERT JUMPDEST POP CALLDATALOAD PUSH1 0x1 PUSH1 0x1 PUSH1 0x40 SHL SUB AND PUSH2 0x15EE JUMP JUMPDEST PUSH2 0x4C4 PUSH2 0x1635 JUMP JUMPDEST PUSH2 0x4BA PUSH1 0x4 DUP1 CALLDATASIZE SUB PUSH1 0x20 DUP2 LT ISZERO PUSH2 0x727 JUMPI PUSH1 0x0 DUP1 REVERT JUMPDEST POP CALLDATALOAD PUSH1 0x1 PUSH1 0x1 PUSH1 0x40 SHL SUB AND PUSH2 0x167E JUMP JUMPDEST PUSH2 0x4C4 PUSH2 0x16C5 JUMP JUMPDEST PUSH2 0x4C4 PUSH1 0x4 DUP1 CALLDATASIZE SUB PUSH1 0x20 DUP2 LT ISZERO PUSH2 0x755 JUMPI PUSH1 0x0 DUP1 REVERT JUMPDEST POP CALLDATALOAD PUSH1 0x1 PUSH1 0x1 PUSH1 0x40 SHL SUB AND PUSH2 0x170E JUMP JUMPDEST PUSH2 0x4C4 PUSH2 0x1722 JUMP JUMPDEST PUSH2 0x4C4 PUSH2 0x176B JUMP JUMPDEST PUSH2 0x4C4 PUSH2 0x17B4 JUMP JUMPDEST PUSH2 0x4C4 PUSH2 0x17FD JUMP JUMPDEST PUSH2 0x4BA PUSH1 0x4 DUP1 CALLDATASIZE SUB PUSH1 0x40 DUP2 LT ISZERO PUSH2 0x79B JUMPI PUSH1 0x0 DUP1 REVERT JUMPDEST POP PUSH1 0x1 PUSH1 0x1 PUSH1 0x40 SHL SUB DUP2 CALLDATALOAD DUP2 AND SWAP2 PUSH1 0x20 ADD CALLDATALOAD AND PUSH2 0x1846 JUMP JUMPDEST PUSH2 0x4C4 PUSH2 0x1853 JUMP JUMPDEST PUSH2 0x4C4 PUSH2 0x189C JUMP JUMPDEST PUSH2 0x4BA PUSH1 0x4 DUP1 CALLDATASIZE SUB PUSH1 0x20 DUP2 LT ISZERO PUSH2 0x7D9 JUMPI PUSH1 0x0 DUP1 REVERT JUMPDEST POP CALLDATALOAD PUSH1 0x1 PUSH1 0x1 PUSH1 0x40 SHL SUB AND PUSH2 0x18E5 JUMP JUMPDEST PUSH2 0x4BA PUSH1 0x4 DUP1 CALLDATASIZE SUB PUSH1 0x20 DUP2 LT ISZERO PUSH2 0x7FF JUMPI PUSH1 0x0 DUP1 REVERT JUMPDEST POP CALLDATALOAD PUSH1 0x1 PUSH1 0x1 PUSH1 0x40 SHL SUB AND PUSH2 0x192C JUMP JUMPDEST PUSH2 0x4C4 PUSH2 0x1973 JUMP JUMPDEST PUSH2 0x4C4 PUSH2 0x19BC JUMP JUMPDEST PUSH2 0x4C4 PUSH2 0x1A05 JUMP JUMPDEST PUSH2 0x4BA PUSH1 0x4 DUP1 CALLDATASIZE SUB PUSH1 0x20 DUP2 LT ISZERO PUSH2 0x83D JUMPI PUSH1 0x0 DUP1 REVERT JUMPDEST POP CALLDATALOAD PUSH1 0x1 PUSH1 0x1 PUSH1 0x40 SHL SUB AND PUSH2 0x1B5B JUMP JUMPDEST PUSH2 0x4BA PUSH1 0x4 DUP1 CALLDATASIZE SUB PUSH1 0x20 DUP2 LT ISZERO PUSH2 0x863 JUMPI PUSH1 0x0 DUP1 REVERT JUMPDEST POP CALLDATALOAD PUSH1 0x1 PUSH1 0x1 PUSH1 0x40 SHL SUB AND PUSH2 0x1BA2 JUMP JUMPDEST PUSH2 0x4BA PUSH1 0x4 DUP1 CALLDATASIZE SUB PUSH1 0x40 DUP2 LT ISZERO PUSH2 0x889 JUMPI PUSH1 0x0 DUP1 REVERT JUMPDEST POP PUSH1 0x1 PUSH1 0x1 PUSH1 0x40 SHL SUB DUP2 CALLDATALOAD DUP2 AND SWAP2 PUSH1 0x20 ADD CALLDATALOAD AND PUSH2 0x1BE9 JUMP JUMPDEST PUSH2 0x4C4 PUSH2 0x1CA4 JUMP JUMPDEST PUSH2 0x4C4 PUSH2 0x1CED JUMP JUMPDEST PUSH2 0x4C4 PUSH2 0x1DB6 JUMP JUMPDEST PUSH2 0x4BA PUSH1 0x4 DUP1 CALLDATASIZE SUB PUSH1 0x20 DUP2 LT ISZERO PUSH2 0x8CF JUMPI PUSH1 0x0 DUP1 REVERT JUMPDEST POP CALLDATALOAD PUSH1 0x1 PUSH1 0x1 PUSH1 0x40 SHL SUB AND PUSH2 0x1DFF JUMP JUMPDEST PUSH2 0x4BA PUSH1 0x4 DUP1 CALLDATASIZE SUB PUSH1 0x20 DUP2 LT ISZERO PUSH2 0x8F5 JUMPI PUSH1 0x0 DUP1 REVERT JUMPDEST POP CALLDATALOAD PUSH1 0x1 PUSH1 0x1 PUSH1 0x40 SHL SUB AND PUSH2 0x1E46 JUMP JUMPDEST PUSH2 0x4C4 PUSH2 0x1E8D JUMP JUMPDEST PUSH2 0x4BA PUSH1 0x4 DUP1 CALLDATASIZE SUB PUSH1 0x60 DUP2 LT ISZERO PUSH2 0x923 JUMPI PUSH1 0x0 DUP1 REVERT JUMPDEST DUP2 ADD SWAP1 PUSH1 0x20 DUP2 ADD DUP2 CALLDATALOAD PUSH5 0x100000000 DUP2 GT ISZERO PUSH2 0x93E JUMPI PUSH1 0x0 DUP1 REVERT JUMPDEST DUP3 ADD DUP4 PUSH1 0x20 DUP3 ADD GT ISZERO PUSH2 0x950 JUMPI PUSH1 0x0 DUP1 REVERT JUMPDEST DUP1 CALLDATALOAD SWAP1 PUSH1 0x20 ADD SWAP2 DUP5 PUSH1 0x20 DUP4 MUL DUP5 ADD GT PUSH5 0x100000000 DUP4 GT OR ISZERO PUSH2 0x972 JUMPI PUSH1 0x0 DUP1 REVERT JUMPDEST SWAP2 SWAP1 DUP1 DUP1 PUSH1 0x20 MUL PUSH1 0x20 ADD PUSH1 0x40 MLOAD SWAP1 DUP2 ADD PUSH1 0x40 MSTORE DUP1 SWAP4 SWAP3 SWAP2 SWAP1 DUP2 DUP2 MSTORE PUSH1 0x20 ADD DUP4 DUP4 PUSH1 0x20 MUL DUP1 DUP3 DUP5 CALLDATACOPY PUSH1 0x0 SWAP3 ADD SWAP2 SWAP1 SWAP2 MSTORE POP SWAP3 SWAP6 SWAP5 SWAP4 PUSH1 0x20 DUP2 ADD SWAP4 POP CALLDATALOAD SWAP2 POP POP PUSH5 0x100000000 DUP2 GT ISZERO PUSH2 0x9C2 JUMPI PUSH1 0x0 DUP1 REVERT JUMPDEST DUP3 ADD DUP4 PUSH1 0x20 DUP3 ADD GT ISZERO PUSH2 0x9D4 JUMPI PUSH1 0x0 DUP1 REVERT JUMPDEST DUP1 CALLDATALOAD SWAP1 PUSH1 0x20 ADD SWAP2 DUP5 PUSH1 0x20 DUP4 MUL DUP5 ADD GT PUSH5 0x100000000 DUP4 GT OR ISZERO PUSH2 0x9F6 JUMPI PUSH1 0x0 DUP1 REVERT JUMPDEST SWAP2 SWAP1 DUP1 DUP1 PUSH1 0x20 MUL PUSH1 0x20 ADD PUSH1 0x40 MLOAD SWAP1 DUP2 ADD PUSH1 0x40 MSTORE DUP1 SWAP4 SWAP3 SWAP2 SWAP1 DUP2 DUP2 MSTORE PUSH1 0x20 ADD DUP4 DUP4 PUSH1 0x20 MUL DUP1 DUP3 DUP5 CALLDATACOPY PUSH1 0x0 SWAP3 ADD SWAP2 SWAP1 SWAP2 MSTORE POP SWAP3 SWAP6 SWAP5 SWAP4 PUSH1 0x20 DUP2 ADD SWAP4 POP CALLDATALOAD SWAP2 POP POP PUSH5 0x100000000 DUP2 GT ISZERO PUSH2 0xA46 JUMPI PUSH1 0x0 DUP1 REVERT JUMPDEST DUP3 ADD DUP4 PUSH1 0x20 DUP3 ADD GT ISZERO PUSH2 0xA58 JUMPI PUSH1 0x0 DUP1 REVERT JUMPDEST DUP1 CALLDATALOAD SWAP1 PUSH1 0x20 ADD SWAP2 DUP5 PUSH1 0x20 DUP4 MUL DUP5 ADD GT PUSH5 0x100000000 DUP4 GT OR ISZERO PUSH2 0xA7A JUMPI PUSH1 0x0 DUP1 REVERT JUMPDEST SWAP2 SWAP1 DUP1 DUP1 PUSH1 0x20 MUL PUSH1 0x20 ADD PUSH1 0x40 MLOAD SWAP1 DUP2 ADD PUSH1 0x40 MSTORE DUP1 SWAP4 SWAP3 SWAP2 SWAP1 DUP2 DUP2 MSTORE PUSH1 0x20 ADD DUP4 DUP4 PUSH1 0x20 MUL DUP1 DUP3 DUP5 CALLDATACOPY PUSH1 0x0 SWAP3 ADD SWAP2 SWAP1 SWAP2 MSTORE POP SWAP3 SWAP6 POP PUSH2 0x1ED6 SWAP5 POP POP POP POP POP JUMP JUMPDEST PUSH2 0x4C4 PUSH2 0x1EDB JUMP JUMPDEST PUSH2 0x4BA PUSH1 0x4 DUP1 CALLDATASIZE SUB PUSH1 0x20 DUP2 LT ISZERO PUSH2 0xAD6 JUMPI PUSH1 0x0 DUP1 REVERT JUMPDEST POP CALLDATALOAD ISZERO ISZERO PUSH2 0x1F24 JUMP JUMPDEST PUSH2 0x4BA PUSH1 0x4 DUP1 CALLDATASIZE SUB PUSH1 0x20 DUP2 LT ISZERO PUSH2 0xAF5 JUMPI PUSH1 0x0 DUP1 REVERT JUMPDEST POP CALLDATALOAD PUSH1 0x1 PUSH1 0x1 PUSH1 0x40 SHL SUB AND PUSH2 0x1FBE JUMP JUMPDEST PUSH2 0x4BA PUSH1 0x4 DUP1 CALLDATASIZE SUB PUSH1 0x20 DUP2 LT ISZERO PUSH2 0xB1B JUMPI PUSH1 0x0 DUP1 REVERT JUMPDEST POP CALLDATALOAD PUSH1 0x1 PUSH1 0x1 PUSH1 0x40 SHL SUB AND PUSH2 0x2005 JUMP JUMPDEST PUSH2 0x4C4 PUSH2 0x204C JUMP JUMPDEST PUSH2 0x4BA PUSH1 0x4 DUP1 CALLDATASIZE SUB PUSH1 0x20 DUP2 LT ISZERO PUSH2 0xB49 JUMPI PUSH1 0x0 DUP1 REVERT JUMPDEST POP CALLDATALOAD PUSH1 0x1 PUSH1 0x1 PUSH1 0x40 SHL SUB AND PUSH2 0x2095 JUMP JUMPDEST PUSH2 0x4BA PUSH1 0x4 DUP1 CALLDATASIZE SUB PUSH1 0x20 DUP2 LT ISZERO PUSH2 0xB6F JUMPI PUSH1 0x0 DUP1 REVERT JUMPDEST POP CALLDATALOAD ISZERO ISZERO PUSH2 0x20DC JUMP JUMPDEST PUSH2 0x4C4 PUSH2 0x2176 JUMP JUMPDEST PUSH2 0x4C4 PUSH2 0x21BF JUMP JUMPDEST PUSH2 0x4C4 PUSH2 0x2208 JUMP JUMPDEST PUSH2 0x4C4 PUSH2 0x2251 JUMP JUMPDEST PUSH2 0x4BA PUSH1 0x4 DUP1 CALLDATASIZE SUB PUSH1 0x20 DUP2 LT ISZERO PUSH2 0xBAE JUMPI PUSH1 0x0 DUP1 REVERT JUMPDEST POP CALLDATALOAD PUSH1 0x1 PUSH1 0x1 PUSH1 0x40 SHL SUB AND PUSH2 0x229A JUMP JUMPDEST PUSH2 0x4C4 PUSH2 0x22E1 JUMP JUMPDEST PUSH2 0x4BA PUSH1 0x4 DUP1 CALLDATASIZE SUB PUSH1 0x20 DUP2 LT ISZERO PUSH2 0xBDC JUMPI PUSH1 0x0 DUP1 REVERT JUMPDEST POP CALLDATALOAD PUSH1 0x1 PUSH1 0x1 PUSH1 0x40 SHL SUB AND PUSH2 0x232A JUMP JUMPDEST PUSH2 0x4C4 PUSH2 0x2489 JUMP JUMPDEST PUSH2 0x4BA PUSH1 0x4 DUP1 CALLDATASIZE SUB PUSH1 0x20 DUP2 LT ISZERO PUSH2 0xC0A JUMPI PUSH1 0x0 DUP1 REVERT JUMPDEST POP CALLDATALOAD PUSH1 0x1 PUSH1 0x1 PUSH1 0x40 SHL SUB AND PUSH2 0x25AC JUMP JUMPDEST PUSH2 0x4C4 PUSH2 0x25F3 JUMP JUMPDEST PUSH2 0x4C4 PUSH2 0x26BC JUMP JUMPDEST PUSH2 0x4BA PUSH1 0x4 DUP1 CALLDATASIZE SUB PUSH1 0x20 DUP2 LT ISZERO PUSH2 0xC40 JUMPI PUSH1 0x0 DUP1 REVERT JUMPDEST POP CALLDATALOAD PUSH1 0x1 PUSH1 0x1 PUSH1 0x40 SHL SUB AND PUSH2 0x2705 JUMP JUMPDEST PUSH2 0x4BA PUSH1 0x4 DUP1 CALLDATASIZE SUB PUSH1 0x20 DUP2 LT ISZERO PUSH2 0xC66 JUMPI PUSH1 0x0 DUP1 REVERT JUMPDEST POP CALLDATALOAD PUSH1 0x1 PUSH1 0x1 PUSH1 0x40 SHL SUB AND PUSH2 0x274C JUMP JUMPDEST PUSH2 0x4C4 PUSH2 0x2793 JUMP JUMPDEST PUSH2 0x4BA PUSH1 0x4 DUP1 CALLDATASIZE SUB PUSH1 0x20 DUP2 LT ISZERO PUSH2 0xC94 JUMPI PUSH1 0x0 DUP1 REVERT JUMPDEST POP CALLDATALOAD PUSH1 0x1 PUSH1 0x1 PUSH1 0x40 SHL SUB AND PUSH2 0x27DC JUMP JUMPDEST PUSH2 0x4BA PUSH1 0x4 DUP1 CALLDATASIZE SUB PUSH1 0x20 DUP2 LT ISZERO PUSH2 0xCBA JUMPI PUSH1 0x0 DUP1 REVERT JUMPDEST POP CALLDATALOAD PUSH1 0x1 PUSH1 0x1 PUSH1 0x40 SHL SUB AND PUSH2 0x2823 JUMP JUMPDEST PUSH2 0x4C4 PUSH2 0x286A JUMP JUMPDEST PUSH2 0x4BA PUSH1 0x4 DUP1 CALLDATASIZE SUB PUSH1 0x20 DUP2 LT ISZERO PUSH2 0xCE8 JUMPI PUSH1 0x0 DUP1 REVERT JUMPDEST POP CALLDATALOAD PUSH1 0x1 PUSH1 0x1 PUSH1 0x40 SHL SUB AND PUSH2 0x2933 JUMP JUMPDEST PUSH2 0x4C4 PUSH1 0x4 DUP1 CALLDATASIZE SUB PUSH1 0x20 DUP2 LT ISZERO PUSH2 0xD0E JUMPI PUSH1 0x0 DUP1 REVERT JUMPDEST POP CALLDATALOAD PUSH1 0x1 PUSH1 0x1 PUSH1 0x40 SHL SUB AND PUSH2 0x297A JUMP JUMPDEST PUSH2 0x4BA PUSH1 0x4 DUP1 CALLDATASIZE SUB PUSH1 0x20 DUP2 LT ISZERO PUSH2 0xD34 JUMPI PUSH1 0x0 DUP1 REVERT JUMPDEST POP CALLDATALOAD PUSH1 0x1 PUSH1 0x1 PUSH1 0x40 SHL SUB AND PUSH2 0x2A13 JUMP JUMPDEST PUSH2 0x4BA PUSH1 0x4 DUP1 CALLDATASIZE SUB PUSH1 0x60 DUP2 LT ISZERO PUSH2 0xD5A JUMPI PUSH1 0x0 DUP1 REVERT JUMPDEST POP PUSH1 0x1 PUSH1 0x1 PUSH1 0x40 SHL SUB DUP2 CALLDATALOAD DUP2 AND SWAP2 PUSH1 0x20 DUP2 ADD CALLDATALOAD DUP3 AND SWAP2 PUSH1 0x40 SWAP1 SWAP2 ADD CALLDATALOAD AND PUSH2 0x2A5A JUMP JUMPDEST PUSH1 0x0 SLOAD SWAP1 JUMP JUMPDEST PUSH2 0xDFB PUSH20 0x0 PUSH4 0x9A59734C PUSH1 0x40 MLOAD DUP2 PUSH4 0xFFFFFFFF AND PUSH1 0xE0 SHL DUP2 MSTORE PUSH1 0x4 ADD PUSH1 0x20 PUSH1 0x40 MLOAD DUP1 DUP4 SUB DUP2 DUP7 DUP1 EXTCODESIZE ISZERO DUP1 ISZERO PUSH2 0xDC9 JUMPI PUSH1 0x0 DUP1 REVERT JUMPDEST POP GAS DELEGATECALL ISZERO DUP1 ISZERO PUSH2 0xDDD JUMPI RETURNDATASIZE PUSH1 0x0 DUP1 RETURNDATACOPY RETURNDATASIZE PUSH1 0x0 REVERT JUMPDEST POP POP POP POP PUSH1 0x40 MLOAD RETURNDATASIZE PUSH1 0x20 DUP2 LT ISZERO PUSH2 0xDF3 JUMPI PUSH1 0x0 DUP1 REVERT JUMPDEST POP MLOAD DUP3 PUSH2 0x1BE9 JUMP JUMPDEST POP JUMP JUMPDEST PUSH1 0x0 PUSH2 0xE78 PUSH20 0x0 PUSH4 0x6630AD87 PUSH1 0x40 MLOAD DUP2 PUSH4 0xFFFFFFFF AND PUSH1 0xE0 SHL DUP2 MSTORE PUSH1 0x4 ADD PUSH1 0x20 PUSH1 0x40 MLOAD DUP1 DUP4 SUB DUP2 DUP7 DUP1 EXTCODESIZE ISZERO DUP1 ISZERO PUSH2 0xE47 JUMPI PUSH1 0x0 DUP1 REVERT JUMPDEST POP GAS DELEGATECALL ISZERO DUP1 ISZERO PUSH2 0xE5B JUMPI RETURNDATASIZE PUSH1 0x0 DUP1 RETURNDATACOPY RETURNDATASIZE PUSH1 0x0 REVERT JUMPDEST POP POP POP POP PUSH1 0x40 MLOAD RETURNDATASIZE PUSH1 0x20 DUP2 LT ISZERO PUSH2 0xE71 JUMPI PUSH1 0x0 DUP1 REVERT JUMPDEST POP MLOAD PUSH2 0x297A JUMP JUMPDEST SWAP1 POP SWAP1 JUMP JUMPDEST PUSH2 0xDFB PUSH20 0x0 PUSH4 0x72EB67D0 PUSH1 0x40 MLOAD DUP2 PUSH4 0xFFFFFFFF AND PUSH1 0xE0 SHL DUP2 MSTORE PUSH1 0x4 ADD PUSH1 0x20 PUSH1 0x40 MLOAD DUP1 DUP4 SUB DUP2 DUP7 DUP1 EXTCODESIZE ISZERO DUP1 ISZERO PUSH2 0xDC9 JUMPI PUSH1 0x0 DUP1 REVERT JUMPDEST PUSH1 0x0 PUSH2 0xE78 PUSH20 0x0 PUSH4 0x8FD6B7C4 PUSH1 0x40 MLOAD DUP2 PUSH4 0xFFFFFFFF AND PUSH1 0xE0 SHL DUP2 MSTORE PUSH1 0x4 ADD PUSH1 0x20 PUSH1 0x40 MLOAD DUP1 DUP4 SUB DUP2 DUP7 DUP1 EXTCODESIZE ISZERO DUP1 ISZERO PUSH2 0xE47 JUMPI PUSH1 0x0 DUP1 REVERT JUMPDEST PUSH1 0x0 PUSH2 0xF17 PUSH2 0x1E8D JUMP JUMPDEST DUP3 NOT AND SWAP1 POP PUSH2 0xF25 DUP2 PUSH2 0x1FBE JUMP JUMPDEST POP POP JUMP JUMPDEST PUSH1 0x0 PUSH2 0xE78 PUSH20 0x0 PUSH4 0x734B9600 PUSH1 0x40 MLOAD DUP2 PUSH4 0xFFFFFFFF AND PUSH1 0xE0 SHL DUP2 MSTORE PUSH1 0x4 ADD PUSH1 0x20 PUSH1 0x40 MLOAD DUP1 DUP4 SUB DUP2 DUP7 DUP1 EXTCODESIZE ISZERO DUP1 ISZERO PUSH2 0xE47 JUMPI PUSH1 0x0 DUP1 REVERT JUMPDEST PUSH1 0x0 PUSH2 0xE78 PUSH20 0x0 PUSH4 0x443FD598 PUSH1 0x40 MLOAD DUP2 PUSH4 0xFFFFFFFF AND PUSH1 0xE0 SHL DUP2 MSTORE PUSH1 0x4 ADD PUSH1 0x20 PUSH1 0x40 MLOAD DUP1 DUP4 SUB DUP2 DUP7 DUP1 EXTCODESIZE ISZERO DUP1 ISZERO PUSH2 0xE47 JUMPI PUSH1 0x0 DUP1 REVERT JUMPDEST PUSH1 0x0 PUSH2 0xE78 PUSH20 0x0 PUSH4 0xCA04595A PUSH1 0x40 MLOAD DUP2 PUSH4 0xFFFFFFFF AND PUSH1 0xE0 SHL DUP2 MSTORE PUSH1 0x4 ADD PUSH1 0x20 PUSH1 0x40 MLOAD DUP1 DUP4 SUB DUP2 DUP7 DUP1 EXTCODESIZE ISZERO DUP1 ISZERO PUSH2 0xE47 JUMPI PUSH1 0x0 DUP1 REVERT JUMPDEST PUSH1 0x0 PUSH2 0xE78 PUSH20 0x0 PUSH4 0x72EB67D0 PUSH1 0x40 MLOAD DUP2 PUSH4 0xFFFFFFFF AND PUSH1 0xE0 SHL DUP2 MSTORE PUSH1 0x4 ADD PUSH1 0x20 PUSH1 0x40 MLOAD DUP1 DUP4 SUB DUP2 DUP7 DUP1 EXTCODESIZE ISZERO DUP1 ISZERO PUSH2 0xE47 JUMPI PUSH1 0x0 DUP1 REVERT JUMPDEST PUSH2 0xDFB PUSH20 0x0 PUSH4 0xCA04595A PUSH1 0x40 MLOAD DUP2 PUSH4 0xFFFFFFFF AND PUSH1 0xE0 SHL DUP2 MSTORE PUSH1 0x4 ADD PUSH1 0x20 PUSH1 0x40 MLOAD DUP1 DUP4 SUB DUP2 DUP7 DUP1 EXTCODESIZE ISZERO DUP1 ISZERO PUSH2 0xDC9 JUMPI PUSH1 0x0 DUP1 REVERT JUMPDEST PUSH2 0xDFB PUSH20 0x0 PUSH4 0xD124BD13 PUSH1 0x40 MLOAD DUP2 PUSH4 0xFFFFFFFF AND PUSH1 0xE0 SHL DUP2 MSTORE PUSH1 0x4 ADD PUSH1 0x20 PUSH1 0x40 MLOAD DUP1 DUP4 SUB DUP2 DUP7 DUP1 EXTCODESIZE ISZERO DUP1 ISZERO PUSH2 0xDC9 JUMPI PUSH1 0x0 DUP1 REVERT JUMPDEST PUSH1 0x0 PUSH2 0xE78 PUSH20 0x0 PUSH4 0x29301CAC PUSH1 0x40 MLOAD DUP2 PUSH4 0xFFFFFFFF AND PUSH1 0xE0 SHL DUP2 MSTORE PUSH1 0x4 ADD PUSH1 0x20 PUSH1 0x40 MLOAD DUP1 DUP4 SUB DUP2 DUP7 DUP1 EXTCODESIZE ISZERO DUP1 ISZERO PUSH2 0xE47 JUMPI PUSH1 0x0 DUP1 REVERT JUMPDEST PUSH1 0x0 PUSH2 0xE78 PUSH20 0x0 PUSH4 0x521819F5 PUSH1 0x40 MLOAD DUP2 PUSH4 0xFFFFFFFF AND PUSH1 0xE0 SHL DUP2 MSTORE PUSH1 0x4 ADD PUSH1 0x20 PUSH1 0x40 MLOAD DUP1 DUP4 SUB DUP2 DUP7 DUP1 EXTCODESIZE ISZERO DUP1 ISZERO PUSH2 0xE47 JUMPI PUSH1 0x0 DUP1 REVERT JUMPDEST PUSH1 0x0 PUSH2 0x1177 PUSH2 0x2251 JUMP JUMPDEST SWAP1 POP DUP2 ISZERO PUSH2 0x11F5 JUMPI PUSH20 0x0 PUSH4 0xE697ACE9 PUSH1 0x40 MLOAD DUP2 PUSH4 0xFFFFFFFF AND PUSH1 0xE0 SHL DUP2 MSTORE PUSH1 0x4 ADD PUSH1 0x20 PUSH1 0x40 MLOAD DUP1 DUP4 SUB DUP2 DUP7 DUP1 EXTCODESIZE ISZERO DUP1 ISZERO PUSH2 0x11C3 JUMPI PUSH1 0x0 DUP1 REVERT JUMPDEST POP GAS DELEGATECALL ISZERO DUP1 ISZERO PUSH2 0x11D7 JUMPI RETURNDATASIZE PUSH1 0x0 DUP1 RETURNDATACOPY RETURNDATASIZE PUSH1 0x0 REVERT JUMPDEST POP POP POP POP PUSH1 0x40 MLOAD RETURNDATASIZE PUSH1 0x20 DUP2 LT ISZERO PUSH2 0x11ED JUMPI PUSH1 0x0 DUP1 REVERT JUMPDEST POP MLOAD OR PUSH2 0x1268 JUMP JUMPDEST PUSH20 0x0 PUSH4 0xE697ACE9 PUSH1 0x40 MLOAD DUP2 PUSH4 0xFFFFFFFF AND PUSH1 0xE0 SHL DUP2 MSTORE PUSH1 0x4 ADD PUSH1 0x20 PUSH1 0x40 MLOAD DUP1 DUP4 SUB DUP2 DUP7 DUP1 EXTCODESIZE ISZERO DUP1 ISZERO PUSH2 0x1239 JUMPI PUSH1 0x0 DUP1 REVERT JUMPDEST POP GAS DELEGATECALL ISZERO DUP1 ISZERO PUSH2 0x124D JUMPI RETURNDATASIZE PUSH1 0x0 DUP1 RETURNDATACOPY RETURNDATASIZE PUSH1 0x0 REVERT JUMPDEST POP POP POP POP PUSH1 0x40 MLOAD RETURNDATASIZE PUSH1 0x20 DUP2 LT ISZERO PUSH2 0x1263 JUMPI PUSH1 0x0 DUP1 REVERT JUMPDEST POP MLOAD NOT AND JUMPDEST PUSH2 0xF25 PUSH20 0x0 PUSH4 0x2FFDABC5 PUSH1 0x40 MLOAD DUP2 PUSH4 0xFFFFFFFF AND PUSH1 0xE0 SHL DUP2 MSTORE PUSH1 0x4 ADD PUSH1 0x20 PUSH1 0x40 MLOAD DUP1 DUP4 SUB DUP2 DUP7 DUP1 EXTCODESIZE ISZERO DUP1 ISZERO PUSH2 0xDC9 JUMPI PUSH1 0x0 DUP1 REVERT JUMPDEST PUSH1 0x0 PUSH2 0x12B9 PUSH2 0x1E8D JUMP JUMPDEST DUP3 OR SWAP1 POP PUSH2 0xF25 DUP2 PUSH2 0x1FBE JUMP JUMPDEST PUSH1 0x0 PUSH2 0xE78 PUSH20 0x0 PUSH4 0xB255E9E4 PUSH1 0x40 MLOAD DUP2 PUSH4 0xFFFFFFFF AND PUSH1 0xE0 SHL DUP2 MSTORE PUSH1 0x4 ADD PUSH1 0x20 PUSH1 0x40 MLOAD DUP1 DUP4 SUB DUP2 DUP7 DUP1 EXTCODESIZE ISZERO DUP1 ISZERO PUSH2 0xE47 JUMPI PUSH1 0x0 DUP1 REVERT JUMPDEST PUSH1 0x0 PUSH1 0x7 NOT DUP4 AND DUP1 DUP5 SUB DUP3 PUSH2 0x1323 DUP4 PUSH2 0x2CA2 JUMP JUMPDEST SWAP1 POP PUSH1 0x0 PUSH20 0x0 PUSH4 0xBF1924C5 DUP5 PUSH1 0x8 MUL PUSH1 0x1 PUSH1 0x1 PUSH1 0x40 SHL SUB AND PUSH1 0x1 DUP10 PUSH1 0x1 PUSH1 0x1 PUSH1 0x40 SHL SUB AND PUSH1 0x2 PUSH1 0x1 PUSH1 0x1 PUSH1 0x40 SHL SUB AND EXP SUB PUSH1 0x1 PUSH1 0x1 PUSH1 0x40 SHL SUB AND SWAP1 SHL PUSH1 0x40 MLOAD DUP3 PUSH4 0xFFFFFFFF AND PUSH1 0xE0 SHL DUP2 MSTORE PUSH1 0x4 ADD DUP1 DUP3 PUSH1 0x1 PUSH1 0x1 PUSH1 0x40 SHL SUB AND DUP2 MSTORE PUSH1 0x20 ADD SWAP2 POP POP PUSH1 0x20 PUSH1 0x40 MLOAD DUP1 DUP4 SUB DUP2 DUP7 DUP1 EXTCODESIZE ISZERO DUP1 ISZERO PUSH2 0x13AF JUMPI PUSH1 0x0 DUP1 REVERT JUMPDEST POP GAS DELEGATECALL ISZERO DUP1 ISZERO PUSH2 0x13C3 JUMPI RETURNDATASIZE PUSH1 0x0 DUP1 RETURNDATACOPY RETURNDATASIZE PUSH1 0x0 REVERT JUMPDEST POP POP POP POP PUSH1 0x40 MLOAD RETURNDATASIZE PUSH1 0x20 DUP2 LT ISZERO PUSH2 0x13D9 JUMPI PUSH1 0x0 DUP1 REVERT JUMPDEST POP MLOAD PUSH1 0x40 DUP1 MLOAD PUSH4 0xBF1924C5 PUSH1 0xE0 SHL DUP2 MSTORE PUSH1 0x1 PUSH1 0x1 PUSH1 0x40 SHL SUB DUP6 DUP5 AND DUP2 AND PUSH1 0x4 DUP4 ADD MSTORE SWAP2 MLOAD SWAP3 SWAP4 POP PUSH1 0x8 DUP7 MUL SWAP1 SWAP2 AND SWAP2 PUSH20 0x0 SWAP2 PUSH4 0xBF1924C5 SWAP2 PUSH1 0x24 DUP1 DUP4 ADD SWAP3 PUSH1 0x20 SWAP3 SWAP2 SWAP1 DUP3 SWAP1 SUB ADD DUP2 DUP7 DUP1 EXTCODESIZE ISZERO DUP1 ISZERO PUSH2 0x1443 JUMPI PUSH1 0x0 DUP1 REVERT JUMPDEST POP GAS DELEGATECALL ISZERO DUP1 ISZERO PUSH2 0x1457 JUMPI RETURNDATASIZE PUSH1 0x0 DUP1 RETURNDATACOPY RETURNDATASIZE PUSH1 0x0 REVERT JUMPDEST POP POP POP POP PUSH1 0x40 MLOAD RETURNDATASIZE PUSH1 0x20 DUP2 LT ISZERO PUSH2 0x146D JUMPI PUSH1 0x0 DUP1 REVERT JUMPDEST POP MLOAD PUSH1 0x1 PUSH1 0x1 PUSH1 0x40 SHL SUB AND SWAP1 SHR SWAP8 SWAP7 POP POP POP POP POP POP POP JUMP JUMPDEST PUSH1 0x0 PUSH2 0xE78 PUSH20 0x0 PUSH4 0x7047F4DF PUSH1 0x40 MLOAD DUP2 PUSH4 0xFFFFFFFF AND PUSH1 0xE0 SHL DUP2 MSTORE PUSH1 0x4 ADD PUSH1 0x20 PUSH1 0x40 MLOAD DUP1 DUP4 SUB DUP2 DUP7 DUP1 EXTCODESIZE ISZERO DUP1 ISZERO PUSH2 0xE47 JUMPI PUSH1 0x0 DUP1 REVERT JUMPDEST PUSH2 0x14D7 DUP2 PUSH2 0x232A JUMP JUMPDEST PUSH2 0xDFB PUSH1 0x0 NOT PUSH2 0x274C JUMP JUMPDEST PUSH1 0x0 PUSH2 0xE78 PUSH20 0x0 PUSH4 0x45827F69 PUSH1 0x40 MLOAD DUP2 PUSH4 0xFFFFFFFF AND PUSH1 0xE0 SHL DUP2 MSTORE PUSH1 0x4 ADD PUSH1 0x20 PUSH1 0x40 MLOAD DUP1 DUP4 SUB DUP2 DUP7 DUP1 EXTCODESIZE ISZERO DUP1 ISZERO PUSH2 0xE47 JUMPI PUSH1 0x0 DUP1 REVERT JUMPDEST PUSH1 0x1 PUSH1 0x1 PUSH1 0x40 SHL SUB SWAP2 SWAP1 SWAP2 AND PUSH1 0x0 SWAP1 DUP2 MSTORE PUSH1 0x4 PUSH1 0x20 MSTORE PUSH1 0x40 SWAP1 KECCAK256 DUP1 SLOAD PUSH8 0xFFFFFFFFFFFFFFFF NOT AND PUSH1 0xC0 SWAP3 SWAP1 SWAP3 SHR SWAP2 SWAP1 SWAP2 OR SWAP1 SSTORE JUMP JUMPDEST PUSH2 0xDFB PUSH20 0x0 PUSH4 0xE59CB574 PUSH1 0x40 MLOAD DUP2 PUSH4 0xFFFFFFFF AND PUSH1 0xE0 SHL DUP2 MSTORE PUSH1 0x4 ADD PUSH1 0x20 PUSH1 0x40 MLOAD DUP1 DUP4 SUB DUP2 DUP7 DUP1 EXTCODESIZE ISZERO DUP1 ISZERO PUSH2 0xDC9 JUMPI PUSH1 0x0 DUP1 REVERT JUMPDEST PUSH2 0xDFB PUSH20 0x0 PUSH4 0x734B9600 PUSH1 0x40 MLOAD DUP2 PUSH4 0xFFFFFFFF AND PUSH1 0xE0 SHL DUP2 MSTORE PUSH1 0x4 ADD PUSH1 0x20 PUSH1 0x40 MLOAD DUP1 DUP4 SUB DUP2 DUP7 DUP1 EXTCODESIZE ISZERO DUP1 ISZERO PUSH2 0xDC9 JUMPI PUSH1 0x0 DUP1 REVERT JUMPDEST PUSH2 0xDFB PUSH20 0x0 PUSH4 0x9FF9932B PUSH1 0x40 MLOAD DUP2 PUSH4 0xFFFFFFFF AND PUSH1 0xE0 SHL DUP2 MSTORE PUSH1 0x4 ADD PUSH1 0x20 PUSH1 0x40 MLOAD DUP1 DUP4 SUB DUP2 DUP7 DUP1 EXTCODESIZE ISZERO DUP1 ISZERO PUSH2 0xDC9 JUMPI PUSH1 0x0 DUP1 REVERT JUMPDEST PUSH1 0x0 PUSH2 0xE78 PUSH20 0x0 PUSH4 0xE2E2E712 PUSH1 0x40 MLOAD DUP2 PUSH4 0xFFFFFFFF AND PUSH1 0xE0 SHL DUP2 MSTORE PUSH1 0x4 ADD PUSH1 0x20 PUSH1 0x40 MLOAD DUP1 DUP4 SUB DUP2 DUP7 DUP1 EXTCODESIZE ISZERO DUP1 ISZERO PUSH2 0xE47 JUMPI PUSH1 0x0 DUP1 REVERT JUMPDEST PUSH2 0xDFB PUSH20 0x0 PUSH4 0xA43E290F PUSH1 0x40 MLOAD DUP2 PUSH4 0xFFFFFFFF AND PUSH1 0xE0 SHL DUP2 MSTORE PUSH1 0x4 ADD PUSH1 0x20 PUSH1 0x40 MLOAD DUP1 DUP4 SUB DUP2 DUP7 DUP1 EXTCODESIZE ISZERO DUP1 ISZERO PUSH2 0xDC9 JUMPI PUSH1 0x0 DUP1 REVERT JUMPDEST PUSH1 0x0 PUSH2 0xE78 PUSH20 0x0 PUSH4 0x92F5AA22 PUSH1 0x40 MLOAD DUP2 PUSH4 0xFFFFFFFF AND PUSH1 0xE0 SHL DUP2 MSTORE PUSH1 0x4 ADD PUSH1 0x20 PUSH1 0x40 MLOAD DUP1 DUP4 SUB DUP2 DUP7 DUP1 EXTCODESIZE ISZERO DUP1 ISZERO PUSH2 0xE47 JUMPI PUSH1 0x0 DUP1 REVERT JUMPDEST PUSH1 0x0 PUSH2 0x171C DUP3 PUSH1 0x8 MUL PUSH2 0x297A JUMP JUMPDEST SWAP3 SWAP2 POP POP JUMP JUMPDEST PUSH1 0x0 PUSH2 0xE78 PUSH20 0x0 PUSH4 0x87098135 PUSH1 0x40 MLOAD DUP2 PUSH4 0xFFFFFFFF AND PUSH1 0xE0 SHL DUP2 MSTORE PUSH1 0x4 ADD PUSH1 0x20 PUSH1 0x40 MLOAD DUP1 DUP4 SUB DUP2 DUP7 DUP1 EXTCODESIZE ISZERO DUP1 ISZERO PUSH2 0xE47 JUMPI PUSH1 0x0 DUP1 REVERT JUMPDEST PUSH1 0x0 PUSH2 0xE78 PUSH20 0x0 PUSH4 0xD41A5B59 PUSH1 0x40 MLOAD DUP2 PUSH4 0xFFFFFFFF AND PUSH1 0xE0 SHL DUP2 MSTORE PUSH1 0x4 ADD PUSH1 0x20 PUSH1 0x40 MLOAD DUP1 DUP4 SUB DUP2 DUP7 DUP1 EXTCODESIZE ISZERO DUP1 ISZERO PUSH2 0xE47 JUMPI PUSH1 0x0 DUP1 REVERT JUMPDEST PUSH1 0x0 PUSH2 0xE78 PUSH20 0x0 PUSH4 0xE59CB574 PUSH1 0x40 MLOAD DUP2 PUSH4 0xFFFFFFFF AND PUSH1 0xE0 SHL DUP2 MSTORE PUSH1 0x4 ADD PUSH1 0x20 PUSH1 0x40 MLOAD DUP1 DUP4 SUB DUP2 DUP7 DUP1 EXTCODESIZE ISZERO DUP1 ISZERO PUSH2 0xE47 JUMPI PUSH1 0x0 DUP1 REVERT JUMPDEST PUSH1 0x0 PUSH2 0xE78 PUSH20 0x0 PUSH4 0xDA3E8D7B PUSH1 0x40 MLOAD DUP2 PUSH4 0xFFFFFFFF AND PUSH1 0xE0 SHL DUP2 MSTORE PUSH1 0x4 ADD PUSH1 0x20 PUSH1 0x40 MLOAD DUP1 DUP4 SUB DUP2 DUP7 DUP1 EXTCODESIZE ISZERO DUP1 ISZERO PUSH2 0xE47 JUMPI PUSH1 0x0 DUP1 REVERT JUMPDEST PUSH2 0xF25 DUP3 PUSH1 0x8 MUL DUP3 PUSH2 0x1BE9 JUMP JUMPDEST PUSH1 0x0 PUSH2 0xE78 PUSH20 0x0 PUSH4 0x6299EA3F PUSH1 0x40 MLOAD DUP2 PUSH4 0xFFFFFFFF AND PUSH1 0xE0 SHL DUP2 MSTORE PUSH1 0x4 ADD PUSH1 0x20 PUSH1 0x40 MLOAD DUP1 DUP4 SUB DUP2 DUP7 DUP1 EXTCODESIZE ISZERO DUP1 ISZERO PUSH2 0xE47 JUMPI PUSH1 0x0 DUP1 REVERT JUMPDEST PUSH1 0x0 PUSH2 0xE78 PUSH20 0x0 PUSH4 0xF4655F12 PUSH1 0x40 MLOAD DUP2 PUSH4 0xFFFFFFFF AND PUSH1 0xE0 SHL DUP2 MSTORE PUSH1 0x4 ADD PUSH1 0x20 PUSH1 0x40 MLOAD DUP1 DUP4 SUB DUP2 DUP7 DUP1 EXTCODESIZE ISZERO DUP1 ISZERO PUSH2 0xE47 JUMPI PUSH1 0x0 DUP1 REVERT JUMPDEST PUSH2 0xDFB PUSH20 0x0 PUSH4 0x45827F69 PUSH1 0x40 MLOAD DUP2 PUSH4 0xFFFFFFFF AND PUSH1 0xE0 SHL DUP2 MSTORE PUSH1 0x4 ADD PUSH1 0x20 PUSH1 0x40 MLOAD DUP1 DUP4 SUB DUP2 DUP7 DUP1 EXTCODESIZE ISZERO DUP1 ISZERO PUSH2 0xDC9 JUMPI PUSH1 0x0 DUP1 REVERT JUMPDEST PUSH2 0xDFB PUSH20 0x0 PUSH4 0xB255E9E4 PUSH1 0x40 MLOAD DUP2 PUSH4 0xFFFFFFFF AND PUSH1 0xE0 SHL DUP2 MSTORE PUSH1 0x4 ADD PUSH1 0x20 PUSH1 0x40 MLOAD DUP1 DUP4 SUB DUP2 DUP7 DUP1 EXTCODESIZE ISZERO DUP1 ISZERO PUSH2 0xDC9 JUMPI PUSH1 0x0 DUP1 REVERT JUMPDEST PUSH1 0x0 PUSH2 0xE78 PUSH20 0x0 PUSH4 0x4A4C3510 PUSH1 0x40 MLOAD DUP2 PUSH4 0xFFFFFFFF AND PUSH1 0xE0 SHL DUP2 MSTORE PUSH1 0x4 ADD PUSH1 0x20 PUSH1 0x40 MLOAD DUP1 DUP4 SUB DUP2 DUP7 DUP1 EXTCODESIZE ISZERO DUP1 ISZERO PUSH2 0xE47 JUMPI PUSH1 0x0 DUP1 REVERT JUMPDEST PUSH1 0x0 PUSH2 0xE78 PUSH20 0x0 PUSH4 0xC585EEDE PUSH1 0x40 MLOAD DUP2 PUSH4 0xFFFFFFFF AND PUSH1 0xE0 SHL DUP2 MSTORE PUSH1 0x4 ADD PUSH1 0x20 PUSH1 0x40 MLOAD DUP1 DUP4 SUB DUP2 DUP7 DUP1 EXTCODESIZE ISZERO DUP1 ISZERO PUSH2 0xE47 JUMPI PUSH1 0x0 DUP1 REVERT JUMPDEST PUSH1 0x0 PUSH20 0x0 PUSH4 0x17A0CAC3 PUSH1 0x40 MLOAD DUP2 PUSH4 0xFFFFFFFF AND PUSH1 0xE0 SHL DUP2 MSTORE PUSH1 0x4 ADD PUSH1 0x20 PUSH1 0x40 MLOAD DUP1 DUP4 SUB DUP2 DUP7 DUP1 EXTCODESIZE ISZERO DUP1 ISZERO PUSH2 0x1A4B JUMPI PUSH1 0x0 DUP1 REVERT JUMPDEST POP GAS DELEGATECALL ISZERO DUP1 ISZERO PUSH2 0x1A5F JUMPI RETURNDATASIZE PUSH1 0x0 DUP1 RETURNDATACOPY RETURNDATASIZE PUSH1 0x0 REVERT JUMPDEST POP POP POP POP PUSH1 0x40 MLOAD RETURNDATASIZE PUSH1 0x20 DUP2 LT ISZERO PUSH2 0x1A75 JUMPI PUSH1 0x0 DUP1 REVERT JUMPDEST POP MLOAD PUSH1 0x40 DUP1 MLOAD PUSH4 0x51A2AB41 PUSH1 0xE1 SHL DUP2 MSTORE SWAP1 MLOAD PUSH1 0x1 PUSH1 0x1 PUSH1 0x40 SHL SUB SWAP1 SWAP3 AND SWAP2 PUSH20 0x0 SWAP2 PUSH4 0xA3455682 SWAP2 PUSH1 0x4 DUP1 DUP4 ADD SWAP3 PUSH1 0x20 SWAP3 SWAP2 SWAP1 DUP3 SWAP1 SUB ADD DUP2 DUP7 DUP1 EXTCODESIZE ISZERO DUP1 ISZERO PUSH2 0x1ACE JUMPI PUSH1 0x0 DUP1 REVERT JUMPDEST POP GAS DELEGATECALL ISZERO DUP1 ISZERO PUSH2 0x1AE2 JUMPI RETURNDATASIZE PUSH1 0x0 DUP1 RETURNDATACOPY RETURNDATASIZE PUSH1 0x0 REVERT JUMPDEST POP POP POP POP PUSH1 0x40 MLOAD RETURNDATASIZE PUSH1 0x20 DUP2 LT ISZERO PUSH2 0x1AF8 JUMPI PUSH1 0x0 DUP1 REVERT JUMPDEST POP MLOAD PUSH1 0x40 DUP1 MLOAD PUSH4 0x2FFDABC5 PUSH1 0xE0 SHL DUP2 MSTORE SWAP1 MLOAD PUSH2 0x1B4A SWAP2 PUSH20 0x0 SWAP2 PUSH4 0x2FFDABC5 SWAP2 PUSH1 0x4 DUP1 DUP3 ADD SWAP3 PUSH1 0x20 SWAP3 SWAP1 SWAP2 SWAP1 DUP3 SWAP1 SUB ADD DUP2 DUP7 DUP1 EXTCODESIZE ISZERO DUP1 ISZERO PUSH2 0xE47 JUMPI PUSH1 0x0 DUP1 REVERT JUMPDEST AND PUSH1 0x1 PUSH1 0x1 PUSH1 0x40 SHL SUB AND SWAP1 SHR SWAP1 POP SWAP1 JUMP JUMPDEST PUSH2 0xDFB PUSH20 0x0 PUSH4 0xE80D1751 PUSH1 0x40 MLOAD DUP2 PUSH4 0xFFFFFFFF AND PUSH1 0xE0 SHL DUP2 MSTORE PUSH1 0x4 ADD PUSH1 0x20 PUSH1 0x40 MLOAD DUP1 DUP4 SUB DUP2 DUP7 DUP1 EXTCODESIZE ISZERO DUP1 ISZERO PUSH2 0xDC9 JUMPI PUSH1 0x0 DUP1 REVERT JUMPDEST PUSH2 0xDFB PUSH20 0x0 PUSH4 0x7047F4DF PUSH1 0x40 MLOAD DUP2 PUSH4 0xFFFFFFFF AND PUSH1 0xE0 SHL DUP2 MSTORE PUSH1 0x4 ADD PUSH1 0x20 PUSH1 0x40 MLOAD DUP1 DUP4 SUB DUP2 DUP7 DUP1 EXTCODESIZE ISZERO DUP1 ISZERO PUSH2 0xDC9 JUMPI PUSH1 0x0 DUP1 REVERT JUMPDEST PUSH1 0x0 PUSH20 0x0 PUSH4 0xBF1924C5 DUP4 PUSH1 0x40 MLOAD DUP3 PUSH4 0xFFFFFFFF AND PUSH1 0xE0 SHL DUP2 MSTORE PUSH1 0x4 ADD DUP1 DUP3 PUSH1 0x1 PUSH1 0x1 PUSH1 0x40 SHL SUB AND DUP2 MSTORE PUSH1 0x20 ADD SWAP2 POP POP PUSH1 0x20 PUSH1 0x40 MLOAD DUP1 DUP4 SUB DUP2 DUP7 DUP1 EXTCODESIZE ISZERO DUP1 ISZERO PUSH2 0x1C43 JUMPI PUSH1 0x0 DUP1 REVERT JUMPDEST POP GAS DELEGATECALL ISZERO DUP1 ISZERO PUSH2 0x1C57 JUMPI RETURNDATASIZE PUSH1 0x0 DUP1 RETURNDATACOPY RETURNDATASIZE PUSH1 0x0 REVERT JUMPDEST POP POP POP POP PUSH1 0x40 MLOAD RETURNDATASIZE PUSH1 0x20 DUP2 LT ISZERO PUSH2 0x1C6D JUMPI PUSH1 0x0 DUP1 REVERT JUMPDEST POP MLOAD PUSH1 0x1 PUSH1 0x1 PUSH1 0x40 SHL SUB SWAP4 DUP5 AND PUSH1 0x0 SWAP1 DUP2 MSTORE PUSH1 0x4 PUSH1 0x20 MSTORE PUSH1 0x40 SWAP1 KECCAK256 DUP1 SLOAD PUSH8 0xFFFFFFFFFFFFFFFF NOT AND SWAP5 SWAP1 SWAP2 AND SWAP4 SWAP1 SWAP4 OR SWAP1 SWAP3 SSTORE POP POP JUMP JUMPDEST PUSH1 0x0 PUSH2 0xE78 PUSH20 0x0 PUSH4 0xD124BD13 PUSH1 0x40 MLOAD DUP2 PUSH4 0xFFFFFFFF AND PUSH1 0xE0 SHL DUP2 MSTORE PUSH1 0x4 ADD PUSH1 0x20 PUSH1 0x40 MLOAD DUP1 DUP4 SUB DUP2 DUP7 DUP1 EXTCODESIZE ISZERO DUP1 ISZERO PUSH2 0xE47 JUMPI PUSH1 0x0 DUP1 REVERT JUMPDEST PUSH1 0x0 PUSH20 0x0 PUSH4 0x656B151F PUSH1 0x40 MLOAD DUP2 PUSH4 0xFFFFFFFF AND PUSH1 0xE0 SHL DUP2 MSTORE PUSH1 0x4 ADD PUSH1 0x20 PUSH1 0x40 MLOAD DUP1 DUP4 SUB DUP2 DUP7 DUP1 EXTCODESIZE ISZERO DUP1 ISZERO PUSH2 0x1D33 JUMPI PUSH1 0x0 DUP1 REVERT JUMPDEST POP GAS DELEGATECALL ISZERO DUP1 ISZERO PUSH2 0x1D47 JUMPI RETURNDATASIZE PUSH1 0x0 DUP1 RETURNDATACOPY RETURNDATASIZE PUSH1 0x0 REVERT JUMPDEST POP POP POP POP PUSH1 0x40 MLOAD RETURNDATASIZE PUSH1 0x20 DUP2 LT ISZERO PUSH2 0x1D5D JUMPI PUSH1 0x0 DUP1 REVERT JUMPDEST POP MLOAD PUSH1 0x40 DUP1 MLOAD PUSH4 0xFD198E55 PUSH1 0xE0 SHL DUP2 MSTORE SWAP1 MLOAD PUSH1 0x1 PUSH1 0x1 PUSH1 0x40 SHL SUB SWAP1 SWAP3 AND SWAP2 PUSH20 0x0 SWAP2 PUSH4 0xFD198E55 SWAP2 PUSH1 0x4 DUP1 DUP4 ADD SWAP3 PUSH1 0x20 SWAP3 SWAP2 SWAP1 DUP3 SWAP1 SUB ADD DUP2 DUP7 DUP1 EXTCODESIZE ISZERO DUP1 ISZERO PUSH2 0x1ACE JUMPI PUSH1 0x0 DUP1 REVERT JUMPDEST PUSH1 0x0 PUSH2 0xE78 PUSH20 0x0 PUSH4 0x9FF9932B PUSH1 0x40 MLOAD DUP2 PUSH4 0xFFFFFFFF AND PUSH1 0xE0 SHL DUP2 MSTORE PUSH1 0x4 ADD PUSH1 0x20 PUSH1 0x40 MLOAD DUP1 DUP4 SUB DUP2 DUP7 DUP1 EXTCODESIZE ISZERO DUP1 ISZERO PUSH2 0xE47 JUMPI PUSH1 0x0 DUP1 REVERT JUMPDEST PUSH2 0xDFB PUSH20 0x0 PUSH4 0x29301CAC PUSH1 0x40 MLOAD DUP2 PUSH4 0xFFFFFFFF AND PUSH1 0xE0 SHL DUP2 MSTORE PUSH1 0x4 ADD PUSH1 0x20 PUSH1 0x40 MLOAD DUP1 DUP4 SUB DUP2 DUP7 DUP1 EXTCODESIZE ISZERO DUP1 ISZERO PUSH2 0xDC9 JUMPI PUSH1 0x0 DUP1 REVERT JUMPDEST PUSH2 0xDFB PUSH20 0x0 PUSH4 0x8FD6B7C4 PUSH1 0x40 MLOAD DUP2 PUSH4 0xFFFFFFFF AND PUSH1 0xE0 SHL DUP2 MSTORE PUSH1 0x4 ADD PUSH1 0x20 PUSH1 0x40 MLOAD DUP1 DUP4 SUB DUP2 DUP7 DUP1 EXTCODESIZE ISZERO DUP1 ISZERO PUSH2 0xDC9 JUMPI PUSH1 0x0 DUP1 REVERT JUMPDEST PUSH1 0x0 PUSH2 0xE78 PUSH20 0x0 PUSH4 0x520AFF6C PUSH1 0x40 MLOAD DUP2 PUSH4 0xFFFFFFFF AND PUSH1 0xE0 SHL DUP2 MSTORE PUSH1 0x4 ADD PUSH1 0x20 PUSH1 0x40 MLOAD DUP1 DUP4 SUB DUP2 DUP7 DUP1 EXTCODESIZE ISZERO DUP1 ISZERO PUSH2 0xE47 JUMPI PUSH1 0x0 DUP1 REVERT JUMPDEST POP POP POP JUMP JUMPDEST PUSH1 0x0 PUSH2 0xE78 PUSH20 0x0 PUSH4 0x2935B8CE PUSH1 0x40 MLOAD DUP2 PUSH4 0xFFFFFFFF AND PUSH1 0xE0 SHL DUP2 MSTORE PUSH1 0x4 ADD PUSH1 0x20 PUSH1 0x40 MLOAD DUP1 DUP4 SUB DUP2 DUP7 DUP1 EXTCODESIZE ISZERO DUP1 ISZERO PUSH2 0xE47 JUMPI PUSH1 0x0 DUP1 REVERT JUMPDEST PUSH1 0x0 PUSH2 0x1F2E PUSH2 0x2251 JUMP JUMPDEST SWAP1 POP DUP2 ISZERO PUSH2 0x1F7A JUMPI PUSH20 0x0 PUSH4 0xFD198E55 PUSH1 0x40 MLOAD DUP2 PUSH4 0xFFFFFFFF AND PUSH1 0xE0 SHL DUP2 MSTORE PUSH1 0x4 ADD PUSH1 0x20 PUSH1 0x40 MLOAD DUP1 DUP4 SUB DUP2 DUP7 DUP1 EXTCODESIZE ISZERO DUP1 ISZERO PUSH2 0x11C3 JUMPI PUSH1 0x0 DUP1 REVERT JUMPDEST PUSH20 0x0 PUSH4 0xFD198E55 PUSH1 0x40 MLOAD DUP2 PUSH4 0xFFFFFFFF AND PUSH1 0xE0 SHL DUP2 MSTORE PUSH1 0x4 ADD PUSH1 0x20 PUSH1 0x40 MLOAD DUP1 DUP4 SUB DUP2 DUP7 DUP1 EXTCODESIZE ISZERO DUP1 ISZERO PUSH2 0x1239 JUMPI PUSH1 0x0 DUP1 REVERT JUMPDEST PUSH2 0xDFB PUSH20 0x0 PUSH4 0x520AFF6C PUSH1 0x40 MLOAD DUP2 PUSH4 0xFFFFFFFF AND PUSH1 0xE0 SHL DUP2 MSTORE PUSH1 0x4 ADD PUSH1 0x20 PUSH1 0x40 MLOAD DUP1 DUP4 SUB DUP2 DUP7 DUP1 EXTCODESIZE ISZERO DUP1 ISZERO PUSH2 0xDC9 JUMPI PUSH1 0x0 DUP1 REVERT JUMPDEST PUSH2 0xDFB PUSH20 0x0 PUSH4 0x443FD598 PUSH1 0x40 MLOAD DUP2 PUSH4 0xFFFFFFFF AND PUSH1 0xE0 SHL DUP2 MSTORE PUSH1 0x4 ADD PUSH1 0x20 PUSH1 0x40 MLOAD DUP1 DUP4 SUB DUP2 DUP7 DUP1 EXTCODESIZE ISZERO DUP1 ISZERO PUSH2 0xDC9 JUMPI PUSH1 0x0 DUP1 REVERT JUMPDEST PUSH1 0x0 PUSH2 0xE78 PUSH20 0x0 PUSH4 0x9A59734C PUSH1 0x40 MLOAD DUP2 PUSH4 0xFFFFFFFF AND PUSH1 0xE0 SHL DUP2 MSTORE PUSH1 0x4 ADD PUSH1 0x20 PUSH1 0x40 MLOAD DUP1 DUP4 SUB DUP2 DUP7 DUP1 EXTCODESIZE ISZERO DUP1 ISZERO PUSH2 0xE47 JUMPI PUSH1 0x0 DUP1 REVERT JUMPDEST PUSH2 0xDFB PUSH20 0x0 PUSH4 0xA279D71 PUSH1 0x40 MLOAD DUP2 PUSH4 0xFFFFFFFF AND PUSH1 0xE0 SHL DUP2 MSTORE PUSH1 0x4 ADD PUSH1 0x20 PUSH1 0x40 MLOAD DUP1 DUP4 SUB DUP2 DUP7 DUP1 EXTCODESIZE ISZERO DUP1 ISZERO PUSH2 0xDC9 JUMPI PUSH1 0x0 DUP1 REVERT JUMPDEST PUSH1 0x0 PUSH2 0x20E6 PUSH2 0x2251 JUMP JUMPDEST SWAP1 POP DUP2 ISZERO PUSH2 0x2132 JUMPI PUSH20 0x0 PUSH4 0xA3455682 PUSH1 0x40 MLOAD DUP2 PUSH4 0xFFFFFFFF AND PUSH1 0xE0 SHL DUP2 MSTORE PUSH1 0x4 ADD PUSH1 0x20 PUSH1 0x40 MLOAD DUP1 DUP4 SUB DUP2 DUP7 DUP1 EXTCODESIZE ISZERO DUP1 ISZERO PUSH2 0x11C3 JUMPI PUSH1 0x0 DUP1 REVERT JUMPDEST PUSH20 0x0 PUSH4 0xA3455682 PUSH1 0x40 MLOAD DUP2 PUSH4 0xFFFFFFFF AND PUSH1 0xE0 SHL DUP2 MSTORE PUSH1 0x4 ADD PUSH1 0x20 PUSH1 0x40 MLOAD DUP1 DUP4 SUB DUP2 DUP7 DUP1 EXTCODESIZE ISZERO DUP1 ISZERO PUSH2 0x1239 JUMPI PUSH1 0x0 DUP1 REVERT JUMPDEST PUSH1 0x0 PUSH2 0xE78 PUSH20 0x0 PUSH4 0x42DB3667 PUSH1 0x40 MLOAD DUP2 PUSH4 0xFFFFFFFF AND PUSH1 0xE0 SHL DUP2 MSTORE PUSH1 0x4 ADD PUSH1 0x20 PUSH1 0x40 MLOAD DUP1 DUP4 SUB DUP2 DUP7 DUP1 EXTCODESIZE ISZERO DUP1 ISZERO PUSH2 0xE47 JUMPI PUSH1 0x0 DUP1 REVERT JUMPDEST PUSH1 0x0 PUSH2 0xE78 PUSH20 0x0 PUSH4 0x6903680C PUSH1 0x40 MLOAD DUP2 PUSH4 0xFFFFFFFF AND PUSH1 0xE0 SHL DUP2 MSTORE PUSH1 0x4 ADD PUSH1 0x20 PUSH1 0x40 MLOAD DUP1 DUP4 SUB DUP2 DUP7 DUP1 EXTCODESIZE ISZERO DUP1 ISZERO PUSH2 0xE47 JUMPI PUSH1 0x0 DUP1 REVERT JUMPDEST PUSH1 0x0 PUSH2 0xE78 PUSH20 0x0 PUSH4 0x929127DB PUSH1 0x40 MLOAD DUP2 PUSH4 0xFFFFFFFF AND PUSH1 0xE0 SHL DUP2 MSTORE PUSH1 0x4 ADD PUSH1 0x20 PUSH1 0x40 MLOAD DUP1 DUP4 SUB DUP2 DUP7 DUP1 EXTCODESIZE ISZERO DUP1 ISZERO PUSH2 0xE47 JUMPI PUSH1 0x0 DUP1 REVERT JUMPDEST PUSH1 0x0 PUSH2 0xE78 PUSH20 0x0 PUSH4 0x2FFDABC5 PUSH1 0x40 MLOAD DUP2 PUSH4 0xFFFFFFFF AND PUSH1 0xE0 SHL DUP2 MSTORE PUSH1 0x4 ADD PUSH1 0x20 PUSH1 0x40 MLOAD DUP1 DUP4 SUB DUP2 DUP7 DUP1 EXTCODESIZE ISZERO DUP1 ISZERO PUSH2 0xE47 JUMPI PUSH1 0x0 DUP1 REVERT JUMPDEST PUSH2 0xDFB PUSH20 0x0 PUSH4 0x6630AD87 PUSH1 0x40 MLOAD DUP2 PUSH4 0xFFFFFFFF AND PUSH1 0xE0 SHL DUP2 MSTORE PUSH1 0x4 ADD PUSH1 0x20 PUSH1 0x40 MLOAD DUP1 DUP4 SUB DUP2 DUP7 DUP1 EXTCODESIZE ISZERO DUP1 ISZERO PUSH2 0xDC9 JUMPI PUSH1 0x0 DUP1 REVERT JUMPDEST PUSH1 0x0 PUSH2 0xE78 PUSH20 0x0 PUSH4 0xE80D1751 PUSH1 0x40 MLOAD DUP2 PUSH4 0xFFFFFFFF AND PUSH1 0xE0 SHL DUP2 MSTORE PUSH1 0x4 ADD PUSH1 0x20 PUSH1 0x40 MLOAD DUP1 DUP4 SUB DUP2 DUP7 DUP1 EXTCODESIZE ISZERO DUP1 ISZERO PUSH2 0xE47 JUMPI PUSH1 0x0 DUP1 REVERT JUMPDEST PUSH1 0x0 PUSH2 0x2334 PUSH2 0x2251 JUMP JUMPDEST SWAP1 POP PUSH20 0x0 PUSH4 0x910A5247 PUSH1 0x40 MLOAD DUP2 PUSH4 0xFFFFFFFF AND PUSH1 0xE0 SHL DUP2 MSTORE PUSH1 0x4 ADD PUSH1 0x20 PUSH1 0x40 MLOAD DUP1 DUP4 SUB DUP2 DUP7 DUP1 EXTCODESIZE ISZERO DUP1 ISZERO PUSH2 0x237A JUMPI PUSH1 0x0 DUP1 REVERT JUMPDEST POP GAS DELEGATECALL ISZERO DUP1 ISZERO PUSH2 0x238E JUMPI RETURNDATASIZE PUSH1 0x0 DUP1 RETURNDATACOPY RETURNDATASIZE PUSH1 0x0 REVERT JUMPDEST POP POP POP POP PUSH1 0x40 MLOAD RETURNDATASIZE PUSH1 0x20 DUP2 LT ISZERO PUSH2 0x23A4 JUMPI PUSH1 0x0 DUP1 REVERT JUMPDEST POP MLOAD PUSH1 0x40 DUP1 MLOAD PUSH4 0x317D2BB5 PUSH1 0xE0 SHL DUP2 MSTORE SWAP1 MLOAD PUSH1 0x1 PUSH1 0x1 PUSH1 0x40 SHL SUB DUP6 DUP2 AND SWAP4 AND SWAP3 SWAP1 SWAP3 SHL SWAP2 PUSH20 0x0 SWAP2 PUSH4 0x317D2BB5 SWAP2 PUSH1 0x4 DUP1 DUP4 ADD SWAP3 PUSH1 0x20 SWAP3 SWAP2 SWAP1 DUP3 SWAP1 SUB ADD DUP2 DUP7 DUP1 EXTCODESIZE ISZERO DUP1 ISZERO PUSH2 0x2403 JUMPI PUSH1 0x0 DUP1 REVERT JUMPDEST POP GAS DELEGATECALL ISZERO DUP1 ISZERO PUSH2 0x2417 JUMPI RETURNDATASIZE PUSH1 0x0 DUP1 RETURNDATACOPY RETURNDATASIZE PUSH1 0x0 REVERT JUMPDEST POP POP POP POP PUSH1 0x40 MLOAD RETURNDATASIZE PUSH1 0x20 DUP2 LT ISZERO PUSH2 0x242D JUMPI PUSH1 0x0 DUP1 REVERT JUMPDEST POP MLOAD PUSH1 0x40 DUP1 MLOAD PUSH4 0x2FFDABC5 PUSH1 0xE0 SHL DUP2 MSTORE SWAP1 MLOAD SWAP2 NOT SWAP4 SWAP1 SWAP4 AND SWAP2 SWAP1 SWAP2 OR SWAP2 PUSH2 0xF25 SWAP2 PUSH20 0x0 SWAP2 PUSH4 0x2FFDABC5 SWAP2 PUSH1 0x4 DUP1 DUP4 ADD SWAP3 PUSH1 0x20 SWAP3 SWAP2 SWAP1 DUP3 SWAP1 SUB ADD DUP2 DUP7 DUP1 EXTCODESIZE ISZERO DUP1 ISZERO PUSH2 0xDC9 JUMPI PUSH1 0x0 DUP1 REVERT JUMPDEST PUSH4 0x40008000 PUSH1 0x0 SWAP1 DUP2 MSTORE PUSH1 0x4 PUSH1 0x20 DUP2 DUP2 MSTORE PUSH32 0x1F90FF9D73E8A6C31AA68CE092EE24C1FC49BC29C8525B76E90C710641779CEA SLOAD PUSH1 0x40 DUP1 MLOAD PUSH4 0xBF1924C5 PUSH1 0xE0 SHL DUP2 MSTORE PUSH1 0x1 PUSH1 0x1 PUSH1 0x40 SHL SUB SWAP1 SWAP3 AND SWAP4 DUP3 ADD DUP5 SWAP1 MSTORE MLOAD DUP5 SWAP3 PUSH20 0x0 SWAP3 PUSH4 0xBF1924C5 SWAP3 PUSH1 0x24 DUP1 DUP4 ADD SWAP4 SWAP3 DUP3 SWAP1 SUB ADD DUP2 DUP7 DUP1 EXTCODESIZE ISZERO DUP1 ISZERO PUSH2 0x2515 JUMPI PUSH1 0x0 DUP1 REVERT JUMPDEST POP GAS DELEGATECALL ISZERO DUP1 ISZERO PUSH2 0x2529 JUMPI RETURNDATASIZE PUSH1 0x0 DUP1 RETURNDATACOPY RETURNDATASIZE PUSH1 0x0 REVERT JUMPDEST POP POP POP POP PUSH1 0x40 MLOAD RETURNDATASIZE PUSH1 0x20 DUP2 LT ISZERO PUSH2 0x253F JUMPI PUSH1 0x0 DUP1 REVERT JUMPDEST POP MLOAD PUSH1 0x0 SLOAD PUSH1 0x40 DUP1 MLOAD SWAP2 DUP3 MSTORE PUSH6 0x7FFFFFFFFFFF PUSH1 0x1 DUP5 DUP2 SHR SWAP2 SWAP1 SWAP2 AND PUSH1 0x20 DUP5 ADD DUP2 SWAP1 MSTORE DUP2 DUP6 AND SWAP2 DUP3 EQ DUP5 DUP5 ADD DUP2 SWAP1 MSTORE SWAP3 MLOAD SWAP5 SWAP7 POP SWAP2 SWAP5 POP SWAP3 SWAP1 SWAP2 PUSH32 0x23A6DBF84A188125A7E041CF278E49EBF25ABC3565D481F0728681181A01B1D4 SWAP2 SWAP1 DUP2 SWAP1 SUB PUSH1 0x60 ADD SWAP1 LOG1 SWAP4 POP POP POP POP SWAP1 JUMP JUMPDEST PUSH2 0xDFB PUSH20 0x0 PUSH4 0x2935B8CE PUSH1 0x40 MLOAD DUP2 PUSH4 0xFFFFFFFF AND PUSH1 0xE0 SHL DUP2 MSTORE PUSH1 0x4 ADD PUSH1 0x20 PUSH1 0x40 MLOAD DUP1 DUP4 SUB DUP2 DUP7 DUP1 EXTCODESIZE ISZERO DUP1 ISZERO PUSH2 0xDC9 JUMPI PUSH1 0x0 DUP1 REVERT JUMPDEST PUSH1 0x0 PUSH20 0x0 PUSH4 0xE89D408D PUSH1 0x40 MLOAD DUP2 PUSH4 0xFFFFFFFF AND PUSH1 0xE0 SHL DUP2 MSTORE PUSH1 0x4 ADD PUSH1 0x20 PUSH1 0x40 MLOAD DUP1 DUP4 SUB DUP2 DUP7 DUP1 EXTCODESIZE ISZERO DUP1 ISZERO PUSH2 0x2639 JUMPI PUSH1 0x0 DUP1 REVERT JUMPDEST POP GAS DELEGATECALL ISZERO DUP1 ISZERO PUSH2 0x264D JUMPI RETURNDATASIZE PUSH1 0x0 DUP1 RETURNDATACOPY RETURNDATASIZE PUSH1 0x0 REVERT JUMPDEST POP POP POP POP PUSH1 0x40 MLOAD RETURNDATASIZE PUSH1 0x20 DUP2 LT ISZERO PUSH2 0x2663 JUMPI PUSH1 0x0 DUP1 REVERT JUMPDEST POP MLOAD PUSH1 0x40 DUP1 MLOAD PUSH4 0xE697ACE9 PUSH1 0xE0 SHL DUP2 MSTORE SWAP1 MLOAD PUSH1 0x1 PUSH1 0x1 PUSH1 0x40 SHL SUB SWAP1 SWAP3 AND SWAP2 PUSH20 0x0 SWAP2 PUSH4 0xE697ACE9 SWAP2 PUSH1 0x4 DUP1 DUP4 ADD SWAP3 PUSH1 0x20 SWAP3 SWAP2 SWAP1 DUP3 SWAP1 SUB ADD DUP2 DUP7 DUP1 EXTCODESIZE ISZERO DUP1 ISZERO PUSH2 0x1ACE JUMPI PUSH1 0x0 DUP1 REVERT JUMPDEST PUSH1 0x0 PUSH2 0xE78 PUSH20 0x0 PUSH4 0xA43E290F PUSH1 0x40 MLOAD DUP2 PUSH4 0xFFFFFFFF AND PUSH1 0xE0 SHL DUP2 MSTORE PUSH1 0x4 ADD PUSH1 0x20 PUSH1 0x40 MLOAD DUP1 DUP4 SUB DUP2 DUP7 DUP1 EXTCODESIZE ISZERO DUP1 ISZERO PUSH2 0xE47 JUMPI PUSH1 0x0 DUP1 REVERT JUMPDEST PUSH2 0xDFB PUSH20 0x0 PUSH4 0x521819F5 PUSH1 0x40 MLOAD DUP2 PUSH4 0xFFFFFFFF AND PUSH1 0xE0 SHL DUP2 MSTORE PUSH1 0x4 ADD PUSH1 0x20 PUSH1 0x40 MLOAD DUP1 DUP4 SUB DUP2 DUP7 DUP1 EXTCODESIZE ISZERO DUP1 ISZERO PUSH2 0xDC9 JUMPI PUSH1 0x0 DUP1 REVERT JUMPDEST PUSH2 0xDFB PUSH20 0x0 PUSH4 0xE2E2E712 PUSH1 0x40 MLOAD DUP2 PUSH4 0xFFFFFFFF AND PUSH1 0xE0 SHL DUP2 MSTORE PUSH1 0x4 ADD PUSH1 0x20 PUSH1 0x40 MLOAD DUP1 DUP4 SUB DUP2 DUP7 DUP1 EXTCODESIZE ISZERO DUP1 ISZERO PUSH2 0xDC9 JUMPI PUSH1 0x0 DUP1 REVERT JUMPDEST PUSH1 0x0 PUSH2 0xE78 PUSH20 0x0 PUSH4 0xA279D71 PUSH1 0x40 MLOAD DUP2 PUSH4 0xFFFFFFFF AND PUSH1 0xE0 SHL DUP2 MSTORE PUSH1 0x4 ADD PUSH1 0x20 PUSH1 0x40 MLOAD DUP1 DUP4 SUB DUP2 DUP7 DUP1 EXTCODESIZE ISZERO DUP1 ISZERO PUSH2 0xE47 JUMPI PUSH1 0x0 DUP1 REVERT JUMPDEST PUSH2 0xDFB PUSH20 0x0 PUSH4 0x42DB3667 PUSH1 0x40 MLOAD DUP2 PUSH4 0xFFFFFFFF AND PUSH1 0xE0 SHL DUP2 MSTORE PUSH1 0x4 ADD PUSH1 0x20 PUSH1 0x40 MLOAD DUP1 DUP4 SUB DUP2 DUP7 DUP1 EXTCODESIZE ISZERO DUP1 ISZERO PUSH2 0xDC9 JUMPI PUSH1 0x0 DUP1 REVERT JUMPDEST PUSH2 0xDFB PUSH20 0x0 PUSH4 0xDA3E8D7B PUSH1 0x40 MLOAD DUP2 PUSH4 0xFFFFFFFF AND PUSH1 0xE0 SHL DUP2 MSTORE PUSH1 0x4 ADD PUSH1 0x20 PUSH1 0x40 MLOAD DUP1 DUP4 SUB DUP2 DUP7 DUP1 EXTCODESIZE ISZERO DUP1 ISZERO PUSH2 0xDC9 JUMPI PUSH1 0x0 DUP1 REVERT JUMPDEST PUSH1 0x0 PUSH20 0x0 PUSH4 0x910A5247 PUSH1 0x40 MLOAD DUP2 PUSH4 0xFFFFFFFF AND PUSH1 0xE0 SHL DUP2 MSTORE PUSH1 0x4 ADD PUSH1 0x20 PUSH1 0x40 MLOAD DUP1 DUP4 SUB DUP2 DUP7 DUP1 EXTCODESIZE ISZERO DUP1 ISZERO PUSH2 0x28B0 JUMPI PUSH1 0x0 DUP1 REVERT JUMPDEST POP GAS DELEGATECALL ISZERO DUP1 ISZERO PUSH2 0x28C4 JUMPI RETURNDATASIZE PUSH1 0x0 DUP1 RETURNDATACOPY RETURNDATASIZE PUSH1 0x0 REVERT JUMPDEST POP POP POP POP PUSH1 0x40 MLOAD RETURNDATASIZE PUSH1 0x20 DUP2 LT ISZERO PUSH2 0x28DA JUMPI PUSH1 0x0 DUP1 REVERT JUMPDEST POP MLOAD PUSH1 0x40 DUP1 MLOAD PUSH4 0x317D2BB5 PUSH1 0xE0 SHL DUP2 MSTORE SWAP1 MLOAD PUSH1 0x1 PUSH1 0x1 PUSH1 0x40 SHL SUB SWAP1 SWAP3 AND SWAP2 PUSH20 0x0 SWAP2 PUSH4 0x317D2BB5 SWAP2 PUSH1 0x4 DUP1 DUP4 ADD SWAP3 PUSH1 0x20 SWAP3 SWAP2 SWAP1 DUP3 SWAP1 SUB ADD DUP2 DUP7 DUP1 EXTCODESIZE ISZERO DUP1 ISZERO PUSH2 0x1ACE JUMPI PUSH1 0x0 DUP1 REVERT JUMPDEST PUSH2 0xDFB PUSH20 0x0 PUSH4 0xD41A5B59 PUSH1 0x40 MLOAD DUP2 PUSH4 0xFFFFFFFF AND PUSH1 0xE0 SHL DUP2 MSTORE PUSH1 0x4 ADD PUSH1 0x20 PUSH1 0x40 MLOAD DUP1 DUP4 SUB DUP2 DUP7 DUP1 EXTCODESIZE ISZERO DUP1 ISZERO PUSH2 0xDC9 JUMPI PUSH1 0x0 DUP1 REVERT JUMPDEST PUSH1 0x0 PUSH20 0x0 PUSH4 0xBF1924C5 PUSH2 0x29A1 DUP5 PUSH1 0x1 PUSH2 0x2CB8 JUMP JUMPDEST PUSH1 0xC0 SHR PUSH1 0x40 MLOAD DUP3 PUSH4 0xFFFFFFFF AND PUSH1 0xE0 SHL DUP2 MSTORE PUSH1 0x4 ADD DUP1 DUP3 PUSH1 0x1 PUSH1 0x1 PUSH1 0x40 SHL SUB AND DUP2 MSTORE PUSH1 0x20 ADD SWAP2 POP POP PUSH1 0x20 PUSH1 0x40 MLOAD DUP1 DUP4 SUB DUP2 DUP7 DUP1 EXTCODESIZE ISZERO DUP1 ISZERO PUSH2 0x29E1 JUMPI PUSH1 0x0 DUP1 REVERT JUMPDEST POP GAS DELEGATECALL ISZERO DUP1 ISZERO PUSH2 0x29F5 JUMPI RETURNDATASIZE PUSH1 0x0 DUP1 RETURNDATACOPY RETURNDATASIZE PUSH1 0x0 REVERT JUMPDEST POP POP POP POP PUSH1 0x40 MLOAD RETURNDATASIZE PUSH1 0x20 DUP2 LT ISZERO PUSH2 0x2A0B JUMPI PUSH1 0x0 DUP1 REVERT JUMPDEST POP MLOAD SWAP3 SWAP2 POP POP JUMP JUMPDEST PUSH2 0xDFB PUSH20 0x0 PUSH4 0x87098135 PUSH1 0x40 MLOAD DUP2 PUSH4 0xFFFFFFFF AND PUSH1 0xE0 SHL DUP2 MSTORE PUSH1 0x4 ADD PUSH1 0x20 PUSH1 0x40 MLOAD DUP1 DUP4 SUB DUP2 DUP7 DUP1 EXTCODESIZE ISZERO DUP1 ISZERO PUSH2 0xDC9 JUMPI PUSH1 0x0 DUP1 REVERT JUMPDEST PUSH1 0x0 PUSH1 0x8 PUSH1 0x1 PUSH1 0x1 PUSH1 0x40 SHL SUB DUP4 AND DIV SWAP1 POP DUP1 PUSH1 0x1 PUSH1 0x1 PUSH1 0x40 SHL SUB AND PUSH1 0x8 EQ ISZERO PUSH2 0x2A8C JUMPI PUSH2 0x2A87 DUP5 DUP5 PUSH2 0x1BE9 JUMP JUMPDEST PUSH2 0x2C9C JUMP JUMPDEST PUSH1 0x7 NOT DUP5 AND DUP1 DUP6 SUB PUSH1 0x0 PUSH2 0x2A9F DUP4 PUSH2 0x2CA2 JUMP JUMPDEST SWAP1 POP PUSH1 0x0 PUSH20 0x0 PUSH4 0xBF1924C5 DUP5 PUSH1 0x8 MUL PUSH1 0x1 PUSH1 0x1 PUSH1 0x40 SHL SUB AND PUSH1 0x1 DUP10 PUSH1 0x1 PUSH1 0x1 PUSH1 0x40 SHL SUB AND PUSH1 0x2 PUSH1 0x1 PUSH1 0x1 PUSH1 0x40 SHL SUB AND EXP SUB PUSH1 0x1 PUSH1 0x1 PUSH1 0x40 SHL SUB AND SWAP1 SHL PUSH1 0x40 MLOAD DUP3 PUSH4 0xFFFFFFFF AND PUSH1 0xE0 SHL DUP2 MSTORE PUSH1 0x4 ADD DUP1 DUP3 PUSH1 0x1 PUSH1 0x1 PUSH1 0x40 SHL SUB AND DUP2 MSTORE PUSH1 0x20 ADD SWAP2 POP POP PUSH1 0x20 PUSH1 0x40 MLOAD DUP1 DUP4 SUB DUP2 DUP7 DUP1 EXTCODESIZE ISZERO DUP1 ISZERO PUSH2 0x2B2B JUMPI PUSH1 0x0 DUP1 REVERT JUMPDEST POP GAS DELEGATECALL ISZERO DUP1 ISZERO PUSH2 0x2B3F JUMPI RETURNDATASIZE PUSH1 0x0 DUP1 RETURNDATACOPY RETURNDATASIZE PUSH1 0x0 REVERT JUMPDEST POP POP POP POP PUSH1 0x40 MLOAD RETURNDATASIZE PUSH1 0x20 DUP2 LT ISZERO PUSH2 0x2B55 JUMPI PUSH1 0x0 DUP1 REVERT JUMPDEST POP MLOAD PUSH1 0x40 DUP1 MLOAD PUSH4 0xBF1924C5 PUSH1 0xE0 SHL DUP2 MSTORE PUSH1 0x1 PUSH1 0x1 PUSH1 0x40 SHL SUB DUP10 DUP2 AND PUSH1 0x2 EXP PUSH1 0x0 NOT ADD DUP12 AND AND PUSH1 0x4 DUP3 ADD MSTORE SWAP1 MLOAD SWAP2 SWAP3 POP PUSH1 0x0 SWAP2 PUSH20 0x0 SWAP2 PUSH4 0xBF1924C5 SWAP2 PUSH1 0x24 DUP1 DUP4 ADD SWAP3 PUSH1 0x20 SWAP3 SWAP2 SWAP1 DUP3 SWAP1 SUB ADD DUP2 DUP7 DUP1 EXTCODESIZE ISZERO DUP1 ISZERO PUSH2 0x2BC2 JUMPI PUSH1 0x0 DUP1 REVERT JUMPDEST POP GAS DELEGATECALL ISZERO DUP1 ISZERO PUSH2 0x2BD6 JUMPI RETURNDATASIZE PUSH1 0x0 DUP1 RETURNDATACOPY RETURNDATASIZE PUSH1 0x0 REVERT JUMPDEST POP POP POP POP PUSH1 0x40 MLOAD RETURNDATASIZE PUSH1 0x20 DUP2 LT ISZERO PUSH2 0x2BEC JUMPI PUSH1 0x0 DUP1 REVERT JUMPDEST POP MLOAD PUSH1 0x40 DUP1 MLOAD PUSH4 0xBF1924C5 PUSH1 0xE0 SHL DUP2 MSTORE PUSH1 0x1 PUSH1 0x1 PUSH1 0x40 SHL SUB DUP1 DUP5 AND PUSH1 0x8 DUP10 MUL DUP3 AND SHR DUP7 NOT DUP9 AND OR SWAP1 DUP2 AND PUSH1 0x4 DUP4 ADD MSTORE SWAP2 MLOAD SWAP3 SWAP4 POP SWAP1 SWAP2 PUSH20 0x0 SWAP2 PUSH4 0xBF1924C5 SWAP2 PUSH1 0x24 DUP1 DUP4 ADD SWAP3 PUSH1 0x20 SWAP3 SWAP2 SWAP1 DUP3 SWAP1 SUB ADD DUP2 DUP7 DUP1 EXTCODESIZE ISZERO DUP1 ISZERO PUSH2 0x2C5D JUMPI PUSH1 0x0 DUP1 REVERT JUMPDEST POP GAS DELEGATECALL ISZERO DUP1 ISZERO PUSH2 0x2C71 JUMPI RETURNDATASIZE PUSH1 0x0 DUP1 RETURNDATACOPY RETURNDATASIZE PUSH1 0x0 REVERT JUMPDEST POP POP POP POP PUSH1 0x40 MLOAD RETURNDATASIZE PUSH1 0x20 DUP2 LT ISZERO PUSH2 0x2C87 JUMPI PUSH1 0x0 DUP1 REVERT JUMPDEST POP MLOAD SWAP1 POP PUSH2 0x2C95 DUP7 DUP3 PUSH2 0x1BE9 JUMP JUMPDEST POP POP POP POP POP POP JUMPDEST POP POP POP POP JUMP JUMPDEST PUSH1 0x0 PUSH2 0x2CAF DUP3 PUSH1 0x1 PUSH2 0x2CB8 JUMP JUMPDEST PUSH1 0xC0 SHR SWAP3 SWAP2 POP POP JUMP JUMPDEST PUSH1 0x0 PUSH1 0x7 DUP4 AND ISZERO PUSH2 0x2D10 JUMPI PUSH1 0x40 DUP1 MLOAD PUSH3 0x461BCD PUSH1 0xE5 SHL DUP2 MSTORE PUSH1 0x20 PUSH1 0x4 DUP3 ADD MSTORE PUSH1 0x17 PUSH1 0x24 DUP3 ADD MSTORE PUSH32 0x506F736974696F6E206973206E6F7420616C69676E6564000000000000000000 PUSH1 0x44 DUP3 ADD MSTORE SWAP1 MLOAD SWAP1 DUP2 SWAP1 SUB PUSH1 0x64 ADD SWAP1 REVERT JUMPDEST POP POP PUSH1 0x1 PUSH1 0x1 PUSH1 0x40 SHL SUB AND PUSH1 0x0 SWAP1 DUP2 MSTORE PUSH1 0x4 PUSH1 0x20 MSTORE PUSH1 0x40 SWAP1 KECCAK256 SLOAD PUSH1 0xC0 SHL SWAP1 JUMP INVALID LOG2 PUSH5 0x6970667358 0x22 SLT KECCAK256 0x49 LOG0 PUSH11 0x7E23D14AD53AA780522141 PUSH7 0x3BAACC9089C8FB DUP11 SELFDESTRUCT PUSH26 0xB0C457C250DDEB64736F6C634300070400330000000000000000 "
    },
    "gasEstimates": {
      "creation": {
        "codeDepositCost": "2324400",
        "executionCost": "2493",
        "totalCost": "2326893"
      },
      "external": {
        "externalPureMemoryWrite(uint64,bytes8)": "21291",
        "getRWIndex()": "1068",
        "htifExit()": "infinite",
        "initializeMemory(uint64[],bytes8[],bool[])": "infinite",
        "memoryRead(uint64)": "infinite",
        "memoryWrite(uint64,uint64)": "infinite",
        "readClintMtimecmp()": "infinite",
        "readHtifFromhost()": "infinite",
        "readHtifIConsole()": "infinite",
        "readHtifIHalt()": "infinite",
        "readHtifIYield()": "infinite",
        "readHtifTohost()": "infinite",
        "readIflags()": "infinite",
        "readIflagsH()": "infinite",
        "readIflagsPrv()": "infinite",
        "readIflagsX()": "infinite",
        "readIflagsY()": "infinite",
        "readIlrsc()": "infinite",
        "readMarchid()": "infinite",
        "readMcause()": "infinite",
        "readMcounteren()": "infinite",
        "readMcycle()": "infinite",
        "readMedeleg()": "infinite",
        "readMemory(uint64,uint64)": "infinite",
        "readMepc()": "infinite",
        "readMideleg()": "infinite",
        "readMie()": "infinite",
        "readMimpid()": "infinite",
        "readMinstret()": "infinite",
        "readMip()": "infinite",
        "readMisa()": "infinite",
        "readMscratch()": "infinite",
        "readMstatus()": "infinite",
        "readMtval()": "infinite",
        "readMtvec()": "infinite",
        "readMvendorid()": "infinite",
        "readPc()": "infinite",
        "readSatp()": "infinite",
        "readScause()": "infinite",
        "readScounteren()": "infinite",
        "readSepc()": "infinite",
        "readSscratch()": "infinite",
        "readStval()": "infinite",
        "readStvec()": "infinite",
        "readX(uint64)": "infinite",
        "resetMip(uint64)": "infinite",
        "setIflagsH(bool)": "infinite",
        "setIflagsX(bool)": "infinite",
        "setIflagsY(bool)": "infinite",
        "setMip(uint64)": "infinite",
        "setPriv(uint64)": "infinite",
        "writeClintMtimecmp(uint64)": "infinite",
        "writeHtifFromhost(uint64)": "infinite",
        "writeHtifTohost(uint64)": "infinite",
        "writeIflagsPrv(uint64)": "infinite",
        "writeIlrsc(uint64)": "infinite",
        "writeMcause(uint64)": "infinite",
        "writeMcounteren(uint64)": "infinite",
        "writeMcycle(uint64)": "infinite",
        "writeMedeleg(uint64)": "infinite",
        "writeMemory(uint64,uint64,uint64)": "infinite",
        "writeMepc(uint64)": "infinite",
        "writeMideleg(uint64)": "infinite",
        "writeMie(uint64)": "infinite",
        "writeMinstret(uint64)": "infinite",
        "writeMip(uint64)": "infinite",
        "writeMscratch(uint64)": "infinite",
        "writeMstatus(uint64)": "infinite",
        "writeMtval(uint64)": "infinite",
        "writeMtvec(uint64)": "infinite",
        "writePc(uint64)": "infinite",
        "writeSatp(uint64)": "infinite",
        "writeScause(uint64)": "infinite",
        "writeScounteren(uint64)": "infinite",
        "writeSepc(uint64)": "infinite",
        "writeSscratch(uint64)": "infinite",
        "writeStval(uint64)": "infinite",
        "writeStvec(uint64)": "infinite",
        "writeX(uint64,uint64)": "infinite"
      },
      "internal": {
        "memoryAccessManager(uint64,bool)": "infinite",
        "pureMemoryWrite(uint64,uint64)": "infinite"
      }
    },
    "methodIdentifiers": {
      "externalPureMemoryWrite(uint64,bytes8)": "5729e4a6",
      "getRWIndex()": "080aa5d1",
      "htifExit()": "cf187430",
      "initializeMemory(uint64[],bytes8[],bool[])": "a47594df",
      "memoryRead(uint64)": "fa644af5",
      "memoryWrite(uint64,uint64)": "8e32f35e",
      "readClintMtimecmp()": "6475e342",
      "readHtifFromhost()": "f2cf6ceb",
      "readHtifIConsole()": "b8fd205c",
      "readHtifIHalt()": "768365ea",
      "readHtifIYield()": "6f6c0e7d",
      "readHtifTohost()": "34970f18",
      "readIflags()": "c133b7ff",
      "readIflagsH()": "968644f0",
      "readIflagsPrv()": "f7ac913d",
      "readIflagsX()": "86099c54",
      "readIflagsY()": "d40d17c5",
      "readIlrsc()": "5dadd78a",
      "readMarchid()": "854dba40",
      "readMcause()": "51bb3615",
      "readMcounteren()": "9485871b",
      "readMcycle()": "daded5c2",
      "readMedeleg()": "6a72b27d",
      "readMemory(uint64,uint64)": "50cec2d5",
      "readMepc()": "1e5e6190",
      "readMideleg()": "a740dbc1",
      "readMie()": "cc92cbf7",
      "readMimpid()": "becdc10d",
      "readMinstret()": "28520b30",
      "readMip()": "a317ce9d",
      "readMisa()": "834aa4f6",
      "readMscratch()": "af63b2a8",
      "readMstatus()": "b5b98ed4",
      "readMtval()": "6cd24daf",
      "readMtvec()": "11cf3a22",
      "readMvendorid()": "5f824bf9",
      "readPc()": "650ca32b",
      "readSatp()": "1bf2f73d",
      "readScause()": "568b2702",
      "readScounteren()": "4ae9388b",
      "readSepc()": "18e504db",
      "readSscratch()": "9b7021ce",
      "readStval()": "2e963a80",
      "readStvec()": "0f84c046",
      "readX(uint64)": "6232e59c",
      "resetMip(uint64)": "15dd9c06",
      "setIflagsH(bool)": "a7458b95",
      "setIflagsX(bool)": "b27ec920",
      "setIflagsY(bool)": "3a48bb56",
      "setMip(uint64)": "45057ed7",
      "setPriv(uint64)": "54749af3",
      "writeClintMtimecmp(uint64)": "fbdb975d",
      "writeHtifFromhost(uint64)": "b2325aef",
      "writeHtifTohost(uint64)": "dd5c4a14",
      "writeIflagsPrv(uint64)": "cecdae53",
      "writeIlrsc(uint64)": "f21d94f8",
      "writeMcause(uint64)": "89365909",
      "writeMcounteren(uint64)": "2ca2bd16",
      "writeMcycle(uint64)": "5e5ca652",
      "writeMedeleg(uint64)": "575832df",
      "writeMemory(uint64,uint64,uint64)": "fd295abe",
      "writeMepc(uint64)": "28751b36",
      "writeMideleg(uint64)": "d2be7b6d",
      "writeMie(uint64)": "86676d43",
      "writeMinstret(uint64)": "10d74c7d",
      "writeMip(uint64)": "aaed4f07",
      "writeMscratch(uint64)": "0df3e295",
      "writeMstatus(uint64)": "f55c4d38",
      "writeMtval(uint64)": "f604edb8",
      "writeMtvec(uint64)": "9c872d02",
      "writePc(uint64)": "f9911587",
      "writeSatp(uint64)": "ab9779b7",
      "writeScause(uint64)": "78c49574",
      "writeScounteren(uint64)": "78ddee75",
      "writeSepc(uint64)": "57907837",
      "writeSscratch(uint64)": "5af47ca7",
      "writeStval(uint64)": "9c7b005d",
      "writeStvec(uint64)": "cbc446b1",
      "writeX(uint64,uint64)": "6dc95c2e"
    }
  },
  "storageLayout": {
    "storage": [
      {
        "astId": 5841,
        "contract": "contracts/TestMemoryInteractor.sol:TestMemoryInteractor",
        "label": "rwIndex",
        "offset": 0,
        "slot": "0",
        "type": "t_uint256"
      },
      {
        "astId": 5844,
        "contract": "contracts/TestMemoryInteractor.sol:TestMemoryInteractor",
        "label": "rwPositions",
        "offset": 0,
        "slot": "1",
        "type": "t_array(t_uint64)dyn_storage"
      },
      {
        "astId": 5847,
        "contract": "contracts/TestMemoryInteractor.sol:TestMemoryInteractor",
        "label": "rwValues",
        "offset": 0,
        "slot": "2",
        "type": "t_array(t_bytes8)dyn_storage"
      },
      {
        "astId": 5850,
        "contract": "contracts/TestMemoryInteractor.sol:TestMemoryInteractor",
        "label": "isRead",
        "offset": 0,
        "slot": "3",
        "type": "t_array(t_bool)dyn_storage"
      },
      {
        "astId": 14518,
        "contract": "contracts/TestMemoryInteractor.sol:TestMemoryInteractor",
        "label": "ram",
        "offset": 0,
        "slot": "4",
        "type": "t_mapping(t_uint64,t_bytes8)"
      }
    ],
    "types": {
      "t_array(t_bool)dyn_storage": {
        "base": "t_bool",
        "encoding": "dynamic_array",
        "label": "bool[]",
        "numberOfBytes": "32"
      },
      "t_array(t_bytes8)dyn_storage": {
        "base": "t_bytes8",
        "encoding": "dynamic_array",
        "label": "bytes8[]",
        "numberOfBytes": "32"
      },
      "t_array(t_uint64)dyn_storage": {
        "base": "t_uint64",
        "encoding": "dynamic_array",
        "label": "uint64[]",
        "numberOfBytes": "32"
      },
      "t_bool": {
        "encoding": "inplace",
        "label": "bool",
        "numberOfBytes": "1"
      },
      "t_bytes8": {
        "encoding": "inplace",
        "label": "bytes8",
        "numberOfBytes": "8"
      },
      "t_mapping(t_uint64,t_bytes8)": {
        "encoding": "mapping",
        "key": "t_uint64",
        "label": "mapping(uint64 => bytes8)",
        "numberOfBytes": "32",
        "value": "t_bytes8"
      },
      "t_uint256": {
        "encoding": "inplace",
        "label": "uint256",
        "numberOfBytes": "32"
      },
      "t_uint64": {
        "encoding": "inplace",
        "label": "uint64",
        "numberOfBytes": "8"
      }
    }
  },
  "userdoc": {
    "kind": "user",
    "methods": {
      "htifExit()": {
        "notice": "Perform a read in HTIF to get the arbitrary exit code"
      }
    },
    "notice": "A mock memory interactor for running test_ram.py",
    "version": 1
  }
}