{
  "address": "0xB934EF6130E70515d63Ec880933b09030337a5a0",
  "abi": [
    {
      "inputs": [
        {
          "internalType": "uint32",
          "name": "v",
          "type": "uint32"
        }
      ],
      "name": "ilog2",
      "outputs": [
        {
          "internalType": "uint64",
          "name": "",
          "type": "uint64"
        }
      ],
      "stateMutability": "pure",
      "type": "function"
    }
  ],
  "transactionHash": "0x4dcdc796dc0de689c7e63e795d18d0ffe45552f4b5438aa648484dbe1545802e",
  "args": [],
  "solcInputHash": "cacea020086e46d19bd052f6c12f6e45",
  "bytecode": "0x610b0a610026600b82828239805160001a60731461001957fe5b30600052607381538281f3fe730000000000000000000000000000000000000000301460806040526004361061004b5760003560e01c8063087426fd14610050578063cbe611b214610095578063ef86c614146100c8575b600080fd5b81801561005c57600080fd5b506100936004803603604081101561007357600080fd5b5080356001600160a01b0316906020013567ffffffffffffffff16610108565b005b8180156100a157600080fd5b50610093600480360360208110156100b857600080fd5b50356001600160a01b0316610413565b6100eb600480360360208110156100de57600080fd5b503563ffffffff1661053e565b6040805167ffffffffffffffff9092168252519081900360200190f35b73c353f5d3C6Eb753b36F8FBd3Dd06F9F185fFED9e63c3965d97826040518263ffffffff1660e01b8152600401808267ffffffffffffffff16815260200191505060206040518083038186803b15801561016157600080fd5b505af4158015610175573d6000803e3d6000fd5b505050506040513d602081101561018b57600080fd5b50511561040f576000826001600160a01b0316636475e3426040518163ffffffff1660e01b8152600401602060405180830381600087803b1580156101cf57600080fd5b505af11580156101e3573d6000803e3d6000fd5b505050506040513d60208110156101f957600080fd5b50516040805163345e952b60e11b815267ffffffffffffffff83166004820152905191925060009173c353f5d3C6Eb753b36F8FBd3Dd06F9F185fFED9e916368bd2a56916024808301926020929190829003018186803b15801561025c57600080fd5b505af4158015610270573d6000803e3d6000fd5b505050506040513d602081101561028657600080fd5b5051905067ffffffffffffffff808416908216118015906102b0575067ffffffffffffffff811615155b1561040c576000846001600160a01b031663a317ce9d6040518163ffffffff1660e01b8152600401602060405180830381600087803b1580156102f257600080fd5b505af1158015610306573d6000803e3d6000fd5b505050506040513d602081101561031c57600080fd5b5051604080516362491af560e11b815290519192506001600160a01b0387169163aaed4f079173A41fa98448A22491d1aDDc6D20e4404214e1CB2E9163c49235ea91600480820192602092909190829003018186803b15801561037e57600080fd5b505af4158015610392573d6000803e3d6000fd5b505050506040513d60208110156103a857600080fd5b50516040805160e084901b6001600160e01b031916815291851767ffffffffffffffff16600483015251602480830192600092919082900301818387803b1580156103f257600080fd5b505af1158015610406573d6000803e3d6000fd5b50505050505b50505b5050565b600061041e82610570565b905063ffffffff81161561040f5760006104378261053e565b90507330D58DA6e75FAA3F5E408170e9b2599eef0f56E6630b2c7009847330D58DA6e75FAA3F5E408170e9b2599eef0f56E663883d4fb06040518163ffffffff1660e01b815260040160206040518083038186803b15801561049857600080fd5b505af41580156104ac573d6000803e3d6000fd5b505050506040513d60208110156104c257600080fd5b50516040805160e085901b6001600160e01b03191681526001600160a01b0393909316600484015290851767ffffffffffffffff1660248301526000604483018190529051606480840193829003018186803b15801561052157600080fd5b505af4158015610535573d6000803e3d6000fd5b50505050505050565b600060205b63ffffffff8316156105655760019290921c637fffffff169160001901610543565b601f0390505b919050565b600080826001600160a01b031663a317ce9d6040518163ffffffff1660e01b8152600401602060405180830381600087803b1580156105ae57600080fd5b505af11580156105c2573d6000803e3d6000fd5b505050506040513d60208110156105d857600080fd5b50516040805163cc92cbf760e01b815290519192506000916001600160a01b0386169163cc92cbf791600480830192602092919082900301818787803b15801561062157600080fd5b505af1158015610635573d6000803e3d6000fd5b505050506040513d602081101561064b57600080fd5b5051905081811663ffffffff8116610669576000935050505061056b565b6000806000876001600160a01b031663f7ac913d6040518163ffffffff1660e01b8152600401602060405180830381600087803b1580156106a957600080fd5b505af11580156106bd573d6000803e3d6000fd5b505050506040513d60208110156106d357600080fd5b50516040805163cf7ecf7960e01b8152905191925073A41fa98448A22491d1aDDc6D20e4404214e1CB2E9163cf7ecf7991600480820192602092909190829003018186803b15801561072457600080fd5b505af4158015610738573d6000803e3d6000fd5b505050506040513d602081101561074e57600080fd5b505167ffffffffffffffff828116911614156108c757876001600160a01b031663b5b98ed46040518163ffffffff1660e01b8152600401602060405180830381600087803b15801561079f57600080fd5b505af11580156107b3573d6000803e3d6000fd5b505050506040513d60208110156107c957600080fd5b505160408051633cbc879360e21b8152905191945073A41fa98448A22491d1aDDc6D20e4404214e1CB2E9163f2f21e4c91600480820192602092909190829003018186803b15801561081a57600080fd5b505af415801561082e573d6000803e3d6000fd5b505050506040513d602081101561084457600080fd5b5051831667ffffffffffffffff16156108c257876001600160a01b031663a740dbc16040518163ffffffff1660e01b8152600401602060405180830381600087803b15801561089257600080fd5b505af11580156108a6573d6000803e3d6000fd5b505050506040513d60208110156108bc57600080fd5b50511991505b610ac6565b73A41fa98448A22491d1aDDc6D20e4404214e1CB2E63026797d96040518163ffffffff1660e01b815260040160206040518083038186803b15801561090b57600080fd5b505af415801561091f573d6000803e3d6000fd5b505050506040513d602081101561093557600080fd5b505167ffffffffffffffff82811691161415610ac057876001600160a01b031663b5b98ed46040518163ffffffff1660e01b8152600401602060405180830381600087803b15801561098657600080fd5b505af115801561099a573d6000803e3d6000fd5b505050506040513d60208110156109b057600080fd5b50516040805163a740dbc160e01b815290519194506000916001600160a01b038b169163a740dbc191600480830192602092919082900301818787803b1580156109f957600080fd5b505af1158015610a0d573d6000803e3d6000fd5b505050506040513d6020811015610a2357600080fd5b50516040805163594dc37360e01b815290518219955091925073A41fa98448A22491d1aDDc6D20e4404214e1CB2E9163594dc37391600480820192602092909190829003018186803b158015610a7857600080fd5b505af4158015610a8c573d6000803e3d6000fd5b505050506040513d6020811015610aa257600080fd5b5051841667ffffffffffffffff1615610aba57918217915b50610ac6565b60001991505b50919091169594505050505056fea2646970667358221220da4608c2ec602ce4e2b3accd52bd9adcb74f432133f29b1872cf77afa527a1a564736f6c63430007040033",
  "deployedBytecode": "0x730000000000000000000000000000000000000000301460806040526004361061004b5760003560e01c8063087426fd14610050578063cbe611b214610095578063ef86c614146100c8575b600080fd5b81801561005c57600080fd5b506100936004803603604081101561007357600080fd5b5080356001600160a01b0316906020013567ffffffffffffffff16610108565b005b8180156100a157600080fd5b50610093600480360360208110156100b857600080fd5b50356001600160a01b0316610413565b6100eb600480360360208110156100de57600080fd5b503563ffffffff1661053e565b6040805167ffffffffffffffff9092168252519081900360200190f35b73__$b9271eb2291c300ff9debb50e0e3ab0f42$__63c3965d97826040518263ffffffff1660e01b8152600401808267ffffffffffffffff16815260200191505060206040518083038186803b15801561016157600080fd5b505af4158015610175573d6000803e3d6000fd5b505050506040513d602081101561018b57600080fd5b50511561040f576000826001600160a01b0316636475e3426040518163ffffffff1660e01b8152600401602060405180830381600087803b1580156101cf57600080fd5b505af11580156101e3573d6000803e3d6000fd5b505050506040513d60208110156101f957600080fd5b50516040805163345e952b60e11b815267ffffffffffffffff83166004820152905191925060009173__$b9271eb2291c300ff9debb50e0e3ab0f42$__916368bd2a56916024808301926020929190829003018186803b15801561025c57600080fd5b505af4158015610270573d6000803e3d6000fd5b505050506040513d602081101561028657600080fd5b5051905067ffffffffffffffff808416908216118015906102b0575067ffffffffffffffff811615155b1561040c576000846001600160a01b031663a317ce9d6040518163ffffffff1660e01b8152600401602060405180830381600087803b1580156102f257600080fd5b505af1158015610306573d6000803e3d6000fd5b505050506040513d602081101561031c57600080fd5b5051604080516362491af560e11b815290519192506001600160a01b0387169163aaed4f079173__$6af7953b03ecb3cadd1ca9bb3675b9b8d6$__9163c49235ea91600480820192602092909190829003018186803b15801561037e57600080fd5b505af4158015610392573d6000803e3d6000fd5b505050506040513d60208110156103a857600080fd5b50516040805160e084901b6001600160e01b031916815291851767ffffffffffffffff16600483015251602480830192600092919082900301818387803b1580156103f257600080fd5b505af1158015610406573d6000803e3d6000fd5b50505050505b50505b5050565b600061041e82610570565b905063ffffffff81161561040f5760006104378261053e565b905073__$7a619e2484503bc317a624d2cc621a55c4$__630b2c70098473__$7a619e2484503bc317a624d2cc621a55c4$__63883d4fb06040518163ffffffff1660e01b815260040160206040518083038186803b15801561049857600080fd5b505af41580156104ac573d6000803e3d6000fd5b505050506040513d60208110156104c257600080fd5b50516040805160e085901b6001600160e01b03191681526001600160a01b0393909316600484015290851767ffffffffffffffff1660248301526000604483018190529051606480840193829003018186803b15801561052157600080fd5b505af4158015610535573d6000803e3d6000fd5b50505050505050565b600060205b63ffffffff8316156105655760019290921c637fffffff169160001901610543565b601f0390505b919050565b600080826001600160a01b031663a317ce9d6040518163ffffffff1660e01b8152600401602060405180830381600087803b1580156105ae57600080fd5b505af11580156105c2573d6000803e3d6000fd5b505050506040513d60208110156105d857600080fd5b50516040805163cc92cbf760e01b815290519192506000916001600160a01b0386169163cc92cbf791600480830192602092919082900301818787803b15801561062157600080fd5b505af1158015610635573d6000803e3d6000fd5b505050506040513d602081101561064b57600080fd5b5051905081811663ffffffff8116610669576000935050505061056b565b6000806000876001600160a01b031663f7ac913d6040518163ffffffff1660e01b8152600401602060405180830381600087803b1580156106a957600080fd5b505af11580156106bd573d6000803e3d6000fd5b505050506040513d60208110156106d357600080fd5b50516040805163cf7ecf7960e01b8152905191925073__$6af7953b03ecb3cadd1ca9bb3675b9b8d6$__9163cf7ecf7991600480820192602092909190829003018186803b15801561072457600080fd5b505af4158015610738573d6000803e3d6000fd5b505050506040513d602081101561074e57600080fd5b505167ffffffffffffffff828116911614156108c757876001600160a01b031663b5b98ed46040518163ffffffff1660e01b8152600401602060405180830381600087803b15801561079f57600080fd5b505af11580156107b3573d6000803e3d6000fd5b505050506040513d60208110156107c957600080fd5b505160408051633cbc879360e21b8152905191945073__$6af7953b03ecb3cadd1ca9bb3675b9b8d6$__9163f2f21e4c91600480820192602092909190829003018186803b15801561081a57600080fd5b505af415801561082e573d6000803e3d6000fd5b505050506040513d602081101561084457600080fd5b5051831667ffffffffffffffff16156108c257876001600160a01b031663a740dbc16040518163ffffffff1660e01b8152600401602060405180830381600087803b15801561089257600080fd5b505af11580156108a6573d6000803e3d6000fd5b505050506040513d60208110156108bc57600080fd5b50511991505b610ac6565b73__$6af7953b03ecb3cadd1ca9bb3675b9b8d6$__63026797d96040518163ffffffff1660e01b815260040160206040518083038186803b15801561090b57600080fd5b505af415801561091f573d6000803e3d6000fd5b505050506040513d602081101561093557600080fd5b505167ffffffffffffffff82811691161415610ac057876001600160a01b031663b5b98ed46040518163ffffffff1660e01b8152600401602060405180830381600087803b15801561098657600080fd5b505af115801561099a573d6000803e3d6000fd5b505050506040513d60208110156109b057600080fd5b50516040805163a740dbc160e01b815290519194506000916001600160a01b038b169163a740dbc191600480830192602092919082900301818787803b1580156109f957600080fd5b505af1158015610a0d573d6000803e3d6000fd5b505050506040513d6020811015610a2357600080fd5b50516040805163594dc37360e01b815290518219955091925073__$6af7953b03ecb3cadd1ca9bb3675b9b8d6$__9163594dc37391600480820192602092909190829003018186803b158015610a7857600080fd5b505af4158015610a8c573d6000803e3d6000fd5b505050506040513d6020811015610aa257600080fd5b5051841667ffffffffffffffff1615610aba57918217915b50610ac6565b60001991505b50919091169594505050505056fea2646970667358221220da4608c2ec602ce4e2b3accd52bd9adcb74f432133f29b1872cf77afa527a1a564736f6c63430007040033",
  "libraries": {
    "RiscVConstants": "0xA41fa98448A22491d1aDDc6D20e4404214e1CB2E",
    "ShadowAddresses": "0x665a6a7b86bB63EAA1AcCED021D64B121eE63D77",
    "Exceptions": "0x30D58DA6e75FAA3F5E408170e9b2599eef0f56E6",
    "RealTimeClock": "0xc353f5d3C6Eb753b36F8FBd3Dd06F9F185fFED9e"
  },
  "devdoc": {
    "author": "Felipe Argento",
    "kind": "dev",
    "methods": {
      "raiseInterruptIfAny(MemoryInteractor)": {
        "params": {
          "mi": "Memory Interactor with which Step function is interacting."
        }
      },
      "setRtcInterrupt(MemoryInteractor,uint64)": {
        "params": {
          "mi": "Memory Interactor with which Step function is interacting."
        }
      }
    },
    "title": "Interrupts",
    "version": 1
  },
  "userdoc": {
    "kind": "user",
    "methods": {
      "raiseInterruptIfAny(MemoryInteractor)": {
        "notice": "Raises an interrupt if any are enabled and pending."
      },
      "setRtcInterrupt(MemoryInteractor,uint64)": {
        "notice": "At every tick, set interrupt as pending if the timer is expired"
      }
    },
    "notice": "Implements interrupt behaviour",
    "version": 1
  },
  "storageLayout": {
    "storage": [],
    "types": null
  }
}