{
  "address": "0xA3355eAff2feE04FB4E3dE9a90e469784F1dDAFe",
  "abi": [
    {
      "inputs": [],
      "name": "getRWIndex",
      "outputs": [
        {
          "internalType": "uint256",
          "name": "",
          "type": "uint256"
        }
      ],
      "stateMutability": "view",
      "type": "function"
    },
    {
      "inputs": [
        {
          "internalType": "uint64[]",
          "name": "_rwPositions",
          "type": "uint64[]"
        },
        {
          "internalType": "bytes8[]",
          "name": "_rwValues",
          "type": "bytes8[]"
        },
        {
          "internalType": "bool[]",
          "name": "_isRead",
          "type": "bool[]"
        }
      ],
      "name": "initializeMemory",
      "outputs": [],
      "stateMutability": "nonpayable",
      "type": "function"
    },
    {
      "inputs": [
        {
          "internalType": "uint64",
          "name": "_readAddress",
          "type": "uint64"
        }
      ],
      "name": "memoryRead",
      "outputs": [
        {
          "internalType": "uint64",
          "name": "",
          "type": "uint64"
        }
      ],
      "stateMutability": "nonpayable",
      "type": "function"
    },
    {
      "inputs": [
        {
          "internalType": "uint64",
          "name": "_writeAddress",
          "type": "uint64"
        },
        {
          "internalType": "uint64",
          "name": "_value",
          "type": "uint64"
        }
      ],
      "name": "memoryWrite",
      "outputs": [],
      "stateMutability": "nonpayable",
      "type": "function"
    },
    {
      "inputs": [],
      "name": "readClintMtimecmp",
      "outputs": [
        {
          "internalType": "uint64",
          "name": "",
          "type": "uint64"
        }
      ],
      "stateMutability": "nonpayable",
      "type": "function"
    },
    {
      "inputs": [],
      "name": "readHtifFromhost",
      "outputs": [
        {
          "internalType": "uint64",
          "name": "",
          "type": "uint64"
        }
      ],
      "stateMutability": "nonpayable",
      "type": "function"
    },
    {
      "inputs": [],
      "name": "readHtifIYield",
      "outputs": [
        {
          "internalType": "uint64",
          "name": "",
          "type": "uint64"
        }
      ],
      "stateMutability": "nonpayable",
      "type": "function"
    },
    {
      "inputs": [],
      "name": "readHtifTohost",
      "outputs": [
        {
          "internalType": "uint64",
          "name": "",
          "type": "uint64"
        }
      ],
      "stateMutability": "nonpayable",
      "type": "function"
    },
    {
      "inputs": [],
      "name": "readIflags",
      "outputs": [
        {
          "internalType": "uint64",
          "name": "",
          "type": "uint64"
        }
      ],
      "stateMutability": "nonpayable",
      "type": "function"
    },
    {
      "inputs": [],
      "name": "readIflagsH",
      "outputs": [
        {
          "internalType": "uint64",
          "name": "",
          "type": "uint64"
        }
      ],
      "stateMutability": "nonpayable",
      "type": "function"
    },
    {
      "inputs": [],
      "name": "readIflagsPrv",
      "outputs": [
        {
          "internalType": "uint64",
          "name": "",
          "type": "uint64"
        }
      ],
      "stateMutability": "nonpayable",
      "type": "function"
    },
    {
      "inputs": [],
      "name": "readIflagsY",
      "outputs": [
        {
          "internalType": "uint64",
          "name": "",
          "type": "uint64"
        }
      ],
      "stateMutability": "nonpayable",
      "type": "function"
    },
    {
      "inputs": [],
      "name": "readIlrsc",
      "outputs": [
        {
          "internalType": "uint64",
          "name": "",
          "type": "uint64"
        }
      ],
      "stateMutability": "nonpayable",
      "type": "function"
    },
    {
      "inputs": [],
      "name": "readMarchid",
      "outputs": [
        {
          "internalType": "uint64",
          "name": "",
          "type": "uint64"
        }
      ],
      "stateMutability": "nonpayable",
      "type": "function"
    },
    {
      "inputs": [],
      "name": "readMcause",
      "outputs": [
        {
          "internalType": "uint64",
          "name": "",
          "type": "uint64"
        }
      ],
      "stateMutability": "nonpayable",
      "type": "function"
    },
    {
      "inputs": [],
      "name": "readMcounteren",
      "outputs": [
        {
          "internalType": "uint64",
          "name": "",
          "type": "uint64"
        }
      ],
      "stateMutability": "nonpayable",
      "type": "function"
    },
    {
      "inputs": [],
      "name": "readMcycle",
      "outputs": [
        {
          "internalType": "uint64",
          "name": "",
          "type": "uint64"
        }
      ],
      "stateMutability": "nonpayable",
      "type": "function"
    },
    {
      "inputs": [],
      "name": "readMedeleg",
      "outputs": [
        {
          "internalType": "uint64",
          "name": "",
          "type": "uint64"
        }
      ],
      "stateMutability": "nonpayable",
      "type": "function"
    },
    {
      "inputs": [
        {
          "internalType": "uint64",
          "name": "paddr",
          "type": "uint64"
        },
        {
          "internalType": "uint64",
          "name": "wordSize",
          "type": "uint64"
        }
      ],
      "name": "readMemory",
      "outputs": [
        {
          "internalType": "uint64",
          "name": "",
          "type": "uint64"
        }
      ],
      "stateMutability": "nonpayable",
      "type": "function"
    },
    {
      "inputs": [],
      "name": "readMepc",
      "outputs": [
        {
          "internalType": "uint64",
          "name": "",
          "type": "uint64"
        }
      ],
      "stateMutability": "nonpayable",
      "type": "function"
    },
    {
      "inputs": [],
      "name": "readMideleg",
      "outputs": [
        {
          "internalType": "uint64",
          "name": "",
          "type": "uint64"
        }
      ],
      "stateMutability": "nonpayable",
      "type": "function"
    },
    {
      "inputs": [],
      "name": "readMie",
      "outputs": [
        {
          "internalType": "uint64",
          "name": "",
          "type": "uint64"
        }
      ],
      "stateMutability": "nonpayable",
      "type": "function"
    },
    {
      "inputs": [],
      "name": "readMimpid",
      "outputs": [
        {
          "internalType": "uint64",
          "name": "",
          "type": "uint64"
        }
      ],
      "stateMutability": "nonpayable",
      "type": "function"
    },
    {
      "inputs": [],
      "name": "readMinstret",
      "outputs": [
        {
          "internalType": "uint64",
          "name": "",
          "type": "uint64"
        }
      ],
      "stateMutability": "nonpayable",
      "type": "function"
    },
    {
      "inputs": [],
      "name": "readMip",
      "outputs": [
        {
          "internalType": "uint64",
          "name": "",
          "type": "uint64"
        }
      ],
      "stateMutability": "nonpayable",
      "type": "function"
    },
    {
      "inputs": [],
      "name": "readMisa",
      "outputs": [
        {
          "internalType": "uint64",
          "name": "",
          "type": "uint64"
        }
      ],
      "stateMutability": "nonpayable",
      "type": "function"
    },
    {
      "inputs": [],
      "name": "readMscratch",
      "outputs": [
        {
          "internalType": "uint64",
          "name": "",
          "type": "uint64"
        }
      ],
      "stateMutability": "nonpayable",
      "type": "function"
    },
    {
      "inputs": [],
      "name": "readMstatus",
      "outputs": [
        {
          "internalType": "uint64",
          "name": "",
          "type": "uint64"
        }
      ],
      "stateMutability": "nonpayable",
      "type": "function"
    },
    {
      "inputs": [],
      "name": "readMtval",
      "outputs": [
        {
          "internalType": "uint64",
          "name": "",
          "type": "uint64"
        }
      ],
      "stateMutability": "nonpayable",
      "type": "function"
    },
    {
      "inputs": [],
      "name": "readMtvec",
      "outputs": [
        {
          "internalType": "uint64",
          "name": "",
          "type": "uint64"
        }
      ],
      "stateMutability": "nonpayable",
      "type": "function"
    },
    {
      "inputs": [],
      "name": "readMvendorid",
      "outputs": [
        {
          "internalType": "uint64",
          "name": "",
          "type": "uint64"
        }
      ],
      "stateMutability": "nonpayable",
      "type": "function"
    },
    {
      "inputs": [],
      "name": "readPc",
      "outputs": [
        {
          "internalType": "uint64",
          "name": "",
          "type": "uint64"
        }
      ],
      "stateMutability": "nonpayable",
      "type": "function"
    },
    {
      "inputs": [],
      "name": "readSatp",
      "outputs": [
        {
          "internalType": "uint64",
          "name": "",
          "type": "uint64"
        }
      ],
      "stateMutability": "nonpayable",
      "type": "function"
    },
    {
      "inputs": [],
      "name": "readScause",
      "outputs": [
        {
          "internalType": "uint64",
          "name": "",
          "type": "uint64"
        }
      ],
      "stateMutability": "nonpayable",
      "type": "function"
    },
    {
      "inputs": [],
      "name": "readScounteren",
      "outputs": [
        {
          "internalType": "uint64",
          "name": "",
          "type": "uint64"
        }
      ],
      "stateMutability": "nonpayable",
      "type": "function"
    },
    {
      "inputs": [],
      "name": "readSepc",
      "outputs": [
        {
          "internalType": "uint64",
          "name": "",
          "type": "uint64"
        }
      ],
      "stateMutability": "nonpayable",
      "type": "function"
    },
    {
      "inputs": [],
      "name": "readSscratch",
      "outputs": [
        {
          "internalType": "uint64",
          "name": "",
          "type": "uint64"
        }
      ],
      "stateMutability": "nonpayable",
      "type": "function"
    },
    {
      "inputs": [],
      "name": "readStval",
      "outputs": [
        {
          "internalType": "uint64",
          "name": "",
          "type": "uint64"
        }
      ],
      "stateMutability": "nonpayable",
      "type": "function"
    },
    {
      "inputs": [],
      "name": "readStvec",
      "outputs": [
        {
          "internalType": "uint64",
          "name": "",
          "type": "uint64"
        }
      ],
      "stateMutability": "nonpayable",
      "type": "function"
    },
    {
      "inputs": [
        {
          "internalType": "uint64",
          "name": "registerIndex",
          "type": "uint64"
        }
      ],
      "name": "readX",
      "outputs": [
        {
          "internalType": "uint64",
          "name": "",
          "type": "uint64"
        }
      ],
      "stateMutability": "nonpayable",
      "type": "function"
    },
    {
      "inputs": [
        {
          "internalType": "uint64",
          "name": "mask",
          "type": "uint64"
        }
      ],
      "name": "resetMip",
      "outputs": [],
      "stateMutability": "nonpayable",
      "type": "function"
    },
    {
      "inputs": [
        {
          "internalType": "bool",
          "name": "halt",
          "type": "bool"
        }
      ],
      "name": "setIflagsH",
      "outputs": [],
      "stateMutability": "nonpayable",
      "type": "function"
    },
    {
      "inputs": [
        {
          "internalType": "bool",
          "name": "idle",
          "type": "bool"
        }
      ],
      "name": "setIflagsI",
      "outputs": [],
      "stateMutability": "nonpayable",
      "type": "function"
    },
    {
      "inputs": [
        {
          "internalType": "bool",
          "name": "isYield",
          "type": "bool"
        }
      ],
      "name": "setIflagsY",
      "outputs": [],
      "stateMutability": "nonpayable",
      "type": "function"
    },
    {
      "inputs": [
        {
          "internalType": "uint64",
          "name": "mask",
          "type": "uint64"
        }
      ],
      "name": "setMip",
      "outputs": [],
      "stateMutability": "nonpayable",
      "type": "function"
    },
    {
      "inputs": [
        {
          "internalType": "uint64",
          "name": "newPriv",
          "type": "uint64"
        }
      ],
      "name": "setPriv",
      "outputs": [],
      "stateMutability": "nonpayable",
      "type": "function"
    },
    {
      "inputs": [
        {
          "internalType": "uint64",
          "name": "value",
          "type": "uint64"
        }
      ],
      "name": "writeClintMtimecmp",
      "outputs": [],
      "stateMutability": "nonpayable",
      "type": "function"
    },
    {
      "inputs": [
        {
          "internalType": "uint64",
          "name": "value",
          "type": "uint64"
        }
      ],
      "name": "writeHtifFromhost",
      "outputs": [],
      "stateMutability": "nonpayable",
      "type": "function"
    },
    {
      "inputs": [
        {
          "internalType": "uint64",
          "name": "value",
          "type": "uint64"
        }
      ],
      "name": "writeHtifTohost",
      "outputs": [],
      "stateMutability": "nonpayable",
      "type": "function"
    },
    {
      "inputs": [
        {
          "internalType": "uint64",
          "name": "newPriv",
          "type": "uint64"
        }
      ],
      "name": "writeIflagsPrv",
      "outputs": [],
      "stateMutability": "nonpayable",
      "type": "function"
    },
    {
      "inputs": [
        {
          "internalType": "uint64",
          "name": "value",
          "type": "uint64"
        }
      ],
      "name": "writeIlrsc",
      "outputs": [],
      "stateMutability": "nonpayable",
      "type": "function"
    },
    {
      "inputs": [
        {
          "internalType": "uint64",
          "name": "value",
          "type": "uint64"
        }
      ],
      "name": "writeMcause",
      "outputs": [],
      "stateMutability": "nonpayable",
      "type": "function"
    },
    {
      "inputs": [
        {
          "internalType": "uint64",
          "name": "value",
          "type": "uint64"
        }
      ],
      "name": "writeMcounteren",
      "outputs": [],
      "stateMutability": "nonpayable",
      "type": "function"
    },
    {
      "inputs": [
        {
          "internalType": "uint64",
          "name": "value",
          "type": "uint64"
        }
      ],
      "name": "writeMcycle",
      "outputs": [],
      "stateMutability": "nonpayable",
      "type": "function"
    },
    {
      "inputs": [
        {
          "internalType": "uint64",
          "name": "value",
          "type": "uint64"
        }
      ],
      "name": "writeMedeleg",
      "outputs": [],
      "stateMutability": "nonpayable",
      "type": "function"
    },
    {
      "inputs": [
        {
          "internalType": "uint64",
          "name": "paddr",
          "type": "uint64"
        },
        {
          "internalType": "uint64",
          "name": "value",
          "type": "uint64"
        },
        {
          "internalType": "uint64",
          "name": "wordSize",
          "type": "uint64"
        }
      ],
      "name": "writeMemory",
      "outputs": [],
      "stateMutability": "nonpayable",
      "type": "function"
    },
    {
      "inputs": [
        {
          "internalType": "uint64",
          "name": "value",
          "type": "uint64"
        }
      ],
      "name": "writeMepc",
      "outputs": [],
      "stateMutability": "nonpayable",
      "type": "function"
    },
    {
      "inputs": [
        {
          "internalType": "uint64",
          "name": "value",
          "type": "uint64"
        }
      ],
      "name": "writeMideleg",
      "outputs": [],
      "stateMutability": "nonpayable",
      "type": "function"
    },
    {
      "inputs": [
        {
          "internalType": "uint64",
          "name": "value",
          "type": "uint64"
        }
      ],
      "name": "writeMie",
      "outputs": [],
      "stateMutability": "nonpayable",
      "type": "function"
    },
    {
      "inputs": [
        {
          "internalType": "uint64",
          "name": "value",
          "type": "uint64"
        }
      ],
      "name": "writeMinstret",
      "outputs": [],
      "stateMutability": "nonpayable",
      "type": "function"
    },
    {
      "inputs": [
        {
          "internalType": "uint64",
          "name": "value",
          "type": "uint64"
        }
      ],
      "name": "writeMip",
      "outputs": [],
      "stateMutability": "nonpayable",
      "type": "function"
    },
    {
      "inputs": [
        {
          "internalType": "uint64",
          "name": "value",
          "type": "uint64"
        }
      ],
      "name": "writeMscratch",
      "outputs": [],
      "stateMutability": "nonpayable",
      "type": "function"
    },
    {
      "inputs": [
        {
          "internalType": "uint64",
          "name": "value",
          "type": "uint64"
        }
      ],
      "name": "writeMstatus",
      "outputs": [],
      "stateMutability": "nonpayable",
      "type": "function"
    },
    {
      "inputs": [
        {
          "internalType": "uint64",
          "name": "value",
          "type": "uint64"
        }
      ],
      "name": "writeMtval",
      "outputs": [],
      "stateMutability": "nonpayable",
      "type": "function"
    },
    {
      "inputs": [
        {
          "internalType": "uint64",
          "name": "value",
          "type": "uint64"
        }
      ],
      "name": "writeMtvec",
      "outputs": [],
      "stateMutability": "nonpayable",
      "type": "function"
    },
    {
      "inputs": [
        {
          "internalType": "uint64",
          "name": "value",
          "type": "uint64"
        }
      ],
      "name": "writePc",
      "outputs": [],
      "stateMutability": "nonpayable",
      "type": "function"
    },
    {
      "inputs": [
        {
          "internalType": "uint64",
          "name": "value",
          "type": "uint64"
        }
      ],
      "name": "writeSatp",
      "outputs": [],
      "stateMutability": "nonpayable",
      "type": "function"
    },
    {
      "inputs": [
        {
          "internalType": "uint64",
          "name": "value",
          "type": "uint64"
        }
      ],
      "name": "writeScause",
      "outputs": [],
      "stateMutability": "nonpayable",
      "type": "function"
    },
    {
      "inputs": [
        {
          "internalType": "uint64",
          "name": "value",
          "type": "uint64"
        }
      ],
      "name": "writeScounteren",
      "outputs": [],
      "stateMutability": "nonpayable",
      "type": "function"
    },
    {
      "inputs": [
        {
          "internalType": "uint64",
          "name": "value",
          "type": "uint64"
        }
      ],
      "name": "writeSepc",
      "outputs": [],
      "stateMutability": "nonpayable",
      "type": "function"
    },
    {
      "inputs": [
        {
          "internalType": "uint64",
          "name": "value",
          "type": "uint64"
        }
      ],
      "name": "writeSscratch",
      "outputs": [],
      "stateMutability": "nonpayable",
      "type": "function"
    },
    {
      "inputs": [
        {
          "internalType": "uint64",
          "name": "value",
          "type": "uint64"
        }
      ],
      "name": "writeStval",
      "outputs": [],
      "stateMutability": "nonpayable",
      "type": "function"
    },
    {
      "inputs": [
        {
          "internalType": "uint64",
          "name": "value",
          "type": "uint64"
        }
      ],
      "name": "writeStvec",
      "outputs": [],
      "stateMutability": "nonpayable",
      "type": "function"
    },
    {
      "inputs": [
        {
          "internalType": "uint64",
          "name": "registerindex",
          "type": "uint64"
        },
        {
          "internalType": "uint64",
          "name": "value",
          "type": "uint64"
        }
      ],
      "name": "writeX",
      "outputs": [],
      "stateMutability": "nonpayable",
      "type": "function"
    }
  ],
  "transactionHash": "0x4ce833601d7dda75529f0b9b239d2f438b1d254a97a797ce54c93bed95b414a8",
  "args": [],
  "solcInputHash": "4ab6a1e1786521c94a86efcef741c284",
  "bytecode": "0x608060405234801561001057600080fd5b50612e83806100206000396000f3fe608060405234801561001057600080fd5b506004361061043e5760003560e01c8063834aa4f611610236578063b5b98ed41161013b578063dd5c4a14116100c3578063f7ac913d11610087578063f7ac913d14610c3d578063f991158714610c45578063fa644af514610c6b578063fbdb975d14610c91578063fd295abe14610cb75761043e565b8063dd5c4a1414610b9d578063f21d94f814610bc3578063f2cf6ceb14610be9578063f55c4d3814610bf1578063f604edb814610c175761043e565b8063cc92cbf71161010a578063cc92cbf714610b39578063cecdae5314610b41578063d2be7b6d14610b67578063d40d17c514610b8d578063daded5c214610b955761043e565b8063b5b98ed414610afb578063becdc10d14610b03578063c133b7ff14610b0b578063cbc446b114610b135761043e565b80639c872d02116101be578063a7458b951161018d578063a7458b9514610a62578063aaed4f0714610a81578063ab9779b714610aa7578063af63b2a814610acd578063b2325aef14610ad55761043e565b80639c872d0214610881578063a317ce9d146108a7578063a47594df146108af578063a740dbc114610a5a5761043e565b80638e32f35e116102055780638e32f35e146108155780639485871b14610843578063968644f01461084b5780639b7021ce146108535780639c7b005d1461085b5761043e565b8063834aa4f6146107b9578063854dba40146107c157806386676d43146107c957806389365909146107ef5761043e565b806351bb3615116103475780635f824bf9116102cf5780636cd24daf116102935780636cd24daf1461072f5780636dc95c2e146107375780636f6c0e7d1461076557806378c495741461076d57806378ddee75146107935761043e565b80635f824bf9146106e95780636232e59c146106f15780636475e34214610717578063650ca32b1461071f5780636a72b27d146107275761043e565b8063579078371161031657806357907837146106505780635af47ca7146106765780635d914c0d1461069c5780635dadd78a146106bb5780635e5ca652146106c35761043e565b806351bb3615146105f457806354749af3146105fc578063568b270214610622578063575832df1461062a5761043e565b806328520b30116103ca57806334970f181161039957806334970f18146105715780633a48bb561461057957806345057ed7146105985780634ae9388b146105be57806350cec2d5146105c65761043e565b806328520b301461051557806328751b361461051d5780632ca2bd16146105435780632e963a80146105695761043e565b806311cf3a221161041157806311cf3a22146104cf57806315dd9c06146104d757806318e504db146104fd5780631bf2f73d146105055780631e5e61901461050d5761043e565b8063080aa5d1146104435780630df3e2951461045d5780630f84c0461461048557806310d74c7d146104a9575b600080fd5b61044b610cef565b60408051918252519081900360200190f35b6104836004803603602081101561047357600080fd5b50356001600160401b0316610cf5565b005b61048d610d71565b604080516001600160401b039092168252519081900360200190f35b610483600480360360208110156104bf57600080fd5b50356001600160401b0316610df0565b61048d610e37565b610483600480360360208110156104ed57600080fd5b50356001600160401b0316610e80565b61048d610e9c565b61048d610ee5565b61048d610f2e565b61048d610f77565b6104836004803603602081101561053357600080fd5b50356001600160401b0316610fc0565b6104836004803603602081101561055957600080fd5b50356001600160401b0316611007565b61048d61104e565b61048d611097565b6104836004803603602081101561058f57600080fd5b503515156110e0565b610483600480360360208110156105ae57600080fd5b50356001600160401b0316611222565b61048d611243565b61048d600480360360408110156105dc57600080fd5b506001600160401b038135811691602001351661128c565b61048d611402565b6104836004803603602081101561061257600080fd5b50356001600160401b031661144b565b61048d61145f565b6104836004803603602081101561064057600080fd5b50356001600160401b03166114a8565b6104836004803603602081101561066657600080fd5b50356001600160401b03166114ef565b6104836004803603602081101561068c57600080fd5b50356001600160401b0316611536565b610483600480360360208110156106b257600080fd5b5035151561157d565b61048d611617565b610483600480360360208110156106d957600080fd5b50356001600160401b0316611660565b61048d6116a7565b61048d6004803603602081101561070757600080fd5b50356001600160401b03166116f0565b61048d611704565b61048d61174d565b61048d611796565b61048d6117df565b6104836004803603604081101561074d57600080fd5b506001600160401b0381358116916020013516611828565b61048d611835565b6104836004803603602081101561078357600080fd5b50356001600160401b031661187e565b610483600480360360208110156107a957600080fd5b50356001600160401b03166118c5565b61048d61190c565b61048d611955565b610483600480360360208110156107df57600080fd5b50356001600160401b031661199e565b6104836004803603602081101561080557600080fd5b50356001600160401b03166119e5565b6104836004803603604081101561082b57600080fd5b506001600160401b0381358116916020013516611a2c565b61048d611b2e565b61048d611b77565b61048d611ccd565b6104836004803603602081101561087157600080fd5b50356001600160401b0316611d16565b6104836004803603602081101561089757600080fd5b50356001600160401b0316611d5d565b61048d611da4565b610483600480360360608110156108c557600080fd5b8101906020810181356401000000008111156108e057600080fd5b8201836020820111156108f257600080fd5b8035906020019184602083028401116401000000008311171561091457600080fd5b919080806020026020016040519081016040528093929190818152602001838360200280828437600092019190915250929594936020810193503591505064010000000081111561096457600080fd5b82018360208201111561097657600080fd5b8035906020019184602083028401116401000000008311171561099857600080fd5b91908080602002602001604051908101604052809392919081815260200183836020028082843760009201919091525092959493602081019350359150506401000000008111156109e857600080fd5b8201836020820111156109fa57600080fd5b80359060200191846020830284011164010000000083111715610a1c57600080fd5b919080806020026020016040519081016040528093929190818152602001838360200280828437600092019190915250929550611ded945050505050565b61048d611eb2565b61048360048036036020811015610a7857600080fd5b50351515611efb565b61048360048036036020811015610a9757600080fd5b50356001600160401b0316611f95565b61048360048036036020811015610abd57600080fd5b50356001600160401b0316611fdc565b61048d612023565b61048360048036036020811015610aeb57600080fd5b50356001600160401b031661206c565b61048d6120b3565b61048d6120fc565b61048d612145565b61048360048036036020811015610b2957600080fd5b50356001600160401b031661218e565b61048d6121d5565b61048360048036036020811015610b5757600080fd5b50356001600160401b031661221e565b61048360048036036020811015610b7d57600080fd5b50356001600160401b031661237d565b61048d6123c4565b61048d61248d565b61048360048036036020811015610bb357600080fd5b50356001600160401b03166124d6565b61048360048036036020811015610bd957600080fd5b50356001600160401b031661251d565b61048d612564565b61048360048036036020811015610c0757600080fd5b50356001600160401b03166125ad565b61048360048036036020811015610c2d57600080fd5b50356001600160401b03166125f4565b61048d61263b565b61048360048036036020811015610c5b57600080fd5b50356001600160401b0316612704565b61048d60048036036020811015610c8157600080fd5b50356001600160401b031661274b565b61048360048036036020811015610ca757600080fd5b50356001600160401b03166127e4565b61048360048036036060811015610ccd57600080fd5b506001600160401b03813581169160208101358216916040909101351661282b565b60005490565b610d6e73665a6a7b86bB63EAA1AcCED021D64B121eE63D77639a59734c6040518163ffffffff1660e01b815260040160206040518083038186803b158015610d3c57600080fd5b505af4158015610d50573d6000803e3d6000fd5b505050506040513d6020811015610d6657600080fd5b505182611a2c565b50565b6000610deb73665a6a7b86bB63EAA1AcCED021D64B121eE63D77636630ad876040518163ffffffff1660e01b815260040160206040518083038186803b158015610dba57600080fd5b505af4158015610dce573d6000803e3d6000fd5b505050506040513d6020811015610de457600080fd5b505161274b565b905090565b610d6e73665a6a7b86bB63EAA1AcCED021D64B121eE63D776372eb67d06040518163ffffffff1660e01b815260040160206040518083038186803b158015610d3c57600080fd5b6000610deb73665a6a7b86bB63EAA1AcCED021D64B121eE63D77638fd6b7c46040518163ffffffff1660e01b815260040160206040518083038186803b158015610dba57600080fd5b6000610e8a611da4565b8219169050610e9881611f95565b5050565b6000610deb73665a6a7b86bB63EAA1AcCED021D64B121eE63D7763734b96006040518163ffffffff1660e01b815260040160206040518083038186803b158015610dba57600080fd5b6000610deb73665a6a7b86bB63EAA1AcCED021D64B121eE63D7763443fd5986040518163ffffffff1660e01b815260040160206040518083038186803b158015610dba57600080fd5b6000610deb73665a6a7b86bB63EAA1AcCED021D64B121eE63D7763ca04595a6040518163ffffffff1660e01b815260040160206040518083038186803b158015610dba57600080fd5b6000610deb73665a6a7b86bB63EAA1AcCED021D64B121eE63D776372eb67d06040518163ffffffff1660e01b815260040160206040518083038186803b158015610dba57600080fd5b610d6e73665a6a7b86bB63EAA1AcCED021D64B121eE63D7763ca04595a6040518163ffffffff1660e01b815260040160206040518083038186803b158015610d3c57600080fd5b610d6e73665a6a7b86bB63EAA1AcCED021D64B121eE63D7763d124bd136040518163ffffffff1660e01b815260040160206040518083038186803b158015610d3c57600080fd5b6000610deb73665a6a7b86bB63EAA1AcCED021D64B121eE63D776329301cac6040518163ffffffff1660e01b815260040160206040518083038186803b158015610dba57600080fd5b6000610deb735Ce4E0f4Ca70DDC4f0B8cc6924077cD8d40fe35963521819f56040518163ffffffff1660e01b815260040160206040518083038186803b158015610dba57600080fd5b60006110ea612145565b905081156111685773f3DF831E4ca49e5CeD14220F6Aab25B30736283e63e697ace96040518163ffffffff1660e01b815260040160206040518083038186803b15801561113657600080fd5b505af415801561114a573d6000803e3d6000fd5b505050506040513d602081101561116057600080fd5b5051176111db565b73f3DF831E4ca49e5CeD14220F6Aab25B30736283e63e697ace96040518163ffffffff1660e01b815260040160206040518083038186803b1580156111ac57600080fd5b505af41580156111c0573d6000803e3d6000fd5b505050506040513d60208110156111d657600080fd5b505119165b610e9873665a6a7b86bB63EAA1AcCED021D64B121eE63D77632ffdabc56040518163ffffffff1660e01b815260040160206040518083038186803b158015610d3c57600080fd5b600061122c611da4565b8217905061123981611f95565b610e98600061157d565b6000610deb73665a6a7b86bB63EAA1AcCED021D64B121eE63D7763b255e9e46040518163ffffffff1660e01b815260040160206040518083038186803b158015610dba57600080fd5b60006007198316808403826112a083612a72565b9050600073c411FDBCac6537051A4339FD30823467D573bE6463bf1924c5846008026001600160401b03166001896001600160401b031660026001600160401b03160a036001600160401b0316901b6040518263ffffffff1660e01b815260040180826001600160401b0316815260200191505060206040518083038186803b15801561132c57600080fd5b505af4158015611340573d6000803e3d6000fd5b505050506040513d602081101561135657600080fd5b50516040805163bf1924c560e01b81526001600160401b03858416811660048301529151929350600886029091169173c411FDBCac6537051A4339FD30823467D573bE649163bf1924c5916024808301926020929190829003018186803b1580156113c057600080fd5b505af41580156113d4573d6000803e3d6000fd5b505050506040513d60208110156113ea57600080fd5b50516001600160401b0316901c979650505050505050565b6000610deb73665a6a7b86bB63EAA1AcCED021D64B121eE63D77637047f4df6040518163ffffffff1660e01b815260040160206040518083038186803b158015610dba57600080fd5b6114548161221e565b610d6e60001961251d565b6000610deb73665a6a7b86bB63EAA1AcCED021D64B121eE63D776345827f696040518163ffffffff1660e01b815260040160206040518083038186803b158015610dba57600080fd5b610d6e73665a6a7b86bB63EAA1AcCED021D64B121eE63D7763e59cb5746040518163ffffffff1660e01b815260040160206040518083038186803b158015610d3c57600080fd5b610d6e73665a6a7b86bB63EAA1AcCED021D64B121eE63D7763734b96006040518163ffffffff1660e01b815260040160206040518083038186803b158015610d3c57600080fd5b610d6e73665a6a7b86bB63EAA1AcCED021D64B121eE63D77639ff9932b6040518163ffffffff1660e01b815260040160206040518083038186803b158015610d3c57600080fd5b6000611587612145565b905081156115d35773f3DF831E4ca49e5CeD14220F6Aab25B30736283e63693549ac6040518163ffffffff1660e01b815260040160206040518083038186803b15801561113657600080fd5b73f3DF831E4ca49e5CeD14220F6Aab25B30736283e63693549ac6040518163ffffffff1660e01b815260040160206040518083038186803b1580156111ac57600080fd5b6000610deb73665a6a7b86bB63EAA1AcCED021D64B121eE63D7763e2e2e7126040518163ffffffff1660e01b815260040160206040518083038186803b158015610dba57600080fd5b610d6e73665a6a7b86bB63EAA1AcCED021D64B121eE63D7763a43e290f6040518163ffffffff1660e01b815260040160206040518083038186803b158015610d3c57600080fd5b6000610deb73665a6a7b86bB63EAA1AcCED021D64B121eE63D776392f5aa226040518163ffffffff1660e01b815260040160206040518083038186803b158015610dba57600080fd5b60006116fe8260080261274b565b92915050565b6000610deb7375E1C57EAb29ff136AAEDfF974B3288ba3f16ED663870981356040518163ffffffff1660e01b815260040160206040518083038186803b158015610dba57600080fd5b6000610deb73665a6a7b86bB63EAA1AcCED021D64B121eE63D7763d41a5b596040518163ffffffff1660e01b815260040160206040518083038186803b158015610dba57600080fd5b6000610deb73665a6a7b86bB63EAA1AcCED021D64B121eE63D7763e59cb5746040518163ffffffff1660e01b815260040160206040518083038186803b158015610dba57600080fd5b6000610deb73665a6a7b86bB63EAA1AcCED021D64B121eE63D7763da3e8d7b6040518163ffffffff1660e01b815260040160206040518083038186803b158015610dba57600080fd5b610e988260080282611a2c565b6000610deb735Ce4E0f4Ca70DDC4f0B8cc6924077cD8d40fe359636299ea3f6040518163ffffffff1660e01b815260040160206040518083038186803b158015610dba57600080fd5b610d6e73665a6a7b86bB63EAA1AcCED021D64B121eE63D776345827f696040518163ffffffff1660e01b815260040160206040518083038186803b158015610d3c57600080fd5b610d6e73665a6a7b86bB63EAA1AcCED021D64B121eE63D7763b255e9e46040518163ffffffff1660e01b815260040160206040518083038186803b158015610d3c57600080fd5b6000610deb73665a6a7b86bB63EAA1AcCED021D64B121eE63D77634a4c35106040518163ffffffff1660e01b815260040160206040518083038186803b158015610dba57600080fd5b6000610deb73665a6a7b86bB63EAA1AcCED021D64B121eE63D7763c585eede6040518163ffffffff1660e01b815260040160206040518083038186803b158015610dba57600080fd5b610d6e73665a6a7b86bB63EAA1AcCED021D64B121eE63D7763e80d17516040518163ffffffff1660e01b815260040160206040518083038186803b158015610d3c57600080fd5b610d6e73665a6a7b86bB63EAA1AcCED021D64B121eE63D77637047f4df6040518163ffffffff1660e01b815260040160206040518083038186803b158015610d3c57600080fd5b600073c411FDBCac6537051A4339FD30823467D573bE6463bf1924c5836040518263ffffffff1660e01b815260040180826001600160401b0316815260200191505060206040518083038186803b158015611a8657600080fd5b505af4158015611a9a573d6000803e3d6000fd5b505050506040513d6020811015611ab057600080fd5b505160c01b90506001600160c01b03198116611acd846000612a88565b6001600160c01b03191614611b29576040805162461bcd60e51b815260206004820152601c60248201527f5772697474656e2076616c756520646f6573206e6f74206d6174636800000000604482015290519081900360640190fd5b505050565b6000610deb73665a6a7b86bB63EAA1AcCED021D64B121eE63D7763d124bd136040518163ffffffff1660e01b815260040160206040518083038186803b158015610dba57600080fd5b600073f3DF831E4ca49e5CeD14220F6Aab25B30736283e63656b151f6040518163ffffffff1660e01b815260040160206040518083038186803b158015611bbd57600080fd5b505af4158015611bd1573d6000803e3d6000fd5b505050506040513d6020811015611be757600080fd5b50516040805163fd198e5560e01b815290516001600160401b039092169173f3DF831E4ca49e5CeD14220F6Aab25B30736283e9163fd198e55916004808301926020929190829003018186803b158015611c4057600080fd5b505af4158015611c54573d6000803e3d6000fd5b505050506040513d6020811015611c6a57600080fd5b505160408051632ffdabc560e01b81529051611cbc9173665a6a7b86bB63EAA1AcCED021D64B121eE63D7791632ffdabc591600480820192602092909190829003018186803b158015610dba57600080fd5b166001600160401b0316901c905090565b6000610deb73665a6a7b86bB63EAA1AcCED021D64B121eE63D77639ff9932b6040518163ffffffff1660e01b815260040160206040518083038186803b158015610dba57600080fd5b610d6e73665a6a7b86bB63EAA1AcCED021D64B121eE63D776329301cac6040518163ffffffff1660e01b815260040160206040518083038186803b158015610d3c57600080fd5b610d6e73665a6a7b86bB63EAA1AcCED021D64B121eE63D77638fd6b7c46040518163ffffffff1660e01b815260040160206040518083038186803b158015610d3c57600080fd5b6000610deb73665a6a7b86bB63EAA1AcCED021D64B121eE63D7763520aff6c6040518163ffffffff1660e01b815260040160206040518083038186803b158015610dba57600080fd5b8151835114611e2d5760405162461bcd60e51b8152600401808060200182810382526027815260200180612e276027913960400191505060405180910390fd5b8051835114611e6d5760405162461bcd60e51b8152600401808060200182810382526027815260200180612e276027913960400191505060405180910390fd5b600080558251611e84906001906020860190612c33565b508151611e98906002906020850190612ceb565b508051611eac906003906020840190612d58565b50505050565b6000610deb73665a6a7b86bB63EAA1AcCED021D64B121eE63D77632935b8ce6040518163ffffffff1660e01b815260040160206040518083038186803b158015610dba57600080fd5b6000611f05612145565b90508115611f515773f3DF831E4ca49e5CeD14220F6Aab25B30736283e63fd198e556040518163ffffffff1660e01b815260040160206040518083038186803b15801561113657600080fd5b73f3DF831E4ca49e5CeD14220F6Aab25B30736283e63fd198e556040518163ffffffff1660e01b815260040160206040518083038186803b1580156111ac57600080fd5b610d6e73665a6a7b86bB63EAA1AcCED021D64B121eE63D7763520aff6c6040518163ffffffff1660e01b815260040160206040518083038186803b158015610d3c57600080fd5b610d6e73665a6a7b86bB63EAA1AcCED021D64B121eE63D7763443fd5986040518163ffffffff1660e01b815260040160206040518083038186803b158015610d3c57600080fd5b6000610deb73665a6a7b86bB63EAA1AcCED021D64B121eE63D77639a59734c6040518163ffffffff1660e01b815260040160206040518083038186803b158015610dba57600080fd5b610d6e735Ce4E0f4Ca70DDC4f0B8cc6924077cD8d40fe359630a279d716040518163ffffffff1660e01b815260040160206040518083038186803b158015610d3c57600080fd5b6000610deb73665a6a7b86bB63EAA1AcCED021D64B121eE63D776342db36676040518163ffffffff1660e01b815260040160206040518083038186803b158015610dba57600080fd5b6000610deb73665a6a7b86bB63EAA1AcCED021D64B121eE63D7763929127db6040518163ffffffff1660e01b815260040160206040518083038186803b158015610dba57600080fd5b6000610deb73665a6a7b86bB63EAA1AcCED021D64B121eE63D77632ffdabc56040518163ffffffff1660e01b815260040160206040518083038186803b158015610dba57600080fd5b610d6e73665a6a7b86bB63EAA1AcCED021D64B121eE63D77636630ad876040518163ffffffff1660e01b815260040160206040518083038186803b158015610d3c57600080fd5b6000610deb73665a6a7b86bB63EAA1AcCED021D64B121eE63D7763e80d17516040518163ffffffff1660e01b815260040160206040518083038186803b158015610dba57600080fd5b6000612228612145565b905073f3DF831E4ca49e5CeD14220F6Aab25B30736283e63910a52476040518163ffffffff1660e01b815260040160206040518083038186803b15801561226e57600080fd5b505af4158015612282573d6000803e3d6000fd5b505050506040513d602081101561229857600080fd5b50516040805163317d2bb560e01b815290516001600160401b0385811693169290921b9173f3DF831E4ca49e5CeD14220F6Aab25B30736283e9163317d2bb5916004808301926020929190829003018186803b1580156122f757600080fd5b505af415801561230b573d6000803e3d6000fd5b505050506040513d602081101561232157600080fd5b505160408051632ffdabc560e01b815290519119939093169190911791610e989173665a6a7b86bB63EAA1AcCED021D64B121eE63D7791632ffdabc5916004808301926020929190829003018186803b158015610d3c57600080fd5b610d6e73665a6a7b86bB63EAA1AcCED021D64B121eE63D77632935b8ce6040518163ffffffff1660e01b815260040160206040518083038186803b158015610d3c57600080fd5b600073f3DF831E4ca49e5CeD14220F6Aab25B30736283e63e89d408d6040518163ffffffff1660e01b815260040160206040518083038186803b15801561240a57600080fd5b505af415801561241e573d6000803e3d6000fd5b505050506040513d602081101561243457600080fd5b50516040805163e697ace960e01b815290516001600160401b039092169173f3DF831E4ca49e5CeD14220F6Aab25B30736283e9163e697ace9916004808301926020929190829003018186803b158015611c4057600080fd5b6000610deb73665a6a7b86bB63EAA1AcCED021D64B121eE63D7763a43e290f6040518163ffffffff1660e01b815260040160206040518083038186803b158015610dba57600080fd5b610d6e735Ce4E0f4Ca70DDC4f0B8cc6924077cD8d40fe35963521819f56040518163ffffffff1660e01b815260040160206040518083038186803b158015610d3c57600080fd5b610d6e73665a6a7b86bB63EAA1AcCED021D64B121eE63D7763e2e2e7126040518163ffffffff1660e01b815260040160206040518083038186803b158015610d3c57600080fd5b6000610deb735Ce4E0f4Ca70DDC4f0B8cc6924077cD8d40fe359630a279d716040518163ffffffff1660e01b815260040160206040518083038186803b158015610dba57600080fd5b610d6e73665a6a7b86bB63EAA1AcCED021D64B121eE63D776342db36676040518163ffffffff1660e01b815260040160206040518083038186803b158015610d3c57600080fd5b610d6e73665a6a7b86bB63EAA1AcCED021D64B121eE63D7763da3e8d7b6040518163ffffffff1660e01b815260040160206040518083038186803b158015610d3c57600080fd5b600073f3DF831E4ca49e5CeD14220F6Aab25B30736283e63910a52476040518163ffffffff1660e01b815260040160206040518083038186803b15801561268157600080fd5b505af4158015612695573d6000803e3d6000fd5b505050506040513d60208110156126ab57600080fd5b50516040805163317d2bb560e01b815290516001600160401b039092169173f3DF831E4ca49e5CeD14220F6Aab25B30736283e9163317d2bb5916004808301926020929190829003018186803b158015611c4057600080fd5b610d6e73665a6a7b86bB63EAA1AcCED021D64B121eE63D7763d41a5b596040518163ffffffff1660e01b815260040160206040518083038186803b158015610d3c57600080fd5b600073c411FDBCac6537051A4339FD30823467D573bE6463bf1924c5612772846001612a88565b60c01c6040518263ffffffff1660e01b815260040180826001600160401b0316815260200191505060206040518083038186803b1580156127b257600080fd5b505af41580156127c6573d6000803e3d6000fd5b505050506040513d60208110156127dc57600080fd5b505192915050565b610d6e7375E1C57EAb29ff136AAEDfF974B3288ba3f16ED663870981356040518163ffffffff1660e01b815260040160206040518083038186803b158015610d3c57600080fd5b600060086001600160401b038316049050806001600160401b03166008141561285d576128588484611a2c565b611eac565b6007198416808503600061287083612a72565b9050600073c411FDBCac6537051A4339FD30823467D573bE6463bf1924c5846008026001600160401b03166001896001600160401b031660026001600160401b03160a036001600160401b0316901b6040518263ffffffff1660e01b815260040180826001600160401b0316815260200191505060206040518083038186803b1580156128fc57600080fd5b505af4158015612910573d6000803e3d6000fd5b505050506040513d602081101561292657600080fd5b50516040805163bf1924c560e01b81526001600160401b0389811660020a600019018b16166004820152905191925060009173c411FDBCac6537051A4339FD30823467D573bE649163bf1924c5916024808301926020929190829003018186803b15801561299357600080fd5b505af41580156129a7573d6000803e3d6000fd5b505050506040513d60208110156129bd57600080fd5b50516040805163bf1924c560e01b81526001600160401b038084166008890282161c861988161790811660048301529151929350909173c411FDBCac6537051A4339FD30823467D573bE649163bf1924c5916024808301926020929190829003018186803b158015612a2e57600080fd5b505af4158015612a42573d6000803e3d6000fd5b505050506040513d6020811015612a5857600080fd5b50519050612a668682611a2c565b50505050505050505050565b6000612a7f826001612a88565b60c01c92915050565b6000811515600360005481548110612a9c57fe5b90600052602060002090602091828204019190069054906101000a900460ff16151514612b10576040805162461bcd60e51b815260206004820152601f60248201527f41636365737320776173206e6f742074686520636f7272656374207479706500604482015290519081900360640190fd5b6000600160005481548110612b2157fe5b90600052602060002090600491828204019190066008029054906101000a90046001600160401b031690506000600260005481548110612b5d57fe5b60009182526020822060048204015482546001019092556003166008026101000a900460c01b90506007821615612bdb576040805162461bcd60e51b815260206004820152601760248201527f506f736974696f6e206973206e6f7420616c69676e6564000000000000000000604482015290519081900360640190fd5b846001600160401b0316826001600160401b031614612c2b5760405162461bcd60e51b8152600401808060200182810382526026815260200180612e016026913960400191505060405180910390fd5b949350505050565b82805482825590600052602060002090600301600490048101928215612cdb5791602002820160005b83821115612ca657835183826101000a8154816001600160401b0302191690836001600160401b031602179055509260200192600801602081600701049283019260010302612c5c565b8015612cd95782816101000a8154906001600160401b030219169055600801602081600701049283019260010302612ca6565b505b50612ce7929150612deb565b5090565b82805482825590600052602060002090600301600490048101928215612cdb5791602002820160005b83821115612ca657835183826101000a8154816001600160401b03021916908360c01c02179055509260200192600801602081600701049283019260010302612d14565b82805482825590600052602060002090601f01602090048101928215612cdb5791602002820160005b83821115612dbe57835183826101000a81548160ff0219169083151502179055509260200192600101602081600001049283019260010302612d81565b8015612cd95782816101000a81549060ff0219169055600101602081600001049283019260010302612dbe565b5b80821115612ce75760008155600101612dec56fe506f736974696f6e20616e642072656164206164647265737320646f206e6f74206d61746368526561642f77726974652061727261797320617265206e6f74207468652073616d652073697a65a264697066735822122033cae064d58cbe4f32799c9b0de297a5871c7df782623c377d3073c533485d0d64736f6c63430007040033",
  "deployedBytecode": "0x608060405234801561001057600080fd5b506004361061043e5760003560e01c8063834aa4f611610236578063b5b98ed41161013b578063dd5c4a14116100c3578063f7ac913d11610087578063f7ac913d14610c3d578063f991158714610c45578063fa644af514610c6b578063fbdb975d14610c91578063fd295abe14610cb75761043e565b8063dd5c4a1414610b9d578063f21d94f814610bc3578063f2cf6ceb14610be9578063f55c4d3814610bf1578063f604edb814610c175761043e565b8063cc92cbf71161010a578063cc92cbf714610b39578063cecdae5314610b41578063d2be7b6d14610b67578063d40d17c514610b8d578063daded5c214610b955761043e565b8063b5b98ed414610afb578063becdc10d14610b03578063c133b7ff14610b0b578063cbc446b114610b135761043e565b80639c872d02116101be578063a7458b951161018d578063a7458b9514610a62578063aaed4f0714610a81578063ab9779b714610aa7578063af63b2a814610acd578063b2325aef14610ad55761043e565b80639c872d0214610881578063a317ce9d146108a7578063a47594df146108af578063a740dbc114610a5a5761043e565b80638e32f35e116102055780638e32f35e146108155780639485871b14610843578063968644f01461084b5780639b7021ce146108535780639c7b005d1461085b5761043e565b8063834aa4f6146107b9578063854dba40146107c157806386676d43146107c957806389365909146107ef5761043e565b806351bb3615116103475780635f824bf9116102cf5780636cd24daf116102935780636cd24daf1461072f5780636dc95c2e146107375780636f6c0e7d1461076557806378c495741461076d57806378ddee75146107935761043e565b80635f824bf9146106e95780636232e59c146106f15780636475e34214610717578063650ca32b1461071f5780636a72b27d146107275761043e565b8063579078371161031657806357907837146106505780635af47ca7146106765780635d914c0d1461069c5780635dadd78a146106bb5780635e5ca652146106c35761043e565b806351bb3615146105f457806354749af3146105fc578063568b270214610622578063575832df1461062a5761043e565b806328520b30116103ca57806334970f181161039957806334970f18146105715780633a48bb561461057957806345057ed7146105985780634ae9388b146105be57806350cec2d5146105c65761043e565b806328520b301461051557806328751b361461051d5780632ca2bd16146105435780632e963a80146105695761043e565b806311cf3a221161041157806311cf3a22146104cf57806315dd9c06146104d757806318e504db146104fd5780631bf2f73d146105055780631e5e61901461050d5761043e565b8063080aa5d1146104435780630df3e2951461045d5780630f84c0461461048557806310d74c7d146104a9575b600080fd5b61044b610cef565b60408051918252519081900360200190f35b6104836004803603602081101561047357600080fd5b50356001600160401b0316610cf5565b005b61048d610d71565b604080516001600160401b039092168252519081900360200190f35b610483600480360360208110156104bf57600080fd5b50356001600160401b0316610df0565b61048d610e37565b610483600480360360208110156104ed57600080fd5b50356001600160401b0316610e80565b61048d610e9c565b61048d610ee5565b61048d610f2e565b61048d610f77565b6104836004803603602081101561053357600080fd5b50356001600160401b0316610fc0565b6104836004803603602081101561055957600080fd5b50356001600160401b0316611007565b61048d61104e565b61048d611097565b6104836004803603602081101561058f57600080fd5b503515156110e0565b610483600480360360208110156105ae57600080fd5b50356001600160401b0316611222565b61048d611243565b61048d600480360360408110156105dc57600080fd5b506001600160401b038135811691602001351661128c565b61048d611402565b6104836004803603602081101561061257600080fd5b50356001600160401b031661144b565b61048d61145f565b6104836004803603602081101561064057600080fd5b50356001600160401b03166114a8565b6104836004803603602081101561066657600080fd5b50356001600160401b03166114ef565b6104836004803603602081101561068c57600080fd5b50356001600160401b0316611536565b610483600480360360208110156106b257600080fd5b5035151561157d565b61048d611617565b610483600480360360208110156106d957600080fd5b50356001600160401b0316611660565b61048d6116a7565b61048d6004803603602081101561070757600080fd5b50356001600160401b03166116f0565b61048d611704565b61048d61174d565b61048d611796565b61048d6117df565b6104836004803603604081101561074d57600080fd5b506001600160401b0381358116916020013516611828565b61048d611835565b6104836004803603602081101561078357600080fd5b50356001600160401b031661187e565b610483600480360360208110156107a957600080fd5b50356001600160401b03166118c5565b61048d61190c565b61048d611955565b610483600480360360208110156107df57600080fd5b50356001600160401b031661199e565b6104836004803603602081101561080557600080fd5b50356001600160401b03166119e5565b6104836004803603604081101561082b57600080fd5b506001600160401b0381358116916020013516611a2c565b61048d611b2e565b61048d611b77565b61048d611ccd565b6104836004803603602081101561087157600080fd5b50356001600160401b0316611d16565b6104836004803603602081101561089757600080fd5b50356001600160401b0316611d5d565b61048d611da4565b610483600480360360608110156108c557600080fd5b8101906020810181356401000000008111156108e057600080fd5b8201836020820111156108f257600080fd5b8035906020019184602083028401116401000000008311171561091457600080fd5b919080806020026020016040519081016040528093929190818152602001838360200280828437600092019190915250929594936020810193503591505064010000000081111561096457600080fd5b82018360208201111561097657600080fd5b8035906020019184602083028401116401000000008311171561099857600080fd5b91908080602002602001604051908101604052809392919081815260200183836020028082843760009201919091525092959493602081019350359150506401000000008111156109e857600080fd5b8201836020820111156109fa57600080fd5b80359060200191846020830284011164010000000083111715610a1c57600080fd5b919080806020026020016040519081016040528093929190818152602001838360200280828437600092019190915250929550611ded945050505050565b61048d611eb2565b61048360048036036020811015610a7857600080fd5b50351515611efb565b61048360048036036020811015610a9757600080fd5b50356001600160401b0316611f95565b61048360048036036020811015610abd57600080fd5b50356001600160401b0316611fdc565b61048d612023565b61048360048036036020811015610aeb57600080fd5b50356001600160401b031661206c565b61048d6120b3565b61048d6120fc565b61048d612145565b61048360048036036020811015610b2957600080fd5b50356001600160401b031661218e565b61048d6121d5565b61048360048036036020811015610b5757600080fd5b50356001600160401b031661221e565b61048360048036036020811015610b7d57600080fd5b50356001600160401b031661237d565b61048d6123c4565b61048d61248d565b61048360048036036020811015610bb357600080fd5b50356001600160401b03166124d6565b61048360048036036020811015610bd957600080fd5b50356001600160401b031661251d565b61048d612564565b61048360048036036020811015610c0757600080fd5b50356001600160401b03166125ad565b61048360048036036020811015610c2d57600080fd5b50356001600160401b03166125f4565b61048d61263b565b61048360048036036020811015610c5b57600080fd5b50356001600160401b0316612704565b61048d60048036036020811015610c8157600080fd5b50356001600160401b031661274b565b61048360048036036020811015610ca757600080fd5b50356001600160401b03166127e4565b61048360048036036060811015610ccd57600080fd5b506001600160401b03813581169160208101358216916040909101351661282b565b60005490565b610d6e73__$edd6a44efa4a8bdf57aa57ccba2bcfbb1d$__639a59734c6040518163ffffffff1660e01b815260040160206040518083038186803b158015610d3c57600080fd5b505af4158015610d50573d6000803e3d6000fd5b505050506040513d6020811015610d6657600080fd5b505182611a2c565b50565b6000610deb73__$edd6a44efa4a8bdf57aa57ccba2bcfbb1d$__636630ad876040518163ffffffff1660e01b815260040160206040518083038186803b158015610dba57600080fd5b505af4158015610dce573d6000803e3d6000fd5b505050506040513d6020811015610de457600080fd5b505161274b565b905090565b610d6e73__$edd6a44efa4a8bdf57aa57ccba2bcfbb1d$__6372eb67d06040518163ffffffff1660e01b815260040160206040518083038186803b158015610d3c57600080fd5b6000610deb73__$edd6a44efa4a8bdf57aa57ccba2bcfbb1d$__638fd6b7c46040518163ffffffff1660e01b815260040160206040518083038186803b158015610dba57600080fd5b6000610e8a611da4565b8219169050610e9881611f95565b5050565b6000610deb73__$edd6a44efa4a8bdf57aa57ccba2bcfbb1d$__63734b96006040518163ffffffff1660e01b815260040160206040518083038186803b158015610dba57600080fd5b6000610deb73__$edd6a44efa4a8bdf57aa57ccba2bcfbb1d$__63443fd5986040518163ffffffff1660e01b815260040160206040518083038186803b158015610dba57600080fd5b6000610deb73__$edd6a44efa4a8bdf57aa57ccba2bcfbb1d$__63ca04595a6040518163ffffffff1660e01b815260040160206040518083038186803b158015610dba57600080fd5b6000610deb73__$edd6a44efa4a8bdf57aa57ccba2bcfbb1d$__6372eb67d06040518163ffffffff1660e01b815260040160206040518083038186803b158015610dba57600080fd5b610d6e73__$edd6a44efa4a8bdf57aa57ccba2bcfbb1d$__63ca04595a6040518163ffffffff1660e01b815260040160206040518083038186803b158015610d3c57600080fd5b610d6e73__$edd6a44efa4a8bdf57aa57ccba2bcfbb1d$__63d124bd136040518163ffffffff1660e01b815260040160206040518083038186803b158015610d3c57600080fd5b6000610deb73__$edd6a44efa4a8bdf57aa57ccba2bcfbb1d$__6329301cac6040518163ffffffff1660e01b815260040160206040518083038186803b158015610dba57600080fd5b6000610deb73__$96c0387300a4d16af366df01fc33f52e50$__63521819f56040518163ffffffff1660e01b815260040160206040518083038186803b158015610dba57600080fd5b60006110ea612145565b905081156111685773__$6af7953b03ecb3cadd1ca9bb3675b9b8d6$__63e697ace96040518163ffffffff1660e01b815260040160206040518083038186803b15801561113657600080fd5b505af415801561114a573d6000803e3d6000fd5b505050506040513d602081101561116057600080fd5b5051176111db565b73__$6af7953b03ecb3cadd1ca9bb3675b9b8d6$__63e697ace96040518163ffffffff1660e01b815260040160206040518083038186803b1580156111ac57600080fd5b505af41580156111c0573d6000803e3d6000fd5b505050506040513d60208110156111d657600080fd5b505119165b610e9873__$edd6a44efa4a8bdf57aa57ccba2bcfbb1d$__632ffdabc56040518163ffffffff1660e01b815260040160206040518083038186803b158015610d3c57600080fd5b600061122c611da4565b8217905061123981611f95565b610e98600061157d565b6000610deb73__$edd6a44efa4a8bdf57aa57ccba2bcfbb1d$__63b255e9e46040518163ffffffff1660e01b815260040160206040518083038186803b158015610dba57600080fd5b60006007198316808403826112a083612a72565b9050600073__$184ef4a65c614d890e6225597d290b0ed9$__63bf1924c5846008026001600160401b03166001896001600160401b031660026001600160401b03160a036001600160401b0316901b6040518263ffffffff1660e01b815260040180826001600160401b0316815260200191505060206040518083038186803b15801561132c57600080fd5b505af4158015611340573d6000803e3d6000fd5b505050506040513d602081101561135657600080fd5b50516040805163bf1924c560e01b81526001600160401b03858416811660048301529151929350600886029091169173__$184ef4a65c614d890e6225597d290b0ed9$__9163bf1924c5916024808301926020929190829003018186803b1580156113c057600080fd5b505af41580156113d4573d6000803e3d6000fd5b505050506040513d60208110156113ea57600080fd5b50516001600160401b0316901c979650505050505050565b6000610deb73__$edd6a44efa4a8bdf57aa57ccba2bcfbb1d$__637047f4df6040518163ffffffff1660e01b815260040160206040518083038186803b158015610dba57600080fd5b6114548161221e565b610d6e60001961251d565b6000610deb73__$edd6a44efa4a8bdf57aa57ccba2bcfbb1d$__6345827f696040518163ffffffff1660e01b815260040160206040518083038186803b158015610dba57600080fd5b610d6e73__$edd6a44efa4a8bdf57aa57ccba2bcfbb1d$__63e59cb5746040518163ffffffff1660e01b815260040160206040518083038186803b158015610d3c57600080fd5b610d6e73__$edd6a44efa4a8bdf57aa57ccba2bcfbb1d$__63734b96006040518163ffffffff1660e01b815260040160206040518083038186803b158015610d3c57600080fd5b610d6e73__$edd6a44efa4a8bdf57aa57ccba2bcfbb1d$__639ff9932b6040518163ffffffff1660e01b815260040160206040518083038186803b158015610d3c57600080fd5b6000611587612145565b905081156115d35773__$6af7953b03ecb3cadd1ca9bb3675b9b8d6$__63693549ac6040518163ffffffff1660e01b815260040160206040518083038186803b15801561113657600080fd5b73__$6af7953b03ecb3cadd1ca9bb3675b9b8d6$__63693549ac6040518163ffffffff1660e01b815260040160206040518083038186803b1580156111ac57600080fd5b6000610deb73__$edd6a44efa4a8bdf57aa57ccba2bcfbb1d$__63e2e2e7126040518163ffffffff1660e01b815260040160206040518083038186803b158015610dba57600080fd5b610d6e73__$edd6a44efa4a8bdf57aa57ccba2bcfbb1d$__63a43e290f6040518163ffffffff1660e01b815260040160206040518083038186803b158015610d3c57600080fd5b6000610deb73__$edd6a44efa4a8bdf57aa57ccba2bcfbb1d$__6392f5aa226040518163ffffffff1660e01b815260040160206040518083038186803b158015610dba57600080fd5b60006116fe8260080261274b565b92915050565b6000610deb73__$3c056aa8a31fb3ce78f242f7ef99e26695$__63870981356040518163ffffffff1660e01b815260040160206040518083038186803b158015610dba57600080fd5b6000610deb73__$edd6a44efa4a8bdf57aa57ccba2bcfbb1d$__63d41a5b596040518163ffffffff1660e01b815260040160206040518083038186803b158015610dba57600080fd5b6000610deb73__$edd6a44efa4a8bdf57aa57ccba2bcfbb1d$__63e59cb5746040518163ffffffff1660e01b815260040160206040518083038186803b158015610dba57600080fd5b6000610deb73__$edd6a44efa4a8bdf57aa57ccba2bcfbb1d$__63da3e8d7b6040518163ffffffff1660e01b815260040160206040518083038186803b158015610dba57600080fd5b610e988260080282611a2c565b6000610deb73__$96c0387300a4d16af366df01fc33f52e50$__636299ea3f6040518163ffffffff1660e01b815260040160206040518083038186803b158015610dba57600080fd5b610d6e73__$edd6a44efa4a8bdf57aa57ccba2bcfbb1d$__6345827f696040518163ffffffff1660e01b815260040160206040518083038186803b158015610d3c57600080fd5b610d6e73__$edd6a44efa4a8bdf57aa57ccba2bcfbb1d$__63b255e9e46040518163ffffffff1660e01b815260040160206040518083038186803b158015610d3c57600080fd5b6000610deb73__$edd6a44efa4a8bdf57aa57ccba2bcfbb1d$__634a4c35106040518163ffffffff1660e01b815260040160206040518083038186803b158015610dba57600080fd5b6000610deb73__$edd6a44efa4a8bdf57aa57ccba2bcfbb1d$__63c585eede6040518163ffffffff1660e01b815260040160206040518083038186803b158015610dba57600080fd5b610d6e73__$edd6a44efa4a8bdf57aa57ccba2bcfbb1d$__63e80d17516040518163ffffffff1660e01b815260040160206040518083038186803b158015610d3c57600080fd5b610d6e73__$edd6a44efa4a8bdf57aa57ccba2bcfbb1d$__637047f4df6040518163ffffffff1660e01b815260040160206040518083038186803b158015610d3c57600080fd5b600073__$184ef4a65c614d890e6225597d290b0ed9$__63bf1924c5836040518263ffffffff1660e01b815260040180826001600160401b0316815260200191505060206040518083038186803b158015611a8657600080fd5b505af4158015611a9a573d6000803e3d6000fd5b505050506040513d6020811015611ab057600080fd5b505160c01b90506001600160c01b03198116611acd846000612a88565b6001600160c01b03191614611b29576040805162461bcd60e51b815260206004820152601c60248201527f5772697474656e2076616c756520646f6573206e6f74206d6174636800000000604482015290519081900360640190fd5b505050565b6000610deb73__$edd6a44efa4a8bdf57aa57ccba2bcfbb1d$__63d124bd136040518163ffffffff1660e01b815260040160206040518083038186803b158015610dba57600080fd5b600073__$6af7953b03ecb3cadd1ca9bb3675b9b8d6$__63656b151f6040518163ffffffff1660e01b815260040160206040518083038186803b158015611bbd57600080fd5b505af4158015611bd1573d6000803e3d6000fd5b505050506040513d6020811015611be757600080fd5b50516040805163fd198e5560e01b815290516001600160401b039092169173__$6af7953b03ecb3cadd1ca9bb3675b9b8d6$__9163fd198e55916004808301926020929190829003018186803b158015611c4057600080fd5b505af4158015611c54573d6000803e3d6000fd5b505050506040513d6020811015611c6a57600080fd5b505160408051632ffdabc560e01b81529051611cbc9173__$edd6a44efa4a8bdf57aa57ccba2bcfbb1d$__91632ffdabc591600480820192602092909190829003018186803b158015610dba57600080fd5b166001600160401b0316901c905090565b6000610deb73__$edd6a44efa4a8bdf57aa57ccba2bcfbb1d$__639ff9932b6040518163ffffffff1660e01b815260040160206040518083038186803b158015610dba57600080fd5b610d6e73__$edd6a44efa4a8bdf57aa57ccba2bcfbb1d$__6329301cac6040518163ffffffff1660e01b815260040160206040518083038186803b158015610d3c57600080fd5b610d6e73__$edd6a44efa4a8bdf57aa57ccba2bcfbb1d$__638fd6b7c46040518163ffffffff1660e01b815260040160206040518083038186803b158015610d3c57600080fd5b6000610deb73__$edd6a44efa4a8bdf57aa57ccba2bcfbb1d$__63520aff6c6040518163ffffffff1660e01b815260040160206040518083038186803b158015610dba57600080fd5b8151835114611e2d5760405162461bcd60e51b8152600401808060200182810382526027815260200180612e276027913960400191505060405180910390fd5b8051835114611e6d5760405162461bcd60e51b8152600401808060200182810382526027815260200180612e276027913960400191505060405180910390fd5b600080558251611e84906001906020860190612c33565b508151611e98906002906020850190612ceb565b508051611eac906003906020840190612d58565b50505050565b6000610deb73__$edd6a44efa4a8bdf57aa57ccba2bcfbb1d$__632935b8ce6040518163ffffffff1660e01b815260040160206040518083038186803b158015610dba57600080fd5b6000611f05612145565b90508115611f515773__$6af7953b03ecb3cadd1ca9bb3675b9b8d6$__63fd198e556040518163ffffffff1660e01b815260040160206040518083038186803b15801561113657600080fd5b73__$6af7953b03ecb3cadd1ca9bb3675b9b8d6$__63fd198e556040518163ffffffff1660e01b815260040160206040518083038186803b1580156111ac57600080fd5b610d6e73__$edd6a44efa4a8bdf57aa57ccba2bcfbb1d$__63520aff6c6040518163ffffffff1660e01b815260040160206040518083038186803b158015610d3c57600080fd5b610d6e73__$edd6a44efa4a8bdf57aa57ccba2bcfbb1d$__63443fd5986040518163ffffffff1660e01b815260040160206040518083038186803b158015610d3c57600080fd5b6000610deb73__$edd6a44efa4a8bdf57aa57ccba2bcfbb1d$__639a59734c6040518163ffffffff1660e01b815260040160206040518083038186803b158015610dba57600080fd5b610d6e73__$96c0387300a4d16af366df01fc33f52e50$__630a279d716040518163ffffffff1660e01b815260040160206040518083038186803b158015610d3c57600080fd5b6000610deb73__$edd6a44efa4a8bdf57aa57ccba2bcfbb1d$__6342db36676040518163ffffffff1660e01b815260040160206040518083038186803b158015610dba57600080fd5b6000610deb73__$edd6a44efa4a8bdf57aa57ccba2bcfbb1d$__63929127db6040518163ffffffff1660e01b815260040160206040518083038186803b158015610dba57600080fd5b6000610deb73__$edd6a44efa4a8bdf57aa57ccba2bcfbb1d$__632ffdabc56040518163ffffffff1660e01b815260040160206040518083038186803b158015610dba57600080fd5b610d6e73__$edd6a44efa4a8bdf57aa57ccba2bcfbb1d$__636630ad876040518163ffffffff1660e01b815260040160206040518083038186803b158015610d3c57600080fd5b6000610deb73__$edd6a44efa4a8bdf57aa57ccba2bcfbb1d$__63e80d17516040518163ffffffff1660e01b815260040160206040518083038186803b158015610dba57600080fd5b6000612228612145565b905073__$6af7953b03ecb3cadd1ca9bb3675b9b8d6$__63910a52476040518163ffffffff1660e01b815260040160206040518083038186803b15801561226e57600080fd5b505af4158015612282573d6000803e3d6000fd5b505050506040513d602081101561229857600080fd5b50516040805163317d2bb560e01b815290516001600160401b0385811693169290921b9173__$6af7953b03ecb3cadd1ca9bb3675b9b8d6$__9163317d2bb5916004808301926020929190829003018186803b1580156122f757600080fd5b505af415801561230b573d6000803e3d6000fd5b505050506040513d602081101561232157600080fd5b505160408051632ffdabc560e01b815290519119939093169190911791610e989173__$edd6a44efa4a8bdf57aa57ccba2bcfbb1d$__91632ffdabc5916004808301926020929190829003018186803b158015610d3c57600080fd5b610d6e73__$edd6a44efa4a8bdf57aa57ccba2bcfbb1d$__632935b8ce6040518163ffffffff1660e01b815260040160206040518083038186803b158015610d3c57600080fd5b600073__$6af7953b03ecb3cadd1ca9bb3675b9b8d6$__63e89d408d6040518163ffffffff1660e01b815260040160206040518083038186803b15801561240a57600080fd5b505af415801561241e573d6000803e3d6000fd5b505050506040513d602081101561243457600080fd5b50516040805163e697ace960e01b815290516001600160401b039092169173__$6af7953b03ecb3cadd1ca9bb3675b9b8d6$__9163e697ace9916004808301926020929190829003018186803b158015611c4057600080fd5b6000610deb73__$edd6a44efa4a8bdf57aa57ccba2bcfbb1d$__63a43e290f6040518163ffffffff1660e01b815260040160206040518083038186803b158015610dba57600080fd5b610d6e73__$96c0387300a4d16af366df01fc33f52e50$__63521819f56040518163ffffffff1660e01b815260040160206040518083038186803b158015610d3c57600080fd5b610d6e73__$edd6a44efa4a8bdf57aa57ccba2bcfbb1d$__63e2e2e7126040518163ffffffff1660e01b815260040160206040518083038186803b158015610d3c57600080fd5b6000610deb73__$96c0387300a4d16af366df01fc33f52e50$__630a279d716040518163ffffffff1660e01b815260040160206040518083038186803b158015610dba57600080fd5b610d6e73__$edd6a44efa4a8bdf57aa57ccba2bcfbb1d$__6342db36676040518163ffffffff1660e01b815260040160206040518083038186803b158015610d3c57600080fd5b610d6e73__$edd6a44efa4a8bdf57aa57ccba2bcfbb1d$__63da3e8d7b6040518163ffffffff1660e01b815260040160206040518083038186803b158015610d3c57600080fd5b600073__$6af7953b03ecb3cadd1ca9bb3675b9b8d6$__63910a52476040518163ffffffff1660e01b815260040160206040518083038186803b15801561268157600080fd5b505af4158015612695573d6000803e3d6000fd5b505050506040513d60208110156126ab57600080fd5b50516040805163317d2bb560e01b815290516001600160401b039092169173__$6af7953b03ecb3cadd1ca9bb3675b9b8d6$__9163317d2bb5916004808301926020929190829003018186803b158015611c4057600080fd5b610d6e73__$edd6a44efa4a8bdf57aa57ccba2bcfbb1d$__63d41a5b596040518163ffffffff1660e01b815260040160206040518083038186803b158015610d3c57600080fd5b600073__$184ef4a65c614d890e6225597d290b0ed9$__63bf1924c5612772846001612a88565b60c01c6040518263ffffffff1660e01b815260040180826001600160401b0316815260200191505060206040518083038186803b1580156127b257600080fd5b505af41580156127c6573d6000803e3d6000fd5b505050506040513d60208110156127dc57600080fd5b505192915050565b610d6e73__$3c056aa8a31fb3ce78f242f7ef99e26695$__63870981356040518163ffffffff1660e01b815260040160206040518083038186803b158015610d3c57600080fd5b600060086001600160401b038316049050806001600160401b03166008141561285d576128588484611a2c565b611eac565b6007198416808503600061287083612a72565b9050600073__$184ef4a65c614d890e6225597d290b0ed9$__63bf1924c5846008026001600160401b03166001896001600160401b031660026001600160401b03160a036001600160401b0316901b6040518263ffffffff1660e01b815260040180826001600160401b0316815260200191505060206040518083038186803b1580156128fc57600080fd5b505af4158015612910573d6000803e3d6000fd5b505050506040513d602081101561292657600080fd5b50516040805163bf1924c560e01b81526001600160401b0389811660020a600019018b16166004820152905191925060009173__$184ef4a65c614d890e6225597d290b0ed9$__9163bf1924c5916024808301926020929190829003018186803b15801561299357600080fd5b505af41580156129a7573d6000803e3d6000fd5b505050506040513d60208110156129bd57600080fd5b50516040805163bf1924c560e01b81526001600160401b038084166008890282161c861988161790811660048301529151929350909173__$184ef4a65c614d890e6225597d290b0ed9$__9163bf1924c5916024808301926020929190829003018186803b158015612a2e57600080fd5b505af4158015612a42573d6000803e3d6000fd5b505050506040513d6020811015612a5857600080fd5b50519050612a668682611a2c565b50505050505050505050565b6000612a7f826001612a88565b60c01c92915050565b6000811515600360005481548110612a9c57fe5b90600052602060002090602091828204019190069054906101000a900460ff16151514612b10576040805162461bcd60e51b815260206004820152601f60248201527f41636365737320776173206e6f742074686520636f7272656374207479706500604482015290519081900360640190fd5b6000600160005481548110612b2157fe5b90600052602060002090600491828204019190066008029054906101000a90046001600160401b031690506000600260005481548110612b5d57fe5b60009182526020822060048204015482546001019092556003166008026101000a900460c01b90506007821615612bdb576040805162461bcd60e51b815260206004820152601760248201527f506f736974696f6e206973206e6f7420616c69676e6564000000000000000000604482015290519081900360640190fd5b846001600160401b0316826001600160401b031614612c2b5760405162461bcd60e51b8152600401808060200182810382526026815260200180612e016026913960400191505060405180910390fd5b949350505050565b82805482825590600052602060002090600301600490048101928215612cdb5791602002820160005b83821115612ca657835183826101000a8154816001600160401b0302191690836001600160401b031602179055509260200192600801602081600701049283019260010302612c5c565b8015612cd95782816101000a8154906001600160401b030219169055600801602081600701049283019260010302612ca6565b505b50612ce7929150612deb565b5090565b82805482825590600052602060002090600301600490048101928215612cdb5791602002820160005b83821115612ca657835183826101000a8154816001600160401b03021916908360c01c02179055509260200192600801602081600701049283019260010302612d14565b82805482825590600052602060002090601f01602090048101928215612cdb5791602002820160005b83821115612dbe57835183826101000a81548160ff0219169083151502179055509260200192600101602081600001049283019260010302612d81565b8015612cd95782816101000a81549060ff0219169055600101602081600001049283019260010302612dbe565b5b80821115612ce75760008155600101612dec56fe506f736974696f6e20616e642072656164206164647265737320646f206e6f74206d61746368526561642f77726974652061727261797320617265206e6f74207468652073616d652073697a65a264697066735822122033cae064d58cbe4f32799c9b0de297a5871c7df782623c377d3073c533485d0d64736f6c63430007040033",
  "libraries": {
    "BitsManipulationLibrary": "0xc411FDBCac6537051A4339FD30823467D573bE64",
    "RiscVConstants": "0xf3DF831E4ca49e5CeD14220F6Aab25B30736283e",
    "ShadowAddresses": "0x665a6a7b86bB63EAA1AcCED021D64B121eE63D77",
    "HTIF": "0x5Ce4E0f4Ca70DDC4f0B8cc6924077cD8d40fe359",
    "CLINT": "0x75E1C57EAb29ff136AAEDfF974B3288ba3f16ED6"
  },
  "devdoc": {
    "author": "Felipe Argento",
    "details": "Every read performed by mi.memoryRead or mi.write should be followed by anendianess swap from little endian to big endian. This is the case becauseEVM is big endian but RiscV is little endian.Reference: riscv-spec-v2.2.pdf - Preface to Version 2.0Reference: Ethereum yellowpaper - Version 69351d5Appendix H. Virtual Machine Specification",
    "kind": "dev",
    "methods": {},
    "title": "MemoryInteractor",
    "version": 1
  },
  "userdoc": {
    "kind": "user",
    "methods": {},
    "notice": "Bridge between Memory Manager and Step",
    "version": 1
  },
  "storageLayout": {
    "storage": [
      {
        "astId": 5785,
        "contract": "contracts/MemoryInteractor.sol:MemoryInteractor",
        "label": "rwIndex",
        "offset": 0,
        "slot": "0",
        "type": "t_uint256"
      },
      {
        "astId": 5788,
        "contract": "contracts/MemoryInteractor.sol:MemoryInteractor",
        "label": "rwPositions",
        "offset": 0,
        "slot": "1",
        "type": "t_array(t_uint64)dyn_storage"
      },
      {
        "astId": 5791,
        "contract": "contracts/MemoryInteractor.sol:MemoryInteractor",
        "label": "rwValues",
        "offset": 0,
        "slot": "2",
        "type": "t_array(t_bytes8)dyn_storage"
      },
      {
        "astId": 5794,
        "contract": "contracts/MemoryInteractor.sol:MemoryInteractor",
        "label": "isRead",
        "offset": 0,
        "slot": "3",
        "type": "t_array(t_bool)dyn_storage"
      }
    ],
    "types": {
      "t_array(t_bool)dyn_storage": {
        "base": "t_bool",
        "encoding": "dynamic_array",
        "label": "bool[]",
        "numberOfBytes": "32"
      },
      "t_array(t_bytes8)dyn_storage": {
        "base": "t_bytes8",
        "encoding": "dynamic_array",
        "label": "bytes8[]",
        "numberOfBytes": "32"
      },
      "t_array(t_uint64)dyn_storage": {
        "base": "t_uint64",
        "encoding": "dynamic_array",
        "label": "uint64[]",
        "numberOfBytes": "32"
      },
      "t_bool": {
        "encoding": "inplace",
        "label": "bool",
        "numberOfBytes": "1"
      },
      "t_bytes8": {
        "encoding": "inplace",
        "label": "bytes8",
        "numberOfBytes": "8"
      },
      "t_uint256": {
        "encoding": "inplace",
        "label": "uint256",
        "numberOfBytes": "32"
      },
      "t_uint64": {
        "encoding": "inplace",
        "label": "uint64",
        "numberOfBytes": "8"
      }
    }
  }
}