{
  "address": "0xc353f5d3C6Eb753b36F8FBd3Dd06F9F185fFED9e",
  "abi": [
    {
      "inputs": [
        {
          "internalType": "uint64",
          "name": "cycle",
          "type": "uint64"
        }
      ],
      "name": "rtcCycleToTime",
      "outputs": [
        {
          "internalType": "uint64",
          "name": "",
          "type": "uint64"
        }
      ],
      "stateMutability": "pure",
      "type": "function"
    },
    {
      "inputs": [
        {
          "internalType": "uint64",
          "name": "cycle",
          "type": "uint64"
        }
      ],
      "name": "rtcIsTick",
      "outputs": [
        {
          "internalType": "bool",
          "name": "",
          "type": "bool"
        }
      ],
      "stateMutability": "pure",
      "type": "function"
    },
    {
      "inputs": [
        {
          "internalType": "uint64",
          "name": "time",
          "type": "uint64"
        }
      ],
      "name": "rtcTimeToCycle",
      "outputs": [
        {
          "internalType": "uint64",
          "name": "",
          "type": "uint64"
        }
      ],
      "stateMutability": "pure",
      "type": "function"
    }
  ],
  "transactionHash": "0x3d43b7d4d648707cc9e9b861f392c9574f646eb05927f65db5970c69c4ed8549",
  "args": [],
  "solcInputHash": "22331477fa25ad4b7a7c528cc1c6cc0c",
  "bytecode": "0x610159610026600b82828239805160001a60731461001957fe5b30600052607381538281f3fe730000000000000000000000000000000000000000301460806040526004361061004b5760003560e01c8063453f06be1461005057806368bd2a5614610094578063c3965d97146100bb575b600080fd5b6100776004803603602081101561006657600080fd5b503567ffffffffffffffff166100f6565b6040805167ffffffffffffffff9092168252519081900360200190f35b610077600480360360208110156100aa57600080fd5b503567ffffffffffffffff16610109565b6100e2600480360360208110156100d157600080fd5b503567ffffffffffffffff1661010f565b604080519115158252519081900360200190f35b606467ffffffffffffffff919091160490565b60640290565b606467ffffffffffffffff9182160616159056fea2646970667358221220a30f37b2f35994b571c9928ccd878238e92ee34ed0c802f57b67766d6979e69064736f6c63430007040033",
  "devdoc": {
    "author": "Felipe Argento",
    "kind": "dev",
    "methods": {
      "rtcCycleToTime(uint64)": {
        "params": {
          "cycle": "Cycle count"
        },
        "returns": {
          "_0": "Time count"
        }
      },
      "rtcIsTick(uint64)": {
        "params": {
          "cycle": "Cycle count"
        }
      },
      "rtcTimeToCycle(uint64)": {
        "params": {
          "time": "Time count"
        },
        "returns": {
          "_0": "Cycle count"
        }
      }
    },
    "title": "RealTimeClock",
    "version": 1
  },
  "userdoc": {
    "kind": "user",
    "methods": {
      "rtcCycleToTime(uint64)": {
        "notice": "Converts from cycle count to time count"
      },
      "rtcIsTick(uint64)": {
        "notice": "Returns whether the cycle is a RTC tick"
      },
      "rtcTimeToCycle(uint64)": {
        "notice": "Converts from time count to cycle count"
      }
    },
    "notice": "Real Time clock simulator",
    "version": 1
  },
  "storageLayout": {
    "storage": [],
    "types": null
  }
}