{
  "address": "0xC474d6dE15875D48e7A7E4d109006ABaDBa416C4",
  "abi": [
    {
      "inputs": [
        {
          "internalType": "address",
          "name": "miAddress",
          "type": "address"
        }
      ],
      "stateMutability": "nonpayable",
      "type": "constructor"
    },
    {
      "anonymous": false,
      "inputs": [
        {
          "indexed": false,
          "internalType": "uint8",
          "name": "exitCode",
          "type": "uint8"
        }
      ],
      "name": "StepGiven",
      "type": "event"
    },
    {
      "anonymous": false,
      "inputs": [
        {
          "indexed": false,
          "internalType": "uint64",
          "name": "cycle",
          "type": "uint64"
        },
        {
          "indexed": false,
          "internalType": "bool",
          "name": "halt",
          "type": "bool"
        }
      ],
      "name": "StepStatus",
      "type": "event"
    },
    {
      "inputs": [],
      "name": "getMemoryInteractor",
      "outputs": [
        {
          "internalType": "address",
          "name": "",
          "type": "address"
        }
      ],
      "stateMutability": "view",
      "type": "function"
    },
    {
      "inputs": [
        {
          "internalType": "uint64[]",
          "name": "_rwPositions",
          "type": "uint64[]"
        },
        {
          "internalType": "bytes8[]",
          "name": "_rwValues",
          "type": "bytes8[]"
        },
        {
          "internalType": "bool[]",
          "name": "_isRead",
          "type": "bool[]"
        }
      ],
      "name": "step",
      "outputs": [
        {
          "internalType": "uint8",
          "name": "",
          "type": "uint8"
        },
        {
          "internalType": "uint256",
          "name": "",
          "type": "uint256"
        }
      ],
      "stateMutability": "nonpayable",
      "type": "function"
    }
  ],
  "transactionHash": "0x63faa92401da9a91aeb3809efd8e89b397f7106046dc81c3f74cfc604d97bcbe",
  "args": [
    "0x6F1265B9c637241FAB063aC308467d26E49E2F88"
  ],
  "solcInputHash": "cacea020086e46d19bd052f6c12f6e45",
  "bytecode": "0x608060405234801561001057600080fd5b50604051610c33380380610c338339818101604052602081101561003357600080fd5b5051600080546001600160a01b039092166001600160a01b0319909216919091179055610bce806100656000396000f3fe608060405234801561001057600080fd5b50600436106100365760003560e01c80637718d4c81461003b578063a35b2d0714610203575b600080fd5b6101e66004803603606081101561005157600080fd5b81019060208101813564010000000081111561006c57600080fd5b82018360208201111561007e57600080fd5b803590602001918460208302840111640100000000831117156100a057600080fd5b91908080602002602001604051908101604052809392919081815260200183836020028082843760009201919091525092959493602081019350359150506401000000008111156100f057600080fd5b82018360208201111561010257600080fd5b8035906020019184602083028401116401000000008311171561012457600080fd5b919080806020026020016040519081016040528093929190818152602001838360200280828437600092019190915250929594936020810193503591505064010000000081111561017457600080fd5b82018360208201111561018657600080fd5b803590602001918460208302840111640100000000831117156101a857600080fd5b919080806020026020016040519081016040528093929190818152602001838360200280828437600092019190915250929550610227945050505050565b6040805160ff909316835260208301919091528051918290030190f35b61020b610ab4565b604080516001600160a01b039092168252519081900360200190f35b6000805460405163a47594df60e01b815260606004820190815286516064830152865184936001600160a01b03169263a47594df9289928992899291829160248101916044820191608401906020808a0191028083838f5b8381101561029757818101518382015260200161027f565b50505050905001848103835286818151815260200191508051906020019060200280838360005b838110156102d65781810151838201526020016102be565b50505050905001848103825285818151815260200191508051906020019060200280838360005b838110156103155781810151838201526020016102fd565b505050509050019650505050505050600060405180830381600087803b15801561033e57600080fd5b505af1158015610352573d6000803e3d6000fd5b5050505060008060009054906101000a90046001600160a01b03166001600160a01b031663daded5c26040518163ffffffff1660e01b8152600401602060405180830381600087803b1580156103a757600080fd5b505af11580156103bb573d6000803e3d6000fd5b505050506040513d60208110156103d157600080fd5b5051905067ffffffffffffffff80821610610424576040805160008152600160208201528151600080516020610b79833981519152929181900390910190a161041a6000610ac3565b9250925050610aac565b60008060009054906101000a90046001600160a01b03166001600160a01b031663968644f06040518163ffffffff1660e01b8152600401602060405180830381600087803b15801561047557600080fd5b505af1158015610489573d6000803e3d6000fd5b505050506040513d602081101561049f57600080fd5b5051905067ffffffffffffffff8116156104f2576040805160008152600160208201528151600080516020610b79833981519152929181900390910190a16104e76000610ac3565b935093505050610aac565b60008060009054906101000a90046001600160a01b03166001600160a01b031663d40d17c56040518163ffffffff1660e01b8152600401602060405180830381600087803b15801561054357600080fd5b505af1158015610557573d6000803e3d6000fd5b505050506040513d602081101561056d57600080fd5b5051905067ffffffffffffffff8116156105c1576040805160008152600160208201528151600080516020610b79833981519152929181900390910190a16105b56000610ac3565b94509450505050610aac565b6000805460408051630593f64960e51b81526004810184905290516001600160a01b039092169263b27ec9209260248084019382900301818387803b15801561060957600080fd5b505af115801561061d573d6000803e3d6000fd5b5050600080546040805163087426fd60e01b81526001600160a01b03909216600483015267ffffffffffffffff881660248301525173B934EF6130E70515d63Ec880933b09030337a5a0945063087426fd935060448083019392829003018186803b15801561068b57600080fd5b505af415801561069f573d6000803e3d6000fd5b505060008054604080516365f308d960e11b81526001600160a01b0390921660048301525173B934EF6130E70515d63Ec880933b09030337a5a0945063cbe611b2935060248083019392829003018186803b1580156106fd57600080fd5b505af4158015610711573d6000803e3d6000fd5b50506000805460408051639978acc960e01b81526001600160a01b03909216600483015251919350839250829173ebd366c1ba67aa943f90fb29476E08F12608f3EE91639978acc9916024808301926060929190829003018186803b15801561077957600080fd5b505af415801561078d573d6000803e3d6000fd5b505050506040513d60608110156107a357600080fd5b50805160208201516040909201519094509250905060018360018111156107c657fe5b14156109755760016000546040805163928bd0b360e01b81526001600160a01b03909216600483015263ffffffff8416602483015267ffffffffffffffff851660448301525173fa315B3E3B9D5Fe150e22c98534A658eBdB944b29163928bd0b3916064808301926020929190829003018186803b15801561084757600080fd5b505af415801561085b573d6000803e3d6000fd5b505050506040513d602081101561087157600080fd5b5051600181111561087e57fe5b14156109755760008060009054906101000a90046001600160a01b03166001600160a01b03166328520b306040518163ffffffff1660e01b8152600401602060405180830381600087803b1580156108d557600080fd5b505af11580156108e9573d6000803e3d6000fd5b505050506040513d60208110156108ff57600080fd5b505160008054604080516310d74c7d60e01b815267ffffffffffffffff6001860116600482015290519394506001600160a01b03909116926310d74c7d9260248084019391929182900301818387803b15801561095b57600080fd5b505af115801561096f573d6000803e3d6000fd5b50505050505b60008054906101000a90046001600160a01b03166001600160a01b031663daded5c26040518163ffffffff1660e01b8152600401602060405180830381600087803b1580156109c357600080fd5b505af11580156109d7573d6000803e3d6000fd5b505050506040513d60208110156109ed57600080fd5b50516000805460408051632f2e532960e11b815267ffffffffffffffff6001860116600482015290519399506001600160a01b0390911692635e5ca6529260248084019391929182900301818387803b158015610a4957600080fd5b505af1158015610a5d573d6000803e3d6000fd5b50506040805167ffffffffffffffff60018b01168152600060208201528151600080516020610b798339815191529450908190039091019150a1610aa16000610ac3565b975097505050505050505b935093915050565b6000546001600160a01b031690565b6040805160ff83168152905160009182917f7ab9c6180230b32e97c918b15c3ccdb0d19d07b998239db4ac2b444998ac258c9181900360200190a16000546040805163080aa5d160e01b8152905185926001600160a01b03169163080aa5d1916004808301926020929190829003018186803b158015610b4257600080fd5b505afa158015610b56573d6000803e3d6000fd5b505050506040513d6020811015610b6c57600080fd5b5051909250905091509156fe1c2f71cc57d08d5100cbfe85453264ffe21b7949f28975257ca67cdb929d6b5ea264697066735822122005d1ffb629fe2a7090bd9fe836a6e6683a27db91a686ef64c8517c83ebab785b64736f6c63430007040033",
  "deployedBytecode": "0x608060405234801561001057600080fd5b50600436106100365760003560e01c80637718d4c81461003b578063a35b2d0714610203575b600080fd5b6101e66004803603606081101561005157600080fd5b81019060208101813564010000000081111561006c57600080fd5b82018360208201111561007e57600080fd5b803590602001918460208302840111640100000000831117156100a057600080fd5b91908080602002602001604051908101604052809392919081815260200183836020028082843760009201919091525092959493602081019350359150506401000000008111156100f057600080fd5b82018360208201111561010257600080fd5b8035906020019184602083028401116401000000008311171561012457600080fd5b919080806020026020016040519081016040528093929190818152602001838360200280828437600092019190915250929594936020810193503591505064010000000081111561017457600080fd5b82018360208201111561018657600080fd5b803590602001918460208302840111640100000000831117156101a857600080fd5b919080806020026020016040519081016040528093929190818152602001838360200280828437600092019190915250929550610227945050505050565b6040805160ff909316835260208301919091528051918290030190f35b61020b610ab4565b604080516001600160a01b039092168252519081900360200190f35b6000805460405163a47594df60e01b815260606004820190815286516064830152865184936001600160a01b03169263a47594df9289928992899291829160248101916044820191608401906020808a0191028083838f5b8381101561029757818101518382015260200161027f565b50505050905001848103835286818151815260200191508051906020019060200280838360005b838110156102d65781810151838201526020016102be565b50505050905001848103825285818151815260200191508051906020019060200280838360005b838110156103155781810151838201526020016102fd565b505050509050019650505050505050600060405180830381600087803b15801561033e57600080fd5b505af1158015610352573d6000803e3d6000fd5b5050505060008060009054906101000a90046001600160a01b03166001600160a01b031663daded5c26040518163ffffffff1660e01b8152600401602060405180830381600087803b1580156103a757600080fd5b505af11580156103bb573d6000803e3d6000fd5b505050506040513d60208110156103d157600080fd5b5051905067ffffffffffffffff80821610610424576040805160008152600160208201528151600080516020610b79833981519152929181900390910190a161041a6000610ac3565b9250925050610aac565b60008060009054906101000a90046001600160a01b03166001600160a01b031663968644f06040518163ffffffff1660e01b8152600401602060405180830381600087803b15801561047557600080fd5b505af1158015610489573d6000803e3d6000fd5b505050506040513d602081101561049f57600080fd5b5051905067ffffffffffffffff8116156104f2576040805160008152600160208201528151600080516020610b79833981519152929181900390910190a16104e76000610ac3565b935093505050610aac565b60008060009054906101000a90046001600160a01b03166001600160a01b031663d40d17c56040518163ffffffff1660e01b8152600401602060405180830381600087803b15801561054357600080fd5b505af1158015610557573d6000803e3d6000fd5b505050506040513d602081101561056d57600080fd5b5051905067ffffffffffffffff8116156105c1576040805160008152600160208201528151600080516020610b79833981519152929181900390910190a16105b56000610ac3565b94509450505050610aac565b6000805460408051630593f64960e51b81526004810184905290516001600160a01b039092169263b27ec9209260248084019382900301818387803b15801561060957600080fd5b505af115801561061d573d6000803e3d6000fd5b5050600080546040805163087426fd60e01b81526001600160a01b03909216600483015267ffffffffffffffff881660248301525173__$e08e6d0ed5a2f97ab06cd853d8e2c12bde$__945063087426fd935060448083019392829003018186803b15801561068b57600080fd5b505af415801561069f573d6000803e3d6000fd5b505060008054604080516365f308d960e11b81526001600160a01b0390921660048301525173__$e08e6d0ed5a2f97ab06cd853d8e2c12bde$__945063cbe611b2935060248083019392829003018186803b1580156106fd57600080fd5b505af4158015610711573d6000803e3d6000fd5b50506000805460408051639978acc960e01b81526001600160a01b03909216600483015251919350839250829173__$93738ed6f6c48fbd225a05e1ca9d77bedb$__91639978acc9916024808301926060929190829003018186803b15801561077957600080fd5b505af415801561078d573d6000803e3d6000fd5b505050506040513d60608110156107a357600080fd5b50805160208201516040909201519094509250905060018360018111156107c657fe5b14156109755760016000546040805163928bd0b360e01b81526001600160a01b03909216600483015263ffffffff8416602483015267ffffffffffffffff851660448301525173__$b4d3b52b5c4c117191241ce0fc2957ce68$__9163928bd0b3916064808301926020929190829003018186803b15801561084757600080fd5b505af415801561085b573d6000803e3d6000fd5b505050506040513d602081101561087157600080fd5b5051600181111561087e57fe5b14156109755760008060009054906101000a90046001600160a01b03166001600160a01b03166328520b306040518163ffffffff1660e01b8152600401602060405180830381600087803b1580156108d557600080fd5b505af11580156108e9573d6000803e3d6000fd5b505050506040513d60208110156108ff57600080fd5b505160008054604080516310d74c7d60e01b815267ffffffffffffffff6001860116600482015290519394506001600160a01b03909116926310d74c7d9260248084019391929182900301818387803b15801561095b57600080fd5b505af115801561096f573d6000803e3d6000fd5b50505050505b60008054906101000a90046001600160a01b03166001600160a01b031663daded5c26040518163ffffffff1660e01b8152600401602060405180830381600087803b1580156109c357600080fd5b505af11580156109d7573d6000803e3d6000fd5b505050506040513d60208110156109ed57600080fd5b50516000805460408051632f2e532960e11b815267ffffffffffffffff6001860116600482015290519399506001600160a01b0390911692635e5ca6529260248084019391929182900301818387803b158015610a4957600080fd5b505af1158015610a5d573d6000803e3d6000fd5b50506040805167ffffffffffffffff60018b01168152600060208201528151600080516020610b798339815191529450908190039091019150a1610aa16000610ac3565b975097505050505050505b935093915050565b6000546001600160a01b031690565b6040805160ff83168152905160009182917f7ab9c6180230b32e97c918b15c3ccdb0d19d07b998239db4ac2b444998ac258c9181900360200190a16000546040805163080aa5d160e01b8152905185926001600160a01b03169163080aa5d1916004808301926020929190829003018186803b158015610b4257600080fd5b505afa158015610b56573d6000803e3d6000fd5b505050506040513d6020811015610b6c57600080fd5b5051909250905091509156fe1c2f71cc57d08d5100cbfe85453264ffe21b7949f28975257ca67cdb929d6b5ea264697066735822122005d1ffb629fe2a7090bd9fe836a6e6683a27db91a686ef64c8517c83ebab785b64736f6c63430007040033",
  "libraries": {
    "RiscVDecoder": "0xC8318A115d1Dc696EAD84A1a50f37475bB2D0A14",
    "RiscVConstants": "0xA41fa98448A22491d1aDDc6D20e4404214e1CB2E",
    "ShadowAddresses": "0x665a6a7b86bB63EAA1AcCED021D64B121eE63D77",
    "Fetch": "0xebd366c1ba67aa943f90fb29476E08F12608f3EE",
    "Interrupts": "0xB934EF6130E70515d63Ec880933b09030337a5a0",
    "Execute": "0xfa315B3E3B9D5Fe150e22c98534A658eBdB944b2"
  },
  "devdoc": {
    "author": "Felipe Argento",
    "kind": "dev",
    "methods": {
      "step(uint64[],bytes8[],bool[])": {
        "params": {
          "_isRead": "bool specifying if access is a read",
          "_rwPositions": "position of all read and writes",
          "_rwValues": "value of all read and writes"
        },
        "returns": {
          "_0": "Returns an exit code.",
          "_1": "Returns an exit code and the amount of memory accesses"
        }
      }
    },
    "title": "Step",
    "version": 1
  },
  "userdoc": {
    "kind": "user",
    "methods": {
      "step(uint64[],bytes8[],bool[])": {
        "notice": "Run step define by a MemoryManager instance."
      }
    },
    "notice": "State transiction function that takes the machine from state s[i] to s[i + 1]",
    "version": 1
  },
  "storageLayout": {
    "storage": [
      {
        "astId": 14275,
        "contract": "contracts/Step.sol:Step",
        "label": "mi",
        "offset": 0,
        "slot": "0",
        "type": "t_contract(MemoryInteractor)7275"
      }
    ],
    "types": {
      "t_contract(MemoryInteractor)7275": {
        "encoding": "inplace",
        "label": "contract MemoryInteractor",
        "numberOfBytes": "20"
      }
    }
  }
}