{
  "address": "0xE9CcC831fAfB8FdE006Dadb8e376Bb8119A29579",
  "abi": [
    {
      "inputs": [],
      "name": "getHtifFromHostAddr",
      "outputs": [
        {
          "internalType": "uint64",
          "name": "",
          "type": "uint64"
        }
      ],
      "stateMutability": "pure",
      "type": "function"
    },
    {
      "inputs": [],
      "name": "getHtifIYieldAddr",
      "outputs": [
        {
          "internalType": "uint64",
          "name": "",
          "type": "uint64"
        }
      ],
      "stateMutability": "pure",
      "type": "function"
    },
    {
      "inputs": [],
      "name": "getHtifToHostAddr",
      "outputs": [
        {
          "internalType": "uint64",
          "name": "",
          "type": "uint64"
        }
      ],
      "stateMutability": "pure",
      "type": "function"
    }
  ],
  "transactionHash": "0x72d13d1dbd800eaea96ec5158c32e33ff3f1e3dfa7b0dd04eab6c467b631c435",
  "args": [],
  "solcInputHash": "4ab6a1e1786521c94a86efcef741c284",
  "bytecode": "0x610797610026600b82828239805160001a60731461001957fe5b30600052607381538281f3fe73000000000000000000000000000000000000000030146080604052600436106100615760003560e01c8063035173f2146100665780630a279d71146100d3578063521819f5146100f75780636299ea3f146100ff57806391b7852314610107575b600080fd5b81801561007257600080fd5b506100b06004803603606081101561008957600080fd5b506001600160a01b03813516906001600160401b036020820135811691604001351661016f565b6040805192151583526001600160401b0390911660208301528051918290030190f35b6100db610286565b604080516001600160401b039092168252519081900360200190f35b6100db61028e565b6100db610296565b81801561011357600080fd5b5061015b6004803603608081101561012a57600080fd5b506001600160a01b03813516906001600160401b03602082013581169160408101358216916060909101351661029e565b604080519115158252519081900360200190f35b600080826001600160401b0316604014158061018d57506007841615155b1561019d5750600090508061027e565b6001600160401b03841663400080001415610225576001856001600160a01b03166334970f186040518163ffffffff1660e01b8152600401602060405180830381600087803b1580156101ef57600080fd5b505af1158015610203573d6000803e3d6000fd5b505050506040513d602081101561021957600080fd5b5051909250905061027e565b6001600160401b03841663400080081415610277576001856001600160a01b031663f2cf6ceb6040518163ffffffff1660e01b8152600401602060405180830381600087803b1580156101ef57600080fd5b5060009050805b935093915050565b634000800890565b634000800090565b634000802090565b6000816001600160401b031660401415806102bb57506007841615155b156102c857506000610377565b6001600160401b038416634000800014156102ee576102e7858461037f565b9050610377565b6001600160401b0384166340008008141561037357846001600160a01b031663b2325aef846040518263ffffffff1660e01b815260040180826001600160401b03168152602001915050600060405180830381600087803b15801561035257600080fd5b505af1158015610366573d6000803e3d6000fd5b5050505060019050610377565b5060005b949350505050565b60408051633757128560e21b81526001600160401b0383166004820152905160009160ff603885901c811692603086901c9091169163ffffffff8616916001600160a01b0388169163dd5c4a14916024808301928992919082900301818387803b1580156103ec57600080fd5b505af1158015610400573d6000803e3d6000fd5b5050505063ffffffff831661042a57610420868363ffffffff1683610478565b9350505050610472565b63ffffffff83166001141561044a57610420868363ffffffff1683610504565b63ffffffff83166002141561046a57610420868363ffffffff1683610546565b600193505050505b92915050565b60006001600160401b03831615801561049357506001808316145b156104f9576040805163a7458b9560e01b81526001600482015290516001600160a01b0386169163a7458b9591602480830192600092919082900301818387803b1580156104e057600080fd5b505af11580156104f4573d6000803e3d6000fd5b505050505b5060015b9392505050565b60006001600160401b03831660011415610527576105218461069d565b506104fd565b6001600160401b03831661053e576105218461070f565b5060016104fd565b6000826001600160401b0316846001600160a01b0316636f6c0e7d6040518163ffffffff1660e01b8152600401602060405180830381600087803b15801561058d57600080fd5b505af11580156105a1573d6000803e3d6000fd5b505050506040513d60208110156105b757600080fd5b50516001600160401b0316901c600190811614156104f95760408051631d245dab60e11b81526001600482015290516001600160a01b03861691633a48bb5691602480830192600092919082900301818387803b15801561061757600080fd5b505af115801561062b573d6000803e3d6000fd5b50506040805163b2325aef60e01b81526702000000000000006dffffffffffffffff000000000000603089901b16176001600160401b0316600482015290516001600160a01b038816935063b2325aef9250602480830192600092919082900301818387803b1580156104e057600080fd5b6040805163b2325aef60e01b8152670101000000000000600482015290516000916001600160a01b0384169163b2325aef91602480820192869290919082900301818387803b1580156106ef57600080fd5b505af1158015610703573d6000803e3d6000fd5b50600195945050505050565b6040805163b2325aef60e01b8152670100000000000000600482015290516000916001600160a01b0384169163b2325aef91602480820192869290919082900301818387803b1580156106ef57600080fdfea2646970667358221220bf370389543bd37e27b94ca25be459aaa5864fb83e5ddee2e1fb9525a4f1eb0864736f6c63430007040033",
  "libraries": {
    "RiscVConstants": "0x9586E5cD4eca81a2617aB2f00FAaf1c8114cDA44",
    "RealTimeClock": "0xFB030f35bd46a1543BeEB7876A68940B39eE9748"
  },
  "devdoc": {
    "author": "Felipe Argento",
    "details": "Its active addresses are 0x40000000(tohost) and 0x40000008(from host) Reference: The Core of Cartesi, v1.02 - Section 3.2 - The Board",
    "kind": "dev",
    "methods": {
      "htifRead(MemoryInteractor,uint64,uint64)": {
        "params": {
          "addr": "address to read from",
          "mi": "Memory Interactor with which Step function is interacting.",
          "wordSize": "can be uint8, uint16, uint32 or uint64"
        },
        "returns": {
          "_0": "bool if read was successfull",
          "_1": "uint64 pval"
        }
      },
      "htifWrite(MemoryInteractor,uint64,uint64,uint64)": {
        "params": {
          "addr": "address to read from",
          "mi": "Memory Interactor with which Step function is interacting.",
          "val": "value to be written",
          "wordSize": "can be uint8, uint16, uint32 or uint64"
        },
        "returns": {
          "_0": "bool if write was successfull"
        }
      }
    },
    "title": "HTIF",
    "version": 1
  },
  "userdoc": {
    "kind": "user",
    "methods": {
      "htifRead(MemoryInteractor,uint64,uint64)": {
        "notice": "reads htif"
      },
      "htifWrite(MemoryInteractor,uint64,uint64,uint64)": {
        "notice": "write htif"
      }
    },
    "notice": "Host-Target-Interface (HTIF) mediates communcation with external world.",
    "version": 1
  },
  "storageLayout": {
    "storage": [],
    "types": null
  }
}