{
  "address": "0x8BbDc41eB04E722C8fcd33B429cf4CD0107230c4",
  "abi": [
    {
      "inputs": [],
      "name": "getClintMtimecmp",
      "outputs": [
        {
          "internalType": "uint64",
          "name": "",
          "type": "uint64"
        }
      ],
      "stateMutability": "pure",
      "type": "function"
    }
  ],
  "transactionHash": "0xcfca99ff354761e2e652a2bd73c85dedb1d2d817d05bb2edf9dde8d79636e77e",
  "args": [],
  "solcInputHash": "cacea020086e46d19bd052f6c12f6e45",
  "bytecode": "0x610812610026600b82828239805160001a60731461001957fe5b30600052607381538281f3fe730000000000000000000000000000000000000000301460806040526004361061004b5760003560e01c806362cba9aa1461005057806387098135146100b8578063e1e9c4a5146100dc575b600080fd5b81801561005c57600080fd5b506100a46004803603608081101561007357600080fd5b506001600160a01b03813516906001600160401b036020820135811691604081013582169160609091013516610149565b604080519115158252519081900360200190f35b6100c0610438565b604080516001600160401b039092168252519081900360200190f35b8180156100e857600080fd5b50610126600480360360608110156100ff57600080fd5b506001600160a01b03813516906001600160401b0360208201358116916040013516610440565b6040805192151583526001600160401b0390911660208301528051918290030190f35b60006001600160401b0384166302000000141561034b57816001600160401b03166020141561034357600183161561025d57846001600160a01b03166345057ed773f8A794c24e3992998cb682D3896D9b36fa84c21d632968a7bd6040518163ffffffff1660e01b815260040160206040518083038186803b1580156101ce57600080fd5b505af41580156101e2573d6000803e3d6000fd5b505050506040513d60208110156101f857600080fd5b5051604080516001600160e01b031960e085901b1681526001600160401b03909216600483015251602480830192600092919082900301818387803b15801561024057600080fd5b505af1158015610254573d6000803e3d6000fd5b5050505061033b565b846001600160a01b03166315dd9c0673f8A794c24e3992998cb682D3896D9b36fa84c21d632968a7bd6040518163ffffffff1660e01b815260040160206040518083038186803b1580156102b057600080fd5b505af41580156102c4573d6000803e3d6000fd5b505050506040513d60208110156102da57600080fd5b5051604080516001600160e01b031960e085901b1681526001600160401b03909216600483015251602480830192600092919082900301818387803b15801561032257600080fd5b505af1158015610336573d6000803e3d6000fd5b505050505b506001610430565b506000610430565b6001600160401b0384166302004000141561042c57816001600160401b03166040141561034357846001600160a01b031663fbdb975d846040518263ffffffff1660e01b815260040180826001600160401b03168152602001915050600060405180830381600087803b1580156103c157600080fd5b505af11580156103d5573d6000803e3d6000fd5b50505050846001600160a01b03166315dd9c0673f8A794c24e3992998cb682D3896D9b36fa84c21d632968a7bd6040518163ffffffff1660e01b815260040160206040518083038186803b1580156102b057600080fd5b5060005b949350505050565b630200400090565b6000806001600160401b0384166302000000141561046b5761046285846104b8565b915091506104b0565b6001600160401b0384166302004000141561048a576104628584610663565b6001600160401b038416630200bff814156104a9576104628584610776565b5060009050805b935093915050565b600080826001600160401b0316602014156106555773f8A794c24e3992998cb682D3896D9b36fa84c21d632968a7bd6040518163ffffffff1660e01b815260040160206040518083038186803b15801561051157600080fd5b505af4158015610525573d6000803e3d6000fd5b505050506040513d602081101561053b57600080fd5b505160408051632968a7bd60e01b815290516001600160401b039092169173f8A794c24e3992998cb682D3896D9b36fa84c21d91632968a7bd916004808301926020929190829003018186803b15801561059457600080fd5b505af41580156105a8573d6000803e3d6000fd5b505050506040513d60208110156105be57600080fd5b50516040805163a317ce9d60e01b815290516001600160a01b0388169163a317ce9d9160048083019260209291908290030181600087803b15801561060257600080fd5b505af1158015610616573d6000803e3d6000fd5b505050506040513d602081101561062c57600080fd5b5051166001600160401b031614156106495750600190508061065c565b5060019050600061065c565b5060009050805b9250929050565b600080826001600160401b03166040141561065557600173D2443f6586D0049FC6BC07C2256f077359372c8763453f06be866001600160a01b031663daded5c26040518163ffffffff1660e01b8152600401602060405180830381600087803b1580156106cf57600080fd5b505af11580156106e3573d6000803e3d6000fd5b505050506040513d60208110156106f957600080fd5b5051604080516001600160e01b031960e085901b1681526001600160401b039092166004830152516024808301926020929190829003018186803b15801561074057600080fd5b505af4158015610754573d6000803e3d6000fd5b505050506040513d602081101561076a57600080fd5b5051909250905061065c565b600080826001600160401b031660401415610655576001846001600160a01b0316636475e3426040518163ffffffff1660e01b8152600401602060405180830381600087803b1580156107c857600080fd5b505af1158015610754573d6000803e3d6000fdfea26469706673582212209fbcda33b82dad5cb916890570b8888ea96bc469c7c1f347418b546800c9b0ea64736f6c63430007040033",
  "deployedBytecode": "0x730000000000000000000000000000000000000000301460806040526004361061004b5760003560e01c806362cba9aa1461005057806387098135146100b8578063e1e9c4a5146100dc575b600080fd5b81801561005c57600080fd5b506100a46004803603608081101561007357600080fd5b506001600160a01b03813516906001600160401b036020820135811691604081013582169160609091013516610149565b604080519115158252519081900360200190f35b6100c0610438565b604080516001600160401b039092168252519081900360200190f35b8180156100e857600080fd5b50610126600480360360608110156100ff57600080fd5b506001600160a01b03813516906001600160401b0360208201358116916040013516610440565b6040805192151583526001600160401b0390911660208301528051918290030190f35b60006001600160401b0384166302000000141561034b57816001600160401b03166020141561034357600183161561025d57846001600160a01b03166345057ed773__$6af7953b03ecb3cadd1ca9bb3675b9b8d6$__632968a7bd6040518163ffffffff1660e01b815260040160206040518083038186803b1580156101ce57600080fd5b505af41580156101e2573d6000803e3d6000fd5b505050506040513d60208110156101f857600080fd5b5051604080516001600160e01b031960e085901b1681526001600160401b03909216600483015251602480830192600092919082900301818387803b15801561024057600080fd5b505af1158015610254573d6000803e3d6000fd5b5050505061033b565b846001600160a01b03166315dd9c0673__$6af7953b03ecb3cadd1ca9bb3675b9b8d6$__632968a7bd6040518163ffffffff1660e01b815260040160206040518083038186803b1580156102b057600080fd5b505af41580156102c4573d6000803e3d6000fd5b505050506040513d60208110156102da57600080fd5b5051604080516001600160e01b031960e085901b1681526001600160401b03909216600483015251602480830192600092919082900301818387803b15801561032257600080fd5b505af1158015610336573d6000803e3d6000fd5b505050505b506001610430565b506000610430565b6001600160401b0384166302004000141561042c57816001600160401b03166040141561034357846001600160a01b031663fbdb975d846040518263ffffffff1660e01b815260040180826001600160401b03168152602001915050600060405180830381600087803b1580156103c157600080fd5b505af11580156103d5573d6000803e3d6000fd5b50505050846001600160a01b03166315dd9c0673__$6af7953b03ecb3cadd1ca9bb3675b9b8d6$__632968a7bd6040518163ffffffff1660e01b815260040160206040518083038186803b1580156102b057600080fd5b5060005b949350505050565b630200400090565b6000806001600160401b0384166302000000141561046b5761046285846104b8565b915091506104b0565b6001600160401b0384166302004000141561048a576104628584610663565b6001600160401b038416630200bff814156104a9576104628584610776565b5060009050805b935093915050565b600080826001600160401b0316602014156106555773__$6af7953b03ecb3cadd1ca9bb3675b9b8d6$__632968a7bd6040518163ffffffff1660e01b815260040160206040518083038186803b15801561051157600080fd5b505af4158015610525573d6000803e3d6000fd5b505050506040513d602081101561053b57600080fd5b505160408051632968a7bd60e01b815290516001600160401b039092169173__$6af7953b03ecb3cadd1ca9bb3675b9b8d6$__91632968a7bd916004808301926020929190829003018186803b15801561059457600080fd5b505af41580156105a8573d6000803e3d6000fd5b505050506040513d60208110156105be57600080fd5b50516040805163a317ce9d60e01b815290516001600160a01b0388169163a317ce9d9160048083019260209291908290030181600087803b15801561060257600080fd5b505af1158015610616573d6000803e3d6000fd5b505050506040513d602081101561062c57600080fd5b5051166001600160401b031614156106495750600190508061065c565b5060019050600061065c565b5060009050805b9250929050565b600080826001600160401b03166040141561065557600173__$b9271eb2291c300ff9debb50e0e3ab0f42$__63453f06be866001600160a01b031663daded5c26040518163ffffffff1660e01b8152600401602060405180830381600087803b1580156106cf57600080fd5b505af11580156106e3573d6000803e3d6000fd5b505050506040513d60208110156106f957600080fd5b5051604080516001600160e01b031960e085901b1681526001600160401b039092166004830152516024808301926020929190829003018186803b15801561074057600080fd5b505af4158015610754573d6000803e3d6000fd5b505050506040513d602081101561076a57600080fd5b5051909250905061065c565b600080826001600160401b031660401415610655576001846001600160a01b0316636475e3426040518163ffffffff1660e01b8152600401602060405180830381600087803b1580156107c857600080fd5b505af1158015610754573d6000803e3d6000fdfea26469706673582212209fbcda33b82dad5cb916890570b8888ea96bc469c7c1f347418b546800c9b0ea64736f6c63430007040033",
  "libraries": {
    "RiscVConstants": "0xf8A794c24e3992998cb682D3896D9b36fa84c21d",
    "RealTimeClock": "0xD2443f6586D0049FC6BC07C2256f077359372c87"
  },
  "devdoc": {
    "author": "Felipe Argento",
    "details": "CLINT active addresses are 0x0200bff8(mtime) and 0x02004000(mtimecmp) Reference: The Core of Cartesi, v1.02 - Section 3.2 - The Board",
    "kind": "dev",
    "methods": {
      "clintRead(MemoryInteractor,uint64,uint64)": {
        "params": {
          "offset": "can be uint8, uint16, uint32 or uint64",
          "wordSize": "can be uint8, uint16, uint32 or uint64"
        },
        "returns": {
          "_0": "bool if read was successfull",
          "_1": "uint64 pval"
        }
      },
      "clintWrite(MemoryInteractor,uint64,uint64,uint64)": {
        "params": {
          "mi": "Memory Interactor with which Step function is interacting.",
          "offset": "can be uint8, uint16, uint32 or uint64",
          "val": "to be written",
          "wordSize": "can be uint8, uint16, uint32 or uint64"
        },
        "returns": {
          "_0": "bool if write was successfull"
        }
      }
    },
    "title": "CLINT",
    "version": 1
  },
  "userdoc": {
    "kind": "user",
    "methods": {
      "clintRead(MemoryInteractor,uint64,uint64)": {
        "notice": "reads clint"
      },
      "clintWrite(MemoryInteractor,uint64,uint64,uint64)": {
        "notice": "write to clint"
      }
    },
    "notice": "Implements the Core Local Interruptor functionalities",
    "version": 1
  },
  "storageLayout": {
    "storage": [],
    "types": null
  }
}