{
  "address": "0xf8A794c24e3992998cb682D3896D9b36fa84c21d",
  "abi": [
    {
      "inputs": [],
      "name": "getIflagsHMask",
      "outputs": [
        {
          "internalType": "uint64",
          "name": "",
          "type": "uint64"
        }
      ],
      "stateMutability": "pure",
      "type": "function"
    },
    {
      "inputs": [],
      "name": "getIflagsHShift",
      "outputs": [
        {
          "internalType": "uint64",
          "name": "",
          "type": "uint64"
        }
      ],
      "stateMutability": "pure",
      "type": "function"
    },
    {
      "inputs": [],
      "name": "getIflagsPrvMask",
      "outputs": [
        {
          "internalType": "uint64",
          "name": "",
          "type": "uint64"
        }
      ],
      "stateMutability": "pure",
      "type": "function"
    },
    {
      "inputs": [],
      "name": "getIflagsPrvShift",
      "outputs": [
        {
          "internalType": "uint64",
          "name": "",
          "type": "uint64"
        }
      ],
      "stateMutability": "pure",
      "type": "function"
    },
    {
      "inputs": [],
      "name": "getIflagsXMask",
      "outputs": [
        {
          "internalType": "uint64",
          "name": "",
          "type": "uint64"
        }
      ],
      "stateMutability": "pure",
      "type": "function"
    },
    {
      "inputs": [],
      "name": "getIflagsXShift",
      "outputs": [
        {
          "internalType": "uint64",
          "name": "",
          "type": "uint64"
        }
      ],
      "stateMutability": "pure",
      "type": "function"
    },
    {
      "inputs": [],
      "name": "getIflagsYMask",
      "outputs": [
        {
          "internalType": "uint64",
          "name": "",
          "type": "uint64"
        }
      ],
      "stateMutability": "pure",
      "type": "function"
    },
    {
      "inputs": [],
      "name": "getIflagsYShift",
      "outputs": [
        {
          "internalType": "uint64",
          "name": "",
          "type": "uint64"
        }
      ],
      "stateMutability": "pure",
      "type": "function"
    },
    {
      "inputs": [],
      "name": "getMcauseBreakpoint",
      "outputs": [
        {
          "internalType": "uint64",
          "name": "",
          "type": "uint64"
        }
      ],
      "stateMutability": "pure",
      "type": "function"
    },
    {
      "inputs": [],
      "name": "getMcauseEcallBase",
      "outputs": [
        {
          "internalType": "uint64",
          "name": "",
          "type": "uint64"
        }
      ],
      "stateMutability": "pure",
      "type": "function"
    },
    {
      "inputs": [],
      "name": "getMcauseFetchPageFault",
      "outputs": [
        {
          "internalType": "uint64",
          "name": "",
          "type": "uint64"
        }
      ],
      "stateMutability": "pure",
      "type": "function"
    },
    {
      "inputs": [],
      "name": "getMcauseIllegalInsn",
      "outputs": [
        {
          "internalType": "uint64",
          "name": "",
          "type": "uint64"
        }
      ],
      "stateMutability": "pure",
      "type": "function"
    },
    {
      "inputs": [],
      "name": "getMcauseInsnAccessFault",
      "outputs": [
        {
          "internalType": "uint64",
          "name": "",
          "type": "uint64"
        }
      ],
      "stateMutability": "pure",
      "type": "function"
    },
    {
      "inputs": [],
      "name": "getMcauseInsnAddressMisaligned",
      "outputs": [
        {
          "internalType": "uint64",
          "name": "",
          "type": "uint64"
        }
      ],
      "stateMutability": "pure",
      "type": "function"
    },
    {
      "inputs": [],
      "name": "getMcauseInterruptFlag",
      "outputs": [
        {
          "internalType": "uint64",
          "name": "",
          "type": "uint64"
        }
      ],
      "stateMutability": "pure",
      "type": "function"
    },
    {
      "inputs": [],
      "name": "getMcauseLoadAccessFault",
      "outputs": [
        {
          "internalType": "uint64",
          "name": "",
          "type": "uint64"
        }
      ],
      "stateMutability": "pure",
      "type": "function"
    },
    {
      "inputs": [],
      "name": "getMcauseLoadAddressMisaligned",
      "outputs": [
        {
          "internalType": "uint64",
          "name": "",
          "type": "uint64"
        }
      ],
      "stateMutability": "pure",
      "type": "function"
    },
    {
      "inputs": [],
      "name": "getMcauseLoadPageFault",
      "outputs": [
        {
          "internalType": "uint64",
          "name": "",
          "type": "uint64"
        }
      ],
      "stateMutability": "pure",
      "type": "function"
    },
    {
      "inputs": [],
      "name": "getMcauseStoreAmoAccessFault",
      "outputs": [
        {
          "internalType": "uint64",
          "name": "",
          "type": "uint64"
        }
      ],
      "stateMutability": "pure",
      "type": "function"
    },
    {
      "inputs": [],
      "name": "getMcauseStoreAmoAddressMisaligned",
      "outputs": [
        {
          "internalType": "uint64",
          "name": "",
          "type": "uint64"
        }
      ],
      "stateMutability": "pure",
      "type": "function"
    },
    {
      "inputs": [],
      "name": "getMcauseStoreAmoPageFault",
      "outputs": [
        {
          "internalType": "uint64",
          "name": "",
          "type": "uint64"
        }
      ],
      "stateMutability": "pure",
      "type": "function"
    },
    {
      "inputs": [],
      "name": "getMcounterenCyMask",
      "outputs": [
        {
          "internalType": "uint64",
          "name": "",
          "type": "uint64"
        }
      ],
      "stateMutability": "pure",
      "type": "function"
    },
    {
      "inputs": [],
      "name": "getMcounterenCyShift",
      "outputs": [
        {
          "internalType": "uint64",
          "name": "",
          "type": "uint64"
        }
      ],
      "stateMutability": "pure",
      "type": "function"
    },
    {
      "inputs": [],
      "name": "getMcounterenIrMask",
      "outputs": [
        {
          "internalType": "uint64",
          "name": "",
          "type": "uint64"
        }
      ],
      "stateMutability": "pure",
      "type": "function"
    },
    {
      "inputs": [],
      "name": "getMcounterenIrShift",
      "outputs": [
        {
          "internalType": "uint64",
          "name": "",
          "type": "uint64"
        }
      ],
      "stateMutability": "pure",
      "type": "function"
    },
    {
      "inputs": [],
      "name": "getMcounterenRwMask",
      "outputs": [
        {
          "internalType": "uint64",
          "name": "",
          "type": "uint64"
        }
      ],
      "stateMutability": "pure",
      "type": "function"
    },
    {
      "inputs": [],
      "name": "getMcounterenTmMask",
      "outputs": [
        {
          "internalType": "uint64",
          "name": "",
          "type": "uint64"
        }
      ],
      "stateMutability": "pure",
      "type": "function"
    },
    {
      "inputs": [],
      "name": "getMcounterenTmShift",
      "outputs": [
        {
          "internalType": "uint64",
          "name": "",
          "type": "uint64"
        }
      ],
      "stateMutability": "pure",
      "type": "function"
    },
    {
      "inputs": [],
      "name": "getMipMeipMask",
      "outputs": [
        {
          "internalType": "uint64",
          "name": "",
          "type": "uint64"
        }
      ],
      "stateMutability": "pure",
      "type": "function"
    },
    {
      "inputs": [],
      "name": "getMipMeipShift",
      "outputs": [
        {
          "internalType": "uint64",
          "name": "",
          "type": "uint64"
        }
      ],
      "stateMutability": "pure",
      "type": "function"
    },
    {
      "inputs": [],
      "name": "getMipMsipMask",
      "outputs": [
        {
          "internalType": "uint64",
          "name": "",
          "type": "uint64"
        }
      ],
      "stateMutability": "pure",
      "type": "function"
    },
    {
      "inputs": [],
      "name": "getMipMsipShift",
      "outputs": [
        {
          "internalType": "uint64",
          "name": "",
          "type": "uint64"
        }
      ],
      "stateMutability": "pure",
      "type": "function"
    },
    {
      "inputs": [],
      "name": "getMipMtipMask",
      "outputs": [
        {
          "internalType": "uint64",
          "name": "",
          "type": "uint64"
        }
      ],
      "stateMutability": "pure",
      "type": "function"
    },
    {
      "inputs": [],
      "name": "getMipMtipShift",
      "outputs": [
        {
          "internalType": "uint64",
          "name": "",
          "type": "uint64"
        }
      ],
      "stateMutability": "pure",
      "type": "function"
    },
    {
      "inputs": [],
      "name": "getMipSeipMask",
      "outputs": [
        {
          "internalType": "uint64",
          "name": "",
          "type": "uint64"
        }
      ],
      "stateMutability": "pure",
      "type": "function"
    },
    {
      "inputs": [],
      "name": "getMipSeipShift",
      "outputs": [
        {
          "internalType": "uint64",
          "name": "",
          "type": "uint64"
        }
      ],
      "stateMutability": "pure",
      "type": "function"
    },
    {
      "inputs": [],
      "name": "getMipSsipMask",
      "outputs": [
        {
          "internalType": "uint64",
          "name": "",
          "type": "uint64"
        }
      ],
      "stateMutability": "pure",
      "type": "function"
    },
    {
      "inputs": [],
      "name": "getMipSsipShift",
      "outputs": [
        {
          "internalType": "uint64",
          "name": "",
          "type": "uint64"
        }
      ],
      "stateMutability": "pure",
      "type": "function"
    },
    {
      "inputs": [],
      "name": "getMipStipMask",
      "outputs": [
        {
          "internalType": "uint64",
          "name": "",
          "type": "uint64"
        }
      ],
      "stateMutability": "pure",
      "type": "function"
    },
    {
      "inputs": [],
      "name": "getMipStipShift",
      "outputs": [
        {
          "internalType": "uint64",
          "name": "",
          "type": "uint64"
        }
      ],
      "stateMutability": "pure",
      "type": "function"
    },
    {
      "inputs": [],
      "name": "getMipUeipMask",
      "outputs": [
        {
          "internalType": "uint64",
          "name": "",
          "type": "uint64"
        }
      ],
      "stateMutability": "pure",
      "type": "function"
    },
    {
      "inputs": [],
      "name": "getMipUeipShift",
      "outputs": [
        {
          "internalType": "uint64",
          "name": "",
          "type": "uint64"
        }
      ],
      "stateMutability": "pure",
      "type": "function"
    },
    {
      "inputs": [],
      "name": "getMipUsipMask",
      "outputs": [
        {
          "internalType": "uint64",
          "name": "",
          "type": "uint64"
        }
      ],
      "stateMutability": "pure",
      "type": "function"
    },
    {
      "inputs": [],
      "name": "getMipUsipShift",
      "outputs": [
        {
          "internalType": "uint64",
          "name": "",
          "type": "uint64"
        }
      ],
      "stateMutability": "pure",
      "type": "function"
    },
    {
      "inputs": [],
      "name": "getMipUtipMask",
      "outputs": [
        {
          "internalType": "uint64",
          "name": "",
          "type": "uint64"
        }
      ],
      "stateMutability": "pure",
      "type": "function"
    },
    {
      "inputs": [],
      "name": "getMipUtipShift",
      "outputs": [
        {
          "internalType": "uint64",
          "name": "",
          "type": "uint64"
        }
      ],
      "stateMutability": "pure",
      "type": "function"
    },
    {
      "inputs": [],
      "name": "getMstatusFsMask",
      "outputs": [
        {
          "internalType": "uint64",
          "name": "",
          "type": "uint64"
        }
      ],
      "stateMutability": "pure",
      "type": "function"
    },
    {
      "inputs": [],
      "name": "getMstatusFsShift",
      "outputs": [
        {
          "internalType": "uint64",
          "name": "",
          "type": "uint64"
        }
      ],
      "stateMutability": "pure",
      "type": "function"
    },
    {
      "inputs": [],
      "name": "getMstatusHieShift",
      "outputs": [
        {
          "internalType": "uint64",
          "name": "",
          "type": "uint64"
        }
      ],
      "stateMutability": "pure",
      "type": "function"
    },
    {
      "inputs": [],
      "name": "getMstatusMieMask",
      "outputs": [
        {
          "internalType": "uint64",
          "name": "",
          "type": "uint64"
        }
      ],
      "stateMutability": "pure",
      "type": "function"
    },
    {
      "inputs": [],
      "name": "getMstatusMieShift",
      "outputs": [
        {
          "internalType": "uint64",
          "name": "",
          "type": "uint64"
        }
      ],
      "stateMutability": "pure",
      "type": "function"
    },
    {
      "inputs": [],
      "name": "getMstatusMpieMask",
      "outputs": [
        {
          "internalType": "uint64",
          "name": "",
          "type": "uint64"
        }
      ],
      "stateMutability": "pure",
      "type": "function"
    },
    {
      "inputs": [],
      "name": "getMstatusMpieShift",
      "outputs": [
        {
          "internalType": "uint64",
          "name": "",
          "type": "uint64"
        }
      ],
      "stateMutability": "pure",
      "type": "function"
    },
    {
      "inputs": [],
      "name": "getMstatusMppMask",
      "outputs": [
        {
          "internalType": "uint64",
          "name": "",
          "type": "uint64"
        }
      ],
      "stateMutability": "pure",
      "type": "function"
    },
    {
      "inputs": [],
      "name": "getMstatusMppShift",
      "outputs": [
        {
          "internalType": "uint64",
          "name": "",
          "type": "uint64"
        }
      ],
      "stateMutability": "pure",
      "type": "function"
    },
    {
      "inputs": [],
      "name": "getMstatusMprvMask",
      "outputs": [
        {
          "internalType": "uint64",
          "name": "",
          "type": "uint64"
        }
      ],
      "stateMutability": "pure",
      "type": "function"
    },
    {
      "inputs": [],
      "name": "getMstatusMprvShift",
      "outputs": [
        {
          "internalType": "uint64",
          "name": "",
          "type": "uint64"
        }
      ],
      "stateMutability": "pure",
      "type": "function"
    },
    {
      "inputs": [],
      "name": "getMstatusMxrMask",
      "outputs": [
        {
          "internalType": "uint64",
          "name": "",
          "type": "uint64"
        }
      ],
      "stateMutability": "pure",
      "type": "function"
    },
    {
      "inputs": [],
      "name": "getMstatusMxrShift",
      "outputs": [
        {
          "internalType": "uint64",
          "name": "",
          "type": "uint64"
        }
      ],
      "stateMutability": "pure",
      "type": "function"
    },
    {
      "inputs": [],
      "name": "getMstatusRMask",
      "outputs": [
        {
          "internalType": "uint64",
          "name": "",
          "type": "uint64"
        }
      ],
      "stateMutability": "pure",
      "type": "function"
    },
    {
      "inputs": [],
      "name": "getMstatusSdMask",
      "outputs": [
        {
          "internalType": "uint64",
          "name": "",
          "type": "uint64"
        }
      ],
      "stateMutability": "pure",
      "type": "function"
    },
    {
      "inputs": [],
      "name": "getMstatusSdShift",
      "outputs": [
        {
          "internalType": "uint64",
          "name": "",
          "type": "uint64"
        }
      ],
      "stateMutability": "pure",
      "type": "function"
    },
    {
      "inputs": [],
      "name": "getMstatusSieMask",
      "outputs": [
        {
          "internalType": "uint64",
          "name": "",
          "type": "uint64"
        }
      ],
      "stateMutability": "pure",
      "type": "function"
    },
    {
      "inputs": [],
      "name": "getMstatusSieShift",
      "outputs": [
        {
          "internalType": "uint64",
          "name": "",
          "type": "uint64"
        }
      ],
      "stateMutability": "pure",
      "type": "function"
    },
    {
      "inputs": [],
      "name": "getMstatusSpieMask",
      "outputs": [
        {
          "internalType": "uint64",
          "name": "",
          "type": "uint64"
        }
      ],
      "stateMutability": "pure",
      "type": "function"
    },
    {
      "inputs": [],
      "name": "getMstatusSpieShift",
      "outputs": [
        {
          "internalType": "uint64",
          "name": "",
          "type": "uint64"
        }
      ],
      "stateMutability": "pure",
      "type": "function"
    },
    {
      "inputs": [],
      "name": "getMstatusSppMask",
      "outputs": [
        {
          "internalType": "uint64",
          "name": "",
          "type": "uint64"
        }
      ],
      "stateMutability": "pure",
      "type": "function"
    },
    {
      "inputs": [],
      "name": "getMstatusSppShift",
      "outputs": [
        {
          "internalType": "uint64",
          "name": "",
          "type": "uint64"
        }
      ],
      "stateMutability": "pure",
      "type": "function"
    },
    {
      "inputs": [],
      "name": "getMstatusSumMask",
      "outputs": [
        {
          "internalType": "uint64",
          "name": "",
          "type": "uint64"
        }
      ],
      "stateMutability": "pure",
      "type": "function"
    },
    {
      "inputs": [],
      "name": "getMstatusSumShift",
      "outputs": [
        {
          "internalType": "uint64",
          "name": "",
          "type": "uint64"
        }
      ],
      "stateMutability": "pure",
      "type": "function"
    },
    {
      "inputs": [],
      "name": "getMstatusSxlMask",
      "outputs": [
        {
          "internalType": "uint64",
          "name": "",
          "type": "uint64"
        }
      ],
      "stateMutability": "pure",
      "type": "function"
    },
    {
      "inputs": [],
      "name": "getMstatusSxlShift",
      "outputs": [
        {
          "internalType": "uint64",
          "name": "",
          "type": "uint64"
        }
      ],
      "stateMutability": "pure",
      "type": "function"
    },
    {
      "inputs": [],
      "name": "getMstatusTsrMask",
      "outputs": [
        {
          "internalType": "uint64",
          "name": "",
          "type": "uint64"
        }
      ],
      "stateMutability": "pure",
      "type": "function"
    },
    {
      "inputs": [],
      "name": "getMstatusTsrShift",
      "outputs": [
        {
          "internalType": "uint64",
          "name": "",
          "type": "uint64"
        }
      ],
      "stateMutability": "pure",
      "type": "function"
    },
    {
      "inputs": [],
      "name": "getMstatusTvmMask",
      "outputs": [
        {
          "internalType": "uint64",
          "name": "",
          "type": "uint64"
        }
      ],
      "stateMutability": "pure",
      "type": "function"
    },
    {
      "inputs": [],
      "name": "getMstatusTvmShift",
      "outputs": [
        {
          "internalType": "uint64",
          "name": "",
          "type": "uint64"
        }
      ],
      "stateMutability": "pure",
      "type": "function"
    },
    {
      "inputs": [],
      "name": "getMstatusTwMask",
      "outputs": [
        {
          "internalType": "uint64",
          "name": "",
          "type": "uint64"
        }
      ],
      "stateMutability": "pure",
      "type": "function"
    },
    {
      "inputs": [],
      "name": "getMstatusTwShift",
      "outputs": [
        {
          "internalType": "uint64",
          "name": "",
          "type": "uint64"
        }
      ],
      "stateMutability": "pure",
      "type": "function"
    },
    {
      "inputs": [],
      "name": "getMstatusUieMask",
      "outputs": [
        {
          "internalType": "uint64",
          "name": "",
          "type": "uint64"
        }
      ],
      "stateMutability": "pure",
      "type": "function"
    },
    {
      "inputs": [],
      "name": "getMstatusUieShift",
      "outputs": [
        {
          "internalType": "uint64",
          "name": "",
          "type": "uint64"
        }
      ],
      "stateMutability": "pure",
      "type": "function"
    },
    {
      "inputs": [],
      "name": "getMstatusUpieMask",
      "outputs": [
        {
          "internalType": "uint64",
          "name": "",
          "type": "uint64"
        }
      ],
      "stateMutability": "pure",
      "type": "function"
    },
    {
      "inputs": [],
      "name": "getMstatusUpieShift",
      "outputs": [
        {
          "internalType": "uint64",
          "name": "",
          "type": "uint64"
        }
      ],
      "stateMutability": "pure",
      "type": "function"
    },
    {
      "inputs": [],
      "name": "getMstatusUxlMask",
      "outputs": [
        {
          "internalType": "uint64",
          "name": "",
          "type": "uint64"
        }
      ],
      "stateMutability": "pure",
      "type": "function"
    },
    {
      "inputs": [],
      "name": "getMstatusUxlShift",
      "outputs": [
        {
          "internalType": "uint64",
          "name": "",
          "type": "uint64"
        }
      ],
      "stateMutability": "pure",
      "type": "function"
    },
    {
      "inputs": [],
      "name": "getMstatusWMask",
      "outputs": [
        {
          "internalType": "uint64",
          "name": "",
          "type": "uint64"
        }
      ],
      "stateMutability": "pure",
      "type": "function"
    },
    {
      "inputs": [],
      "name": "getMstatusXsMask",
      "outputs": [
        {
          "internalType": "uint64",
          "name": "",
          "type": "uint64"
        }
      ],
      "stateMutability": "pure",
      "type": "function"
    },
    {
      "inputs": [],
      "name": "getMstatusXsShift",
      "outputs": [
        {
          "internalType": "uint64",
          "name": "",
          "type": "uint64"
        }
      ],
      "stateMutability": "pure",
      "type": "function"
    },
    {
      "inputs": [],
      "name": "getMxl",
      "outputs": [
        {
          "internalType": "uint64",
          "name": "",
          "type": "uint64"
        }
      ],
      "stateMutability": "pure",
      "type": "function"
    },
    {
      "inputs": [],
      "name": "getPageNumberShift",
      "outputs": [
        {
          "internalType": "uint64",
          "name": "",
          "type": "uint64"
        }
      ],
      "stateMutability": "pure",
      "type": "function"
    },
    {
      "inputs": [],
      "name": "getPageOffsetMask",
      "outputs": [
        {
          "internalType": "uint64",
          "name": "",
          "type": "uint64"
        }
      ],
      "stateMutability": "pure",
      "type": "function"
    },
    {
      "inputs": [],
      "name": "getPgMask",
      "outputs": [
        {
          "internalType": "uint64",
          "name": "",
          "type": "uint64"
        }
      ],
      "stateMutability": "pure",
      "type": "function"
    },
    {
      "inputs": [],
      "name": "getPgShift",
      "outputs": [
        {
          "internalType": "uint64",
          "name": "",
          "type": "uint64"
        }
      ],
      "stateMutability": "pure",
      "type": "function"
    },
    {
      "inputs": [],
      "name": "getPrvH",
      "outputs": [
        {
          "internalType": "uint64",
          "name": "",
          "type": "uint64"
        }
      ],
      "stateMutability": "pure",
      "type": "function"
    },
    {
      "inputs": [],
      "name": "getPrvM",
      "outputs": [
        {
          "internalType": "uint64",
          "name": "",
          "type": "uint64"
        }
      ],
      "stateMutability": "pure",
      "type": "function"
    },
    {
      "inputs": [],
      "name": "getPrvS",
      "outputs": [
        {
          "internalType": "uint64",
          "name": "",
          "type": "uint64"
        }
      ],
      "stateMutability": "pure",
      "type": "function"
    },
    {
      "inputs": [],
      "name": "getPrvU",
      "outputs": [
        {
          "internalType": "uint64",
          "name": "",
          "type": "uint64"
        }
      ],
      "stateMutability": "pure",
      "type": "function"
    },
    {
      "inputs": [],
      "name": "getPteAMask",
      "outputs": [
        {
          "internalType": "uint64",
          "name": "",
          "type": "uint64"
        }
      ],
      "stateMutability": "pure",
      "type": "function"
    },
    {
      "inputs": [],
      "name": "getPteDMask",
      "outputs": [
        {
          "internalType": "uint64",
          "name": "",
          "type": "uint64"
        }
      ],
      "stateMutability": "pure",
      "type": "function"
    },
    {
      "inputs": [],
      "name": "getPteUMask",
      "outputs": [
        {
          "internalType": "uint64",
          "name": "",
          "type": "uint64"
        }
      ],
      "stateMutability": "pure",
      "type": "function"
    },
    {
      "inputs": [],
      "name": "getPteVMask",
      "outputs": [
        {
          "internalType": "uint64",
          "name": "",
          "type": "uint64"
        }
      ],
      "stateMutability": "pure",
      "type": "function"
    },
    {
      "inputs": [],
      "name": "getPteXwrCodeShift",
      "outputs": [
        {
          "internalType": "uint64",
          "name": "",
          "type": "uint64"
        }
      ],
      "stateMutability": "pure",
      "type": "function"
    },
    {
      "inputs": [],
      "name": "getPteXwrReadShift",
      "outputs": [
        {
          "internalType": "uint64",
          "name": "",
          "type": "uint64"
        }
      ],
      "stateMutability": "pure",
      "type": "function"
    },
    {
      "inputs": [],
      "name": "getPteXwrWriteShift",
      "outputs": [
        {
          "internalType": "uint64",
          "name": "",
          "type": "uint64"
        }
      ],
      "stateMutability": "pure",
      "type": "function"
    },
    {
      "inputs": [],
      "name": "getScounterenRwMask",
      "outputs": [
        {
          "internalType": "uint64",
          "name": "",
          "type": "uint64"
        }
      ],
      "stateMutability": "pure",
      "type": "function"
    },
    {
      "inputs": [],
      "name": "getSstatusRMask",
      "outputs": [
        {
          "internalType": "uint64",
          "name": "",
          "type": "uint64"
        }
      ],
      "stateMutability": "pure",
      "type": "function"
    },
    {
      "inputs": [],
      "name": "getSstatusWMask",
      "outputs": [
        {
          "internalType": "uint64",
          "name": "",
          "type": "uint64"
        }
      ],
      "stateMutability": "pure",
      "type": "function"
    },
    {
      "inputs": [],
      "name": "getXlen",
      "outputs": [
        {
          "internalType": "uint64",
          "name": "",
          "type": "uint64"
        }
      ],
      "stateMutability": "pure",
      "type": "function"
    }
  ],
  "transactionHash": "0xe8c41f17d69024df7175a06a0512e90f47e0bce37433c3505fe394a0a87bdf82",
  "args": [],
  "solcInputHash": "22331477fa25ad4b7a7c528cc1c6cc0c",
  "bytecode": "0x610cb4610026600b82828239805160001a60731461001957fe5b30600052607381538281f3fe73000000000000000000000000000000000000000030146080604052600436106106635760003560e01c80638ed7317f1161035b578063c3b85a8f116101cd578063db19725411610119578063f2f21e4c116100b7578063f796d7d711610091578063f796d7d714610845578063fcc61eff146107fd578063fd198e55146107fd578063fd6607c11461084d57610663565b8063f2f21e4c146106b5578063f2fb62c91461083d578063f4a407611461073d57610663565b8063e746ac72116100f3578063e746ac7214610835578063e89d408d1461068d578063e8a269591461069d578063e9d727641461066857610663565b8063db1972541461082d578063e1d206ab146106ed578063e697ace91461072557610663565b8063cac5b49511610186578063cf7ecf7911610160578063cf7ecf79146106ed578063d50ca22f1461069d578063d8685e0814610825578063dacff167146107cd57610663565b8063cac5b49514610815578063cba6d20c14610725578063cc19195c1461081d57610663565b8063c3b85a8f146106f5578063c3d5890f1461080d578063c49235ea146107e5578063c5d15aad14610695578063c6ce50d614610785578063ca3c11341461068d57610663565b8063a4521d8b116102a7578063ae3a10d111610245578063b396896e1161021f578063b396896e146106d5578063b482d45114610805578063b4e549ba1461071d578063bc8957431461069d57610663565b8063ae3a10d1146107fd578063ae458ae8146107fd578063b0c41fc51461068d57610663565b8063a8f81e2311610281578063a8f81e23146107e5578063a92353d7146107ed578063ac5732fe1461068d578063ad21dcaf146107f557610663565b8063a4521d8b146107d5578063a4652fa5146106bd578063a73fa952146107dd57610663565b80639839423811610314578063a195e2db116102ee578063a195e2db146106e5578063a1a29005146106c5578063a34556821461077d578063a406ed801461074d57610663565b80639839423814610695578063a12e3511146107c5578063a16de11c146107cd57610663565b80638ed7317f146106f55780638fbe78d214610705578063910a5247146106ed5780639166a2f9146107ad5780639230fa1d146107b5578063944b9ad4146107bd57610663565b8063574a20ef116104f4578063729e52ee11610440578063883d4fb0116103de5780638a17ca86116103b85780638a17ca861461078d5780638a911eef146107955780638c295e351461079d5780638e0840bf146107a557610663565b8063883d4fb014610775578063895327721461077d57806389941a2a1461078557610663565b80638208d1f21161041a5780638208d1f2146107255780638235ca881461069d578063835658181461076557806386c229551461076d57610663565b8063729e52ee1461075d5780637df41363146106955780637e6a20ca1461070557610663565b806361ed380a116104ad5780636eb9d0a0116104875780636eb9d0a01461073d5780636f5514e41461074d578063717c5d7c146107555780637273ba701461069d57610663565b806361ed380a1461068d578063656b151f146106955780636bdd3bf91461074557610663565b8063574a20ef1461068d578063594dc3731461072557806359e4e7c31461069d5780635af17adf1461072d578063609fd47c146107355780636164e3421461073d57610663565b80633afcb7a1116105b3578063458472a71161056c5780634d26940d116105465780634d26940d1461070d5780634d89d393146106c55780634e95a41014610715578063501bec451461071d57610663565b8063458472a7146106fd57806345d9c465146106ed57806348b36c3a1461070557610663565b80633afcb7a11461068d5780633fe2098a146106dd57806340391774146106e55780634074af28146106ed578063422c61941461069557806344312160146106f557610663565b80631d5edf03116106205780632e750856116105fa5780632e750856146106bd5780632ee52303146106c5578063317d2bb5146106cd5780633a6d9202146106d557610663565b80631d5edf031461069557806327d1ff75146106ad5780632968a7bd146106b557610663565b80630129840414610668578063026797d91461068d5780630ab3e66614610695578063143fb1a41461066857806317a0cac31461069d5780631918bc6f146106a5575b600080fd5b610670610855565b6040805167ffffffffffffffff9092168252519081900360200190f35b61067061085a565b61067061085f565b610670610864565b610670610869565b610670610890565b610670610895565b6106706108bc565b6106706108c1565b6106706108c6565b6106706108d0565b6106706108da565b6106706108df565b6106706108e4565b6106706108e9565b6106706108ee565b6106706108f8565b6106706108fd565b610670610907565b610670610911565b610670610916565b610670610920565b61067061092a565b610670610934565b610670610939565b610670610943565b61067061094d565b610670610952565b610670610964565b6106706109f1565b610670610a3f565b610670610a69565b610670610a73565b610670610a7d565b610670610a87565b610670610ae7565b610670610af1565b610670610b04565b610670610b0e565b610670610b13565b610670610bbb565b610670610bc5565b610670610bca565b610670610bcf565b610670610bd9565b610670610be3565b610670610be8565b610670610bed565b610670610bf7565b610670610bfc565b610670610c01565b610670610c10565b610670610c3a565b610670610c3f565b610670610c44565b610670610c4e565b610670610c6f565b610670610c79565b600590565b600190565b600090565b600290565b60006108736108df565b67ffffffffffffffff16600367ffffffffffffffff16901b905090565b601190565b600061089f6108e4565b67ffffffffffffffff16600167ffffffffffffffff16901b905090565b600f90565b600c90565b60006108736108e4565b600061089f610934565b608090565b600d90565b600390565b600890565b600061089f610b0e565b600790565b600061089f610bc5565b600061089f610be3565b604090565b600061089f61085a565b6000610873610be8565b600061089f610bf7565b600490565b600061087361094d565b600061089f610855565b602290565b6000600161095e610911565b03905090565b600061096e61092a565b6109766108ee565b61097e610b04565b610986610907565b61098e610a7d565b610996610ae7565b61099e610869565b6109a6610c44565b6109ae610a73565b6109b6610bd9565b6109be610943565b6109c66108d0565b6109ce610895565b6109d6610916565b6109de610bed565b1717171717171717171717171717905090565b60006109fb610907565b610a03610a7d565b610a0b610869565b610a13610a73565b610a1b610943565b610a236108d0565b610a2b610916565b610a33610bed565b17171717171717905090565b60006001610a4b610911565b0367ffffffffffffffff16600167ffffffffffffffff16901b905090565b600061089f610864565b600061089f6108e9565b600061089f610bfc565b6000610a91610bbb565b610a99610920565b610aa1610907565b610aa9610a7d565b610ab1610869565b610ab9610a73565b610ac1610943565b610ac96108d0565b610ad1610916565b610ad9610bed565b171717171717171717905090565b600061089f610890565b60006001610afd6108c1565b5090919050565b600061089f610c3f565b601590565b6000610b1d610bbb565b610b25610939565b610b2d610920565b610b3561092a565b610b3d6108ee565b610b45610b04565b610b4d610907565b610b55610a7d565b610b5d610ae7565b610b65610869565b610b6d610c44565b610b75610a73565b610b7d610bd9565b610b85610943565b610b8d6108d0565b610b95610895565b610b9d610916565b610ba5610bed565b1717171717171717171717171717171717905090565b600061089f610952565b600b90565b601090565b600061089f610c79565b600061089f6108f8565b601390565b602090565b600061089f61085f565b601690565b601290565b6000610c0b610c4e565b905090565b60006001610c1c6108c1565b67ffffffffffffffff16600167ffffffffffffffff16901b03905090565b600690565b601490565b6000610873610bc5565b6000610c58610a69565b610c60610916565b610c68610bed565b1717905090565b60006108736108bc565b60099056fea2646970667358221220d0d372651fb105c51d28c0b93010245482fec0c85f03cc3327016096fe6d763764736f6c63430007040033",
  "devdoc": {
    "author": "Felipe Argento",
    "kind": "dev",
    "methods": {},
    "title": "RiscVConstants",
    "version": 1
  },
  "userdoc": {
    "kind": "user",
    "methods": {
      "getMcauseBreakpoint()": {
        "notice": "< illegal instruction"
      },
      "getMcauseEcallBase()": {
        "notice": "< store/amo access fault < environment call (+0: from u-mode, +1: from s-mode, +3: from m-mode)"
      },
      "getMcauseIllegalInsn()": {
        "notice": "< instruction access fault"
      },
      "getMcauseInsnAccessFault()": {
        "notice": "< instruction address misaligned"
      },
      "getMcauseInterruptFlag()": {
        "notice": "< store/amo page fault"
      },
      "getMcauseLoadAccessFault()": {
        "notice": "< load address misaligned"
      },
      "getMcauseLoadAddressMisaligned()": {
        "notice": "< breakpoint"
      },
      "getMcauseLoadPageFault()": {
        "notice": "< instruction page fault"
      },
      "getMcauseStoreAmoAccessFault()": {
        "notice": "< store/amo address misaligned"
      },
      "getMcauseStoreAmoAddressMisaligned()": {
        "notice": "< load access fault"
      },
      "getMcauseStoreAmoPageFault()": {
        "notice": "< load page fault"
      },
      "getMcounterenCyShift()": {
        "notice": "< interrupt flag"
      }
    },
    "notice": "Defines getters for important constants",
    "version": 1
  },
  "storageLayout": {
    "storage": [],
    "types": null
  }
}