{
  "address": "0xd17D8319d58dc628835764e7c2392Cd2860599D8",
  "abi": [
    {
      "inputs": [],
      "name": "getRWIndex",
      "outputs": [
        {
          "internalType": "uint256",
          "name": "",
          "type": "uint256"
        }
      ],
      "stateMutability": "view",
      "type": "function"
    },
    {
      "inputs": [
        {
          "internalType": "uint64[]",
          "name": "_rwPositions",
          "type": "uint64[]"
        },
        {
          "internalType": "bytes8[]",
          "name": "_rwValues",
          "type": "bytes8[]"
        },
        {
          "internalType": "bool[]",
          "name": "_isRead",
          "type": "bool[]"
        }
      ],
      "name": "initializeMemory",
      "outputs": [],
      "stateMutability": "nonpayable",
      "type": "function"
    },
    {
      "inputs": [
        {
          "internalType": "uint64",
          "name": "_readAddress",
          "type": "uint64"
        }
      ],
      "name": "memoryRead",
      "outputs": [
        {
          "internalType": "uint64",
          "name": "",
          "type": "uint64"
        }
      ],
      "stateMutability": "nonpayable",
      "type": "function"
    },
    {
      "inputs": [
        {
          "internalType": "uint64",
          "name": "_writeAddress",
          "type": "uint64"
        },
        {
          "internalType": "uint64",
          "name": "_value",
          "type": "uint64"
        }
      ],
      "name": "memoryWrite",
      "outputs": [],
      "stateMutability": "nonpayable",
      "type": "function"
    },
    {
      "inputs": [],
      "name": "readClintMtimecmp",
      "outputs": [
        {
          "internalType": "uint64",
          "name": "",
          "type": "uint64"
        }
      ],
      "stateMutability": "nonpayable",
      "type": "function"
    },
    {
      "inputs": [],
      "name": "readHtifFromhost",
      "outputs": [
        {
          "internalType": "uint64",
          "name": "",
          "type": "uint64"
        }
      ],
      "stateMutability": "nonpayable",
      "type": "function"
    },
    {
      "inputs": [],
      "name": "readHtifIYield",
      "outputs": [
        {
          "internalType": "uint64",
          "name": "",
          "type": "uint64"
        }
      ],
      "stateMutability": "nonpayable",
      "type": "function"
    },
    {
      "inputs": [],
      "name": "readHtifTohost",
      "outputs": [
        {
          "internalType": "uint64",
          "name": "",
          "type": "uint64"
        }
      ],
      "stateMutability": "nonpayable",
      "type": "function"
    },
    {
      "inputs": [],
      "name": "readIflags",
      "outputs": [
        {
          "internalType": "uint64",
          "name": "",
          "type": "uint64"
        }
      ],
      "stateMutability": "nonpayable",
      "type": "function"
    },
    {
      "inputs": [],
      "name": "readIflagsH",
      "outputs": [
        {
          "internalType": "uint64",
          "name": "",
          "type": "uint64"
        }
      ],
      "stateMutability": "nonpayable",
      "type": "function"
    },
    {
      "inputs": [],
      "name": "readIflagsPrv",
      "outputs": [
        {
          "internalType": "uint64",
          "name": "",
          "type": "uint64"
        }
      ],
      "stateMutability": "nonpayable",
      "type": "function"
    },
    {
      "inputs": [],
      "name": "readIflagsX",
      "outputs": [
        {
          "internalType": "uint64",
          "name": "",
          "type": "uint64"
        }
      ],
      "stateMutability": "nonpayable",
      "type": "function"
    },
    {
      "inputs": [],
      "name": "readIflagsY",
      "outputs": [
        {
          "internalType": "uint64",
          "name": "",
          "type": "uint64"
        }
      ],
      "stateMutability": "nonpayable",
      "type": "function"
    },
    {
      "inputs": [],
      "name": "readIlrsc",
      "outputs": [
        {
          "internalType": "uint64",
          "name": "",
          "type": "uint64"
        }
      ],
      "stateMutability": "nonpayable",
      "type": "function"
    },
    {
      "inputs": [],
      "name": "readMarchid",
      "outputs": [
        {
          "internalType": "uint64",
          "name": "",
          "type": "uint64"
        }
      ],
      "stateMutability": "nonpayable",
      "type": "function"
    },
    {
      "inputs": [],
      "name": "readMcause",
      "outputs": [
        {
          "internalType": "uint64",
          "name": "",
          "type": "uint64"
        }
      ],
      "stateMutability": "nonpayable",
      "type": "function"
    },
    {
      "inputs": [],
      "name": "readMcounteren",
      "outputs": [
        {
          "internalType": "uint64",
          "name": "",
          "type": "uint64"
        }
      ],
      "stateMutability": "nonpayable",
      "type": "function"
    },
    {
      "inputs": [],
      "name": "readMcycle",
      "outputs": [
        {
          "internalType": "uint64",
          "name": "",
          "type": "uint64"
        }
      ],
      "stateMutability": "nonpayable",
      "type": "function"
    },
    {
      "inputs": [],
      "name": "readMedeleg",
      "outputs": [
        {
          "internalType": "uint64",
          "name": "",
          "type": "uint64"
        }
      ],
      "stateMutability": "nonpayable",
      "type": "function"
    },
    {
      "inputs": [
        {
          "internalType": "uint64",
          "name": "paddr",
          "type": "uint64"
        },
        {
          "internalType": "uint64",
          "name": "wordSize",
          "type": "uint64"
        }
      ],
      "name": "readMemory",
      "outputs": [
        {
          "internalType": "uint64",
          "name": "",
          "type": "uint64"
        }
      ],
      "stateMutability": "nonpayable",
      "type": "function"
    },
    {
      "inputs": [],
      "name": "readMepc",
      "outputs": [
        {
          "internalType": "uint64",
          "name": "",
          "type": "uint64"
        }
      ],
      "stateMutability": "nonpayable",
      "type": "function"
    },
    {
      "inputs": [],
      "name": "readMideleg",
      "outputs": [
        {
          "internalType": "uint64",
          "name": "",
          "type": "uint64"
        }
      ],
      "stateMutability": "nonpayable",
      "type": "function"
    },
    {
      "inputs": [],
      "name": "readMie",
      "outputs": [
        {
          "internalType": "uint64",
          "name": "",
          "type": "uint64"
        }
      ],
      "stateMutability": "nonpayable",
      "type": "function"
    },
    {
      "inputs": [],
      "name": "readMimpid",
      "outputs": [
        {
          "internalType": "uint64",
          "name": "",
          "type": "uint64"
        }
      ],
      "stateMutability": "nonpayable",
      "type": "function"
    },
    {
      "inputs": [],
      "name": "readMinstret",
      "outputs": [
        {
          "internalType": "uint64",
          "name": "",
          "type": "uint64"
        }
      ],
      "stateMutability": "nonpayable",
      "type": "function"
    },
    {
      "inputs": [],
      "name": "readMip",
      "outputs": [
        {
          "internalType": "uint64",
          "name": "",
          "type": "uint64"
        }
      ],
      "stateMutability": "nonpayable",
      "type": "function"
    },
    {
      "inputs": [],
      "name": "readMisa",
      "outputs": [
        {
          "internalType": "uint64",
          "name": "",
          "type": "uint64"
        }
      ],
      "stateMutability": "nonpayable",
      "type": "function"
    },
    {
      "inputs": [],
      "name": "readMscratch",
      "outputs": [
        {
          "internalType": "uint64",
          "name": "",
          "type": "uint64"
        }
      ],
      "stateMutability": "nonpayable",
      "type": "function"
    },
    {
      "inputs": [],
      "name": "readMstatus",
      "outputs": [
        {
          "internalType": "uint64",
          "name": "",
          "type": "uint64"
        }
      ],
      "stateMutability": "nonpayable",
      "type": "function"
    },
    {
      "inputs": [],
      "name": "readMtval",
      "outputs": [
        {
          "internalType": "uint64",
          "name": "",
          "type": "uint64"
        }
      ],
      "stateMutability": "nonpayable",
      "type": "function"
    },
    {
      "inputs": [],
      "name": "readMtvec",
      "outputs": [
        {
          "internalType": "uint64",
          "name": "",
          "type": "uint64"
        }
      ],
      "stateMutability": "nonpayable",
      "type": "function"
    },
    {
      "inputs": [],
      "name": "readMvendorid",
      "outputs": [
        {
          "internalType": "uint64",
          "name": "",
          "type": "uint64"
        }
      ],
      "stateMutability": "nonpayable",
      "type": "function"
    },
    {
      "inputs": [],
      "name": "readPc",
      "outputs": [
        {
          "internalType": "uint64",
          "name": "",
          "type": "uint64"
        }
      ],
      "stateMutability": "nonpayable",
      "type": "function"
    },
    {
      "inputs": [],
      "name": "readSatp",
      "outputs": [
        {
          "internalType": "uint64",
          "name": "",
          "type": "uint64"
        }
      ],
      "stateMutability": "nonpayable",
      "type": "function"
    },
    {
      "inputs": [],
      "name": "readScause",
      "outputs": [
        {
          "internalType": "uint64",
          "name": "",
          "type": "uint64"
        }
      ],
      "stateMutability": "nonpayable",
      "type": "function"
    },
    {
      "inputs": [],
      "name": "readScounteren",
      "outputs": [
        {
          "internalType": "uint64",
          "name": "",
          "type": "uint64"
        }
      ],
      "stateMutability": "nonpayable",
      "type": "function"
    },
    {
      "inputs": [],
      "name": "readSepc",
      "outputs": [
        {
          "internalType": "uint64",
          "name": "",
          "type": "uint64"
        }
      ],
      "stateMutability": "nonpayable",
      "type": "function"
    },
    {
      "inputs": [],
      "name": "readSscratch",
      "outputs": [
        {
          "internalType": "uint64",
          "name": "",
          "type": "uint64"
        }
      ],
      "stateMutability": "nonpayable",
      "type": "function"
    },
    {
      "inputs": [],
      "name": "readStval",
      "outputs": [
        {
          "internalType": "uint64",
          "name": "",
          "type": "uint64"
        }
      ],
      "stateMutability": "nonpayable",
      "type": "function"
    },
    {
      "inputs": [],
      "name": "readStvec",
      "outputs": [
        {
          "internalType": "uint64",
          "name": "",
          "type": "uint64"
        }
      ],
      "stateMutability": "nonpayable",
      "type": "function"
    },
    {
      "inputs": [
        {
          "internalType": "uint64",
          "name": "registerIndex",
          "type": "uint64"
        }
      ],
      "name": "readX",
      "outputs": [
        {
          "internalType": "uint64",
          "name": "",
          "type": "uint64"
        }
      ],
      "stateMutability": "nonpayable",
      "type": "function"
    },
    {
      "inputs": [
        {
          "internalType": "uint64",
          "name": "mask",
          "type": "uint64"
        }
      ],
      "name": "resetMip",
      "outputs": [],
      "stateMutability": "nonpayable",
      "type": "function"
    },
    {
      "inputs": [
        {
          "internalType": "bool",
          "name": "halt",
          "type": "bool"
        }
      ],
      "name": "setIflagsH",
      "outputs": [],
      "stateMutability": "nonpayable",
      "type": "function"
    },
    {
      "inputs": [
        {
          "internalType": "bool",
          "name": "isAutomaticYield",
          "type": "bool"
        }
      ],
      "name": "setIflagsX",
      "outputs": [],
      "stateMutability": "nonpayable",
      "type": "function"
    },
    {
      "inputs": [
        {
          "internalType": "bool",
          "name": "isManualYield",
          "type": "bool"
        }
      ],
      "name": "setIflagsY",
      "outputs": [],
      "stateMutability": "nonpayable",
      "type": "function"
    },
    {
      "inputs": [
        {
          "internalType": "uint64",
          "name": "mask",
          "type": "uint64"
        }
      ],
      "name": "setMip",
      "outputs": [],
      "stateMutability": "nonpayable",
      "type": "function"
    },
    {
      "inputs": [
        {
          "internalType": "uint64",
          "name": "newPriv",
          "type": "uint64"
        }
      ],
      "name": "setPriv",
      "outputs": [],
      "stateMutability": "nonpayable",
      "type": "function"
    },
    {
      "inputs": [
        {
          "internalType": "uint64",
          "name": "value",
          "type": "uint64"
        }
      ],
      "name": "writeClintMtimecmp",
      "outputs": [],
      "stateMutability": "nonpayable",
      "type": "function"
    },
    {
      "inputs": [
        {
          "internalType": "uint64",
          "name": "value",
          "type": "uint64"
        }
      ],
      "name": "writeHtifFromhost",
      "outputs": [],
      "stateMutability": "nonpayable",
      "type": "function"
    },
    {
      "inputs": [
        {
          "internalType": "uint64",
          "name": "value",
          "type": "uint64"
        }
      ],
      "name": "writeHtifTohost",
      "outputs": [],
      "stateMutability": "nonpayable",
      "type": "function"
    },
    {
      "inputs": [
        {
          "internalType": "uint64",
          "name": "newPriv",
          "type": "uint64"
        }
      ],
      "name": "writeIflagsPrv",
      "outputs": [],
      "stateMutability": "nonpayable",
      "type": "function"
    },
    {
      "inputs": [
        {
          "internalType": "uint64",
          "name": "value",
          "type": "uint64"
        }
      ],
      "name": "writeIlrsc",
      "outputs": [],
      "stateMutability": "nonpayable",
      "type": "function"
    },
    {
      "inputs": [
        {
          "internalType": "uint64",
          "name": "value",
          "type": "uint64"
        }
      ],
      "name": "writeMcause",
      "outputs": [],
      "stateMutability": "nonpayable",
      "type": "function"
    },
    {
      "inputs": [
        {
          "internalType": "uint64",
          "name": "value",
          "type": "uint64"
        }
      ],
      "name": "writeMcounteren",
      "outputs": [],
      "stateMutability": "nonpayable",
      "type": "function"
    },
    {
      "inputs": [
        {
          "internalType": "uint64",
          "name": "value",
          "type": "uint64"
        }
      ],
      "name": "writeMcycle",
      "outputs": [],
      "stateMutability": "nonpayable",
      "type": "function"
    },
    {
      "inputs": [
        {
          "internalType": "uint64",
          "name": "value",
          "type": "uint64"
        }
      ],
      "name": "writeMedeleg",
      "outputs": [],
      "stateMutability": "nonpayable",
      "type": "function"
    },
    {
      "inputs": [
        {
          "internalType": "uint64",
          "name": "paddr",
          "type": "uint64"
        },
        {
          "internalType": "uint64",
          "name": "value",
          "type": "uint64"
        },
        {
          "internalType": "uint64",
          "name": "wordSize",
          "type": "uint64"
        }
      ],
      "name": "writeMemory",
      "outputs": [],
      "stateMutability": "nonpayable",
      "type": "function"
    },
    {
      "inputs": [
        {
          "internalType": "uint64",
          "name": "value",
          "type": "uint64"
        }
      ],
      "name": "writeMepc",
      "outputs": [],
      "stateMutability": "nonpayable",
      "type": "function"
    },
    {
      "inputs": [
        {
          "internalType": "uint64",
          "name": "value",
          "type": "uint64"
        }
      ],
      "name": "writeMideleg",
      "outputs": [],
      "stateMutability": "nonpayable",
      "type": "function"
    },
    {
      "inputs": [
        {
          "internalType": "uint64",
          "name": "value",
          "type": "uint64"
        }
      ],
      "name": "writeMie",
      "outputs": [],
      "stateMutability": "nonpayable",
      "type": "function"
    },
    {
      "inputs": [
        {
          "internalType": "uint64",
          "name": "value",
          "type": "uint64"
        }
      ],
      "name": "writeMinstret",
      "outputs": [],
      "stateMutability": "nonpayable",
      "type": "function"
    },
    {
      "inputs": [
        {
          "internalType": "uint64",
          "name": "value",
          "type": "uint64"
        }
      ],
      "name": "writeMip",
      "outputs": [],
      "stateMutability": "nonpayable",
      "type": "function"
    },
    {
      "inputs": [
        {
          "internalType": "uint64",
          "name": "value",
          "type": "uint64"
        }
      ],
      "name": "writeMscratch",
      "outputs": [],
      "stateMutability": "nonpayable",
      "type": "function"
    },
    {
      "inputs": [
        {
          "internalType": "uint64",
          "name": "value",
          "type": "uint64"
        }
      ],
      "name": "writeMstatus",
      "outputs": [],
      "stateMutability": "nonpayable",
      "type": "function"
    },
    {
      "inputs": [
        {
          "internalType": "uint64",
          "name": "value",
          "type": "uint64"
        }
      ],
      "name": "writeMtval",
      "outputs": [],
      "stateMutability": "nonpayable",
      "type": "function"
    },
    {
      "inputs": [
        {
          "internalType": "uint64",
          "name": "value",
          "type": "uint64"
        }
      ],
      "name": "writeMtvec",
      "outputs": [],
      "stateMutability": "nonpayable",
      "type": "function"
    },
    {
      "inputs": [
        {
          "internalType": "uint64",
          "name": "value",
          "type": "uint64"
        }
      ],
      "name": "writePc",
      "outputs": [],
      "stateMutability": "nonpayable",
      "type": "function"
    },
    {
      "inputs": [
        {
          "internalType": "uint64",
          "name": "value",
          "type": "uint64"
        }
      ],
      "name": "writeSatp",
      "outputs": [],
      "stateMutability": "nonpayable",
      "type": "function"
    },
    {
      "inputs": [
        {
          "internalType": "uint64",
          "name": "value",
          "type": "uint64"
        }
      ],
      "name": "writeScause",
      "outputs": [],
      "stateMutability": "nonpayable",
      "type": "function"
    },
    {
      "inputs": [
        {
          "internalType": "uint64",
          "name": "value",
          "type": "uint64"
        }
      ],
      "name": "writeScounteren",
      "outputs": [],
      "stateMutability": "nonpayable",
      "type": "function"
    },
    {
      "inputs": [
        {
          "internalType": "uint64",
          "name": "value",
          "type": "uint64"
        }
      ],
      "name": "writeSepc",
      "outputs": [],
      "stateMutability": "nonpayable",
      "type": "function"
    },
    {
      "inputs": [
        {
          "internalType": "uint64",
          "name": "value",
          "type": "uint64"
        }
      ],
      "name": "writeSscratch",
      "outputs": [],
      "stateMutability": "nonpayable",
      "type": "function"
    },
    {
      "inputs": [
        {
          "internalType": "uint64",
          "name": "value",
          "type": "uint64"
        }
      ],
      "name": "writeStval",
      "outputs": [],
      "stateMutability": "nonpayable",
      "type": "function"
    },
    {
      "inputs": [
        {
          "internalType": "uint64",
          "name": "value",
          "type": "uint64"
        }
      ],
      "name": "writeStvec",
      "outputs": [],
      "stateMutability": "nonpayable",
      "type": "function"
    },
    {
      "inputs": [
        {
          "internalType": "uint64",
          "name": "registerindex",
          "type": "uint64"
        },
        {
          "internalType": "uint64",
          "name": "value",
          "type": "uint64"
        }
      ],
      "name": "writeX",
      "outputs": [],
      "stateMutability": "nonpayable",
      "type": "function"
    }
  ],
  "transactionHash": "0xdc98666f41e817dfcc492bec88eef8e08e3cffd6d1ca5cf38e30ebf5063fa473",
  "args": [],
  "solcInputHash": "22331477fa25ad4b7a7c528cc1c6cc0c",
  "bytecode": "0x608060405234801561001057600080fd5b50612f55806100206000396000f3fe608060405234801561001057600080fd5b50600436106104495760003560e01c8063854dba4011610241578063b5b98ed41161013b578063dd5c4a14116100c3578063f7ac913d11610087578063f7ac913d14610c50578063f991158714610c58578063fa644af514610c7e578063fbdb975d14610ca4578063fd295abe14610cca57610449565b8063dd5c4a1414610bb0578063f21d94f814610bd6578063f2cf6ceb14610bfc578063f55c4d3814610c04578063f604edb814610c2a57610449565b8063cc92cbf71161010a578063cc92cbf714610b4c578063cecdae5314610b54578063d2be7b6d14610b7a578063d40d17c514610ba0578063daded5c214610ba857610449565b8063b5b98ed414610b0e578063becdc10d14610b16578063c133b7ff14610b1e578063cbc446b114610b2657610449565b80639c872d02116101c9578063aaed4f071161018d578063aaed4f0714610a75578063ab9779b714610a9b578063af63b2a814610ac1578063b2325aef14610ac9578063b27ec92014610aef57610449565b80639c872d0214610875578063a317ce9d1461089b578063a47594df146108a3578063a740dbc114610a4e578063a7458b9514610a5657610449565b80638e32f35e116102105780638e32f35e146108095780639485871b14610837578063968644f01461083f5780639b7021ce146108475780639c7b005d1461084f57610449565b8063854dba40146107ad57806386099c54146107b557806386676d43146107bd57806389365909146107e357610449565b806351bb3615116103525780636232e59c116102da5780636dc95c2e1161029e5780636dc95c2e146107235780636f6c0e7d1461075157806378c495741461075957806378ddee751461077f578063834aa4f6146107a557610449565b80636232e59c146106dd5780636475e34214610703578063650ca32b1461070b5780636a72b27d146107135780636cd24daf1461071b57610449565b80635790783711610321578063579078371461065b5780635af47ca7146106815780635dadd78a146106a75780635e5ca652146106af5780635f824bf9146106d557610449565b806351bb3615146105ff57806354749af314610607578063568b27021461062d578063575832df1461063557610449565b806328520b30116103d557806334970f18116103a457806334970f181461057c5780633a48bb561461058457806345057ed7146105a35780634ae9388b146105c957806350cec2d5146105d157610449565b806328520b301461052057806328751b36146105285780632ca2bd161461054e5780632e963a801461057457610449565b806311cf3a221161041c57806311cf3a22146104da57806315dd9c06146104e257806318e504db146105085780631bf2f73d146105105780631e5e61901461051857610449565b8063080aa5d11461044e5780630df3e295146104685780630f84c0461461049057806310d74c7d146104b4575b600080fd5b610456610d02565b60408051918252519081900360200190f35b61048e6004803603602081101561047e57600080fd5b50356001600160401b0316610d08565b005b610498610d84565b604080516001600160401b039092168252519081900360200190f35b61048e600480360360208110156104ca57600080fd5b50356001600160401b0316610e03565b610498610e4a565b61048e600480360360208110156104f857600080fd5b50356001600160401b0316610e93565b610498610eaf565b610498610ef8565b610498610f41565b610498610f8a565b61048e6004803603602081101561053e57600080fd5b50356001600160401b0316610fd3565b61048e6004803603602081101561056457600080fd5b50356001600160401b031661101a565b610498611061565b6104986110aa565b61048e6004803603602081101561059a57600080fd5b503515156110f3565b61048e600480360360208110156105b957600080fd5b50356001600160401b0316611235565b61049861124c565b610498600480360360408110156105e757600080fd5b506001600160401b0381358116916020013516611295565b61049861140b565b61048e6004803603602081101561061d57600080fd5b50356001600160401b0316611454565b610498611468565b61048e6004803603602081101561064b57600080fd5b50356001600160401b03166114b1565b61048e6004803603602081101561067157600080fd5b50356001600160401b03166114f8565b61048e6004803603602081101561069757600080fd5b50356001600160401b031661153f565b610498611586565b61048e600480360360208110156106c557600080fd5b50356001600160401b03166115cf565b610498611616565b610498600480360360208110156106f357600080fd5b50356001600160401b031661165f565b610498611673565b6104986116bc565b610498611705565b61049861174e565b61048e6004803603604081101561073957600080fd5b506001600160401b0381358116916020013516611797565b6104986117a4565b61048e6004803603602081101561076f57600080fd5b50356001600160401b03166117ed565b61048e6004803603602081101561079557600080fd5b50356001600160401b0316611834565b61049861187b565b6104986118c4565b61049861190d565b61048e600480360360208110156107d357600080fd5b50356001600160401b0316611a63565b61048e600480360360208110156107f957600080fd5b50356001600160401b0316611aaa565b61048e6004803603604081101561081f57600080fd5b506001600160401b0381358116916020013516611af1565b610498611bf3565b610498611c3c565b610498611d05565b61048e6004803603602081101561086557600080fd5b50356001600160401b0316611d4e565b61048e6004803603602081101561088b57600080fd5b50356001600160401b0316611d95565b610498611ddc565b61048e600480360360608110156108b957600080fd5b8101906020810181356401000000008111156108d457600080fd5b8201836020820111156108e657600080fd5b8035906020019184602083028401116401000000008311171561090857600080fd5b919080806020026020016040519081016040528093929190818152602001838360200280828437600092019190915250929594936020810193503591505064010000000081111561095857600080fd5b82018360208201111561096a57600080fd5b8035906020019184602083028401116401000000008311171561098c57600080fd5b91908080602002602001604051908101604052809392919081815260200183836020028082843760009201919091525092959493602081019350359150506401000000008111156109dc57600080fd5b8201836020820111156109ee57600080fd5b80359060200191846020830284011164010000000083111715610a1057600080fd5b919080806020026020016040519081016040528093929190818152602001838360200280828437600092019190915250929550611e25945050505050565b610498611eea565b61048e60048036036020811015610a6c57600080fd5b50351515611f33565b61048e60048036036020811015610a8b57600080fd5b50356001600160401b0316611fcd565b61048e60048036036020811015610ab157600080fd5b50356001600160401b0316612014565b61049861205b565b61048e60048036036020811015610adf57600080fd5b50356001600160401b03166120a4565b61048e60048036036020811015610b0557600080fd5b503515156120eb565b610498612185565b6104986121ce565b610498612217565b61048e60048036036020811015610b3c57600080fd5b50356001600160401b0316612260565b6104986122a7565b61048e60048036036020811015610b6a57600080fd5b50356001600160401b03166122f0565b61048e60048036036020811015610b9057600080fd5b50356001600160401b031661244f565b610498612496565b61049861255f565b61048e60048036036020811015610bc657600080fd5b50356001600160401b03166125a8565b61048e60048036036020811015610bec57600080fd5b50356001600160401b03166125ef565b610498612636565b61048e60048036036020811015610c1a57600080fd5b50356001600160401b031661267f565b61048e60048036036020811015610c4057600080fd5b50356001600160401b03166126c6565b61049861270d565b61048e60048036036020811015610c6e57600080fd5b50356001600160401b03166127d6565b61049860048036036020811015610c9457600080fd5b50356001600160401b031661281d565b61048e60048036036020811015610cba57600080fd5b50356001600160401b03166128b6565b61048e60048036036060811015610ce057600080fd5b506001600160401b0381358116916020810135821691604090910135166128fd565b60005490565b610d817335323c7063fc1FEE755723Cdf02Edd1906B3a660639a59734c6040518163ffffffff1660e01b815260040160206040518083038186803b158015610d4f57600080fd5b505af4158015610d63573d6000803e3d6000fd5b505050506040513d6020811015610d7957600080fd5b505182611af1565b50565b6000610dfe7335323c7063fc1FEE755723Cdf02Edd1906B3a660636630ad876040518163ffffffff1660e01b815260040160206040518083038186803b158015610dcd57600080fd5b505af4158015610de1573d6000803e3d6000fd5b505050506040513d6020811015610df757600080fd5b505161281d565b905090565b610d817335323c7063fc1FEE755723Cdf02Edd1906B3a6606372eb67d06040518163ffffffff1660e01b815260040160206040518083038186803b158015610d4f57600080fd5b6000610dfe7335323c7063fc1FEE755723Cdf02Edd1906B3a660638fd6b7c46040518163ffffffff1660e01b815260040160206040518083038186803b158015610dcd57600080fd5b6000610e9d611ddc565b8219169050610eab81611fcd565b5050565b6000610dfe7335323c7063fc1FEE755723Cdf02Edd1906B3a66063734b96006040518163ffffffff1660e01b815260040160206040518083038186803b158015610dcd57600080fd5b6000610dfe7335323c7063fc1FEE755723Cdf02Edd1906B3a66063443fd5986040518163ffffffff1660e01b815260040160206040518083038186803b158015610dcd57600080fd5b6000610dfe7335323c7063fc1FEE755723Cdf02Edd1906B3a66063ca04595a6040518163ffffffff1660e01b815260040160206040518083038186803b158015610dcd57600080fd5b6000610dfe7335323c7063fc1FEE755723Cdf02Edd1906B3a6606372eb67d06040518163ffffffff1660e01b815260040160206040518083038186803b158015610dcd57600080fd5b610d817335323c7063fc1FEE755723Cdf02Edd1906B3a66063ca04595a6040518163ffffffff1660e01b815260040160206040518083038186803b158015610d4f57600080fd5b610d817335323c7063fc1FEE755723Cdf02Edd1906B3a66063d124bd136040518163ffffffff1660e01b815260040160206040518083038186803b158015610d4f57600080fd5b6000610dfe7335323c7063fc1FEE755723Cdf02Edd1906B3a6606329301cac6040518163ffffffff1660e01b815260040160206040518083038186803b158015610dcd57600080fd5b6000610dfe7361A0DF50Ef1EcabFF981d974C0a94f2aE929cC6263521819f56040518163ffffffff1660e01b815260040160206040518083038186803b158015610dcd57600080fd5b60006110fd612217565b9050811561117b5773a12215Be01eCDF08cEFf0737426a19f2A03ED26763e697ace96040518163ffffffff1660e01b815260040160206040518083038186803b15801561114957600080fd5b505af415801561115d573d6000803e3d6000fd5b505050506040513d602081101561117357600080fd5b5051176111ee565b73a12215Be01eCDF08cEFf0737426a19f2A03ED26763e697ace96040518163ffffffff1660e01b815260040160206040518083038186803b1580156111bf57600080fd5b505af41580156111d3573d6000803e3d6000fd5b505050506040513d60208110156111e957600080fd5b505119165b610eab7335323c7063fc1FEE755723Cdf02Edd1906B3a660632ffdabc56040518163ffffffff1660e01b815260040160206040518083038186803b158015610d4f57600080fd5b600061123f611ddc565b82179050610eab81611fcd565b6000610dfe7335323c7063fc1FEE755723Cdf02Edd1906B3a66063b255e9e46040518163ffffffff1660e01b815260040160206040518083038186803b158015610dcd57600080fd5b60006007198316808403826112a983612b44565b9050600073Ac301c9CD929bBC333BB47cf12802B5045A3182063bf1924c5846008026001600160401b03166001896001600160401b031660026001600160401b03160a036001600160401b0316901b6040518263ffffffff1660e01b815260040180826001600160401b0316815260200191505060206040518083038186803b15801561133557600080fd5b505af4158015611349573d6000803e3d6000fd5b505050506040513d602081101561135f57600080fd5b50516040805163bf1924c560e01b81526001600160401b03858416811660048301529151929350600886029091169173Ac301c9CD929bBC333BB47cf12802B5045A318209163bf1924c5916024808301926020929190829003018186803b1580156113c957600080fd5b505af41580156113dd573d6000803e3d6000fd5b505050506040513d60208110156113f357600080fd5b50516001600160401b0316901c979650505050505050565b6000610dfe7335323c7063fc1FEE755723Cdf02Edd1906B3a660637047f4df6040518163ffffffff1660e01b815260040160206040518083038186803b158015610dcd57600080fd5b61145d816122f0565b610d816000196125ef565b6000610dfe7335323c7063fc1FEE755723Cdf02Edd1906B3a6606345827f696040518163ffffffff1660e01b815260040160206040518083038186803b158015610dcd57600080fd5b610d817335323c7063fc1FEE755723Cdf02Edd1906B3a66063e59cb5746040518163ffffffff1660e01b815260040160206040518083038186803b158015610d4f57600080fd5b610d817335323c7063fc1FEE755723Cdf02Edd1906B3a66063734b96006040518163ffffffff1660e01b815260040160206040518083038186803b158015610d4f57600080fd5b610d817335323c7063fc1FEE755723Cdf02Edd1906B3a660639ff9932b6040518163ffffffff1660e01b815260040160206040518083038186803b158015610d4f57600080fd5b6000610dfe7335323c7063fc1FEE755723Cdf02Edd1906B3a66063e2e2e7126040518163ffffffff1660e01b815260040160206040518083038186803b158015610dcd57600080fd5b610d817335323c7063fc1FEE755723Cdf02Edd1906B3a66063a43e290f6040518163ffffffff1660e01b815260040160206040518083038186803b158015610d4f57600080fd5b6000610dfe7335323c7063fc1FEE755723Cdf02Edd1906B3a6606392f5aa226040518163ffffffff1660e01b815260040160206040518083038186803b158015610dcd57600080fd5b600061166d8260080261281d565b92915050565b6000610dfe730A0D47bE600088fBF116075A7d602f1017C5f9b563870981356040518163ffffffff1660e01b815260040160206040518083038186803b158015610dcd57600080fd5b6000610dfe7335323c7063fc1FEE755723Cdf02Edd1906B3a66063d41a5b596040518163ffffffff1660e01b815260040160206040518083038186803b158015610dcd57600080fd5b6000610dfe7335323c7063fc1FEE755723Cdf02Edd1906B3a66063e59cb5746040518163ffffffff1660e01b815260040160206040518083038186803b158015610dcd57600080fd5b6000610dfe7335323c7063fc1FEE755723Cdf02Edd1906B3a66063da3e8d7b6040518163ffffffff1660e01b815260040160206040518083038186803b158015610dcd57600080fd5b610eab8260080282611af1565b6000610dfe7361A0DF50Ef1EcabFF981d974C0a94f2aE929cC62636299ea3f6040518163ffffffff1660e01b815260040160206040518083038186803b158015610dcd57600080fd5b610d817335323c7063fc1FEE755723Cdf02Edd1906B3a6606345827f696040518163ffffffff1660e01b815260040160206040518083038186803b158015610d4f57600080fd5b610d817335323c7063fc1FEE755723Cdf02Edd1906B3a66063b255e9e46040518163ffffffff1660e01b815260040160206040518083038186803b158015610d4f57600080fd5b6000610dfe7335323c7063fc1FEE755723Cdf02Edd1906B3a660634a4c35106040518163ffffffff1660e01b815260040160206040518083038186803b158015610dcd57600080fd5b6000610dfe7335323c7063fc1FEE755723Cdf02Edd1906B3a66063c585eede6040518163ffffffff1660e01b815260040160206040518083038186803b158015610dcd57600080fd5b600073a12215Be01eCDF08cEFf0737426a19f2A03ED2676317a0cac36040518163ffffffff1660e01b815260040160206040518083038186803b15801561195357600080fd5b505af4158015611967573d6000803e3d6000fd5b505050506040513d602081101561197d57600080fd5b5051604080516351a2ab4160e11b815290516001600160401b039092169173a12215Be01eCDF08cEFf0737426a19f2A03ED2679163a3455682916004808301926020929190829003018186803b1580156119d657600080fd5b505af41580156119ea573d6000803e3d6000fd5b505050506040513d6020811015611a0057600080fd5b505160408051632ffdabc560e01b81529051611a52917335323c7063fc1FEE755723Cdf02Edd1906B3a66091632ffdabc591600480820192602092909190829003018186803b158015610dcd57600080fd5b166001600160401b0316901c905090565b610d817335323c7063fc1FEE755723Cdf02Edd1906B3a66063e80d17516040518163ffffffff1660e01b815260040160206040518083038186803b158015610d4f57600080fd5b610d817335323c7063fc1FEE755723Cdf02Edd1906B3a660637047f4df6040518163ffffffff1660e01b815260040160206040518083038186803b158015610d4f57600080fd5b600073Ac301c9CD929bBC333BB47cf12802B5045A3182063bf1924c5836040518263ffffffff1660e01b815260040180826001600160401b0316815260200191505060206040518083038186803b158015611b4b57600080fd5b505af4158015611b5f573d6000803e3d6000fd5b505050506040513d6020811015611b7557600080fd5b505160c01b90506001600160c01b03198116611b92846000612b5a565b6001600160c01b03191614611bee576040805162461bcd60e51b815260206004820152601c60248201527f5772697474656e2076616c756520646f6573206e6f74206d6174636800000000604482015290519081900360640190fd5b505050565b6000610dfe7335323c7063fc1FEE755723Cdf02Edd1906B3a66063d124bd136040518163ffffffff1660e01b815260040160206040518083038186803b158015610dcd57600080fd5b600073a12215Be01eCDF08cEFf0737426a19f2A03ED26763656b151f6040518163ffffffff1660e01b815260040160206040518083038186803b158015611c8257600080fd5b505af4158015611c96573d6000803e3d6000fd5b505050506040513d6020811015611cac57600080fd5b50516040805163fd198e5560e01b815290516001600160401b039092169173a12215Be01eCDF08cEFf0737426a19f2A03ED2679163fd198e55916004808301926020929190829003018186803b1580156119d657600080fd5b6000610dfe7335323c7063fc1FEE755723Cdf02Edd1906B3a660639ff9932b6040518163ffffffff1660e01b815260040160206040518083038186803b158015610dcd57600080fd5b610d817335323c7063fc1FEE755723Cdf02Edd1906B3a6606329301cac6040518163ffffffff1660e01b815260040160206040518083038186803b158015610d4f57600080fd5b610d817335323c7063fc1FEE755723Cdf02Edd1906B3a660638fd6b7c46040518163ffffffff1660e01b815260040160206040518083038186803b158015610d4f57600080fd5b6000610dfe7335323c7063fc1FEE755723Cdf02Edd1906B3a66063520aff6c6040518163ffffffff1660e01b815260040160206040518083038186803b158015610dcd57600080fd5b8151835114611e655760405162461bcd60e51b8152600401808060200182810382526027815260200180612ef96027913960400191505060405180910390fd5b8051835114611ea55760405162461bcd60e51b8152600401808060200182810382526027815260200180612ef96027913960400191505060405180910390fd5b600080558251611ebc906001906020860190612d05565b508151611ed0906002906020850190612dbd565b508051611ee4906003906020840190612e2a565b50505050565b6000610dfe7335323c7063fc1FEE755723Cdf02Edd1906B3a660632935b8ce6040518163ffffffff1660e01b815260040160206040518083038186803b158015610dcd57600080fd5b6000611f3d612217565b90508115611f895773a12215Be01eCDF08cEFf0737426a19f2A03ED26763fd198e556040518163ffffffff1660e01b815260040160206040518083038186803b15801561114957600080fd5b73a12215Be01eCDF08cEFf0737426a19f2A03ED26763fd198e556040518163ffffffff1660e01b815260040160206040518083038186803b1580156111bf57600080fd5b610d817335323c7063fc1FEE755723Cdf02Edd1906B3a66063520aff6c6040518163ffffffff1660e01b815260040160206040518083038186803b158015610d4f57600080fd5b610d817335323c7063fc1FEE755723Cdf02Edd1906B3a66063443fd5986040518163ffffffff1660e01b815260040160206040518083038186803b158015610d4f57600080fd5b6000610dfe7335323c7063fc1FEE755723Cdf02Edd1906B3a660639a59734c6040518163ffffffff1660e01b815260040160206040518083038186803b158015610dcd57600080fd5b610d817361A0DF50Ef1EcabFF981d974C0a94f2aE929cC62630a279d716040518163ffffffff1660e01b815260040160206040518083038186803b158015610d4f57600080fd5b60006120f5612217565b905081156121415773a12215Be01eCDF08cEFf0737426a19f2A03ED26763a34556826040518163ffffffff1660e01b815260040160206040518083038186803b15801561114957600080fd5b73a12215Be01eCDF08cEFf0737426a19f2A03ED26763a34556826040518163ffffffff1660e01b815260040160206040518083038186803b1580156111bf57600080fd5b6000610dfe7335323c7063fc1FEE755723Cdf02Edd1906B3a6606342db36676040518163ffffffff1660e01b815260040160206040518083038186803b158015610dcd57600080fd5b6000610dfe7335323c7063fc1FEE755723Cdf02Edd1906B3a66063929127db6040518163ffffffff1660e01b815260040160206040518083038186803b158015610dcd57600080fd5b6000610dfe7335323c7063fc1FEE755723Cdf02Edd1906B3a660632ffdabc56040518163ffffffff1660e01b815260040160206040518083038186803b158015610dcd57600080fd5b610d817335323c7063fc1FEE755723Cdf02Edd1906B3a660636630ad876040518163ffffffff1660e01b815260040160206040518083038186803b158015610d4f57600080fd5b6000610dfe7335323c7063fc1FEE755723Cdf02Edd1906B3a66063e80d17516040518163ffffffff1660e01b815260040160206040518083038186803b158015610dcd57600080fd5b60006122fa612217565b905073a12215Be01eCDF08cEFf0737426a19f2A03ED26763910a52476040518163ffffffff1660e01b815260040160206040518083038186803b15801561234057600080fd5b505af4158015612354573d6000803e3d6000fd5b505050506040513d602081101561236a57600080fd5b50516040805163317d2bb560e01b815290516001600160401b0385811693169290921b9173a12215Be01eCDF08cEFf0737426a19f2A03ED2679163317d2bb5916004808301926020929190829003018186803b1580156123c957600080fd5b505af41580156123dd573d6000803e3d6000fd5b505050506040513d60208110156123f357600080fd5b505160408051632ffdabc560e01b815290519119939093169190911791610eab917335323c7063fc1FEE755723Cdf02Edd1906B3a66091632ffdabc5916004808301926020929190829003018186803b158015610d4f57600080fd5b610d817335323c7063fc1FEE755723Cdf02Edd1906B3a660632935b8ce6040518163ffffffff1660e01b815260040160206040518083038186803b158015610d4f57600080fd5b600073a12215Be01eCDF08cEFf0737426a19f2A03ED26763e89d408d6040518163ffffffff1660e01b815260040160206040518083038186803b1580156124dc57600080fd5b505af41580156124f0573d6000803e3d6000fd5b505050506040513d602081101561250657600080fd5b50516040805163e697ace960e01b815290516001600160401b039092169173a12215Be01eCDF08cEFf0737426a19f2A03ED2679163e697ace9916004808301926020929190829003018186803b1580156119d657600080fd5b6000610dfe7335323c7063fc1FEE755723Cdf02Edd1906B3a66063a43e290f6040518163ffffffff1660e01b815260040160206040518083038186803b158015610dcd57600080fd5b610d817361A0DF50Ef1EcabFF981d974C0a94f2aE929cC6263521819f56040518163ffffffff1660e01b815260040160206040518083038186803b158015610d4f57600080fd5b610d817335323c7063fc1FEE755723Cdf02Edd1906B3a66063e2e2e7126040518163ffffffff1660e01b815260040160206040518083038186803b158015610d4f57600080fd5b6000610dfe7361A0DF50Ef1EcabFF981d974C0a94f2aE929cC62630a279d716040518163ffffffff1660e01b815260040160206040518083038186803b158015610dcd57600080fd5b610d817335323c7063fc1FEE755723Cdf02Edd1906B3a6606342db36676040518163ffffffff1660e01b815260040160206040518083038186803b158015610d4f57600080fd5b610d817335323c7063fc1FEE755723Cdf02Edd1906B3a66063da3e8d7b6040518163ffffffff1660e01b815260040160206040518083038186803b158015610d4f57600080fd5b600073a12215Be01eCDF08cEFf0737426a19f2A03ED26763910a52476040518163ffffffff1660e01b815260040160206040518083038186803b15801561275357600080fd5b505af4158015612767573d6000803e3d6000fd5b505050506040513d602081101561277d57600080fd5b50516040805163317d2bb560e01b815290516001600160401b039092169173a12215Be01eCDF08cEFf0737426a19f2A03ED2679163317d2bb5916004808301926020929190829003018186803b1580156119d657600080fd5b610d817335323c7063fc1FEE755723Cdf02Edd1906B3a66063d41a5b596040518163ffffffff1660e01b815260040160206040518083038186803b158015610d4f57600080fd5b600073Ac301c9CD929bBC333BB47cf12802B5045A3182063bf1924c5612844846001612b5a565b60c01c6040518263ffffffff1660e01b815260040180826001600160401b0316815260200191505060206040518083038186803b15801561288457600080fd5b505af4158015612898573d6000803e3d6000fd5b505050506040513d60208110156128ae57600080fd5b505192915050565b610d81730A0D47bE600088fBF116075A7d602f1017C5f9b563870981356040518163ffffffff1660e01b815260040160206040518083038186803b158015610d4f57600080fd5b600060086001600160401b038316049050806001600160401b03166008141561292f5761292a8484611af1565b611ee4565b6007198416808503600061294283612b44565b9050600073Ac301c9CD929bBC333BB47cf12802B5045A3182063bf1924c5846008026001600160401b03166001896001600160401b031660026001600160401b03160a036001600160401b0316901b6040518263ffffffff1660e01b815260040180826001600160401b0316815260200191505060206040518083038186803b1580156129ce57600080fd5b505af41580156129e2573d6000803e3d6000fd5b505050506040513d60208110156129f857600080fd5b50516040805163bf1924c560e01b81526001600160401b0389811660020a600019018b16166004820152905191925060009173Ac301c9CD929bBC333BB47cf12802B5045A318209163bf1924c5916024808301926020929190829003018186803b158015612a6557600080fd5b505af4158015612a79573d6000803e3d6000fd5b505050506040513d6020811015612a8f57600080fd5b50516040805163bf1924c560e01b81526001600160401b038084166008890282161c861988161790811660048301529151929350909173Ac301c9CD929bBC333BB47cf12802B5045A318209163bf1924c5916024808301926020929190829003018186803b158015612b0057600080fd5b505af4158015612b14573d6000803e3d6000fd5b505050506040513d6020811015612b2a57600080fd5b50519050612b388682611af1565b50505050505050505050565b6000612b51826001612b5a565b60c01c92915050565b6000811515600360005481548110612b6e57fe5b90600052602060002090602091828204019190069054906101000a900460ff16151514612be2576040805162461bcd60e51b815260206004820152601f60248201527f41636365737320776173206e6f742074686520636f7272656374207479706500604482015290519081900360640190fd5b6000600160005481548110612bf357fe5b90600052602060002090600491828204019190066008029054906101000a90046001600160401b031690506000600260005481548110612c2f57fe5b60009182526020822060048204015482546001019092556003166008026101000a900460c01b90506007821615612cad576040805162461bcd60e51b815260206004820152601760248201527f506f736974696f6e206973206e6f7420616c69676e6564000000000000000000604482015290519081900360640190fd5b846001600160401b0316826001600160401b031614612cfd5760405162461bcd60e51b8152600401808060200182810382526026815260200180612ed36026913960400191505060405180910390fd5b949350505050565b82805482825590600052602060002090600301600490048101928215612dad5791602002820160005b83821115612d7857835183826101000a8154816001600160401b0302191690836001600160401b031602179055509260200192600801602081600701049283019260010302612d2e565b8015612dab5782816101000a8154906001600160401b030219169055600801602081600701049283019260010302612d78565b505b50612db9929150612ebd565b5090565b82805482825590600052602060002090600301600490048101928215612dad5791602002820160005b83821115612d7857835183826101000a8154816001600160401b03021916908360c01c02179055509260200192600801602081600701049283019260010302612de6565b82805482825590600052602060002090601f01602090048101928215612dad5791602002820160005b83821115612e9057835183826101000a81548160ff0219169083151502179055509260200192600101602081600001049283019260010302612e53565b8015612dab5782816101000a81549060ff0219169055600101602081600001049283019260010302612e90565b5b80821115612db95760008155600101612ebe56fe506f736974696f6e20616e642072656164206164647265737320646f206e6f74206d61746368526561642f77726974652061727261797320617265206e6f74207468652073616d652073697a65a2646970667358221220d8ad88147f407e1aa5f265625c1c1c5882c5f9367822640b6b9cae9958deedda64736f6c63430007040033",
  "deployedBytecode": "0x608060405234801561001057600080fd5b50600436106104495760003560e01c8063854dba4011610241578063b5b98ed41161013b578063dd5c4a14116100c3578063f7ac913d11610087578063f7ac913d14610c50578063f991158714610c58578063fa644af514610c7e578063fbdb975d14610ca4578063fd295abe14610cca57610449565b8063dd5c4a1414610bb0578063f21d94f814610bd6578063f2cf6ceb14610bfc578063f55c4d3814610c04578063f604edb814610c2a57610449565b8063cc92cbf71161010a578063cc92cbf714610b4c578063cecdae5314610b54578063d2be7b6d14610b7a578063d40d17c514610ba0578063daded5c214610ba857610449565b8063b5b98ed414610b0e578063becdc10d14610b16578063c133b7ff14610b1e578063cbc446b114610b2657610449565b80639c872d02116101c9578063aaed4f071161018d578063aaed4f0714610a75578063ab9779b714610a9b578063af63b2a814610ac1578063b2325aef14610ac9578063b27ec92014610aef57610449565b80639c872d0214610875578063a317ce9d1461089b578063a47594df146108a3578063a740dbc114610a4e578063a7458b9514610a5657610449565b80638e32f35e116102105780638e32f35e146108095780639485871b14610837578063968644f01461083f5780639b7021ce146108475780639c7b005d1461084f57610449565b8063854dba40146107ad57806386099c54146107b557806386676d43146107bd57806389365909146107e357610449565b806351bb3615116103525780636232e59c116102da5780636dc95c2e1161029e5780636dc95c2e146107235780636f6c0e7d1461075157806378c495741461075957806378ddee751461077f578063834aa4f6146107a557610449565b80636232e59c146106dd5780636475e34214610703578063650ca32b1461070b5780636a72b27d146107135780636cd24daf1461071b57610449565b80635790783711610321578063579078371461065b5780635af47ca7146106815780635dadd78a146106a75780635e5ca652146106af5780635f824bf9146106d557610449565b806351bb3615146105ff57806354749af314610607578063568b27021461062d578063575832df1461063557610449565b806328520b30116103d557806334970f18116103a457806334970f181461057c5780633a48bb561461058457806345057ed7146105a35780634ae9388b146105c957806350cec2d5146105d157610449565b806328520b301461052057806328751b36146105285780632ca2bd161461054e5780632e963a801461057457610449565b806311cf3a221161041c57806311cf3a22146104da57806315dd9c06146104e257806318e504db146105085780631bf2f73d146105105780631e5e61901461051857610449565b8063080aa5d11461044e5780630df3e295146104685780630f84c0461461049057806310d74c7d146104b4575b600080fd5b610456610d02565b60408051918252519081900360200190f35b61048e6004803603602081101561047e57600080fd5b50356001600160401b0316610d08565b005b610498610d84565b604080516001600160401b039092168252519081900360200190f35b61048e600480360360208110156104ca57600080fd5b50356001600160401b0316610e03565b610498610e4a565b61048e600480360360208110156104f857600080fd5b50356001600160401b0316610e93565b610498610eaf565b610498610ef8565b610498610f41565b610498610f8a565b61048e6004803603602081101561053e57600080fd5b50356001600160401b0316610fd3565b61048e6004803603602081101561056457600080fd5b50356001600160401b031661101a565b610498611061565b6104986110aa565b61048e6004803603602081101561059a57600080fd5b503515156110f3565b61048e600480360360208110156105b957600080fd5b50356001600160401b0316611235565b61049861124c565b610498600480360360408110156105e757600080fd5b506001600160401b0381358116916020013516611295565b61049861140b565b61048e6004803603602081101561061d57600080fd5b50356001600160401b0316611454565b610498611468565b61048e6004803603602081101561064b57600080fd5b50356001600160401b03166114b1565b61048e6004803603602081101561067157600080fd5b50356001600160401b03166114f8565b61048e6004803603602081101561069757600080fd5b50356001600160401b031661153f565b610498611586565b61048e600480360360208110156106c557600080fd5b50356001600160401b03166115cf565b610498611616565b610498600480360360208110156106f357600080fd5b50356001600160401b031661165f565b610498611673565b6104986116bc565b610498611705565b61049861174e565b61048e6004803603604081101561073957600080fd5b506001600160401b0381358116916020013516611797565b6104986117a4565b61048e6004803603602081101561076f57600080fd5b50356001600160401b03166117ed565b61048e6004803603602081101561079557600080fd5b50356001600160401b0316611834565b61049861187b565b6104986118c4565b61049861190d565b61048e600480360360208110156107d357600080fd5b50356001600160401b0316611a63565b61048e600480360360208110156107f957600080fd5b50356001600160401b0316611aaa565b61048e6004803603604081101561081f57600080fd5b506001600160401b0381358116916020013516611af1565b610498611bf3565b610498611c3c565b610498611d05565b61048e6004803603602081101561086557600080fd5b50356001600160401b0316611d4e565b61048e6004803603602081101561088b57600080fd5b50356001600160401b0316611d95565b610498611ddc565b61048e600480360360608110156108b957600080fd5b8101906020810181356401000000008111156108d457600080fd5b8201836020820111156108e657600080fd5b8035906020019184602083028401116401000000008311171561090857600080fd5b919080806020026020016040519081016040528093929190818152602001838360200280828437600092019190915250929594936020810193503591505064010000000081111561095857600080fd5b82018360208201111561096a57600080fd5b8035906020019184602083028401116401000000008311171561098c57600080fd5b91908080602002602001604051908101604052809392919081815260200183836020028082843760009201919091525092959493602081019350359150506401000000008111156109dc57600080fd5b8201836020820111156109ee57600080fd5b80359060200191846020830284011164010000000083111715610a1057600080fd5b919080806020026020016040519081016040528093929190818152602001838360200280828437600092019190915250929550611e25945050505050565b610498611eea565b61048e60048036036020811015610a6c57600080fd5b50351515611f33565b61048e60048036036020811015610a8b57600080fd5b50356001600160401b0316611fcd565b61048e60048036036020811015610ab157600080fd5b50356001600160401b0316612014565b61049861205b565b61048e60048036036020811015610adf57600080fd5b50356001600160401b03166120a4565b61048e60048036036020811015610b0557600080fd5b503515156120eb565b610498612185565b6104986121ce565b610498612217565b61048e60048036036020811015610b3c57600080fd5b50356001600160401b0316612260565b6104986122a7565b61048e60048036036020811015610b6a57600080fd5b50356001600160401b03166122f0565b61048e60048036036020811015610b9057600080fd5b50356001600160401b031661244f565b610498612496565b61049861255f565b61048e60048036036020811015610bc657600080fd5b50356001600160401b03166125a8565b61048e60048036036020811015610bec57600080fd5b50356001600160401b03166125ef565b610498612636565b61048e60048036036020811015610c1a57600080fd5b50356001600160401b031661267f565b61048e60048036036020811015610c4057600080fd5b50356001600160401b03166126c6565b61049861270d565b61048e60048036036020811015610c6e57600080fd5b50356001600160401b03166127d6565b61049860048036036020811015610c9457600080fd5b50356001600160401b031661281d565b61048e60048036036020811015610cba57600080fd5b50356001600160401b03166128b6565b61048e60048036036060811015610ce057600080fd5b506001600160401b0381358116916020810135821691604090910135166128fd565b60005490565b610d8173__$edd6a44efa4a8bdf57aa57ccba2bcfbb1d$__639a59734c6040518163ffffffff1660e01b815260040160206040518083038186803b158015610d4f57600080fd5b505af4158015610d63573d6000803e3d6000fd5b505050506040513d6020811015610d7957600080fd5b505182611af1565b50565b6000610dfe73__$edd6a44efa4a8bdf57aa57ccba2bcfbb1d$__636630ad876040518163ffffffff1660e01b815260040160206040518083038186803b158015610dcd57600080fd5b505af4158015610de1573d6000803e3d6000fd5b505050506040513d6020811015610df757600080fd5b505161281d565b905090565b610d8173__$edd6a44efa4a8bdf57aa57ccba2bcfbb1d$__6372eb67d06040518163ffffffff1660e01b815260040160206040518083038186803b158015610d4f57600080fd5b6000610dfe73__$edd6a44efa4a8bdf57aa57ccba2bcfbb1d$__638fd6b7c46040518163ffffffff1660e01b815260040160206040518083038186803b158015610dcd57600080fd5b6000610e9d611ddc565b8219169050610eab81611fcd565b5050565b6000610dfe73__$edd6a44efa4a8bdf57aa57ccba2bcfbb1d$__63734b96006040518163ffffffff1660e01b815260040160206040518083038186803b158015610dcd57600080fd5b6000610dfe73__$edd6a44efa4a8bdf57aa57ccba2bcfbb1d$__63443fd5986040518163ffffffff1660e01b815260040160206040518083038186803b158015610dcd57600080fd5b6000610dfe73__$edd6a44efa4a8bdf57aa57ccba2bcfbb1d$__63ca04595a6040518163ffffffff1660e01b815260040160206040518083038186803b158015610dcd57600080fd5b6000610dfe73__$edd6a44efa4a8bdf57aa57ccba2bcfbb1d$__6372eb67d06040518163ffffffff1660e01b815260040160206040518083038186803b158015610dcd57600080fd5b610d8173__$edd6a44efa4a8bdf57aa57ccba2bcfbb1d$__63ca04595a6040518163ffffffff1660e01b815260040160206040518083038186803b158015610d4f57600080fd5b610d8173__$edd6a44efa4a8bdf57aa57ccba2bcfbb1d$__63d124bd136040518163ffffffff1660e01b815260040160206040518083038186803b158015610d4f57600080fd5b6000610dfe73__$edd6a44efa4a8bdf57aa57ccba2bcfbb1d$__6329301cac6040518163ffffffff1660e01b815260040160206040518083038186803b158015610dcd57600080fd5b6000610dfe73__$96c0387300a4d16af366df01fc33f52e50$__63521819f56040518163ffffffff1660e01b815260040160206040518083038186803b158015610dcd57600080fd5b60006110fd612217565b9050811561117b5773__$6af7953b03ecb3cadd1ca9bb3675b9b8d6$__63e697ace96040518163ffffffff1660e01b815260040160206040518083038186803b15801561114957600080fd5b505af415801561115d573d6000803e3d6000fd5b505050506040513d602081101561117357600080fd5b5051176111ee565b73__$6af7953b03ecb3cadd1ca9bb3675b9b8d6$__63e697ace96040518163ffffffff1660e01b815260040160206040518083038186803b1580156111bf57600080fd5b505af41580156111d3573d6000803e3d6000fd5b505050506040513d60208110156111e957600080fd5b505119165b610eab73__$edd6a44efa4a8bdf57aa57ccba2bcfbb1d$__632ffdabc56040518163ffffffff1660e01b815260040160206040518083038186803b158015610d4f57600080fd5b600061123f611ddc565b82179050610eab81611fcd565b6000610dfe73__$edd6a44efa4a8bdf57aa57ccba2bcfbb1d$__63b255e9e46040518163ffffffff1660e01b815260040160206040518083038186803b158015610dcd57600080fd5b60006007198316808403826112a983612b44565b9050600073__$184ef4a65c614d890e6225597d290b0ed9$__63bf1924c5846008026001600160401b03166001896001600160401b031660026001600160401b03160a036001600160401b0316901b6040518263ffffffff1660e01b815260040180826001600160401b0316815260200191505060206040518083038186803b15801561133557600080fd5b505af4158015611349573d6000803e3d6000fd5b505050506040513d602081101561135f57600080fd5b50516040805163bf1924c560e01b81526001600160401b03858416811660048301529151929350600886029091169173__$184ef4a65c614d890e6225597d290b0ed9$__9163bf1924c5916024808301926020929190829003018186803b1580156113c957600080fd5b505af41580156113dd573d6000803e3d6000fd5b505050506040513d60208110156113f357600080fd5b50516001600160401b0316901c979650505050505050565b6000610dfe73__$edd6a44efa4a8bdf57aa57ccba2bcfbb1d$__637047f4df6040518163ffffffff1660e01b815260040160206040518083038186803b158015610dcd57600080fd5b61145d816122f0565b610d816000196125ef565b6000610dfe73__$edd6a44efa4a8bdf57aa57ccba2bcfbb1d$__6345827f696040518163ffffffff1660e01b815260040160206040518083038186803b158015610dcd57600080fd5b610d8173__$edd6a44efa4a8bdf57aa57ccba2bcfbb1d$__63e59cb5746040518163ffffffff1660e01b815260040160206040518083038186803b158015610d4f57600080fd5b610d8173__$edd6a44efa4a8bdf57aa57ccba2bcfbb1d$__63734b96006040518163ffffffff1660e01b815260040160206040518083038186803b158015610d4f57600080fd5b610d8173__$edd6a44efa4a8bdf57aa57ccba2bcfbb1d$__639ff9932b6040518163ffffffff1660e01b815260040160206040518083038186803b158015610d4f57600080fd5b6000610dfe73__$edd6a44efa4a8bdf57aa57ccba2bcfbb1d$__63e2e2e7126040518163ffffffff1660e01b815260040160206040518083038186803b158015610dcd57600080fd5b610d8173__$edd6a44efa4a8bdf57aa57ccba2bcfbb1d$__63a43e290f6040518163ffffffff1660e01b815260040160206040518083038186803b158015610d4f57600080fd5b6000610dfe73__$edd6a44efa4a8bdf57aa57ccba2bcfbb1d$__6392f5aa226040518163ffffffff1660e01b815260040160206040518083038186803b158015610dcd57600080fd5b600061166d8260080261281d565b92915050565b6000610dfe73__$3c056aa8a31fb3ce78f242f7ef99e26695$__63870981356040518163ffffffff1660e01b815260040160206040518083038186803b158015610dcd57600080fd5b6000610dfe73__$edd6a44efa4a8bdf57aa57ccba2bcfbb1d$__63d41a5b596040518163ffffffff1660e01b815260040160206040518083038186803b158015610dcd57600080fd5b6000610dfe73__$edd6a44efa4a8bdf57aa57ccba2bcfbb1d$__63e59cb5746040518163ffffffff1660e01b815260040160206040518083038186803b158015610dcd57600080fd5b6000610dfe73__$edd6a44efa4a8bdf57aa57ccba2bcfbb1d$__63da3e8d7b6040518163ffffffff1660e01b815260040160206040518083038186803b158015610dcd57600080fd5b610eab8260080282611af1565b6000610dfe73__$96c0387300a4d16af366df01fc33f52e50$__636299ea3f6040518163ffffffff1660e01b815260040160206040518083038186803b158015610dcd57600080fd5b610d8173__$edd6a44efa4a8bdf57aa57ccba2bcfbb1d$__6345827f696040518163ffffffff1660e01b815260040160206040518083038186803b158015610d4f57600080fd5b610d8173__$edd6a44efa4a8bdf57aa57ccba2bcfbb1d$__63b255e9e46040518163ffffffff1660e01b815260040160206040518083038186803b158015610d4f57600080fd5b6000610dfe73__$edd6a44efa4a8bdf57aa57ccba2bcfbb1d$__634a4c35106040518163ffffffff1660e01b815260040160206040518083038186803b158015610dcd57600080fd5b6000610dfe73__$edd6a44efa4a8bdf57aa57ccba2bcfbb1d$__63c585eede6040518163ffffffff1660e01b815260040160206040518083038186803b158015610dcd57600080fd5b600073__$6af7953b03ecb3cadd1ca9bb3675b9b8d6$__6317a0cac36040518163ffffffff1660e01b815260040160206040518083038186803b15801561195357600080fd5b505af4158015611967573d6000803e3d6000fd5b505050506040513d602081101561197d57600080fd5b5051604080516351a2ab4160e11b815290516001600160401b039092169173__$6af7953b03ecb3cadd1ca9bb3675b9b8d6$__9163a3455682916004808301926020929190829003018186803b1580156119d657600080fd5b505af41580156119ea573d6000803e3d6000fd5b505050506040513d6020811015611a0057600080fd5b505160408051632ffdabc560e01b81529051611a529173__$edd6a44efa4a8bdf57aa57ccba2bcfbb1d$__91632ffdabc591600480820192602092909190829003018186803b158015610dcd57600080fd5b166001600160401b0316901c905090565b610d8173__$edd6a44efa4a8bdf57aa57ccba2bcfbb1d$__63e80d17516040518163ffffffff1660e01b815260040160206040518083038186803b158015610d4f57600080fd5b610d8173__$edd6a44efa4a8bdf57aa57ccba2bcfbb1d$__637047f4df6040518163ffffffff1660e01b815260040160206040518083038186803b158015610d4f57600080fd5b600073__$184ef4a65c614d890e6225597d290b0ed9$__63bf1924c5836040518263ffffffff1660e01b815260040180826001600160401b0316815260200191505060206040518083038186803b158015611b4b57600080fd5b505af4158015611b5f573d6000803e3d6000fd5b505050506040513d6020811015611b7557600080fd5b505160c01b90506001600160c01b03198116611b92846000612b5a565b6001600160c01b03191614611bee576040805162461bcd60e51b815260206004820152601c60248201527f5772697474656e2076616c756520646f6573206e6f74206d6174636800000000604482015290519081900360640190fd5b505050565b6000610dfe73__$edd6a44efa4a8bdf57aa57ccba2bcfbb1d$__63d124bd136040518163ffffffff1660e01b815260040160206040518083038186803b158015610dcd57600080fd5b600073__$6af7953b03ecb3cadd1ca9bb3675b9b8d6$__63656b151f6040518163ffffffff1660e01b815260040160206040518083038186803b158015611c8257600080fd5b505af4158015611c96573d6000803e3d6000fd5b505050506040513d6020811015611cac57600080fd5b50516040805163fd198e5560e01b815290516001600160401b039092169173__$6af7953b03ecb3cadd1ca9bb3675b9b8d6$__9163fd198e55916004808301926020929190829003018186803b1580156119d657600080fd5b6000610dfe73__$edd6a44efa4a8bdf57aa57ccba2bcfbb1d$__639ff9932b6040518163ffffffff1660e01b815260040160206040518083038186803b158015610dcd57600080fd5b610d8173__$edd6a44efa4a8bdf57aa57ccba2bcfbb1d$__6329301cac6040518163ffffffff1660e01b815260040160206040518083038186803b158015610d4f57600080fd5b610d8173__$edd6a44efa4a8bdf57aa57ccba2bcfbb1d$__638fd6b7c46040518163ffffffff1660e01b815260040160206040518083038186803b158015610d4f57600080fd5b6000610dfe73__$edd6a44efa4a8bdf57aa57ccba2bcfbb1d$__63520aff6c6040518163ffffffff1660e01b815260040160206040518083038186803b158015610dcd57600080fd5b8151835114611e655760405162461bcd60e51b8152600401808060200182810382526027815260200180612ef96027913960400191505060405180910390fd5b8051835114611ea55760405162461bcd60e51b8152600401808060200182810382526027815260200180612ef96027913960400191505060405180910390fd5b600080558251611ebc906001906020860190612d05565b508151611ed0906002906020850190612dbd565b508051611ee4906003906020840190612e2a565b50505050565b6000610dfe73__$edd6a44efa4a8bdf57aa57ccba2bcfbb1d$__632935b8ce6040518163ffffffff1660e01b815260040160206040518083038186803b158015610dcd57600080fd5b6000611f3d612217565b90508115611f895773__$6af7953b03ecb3cadd1ca9bb3675b9b8d6$__63fd198e556040518163ffffffff1660e01b815260040160206040518083038186803b15801561114957600080fd5b73__$6af7953b03ecb3cadd1ca9bb3675b9b8d6$__63fd198e556040518163ffffffff1660e01b815260040160206040518083038186803b1580156111bf57600080fd5b610d8173__$edd6a44efa4a8bdf57aa57ccba2bcfbb1d$__63520aff6c6040518163ffffffff1660e01b815260040160206040518083038186803b158015610d4f57600080fd5b610d8173__$edd6a44efa4a8bdf57aa57ccba2bcfbb1d$__63443fd5986040518163ffffffff1660e01b815260040160206040518083038186803b158015610d4f57600080fd5b6000610dfe73__$edd6a44efa4a8bdf57aa57ccba2bcfbb1d$__639a59734c6040518163ffffffff1660e01b815260040160206040518083038186803b158015610dcd57600080fd5b610d8173__$96c0387300a4d16af366df01fc33f52e50$__630a279d716040518163ffffffff1660e01b815260040160206040518083038186803b158015610d4f57600080fd5b60006120f5612217565b905081156121415773__$6af7953b03ecb3cadd1ca9bb3675b9b8d6$__63a34556826040518163ffffffff1660e01b815260040160206040518083038186803b15801561114957600080fd5b73__$6af7953b03ecb3cadd1ca9bb3675b9b8d6$__63a34556826040518163ffffffff1660e01b815260040160206040518083038186803b1580156111bf57600080fd5b6000610dfe73__$edd6a44efa4a8bdf57aa57ccba2bcfbb1d$__6342db36676040518163ffffffff1660e01b815260040160206040518083038186803b158015610dcd57600080fd5b6000610dfe73__$edd6a44efa4a8bdf57aa57ccba2bcfbb1d$__63929127db6040518163ffffffff1660e01b815260040160206040518083038186803b158015610dcd57600080fd5b6000610dfe73__$edd6a44efa4a8bdf57aa57ccba2bcfbb1d$__632ffdabc56040518163ffffffff1660e01b815260040160206040518083038186803b158015610dcd57600080fd5b610d8173__$edd6a44efa4a8bdf57aa57ccba2bcfbb1d$__636630ad876040518163ffffffff1660e01b815260040160206040518083038186803b158015610d4f57600080fd5b6000610dfe73__$edd6a44efa4a8bdf57aa57ccba2bcfbb1d$__63e80d17516040518163ffffffff1660e01b815260040160206040518083038186803b158015610dcd57600080fd5b60006122fa612217565b905073__$6af7953b03ecb3cadd1ca9bb3675b9b8d6$__63910a52476040518163ffffffff1660e01b815260040160206040518083038186803b15801561234057600080fd5b505af4158015612354573d6000803e3d6000fd5b505050506040513d602081101561236a57600080fd5b50516040805163317d2bb560e01b815290516001600160401b0385811693169290921b9173__$6af7953b03ecb3cadd1ca9bb3675b9b8d6$__9163317d2bb5916004808301926020929190829003018186803b1580156123c957600080fd5b505af41580156123dd573d6000803e3d6000fd5b505050506040513d60208110156123f357600080fd5b505160408051632ffdabc560e01b815290519119939093169190911791610eab9173__$edd6a44efa4a8bdf57aa57ccba2bcfbb1d$__91632ffdabc5916004808301926020929190829003018186803b158015610d4f57600080fd5b610d8173__$edd6a44efa4a8bdf57aa57ccba2bcfbb1d$__632935b8ce6040518163ffffffff1660e01b815260040160206040518083038186803b158015610d4f57600080fd5b600073__$6af7953b03ecb3cadd1ca9bb3675b9b8d6$__63e89d408d6040518163ffffffff1660e01b815260040160206040518083038186803b1580156124dc57600080fd5b505af41580156124f0573d6000803e3d6000fd5b505050506040513d602081101561250657600080fd5b50516040805163e697ace960e01b815290516001600160401b039092169173__$6af7953b03ecb3cadd1ca9bb3675b9b8d6$__9163e697ace9916004808301926020929190829003018186803b1580156119d657600080fd5b6000610dfe73__$edd6a44efa4a8bdf57aa57ccba2bcfbb1d$__63a43e290f6040518163ffffffff1660e01b815260040160206040518083038186803b158015610dcd57600080fd5b610d8173__$96c0387300a4d16af366df01fc33f52e50$__63521819f56040518163ffffffff1660e01b815260040160206040518083038186803b158015610d4f57600080fd5b610d8173__$edd6a44efa4a8bdf57aa57ccba2bcfbb1d$__63e2e2e7126040518163ffffffff1660e01b815260040160206040518083038186803b158015610d4f57600080fd5b6000610dfe73__$96c0387300a4d16af366df01fc33f52e50$__630a279d716040518163ffffffff1660e01b815260040160206040518083038186803b158015610dcd57600080fd5b610d8173__$edd6a44efa4a8bdf57aa57ccba2bcfbb1d$__6342db36676040518163ffffffff1660e01b815260040160206040518083038186803b158015610d4f57600080fd5b610d8173__$edd6a44efa4a8bdf57aa57ccba2bcfbb1d$__63da3e8d7b6040518163ffffffff1660e01b815260040160206040518083038186803b158015610d4f57600080fd5b600073__$6af7953b03ecb3cadd1ca9bb3675b9b8d6$__63910a52476040518163ffffffff1660e01b815260040160206040518083038186803b15801561275357600080fd5b505af4158015612767573d6000803e3d6000fd5b505050506040513d602081101561277d57600080fd5b50516040805163317d2bb560e01b815290516001600160401b039092169173__$6af7953b03ecb3cadd1ca9bb3675b9b8d6$__9163317d2bb5916004808301926020929190829003018186803b1580156119d657600080fd5b610d8173__$edd6a44efa4a8bdf57aa57ccba2bcfbb1d$__63d41a5b596040518163ffffffff1660e01b815260040160206040518083038186803b158015610d4f57600080fd5b600073__$184ef4a65c614d890e6225597d290b0ed9$__63bf1924c5612844846001612b5a565b60c01c6040518263ffffffff1660e01b815260040180826001600160401b0316815260200191505060206040518083038186803b15801561288457600080fd5b505af4158015612898573d6000803e3d6000fd5b505050506040513d60208110156128ae57600080fd5b505192915050565b610d8173__$3c056aa8a31fb3ce78f242f7ef99e26695$__63870981356040518163ffffffff1660e01b815260040160206040518083038186803b158015610d4f57600080fd5b600060086001600160401b038316049050806001600160401b03166008141561292f5761292a8484611af1565b611ee4565b6007198416808503600061294283612b44565b9050600073__$184ef4a65c614d890e6225597d290b0ed9$__63bf1924c5846008026001600160401b03166001896001600160401b031660026001600160401b03160a036001600160401b0316901b6040518263ffffffff1660e01b815260040180826001600160401b0316815260200191505060206040518083038186803b1580156129ce57600080fd5b505af41580156129e2573d6000803e3d6000fd5b505050506040513d60208110156129f857600080fd5b50516040805163bf1924c560e01b81526001600160401b0389811660020a600019018b16166004820152905191925060009173__$184ef4a65c614d890e6225597d290b0ed9$__9163bf1924c5916024808301926020929190829003018186803b158015612a6557600080fd5b505af4158015612a79573d6000803e3d6000fd5b505050506040513d6020811015612a8f57600080fd5b50516040805163bf1924c560e01b81526001600160401b038084166008890282161c861988161790811660048301529151929350909173__$184ef4a65c614d890e6225597d290b0ed9$__9163bf1924c5916024808301926020929190829003018186803b158015612b0057600080fd5b505af4158015612b14573d6000803e3d6000fd5b505050506040513d6020811015612b2a57600080fd5b50519050612b388682611af1565b50505050505050505050565b6000612b51826001612b5a565b60c01c92915050565b6000811515600360005481548110612b6e57fe5b90600052602060002090602091828204019190069054906101000a900460ff16151514612be2576040805162461bcd60e51b815260206004820152601f60248201527f41636365737320776173206e6f742074686520636f7272656374207479706500604482015290519081900360640190fd5b6000600160005481548110612bf357fe5b90600052602060002090600491828204019190066008029054906101000a90046001600160401b031690506000600260005481548110612c2f57fe5b60009182526020822060048204015482546001019092556003166008026101000a900460c01b90506007821615612cad576040805162461bcd60e51b815260206004820152601760248201527f506f736974696f6e206973206e6f7420616c69676e6564000000000000000000604482015290519081900360640190fd5b846001600160401b0316826001600160401b031614612cfd5760405162461bcd60e51b8152600401808060200182810382526026815260200180612ed36026913960400191505060405180910390fd5b949350505050565b82805482825590600052602060002090600301600490048101928215612dad5791602002820160005b83821115612d7857835183826101000a8154816001600160401b0302191690836001600160401b031602179055509260200192600801602081600701049283019260010302612d2e565b8015612dab5782816101000a8154906001600160401b030219169055600801602081600701049283019260010302612d78565b505b50612db9929150612ebd565b5090565b82805482825590600052602060002090600301600490048101928215612dad5791602002820160005b83821115612d7857835183826101000a8154816001600160401b03021916908360c01c02179055509260200192600801602081600701049283019260010302612de6565b82805482825590600052602060002090601f01602090048101928215612dad5791602002820160005b83821115612e9057835183826101000a81548160ff0219169083151502179055509260200192600101602081600001049283019260010302612e53565b8015612dab5782816101000a81549060ff0219169055600101602081600001049283019260010302612e90565b5b80821115612db95760008155600101612ebe56fe506f736974696f6e20616e642072656164206164647265737320646f206e6f74206d61746368526561642f77726974652061727261797320617265206e6f74207468652073616d652073697a65a2646970667358221220d8ad88147f407e1aa5f265625c1c1c5882c5f9367822640b6b9cae9958deedda64736f6c63430007040033",
  "libraries": {
    "BitsManipulationLibrary": "0xAc301c9CD929bBC333BB47cf12802B5045A31820",
    "RiscVConstants": "0xa12215Be01eCDF08cEFf0737426a19f2A03ED267",
    "ShadowAddresses": "0x35323c7063fc1FEE755723Cdf02Edd1906B3a660",
    "HTIF": "0x61A0DF50Ef1EcabFF981d974C0a94f2aE929cC62",
    "CLINT": "0x0A0D47bE600088fBF116075A7d602f1017C5f9b5"
  },
  "devdoc": {
    "author": "Felipe Argento",
    "details": "Every read performed by mi.memoryRead or mi.write should be followed by anendianess swap from little endian to big endian. This is the case becauseEVM is big endian but RiscV is little endian.Reference: riscv-spec-v2.2.pdf - Preface to Version 2.0Reference: Ethereum yellowpaper - Version 69351d5Appendix H. Virtual Machine Specification",
    "kind": "dev",
    "methods": {},
    "title": "MemoryInteractor",
    "version": 1
  },
  "userdoc": {
    "kind": "user",
    "methods": {},
    "notice": "Bridge between Memory Manager and Step",
    "version": 1
  },
  "storageLayout": {
    "storage": [
      {
        "astId": 5851,
        "contract": "contracts/MemoryInteractor.sol:MemoryInteractor",
        "label": "rwIndex",
        "offset": 0,
        "slot": "0",
        "type": "t_uint256"
      },
      {
        "astId": 5854,
        "contract": "contracts/MemoryInteractor.sol:MemoryInteractor",
        "label": "rwPositions",
        "offset": 0,
        "slot": "1",
        "type": "t_array(t_uint64)dyn_storage"
      },
      {
        "astId": 5857,
        "contract": "contracts/MemoryInteractor.sol:MemoryInteractor",
        "label": "rwValues",
        "offset": 0,
        "slot": "2",
        "type": "t_array(t_bytes8)dyn_storage"
      },
      {
        "astId": 5860,
        "contract": "contracts/MemoryInteractor.sol:MemoryInteractor",
        "label": "isRead",
        "offset": 0,
        "slot": "3",
        "type": "t_array(t_bool)dyn_storage"
      }
    ],
    "types": {
      "t_array(t_bool)dyn_storage": {
        "base": "t_bool",
        "encoding": "dynamic_array",
        "label": "bool[]",
        "numberOfBytes": "32"
      },
      "t_array(t_bytes8)dyn_storage": {
        "base": "t_bytes8",
        "encoding": "dynamic_array",
        "label": "bytes8[]",
        "numberOfBytes": "32"
      },
      "t_array(t_uint64)dyn_storage": {
        "base": "t_uint64",
        "encoding": "dynamic_array",
        "label": "uint64[]",
        "numberOfBytes": "32"
      },
      "t_bool": {
        "encoding": "inplace",
        "label": "bool",
        "numberOfBytes": "1"
      },
      "t_bytes8": {
        "encoding": "inplace",
        "label": "bytes8",
        "numberOfBytes": "8"
      },
      "t_uint256": {
        "encoding": "inplace",
        "label": "uint256",
        "numberOfBytes": "32"
      },
      "t_uint64": {
        "encoding": "inplace",
        "label": "uint64",
        "numberOfBytes": "8"
      }
    }
  }
}