{
  "address": "0x24E7cb31Ee960B8f8D04c2112aF78D1c12e69375",
  "abi": [
    {
      "inputs": [],
      "name": "getMcauseBreakpoint",
      "outputs": [
        {
          "internalType": "uint64",
          "name": "",
          "type": "uint64"
        }
      ],
      "stateMutability": "pure",
      "type": "function"
    },
    {
      "inputs": [],
      "name": "getMcauseEcallBase",
      "outputs": [
        {
          "internalType": "uint64",
          "name": "",
          "type": "uint64"
        }
      ],
      "stateMutability": "pure",
      "type": "function"
    },
    {
      "inputs": [],
      "name": "getMcauseFetchPageFault",
      "outputs": [
        {
          "internalType": "uint64",
          "name": "",
          "type": "uint64"
        }
      ],
      "stateMutability": "pure",
      "type": "function"
    },
    {
      "inputs": [],
      "name": "getMcauseIllegalInsn",
      "outputs": [
        {
          "internalType": "uint64",
          "name": "",
          "type": "uint64"
        }
      ],
      "stateMutability": "pure",
      "type": "function"
    },
    {
      "inputs": [],
      "name": "getMcauseInsnAccessFault",
      "outputs": [
        {
          "internalType": "uint64",
          "name": "",
          "type": "uint64"
        }
      ],
      "stateMutability": "pure",
      "type": "function"
    },
    {
      "inputs": [],
      "name": "getMcauseInsnAddressMisaligned",
      "outputs": [
        {
          "internalType": "uint64",
          "name": "",
          "type": "uint64"
        }
      ],
      "stateMutability": "pure",
      "type": "function"
    },
    {
      "inputs": [],
      "name": "getMcauseInterruptFlag",
      "outputs": [
        {
          "internalType": "uint64",
          "name": "",
          "type": "uint64"
        }
      ],
      "stateMutability": "pure",
      "type": "function"
    },
    {
      "inputs": [],
      "name": "getMcauseLoadAccessFault",
      "outputs": [
        {
          "internalType": "uint64",
          "name": "",
          "type": "uint64"
        }
      ],
      "stateMutability": "pure",
      "type": "function"
    },
    {
      "inputs": [],
      "name": "getMcauseLoadAddressMisaligned",
      "outputs": [
        {
          "internalType": "uint64",
          "name": "",
          "type": "uint64"
        }
      ],
      "stateMutability": "pure",
      "type": "function"
    },
    {
      "inputs": [],
      "name": "getMcauseLoadPageFault",
      "outputs": [
        {
          "internalType": "uint64",
          "name": "",
          "type": "uint64"
        }
      ],
      "stateMutability": "pure",
      "type": "function"
    },
    {
      "inputs": [],
      "name": "getMcauseStoreAmoAccessFault",
      "outputs": [
        {
          "internalType": "uint64",
          "name": "",
          "type": "uint64"
        }
      ],
      "stateMutability": "pure",
      "type": "function"
    },
    {
      "inputs": [],
      "name": "getMcauseStoreAmoAddressMisaligned",
      "outputs": [
        {
          "internalType": "uint64",
          "name": "",
          "type": "uint64"
        }
      ],
      "stateMutability": "pure",
      "type": "function"
    },
    {
      "inputs": [],
      "name": "getMcauseStoreAmoPageFault",
      "outputs": [
        {
          "internalType": "uint64",
          "name": "",
          "type": "uint64"
        }
      ],
      "stateMutability": "pure",
      "type": "function"
    }
  ],
  "transactionHash": "0x4419be5ffc117ba1a92d9e672dfead56510fabd7f61628fb73f965b566f42116",
  "args": [],
  "solcInputHash": "cacea020086e46d19bd052f6c12f6e45",
  "bytecode": "0x611512610026600b82828239805160001a60731461001957fe5b30600052607381538281f3fe73000000000000000000000000000000000000000030146080604052600436106100f45760003560e01c806348b36c3a11610096578063883d4fb011610070578063883d4fb0146101a9578063a4652fa5146101b1578063d8685e08146101b9578063f4a40761146101c1576100f4565b806348b36c3a146101915780634d89d393146101995780637273ba70146101a1576100f4565b80633afcb7a1116100d25780633afcb7a11461017157806340391774146101795780634074af28146101815780634431216014610189576100f4565b806301298404146100f95780630ab3e6661461011d5780630b2c700914610125575b600080fd5b6101016101c9565b604080516001600160401b039092168252519081900360200190f35b6101016101ce565b81801561013157600080fd5b5061016f6004803603606081101561014857600080fd5b506001600160a01b03813516906001600160401b03602082013581169160400135166101d3565b005b610101611422565b610101611427565b61010161142c565b610101611431565b610101611436565b61010161143b565b610101611440565b610101611445565b6101016114cd565b6101016114d2565b6101016114d7565b600590565b600090565b600080846001600160a01b031663f7ac913d6040518163ffffffff1660e01b8152600401602060405180830381600087803b15801561021157600080fd5b505af1158015610225573d6000803e3d6000fd5b505050506040513d602081101561023b57600080fd5b50516040805163026797d960e01b8152905191925073512dD9B131C45E9Bba375BFA83bC081BF4aF1aaB9163026797d991600480820192602092909190829003018186803b15801561028c57600080fd5b505af41580156102a0573d6000803e3d6000fd5b505050506040513d60208110156102b657600080fd5b50516001600160401b0390811690821611610470576102d3611445565b84166001600160401b03166000146103ee57600173512dD9B131C45E9Bba375BFA83bC081BF4aF1aaB63b4e549ba6040518163ffffffff1660e01b815260040160206040518083038186803b15801561032b57600080fd5b505af415801561033f573d6000803e3d6000fd5b505050506040513d602081101561035557600080fd5b81019080805190602001909291905050500384166001600160401b0316856001600160a01b031663a740dbc16040518163ffffffff1660e01b8152600401602060405180830381600087803b1580156103ad57600080fd5b505af11580156103c1573d6000803e3d6000fd5b505050506040513d60208110156103d757600080fd5b50516001600160401b0316901c6001169150610470565b836001600160401b0316856001600160a01b0316636a72b27d6040518163ffffffff1660e01b8152600401602060405180830381600087803b15801561043357600080fd5b505af1158015610447573d6000803e3d6000fd5b505050506040513d602081101561045d57600080fd5b50516001600160401b0316901c60011691505b6001600160401b03821615610c4f57846001600160a01b03166378c49574856040518263ffffffff1660e01b815260040180826001600160401b03168152602001915050600060405180830381600087803b1580156104ce57600080fd5b505af11580156104e2573d6000803e3d6000fd5b50505050846001600160a01b03166357907837866001600160a01b031663650ca32b6040518163ffffffff1660e01b8152600401602060405180830381600087803b15801561053057600080fd5b505af1158015610544573d6000803e3d6000fd5b505050506040513d602081101561055a57600080fd5b5051604080516001600160e01b031960e085901b1681526001600160401b03909216600483015251602480830192600092919082900301818387803b1580156105a257600080fd5b505af11580156105b6573d6000803e3d6000fd5b50505050846001600160a01b0316639c7b005d846040518263ffffffff1660e01b815260040180826001600160401b03168152602001915050600060405180830381600087803b15801561060957600080fd5b505af115801561061d573d6000803e3d6000fd5b505050506000856001600160a01b031663b5b98ed46040518163ffffffff1660e01b8152600401602060405180830381600087803b15801561065e57600080fd5b505af1158015610672573d6000803e3d6000fd5b505050506040513d602081101561068857600080fd5b505160408051633a75c9d960e21b8152905191925073512dD9B131C45E9Bba375BFA83bC081BF4aF1aaB9163e9d7276491600480820192602092909190829003018186803b1580156106d957600080fd5b505af41580156106ed573d6000803e3d6000fd5b505050506040513d602081101561070357600080fd5b50516040805163026797d960e01b815290516001600160401b039092169173512dD9B131C45E9Bba375BFA83bC081BF4aF1aaB9163026797d9916004808301926020929190829003018186803b15801561075c57600080fd5b505af4158015610770573d6000803e3d6000fd5b505050506040513d602081101561078657600080fd5b505160408051631bd5453960e21b815290516001600160401b0385811693169290921c60011690921b9173512dD9B131C45E9Bba375BFA83bC081BF4aF1aaB91636f5514e491600480820192602092909190829003018186803b1580156107ec57600080fd5b505af4158015610800573d6000803e3d6000fd5b505050506040513d602081101561081657600080fd5b50516040805163c3b85a8f60e01b81529051911993909316919091179173512dD9B131C45E9Bba375BFA83bC081BF4aF1aaB9163c3b85a8f91600480820192602092909190829003018186803b15801561086f57600080fd5b505af4158015610883573d6000803e3d6000fd5b505050506040513d602081101561089957600080fd5b505160408051636367286b60e11b815290516001600160401b0385811693169290921b9173512dD9B131C45E9Bba375BFA83bC081BF4aF1aaB9163c6ce50d6916004808301926020929190829003018186803b1580156108f857600080fd5b505af415801561090c573d6000803e3d6000fd5b505050506040513d602081101561092257600080fd5b50516040805163594dc37360e01b81529051911993909316919091179173512dD9B131C45E9Bba375BFA83bC081BF4aF1aaB9163594dc37391600480820192602092909190829003018186803b15801561097b57600080fd5b505af415801561098f573d6000803e3d6000fd5b505050506040513d60208110156109a557600080fd5b505160408051631eab89a760e31b81529119929092166001600160401b038116600483015291516001600160a01b0388169163f55c4d3891602480830192600092919082900301818387803b1580156109fd57600080fd5b505af1158015610a11573d6000803e3d6000fd5b5050505073512dD9B131C45E9Bba375BFA83bC081BF4aF1aaB63026797d96040518163ffffffff1660e01b815260040160206040518083038186803b158015610a5957600080fd5b505af4158015610a6d573d6000803e3d6000fd5b505050506040513d6020811015610a8357600080fd5b50516001600160401b03838116911614610b7557856001600160a01b03166354749af373512dD9B131C45E9Bba375BFA83bC081BF4aF1aaB63026797d96040518163ffffffff1660e01b815260040160206040518083038186803b158015610aea57600080fd5b505af4158015610afe573d6000803e3d6000fd5b505050506040513d6020811015610b1457600080fd5b5051604080516001600160e01b031960e085901b1681526001600160401b03909216600483015251602480830192600092919082900301818387803b158015610b5c57600080fd5b505af1158015610b70573d6000803e3d6000fd5b505050505b856001600160a01b031663f9911587876001600160a01b0316630f84c0466040518163ffffffff1660e01b8152600401602060405180830381600087803b158015610bbf57600080fd5b505af1158015610bd3573d6000803e3d6000fd5b505050506040513d6020811015610be957600080fd5b5051604080516001600160e01b031960e085901b1681526001600160401b03909216600483015251602480830192600092919082900301818387803b158015610c3157600080fd5b505af1158015610c45573d6000803e3d6000fd5b505050505061141b565b846001600160a01b03166389365909856040518263ffffffff1660e01b815260040180826001600160401b03168152602001915050600060405180830381600087803b158015610c9e57600080fd5b505af1158015610cb2573d6000803e3d6000fd5b50505050846001600160a01b03166328751b36866001600160a01b031663650ca32b6040518163ffffffff1660e01b8152600401602060405180830381600087803b158015610d0057600080fd5b505af1158015610d14573d6000803e3d6000fd5b505050506040513d6020811015610d2a57600080fd5b5051604080516001600160e01b031960e085901b1681526001600160401b03909216600483015251602480830192600092919082900301818387803b158015610d7257600080fd5b505af1158015610d86573d6000803e3d6000fd5b50505050846001600160a01b031663f604edb8846040518263ffffffff1660e01b815260040180826001600160401b03168152602001915050600060405180830381600087803b158015610dd957600080fd5b505af1158015610ded573d6000803e3d6000fd5b505050506000856001600160a01b031663b5b98ed46040518163ffffffff1660e01b8152600401602060405180830381600087803b158015610e2e57600080fd5b505af1158015610e42573d6000803e3d6000fd5b505050506040513d6020811015610e5857600080fd5b505160408051633f35106560e11b8152905191925073512dD9B131C45E9Bba375BFA83bC081BF4aF1aaB91637e6a20ca91600480820192602092909190829003018186803b158015610ea957600080fd5b505af4158015610ebd573d6000803e3d6000fd5b505050506040513d6020811015610ed357600080fd5b50516040805163cf7ecf7960e01b815290516001600160401b039092169173512dD9B131C45E9Bba375BFA83bC081BF4aF1aaB9163cf7ecf79916004808301926020929190829003018186803b158015610f2c57600080fd5b505af4158015610f40573d6000803e3d6000fd5b505050506040513d6020811015610f5657600080fd5b50516040805163a8f81e2360e01b815290516001600160401b0385811693169290921c60011690921b9173512dD9B131C45E9Bba375BFA83bC081BF4aF1aaB9163a8f81e2391600480820192602092909190829003018186803b158015610fbc57600080fd5b505af4158015610fd0573d6000803e3d6000fd5b505050506040513d6020811015610fe657600080fd5b50516040805163285b784760e21b81529051911993909316919091179173512dD9B131C45E9Bba375BFA83bC081BF4aF1aaB9163a16de11c91600480820192602092909190829003018186803b15801561103f57600080fd5b505af4158015611053573d6000803e3d6000fd5b505050506040513d602081101561106957600080fd5b5051604080516373a3563960e11b815290516001600160401b0385811693169290921b9173512dD9B131C45E9Bba375BFA83bC081BF4aF1aaB9163e746ac72916004808301926020929190829003018186803b1580156110c857600080fd5b505af41580156110dc573d6000803e3d6000fd5b505050506040513d60208110156110f257600080fd5b505160408051633cbc879360e21b81529051911993909316919091179173512dD9B131C45E9Bba375BFA83bC081BF4aF1aaB9163f2f21e4c91600480820192602092909190829003018186803b15801561114b57600080fd5b505af415801561115f573d6000803e3d6000fd5b505050506040513d602081101561117557600080fd5b505160408051631eab89a760e31b81529119929092166001600160401b038116600483015291516001600160a01b0388169163f55c4d3891602480830192600092919082900301818387803b1580156111cd57600080fd5b505af11580156111e1573d6000803e3d6000fd5b5050505073512dD9B131C45E9Bba375BFA83bC081BF4aF1aaB63cf7ecf796040518163ffffffff1660e01b815260040160206040518083038186803b15801561122957600080fd5b505af415801561123d573d6000803e3d6000fd5b505050506040513d602081101561125357600080fd5b50516001600160401b0383811691161461134557856001600160a01b03166354749af373512dD9B131C45E9Bba375BFA83bC081BF4aF1aaB63cf7ecf796040518163ffffffff1660e01b815260040160206040518083038186803b1580156112ba57600080fd5b505af41580156112ce573d6000803e3d6000fd5b505050506040513d60208110156112e457600080fd5b5051604080516001600160e01b031960e085901b1681526001600160401b03909216600483015251602480830192600092919082900301818387803b15801561132c57600080fd5b505af1158015611340573d6000803e3d6000fd5b505050505b856001600160a01b031663f9911587876001600160a01b03166311cf3a226040518163ffffffff1660e01b8152600401602060405180830381600087803b15801561138f57600080fd5b505af11580156113a3573d6000803e3d6000fd5b505050506040513d60208110156113b957600080fd5b5051604080516001600160e01b031960e085901b1681526001600160401b03909216600483015251602480830192600092919082900301818387803b15801561140157600080fd5b505af1158015611415573d6000803e3d6000fd5b50505050505b5050505050565b600190565b600d90565b600390565b600890565b600790565b600c90565b600290565b6000600173512dD9B131C45E9Bba375BFA83bC081BF4aF1aaB63b4e549ba6040518163ffffffff1660e01b815260040160206040518083038186803b15801561148d57600080fd5b505af41580156114a1573d6000803e3d6000fd5b505050506040513d60208110156114b757600080fd5b505160019190036001600160401b03161b919050565b600f90565b600690565b60049056fea264697066735822122023b83beaf665020c3c9a808769f6aea5f2694e9569e3b9a340e33c85b18737b264736f6c63430007040033",
  "deployedBytecode": "0x73000000000000000000000000000000000000000030146080604052600436106100f45760003560e01c806348b36c3a11610096578063883d4fb011610070578063883d4fb0146101a9578063a4652fa5146101b1578063d8685e08146101b9578063f4a40761146101c1576100f4565b806348b36c3a146101915780634d89d393146101995780637273ba70146101a1576100f4565b80633afcb7a1116100d25780633afcb7a11461017157806340391774146101795780634074af28146101815780634431216014610189576100f4565b806301298404146100f95780630ab3e6661461011d5780630b2c700914610125575b600080fd5b6101016101c9565b604080516001600160401b039092168252519081900360200190f35b6101016101ce565b81801561013157600080fd5b5061016f6004803603606081101561014857600080fd5b506001600160a01b03813516906001600160401b03602082013581169160400135166101d3565b005b610101611422565b610101611427565b61010161142c565b610101611431565b610101611436565b61010161143b565b610101611440565b610101611445565b6101016114cd565b6101016114d2565b6101016114d7565b600590565b600090565b600080846001600160a01b031663f7ac913d6040518163ffffffff1660e01b8152600401602060405180830381600087803b15801561021157600080fd5b505af1158015610225573d6000803e3d6000fd5b505050506040513d602081101561023b57600080fd5b50516040805163026797d960e01b8152905191925073__$6af7953b03ecb3cadd1ca9bb3675b9b8d6$__9163026797d991600480820192602092909190829003018186803b15801561028c57600080fd5b505af41580156102a0573d6000803e3d6000fd5b505050506040513d60208110156102b657600080fd5b50516001600160401b0390811690821611610470576102d3611445565b84166001600160401b03166000146103ee57600173__$6af7953b03ecb3cadd1ca9bb3675b9b8d6$__63b4e549ba6040518163ffffffff1660e01b815260040160206040518083038186803b15801561032b57600080fd5b505af415801561033f573d6000803e3d6000fd5b505050506040513d602081101561035557600080fd5b81019080805190602001909291905050500384166001600160401b0316856001600160a01b031663a740dbc16040518163ffffffff1660e01b8152600401602060405180830381600087803b1580156103ad57600080fd5b505af11580156103c1573d6000803e3d6000fd5b505050506040513d60208110156103d757600080fd5b50516001600160401b0316901c6001169150610470565b836001600160401b0316856001600160a01b0316636a72b27d6040518163ffffffff1660e01b8152600401602060405180830381600087803b15801561043357600080fd5b505af1158015610447573d6000803e3d6000fd5b505050506040513d602081101561045d57600080fd5b50516001600160401b0316901c60011691505b6001600160401b03821615610c4f57846001600160a01b03166378c49574856040518263ffffffff1660e01b815260040180826001600160401b03168152602001915050600060405180830381600087803b1580156104ce57600080fd5b505af11580156104e2573d6000803e3d6000fd5b50505050846001600160a01b03166357907837866001600160a01b031663650ca32b6040518163ffffffff1660e01b8152600401602060405180830381600087803b15801561053057600080fd5b505af1158015610544573d6000803e3d6000fd5b505050506040513d602081101561055a57600080fd5b5051604080516001600160e01b031960e085901b1681526001600160401b03909216600483015251602480830192600092919082900301818387803b1580156105a257600080fd5b505af11580156105b6573d6000803e3d6000fd5b50505050846001600160a01b0316639c7b005d846040518263ffffffff1660e01b815260040180826001600160401b03168152602001915050600060405180830381600087803b15801561060957600080fd5b505af115801561061d573d6000803e3d6000fd5b505050506000856001600160a01b031663b5b98ed46040518163ffffffff1660e01b8152600401602060405180830381600087803b15801561065e57600080fd5b505af1158015610672573d6000803e3d6000fd5b505050506040513d602081101561068857600080fd5b505160408051633a75c9d960e21b8152905191925073__$6af7953b03ecb3cadd1ca9bb3675b9b8d6$__9163e9d7276491600480820192602092909190829003018186803b1580156106d957600080fd5b505af41580156106ed573d6000803e3d6000fd5b505050506040513d602081101561070357600080fd5b50516040805163026797d960e01b815290516001600160401b039092169173__$6af7953b03ecb3cadd1ca9bb3675b9b8d6$__9163026797d9916004808301926020929190829003018186803b15801561075c57600080fd5b505af4158015610770573d6000803e3d6000fd5b505050506040513d602081101561078657600080fd5b505160408051631bd5453960e21b815290516001600160401b0385811693169290921c60011690921b9173__$6af7953b03ecb3cadd1ca9bb3675b9b8d6$__91636f5514e491600480820192602092909190829003018186803b1580156107ec57600080fd5b505af4158015610800573d6000803e3d6000fd5b505050506040513d602081101561081657600080fd5b50516040805163c3b85a8f60e01b81529051911993909316919091179173__$6af7953b03ecb3cadd1ca9bb3675b9b8d6$__9163c3b85a8f91600480820192602092909190829003018186803b15801561086f57600080fd5b505af4158015610883573d6000803e3d6000fd5b505050506040513d602081101561089957600080fd5b505160408051636367286b60e11b815290516001600160401b0385811693169290921b9173__$6af7953b03ecb3cadd1ca9bb3675b9b8d6$__9163c6ce50d6916004808301926020929190829003018186803b1580156108f857600080fd5b505af415801561090c573d6000803e3d6000fd5b505050506040513d602081101561092257600080fd5b50516040805163594dc37360e01b81529051911993909316919091179173__$6af7953b03ecb3cadd1ca9bb3675b9b8d6$__9163594dc37391600480820192602092909190829003018186803b15801561097b57600080fd5b505af415801561098f573d6000803e3d6000fd5b505050506040513d60208110156109a557600080fd5b505160408051631eab89a760e31b81529119929092166001600160401b038116600483015291516001600160a01b0388169163f55c4d3891602480830192600092919082900301818387803b1580156109fd57600080fd5b505af1158015610a11573d6000803e3d6000fd5b5050505073__$6af7953b03ecb3cadd1ca9bb3675b9b8d6$__63026797d96040518163ffffffff1660e01b815260040160206040518083038186803b158015610a5957600080fd5b505af4158015610a6d573d6000803e3d6000fd5b505050506040513d6020811015610a8357600080fd5b50516001600160401b03838116911614610b7557856001600160a01b03166354749af373__$6af7953b03ecb3cadd1ca9bb3675b9b8d6$__63026797d96040518163ffffffff1660e01b815260040160206040518083038186803b158015610aea57600080fd5b505af4158015610afe573d6000803e3d6000fd5b505050506040513d6020811015610b1457600080fd5b5051604080516001600160e01b031960e085901b1681526001600160401b03909216600483015251602480830192600092919082900301818387803b158015610b5c57600080fd5b505af1158015610b70573d6000803e3d6000fd5b505050505b856001600160a01b031663f9911587876001600160a01b0316630f84c0466040518163ffffffff1660e01b8152600401602060405180830381600087803b158015610bbf57600080fd5b505af1158015610bd3573d6000803e3d6000fd5b505050506040513d6020811015610be957600080fd5b5051604080516001600160e01b031960e085901b1681526001600160401b03909216600483015251602480830192600092919082900301818387803b158015610c3157600080fd5b505af1158015610c45573d6000803e3d6000fd5b505050505061141b565b846001600160a01b03166389365909856040518263ffffffff1660e01b815260040180826001600160401b03168152602001915050600060405180830381600087803b158015610c9e57600080fd5b505af1158015610cb2573d6000803e3d6000fd5b50505050846001600160a01b03166328751b36866001600160a01b031663650ca32b6040518163ffffffff1660e01b8152600401602060405180830381600087803b158015610d0057600080fd5b505af1158015610d14573d6000803e3d6000fd5b505050506040513d6020811015610d2a57600080fd5b5051604080516001600160e01b031960e085901b1681526001600160401b03909216600483015251602480830192600092919082900301818387803b158015610d7257600080fd5b505af1158015610d86573d6000803e3d6000fd5b50505050846001600160a01b031663f604edb8846040518263ffffffff1660e01b815260040180826001600160401b03168152602001915050600060405180830381600087803b158015610dd957600080fd5b505af1158015610ded573d6000803e3d6000fd5b505050506000856001600160a01b031663b5b98ed46040518163ffffffff1660e01b8152600401602060405180830381600087803b158015610e2e57600080fd5b505af1158015610e42573d6000803e3d6000fd5b505050506040513d6020811015610e5857600080fd5b505160408051633f35106560e11b8152905191925073__$6af7953b03ecb3cadd1ca9bb3675b9b8d6$__91637e6a20ca91600480820192602092909190829003018186803b158015610ea957600080fd5b505af4158015610ebd573d6000803e3d6000fd5b505050506040513d6020811015610ed357600080fd5b50516040805163cf7ecf7960e01b815290516001600160401b039092169173__$6af7953b03ecb3cadd1ca9bb3675b9b8d6$__9163cf7ecf79916004808301926020929190829003018186803b158015610f2c57600080fd5b505af4158015610f40573d6000803e3d6000fd5b505050506040513d6020811015610f5657600080fd5b50516040805163a8f81e2360e01b815290516001600160401b0385811693169290921c60011690921b9173__$6af7953b03ecb3cadd1ca9bb3675b9b8d6$__9163a8f81e2391600480820192602092909190829003018186803b158015610fbc57600080fd5b505af4158015610fd0573d6000803e3d6000fd5b505050506040513d6020811015610fe657600080fd5b50516040805163285b784760e21b81529051911993909316919091179173__$6af7953b03ecb3cadd1ca9bb3675b9b8d6$__9163a16de11c91600480820192602092909190829003018186803b15801561103f57600080fd5b505af4158015611053573d6000803e3d6000fd5b505050506040513d602081101561106957600080fd5b5051604080516373a3563960e11b815290516001600160401b0385811693169290921b9173__$6af7953b03ecb3cadd1ca9bb3675b9b8d6$__9163e746ac72916004808301926020929190829003018186803b1580156110c857600080fd5b505af41580156110dc573d6000803e3d6000fd5b505050506040513d60208110156110f257600080fd5b505160408051633cbc879360e21b81529051911993909316919091179173__$6af7953b03ecb3cadd1ca9bb3675b9b8d6$__9163f2f21e4c91600480820192602092909190829003018186803b15801561114b57600080fd5b505af415801561115f573d6000803e3d6000fd5b505050506040513d602081101561117557600080fd5b505160408051631eab89a760e31b81529119929092166001600160401b038116600483015291516001600160a01b0388169163f55c4d3891602480830192600092919082900301818387803b1580156111cd57600080fd5b505af11580156111e1573d6000803e3d6000fd5b5050505073__$6af7953b03ecb3cadd1ca9bb3675b9b8d6$__63cf7ecf796040518163ffffffff1660e01b815260040160206040518083038186803b15801561122957600080fd5b505af415801561123d573d6000803e3d6000fd5b505050506040513d602081101561125357600080fd5b50516001600160401b0383811691161461134557856001600160a01b03166354749af373__$6af7953b03ecb3cadd1ca9bb3675b9b8d6$__63cf7ecf796040518163ffffffff1660e01b815260040160206040518083038186803b1580156112ba57600080fd5b505af41580156112ce573d6000803e3d6000fd5b505050506040513d60208110156112e457600080fd5b5051604080516001600160e01b031960e085901b1681526001600160401b03909216600483015251602480830192600092919082900301818387803b15801561132c57600080fd5b505af1158015611340573d6000803e3d6000fd5b505050505b856001600160a01b031663f9911587876001600160a01b03166311cf3a226040518163ffffffff1660e01b8152600401602060405180830381600087803b15801561138f57600080fd5b505af11580156113a3573d6000803e3d6000fd5b505050506040513d60208110156113b957600080fd5b5051604080516001600160e01b031960e085901b1681526001600160401b03909216600483015251602480830192600092919082900301818387803b15801561140157600080fd5b505af1158015611415573d6000803e3d6000fd5b50505050505b5050505050565b600190565b600d90565b600390565b600890565b600790565b600c90565b600290565b6000600173__$6af7953b03ecb3cadd1ca9bb3675b9b8d6$__63b4e549ba6040518163ffffffff1660e01b815260040160206040518083038186803b15801561148d57600080fd5b505af41580156114a1573d6000803e3d6000fd5b505050506040513d60208110156114b757600080fd5b505160019190036001600160401b03161b919050565b600f90565b600690565b60049056fea264697066735822122023b83beaf665020c3c9a808769f6aea5f2694e9569e3b9a340e33c85b18737b264736f6c63430007040033",
  "libraries": {
    "RiscVConstants": "0x512dD9B131C45E9Bba375BFA83bC081BF4aF1aaB"
  },
  "devdoc": {
    "author": "Felipe Argento",
    "kind": "dev",
    "methods": {
      "raiseException(MemoryInteractor,uint64,uint64)": {
        "params": {
          "cause": "Exception (or interrupt) mcause (or scause).",
          "mi": "Memory Interactor with which Step function is interacting.",
          "tval": "Associated tval."
        }
      }
    },
    "title": "Exceptions",
    "version": 1
  },
  "userdoc": {
    "kind": "user",
    "methods": {
      "raiseException(MemoryInteractor,uint64,uint64)": {
        "notice": "Raise an exception (or interrupt)."
      }
    },
    "notice": "Implements raise exception behavior and mcause getters",
    "version": 1
  },
  "storageLayout": {
    "storage": [],
    "types": null
  }
}