{
  "address": "0x7381C5d43B6F7182B401d9De77CE0E343E75C6cF",
  "abi": [
    {
      "inputs": [],
      "name": "getRWIndex",
      "outputs": [
        {
          "internalType": "uint256",
          "name": "",
          "type": "uint256"
        }
      ],
      "stateMutability": "view",
      "type": "function"
    },
    {
      "inputs": [
        {
          "internalType": "uint64[]",
          "name": "_rwPositions",
          "type": "uint64[]"
        },
        {
          "internalType": "bytes8[]",
          "name": "_rwValues",
          "type": "bytes8[]"
        },
        {
          "internalType": "bool[]",
          "name": "_isRead",
          "type": "bool[]"
        }
      ],
      "name": "initializeMemory",
      "outputs": [],
      "stateMutability": "nonpayable",
      "type": "function"
    },
    {
      "inputs": [
        {
          "internalType": "uint64",
          "name": "_readAddress",
          "type": "uint64"
        }
      ],
      "name": "memoryRead",
      "outputs": [
        {
          "internalType": "uint64",
          "name": "",
          "type": "uint64"
        }
      ],
      "stateMutability": "nonpayable",
      "type": "function"
    },
    {
      "inputs": [
        {
          "internalType": "uint64",
          "name": "_writeAddress",
          "type": "uint64"
        },
        {
          "internalType": "uint64",
          "name": "_value",
          "type": "uint64"
        }
      ],
      "name": "memoryWrite",
      "outputs": [],
      "stateMutability": "nonpayable",
      "type": "function"
    },
    {
      "inputs": [],
      "name": "readClintMtimecmp",
      "outputs": [
        {
          "internalType": "uint64",
          "name": "",
          "type": "uint64"
        }
      ],
      "stateMutability": "nonpayable",
      "type": "function"
    },
    {
      "inputs": [],
      "name": "readHtifFromhost",
      "outputs": [
        {
          "internalType": "uint64",
          "name": "",
          "type": "uint64"
        }
      ],
      "stateMutability": "nonpayable",
      "type": "function"
    },
    {
      "inputs": [],
      "name": "readHtifIConsole",
      "outputs": [
        {
          "internalType": "uint64",
          "name": "",
          "type": "uint64"
        }
      ],
      "stateMutability": "nonpayable",
      "type": "function"
    },
    {
      "inputs": [],
      "name": "readHtifIHalt",
      "outputs": [
        {
          "internalType": "uint64",
          "name": "",
          "type": "uint64"
        }
      ],
      "stateMutability": "nonpayable",
      "type": "function"
    },
    {
      "inputs": [],
      "name": "readHtifIYield",
      "outputs": [
        {
          "internalType": "uint64",
          "name": "",
          "type": "uint64"
        }
      ],
      "stateMutability": "nonpayable",
      "type": "function"
    },
    {
      "inputs": [],
      "name": "readHtifTohost",
      "outputs": [
        {
          "internalType": "uint64",
          "name": "",
          "type": "uint64"
        }
      ],
      "stateMutability": "nonpayable",
      "type": "function"
    },
    {
      "inputs": [],
      "name": "readIflags",
      "outputs": [
        {
          "internalType": "uint64",
          "name": "",
          "type": "uint64"
        }
      ],
      "stateMutability": "nonpayable",
      "type": "function"
    },
    {
      "inputs": [],
      "name": "readIflagsH",
      "outputs": [
        {
          "internalType": "uint64",
          "name": "",
          "type": "uint64"
        }
      ],
      "stateMutability": "nonpayable",
      "type": "function"
    },
    {
      "inputs": [],
      "name": "readIflagsPrv",
      "outputs": [
        {
          "internalType": "uint64",
          "name": "",
          "type": "uint64"
        }
      ],
      "stateMutability": "nonpayable",
      "type": "function"
    },
    {
      "inputs": [],
      "name": "readIflagsX",
      "outputs": [
        {
          "internalType": "uint64",
          "name": "",
          "type": "uint64"
        }
      ],
      "stateMutability": "nonpayable",
      "type": "function"
    },
    {
      "inputs": [],
      "name": "readIflagsY",
      "outputs": [
        {
          "internalType": "uint64",
          "name": "",
          "type": "uint64"
        }
      ],
      "stateMutability": "nonpayable",
      "type": "function"
    },
    {
      "inputs": [],
      "name": "readIlrsc",
      "outputs": [
        {
          "internalType": "uint64",
          "name": "",
          "type": "uint64"
        }
      ],
      "stateMutability": "nonpayable",
      "type": "function"
    },
    {
      "inputs": [],
      "name": "readMarchid",
      "outputs": [
        {
          "internalType": "uint64",
          "name": "",
          "type": "uint64"
        }
      ],
      "stateMutability": "nonpayable",
      "type": "function"
    },
    {
      "inputs": [],
      "name": "readMcause",
      "outputs": [
        {
          "internalType": "uint64",
          "name": "",
          "type": "uint64"
        }
      ],
      "stateMutability": "nonpayable",
      "type": "function"
    },
    {
      "inputs": [],
      "name": "readMcounteren",
      "outputs": [
        {
          "internalType": "uint64",
          "name": "",
          "type": "uint64"
        }
      ],
      "stateMutability": "nonpayable",
      "type": "function"
    },
    {
      "inputs": [],
      "name": "readMcycle",
      "outputs": [
        {
          "internalType": "uint64",
          "name": "",
          "type": "uint64"
        }
      ],
      "stateMutability": "nonpayable",
      "type": "function"
    },
    {
      "inputs": [],
      "name": "readMedeleg",
      "outputs": [
        {
          "internalType": "uint64",
          "name": "",
          "type": "uint64"
        }
      ],
      "stateMutability": "nonpayable",
      "type": "function"
    },
    {
      "inputs": [
        {
          "internalType": "uint64",
          "name": "paddr",
          "type": "uint64"
        },
        {
          "internalType": "uint64",
          "name": "wordSize",
          "type": "uint64"
        }
      ],
      "name": "readMemory",
      "outputs": [
        {
          "internalType": "uint64",
          "name": "",
          "type": "uint64"
        }
      ],
      "stateMutability": "nonpayable",
      "type": "function"
    },
    {
      "inputs": [],
      "name": "readMepc",
      "outputs": [
        {
          "internalType": "uint64",
          "name": "",
          "type": "uint64"
        }
      ],
      "stateMutability": "nonpayable",
      "type": "function"
    },
    {
      "inputs": [],
      "name": "readMideleg",
      "outputs": [
        {
          "internalType": "uint64",
          "name": "",
          "type": "uint64"
        }
      ],
      "stateMutability": "nonpayable",
      "type": "function"
    },
    {
      "inputs": [],
      "name": "readMie",
      "outputs": [
        {
          "internalType": "uint64",
          "name": "",
          "type": "uint64"
        }
      ],
      "stateMutability": "nonpayable",
      "type": "function"
    },
    {
      "inputs": [],
      "name": "readMimpid",
      "outputs": [
        {
          "internalType": "uint64",
          "name": "",
          "type": "uint64"
        }
      ],
      "stateMutability": "nonpayable",
      "type": "function"
    },
    {
      "inputs": [],
      "name": "readMinstret",
      "outputs": [
        {
          "internalType": "uint64",
          "name": "",
          "type": "uint64"
        }
      ],
      "stateMutability": "nonpayable",
      "type": "function"
    },
    {
      "inputs": [],
      "name": "readMip",
      "outputs": [
        {
          "internalType": "uint64",
          "name": "",
          "type": "uint64"
        }
      ],
      "stateMutability": "nonpayable",
      "type": "function"
    },
    {
      "inputs": [],
      "name": "readMisa",
      "outputs": [
        {
          "internalType": "uint64",
          "name": "",
          "type": "uint64"
        }
      ],
      "stateMutability": "nonpayable",
      "type": "function"
    },
    {
      "inputs": [],
      "name": "readMscratch",
      "outputs": [
        {
          "internalType": "uint64",
          "name": "",
          "type": "uint64"
        }
      ],
      "stateMutability": "nonpayable",
      "type": "function"
    },
    {
      "inputs": [],
      "name": "readMstatus",
      "outputs": [
        {
          "internalType": "uint64",
          "name": "",
          "type": "uint64"
        }
      ],
      "stateMutability": "nonpayable",
      "type": "function"
    },
    {
      "inputs": [],
      "name": "readMtval",
      "outputs": [
        {
          "internalType": "uint64",
          "name": "",
          "type": "uint64"
        }
      ],
      "stateMutability": "nonpayable",
      "type": "function"
    },
    {
      "inputs": [],
      "name": "readMtvec",
      "outputs": [
        {
          "internalType": "uint64",
          "name": "",
          "type": "uint64"
        }
      ],
      "stateMutability": "nonpayable",
      "type": "function"
    },
    {
      "inputs": [],
      "name": "readMvendorid",
      "outputs": [
        {
          "internalType": "uint64",
          "name": "",
          "type": "uint64"
        }
      ],
      "stateMutability": "nonpayable",
      "type": "function"
    },
    {
      "inputs": [],
      "name": "readPc",
      "outputs": [
        {
          "internalType": "uint64",
          "name": "",
          "type": "uint64"
        }
      ],
      "stateMutability": "nonpayable",
      "type": "function"
    },
    {
      "inputs": [],
      "name": "readSatp",
      "outputs": [
        {
          "internalType": "uint64",
          "name": "",
          "type": "uint64"
        }
      ],
      "stateMutability": "nonpayable",
      "type": "function"
    },
    {
      "inputs": [],
      "name": "readScause",
      "outputs": [
        {
          "internalType": "uint64",
          "name": "",
          "type": "uint64"
        }
      ],
      "stateMutability": "nonpayable",
      "type": "function"
    },
    {
      "inputs": [],
      "name": "readScounteren",
      "outputs": [
        {
          "internalType": "uint64",
          "name": "",
          "type": "uint64"
        }
      ],
      "stateMutability": "nonpayable",
      "type": "function"
    },
    {
      "inputs": [],
      "name": "readSepc",
      "outputs": [
        {
          "internalType": "uint64",
          "name": "",
          "type": "uint64"
        }
      ],
      "stateMutability": "nonpayable",
      "type": "function"
    },
    {
      "inputs": [],
      "name": "readSscratch",
      "outputs": [
        {
          "internalType": "uint64",
          "name": "",
          "type": "uint64"
        }
      ],
      "stateMutability": "nonpayable",
      "type": "function"
    },
    {
      "inputs": [],
      "name": "readStval",
      "outputs": [
        {
          "internalType": "uint64",
          "name": "",
          "type": "uint64"
        }
      ],
      "stateMutability": "nonpayable",
      "type": "function"
    },
    {
      "inputs": [],
      "name": "readStvec",
      "outputs": [
        {
          "internalType": "uint64",
          "name": "",
          "type": "uint64"
        }
      ],
      "stateMutability": "nonpayable",
      "type": "function"
    },
    {
      "inputs": [
        {
          "internalType": "uint64",
          "name": "registerIndex",
          "type": "uint64"
        }
      ],
      "name": "readX",
      "outputs": [
        {
          "internalType": "uint64",
          "name": "",
          "type": "uint64"
        }
      ],
      "stateMutability": "nonpayable",
      "type": "function"
    },
    {
      "inputs": [
        {
          "internalType": "uint64",
          "name": "mask",
          "type": "uint64"
        }
      ],
      "name": "resetMip",
      "outputs": [],
      "stateMutability": "nonpayable",
      "type": "function"
    },
    {
      "inputs": [
        {
          "internalType": "bool",
          "name": "halt",
          "type": "bool"
        }
      ],
      "name": "setIflagsH",
      "outputs": [],
      "stateMutability": "nonpayable",
      "type": "function"
    },
    {
      "inputs": [
        {
          "internalType": "bool",
          "name": "isAutomaticYield",
          "type": "bool"
        }
      ],
      "name": "setIflagsX",
      "outputs": [],
      "stateMutability": "nonpayable",
      "type": "function"
    },
    {
      "inputs": [
        {
          "internalType": "bool",
          "name": "isManualYield",
          "type": "bool"
        }
      ],
      "name": "setIflagsY",
      "outputs": [],
      "stateMutability": "nonpayable",
      "type": "function"
    },
    {
      "inputs": [
        {
          "internalType": "uint64",
          "name": "mask",
          "type": "uint64"
        }
      ],
      "name": "setMip",
      "outputs": [],
      "stateMutability": "nonpayable",
      "type": "function"
    },
    {
      "inputs": [
        {
          "internalType": "uint64",
          "name": "newPriv",
          "type": "uint64"
        }
      ],
      "name": "setPriv",
      "outputs": [],
      "stateMutability": "nonpayable",
      "type": "function"
    },
    {
      "inputs": [
        {
          "internalType": "uint64",
          "name": "value",
          "type": "uint64"
        }
      ],
      "name": "writeClintMtimecmp",
      "outputs": [],
      "stateMutability": "nonpayable",
      "type": "function"
    },
    {
      "inputs": [
        {
          "internalType": "uint64",
          "name": "value",
          "type": "uint64"
        }
      ],
      "name": "writeHtifFromhost",
      "outputs": [],
      "stateMutability": "nonpayable",
      "type": "function"
    },
    {
      "inputs": [
        {
          "internalType": "uint64",
          "name": "value",
          "type": "uint64"
        }
      ],
      "name": "writeHtifTohost",
      "outputs": [],
      "stateMutability": "nonpayable",
      "type": "function"
    },
    {
      "inputs": [
        {
          "internalType": "uint64",
          "name": "newPriv",
          "type": "uint64"
        }
      ],
      "name": "writeIflagsPrv",
      "outputs": [],
      "stateMutability": "nonpayable",
      "type": "function"
    },
    {
      "inputs": [
        {
          "internalType": "uint64",
          "name": "value",
          "type": "uint64"
        }
      ],
      "name": "writeIlrsc",
      "outputs": [],
      "stateMutability": "nonpayable",
      "type": "function"
    },
    {
      "inputs": [
        {
          "internalType": "uint64",
          "name": "value",
          "type": "uint64"
        }
      ],
      "name": "writeMcause",
      "outputs": [],
      "stateMutability": "nonpayable",
      "type": "function"
    },
    {
      "inputs": [
        {
          "internalType": "uint64",
          "name": "value",
          "type": "uint64"
        }
      ],
      "name": "writeMcounteren",
      "outputs": [],
      "stateMutability": "nonpayable",
      "type": "function"
    },
    {
      "inputs": [
        {
          "internalType": "uint64",
          "name": "value",
          "type": "uint64"
        }
      ],
      "name": "writeMcycle",
      "outputs": [],
      "stateMutability": "nonpayable",
      "type": "function"
    },
    {
      "inputs": [
        {
          "internalType": "uint64",
          "name": "value",
          "type": "uint64"
        }
      ],
      "name": "writeMedeleg",
      "outputs": [],
      "stateMutability": "nonpayable",
      "type": "function"
    },
    {
      "inputs": [
        {
          "internalType": "uint64",
          "name": "paddr",
          "type": "uint64"
        },
        {
          "internalType": "uint64",
          "name": "value",
          "type": "uint64"
        },
        {
          "internalType": "uint64",
          "name": "wordSize",
          "type": "uint64"
        }
      ],
      "name": "writeMemory",
      "outputs": [],
      "stateMutability": "nonpayable",
      "type": "function"
    },
    {
      "inputs": [
        {
          "internalType": "uint64",
          "name": "value",
          "type": "uint64"
        }
      ],
      "name": "writeMepc",
      "outputs": [],
      "stateMutability": "nonpayable",
      "type": "function"
    },
    {
      "inputs": [
        {
          "internalType": "uint64",
          "name": "value",
          "type": "uint64"
        }
      ],
      "name": "writeMideleg",
      "outputs": [],
      "stateMutability": "nonpayable",
      "type": "function"
    },
    {
      "inputs": [
        {
          "internalType": "uint64",
          "name": "value",
          "type": "uint64"
        }
      ],
      "name": "writeMie",
      "outputs": [],
      "stateMutability": "nonpayable",
      "type": "function"
    },
    {
      "inputs": [
        {
          "internalType": "uint64",
          "name": "value",
          "type": "uint64"
        }
      ],
      "name": "writeMinstret",
      "outputs": [],
      "stateMutability": "nonpayable",
      "type": "function"
    },
    {
      "inputs": [
        {
          "internalType": "uint64",
          "name": "value",
          "type": "uint64"
        }
      ],
      "name": "writeMip",
      "outputs": [],
      "stateMutability": "nonpayable",
      "type": "function"
    },
    {
      "inputs": [
        {
          "internalType": "uint64",
          "name": "value",
          "type": "uint64"
        }
      ],
      "name": "writeMscratch",
      "outputs": [],
      "stateMutability": "nonpayable",
      "type": "function"
    },
    {
      "inputs": [
        {
          "internalType": "uint64",
          "name": "value",
          "type": "uint64"
        }
      ],
      "name": "writeMstatus",
      "outputs": [],
      "stateMutability": "nonpayable",
      "type": "function"
    },
    {
      "inputs": [
        {
          "internalType": "uint64",
          "name": "value",
          "type": "uint64"
        }
      ],
      "name": "writeMtval",
      "outputs": [],
      "stateMutability": "nonpayable",
      "type": "function"
    },
    {
      "inputs": [
        {
          "internalType": "uint64",
          "name": "value",
          "type": "uint64"
        }
      ],
      "name": "writeMtvec",
      "outputs": [],
      "stateMutability": "nonpayable",
      "type": "function"
    },
    {
      "inputs": [
        {
          "internalType": "uint64",
          "name": "value",
          "type": "uint64"
        }
      ],
      "name": "writePc",
      "outputs": [],
      "stateMutability": "nonpayable",
      "type": "function"
    },
    {
      "inputs": [
        {
          "internalType": "uint64",
          "name": "value",
          "type": "uint64"
        }
      ],
      "name": "writeSatp",
      "outputs": [],
      "stateMutability": "nonpayable",
      "type": "function"
    },
    {
      "inputs": [
        {
          "internalType": "uint64",
          "name": "value",
          "type": "uint64"
        }
      ],
      "name": "writeScause",
      "outputs": [],
      "stateMutability": "nonpayable",
      "type": "function"
    },
    {
      "inputs": [
        {
          "internalType": "uint64",
          "name": "value",
          "type": "uint64"
        }
      ],
      "name": "writeScounteren",
      "outputs": [],
      "stateMutability": "nonpayable",
      "type": "function"
    },
    {
      "inputs": [
        {
          "internalType": "uint64",
          "name": "value",
          "type": "uint64"
        }
      ],
      "name": "writeSepc",
      "outputs": [],
      "stateMutability": "nonpayable",
      "type": "function"
    },
    {
      "inputs": [
        {
          "internalType": "uint64",
          "name": "value",
          "type": "uint64"
        }
      ],
      "name": "writeSscratch",
      "outputs": [],
      "stateMutability": "nonpayable",
      "type": "function"
    },
    {
      "inputs": [
        {
          "internalType": "uint64",
          "name": "value",
          "type": "uint64"
        }
      ],
      "name": "writeStval",
      "outputs": [],
      "stateMutability": "nonpayable",
      "type": "function"
    },
    {
      "inputs": [
        {
          "internalType": "uint64",
          "name": "value",
          "type": "uint64"
        }
      ],
      "name": "writeStvec",
      "outputs": [],
      "stateMutability": "nonpayable",
      "type": "function"
    },
    {
      "inputs": [
        {
          "internalType": "uint64",
          "name": "registerindex",
          "type": "uint64"
        },
        {
          "internalType": "uint64",
          "name": "value",
          "type": "uint64"
        }
      ],
      "name": "writeX",
      "outputs": [],
      "stateMutability": "nonpayable",
      "type": "function"
    }
  ],
  "transactionHash": "0x4295ee91a0ee6ddcb4cd6b3aa627825e5706a1fdd6abcf2477b3190dbf32d5e6",
  "args": [],
  "solcInputHash": "cacea020086e46d19bd052f6c12f6e45",
  "bytecode": "0x608060405234801561001057600080fd5b5061300d806100206000396000f3fe608060405234801561001057600080fd5b506004361061045f5760003560e01c8063854dba401161024c578063b5b98ed411610146578063dd5c4a14116100c3578063f7ac913d11610087578063f7ac913d14610c76578063f991158714610c7e578063fa644af514610ca4578063fbdb975d14610cca578063fd295abe14610cf05761045f565b8063dd5c4a1414610bd6578063f21d94f814610bfc578063f2cf6ceb14610c22578063f55c4d3814610c2a578063f604edb814610c505761045f565b8063cc92cbf71161010a578063cc92cbf714610b72578063cecdae5314610b7a578063d2be7b6d14610ba0578063d40d17c514610bc6578063daded5c214610bce5761045f565b8063b5b98ed414610b2c578063b8fd205c14610b34578063becdc10d14610b3c578063c133b7ff14610b44578063cbc446b114610b4c5761045f565b80639c872d02116101d4578063aaed4f0711610198578063aaed4f0714610a93578063ab9779b714610ab9578063af63b2a814610adf578063b2325aef14610ae7578063b27ec92014610b0d5761045f565b80639c872d0214610893578063a317ce9d146108b9578063a47594df146108c1578063a740dbc114610a6c578063a7458b9514610a745761045f565b80638e32f35e1161021b5780638e32f35e146108275780639485871b14610855578063968644f01461085d5780639b7021ce146108655780639c7b005d1461086d5761045f565b8063854dba40146107cb57806386099c54146107d357806386676d43146107db57806389365909146108015761045f565b806354749af31161035d5780636475e342116102e55780636f6c0e7d116102a95780636f6c0e7d14610767578063768365ea1461076f57806378c495741461077757806378ddee751461079d578063834aa4f6146107c35761045f565b80636475e34214610719578063650ca32b146107215780636a72b27d146107295780636cd24daf146107315780636dc95c2e146107395761045f565b80635af47ca71161032c5780635af47ca7146106975780635dadd78a146106bd5780635e5ca652146106c55780635f824bf9146106eb5780636232e59c146106f35761045f565b806354749af31461061d578063568b270214610643578063575832df1461064b57806357907837146106715761045f565b806328520b30116103eb5780633a48bb56116103af5780633a48bb561461059a57806345057ed7146105b95780634ae9388b146105df57806350cec2d5146105e757806351bb3615146106155761045f565b806328520b301461053657806328751b361461053e5780632ca2bd16146105645780632e963a801461058a57806334970f18146105925761045f565b806311cf3a221161043257806311cf3a22146104f057806315dd9c06146104f857806318e504db1461051e5780631bf2f73d146105265780631e5e61901461052e5761045f565b8063080aa5d1146104645780630df3e2951461047e5780630f84c046146104a657806310d74c7d146104ca575b600080fd5b61046c610d28565b60408051918252519081900360200190f35b6104a46004803603602081101561049457600080fd5b50356001600160401b0316610d2e565b005b6104ae610daa565b604080516001600160401b039092168252519081900360200190f35b6104a4600480360360208110156104e057600080fd5b50356001600160401b0316610e29565b6104ae610e70565b6104a46004803603602081101561050e57600080fd5b50356001600160401b0316610eb9565b6104ae610ed5565b6104ae610f1e565b6104ae610f67565b6104ae610fb0565b6104a46004803603602081101561055457600080fd5b50356001600160401b0316610ff9565b6104a46004803603602081101561057a57600080fd5b50356001600160401b0316611040565b6104ae611087565b6104ae6110d0565b6104a4600480360360208110156105b057600080fd5b50351515611119565b6104a4600480360360208110156105cf57600080fd5b50356001600160401b031661125b565b6104ae611272565b6104ae600480360360408110156105fd57600080fd5b506001600160401b03813581169160200135166112bb565b6104ae611431565b6104a46004803603602081101561063357600080fd5b50356001600160401b031661147a565b6104ae61148e565b6104a46004803603602081101561066157600080fd5b50356001600160401b03166114d7565b6104a46004803603602081101561068757600080fd5b50356001600160401b031661151e565b6104a4600480360360208110156106ad57600080fd5b50356001600160401b0316611565565b6104ae6115ac565b6104a4600480360360208110156106db57600080fd5b50356001600160401b03166115f5565b6104ae61163c565b6104ae6004803603602081101561070957600080fd5b50356001600160401b0316611685565b6104ae611699565b6104ae6116e2565b6104ae61172b565b6104ae611774565b6104a46004803603604081101561074f57600080fd5b506001600160401b03813581169160200135166117bd565b6104ae6117ca565b6104ae611813565b6104a46004803603602081101561078d57600080fd5b50356001600160401b031661185c565b6104a4600480360360208110156107b357600080fd5b50356001600160401b03166118a3565b6104ae6118ea565b6104ae611933565b6104ae61197c565b6104a4600480360360208110156107f157600080fd5b50356001600160401b0316611ad2565b6104a46004803603602081101561081757600080fd5b50356001600160401b0316611b19565b6104a46004803603604081101561083d57600080fd5b506001600160401b0381358116916020013516611b60565b6104ae611c62565b6104ae611cab565b6104ae611d74565b6104a46004803603602081101561088357600080fd5b50356001600160401b0316611dbd565b6104a4600480360360208110156108a957600080fd5b50356001600160401b0316611e04565b6104ae611e4b565b6104a4600480360360608110156108d757600080fd5b8101906020810181356401000000008111156108f257600080fd5b82018360208201111561090457600080fd5b8035906020019184602083028401116401000000008311171561092657600080fd5b919080806020026020016040519081016040528093929190818152602001838360200280828437600092019190915250929594936020810193503591505064010000000081111561097657600080fd5b82018360208201111561098857600080fd5b803590602001918460208302840111640100000000831117156109aa57600080fd5b91908080602002602001604051908101604052809392919081815260200183836020028082843760009201919091525092959493602081019350359150506401000000008111156109fa57600080fd5b820183602082011115610a0c57600080fd5b80359060200191846020830284011164010000000083111715610a2e57600080fd5b919080806020026020016040519081016040528093929190818152602001838360200280828437600092019190915250929550611e94945050505050565b6104ae611f59565b6104a460048036036020811015610a8a57600080fd5b50351515611fa2565b6104a460048036036020811015610aa957600080fd5b50356001600160401b031661203c565b6104a460048036036020811015610acf57600080fd5b50356001600160401b0316612083565b6104ae6120ca565b6104a460048036036020811015610afd57600080fd5b50356001600160401b0316612113565b6104a460048036036020811015610b2357600080fd5b5035151561215a565b6104ae6121f4565b6104ae61223d565b6104ae612286565b6104ae6122cf565b6104a460048036036020811015610b6257600080fd5b50356001600160401b0316612318565b6104ae61235f565b6104a460048036036020811015610b9057600080fd5b50356001600160401b03166123a8565b6104a460048036036020811015610bb657600080fd5b50356001600160401b0316612507565b6104ae61254e565b6104ae612617565b6104a460048036036020811015610bec57600080fd5b50356001600160401b0316612660565b6104a460048036036020811015610c1257600080fd5b50356001600160401b03166126a7565b6104ae6126ee565b6104a460048036036020811015610c4057600080fd5b50356001600160401b0316612737565b6104a460048036036020811015610c6657600080fd5b50356001600160401b031661277e565b6104ae6127c5565b6104a460048036036020811015610c9457600080fd5b50356001600160401b031661288e565b6104ae60048036036020811015610cba57600080fd5b50356001600160401b03166128d5565b6104a460048036036020811015610ce057600080fd5b50356001600160401b031661296e565b6104a460048036036060811015610d0657600080fd5b506001600160401b0381358116916020810135821691604090910135166129b5565b60005490565b610da773A3355eAff2feE04FB4E3dE9a90e469784F1dDAFe639a59734c6040518163ffffffff1660e01b815260040160206040518083038186803b158015610d7557600080fd5b505af4158015610d89573d6000803e3d6000fd5b505050506040513d6020811015610d9f57600080fd5b505182611b60565b50565b6000610e2473A3355eAff2feE04FB4E3dE9a90e469784F1dDAFe636630ad876040518163ffffffff1660e01b815260040160206040518083038186803b158015610df357600080fd5b505af4158015610e07573d6000803e3d6000fd5b505050506040513d6020811015610e1d57600080fd5b50516128d5565b905090565b610da773A3355eAff2feE04FB4E3dE9a90e469784F1dDAFe6372eb67d06040518163ffffffff1660e01b815260040160206040518083038186803b158015610d7557600080fd5b6000610e2473A3355eAff2feE04FB4E3dE9a90e469784F1dDAFe638fd6b7c46040518163ffffffff1660e01b815260040160206040518083038186803b158015610df357600080fd5b6000610ec3611e4b565b8219169050610ed18161203c565b5050565b6000610e2473A3355eAff2feE04FB4E3dE9a90e469784F1dDAFe63734b96006040518163ffffffff1660e01b815260040160206040518083038186803b158015610df357600080fd5b6000610e2473A3355eAff2feE04FB4E3dE9a90e469784F1dDAFe63443fd5986040518163ffffffff1660e01b815260040160206040518083038186803b158015610df357600080fd5b6000610e2473A3355eAff2feE04FB4E3dE9a90e469784F1dDAFe63ca04595a6040518163ffffffff1660e01b815260040160206040518083038186803b158015610df357600080fd5b6000610e2473A3355eAff2feE04FB4E3dE9a90e469784F1dDAFe6372eb67d06040518163ffffffff1660e01b815260040160206040518083038186803b158015610df357600080fd5b610da773A3355eAff2feE04FB4E3dE9a90e469784F1dDAFe63ca04595a6040518163ffffffff1660e01b815260040160206040518083038186803b158015610d7557600080fd5b610da773A3355eAff2feE04FB4E3dE9a90e469784F1dDAFe63d124bd136040518163ffffffff1660e01b815260040160206040518083038186803b158015610d7557600080fd5b6000610e2473A3355eAff2feE04FB4E3dE9a90e469784F1dDAFe6329301cac6040518163ffffffff1660e01b815260040160206040518083038186803b158015610df357600080fd5b6000610e2473D90baFCDCd3f131CC5fA932d27068918cb48CDA063521819f56040518163ffffffff1660e01b815260040160206040518083038186803b158015610df357600080fd5b60006111236122cf565b905081156111a15773512dD9B131C45E9Bba375BFA83bC081BF4aF1aaB63e697ace96040518163ffffffff1660e01b815260040160206040518083038186803b15801561116f57600080fd5b505af4158015611183573d6000803e3d6000fd5b505050506040513d602081101561119957600080fd5b505117611214565b73512dD9B131C45E9Bba375BFA83bC081BF4aF1aaB63e697ace96040518163ffffffff1660e01b815260040160206040518083038186803b1580156111e557600080fd5b505af41580156111f9573d6000803e3d6000fd5b505050506040513d602081101561120f57600080fd5b505119165b610ed173A3355eAff2feE04FB4E3dE9a90e469784F1dDAFe632ffdabc56040518163ffffffff1660e01b815260040160206040518083038186803b158015610d7557600080fd5b6000611265611e4b565b82179050610ed18161203c565b6000610e2473A3355eAff2feE04FB4E3dE9a90e469784F1dDAFe63b255e9e46040518163ffffffff1660e01b815260040160206040518083038186803b158015610df357600080fd5b60006007198316808403826112cf83612bfc565b9050600073343BD99E797f5EB81f4711123E2859ba98c6cb1663bf1924c5846008026001600160401b03166001896001600160401b031660026001600160401b03160a036001600160401b0316901b6040518263ffffffff1660e01b815260040180826001600160401b0316815260200191505060206040518083038186803b15801561135b57600080fd5b505af415801561136f573d6000803e3d6000fd5b505050506040513d602081101561138557600080fd5b50516040805163bf1924c560e01b81526001600160401b03858416811660048301529151929350600886029091169173343BD99E797f5EB81f4711123E2859ba98c6cb169163bf1924c5916024808301926020929190829003018186803b1580156113ef57600080fd5b505af4158015611403573d6000803e3d6000fd5b505050506040513d602081101561141957600080fd5b50516001600160401b0316901c979650505050505050565b6000610e2473A3355eAff2feE04FB4E3dE9a90e469784F1dDAFe637047f4df6040518163ffffffff1660e01b815260040160206040518083038186803b158015610df357600080fd5b611483816123a8565b610da76000196126a7565b6000610e2473A3355eAff2feE04FB4E3dE9a90e469784F1dDAFe6345827f696040518163ffffffff1660e01b815260040160206040518083038186803b158015610df357600080fd5b610da773A3355eAff2feE04FB4E3dE9a90e469784F1dDAFe63e59cb5746040518163ffffffff1660e01b815260040160206040518083038186803b158015610d7557600080fd5b610da773A3355eAff2feE04FB4E3dE9a90e469784F1dDAFe63734b96006040518163ffffffff1660e01b815260040160206040518083038186803b158015610d7557600080fd5b610da773A3355eAff2feE04FB4E3dE9a90e469784F1dDAFe639ff9932b6040518163ffffffff1660e01b815260040160206040518083038186803b158015610d7557600080fd5b6000610e2473A3355eAff2feE04FB4E3dE9a90e469784F1dDAFe63e2e2e7126040518163ffffffff1660e01b815260040160206040518083038186803b158015610df357600080fd5b610da773A3355eAff2feE04FB4E3dE9a90e469784F1dDAFe63a43e290f6040518163ffffffff1660e01b815260040160206040518083038186803b158015610d7557600080fd5b6000610e2473A3355eAff2feE04FB4E3dE9a90e469784F1dDAFe6392f5aa226040518163ffffffff1660e01b815260040160206040518083038186803b158015610df357600080fd5b6000611693826008026128d5565b92915050565b6000610e247317054dcbF6708E3Ff311CBf0894C567652FE4d2363870981356040518163ffffffff1660e01b815260040160206040518083038186803b158015610df357600080fd5b6000610e2473A3355eAff2feE04FB4E3dE9a90e469784F1dDAFe63d41a5b596040518163ffffffff1660e01b815260040160206040518083038186803b158015610df357600080fd5b6000610e2473A3355eAff2feE04FB4E3dE9a90e469784F1dDAFe63e59cb5746040518163ffffffff1660e01b815260040160206040518083038186803b158015610df357600080fd5b6000610e2473A3355eAff2feE04FB4E3dE9a90e469784F1dDAFe63da3e8d7b6040518163ffffffff1660e01b815260040160206040518083038186803b158015610df357600080fd5b610ed18260080282611b60565b6000610e2473D90baFCDCd3f131CC5fA932d27068918cb48CDA0636299ea3f6040518163ffffffff1660e01b815260040160206040518083038186803b158015610df357600080fd5b6000610e2473D90baFCDCd3f131CC5fA932d27068918cb48CDA063f4655f126040518163ffffffff1660e01b815260040160206040518083038186803b158015610df357600080fd5b610da773A3355eAff2feE04FB4E3dE9a90e469784F1dDAFe6345827f696040518163ffffffff1660e01b815260040160206040518083038186803b158015610d7557600080fd5b610da773A3355eAff2feE04FB4E3dE9a90e469784F1dDAFe63b255e9e46040518163ffffffff1660e01b815260040160206040518083038186803b158015610d7557600080fd5b6000610e2473A3355eAff2feE04FB4E3dE9a90e469784F1dDAFe634a4c35106040518163ffffffff1660e01b815260040160206040518083038186803b158015610df357600080fd5b6000610e2473A3355eAff2feE04FB4E3dE9a90e469784F1dDAFe63c585eede6040518163ffffffff1660e01b815260040160206040518083038186803b158015610df357600080fd5b600073512dD9B131C45E9Bba375BFA83bC081BF4aF1aaB6317a0cac36040518163ffffffff1660e01b815260040160206040518083038186803b1580156119c257600080fd5b505af41580156119d6573d6000803e3d6000fd5b505050506040513d60208110156119ec57600080fd5b5051604080516351a2ab4160e11b815290516001600160401b039092169173512dD9B131C45E9Bba375BFA83bC081BF4aF1aaB9163a3455682916004808301926020929190829003018186803b158015611a4557600080fd5b505af4158015611a59573d6000803e3d6000fd5b505050506040513d6020811015611a6f57600080fd5b505160408051632ffdabc560e01b81529051611ac19173A3355eAff2feE04FB4E3dE9a90e469784F1dDAFe91632ffdabc591600480820192602092909190829003018186803b158015610df357600080fd5b166001600160401b0316901c905090565b610da773A3355eAff2feE04FB4E3dE9a90e469784F1dDAFe63e80d17516040518163ffffffff1660e01b815260040160206040518083038186803b158015610d7557600080fd5b610da773A3355eAff2feE04FB4E3dE9a90e469784F1dDAFe637047f4df6040518163ffffffff1660e01b815260040160206040518083038186803b158015610d7557600080fd5b600073343BD99E797f5EB81f4711123E2859ba98c6cb1663bf1924c5836040518263ffffffff1660e01b815260040180826001600160401b0316815260200191505060206040518083038186803b158015611bba57600080fd5b505af4158015611bce573d6000803e3d6000fd5b505050506040513d6020811015611be457600080fd5b505160c01b90506001600160c01b03198116611c01846000612c12565b6001600160c01b03191614611c5d576040805162461bcd60e51b815260206004820152601c60248201527f5772697474656e2076616c756520646f6573206e6f74206d6174636800000000604482015290519081900360640190fd5b505050565b6000610e2473A3355eAff2feE04FB4E3dE9a90e469784F1dDAFe63d124bd136040518163ffffffff1660e01b815260040160206040518083038186803b158015610df357600080fd5b600073512dD9B131C45E9Bba375BFA83bC081BF4aF1aaB63656b151f6040518163ffffffff1660e01b815260040160206040518083038186803b158015611cf157600080fd5b505af4158015611d05573d6000803e3d6000fd5b505050506040513d6020811015611d1b57600080fd5b50516040805163fd198e5560e01b815290516001600160401b039092169173512dD9B131C45E9Bba375BFA83bC081BF4aF1aaB9163fd198e55916004808301926020929190829003018186803b158015611a4557600080fd5b6000610e2473A3355eAff2feE04FB4E3dE9a90e469784F1dDAFe639ff9932b6040518163ffffffff1660e01b815260040160206040518083038186803b158015610df357600080fd5b610da773A3355eAff2feE04FB4E3dE9a90e469784F1dDAFe6329301cac6040518163ffffffff1660e01b815260040160206040518083038186803b158015610d7557600080fd5b610da773A3355eAff2feE04FB4E3dE9a90e469784F1dDAFe638fd6b7c46040518163ffffffff1660e01b815260040160206040518083038186803b158015610d7557600080fd5b6000610e2473A3355eAff2feE04FB4E3dE9a90e469784F1dDAFe63520aff6c6040518163ffffffff1660e01b815260040160206040518083038186803b158015610df357600080fd5b8151835114611ed45760405162461bcd60e51b8152600401808060200182810382526027815260200180612fb16027913960400191505060405180910390fd5b8051835114611f145760405162461bcd60e51b8152600401808060200182810382526027815260200180612fb16027913960400191505060405180910390fd5b600080558251611f2b906001906020860190612dbd565b508151611f3f906002906020850190612e75565b508051611f53906003906020840190612ee2565b50505050565b6000610e2473A3355eAff2feE04FB4E3dE9a90e469784F1dDAFe632935b8ce6040518163ffffffff1660e01b815260040160206040518083038186803b158015610df357600080fd5b6000611fac6122cf565b90508115611ff85773512dD9B131C45E9Bba375BFA83bC081BF4aF1aaB63fd198e556040518163ffffffff1660e01b815260040160206040518083038186803b15801561116f57600080fd5b73512dD9B131C45E9Bba375BFA83bC081BF4aF1aaB63fd198e556040518163ffffffff1660e01b815260040160206040518083038186803b1580156111e557600080fd5b610da773A3355eAff2feE04FB4E3dE9a90e469784F1dDAFe63520aff6c6040518163ffffffff1660e01b815260040160206040518083038186803b158015610d7557600080fd5b610da773A3355eAff2feE04FB4E3dE9a90e469784F1dDAFe63443fd5986040518163ffffffff1660e01b815260040160206040518083038186803b158015610d7557600080fd5b6000610e2473A3355eAff2feE04FB4E3dE9a90e469784F1dDAFe639a59734c6040518163ffffffff1660e01b815260040160206040518083038186803b158015610df357600080fd5b610da773D90baFCDCd3f131CC5fA932d27068918cb48CDA0630a279d716040518163ffffffff1660e01b815260040160206040518083038186803b158015610d7557600080fd5b60006121646122cf565b905081156121b05773512dD9B131C45E9Bba375BFA83bC081BF4aF1aaB63a34556826040518163ffffffff1660e01b815260040160206040518083038186803b15801561116f57600080fd5b73512dD9B131C45E9Bba375BFA83bC081BF4aF1aaB63a34556826040518163ffffffff1660e01b815260040160206040518083038186803b1580156111e557600080fd5b6000610e2473A3355eAff2feE04FB4E3dE9a90e469784F1dDAFe6342db36676040518163ffffffff1660e01b815260040160206040518083038186803b158015610df357600080fd5b6000610e2473D90baFCDCd3f131CC5fA932d27068918cb48CDA0636903680c6040518163ffffffff1660e01b815260040160206040518083038186803b158015610df357600080fd5b6000610e2473A3355eAff2feE04FB4E3dE9a90e469784F1dDAFe63929127db6040518163ffffffff1660e01b815260040160206040518083038186803b158015610df357600080fd5b6000610e2473A3355eAff2feE04FB4E3dE9a90e469784F1dDAFe632ffdabc56040518163ffffffff1660e01b815260040160206040518083038186803b158015610df357600080fd5b610da773A3355eAff2feE04FB4E3dE9a90e469784F1dDAFe636630ad876040518163ffffffff1660e01b815260040160206040518083038186803b158015610d7557600080fd5b6000610e2473A3355eAff2feE04FB4E3dE9a90e469784F1dDAFe63e80d17516040518163ffffffff1660e01b815260040160206040518083038186803b158015610df357600080fd5b60006123b26122cf565b905073512dD9B131C45E9Bba375BFA83bC081BF4aF1aaB63910a52476040518163ffffffff1660e01b815260040160206040518083038186803b1580156123f857600080fd5b505af415801561240c573d6000803e3d6000fd5b505050506040513d602081101561242257600080fd5b50516040805163317d2bb560e01b815290516001600160401b0385811693169290921b9173512dD9B131C45E9Bba375BFA83bC081BF4aF1aaB9163317d2bb5916004808301926020929190829003018186803b15801561248157600080fd5b505af4158015612495573d6000803e3d6000fd5b505050506040513d60208110156124ab57600080fd5b505160408051632ffdabc560e01b815290519119939093169190911791610ed19173A3355eAff2feE04FB4E3dE9a90e469784F1dDAFe91632ffdabc5916004808301926020929190829003018186803b158015610d7557600080fd5b610da773A3355eAff2feE04FB4E3dE9a90e469784F1dDAFe632935b8ce6040518163ffffffff1660e01b815260040160206040518083038186803b158015610d7557600080fd5b600073512dD9B131C45E9Bba375BFA83bC081BF4aF1aaB63e89d408d6040518163ffffffff1660e01b815260040160206040518083038186803b15801561259457600080fd5b505af41580156125a8573d6000803e3d6000fd5b505050506040513d60208110156125be57600080fd5b50516040805163e697ace960e01b815290516001600160401b039092169173512dD9B131C45E9Bba375BFA83bC081BF4aF1aaB9163e697ace9916004808301926020929190829003018186803b158015611a4557600080fd5b6000610e2473A3355eAff2feE04FB4E3dE9a90e469784F1dDAFe63a43e290f6040518163ffffffff1660e01b815260040160206040518083038186803b158015610df357600080fd5b610da773D90baFCDCd3f131CC5fA932d27068918cb48CDA063521819f56040518163ffffffff1660e01b815260040160206040518083038186803b158015610d7557600080fd5b610da773A3355eAff2feE04FB4E3dE9a90e469784F1dDAFe63e2e2e7126040518163ffffffff1660e01b815260040160206040518083038186803b158015610d7557600080fd5b6000610e2473D90baFCDCd3f131CC5fA932d27068918cb48CDA0630a279d716040518163ffffffff1660e01b815260040160206040518083038186803b158015610df357600080fd5b610da773A3355eAff2feE04FB4E3dE9a90e469784F1dDAFe6342db36676040518163ffffffff1660e01b815260040160206040518083038186803b158015610d7557600080fd5b610da773A3355eAff2feE04FB4E3dE9a90e469784F1dDAFe63da3e8d7b6040518163ffffffff1660e01b815260040160206040518083038186803b158015610d7557600080fd5b600073512dD9B131C45E9Bba375BFA83bC081BF4aF1aaB63910a52476040518163ffffffff1660e01b815260040160206040518083038186803b15801561280b57600080fd5b505af415801561281f573d6000803e3d6000fd5b505050506040513d602081101561283557600080fd5b50516040805163317d2bb560e01b815290516001600160401b039092169173512dD9B131C45E9Bba375BFA83bC081BF4aF1aaB9163317d2bb5916004808301926020929190829003018186803b158015611a4557600080fd5b610da773A3355eAff2feE04FB4E3dE9a90e469784F1dDAFe63d41a5b596040518163ffffffff1660e01b815260040160206040518083038186803b158015610d7557600080fd5b600073343BD99E797f5EB81f4711123E2859ba98c6cb1663bf1924c56128fc846001612c12565b60c01c6040518263ffffffff1660e01b815260040180826001600160401b0316815260200191505060206040518083038186803b15801561293c57600080fd5b505af4158015612950573d6000803e3d6000fd5b505050506040513d602081101561296657600080fd5b505192915050565b610da77317054dcbF6708E3Ff311CBf0894C567652FE4d2363870981356040518163ffffffff1660e01b815260040160206040518083038186803b158015610d7557600080fd5b600060086001600160401b038316049050806001600160401b0316600814156129e7576129e28484611b60565b611f53565b600719841680850360006129fa83612bfc565b9050600073343BD99E797f5EB81f4711123E2859ba98c6cb1663bf1924c5846008026001600160401b03166001896001600160401b031660026001600160401b03160a036001600160401b0316901b6040518263ffffffff1660e01b815260040180826001600160401b0316815260200191505060206040518083038186803b158015612a8657600080fd5b505af4158015612a9a573d6000803e3d6000fd5b505050506040513d6020811015612ab057600080fd5b50516040805163bf1924c560e01b81526001600160401b0389811660020a600019018b16166004820152905191925060009173343BD99E797f5EB81f4711123E2859ba98c6cb169163bf1924c5916024808301926020929190829003018186803b158015612b1d57600080fd5b505af4158015612b31573d6000803e3d6000fd5b505050506040513d6020811015612b4757600080fd5b50516040805163bf1924c560e01b81526001600160401b038084166008890282161c861988161790811660048301529151929350909173343BD99E797f5EB81f4711123E2859ba98c6cb169163bf1924c5916024808301926020929190829003018186803b158015612bb857600080fd5b505af4158015612bcc573d6000803e3d6000fd5b505050506040513d6020811015612be257600080fd5b50519050612bf08682611b60565b50505050505050505050565b6000612c09826001612c12565b60c01c92915050565b6000811515600360005481548110612c2657fe5b90600052602060002090602091828204019190069054906101000a900460ff16151514612c9a576040805162461bcd60e51b815260206004820152601f60248201527f41636365737320776173206e6f742074686520636f7272656374207479706500604482015290519081900360640190fd5b6000600160005481548110612cab57fe5b90600052602060002090600491828204019190066008029054906101000a90046001600160401b031690506000600260005481548110612ce757fe5b60009182526020822060048204015482546001019092556003166008026101000a900460c01b90506007821615612d65576040805162461bcd60e51b815260206004820152601760248201527f506f736974696f6e206973206e6f7420616c69676e6564000000000000000000604482015290519081900360640190fd5b846001600160401b0316826001600160401b031614612db55760405162461bcd60e51b8152600401808060200182810382526026815260200180612f8b6026913960400191505060405180910390fd5b949350505050565b82805482825590600052602060002090600301600490048101928215612e655791602002820160005b83821115612e3057835183826101000a8154816001600160401b0302191690836001600160401b031602179055509260200192600801602081600701049283019260010302612de6565b8015612e635782816101000a8154906001600160401b030219169055600801602081600701049283019260010302612e30565b505b50612e71929150612f75565b5090565b82805482825590600052602060002090600301600490048101928215612e655791602002820160005b83821115612e3057835183826101000a8154816001600160401b03021916908360c01c02179055509260200192600801602081600701049283019260010302612e9e565b82805482825590600052602060002090601f01602090048101928215612e655791602002820160005b83821115612f4857835183826101000a81548160ff0219169083151502179055509260200192600101602081600001049283019260010302612f0b565b8015612e635782816101000a81549060ff0219169055600101602081600001049283019260010302612f48565b5b80821115612e715760008155600101612f7656fe506f736974696f6e20616e642072656164206164647265737320646f206e6f74206d61746368526561642f77726974652061727261797320617265206e6f74207468652073616d652073697a65a2646970667358221220ac1f61ec2fa57d76c6e3e3b8fd192b4c20dbf9a94735cb583b0b748793b8de5864736f6c63430007040033",
  "deployedBytecode": "0x608060405234801561001057600080fd5b506004361061045f5760003560e01c8063854dba401161024c578063b5b98ed411610146578063dd5c4a14116100c3578063f7ac913d11610087578063f7ac913d14610c76578063f991158714610c7e578063fa644af514610ca4578063fbdb975d14610cca578063fd295abe14610cf05761045f565b8063dd5c4a1414610bd6578063f21d94f814610bfc578063f2cf6ceb14610c22578063f55c4d3814610c2a578063f604edb814610c505761045f565b8063cc92cbf71161010a578063cc92cbf714610b72578063cecdae5314610b7a578063d2be7b6d14610ba0578063d40d17c514610bc6578063daded5c214610bce5761045f565b8063b5b98ed414610b2c578063b8fd205c14610b34578063becdc10d14610b3c578063c133b7ff14610b44578063cbc446b114610b4c5761045f565b80639c872d02116101d4578063aaed4f0711610198578063aaed4f0714610a93578063ab9779b714610ab9578063af63b2a814610adf578063b2325aef14610ae7578063b27ec92014610b0d5761045f565b80639c872d0214610893578063a317ce9d146108b9578063a47594df146108c1578063a740dbc114610a6c578063a7458b9514610a745761045f565b80638e32f35e1161021b5780638e32f35e146108275780639485871b14610855578063968644f01461085d5780639b7021ce146108655780639c7b005d1461086d5761045f565b8063854dba40146107cb57806386099c54146107d357806386676d43146107db57806389365909146108015761045f565b806354749af31161035d5780636475e342116102e55780636f6c0e7d116102a95780636f6c0e7d14610767578063768365ea1461076f57806378c495741461077757806378ddee751461079d578063834aa4f6146107c35761045f565b80636475e34214610719578063650ca32b146107215780636a72b27d146107295780636cd24daf146107315780636dc95c2e146107395761045f565b80635af47ca71161032c5780635af47ca7146106975780635dadd78a146106bd5780635e5ca652146106c55780635f824bf9146106eb5780636232e59c146106f35761045f565b806354749af31461061d578063568b270214610643578063575832df1461064b57806357907837146106715761045f565b806328520b30116103eb5780633a48bb56116103af5780633a48bb561461059a57806345057ed7146105b95780634ae9388b146105df57806350cec2d5146105e757806351bb3615146106155761045f565b806328520b301461053657806328751b361461053e5780632ca2bd16146105645780632e963a801461058a57806334970f18146105925761045f565b806311cf3a221161043257806311cf3a22146104f057806315dd9c06146104f857806318e504db1461051e5780631bf2f73d146105265780631e5e61901461052e5761045f565b8063080aa5d1146104645780630df3e2951461047e5780630f84c046146104a657806310d74c7d146104ca575b600080fd5b61046c610d28565b60408051918252519081900360200190f35b6104a46004803603602081101561049457600080fd5b50356001600160401b0316610d2e565b005b6104ae610daa565b604080516001600160401b039092168252519081900360200190f35b6104a4600480360360208110156104e057600080fd5b50356001600160401b0316610e29565b6104ae610e70565b6104a46004803603602081101561050e57600080fd5b50356001600160401b0316610eb9565b6104ae610ed5565b6104ae610f1e565b6104ae610f67565b6104ae610fb0565b6104a46004803603602081101561055457600080fd5b50356001600160401b0316610ff9565b6104a46004803603602081101561057a57600080fd5b50356001600160401b0316611040565b6104ae611087565b6104ae6110d0565b6104a4600480360360208110156105b057600080fd5b50351515611119565b6104a4600480360360208110156105cf57600080fd5b50356001600160401b031661125b565b6104ae611272565b6104ae600480360360408110156105fd57600080fd5b506001600160401b03813581169160200135166112bb565b6104ae611431565b6104a46004803603602081101561063357600080fd5b50356001600160401b031661147a565b6104ae61148e565b6104a46004803603602081101561066157600080fd5b50356001600160401b03166114d7565b6104a46004803603602081101561068757600080fd5b50356001600160401b031661151e565b6104a4600480360360208110156106ad57600080fd5b50356001600160401b0316611565565b6104ae6115ac565b6104a4600480360360208110156106db57600080fd5b50356001600160401b03166115f5565b6104ae61163c565b6104ae6004803603602081101561070957600080fd5b50356001600160401b0316611685565b6104ae611699565b6104ae6116e2565b6104ae61172b565b6104ae611774565b6104a46004803603604081101561074f57600080fd5b506001600160401b03813581169160200135166117bd565b6104ae6117ca565b6104ae611813565b6104a46004803603602081101561078d57600080fd5b50356001600160401b031661185c565b6104a4600480360360208110156107b357600080fd5b50356001600160401b03166118a3565b6104ae6118ea565b6104ae611933565b6104ae61197c565b6104a4600480360360208110156107f157600080fd5b50356001600160401b0316611ad2565b6104a46004803603602081101561081757600080fd5b50356001600160401b0316611b19565b6104a46004803603604081101561083d57600080fd5b506001600160401b0381358116916020013516611b60565b6104ae611c62565b6104ae611cab565b6104ae611d74565b6104a46004803603602081101561088357600080fd5b50356001600160401b0316611dbd565b6104a4600480360360208110156108a957600080fd5b50356001600160401b0316611e04565b6104ae611e4b565b6104a4600480360360608110156108d757600080fd5b8101906020810181356401000000008111156108f257600080fd5b82018360208201111561090457600080fd5b8035906020019184602083028401116401000000008311171561092657600080fd5b919080806020026020016040519081016040528093929190818152602001838360200280828437600092019190915250929594936020810193503591505064010000000081111561097657600080fd5b82018360208201111561098857600080fd5b803590602001918460208302840111640100000000831117156109aa57600080fd5b91908080602002602001604051908101604052809392919081815260200183836020028082843760009201919091525092959493602081019350359150506401000000008111156109fa57600080fd5b820183602082011115610a0c57600080fd5b80359060200191846020830284011164010000000083111715610a2e57600080fd5b919080806020026020016040519081016040528093929190818152602001838360200280828437600092019190915250929550611e94945050505050565b6104ae611f59565b6104a460048036036020811015610a8a57600080fd5b50351515611fa2565b6104a460048036036020811015610aa957600080fd5b50356001600160401b031661203c565b6104a460048036036020811015610acf57600080fd5b50356001600160401b0316612083565b6104ae6120ca565b6104a460048036036020811015610afd57600080fd5b50356001600160401b0316612113565b6104a460048036036020811015610b2357600080fd5b5035151561215a565b6104ae6121f4565b6104ae61223d565b6104ae612286565b6104ae6122cf565b6104a460048036036020811015610b6257600080fd5b50356001600160401b0316612318565b6104ae61235f565b6104a460048036036020811015610b9057600080fd5b50356001600160401b03166123a8565b6104a460048036036020811015610bb657600080fd5b50356001600160401b0316612507565b6104ae61254e565b6104ae612617565b6104a460048036036020811015610bec57600080fd5b50356001600160401b0316612660565b6104a460048036036020811015610c1257600080fd5b50356001600160401b03166126a7565b6104ae6126ee565b6104a460048036036020811015610c4057600080fd5b50356001600160401b0316612737565b6104a460048036036020811015610c6657600080fd5b50356001600160401b031661277e565b6104ae6127c5565b6104a460048036036020811015610c9457600080fd5b50356001600160401b031661288e565b6104ae60048036036020811015610cba57600080fd5b50356001600160401b03166128d5565b6104a460048036036020811015610ce057600080fd5b50356001600160401b031661296e565b6104a460048036036060811015610d0657600080fd5b506001600160401b0381358116916020810135821691604090910135166129b5565b60005490565b610da773__$edd6a44efa4a8bdf57aa57ccba2bcfbb1d$__639a59734c6040518163ffffffff1660e01b815260040160206040518083038186803b158015610d7557600080fd5b505af4158015610d89573d6000803e3d6000fd5b505050506040513d6020811015610d9f57600080fd5b505182611b60565b50565b6000610e2473__$edd6a44efa4a8bdf57aa57ccba2bcfbb1d$__636630ad876040518163ffffffff1660e01b815260040160206040518083038186803b158015610df357600080fd5b505af4158015610e07573d6000803e3d6000fd5b505050506040513d6020811015610e1d57600080fd5b50516128d5565b905090565b610da773__$edd6a44efa4a8bdf57aa57ccba2bcfbb1d$__6372eb67d06040518163ffffffff1660e01b815260040160206040518083038186803b158015610d7557600080fd5b6000610e2473__$edd6a44efa4a8bdf57aa57ccba2bcfbb1d$__638fd6b7c46040518163ffffffff1660e01b815260040160206040518083038186803b158015610df357600080fd5b6000610ec3611e4b565b8219169050610ed18161203c565b5050565b6000610e2473__$edd6a44efa4a8bdf57aa57ccba2bcfbb1d$__63734b96006040518163ffffffff1660e01b815260040160206040518083038186803b158015610df357600080fd5b6000610e2473__$edd6a44efa4a8bdf57aa57ccba2bcfbb1d$__63443fd5986040518163ffffffff1660e01b815260040160206040518083038186803b158015610df357600080fd5b6000610e2473__$edd6a44efa4a8bdf57aa57ccba2bcfbb1d$__63ca04595a6040518163ffffffff1660e01b815260040160206040518083038186803b158015610df357600080fd5b6000610e2473__$edd6a44efa4a8bdf57aa57ccba2bcfbb1d$__6372eb67d06040518163ffffffff1660e01b815260040160206040518083038186803b158015610df357600080fd5b610da773__$edd6a44efa4a8bdf57aa57ccba2bcfbb1d$__63ca04595a6040518163ffffffff1660e01b815260040160206040518083038186803b158015610d7557600080fd5b610da773__$edd6a44efa4a8bdf57aa57ccba2bcfbb1d$__63d124bd136040518163ffffffff1660e01b815260040160206040518083038186803b158015610d7557600080fd5b6000610e2473__$edd6a44efa4a8bdf57aa57ccba2bcfbb1d$__6329301cac6040518163ffffffff1660e01b815260040160206040518083038186803b158015610df357600080fd5b6000610e2473__$96c0387300a4d16af366df01fc33f52e50$__63521819f56040518163ffffffff1660e01b815260040160206040518083038186803b158015610df357600080fd5b60006111236122cf565b905081156111a15773__$6af7953b03ecb3cadd1ca9bb3675b9b8d6$__63e697ace96040518163ffffffff1660e01b815260040160206040518083038186803b15801561116f57600080fd5b505af4158015611183573d6000803e3d6000fd5b505050506040513d602081101561119957600080fd5b505117611214565b73__$6af7953b03ecb3cadd1ca9bb3675b9b8d6$__63e697ace96040518163ffffffff1660e01b815260040160206040518083038186803b1580156111e557600080fd5b505af41580156111f9573d6000803e3d6000fd5b505050506040513d602081101561120f57600080fd5b505119165b610ed173__$edd6a44efa4a8bdf57aa57ccba2bcfbb1d$__632ffdabc56040518163ffffffff1660e01b815260040160206040518083038186803b158015610d7557600080fd5b6000611265611e4b565b82179050610ed18161203c565b6000610e2473__$edd6a44efa4a8bdf57aa57ccba2bcfbb1d$__63b255e9e46040518163ffffffff1660e01b815260040160206040518083038186803b158015610df357600080fd5b60006007198316808403826112cf83612bfc565b9050600073__$184ef4a65c614d890e6225597d290b0ed9$__63bf1924c5846008026001600160401b03166001896001600160401b031660026001600160401b03160a036001600160401b0316901b6040518263ffffffff1660e01b815260040180826001600160401b0316815260200191505060206040518083038186803b15801561135b57600080fd5b505af415801561136f573d6000803e3d6000fd5b505050506040513d602081101561138557600080fd5b50516040805163bf1924c560e01b81526001600160401b03858416811660048301529151929350600886029091169173__$184ef4a65c614d890e6225597d290b0ed9$__9163bf1924c5916024808301926020929190829003018186803b1580156113ef57600080fd5b505af4158015611403573d6000803e3d6000fd5b505050506040513d602081101561141957600080fd5b50516001600160401b0316901c979650505050505050565b6000610e2473__$edd6a44efa4a8bdf57aa57ccba2bcfbb1d$__637047f4df6040518163ffffffff1660e01b815260040160206040518083038186803b158015610df357600080fd5b611483816123a8565b610da76000196126a7565b6000610e2473__$edd6a44efa4a8bdf57aa57ccba2bcfbb1d$__6345827f696040518163ffffffff1660e01b815260040160206040518083038186803b158015610df357600080fd5b610da773__$edd6a44efa4a8bdf57aa57ccba2bcfbb1d$__63e59cb5746040518163ffffffff1660e01b815260040160206040518083038186803b158015610d7557600080fd5b610da773__$edd6a44efa4a8bdf57aa57ccba2bcfbb1d$__63734b96006040518163ffffffff1660e01b815260040160206040518083038186803b158015610d7557600080fd5b610da773__$edd6a44efa4a8bdf57aa57ccba2bcfbb1d$__639ff9932b6040518163ffffffff1660e01b815260040160206040518083038186803b158015610d7557600080fd5b6000610e2473__$edd6a44efa4a8bdf57aa57ccba2bcfbb1d$__63e2e2e7126040518163ffffffff1660e01b815260040160206040518083038186803b158015610df357600080fd5b610da773__$edd6a44efa4a8bdf57aa57ccba2bcfbb1d$__63a43e290f6040518163ffffffff1660e01b815260040160206040518083038186803b158015610d7557600080fd5b6000610e2473__$edd6a44efa4a8bdf57aa57ccba2bcfbb1d$__6392f5aa226040518163ffffffff1660e01b815260040160206040518083038186803b158015610df357600080fd5b6000611693826008026128d5565b92915050565b6000610e2473__$3c056aa8a31fb3ce78f242f7ef99e26695$__63870981356040518163ffffffff1660e01b815260040160206040518083038186803b158015610df357600080fd5b6000610e2473__$edd6a44efa4a8bdf57aa57ccba2bcfbb1d$__63d41a5b596040518163ffffffff1660e01b815260040160206040518083038186803b158015610df357600080fd5b6000610e2473__$edd6a44efa4a8bdf57aa57ccba2bcfbb1d$__63e59cb5746040518163ffffffff1660e01b815260040160206040518083038186803b158015610df357600080fd5b6000610e2473__$edd6a44efa4a8bdf57aa57ccba2bcfbb1d$__63da3e8d7b6040518163ffffffff1660e01b815260040160206040518083038186803b158015610df357600080fd5b610ed18260080282611b60565b6000610e2473__$96c0387300a4d16af366df01fc33f52e50$__636299ea3f6040518163ffffffff1660e01b815260040160206040518083038186803b158015610df357600080fd5b6000610e2473__$96c0387300a4d16af366df01fc33f52e50$__63f4655f126040518163ffffffff1660e01b815260040160206040518083038186803b158015610df357600080fd5b610da773__$edd6a44efa4a8bdf57aa57ccba2bcfbb1d$__6345827f696040518163ffffffff1660e01b815260040160206040518083038186803b158015610d7557600080fd5b610da773__$edd6a44efa4a8bdf57aa57ccba2bcfbb1d$__63b255e9e46040518163ffffffff1660e01b815260040160206040518083038186803b158015610d7557600080fd5b6000610e2473__$edd6a44efa4a8bdf57aa57ccba2bcfbb1d$__634a4c35106040518163ffffffff1660e01b815260040160206040518083038186803b158015610df357600080fd5b6000610e2473__$edd6a44efa4a8bdf57aa57ccba2bcfbb1d$__63c585eede6040518163ffffffff1660e01b815260040160206040518083038186803b158015610df357600080fd5b600073__$6af7953b03ecb3cadd1ca9bb3675b9b8d6$__6317a0cac36040518163ffffffff1660e01b815260040160206040518083038186803b1580156119c257600080fd5b505af41580156119d6573d6000803e3d6000fd5b505050506040513d60208110156119ec57600080fd5b5051604080516351a2ab4160e11b815290516001600160401b039092169173__$6af7953b03ecb3cadd1ca9bb3675b9b8d6$__9163a3455682916004808301926020929190829003018186803b158015611a4557600080fd5b505af4158015611a59573d6000803e3d6000fd5b505050506040513d6020811015611a6f57600080fd5b505160408051632ffdabc560e01b81529051611ac19173__$edd6a44efa4a8bdf57aa57ccba2bcfbb1d$__91632ffdabc591600480820192602092909190829003018186803b158015610df357600080fd5b166001600160401b0316901c905090565b610da773__$edd6a44efa4a8bdf57aa57ccba2bcfbb1d$__63e80d17516040518163ffffffff1660e01b815260040160206040518083038186803b158015610d7557600080fd5b610da773__$edd6a44efa4a8bdf57aa57ccba2bcfbb1d$__637047f4df6040518163ffffffff1660e01b815260040160206040518083038186803b158015610d7557600080fd5b600073__$184ef4a65c614d890e6225597d290b0ed9$__63bf1924c5836040518263ffffffff1660e01b815260040180826001600160401b0316815260200191505060206040518083038186803b158015611bba57600080fd5b505af4158015611bce573d6000803e3d6000fd5b505050506040513d6020811015611be457600080fd5b505160c01b90506001600160c01b03198116611c01846000612c12565b6001600160c01b03191614611c5d576040805162461bcd60e51b815260206004820152601c60248201527f5772697474656e2076616c756520646f6573206e6f74206d6174636800000000604482015290519081900360640190fd5b505050565b6000610e2473__$edd6a44efa4a8bdf57aa57ccba2bcfbb1d$__63d124bd136040518163ffffffff1660e01b815260040160206040518083038186803b158015610df357600080fd5b600073__$6af7953b03ecb3cadd1ca9bb3675b9b8d6$__63656b151f6040518163ffffffff1660e01b815260040160206040518083038186803b158015611cf157600080fd5b505af4158015611d05573d6000803e3d6000fd5b505050506040513d6020811015611d1b57600080fd5b50516040805163fd198e5560e01b815290516001600160401b039092169173__$6af7953b03ecb3cadd1ca9bb3675b9b8d6$__9163fd198e55916004808301926020929190829003018186803b158015611a4557600080fd5b6000610e2473__$edd6a44efa4a8bdf57aa57ccba2bcfbb1d$__639ff9932b6040518163ffffffff1660e01b815260040160206040518083038186803b158015610df357600080fd5b610da773__$edd6a44efa4a8bdf57aa57ccba2bcfbb1d$__6329301cac6040518163ffffffff1660e01b815260040160206040518083038186803b158015610d7557600080fd5b610da773__$edd6a44efa4a8bdf57aa57ccba2bcfbb1d$__638fd6b7c46040518163ffffffff1660e01b815260040160206040518083038186803b158015610d7557600080fd5b6000610e2473__$edd6a44efa4a8bdf57aa57ccba2bcfbb1d$__63520aff6c6040518163ffffffff1660e01b815260040160206040518083038186803b158015610df357600080fd5b8151835114611ed45760405162461bcd60e51b8152600401808060200182810382526027815260200180612fb16027913960400191505060405180910390fd5b8051835114611f145760405162461bcd60e51b8152600401808060200182810382526027815260200180612fb16027913960400191505060405180910390fd5b600080558251611f2b906001906020860190612dbd565b508151611f3f906002906020850190612e75565b508051611f53906003906020840190612ee2565b50505050565b6000610e2473__$edd6a44efa4a8bdf57aa57ccba2bcfbb1d$__632935b8ce6040518163ffffffff1660e01b815260040160206040518083038186803b158015610df357600080fd5b6000611fac6122cf565b90508115611ff85773__$6af7953b03ecb3cadd1ca9bb3675b9b8d6$__63fd198e556040518163ffffffff1660e01b815260040160206040518083038186803b15801561116f57600080fd5b73__$6af7953b03ecb3cadd1ca9bb3675b9b8d6$__63fd198e556040518163ffffffff1660e01b815260040160206040518083038186803b1580156111e557600080fd5b610da773__$edd6a44efa4a8bdf57aa57ccba2bcfbb1d$__63520aff6c6040518163ffffffff1660e01b815260040160206040518083038186803b158015610d7557600080fd5b610da773__$edd6a44efa4a8bdf57aa57ccba2bcfbb1d$__63443fd5986040518163ffffffff1660e01b815260040160206040518083038186803b158015610d7557600080fd5b6000610e2473__$edd6a44efa4a8bdf57aa57ccba2bcfbb1d$__639a59734c6040518163ffffffff1660e01b815260040160206040518083038186803b158015610df357600080fd5b610da773__$96c0387300a4d16af366df01fc33f52e50$__630a279d716040518163ffffffff1660e01b815260040160206040518083038186803b158015610d7557600080fd5b60006121646122cf565b905081156121b05773__$6af7953b03ecb3cadd1ca9bb3675b9b8d6$__63a34556826040518163ffffffff1660e01b815260040160206040518083038186803b15801561116f57600080fd5b73__$6af7953b03ecb3cadd1ca9bb3675b9b8d6$__63a34556826040518163ffffffff1660e01b815260040160206040518083038186803b1580156111e557600080fd5b6000610e2473__$edd6a44efa4a8bdf57aa57ccba2bcfbb1d$__6342db36676040518163ffffffff1660e01b815260040160206040518083038186803b158015610df357600080fd5b6000610e2473__$96c0387300a4d16af366df01fc33f52e50$__636903680c6040518163ffffffff1660e01b815260040160206040518083038186803b158015610df357600080fd5b6000610e2473__$edd6a44efa4a8bdf57aa57ccba2bcfbb1d$__63929127db6040518163ffffffff1660e01b815260040160206040518083038186803b158015610df357600080fd5b6000610e2473__$edd6a44efa4a8bdf57aa57ccba2bcfbb1d$__632ffdabc56040518163ffffffff1660e01b815260040160206040518083038186803b158015610df357600080fd5b610da773__$edd6a44efa4a8bdf57aa57ccba2bcfbb1d$__636630ad876040518163ffffffff1660e01b815260040160206040518083038186803b158015610d7557600080fd5b6000610e2473__$edd6a44efa4a8bdf57aa57ccba2bcfbb1d$__63e80d17516040518163ffffffff1660e01b815260040160206040518083038186803b158015610df357600080fd5b60006123b26122cf565b905073__$6af7953b03ecb3cadd1ca9bb3675b9b8d6$__63910a52476040518163ffffffff1660e01b815260040160206040518083038186803b1580156123f857600080fd5b505af415801561240c573d6000803e3d6000fd5b505050506040513d602081101561242257600080fd5b50516040805163317d2bb560e01b815290516001600160401b0385811693169290921b9173__$6af7953b03ecb3cadd1ca9bb3675b9b8d6$__9163317d2bb5916004808301926020929190829003018186803b15801561248157600080fd5b505af4158015612495573d6000803e3d6000fd5b505050506040513d60208110156124ab57600080fd5b505160408051632ffdabc560e01b815290519119939093169190911791610ed19173__$edd6a44efa4a8bdf57aa57ccba2bcfbb1d$__91632ffdabc5916004808301926020929190829003018186803b158015610d7557600080fd5b610da773__$edd6a44efa4a8bdf57aa57ccba2bcfbb1d$__632935b8ce6040518163ffffffff1660e01b815260040160206040518083038186803b158015610d7557600080fd5b600073__$6af7953b03ecb3cadd1ca9bb3675b9b8d6$__63e89d408d6040518163ffffffff1660e01b815260040160206040518083038186803b15801561259457600080fd5b505af41580156125a8573d6000803e3d6000fd5b505050506040513d60208110156125be57600080fd5b50516040805163e697ace960e01b815290516001600160401b039092169173__$6af7953b03ecb3cadd1ca9bb3675b9b8d6$__9163e697ace9916004808301926020929190829003018186803b158015611a4557600080fd5b6000610e2473__$edd6a44efa4a8bdf57aa57ccba2bcfbb1d$__63a43e290f6040518163ffffffff1660e01b815260040160206040518083038186803b158015610df357600080fd5b610da773__$96c0387300a4d16af366df01fc33f52e50$__63521819f56040518163ffffffff1660e01b815260040160206040518083038186803b158015610d7557600080fd5b610da773__$edd6a44efa4a8bdf57aa57ccba2bcfbb1d$__63e2e2e7126040518163ffffffff1660e01b815260040160206040518083038186803b158015610d7557600080fd5b6000610e2473__$96c0387300a4d16af366df01fc33f52e50$__630a279d716040518163ffffffff1660e01b815260040160206040518083038186803b158015610df357600080fd5b610da773__$edd6a44efa4a8bdf57aa57ccba2bcfbb1d$__6342db36676040518163ffffffff1660e01b815260040160206040518083038186803b158015610d7557600080fd5b610da773__$edd6a44efa4a8bdf57aa57ccba2bcfbb1d$__63da3e8d7b6040518163ffffffff1660e01b815260040160206040518083038186803b158015610d7557600080fd5b600073__$6af7953b03ecb3cadd1ca9bb3675b9b8d6$__63910a52476040518163ffffffff1660e01b815260040160206040518083038186803b15801561280b57600080fd5b505af415801561281f573d6000803e3d6000fd5b505050506040513d602081101561283557600080fd5b50516040805163317d2bb560e01b815290516001600160401b039092169173__$6af7953b03ecb3cadd1ca9bb3675b9b8d6$__9163317d2bb5916004808301926020929190829003018186803b158015611a4557600080fd5b610da773__$edd6a44efa4a8bdf57aa57ccba2bcfbb1d$__63d41a5b596040518163ffffffff1660e01b815260040160206040518083038186803b158015610d7557600080fd5b600073__$184ef4a65c614d890e6225597d290b0ed9$__63bf1924c56128fc846001612c12565b60c01c6040518263ffffffff1660e01b815260040180826001600160401b0316815260200191505060206040518083038186803b15801561293c57600080fd5b505af4158015612950573d6000803e3d6000fd5b505050506040513d602081101561296657600080fd5b505192915050565b610da773__$3c056aa8a31fb3ce78f242f7ef99e26695$__63870981356040518163ffffffff1660e01b815260040160206040518083038186803b158015610d7557600080fd5b600060086001600160401b038316049050806001600160401b0316600814156129e7576129e28484611b60565b611f53565b600719841680850360006129fa83612bfc565b9050600073__$184ef4a65c614d890e6225597d290b0ed9$__63bf1924c5846008026001600160401b03166001896001600160401b031660026001600160401b03160a036001600160401b0316901b6040518263ffffffff1660e01b815260040180826001600160401b0316815260200191505060206040518083038186803b158015612a8657600080fd5b505af4158015612a9a573d6000803e3d6000fd5b505050506040513d6020811015612ab057600080fd5b50516040805163bf1924c560e01b81526001600160401b0389811660020a600019018b16166004820152905191925060009173__$184ef4a65c614d890e6225597d290b0ed9$__9163bf1924c5916024808301926020929190829003018186803b158015612b1d57600080fd5b505af4158015612b31573d6000803e3d6000fd5b505050506040513d6020811015612b4757600080fd5b50516040805163bf1924c560e01b81526001600160401b038084166008890282161c861988161790811660048301529151929350909173__$184ef4a65c614d890e6225597d290b0ed9$__9163bf1924c5916024808301926020929190829003018186803b158015612bb857600080fd5b505af4158015612bcc573d6000803e3d6000fd5b505050506040513d6020811015612be257600080fd5b50519050612bf08682611b60565b50505050505050505050565b6000612c09826001612c12565b60c01c92915050565b6000811515600360005481548110612c2657fe5b90600052602060002090602091828204019190069054906101000a900460ff16151514612c9a576040805162461bcd60e51b815260206004820152601f60248201527f41636365737320776173206e6f742074686520636f7272656374207479706500604482015290519081900360640190fd5b6000600160005481548110612cab57fe5b90600052602060002090600491828204019190066008029054906101000a90046001600160401b031690506000600260005481548110612ce757fe5b60009182526020822060048204015482546001019092556003166008026101000a900460c01b90506007821615612d65576040805162461bcd60e51b815260206004820152601760248201527f506f736974696f6e206973206e6f7420616c69676e6564000000000000000000604482015290519081900360640190fd5b846001600160401b0316826001600160401b031614612db55760405162461bcd60e51b8152600401808060200182810382526026815260200180612f8b6026913960400191505060405180910390fd5b949350505050565b82805482825590600052602060002090600301600490048101928215612e655791602002820160005b83821115612e3057835183826101000a8154816001600160401b0302191690836001600160401b031602179055509260200192600801602081600701049283019260010302612de6565b8015612e635782816101000a8154906001600160401b030219169055600801602081600701049283019260010302612e30565b505b50612e71929150612f75565b5090565b82805482825590600052602060002090600301600490048101928215612e655791602002820160005b83821115612e3057835183826101000a8154816001600160401b03021916908360c01c02179055509260200192600801602081600701049283019260010302612e9e565b82805482825590600052602060002090601f01602090048101928215612e655791602002820160005b83821115612f4857835183826101000a81548160ff0219169083151502179055509260200192600101602081600001049283019260010302612f0b565b8015612e635782816101000a81549060ff0219169055600101602081600001049283019260010302612f48565b5b80821115612e715760008155600101612f7656fe506f736974696f6e20616e642072656164206164647265737320646f206e6f74206d61746368526561642f77726974652061727261797320617265206e6f74207468652073616d652073697a65a2646970667358221220ac1f61ec2fa57d76c6e3e3b8fd192b4c20dbf9a94735cb583b0b748793b8de5864736f6c63430007040033",
  "libraries": {
    "BitsManipulationLibrary": "0x343BD99E797f5EB81f4711123E2859ba98c6cb16",
    "RiscVConstants": "0x512dD9B131C45E9Bba375BFA83bC081BF4aF1aaB",
    "ShadowAddresses": "0xA3355eAff2feE04FB4E3dE9a90e469784F1dDAFe",
    "HTIF": "0xD90baFCDCd3f131CC5fA932d27068918cb48CDA0",
    "CLINT": "0x17054dcbF6708E3Ff311CBf0894C567652FE4d23"
  },
  "devdoc": {
    "author": "Felipe Argento",
    "details": "Every read performed by mi.memoryRead or mi.write should be followed by anendianess swap from little endian to big endian. This is the case becauseEVM is big endian but RiscV is little endian.Reference: riscv-spec-v2.2.pdf - Preface to Version 2.0Reference: Ethereum yellowpaper - Version 69351d5Appendix H. Virtual Machine Specification",
    "kind": "dev",
    "methods": {},
    "title": "MemoryInteractor",
    "version": 1
  },
  "userdoc": {
    "kind": "user",
    "methods": {},
    "notice": "Bridge between Memory Manager and Step",
    "version": 1
  },
  "storageLayout": {
    "storage": [
      {
        "astId": 5841,
        "contract": "contracts/MemoryInteractor.sol:MemoryInteractor",
        "label": "rwIndex",
        "offset": 0,
        "slot": "0",
        "type": "t_uint256"
      },
      {
        "astId": 5844,
        "contract": "contracts/MemoryInteractor.sol:MemoryInteractor",
        "label": "rwPositions",
        "offset": 0,
        "slot": "1",
        "type": "t_array(t_uint64)dyn_storage"
      },
      {
        "astId": 5847,
        "contract": "contracts/MemoryInteractor.sol:MemoryInteractor",
        "label": "rwValues",
        "offset": 0,
        "slot": "2",
        "type": "t_array(t_bytes8)dyn_storage"
      },
      {
        "astId": 5850,
        "contract": "contracts/MemoryInteractor.sol:MemoryInteractor",
        "label": "isRead",
        "offset": 0,
        "slot": "3",
        "type": "t_array(t_bool)dyn_storage"
      }
    ],
    "types": {
      "t_array(t_bool)dyn_storage": {
        "base": "t_bool",
        "encoding": "dynamic_array",
        "label": "bool[]",
        "numberOfBytes": "32"
      },
      "t_array(t_bytes8)dyn_storage": {
        "base": "t_bytes8",
        "encoding": "dynamic_array",
        "label": "bytes8[]",
        "numberOfBytes": "32"
      },
      "t_array(t_uint64)dyn_storage": {
        "base": "t_uint64",
        "encoding": "dynamic_array",
        "label": "uint64[]",
        "numberOfBytes": "32"
      },
      "t_bool": {
        "encoding": "inplace",
        "label": "bool",
        "numberOfBytes": "1"
      },
      "t_bytes8": {
        "encoding": "inplace",
        "label": "bytes8",
        "numberOfBytes": "8"
      },
      "t_uint256": {
        "encoding": "inplace",
        "label": "uint256",
        "numberOfBytes": "32"
      },
      "t_uint64": {
        "encoding": "inplace",
        "label": "uint64",
        "numberOfBytes": "8"
      }
    }
  }
}