{
  "address": "0xE41CeAA87523E7ebFe34aE310F5E576C26e824C1",
  "abi": [
    {
      "inputs": [
        {
          "internalType": "uint64",
          "name": "cycle",
          "type": "uint64"
        }
      ],
      "name": "rtcCycleToTime",
      "outputs": [
        {
          "internalType": "uint64",
          "name": "",
          "type": "uint64"
        }
      ],
      "stateMutability": "pure",
      "type": "function"
    },
    {
      "inputs": [
        {
          "internalType": "uint64",
          "name": "time",
          "type": "uint64"
        }
      ],
      "name": "rtcTimeToCycle",
      "outputs": [
        {
          "internalType": "uint64",
          "name": "",
          "type": "uint64"
        }
      ],
      "stateMutability": "pure",
      "type": "function"
    }
  ],
  "transactionHash": "0xe12eca727196209bd9a22c96e69395e5e5ad1178e63dd3fed3e06f053b04b290",
  "args": [],
  "solcInputHash": "4ab6a1e1786521c94a86efcef741c284",
  "bytecode": "0x60f6610025600b82828239805160001a60731461001857fe5b30600052607381538281f3fe7300000000000000000000000000000000000000003014608060405260043610603d5760003560e01c8063453f06be14604257806368bd2a56146083575b600080fd5b606660048036036020811015605657600080fd5b503567ffffffffffffffff1660a7565b6040805167ffffffffffffffff9092168252519081900360200190f35b606660048036036020811015609757600080fd5b503567ffffffffffffffff1660ba565b606467ffffffffffffffff919091160490565b6064029056fea26469706673582212205432e00f1fccffb20a220f9c2171e7371da6ed33f0698bb3d69843a5c780cff364736f6c63430007040033",
  "devdoc": {
    "author": "Felipe Argento",
    "kind": "dev",
    "methods": {
      "rtcCycleToTime(uint64)": {
        "params": {
          "cycle": "Cycle count"
        },
        "returns": {
          "_0": "Time count"
        }
      },
      "rtcTimeToCycle(uint64)": {
        "params": {
          "time": "Time count"
        },
        "returns": {
          "_0": "Cycle count"
        }
      }
    },
    "title": "RealTimeClock",
    "version": 1
  },
  "userdoc": {
    "kind": "user",
    "methods": {
      "rtcCycleToTime(uint64)": {
        "notice": "Converts from cycle count to time count"
      },
      "rtcTimeToCycle(uint64)": {
        "notice": "Converts from time count to cycle count"
      }
    },
    "notice": "Real Time clock simulator",
    "version": 1
  },
  "storageLayout": {
    "storage": [],
    "types": null
  }
}