{
  "address": "0x93a25Ee292809A07c4d932F7966cA8c0D06a4186",
  "abi": [
    {
      "inputs": [
        {
          "internalType": "uint32",
          "name": "insn",
          "type": "uint32"
        }
      ],
      "name": "insnBImm",
      "outputs": [
        {
          "internalType": "int32",
          "name": "",
          "type": "int32"
        }
      ],
      "stateMutability": "pure",
      "type": "function"
    },
    {
      "inputs": [
        {
          "internalType": "uint32",
          "name": "insn",
          "type": "uint32"
        }
      ],
      "name": "insnFunct3",
      "outputs": [
        {
          "internalType": "uint32",
          "name": "",
          "type": "uint32"
        }
      ],
      "stateMutability": "pure",
      "type": "function"
    },
    {
      "inputs": [
        {
          "internalType": "uint32",
          "name": "insn",
          "type": "uint32"
        }
      ],
      "name": "insnFunct3Funct5",
      "outputs": [
        {
          "internalType": "uint32",
          "name": "",
          "type": "uint32"
        }
      ],
      "stateMutability": "pure",
      "type": "function"
    },
    {
      "inputs": [
        {
          "internalType": "uint32",
          "name": "insn",
          "type": "uint32"
        }
      ],
      "name": "insnFunct3Funct7",
      "outputs": [
        {
          "internalType": "uint32",
          "name": "",
          "type": "uint32"
        }
      ],
      "stateMutability": "pure",
      "type": "function"
    },
    {
      "inputs": [
        {
          "internalType": "uint32",
          "name": "insn",
          "type": "uint32"
        }
      ],
      "name": "insnFunct6",
      "outputs": [
        {
          "internalType": "uint32",
          "name": "",
          "type": "uint32"
        }
      ],
      "stateMutability": "pure",
      "type": "function"
    },
    {
      "inputs": [
        {
          "internalType": "uint32",
          "name": "insn",
          "type": "uint32"
        }
      ],
      "name": "insnFunct7",
      "outputs": [
        {
          "internalType": "uint32",
          "name": "",
          "type": "uint32"
        }
      ],
      "stateMutability": "pure",
      "type": "function"
    },
    {
      "inputs": [
        {
          "internalType": "uint32",
          "name": "insn",
          "type": "uint32"
        }
      ],
      "name": "insnIImm",
      "outputs": [
        {
          "internalType": "int32",
          "name": "",
          "type": "int32"
        }
      ],
      "stateMutability": "pure",
      "type": "function"
    },
    {
      "inputs": [
        {
          "internalType": "uint32",
          "name": "insn",
          "type": "uint32"
        }
      ],
      "name": "insnIUimm",
      "outputs": [
        {
          "internalType": "uint32",
          "name": "",
          "type": "uint32"
        }
      ],
      "stateMutability": "pure",
      "type": "function"
    },
    {
      "inputs": [
        {
          "internalType": "uint32",
          "name": "insn",
          "type": "uint32"
        }
      ],
      "name": "insnJImm",
      "outputs": [
        {
          "internalType": "int32",
          "name": "",
          "type": "int32"
        }
      ],
      "stateMutability": "pure",
      "type": "function"
    },
    {
      "inputs": [
        {
          "internalType": "uint32",
          "name": "insn",
          "type": "uint32"
        }
      ],
      "name": "insnOpcode",
      "outputs": [
        {
          "internalType": "uint32",
          "name": "",
          "type": "uint32"
        }
      ],
      "stateMutability": "pure",
      "type": "function"
    },
    {
      "inputs": [
        {
          "internalType": "uint32",
          "name": "insn",
          "type": "uint32"
        }
      ],
      "name": "insnRd",
      "outputs": [
        {
          "internalType": "uint32",
          "name": "",
          "type": "uint32"
        }
      ],
      "stateMutability": "pure",
      "type": "function"
    },
    {
      "inputs": [
        {
          "internalType": "uint32",
          "name": "insn",
          "type": "uint32"
        }
      ],
      "name": "insnRs1",
      "outputs": [
        {
          "internalType": "uint32",
          "name": "",
          "type": "uint32"
        }
      ],
      "stateMutability": "pure",
      "type": "function"
    },
    {
      "inputs": [
        {
          "internalType": "uint32",
          "name": "insn",
          "type": "uint32"
        }
      ],
      "name": "insnRs2",
      "outputs": [
        {
          "internalType": "uint32",
          "name": "",
          "type": "uint32"
        }
      ],
      "stateMutability": "pure",
      "type": "function"
    },
    {
      "inputs": [
        {
          "internalType": "uint32",
          "name": "insn",
          "type": "uint32"
        }
      ],
      "name": "insnSImm",
      "outputs": [
        {
          "internalType": "int32",
          "name": "",
          "type": "int32"
        }
      ],
      "stateMutability": "pure",
      "type": "function"
    },
    {
      "inputs": [
        {
          "internalType": "uint32",
          "name": "insn",
          "type": "uint32"
        }
      ],
      "name": "insnUImm",
      "outputs": [
        {
          "internalType": "int32",
          "name": "",
          "type": "int32"
        }
      ],
      "stateMutability": "pure",
      "type": "function"
    }
  ],
  "transactionHash": "0x2cd232b301605f4c57f356db0b7f4caa814b89187fd8a93608ebd3d1e2bae34c",
  "args": [],
  "solcInputHash": "4ab6a1e1786521c94a86efcef741c284",
  "bytecode": "0x6105c4610026600b82828239805160001a60731461001957fe5b30600052607381538281f3fe73000000000000000000000000000000000000000030146080604052600436106100ff5760003560e01c8063b8464b83116100a1578063e91d6a9411610070578063e91d6a94146102b5578063ee9fd035146102d8578063efdbf49a146102fb578063f98780721461031e576100ff565b8063b8464b8314610229578063c920257b1461024c578063dff959bd1461026f578063e01eb62014610292576100ff565b806353c0a143116100dd57806353c0a1431461019d5780635c53fe57146101c05780636d0ba6fa146101e35780637b80452414610206576100ff565b80631863d40c1461010457806322772c841461013e578063287b44bf14610161575b600080fd5b6101276004803603602081101561011a57600080fd5b503563ffffffff16610341565b6040805160039290920b8252519081900360200190f35b6101276004803603602081101561015457600080fd5b503563ffffffff1661034a565b6101846004803603602081101561017757600080fd5b503563ffffffff16610353565b6040805163ffffffff9092168252519081900360200190f35b610184600480360360208110156101b357600080fd5b503563ffffffff1661035c565b610184600480360360208110156101d657600080fd5b503563ffffffff16610365565b610184600480360360208110156101f957600080fd5b503563ffffffff1661036b565b6101846004803603602081101561021c57600080fd5b503563ffffffff16610374565b6101276004803603602081101561023f57600080fd5b503563ffffffff1661037d565b6101846004803603602081101561026257600080fd5b503563ffffffff16610423565b6101846004803603602081101561028557600080fd5b503563ffffffff16610439565b610127600480360360208110156102a857600080fd5b503563ffffffff16610442565b610127600480360360208110156102cb57600080fd5b503563ffffffff166104c8565b610184600480360360208110156102ee57600080fd5b503563ffffffff16610566565b6101846004803603602081101561031157600080fd5b503563ffffffff1661057b565b6101846004803603602081101561033457600080fd5b503563ffffffff16610584565b63fffff0001690565b60030b60141d90565b600f1c601f1690565b60191c607f1690565b607f1690565b601a1c603f1690565b60071c601f1690565b6040805163f69c389b60e01b8152610fe0601484901c16601f600785901c1617600381900b6004830152600c602483015291516000929173343BD99E797f5EB81f4711123E2859ba98c6cb169163f69c389b91604480820192602092909190829003018186803b1580156103f057600080fd5b505af4158015610404573d6000803e3d6000fd5b505050506040513d602081101561041a57600080fd5b50519392505050565b601981901c607f1660059190911c610380161790565b600c1c60071690565b6040805163f69c389b60e01b815262100000600b84901c166107fe601485901c1617610800600985901c1617620ff000841617600381900b60048301526015602483015291516000929173343BD99E797f5EB81f4711123E2859ba98c6cb169163f69c389b91604480820192602092909190829003018186803b1580156103f057600080fd5b60008060048363ffffffff16901b6108001660078463ffffffff16901c601e1660148563ffffffff16901c6107e01660138663ffffffff16901c61100016171717905073343BD99E797f5EB81f4711123E2859ba98c6cb1663f69c389b82600d6040518363ffffffff1660e01b8152600401808360030b81526020018281526020019250505060206040518083038186803b1580156103f057600080fd5b601b81901c601f1660079190911c60e0161790565b60141c601f1690565b60141c610fff169056fea264697066735822122066242daf3a631ec35d14563ef0dfe9b1a7ffdf1b2678d2359f59ecbcae035c7864736f6c63430007040033",
  "deployedBytecode": "0x73000000000000000000000000000000000000000030146080604052600436106100ff5760003560e01c8063b8464b83116100a1578063e91d6a9411610070578063e91d6a94146102b5578063ee9fd035146102d8578063efdbf49a146102fb578063f98780721461031e576100ff565b8063b8464b8314610229578063c920257b1461024c578063dff959bd1461026f578063e01eb62014610292576100ff565b806353c0a143116100dd57806353c0a1431461019d5780635c53fe57146101c05780636d0ba6fa146101e35780637b80452414610206576100ff565b80631863d40c1461010457806322772c841461013e578063287b44bf14610161575b600080fd5b6101276004803603602081101561011a57600080fd5b503563ffffffff16610341565b6040805160039290920b8252519081900360200190f35b6101276004803603602081101561015457600080fd5b503563ffffffff1661034a565b6101846004803603602081101561017757600080fd5b503563ffffffff16610353565b6040805163ffffffff9092168252519081900360200190f35b610184600480360360208110156101b357600080fd5b503563ffffffff1661035c565b610184600480360360208110156101d657600080fd5b503563ffffffff16610365565b610184600480360360208110156101f957600080fd5b503563ffffffff1661036b565b6101846004803603602081101561021c57600080fd5b503563ffffffff16610374565b6101276004803603602081101561023f57600080fd5b503563ffffffff1661037d565b6101846004803603602081101561026257600080fd5b503563ffffffff16610423565b6101846004803603602081101561028557600080fd5b503563ffffffff16610439565b610127600480360360208110156102a857600080fd5b503563ffffffff16610442565b610127600480360360208110156102cb57600080fd5b503563ffffffff166104c8565b610184600480360360208110156102ee57600080fd5b503563ffffffff16610566565b6101846004803603602081101561031157600080fd5b503563ffffffff1661057b565b6101846004803603602081101561033457600080fd5b503563ffffffff16610584565b63fffff0001690565b60030b60141d90565b600f1c601f1690565b60191c607f1690565b607f1690565b601a1c603f1690565b60071c601f1690565b6040805163f69c389b60e01b8152610fe0601484901c16601f600785901c1617600381900b6004830152600c602483015291516000929173__$184ef4a65c614d890e6225597d290b0ed9$__9163f69c389b91604480820192602092909190829003018186803b1580156103f057600080fd5b505af4158015610404573d6000803e3d6000fd5b505050506040513d602081101561041a57600080fd5b50519392505050565b601981901c607f1660059190911c610380161790565b600c1c60071690565b6040805163f69c389b60e01b815262100000600b84901c166107fe601485901c1617610800600985901c1617620ff000841617600381900b60048301526015602483015291516000929173__$184ef4a65c614d890e6225597d290b0ed9$__9163f69c389b91604480820192602092909190829003018186803b1580156103f057600080fd5b60008060048363ffffffff16901b6108001660078463ffffffff16901c601e1660148563ffffffff16901c6107e01660138663ffffffff16901c61100016171717905073__$184ef4a65c614d890e6225597d290b0ed9$__63f69c389b82600d6040518363ffffffff1660e01b8152600401808360030b81526020018281526020019250505060206040518083038186803b1580156103f057600080fd5b601b81901c601f1660079190911c60e0161790565b60141c601f1690565b60141c610fff169056fea264697066735822122066242daf3a631ec35d14563ef0dfe9b1a7ffdf1b2678d2359f59ecbcae035c7864736f6c63430007040033",
  "libraries": {
    "BitsManipulationLibrary": "0x343BD99E797f5EB81f4711123E2859ba98c6cb16"
  },
  "devdoc": {
    "author": "Felipe Argento",
    "kind": "dev",
    "methods": {
      "insnBImm(uint32)": {
        "params": {
          "insn": "Instruction"
        }
      },
      "insnFunct3(uint32)": {
        "params": {
          "insn": "Instruction"
        }
      },
      "insnFunct3Funct5(uint32)": {
        "params": {
          "insn": "Instruction"
        }
      },
      "insnFunct3Funct7(uint32)": {
        "params": {
          "insn": "Instruction"
        }
      },
      "insnFunct6(uint32)": {
        "params": {
          "insn": "Instruction"
        }
      },
      "insnFunct7(uint32)": {
        "params": {
          "insn": "Instruction"
        }
      },
      "insnIImm(uint32)": {
        "params": {
          "insn": "Instruction"
        }
      },
      "insnIUimm(uint32)": {
        "params": {
          "insn": "Instruction"
        }
      },
      "insnJImm(uint32)": {
        "params": {
          "insn": "Instruction"
        }
      },
      "insnOpcode(uint32)": {
        "params": {
          "insn": "Instruction"
        }
      },
      "insnRd(uint32)": {
        "params": {
          "insn": "Instruction"
        }
      },
      "insnRs1(uint32)": {
        "params": {
          "insn": "Instruction"
        }
      },
      "insnRs2(uint32)": {
        "params": {
          "insn": "Instruction"
        }
      },
      "insnSImm(uint32)": {
        "params": {
          "insn": "Instruction"
        }
      },
      "insnUImm(uint32)": {
        "params": {
          "insn": "Instruction"
        }
      }
    },
    "title": "RiscVDecoder",
    "version": 1
  },
  "userdoc": {
    "kind": "user",
    "methods": {
      "insnBImm(uint32)": {
        "notice": "Get the B-type instruction's immediate value"
      },
      "insnFunct3(uint32)": {
        "notice": "Get the instruction's funct3 field"
      },
      "insnFunct3Funct5(uint32)": {
        "notice": "Get the concatenation of instruction's funct3 and funct5 fields"
      },
      "insnFunct3Funct7(uint32)": {
        "notice": "Get the concatenation of instruction's funct3 and funct7 fields"
      },
      "insnFunct6(uint32)": {
        "notice": "Get the instruction's funct6 field"
      },
      "insnFunct7(uint32)": {
        "notice": "Get the instruction's funct7 field"
      },
      "insnIImm(uint32)": {
        "notice": "Get the I-type instruction's immediate value"
      },
      "insnIUimm(uint32)": {
        "notice": "Get the I-type instruction's unsigned immediate value"
      },
      "insnJImm(uint32)": {
        "notice": "Get the J-type instruction's immediate value"
      },
      "insnOpcode(uint32)": {
        "notice": "Get the instruction's opcode field"
      },
      "insnRd(uint32)": {
        "notice": "Get the instruction's RD"
      },
      "insnRs1(uint32)": {
        "notice": "Get the instruction's RS1"
      },
      "insnRs2(uint32)": {
        "notice": "Get the instruction's RS2"
      },
      "insnSImm(uint32)": {
        "notice": "Get the S-type instruction's immediate value"
      },
      "insnUImm(uint32)": {
        "notice": "Get the U-type instruction's immediate value"
      }
    },
    "notice": "Contract responsible for decoding the riscv's instructions",
    "version": 1
  },
  "storageLayout": {
    "storage": [],
    "types": null
  }
}