{
  "address": "0xAC5A2FE7BE3517d74F73f3567CeD8150C99871FB",
  "abi": [
    {
      "inputs": [],
      "name": "getIflagsHMask",
      "outputs": [
        {
          "internalType": "uint64",
          "name": "",
          "type": "uint64"
        }
      ],
      "stateMutability": "pure",
      "type": "function"
    },
    {
      "inputs": [],
      "name": "getIflagsHShift",
      "outputs": [
        {
          "internalType": "uint64",
          "name": "",
          "type": "uint64"
        }
      ],
      "stateMutability": "pure",
      "type": "function"
    },
    {
      "inputs": [],
      "name": "getIflagsIMask",
      "outputs": [
        {
          "internalType": "uint64",
          "name": "",
          "type": "uint64"
        }
      ],
      "stateMutability": "pure",
      "type": "function"
    },
    {
      "inputs": [],
      "name": "getIflagsIShift",
      "outputs": [
        {
          "internalType": "uint64",
          "name": "",
          "type": "uint64"
        }
      ],
      "stateMutability": "pure",
      "type": "function"
    },
    {
      "inputs": [],
      "name": "getIflagsPrvMask",
      "outputs": [
        {
          "internalType": "uint64",
          "name": "",
          "type": "uint64"
        }
      ],
      "stateMutability": "pure",
      "type": "function"
    },
    {
      "inputs": [],
      "name": "getIflagsPrvShift",
      "outputs": [
        {
          "internalType": "uint64",
          "name": "",
          "type": "uint64"
        }
      ],
      "stateMutability": "pure",
      "type": "function"
    },
    {
      "inputs": [],
      "name": "getIflagsYMask",
      "outputs": [
        {
          "internalType": "uint64",
          "name": "",
          "type": "uint64"
        }
      ],
      "stateMutability": "pure",
      "type": "function"
    },
    {
      "inputs": [],
      "name": "getIflagsYShift",
      "outputs": [
        {
          "internalType": "uint64",
          "name": "",
          "type": "uint64"
        }
      ],
      "stateMutability": "pure",
      "type": "function"
    },
    {
      "inputs": [],
      "name": "getMcauseBreakpoint",
      "outputs": [
        {
          "internalType": "uint64",
          "name": "",
          "type": "uint64"
        }
      ],
      "stateMutability": "pure",
      "type": "function"
    },
    {
      "inputs": [],
      "name": "getMcauseEcallBase",
      "outputs": [
        {
          "internalType": "uint64",
          "name": "",
          "type": "uint64"
        }
      ],
      "stateMutability": "pure",
      "type": "function"
    },
    {
      "inputs": [],
      "name": "getMcauseFetchPageFault",
      "outputs": [
        {
          "internalType": "uint64",
          "name": "",
          "type": "uint64"
        }
      ],
      "stateMutability": "pure",
      "type": "function"
    },
    {
      "inputs": [],
      "name": "getMcauseIllegalInsn",
      "outputs": [
        {
          "internalType": "uint64",
          "name": "",
          "type": "uint64"
        }
      ],
      "stateMutability": "pure",
      "type": "function"
    },
    {
      "inputs": [],
      "name": "getMcauseInsnAccessFault",
      "outputs": [
        {
          "internalType": "uint64",
          "name": "",
          "type": "uint64"
        }
      ],
      "stateMutability": "pure",
      "type": "function"
    },
    {
      "inputs": [],
      "name": "getMcauseInsnAddressMisaligned",
      "outputs": [
        {
          "internalType": "uint64",
          "name": "",
          "type": "uint64"
        }
      ],
      "stateMutability": "pure",
      "type": "function"
    },
    {
      "inputs": [],
      "name": "getMcauseInterruptFlag",
      "outputs": [
        {
          "internalType": "uint64",
          "name": "",
          "type": "uint64"
        }
      ],
      "stateMutability": "pure",
      "type": "function"
    },
    {
      "inputs": [],
      "name": "getMcauseLoadAccessFault",
      "outputs": [
        {
          "internalType": "uint64",
          "name": "",
          "type": "uint64"
        }
      ],
      "stateMutability": "pure",
      "type": "function"
    },
    {
      "inputs": [],
      "name": "getMcauseLoadAddressMisaligned",
      "outputs": [
        {
          "internalType": "uint64",
          "name": "",
          "type": "uint64"
        }
      ],
      "stateMutability": "pure",
      "type": "function"
    },
    {
      "inputs": [],
      "name": "getMcauseLoadPageFault",
      "outputs": [
        {
          "internalType": "uint64",
          "name": "",
          "type": "uint64"
        }
      ],
      "stateMutability": "pure",
      "type": "function"
    },
    {
      "inputs": [],
      "name": "getMcauseStoreAmoAccessFault",
      "outputs": [
        {
          "internalType": "uint64",
          "name": "",
          "type": "uint64"
        }
      ],
      "stateMutability": "pure",
      "type": "function"
    },
    {
      "inputs": [],
      "name": "getMcauseStoreAmoAddressMisaligned",
      "outputs": [
        {
          "internalType": "uint64",
          "name": "",
          "type": "uint64"
        }
      ],
      "stateMutability": "pure",
      "type": "function"
    },
    {
      "inputs": [],
      "name": "getMcauseStoreAmoPageFault",
      "outputs": [
        {
          "internalType": "uint64",
          "name": "",
          "type": "uint64"
        }
      ],
      "stateMutability": "pure",
      "type": "function"
    },
    {
      "inputs": [],
      "name": "getMcounterenCyMask",
      "outputs": [
        {
          "internalType": "uint64",
          "name": "",
          "type": "uint64"
        }
      ],
      "stateMutability": "pure",
      "type": "function"
    },
    {
      "inputs": [],
      "name": "getMcounterenCyShift",
      "outputs": [
        {
          "internalType": "uint64",
          "name": "",
          "type": "uint64"
        }
      ],
      "stateMutability": "pure",
      "type": "function"
    },
    {
      "inputs": [],
      "name": "getMcounterenIrMask",
      "outputs": [
        {
          "internalType": "uint64",
          "name": "",
          "type": "uint64"
        }
      ],
      "stateMutability": "pure",
      "type": "function"
    },
    {
      "inputs": [],
      "name": "getMcounterenIrShift",
      "outputs": [
        {
          "internalType": "uint64",
          "name": "",
          "type": "uint64"
        }
      ],
      "stateMutability": "pure",
      "type": "function"
    },
    {
      "inputs": [],
      "name": "getMcounterenRwMask",
      "outputs": [
        {
          "internalType": "uint64",
          "name": "",
          "type": "uint64"
        }
      ],
      "stateMutability": "pure",
      "type": "function"
    },
    {
      "inputs": [],
      "name": "getMcounterenTmMask",
      "outputs": [
        {
          "internalType": "uint64",
          "name": "",
          "type": "uint64"
        }
      ],
      "stateMutability": "pure",
      "type": "function"
    },
    {
      "inputs": [],
      "name": "getMcounterenTmShift",
      "outputs": [
        {
          "internalType": "uint64",
          "name": "",
          "type": "uint64"
        }
      ],
      "stateMutability": "pure",
      "type": "function"
    },
    {
      "inputs": [],
      "name": "getMipMeipMask",
      "outputs": [
        {
          "internalType": "uint64",
          "name": "",
          "type": "uint64"
        }
      ],
      "stateMutability": "pure",
      "type": "function"
    },
    {
      "inputs": [],
      "name": "getMipMeipShift",
      "outputs": [
        {
          "internalType": "uint64",
          "name": "",
          "type": "uint64"
        }
      ],
      "stateMutability": "pure",
      "type": "function"
    },
    {
      "inputs": [],
      "name": "getMipMsipMask",
      "outputs": [
        {
          "internalType": "uint64",
          "name": "",
          "type": "uint64"
        }
      ],
      "stateMutability": "pure",
      "type": "function"
    },
    {
      "inputs": [],
      "name": "getMipMsipShift",
      "outputs": [
        {
          "internalType": "uint64",
          "name": "",
          "type": "uint64"
        }
      ],
      "stateMutability": "pure",
      "type": "function"
    },
    {
      "inputs": [],
      "name": "getMipMtipMask",
      "outputs": [
        {
          "internalType": "uint64",
          "name": "",
          "type": "uint64"
        }
      ],
      "stateMutability": "pure",
      "type": "function"
    },
    {
      "inputs": [],
      "name": "getMipMtipShift",
      "outputs": [
        {
          "internalType": "uint64",
          "name": "",
          "type": "uint64"
        }
      ],
      "stateMutability": "pure",
      "type": "function"
    },
    {
      "inputs": [],
      "name": "getMipSeipMask",
      "outputs": [
        {
          "internalType": "uint64",
          "name": "",
          "type": "uint64"
        }
      ],
      "stateMutability": "pure",
      "type": "function"
    },
    {
      "inputs": [],
      "name": "getMipSeipShift",
      "outputs": [
        {
          "internalType": "uint64",
          "name": "",
          "type": "uint64"
        }
      ],
      "stateMutability": "pure",
      "type": "function"
    },
    {
      "inputs": [],
      "name": "getMipSsipMask",
      "outputs": [
        {
          "internalType": "uint64",
          "name": "",
          "type": "uint64"
        }
      ],
      "stateMutability": "pure",
      "type": "function"
    },
    {
      "inputs": [],
      "name": "getMipSsipShift",
      "outputs": [
        {
          "internalType": "uint64",
          "name": "",
          "type": "uint64"
        }
      ],
      "stateMutability": "pure",
      "type": "function"
    },
    {
      "inputs": [],
      "name": "getMipStipMask",
      "outputs": [
        {
          "internalType": "uint64",
          "name": "",
          "type": "uint64"
        }
      ],
      "stateMutability": "pure",
      "type": "function"
    },
    {
      "inputs": [],
      "name": "getMipStipShift",
      "outputs": [
        {
          "internalType": "uint64",
          "name": "",
          "type": "uint64"
        }
      ],
      "stateMutability": "pure",
      "type": "function"
    },
    {
      "inputs": [],
      "name": "getMipUeipMask",
      "outputs": [
        {
          "internalType": "uint64",
          "name": "",
          "type": "uint64"
        }
      ],
      "stateMutability": "pure",
      "type": "function"
    },
    {
      "inputs": [],
      "name": "getMipUeipShift",
      "outputs": [
        {
          "internalType": "uint64",
          "name": "",
          "type": "uint64"
        }
      ],
      "stateMutability": "pure",
      "type": "function"
    },
    {
      "inputs": [],
      "name": "getMipUsipMask",
      "outputs": [
        {
          "internalType": "uint64",
          "name": "",
          "type": "uint64"
        }
      ],
      "stateMutability": "pure",
      "type": "function"
    },
    {
      "inputs": [],
      "name": "getMipUsipShift",
      "outputs": [
        {
          "internalType": "uint64",
          "name": "",
          "type": "uint64"
        }
      ],
      "stateMutability": "pure",
      "type": "function"
    },
    {
      "inputs": [],
      "name": "getMipUtipMask",
      "outputs": [
        {
          "internalType": "uint64",
          "name": "",
          "type": "uint64"
        }
      ],
      "stateMutability": "pure",
      "type": "function"
    },
    {
      "inputs": [],
      "name": "getMipUtipShift",
      "outputs": [
        {
          "internalType": "uint64",
          "name": "",
          "type": "uint64"
        }
      ],
      "stateMutability": "pure",
      "type": "function"
    },
    {
      "inputs": [],
      "name": "getMstatusFsMask",
      "outputs": [
        {
          "internalType": "uint64",
          "name": "",
          "type": "uint64"
        }
      ],
      "stateMutability": "pure",
      "type": "function"
    },
    {
      "inputs": [],
      "name": "getMstatusFsShift",
      "outputs": [
        {
          "internalType": "uint64",
          "name": "",
          "type": "uint64"
        }
      ],
      "stateMutability": "pure",
      "type": "function"
    },
    {
      "inputs": [],
      "name": "getMstatusHieShift",
      "outputs": [
        {
          "internalType": "uint64",
          "name": "",
          "type": "uint64"
        }
      ],
      "stateMutability": "pure",
      "type": "function"
    },
    {
      "inputs": [],
      "name": "getMstatusMieMask",
      "outputs": [
        {
          "internalType": "uint64",
          "name": "",
          "type": "uint64"
        }
      ],
      "stateMutability": "pure",
      "type": "function"
    },
    {
      "inputs": [],
      "name": "getMstatusMieShift",
      "outputs": [
        {
          "internalType": "uint64",
          "name": "",
          "type": "uint64"
        }
      ],
      "stateMutability": "pure",
      "type": "function"
    },
    {
      "inputs": [],
      "name": "getMstatusMpieMask",
      "outputs": [
        {
          "internalType": "uint64",
          "name": "",
          "type": "uint64"
        }
      ],
      "stateMutability": "pure",
      "type": "function"
    },
    {
      "inputs": [],
      "name": "getMstatusMpieShift",
      "outputs": [
        {
          "internalType": "uint64",
          "name": "",
          "type": "uint64"
        }
      ],
      "stateMutability": "pure",
      "type": "function"
    },
    {
      "inputs": [],
      "name": "getMstatusMppMask",
      "outputs": [
        {
          "internalType": "uint64",
          "name": "",
          "type": "uint64"
        }
      ],
      "stateMutability": "pure",
      "type": "function"
    },
    {
      "inputs": [],
      "name": "getMstatusMppShift",
      "outputs": [
        {
          "internalType": "uint64",
          "name": "",
          "type": "uint64"
        }
      ],
      "stateMutability": "pure",
      "type": "function"
    },
    {
      "inputs": [],
      "name": "getMstatusMprvMask",
      "outputs": [
        {
          "internalType": "uint64",
          "name": "",
          "type": "uint64"
        }
      ],
      "stateMutability": "pure",
      "type": "function"
    },
    {
      "inputs": [],
      "name": "getMstatusMprvShift",
      "outputs": [
        {
          "internalType": "uint64",
          "name": "",
          "type": "uint64"
        }
      ],
      "stateMutability": "pure",
      "type": "function"
    },
    {
      "inputs": [],
      "name": "getMstatusMxrMask",
      "outputs": [
        {
          "internalType": "uint64",
          "name": "",
          "type": "uint64"
        }
      ],
      "stateMutability": "pure",
      "type": "function"
    },
    {
      "inputs": [],
      "name": "getMstatusMxrShift",
      "outputs": [
        {
          "internalType": "uint64",
          "name": "",
          "type": "uint64"
        }
      ],
      "stateMutability": "pure",
      "type": "function"
    },
    {
      "inputs": [],
      "name": "getMstatusRMask",
      "outputs": [
        {
          "internalType": "uint64",
          "name": "",
          "type": "uint64"
        }
      ],
      "stateMutability": "pure",
      "type": "function"
    },
    {
      "inputs": [],
      "name": "getMstatusSdMask",
      "outputs": [
        {
          "internalType": "uint64",
          "name": "",
          "type": "uint64"
        }
      ],
      "stateMutability": "pure",
      "type": "function"
    },
    {
      "inputs": [],
      "name": "getMstatusSdShift",
      "outputs": [
        {
          "internalType": "uint64",
          "name": "",
          "type": "uint64"
        }
      ],
      "stateMutability": "pure",
      "type": "function"
    },
    {
      "inputs": [],
      "name": "getMstatusSieMask",
      "outputs": [
        {
          "internalType": "uint64",
          "name": "",
          "type": "uint64"
        }
      ],
      "stateMutability": "pure",
      "type": "function"
    },
    {
      "inputs": [],
      "name": "getMstatusSieShift",
      "outputs": [
        {
          "internalType": "uint64",
          "name": "",
          "type": "uint64"
        }
      ],
      "stateMutability": "pure",
      "type": "function"
    },
    {
      "inputs": [],
      "name": "getMstatusSpieMask",
      "outputs": [
        {
          "internalType": "uint64",
          "name": "",
          "type": "uint64"
        }
      ],
      "stateMutability": "pure",
      "type": "function"
    },
    {
      "inputs": [],
      "name": "getMstatusSpieShift",
      "outputs": [
        {
          "internalType": "uint64",
          "name": "",
          "type": "uint64"
        }
      ],
      "stateMutability": "pure",
      "type": "function"
    },
    {
      "inputs": [],
      "name": "getMstatusSppMask",
      "outputs": [
        {
          "internalType": "uint64",
          "name": "",
          "type": "uint64"
        }
      ],
      "stateMutability": "pure",
      "type": "function"
    },
    {
      "inputs": [],
      "name": "getMstatusSppShift",
      "outputs": [
        {
          "internalType": "uint64",
          "name": "",
          "type": "uint64"
        }
      ],
      "stateMutability": "pure",
      "type": "function"
    },
    {
      "inputs": [],
      "name": "getMstatusSumMask",
      "outputs": [
        {
          "internalType": "uint64",
          "name": "",
          "type": "uint64"
        }
      ],
      "stateMutability": "pure",
      "type": "function"
    },
    {
      "inputs": [],
      "name": "getMstatusSumShift",
      "outputs": [
        {
          "internalType": "uint64",
          "name": "",
          "type": "uint64"
        }
      ],
      "stateMutability": "pure",
      "type": "function"
    },
    {
      "inputs": [],
      "name": "getMstatusSxlMask",
      "outputs": [
        {
          "internalType": "uint64",
          "name": "",
          "type": "uint64"
        }
      ],
      "stateMutability": "pure",
      "type": "function"
    },
    {
      "inputs": [],
      "name": "getMstatusSxlShift",
      "outputs": [
        {
          "internalType": "uint64",
          "name": "",
          "type": "uint64"
        }
      ],
      "stateMutability": "pure",
      "type": "function"
    },
    {
      "inputs": [],
      "name": "getMstatusTsrMask",
      "outputs": [
        {
          "internalType": "uint64",
          "name": "",
          "type": "uint64"
        }
      ],
      "stateMutability": "pure",
      "type": "function"
    },
    {
      "inputs": [],
      "name": "getMstatusTsrShift",
      "outputs": [
        {
          "internalType": "uint64",
          "name": "",
          "type": "uint64"
        }
      ],
      "stateMutability": "pure",
      "type": "function"
    },
    {
      "inputs": [],
      "name": "getMstatusTvmMask",
      "outputs": [
        {
          "internalType": "uint64",
          "name": "",
          "type": "uint64"
        }
      ],
      "stateMutability": "pure",
      "type": "function"
    },
    {
      "inputs": [],
      "name": "getMstatusTvmShift",
      "outputs": [
        {
          "internalType": "uint64",
          "name": "",
          "type": "uint64"
        }
      ],
      "stateMutability": "pure",
      "type": "function"
    },
    {
      "inputs": [],
      "name": "getMstatusTwMask",
      "outputs": [
        {
          "internalType": "uint64",
          "name": "",
          "type": "uint64"
        }
      ],
      "stateMutability": "pure",
      "type": "function"
    },
    {
      "inputs": [],
      "name": "getMstatusTwShift",
      "outputs": [
        {
          "internalType": "uint64",
          "name": "",
          "type": "uint64"
        }
      ],
      "stateMutability": "pure",
      "type": "function"
    },
    {
      "inputs": [],
      "name": "getMstatusUieMask",
      "outputs": [
        {
          "internalType": "uint64",
          "name": "",
          "type": "uint64"
        }
      ],
      "stateMutability": "pure",
      "type": "function"
    },
    {
      "inputs": [],
      "name": "getMstatusUieShift",
      "outputs": [
        {
          "internalType": "uint64",
          "name": "",
          "type": "uint64"
        }
      ],
      "stateMutability": "pure",
      "type": "function"
    },
    {
      "inputs": [],
      "name": "getMstatusUpieMask",
      "outputs": [
        {
          "internalType": "uint64",
          "name": "",
          "type": "uint64"
        }
      ],
      "stateMutability": "pure",
      "type": "function"
    },
    {
      "inputs": [],
      "name": "getMstatusUpieShift",
      "outputs": [
        {
          "internalType": "uint64",
          "name": "",
          "type": "uint64"
        }
      ],
      "stateMutability": "pure",
      "type": "function"
    },
    {
      "inputs": [],
      "name": "getMstatusUxlMask",
      "outputs": [
        {
          "internalType": "uint64",
          "name": "",
          "type": "uint64"
        }
      ],
      "stateMutability": "pure",
      "type": "function"
    },
    {
      "inputs": [],
      "name": "getMstatusUxlShift",
      "outputs": [
        {
          "internalType": "uint64",
          "name": "",
          "type": "uint64"
        }
      ],
      "stateMutability": "pure",
      "type": "function"
    },
    {
      "inputs": [],
      "name": "getMstatusWMask",
      "outputs": [
        {
          "internalType": "uint64",
          "name": "",
          "type": "uint64"
        }
      ],
      "stateMutability": "pure",
      "type": "function"
    },
    {
      "inputs": [],
      "name": "getMstatusXsMask",
      "outputs": [
        {
          "internalType": "uint64",
          "name": "",
          "type": "uint64"
        }
      ],
      "stateMutability": "pure",
      "type": "function"
    },
    {
      "inputs": [],
      "name": "getMstatusXsShift",
      "outputs": [
        {
          "internalType": "uint64",
          "name": "",
          "type": "uint64"
        }
      ],
      "stateMutability": "pure",
      "type": "function"
    },
    {
      "inputs": [],
      "name": "getMxl",
      "outputs": [
        {
          "internalType": "uint64",
          "name": "",
          "type": "uint64"
        }
      ],
      "stateMutability": "pure",
      "type": "function"
    },
    {
      "inputs": [],
      "name": "getPageNumberShift",
      "outputs": [
        {
          "internalType": "uint64",
          "name": "",
          "type": "uint64"
        }
      ],
      "stateMutability": "pure",
      "type": "function"
    },
    {
      "inputs": [],
      "name": "getPageOffsetMask",
      "outputs": [
        {
          "internalType": "uint64",
          "name": "",
          "type": "uint64"
        }
      ],
      "stateMutability": "pure",
      "type": "function"
    },
    {
      "inputs": [],
      "name": "getPgMask",
      "outputs": [
        {
          "internalType": "uint64",
          "name": "",
          "type": "uint64"
        }
      ],
      "stateMutability": "pure",
      "type": "function"
    },
    {
      "inputs": [],
      "name": "getPgShift",
      "outputs": [
        {
          "internalType": "uint64",
          "name": "",
          "type": "uint64"
        }
      ],
      "stateMutability": "pure",
      "type": "function"
    },
    {
      "inputs": [],
      "name": "getPrvH",
      "outputs": [
        {
          "internalType": "uint64",
          "name": "",
          "type": "uint64"
        }
      ],
      "stateMutability": "pure",
      "type": "function"
    },
    {
      "inputs": [],
      "name": "getPrvM",
      "outputs": [
        {
          "internalType": "uint64",
          "name": "",
          "type": "uint64"
        }
      ],
      "stateMutability": "pure",
      "type": "function"
    },
    {
      "inputs": [],
      "name": "getPrvS",
      "outputs": [
        {
          "internalType": "uint64",
          "name": "",
          "type": "uint64"
        }
      ],
      "stateMutability": "pure",
      "type": "function"
    },
    {
      "inputs": [],
      "name": "getPrvU",
      "outputs": [
        {
          "internalType": "uint64",
          "name": "",
          "type": "uint64"
        }
      ],
      "stateMutability": "pure",
      "type": "function"
    },
    {
      "inputs": [],
      "name": "getPteAMask",
      "outputs": [
        {
          "internalType": "uint64",
          "name": "",
          "type": "uint64"
        }
      ],
      "stateMutability": "pure",
      "type": "function"
    },
    {
      "inputs": [],
      "name": "getPteDMask",
      "outputs": [
        {
          "internalType": "uint64",
          "name": "",
          "type": "uint64"
        }
      ],
      "stateMutability": "pure",
      "type": "function"
    },
    {
      "inputs": [],
      "name": "getPteUMask",
      "outputs": [
        {
          "internalType": "uint64",
          "name": "",
          "type": "uint64"
        }
      ],
      "stateMutability": "pure",
      "type": "function"
    },
    {
      "inputs": [],
      "name": "getPteVMask",
      "outputs": [
        {
          "internalType": "uint64",
          "name": "",
          "type": "uint64"
        }
      ],
      "stateMutability": "pure",
      "type": "function"
    },
    {
      "inputs": [],
      "name": "getPteXwrCodeShift",
      "outputs": [
        {
          "internalType": "uint64",
          "name": "",
          "type": "uint64"
        }
      ],
      "stateMutability": "pure",
      "type": "function"
    },
    {
      "inputs": [],
      "name": "getPteXwrReadShift",
      "outputs": [
        {
          "internalType": "uint64",
          "name": "",
          "type": "uint64"
        }
      ],
      "stateMutability": "pure",
      "type": "function"
    },
    {
      "inputs": [],
      "name": "getPteXwrWriteShift",
      "outputs": [
        {
          "internalType": "uint64",
          "name": "",
          "type": "uint64"
        }
      ],
      "stateMutability": "pure",
      "type": "function"
    },
    {
      "inputs": [],
      "name": "getScounterenRwMask",
      "outputs": [
        {
          "internalType": "uint64",
          "name": "",
          "type": "uint64"
        }
      ],
      "stateMutability": "pure",
      "type": "function"
    },
    {
      "inputs": [],
      "name": "getSstatusRMask",
      "outputs": [
        {
          "internalType": "uint64",
          "name": "",
          "type": "uint64"
        }
      ],
      "stateMutability": "pure",
      "type": "function"
    },
    {
      "inputs": [],
      "name": "getSstatusWMask",
      "outputs": [
        {
          "internalType": "uint64",
          "name": "",
          "type": "uint64"
        }
      ],
      "stateMutability": "pure",
      "type": "function"
    },
    {
      "inputs": [],
      "name": "getXlen",
      "outputs": [
        {
          "internalType": "uint64",
          "name": "",
          "type": "uint64"
        }
      ],
      "stateMutability": "pure",
      "type": "function"
    }
  ],
  "transactionHash": "0xb75c6f3b52c7625923ae2091bae6a4e7db9f38d64770d330b6e42e8ab7b85f32",
  "args": [],
  "solcInputHash": "4ab6a1e1786521c94a86efcef741c284",
  "bytecode": "0x610cb4610026600b82828239805160001a60731461001957fe5b30600052607381538281f3fe73000000000000000000000000000000000000000030146080604052600436106106635760003560e01c80638e0840bf1161035b578063c3b85a8f116101cd578063db19725411610119578063f2f21e4c116100b7578063f796d7d711610091578063f796d7d714610845578063fcc61eff146107fd578063fd198e55146107fd578063fd6607c11461084d57610663565b8063f2f21e4c146106ad578063f2fb62c91461083d578063f4a407611461073d57610663565b8063e746ac72116100f3578063e746ac7214610835578063e89d408d1461068d578063e8a2695914610725578063e9d727641461066857610663565b8063db1972541461082d578063e1d206ab146106e5578063e697ace91461071d57610663565b8063cac5b49511610186578063cf7ecf7911610160578063cf7ecf79146106e5578063d50ca22f14610725578063d8685e0814610825578063dacff167146107cd57610663565b8063cac5b49514610815578063cba6d20c1461071d578063cc19195c1461081d57610663565b8063c3b85a8f146106ed578063c3d5890f1461080d578063c49235ea146107e5578063c5d15aad14610695578063c6ce50d614610785578063ca3c11341461068d57610663565b8063a4521d8b116102a7578063ae3a10d111610245578063b396896e1161021f578063b396896e146106cd578063b482d45114610805578063b4e549ba14610715578063bc8957431461072557610663565b8063ae3a10d1146107fd578063ae458ae8146107fd578063b0c41fc51461068d57610663565b8063a8f81e2311610281578063a8f81e23146107e5578063a92353d7146107ed578063ac5732fe1461068d578063ad21dcaf146107f557610663565b8063a4521d8b146107d5578063a4652fa5146106b5578063a73fa952146107dd57610663565b8063944b9ad411610314578063a16de11c116102ee578063a16de11c146107cd578063a195e2db146106dd578063a1a29005146106bd578063a406ed801461075557610663565b8063944b9ad4146107bd5780639839423814610695578063a12e3511146107c557610663565b80638e0840bf146107a55780638ed7317f146106ed5780638fbe78d2146106fd578063910a5247146106e55780639166a2f9146107ad5780639230fa1d146107b557610663565b8063594dc373116104f45780637273ba701161044057806386c22955116103de57806389941a2a116103b857806389941a2a146107855780638a17ca861461078d5780638a911eef146107955780638c295e351461079d57610663565b806386c2295514610775578063883d4fb01461077d578063895327721461074557610663565b80637e6a20ca1161041a5780637e6a20ca146106fd5780638208d1f21461071d5780638235ca8814610725578063835658181461076d57610663565b80637273ba7014610725578063729e52ee146107655780637df413631461069557610663565b8063656b151f116104ad5780636db638c8116104875780636db638c8146107255780636eb9d0a01461073d5780636f5514e414610755578063717c5d7c1461075d57610663565b8063656b151f14610695578063693549ac146107455780636bdd3bf91461074d57610663565b8063594dc3731461071d57806359e4e7c3146107255780635af17adf1461072d578063609fd47c146107355780636164e3421461073d57806361ed380a1461068d57610663565b80633fe2098a116105b357806345d9c4651161056c5780634d89d393116105465780634d89d393146106bd5780634e95a4101461070d578063501bec4514610715578063574a20ef1461068d57610663565b806345d9c465146106e557806348b36c3a146106fd5780634d26940d1461070557610663565b80633fe2098a146106d557806340391774146106dd5780634074af28146106e5578063422c61941461069557806344312160146106ed578063458472a7146106f557610663565b806327d1ff75116106205780632ee52303116105fa5780632ee52303146106bd578063317d2bb5146106c55780633a6d9202146106cd5780633afcb7a11461068d57610663565b806327d1ff75146106a55780632968a7bd146106ad5780632e750856146106b557610663565b80630129840414610668578063026797d91461068d5780630ab3e66614610695578063143fb1a4146106685780631918bc6f1461069d5780631d5edf0314610695575b600080fd5b610670610855565b6040805167ffffffffffffffff9092168252519081900360200190f35b61067061085a565b61067061085f565b610670610864565b61067061088b565b610670610890565b6106706108b7565b6106706108bc565b6106706108c1565b6106706108cb565b6106706108d5565b6106706108da565b6106706108df565b6106706108e4565b6106706108e9565b6106706108f3565b6106706108f8565b610670610902565b61067061090c565b610670610911565b61067061091b565b610670610920565b61067061092a565b610670610934565b610670610939565b610670610943565b61067061094d565b610670610957565b61067061095c565b61067061096e565b6106706109fb565b610670610a49565b610670610a73565b610670610a7d565b610670610a87565b610670610ae7565b610670610af1565b610670610b04565b610670610b0e565b610670610b13565b610670610bbb565b610670610bc5565b610670610bca565b610670610bcf565b610670610bd9565b610670610be3565b610670610be8565b610670610bed565b610670610bf7565b610670610bfc565b610670610c01565b610670610c10565b610670610c3a565b610670610c3f565b610670610c44565b610670610c4e565b610670610c6f565b610670610c79565b600590565b600190565b600090565b600061086e6108da565b67ffffffffffffffff16600367ffffffffffffffff16901b905090565b601190565b600061089a6108df565b67ffffffffffffffff16600167ffffffffffffffff16901b905090565b600f90565b600c90565b600061086e6108df565b600061089a610934565b608090565b600d90565b600390565b600890565b600061089a610b0e565b600790565b600061089a610bc5565b600061089a610be3565b604090565b600061089a61085a565b600290565b600061086e610be8565b600061089a610bf7565b600490565b600061089a61091b565b600061086e610957565b600061089a610855565b602290565b6000600161096861090c565b03905090565b600061097861092a565b6109806108e9565b610988610b04565b610990610902565b610998610a7d565b6109a0610ae7565b6109a8610864565b6109b0610c44565b6109b8610a73565b6109c0610bd9565b6109c861094d565b6109d06108cb565b6109d8610890565b6109e0610911565b6109e8610bed565b1717171717171717171717171717905090565b6000610a05610902565b610a0d610a7d565b610a15610864565b610a1d610a73565b610a2561094d565b610a2d6108cb565b610a35610911565b610a3d610bed565b17171717171717905090565b60006001610a5561090c565b0367ffffffffffffffff16600167ffffffffffffffff16901b905090565b600061089a6108e4565b600061089a610bfc565b6000610a91610bbb565b610a99610920565b610aa1610902565b610aa9610a7d565b610ab1610864565b610ab9610a73565b610ac161094d565b610ac96108cb565b610ad1610911565b610ad9610bed565b171717171717171717905090565b600061089a61088b565b60006001610afd6108bc565b5090919050565b600061089a610c3f565b601590565b6000610b1d610bbb565b610b25610943565b610b2d610920565b610b3561092a565b610b3d6108e9565b610b45610b04565b610b4d610902565b610b55610a7d565b610b5d610ae7565b610b65610864565b610b6d610c44565b610b75610a73565b610b7d610bd9565b610b8561094d565b610b8d6108cb565b610b95610890565b610b9d610911565b610ba5610bed565b1717171717171717171717171717171717905090565b600061089a61095c565b600b90565b601090565b600061089a610c79565b600061089a6108f3565b601390565b602090565b600061089a61085f565b601690565b601290565b6000610c0b610c4e565b905090565b60006001610c1c6108bc565b67ffffffffffffffff16600167ffffffffffffffff16901b03905090565b600690565b601490565b600061086e610bc5565b6000610c58610939565b610c60610911565b610c68610bed565b1717905090565b600061086e6108b7565b60099056fea264697066735822122062c25b7a5817f8e7065370434ba97994a4c57909e9e913d49a945e29053ac80a64736f6c63430007040033",
  "devdoc": {
    "author": "Felipe Argento",
    "kind": "dev",
    "methods": {},
    "title": "RiscVConstants",
    "version": 1
  },
  "userdoc": {
    "kind": "user",
    "methods": {
      "getMcauseBreakpoint()": {
        "notice": "< illegal instruction"
      },
      "getMcauseEcallBase()": {
        "notice": "< store/amo access fault < environment call (+0: from u-mode, +1: from s-mode, +3: from m-mode)"
      },
      "getMcauseIllegalInsn()": {
        "notice": "< instruction access fault"
      },
      "getMcauseInsnAccessFault()": {
        "notice": "< instruction address misaligned"
      },
      "getMcauseInterruptFlag()": {
        "notice": "< store/amo page fault"
      },
      "getMcauseLoadAccessFault()": {
        "notice": "< load address misaligned"
      },
      "getMcauseLoadAddressMisaligned()": {
        "notice": "< breakpoint"
      },
      "getMcauseLoadPageFault()": {
        "notice": "< instruction page fault"
      },
      "getMcauseStoreAmoAccessFault()": {
        "notice": "< store/amo address misaligned"
      },
      "getMcauseStoreAmoAddressMisaligned()": {
        "notice": "< load access fault"
      },
      "getMcauseStoreAmoPageFault()": {
        "notice": "< load page fault"
      },
      "getMcounterenCyShift()": {
        "notice": "< interrupt flag"
      }
    },
    "notice": "Defines getters for important constants",
    "version": 1
  },
  "storageLayout": {
    "storage": [],
    "types": null
  }
}